:0400000018EF00F005
:100008005F820E0133AB0BEF00F00DEF00F016EF3F
:1000180000F03C0ED46EAF0ED36E0101424B432B61
:0C0028000E01339B5F921100D1EF2CF011
:100E0000000000004B256409256409256409256458
:100E10000D0A0000000E00017A6F000E796F000EBF
:100E2000826F000E816F000E7E6F000E7D6F000ED0
:100E3000886F000E876F000E846F000E836F000EA8
:100E4000866F000E856F000E8D6F000E8C6F000E8A
:100E5000806F000E7F6F000E7C6F000E7B6F000EA8
:100E6000896F21EC2EF0090E0001766F1E0E756F52
:100E7000E40EE82EFED7752FFCD7762FFAD700F0B8
:100E800071C00CF072C00DF031EC2BF073C0D9FFC3
:100E900074C0DAFFDECF75F0DDCF76F075C001F0FB
:100EA00076C002F0036A046A000E11EC1FF001C064
:100EB00013F002C014F003C015F004C016F071C0A6
:100EC000D9FF72C0DAFFDECF77F0DDCF78F077C0E0
:100ED00001F078C002F0036A046A000E11EC1FF002
:100EE00001C00FF002C010F003C011F004C012F0F6
:100EF0002AEC15F00FC028F010C029F011C02AF01C
:100F000012C02BF0000E2C6E000E2D6EC80E2E6E31
:100F1000420E2F6E6CEC0FF028C08EF029C08FF0BF
:100F20002AC090F02BC091F08EC066F08FC067F0A1
:100F300090C068F091C069F02EEC2DF066C08AF088
:100F400067C08BF0000120EE02F07351D926745176
:100F5000DA22DECF75F0DDCF76F075C001F076C015
:100F600002F0036A046A000E11EC1FF001C013F0D6
:100F700002C014F003C015F004C016F0000120EE0A
:100F800002F07151D9267251DA22DECF77F0DDCF2F
:100F900078F077C001F078C002F0036A046A000EAE
:100FA00011EC1FF001C00FF002C010F003C011F0EF
:100FB00004C012F02AEC15F00FC028F010C029F080
:100FC00011C02AF012C02BF0000E2C6E000E2D6EF8
:100FD000C80E2E6E420E2F6E6CEC0FF028C08EF0F5
:100FE00029C08FF02AC090F02BC091F08EC066F01F
:100FF0008FC067F090C068F091C069F02EEC2DF0C2
:10100000000120EE04F07351D9267451DA22DECFAC
:1010100075F0DDCF76F075C001F076C002F0036A9E
:10102000046A000E11EC1FF001C013F002C014F0AE
:1010300003C015F004C016F0000120EE04F0715159
:10104000D9267251DA22DECF77F0DDCF78F077C083
:1010500001F078C002F0036A046A000E11EC1FF080
:1010600001C00FF002C010F003C011F004C012F074
:101070002AEC15F00FC028F010C029F011C02AF09A
:1010800012C02BF0000E2C6E000E2D6EC80E2E6EB0
:10109000420E2F6E6CEC0FF028C08EF029C08FF03E
:1010A0002AC090F02BC091F08EC066F08FC067F020
:1010B00090C068F091C069F02EEC2DF066C081F010
:1010C00067C082F0050E0001766F0F0E756FF10E8E
:1010D000E82EFED7752FFCD7762FFAD741EC2EF0ED
:1010E000090E0001766F1E0E756FE40EE82EFED716
:1010F000752FFCD7762FFAD700F071C00CF072C0B4
:101100000DF031EC2BF0000120EE06F07351D926E2
:101110007451DA22DECF75F0DDCF76F075C001F0C4
:1011200076C002F0036A046A000E11EC1FF001C0E1
:1011300013F002C014F003C015F004C016F071C023
:10114000D9FF72C0DAFFDECF77F0DDCF78F077C05D
:1011500001F078C002F0036A046A000E11EC1FF07F
:1011600001C00FF002C010F003C011F004C012F073
:101170002AEC15F00FC028F010C029F011C02AF099
:1011800012C02BF0000E2C6E000E2D6EC80E2E6EAF
:10119000420E2F6E6CEC0FF028C08EF029C08FF03D
:1011A0002AC090F02BC091F08EC066F08FC067F01F
:1011B00090C068F091C069F02EEC2DF066C07DF013
:1011C00067C07EF0000120EE08F07351D9267451FB
:1011D000DA22DECF75F0DDCF76F075C001F076C093
:1011E00002F0036A046A000E11EC1FF001C013F054
:1011F00002C014F003C015F004C016F0000120EE88
:1012000002F07151D9267251DA22DECF77F0DDCFAC
:1012100078F077C001F078C002F0036A046A000E2B
:1012200011EC1FF001C00FF002C010F003C011F06C
:1012300004C012F02AEC15F00FC028F010C029F0FD
:1012400011C02AF012C02BF0000E2C6E000E2D6E75
:10125000C80E2E6E420E2F6E6CEC0FF028C08EF072
:1012600029C08FF02AC090F02BC091F08EC066F09C
:101270008FC067F090C068F091C069F02EEC2DF03F
:1012800066C087F067C088F0000120EE0AF0735155
:10129000D9267451DA22DECF75F0DDCF76F075C035
:1012A00001F076C002F0036A046A000E11EC1FF030
:1012B00001C013F002C014F003C015F004C016F012
:1012C000000120EE04F07151D9267251DA22DECFEE
:1012D00077F0DDCF78F077C001F078C002F0036AD4
:1012E000046A000E11EC1FF001C00FF002C010F0F4
:1012F00003C011F004C012F02AEC15F00FC028F062
:1013000010C029F011C02AF012C02BF0000E2C6E74
:10131000000E2D6EC80E2E6E420E2F6E6CEC0FF06E
:1013200028C08EF029C08FF02AC090F02BC091F019
:101330008EC066F08FC067F090C068F091C069F011
:101340002EEC2DF066C083F067C084F051EC2EF0D7
:10135000090E0001766F1E0E756FE40EE82EFED7A3
:10136000752FFCD7762FFAD700F071C00CF072C041
:101370000DF031EC2BF0000120EE0CF07351D9266A
:101380007451DA22DECF75F0DDCF76F075C001F052
:1013900076C002F0036A046A000E11EC1FF001C06F
:1013A00013F002C014F003C015F004C016F071C0B1
:1013B000D9FF72C0DAFFDECF77F0DDCF78F077C0EB
:1013C00001F078C002F0036A046A000E11EC1FF00D
:1013D00001C00FF002C010F003C011F004C012F001
:1013E0002AEC15F00FC028F010C029F011C02AF027
:1013F00012C02BF0000E2C6E000E2D6EC80E2E6E3D
:10140000420E2F6E6CEC0FF028C08EF029C08FF0CA
:101410002AC090F02BC091F08EC066F08FC067F0AC
:1014200090C068F091C069F02EEC2DF066C085F098
:1014300067C086F0000120EE0EF07351D92674517A
:10144000DA22DECF75F0DDCF76F075C001F076C020
:1014500002F0036A046A000E11EC1FF001C013F0E1
:1014600002C014F003C015F004C016F0000120EE15
:1014700002F07151D9267251DA22DECF77F0DDCF3A
:1014800078F077C001F078C002F0036A046A000EB9
:1014900011EC1FF001C00FF002C010F003C011F0FA
:1014A00004C012F02AEC15F00FC028F010C029F08B
:1014B00011C02AF012C02BF0000E2C6E000E2D6E03
:1014C000C80E2E6E420E2F6E6CEC0FF028C08EF000
:1014D00029C08FF02AC090F02BC091F08EC066F02A
:1014E0008FC067F090C068F091C069F02EEC2DF0CD
:1014F00066C08CF067C08DF0000120EE10F07351D3
:10150000D9267451DA22DECF75F0DDCF76F075C0C2
:1015100001F076C002F0036A046A000E11EC1FF0BD
:1015200001C013F002C014F003C015F004C016F09F
:10153000000120EE04F07151D9267251DA22DECF7B
:1015400077F0DDCF78F077C001F078C002F0036A61
:10155000046A000E11EC1FF001C00FF002C010F081
:1015600003C011F004C012F02AEC15F00FC028F0EF
:1015700010C029F011C02AF012C02BF0000E2C6E02
:10158000000E2D6EC80E2E6E420E2F6E6CEC0FF0FC
:1015900028C08EF029C08FF02AC090F02BC091F0A7
:1015A0008EC066F08FC067F090C068F091C069F09F
:1015B0002EEC2DF066C07FF067C080F0000120EEB9
:1015C0001AF07351D9267451DA22DECF75F0DDCFCF
:1015D00076F075C001F076C002F0036A046A000E6E
:1015E00011EC1FF001C013F002C014F003C015F09D
:1015F00004C016F0000120EE06F07151D926725198
:10160000DA22DECF77F0DDCF78F077C001F078C056
:1016100002F0036A046A000E11EC1FF001C00FF023
:1016200002C010F003C011F004C012F02AEC15F053
:101630000FC028F010C029F011C02AF012C02BF002
:10164000000E2C6E000E2D6EC80E2E6E420E2F6EEA
:101650006CEC0FF028C08EF029C08FF02AC090F0FB
:101660002BC091F08EC066F08FC067F090C068F01C
:1016700091C069F02EEC2DF0000E00016B6F000E92
:101680006A6F8AC06CF08BC06DF0000E6F6F2D0E0C
:101690006E6F11EC2DF00009D8B451EF0BF053EF41
:1016A0000BF0C4EF0BF07FC001F080C002F0036AC2
:1016B000046A000E11EC1FF001C013F002C014F018
:1016C00003C015F004C016F000018C518725756F1A
:1016D0008D518821766F75C001F076C002F0036AE3
:1016E000046A000E11EC1FF001C00FF002C010F0F0
:1016F00003C011F004C012F02AEC15F00FC028F05E
:1017000010C029F011C02AF012C02BF0000E2C6E70
:10171000000E2D6E480E2E6E430E2F6E6CEC0FF0E9
:1017200028C08EF029C08FF02AC090F02BC091F015
:10173000000E00016B6F000E6A6F8EC066F08FC0E6
:1017400067F090C068F091C069F02EEC2DF066C093
:101750006CF067C06DF0010E00016F6FD30E6E6FFD
:1017600011EC2DF00009D8B4B8EF0BF0BAEF0BF084
:10177000BFEF0BF0030E0001896F7FEF0CF0020E3C
:101780000001896F7FEF0CF00001885107E11F0E07
:10179000875DD8B0CEEF0BF0D0EF0BF045EF0CF03B
:1017A000845107E11F0E835DD8B0D9EF0BF0DBEF5A
:1017B0000BF045EF0CF08AC001F08BC002F0036A19
:1017C000046A000E11EC1FF001C013F002C014F007
:1017D00003C015F004C016F07DC001F07EC002F019
:1017E000036A046A000E11EC1FF001C00FF002C082
:1017F00010F003C011F004C012F02AEC15F00FC075
:1018000028F010C029F011C02AF012C02BF0000EF1
:101810002C6E000E2D6EFA0E2E6E430E2F6E6CEC9B
:101820000FF028C08EF029C08FF02AC090F02BC096
:1018300091F0000E00016B6F000E6A6F8EC066F0B3
:101840008FC067F090C068F091C069F02EEC2DF069
:1018500066C06CF067C06DF0000E00016F6F960EF1
:101860006E6F11EC2DF00009D8B439EF0CF03BEF9E
:101870000CF040EF0CF0010E0001896F7FEF0CF0CF
:10188000060E0001896F7FEF0CF0885109E11F0EF1
:10189000875DD8A04EEF0CF050EF0CF07DEF0CF010
:1018A000845109E11F0E835DD8A059EF0CF05BEF66
:1018B0000CF07DEF0CF085518C5D86518D59D8A0D0
:1018C00064EF0CF066EF0CF06AEF0CF0070E896F16
:1018D0007FEF0CF08D5107E1300E8C5DD8B073EFC7
:1018E0000CF075EF0CF079EF0CF0040E896F7FEFC0
:1018F0000CF0050E896F7FEF0CF0000E896F000E63
:101900006B6F5A0E6A6F8AC06CF08BC06DF0D89006
:101910008A356E6F8B356F6F11EC2DF00009D8B4DE
:1019200094EF0CF096EF0CF0C9EF0CF0000E0001F4
:101930006B6F5A0E6A6F81C06CF082C06DF0D890E8
:1019400081356E6F82356F6F11EC2DF00009D8B4C0
:10195000ACEF0CF0AEEF0CF0C9EF0CF0000E000194
:101960006B6F5A0E6A6F8CC06CF08DC06DF0D890A2
:101970008C356E6F8D356F6F11EC2DF00009D8B47A
:10198000C4EF0CF0C6EF0CF0C9EF0CF0080E00012C
:10199000896F000E00016B6F000E6A6F85C06CF0DE
:1019A00086C06DF0000E6F6F190E6E6F11EC2DF08A
:1019B0000009D8B4DEEF0CF0E0EF0CF0FAEF0CF019
:1019C000000E00016B6F000E6A6F8AC06CF08BC056
:1019D0006DF0000E6F6F1E0E6E6F11EC2DF0000992
:1019E000D8B4F5EF0CF0F7EF0CF0FAEF0CF0000EB6
:1019F0000001896F080E00018919D8A402EF0DF0CB
:101A000004EF0DF009EF0DF0010E016E020EE1EC96
:101A100019F00001895112000450800B0D6E045022
:101A200004240F6E03AE17EF0DF019EF0DF01AEF4F
:101A30000DF00F800F50D8B420EF0DF022EF0DF015
:101A400037EF0DF00F28D8A428EF0DF02AEF0DF096
:101A500032EF0DF0000E016E000E026E000E036EEE
:101A6000000E046E038E000E046E3FEF0DF0000EAC
:101A7000016E000E026E000E036E000E046E085022
:101A8000800B0E6E0D500E18D8B449EF0DF04BEFD1
:101A90000DF04CEF0DF00D8C085008240E6E07AEC3
:101AA00054EF0DF056EF0DF057EF0DF00E800E5085
:101AB000D8B45DEF0DF05FEF0DF074EF0DF00E2870
:101AC000D8A465EF0DF067EF0DF06FEF0DF0000E8D
:101AD000056E000E066E000E076E000E086E078E75
:101AE000000E086E7CEF0DF0000E056E000E066E07
:101AF000000E076E000E086E0F500E5CD8B083EF1C
:101B00000DF085EF0DF0ACEF0DF00DAC8AEF0DF0A0
:101B10008CEF0DF08EEF0DF0800E0D1A0FC010F04F
:101B20000EC00FF010C00EF001C010F005C001F0A3
:101B300010C005F002C010F006C002F010C006F0A0
:101B400003C010F007C003F010C007F004C010F08D
:101B500008C004F010C008F0000E106E0F500EC048
:101B600009F00A6A095E000E0A5A0ABEC1EF0DF0BA
:101B70000A5009E11A0E095CD8A0C1EF0DF0C3EFBD
:101B80000DF0FAEF0DF00150021003100410D8A46C
:101B9000CCEF0DF0CFEF0DF0010ED0EF0DF0000EF9
:101BA000106E000E016E000E026E000E036E000E2F
:101BB000046E0EC00FF003EF0EF010A0E2EF0DF078
:101BC000E4EF0DF0EAEF0DF0D89010300109106E3F
:101BD000ECEF0DF0D890103201A0F1EF0DF0F3EF23
:101BE0000DF0F4EF0DF0108E0434043203320232A3
:101BF00001320F2A0E500F5CD8A001EF0EF003EF58
:101C00000EF0DDEF0DF00DBC08EF0EF00AEF0EF058
:101C10004AEF0EF00F50D8A410EF0EF012EF0EF0B6
:101C20001CEF0EF0000E016E000E026E000E036E31
:101C3000000E046E6BEF0FF00550012606500222D5
:101C4000075003220850042204A029EF0EF02BEFC6
:101C50000EF0D7EF0EF010A030EF0EF032EF0EF0D6
:101C600038EF0EF0D89010300109106E3AEF0EF0F8
:101C7000D890103201A03FEF0EF041EF0EF042EF8E
:101C80000EF0108E043404320332023201320F2A75
:101C9000D7EF0EF00550015C06500258075003586C
:101CA0000450800A096E0850800A0958D8B05BEFCA
:101CB0000EF05DEF0EF088EF0EF00150055C096E3E
:101CC000025006580A6E035007580B6E045008580D
:101CD0000C6EFF0E0924016EFF0E0A20026EFF0E2D
:101CE0000B20036EFF0E0C20046E800E0D1A106C7C
:101CF0001050D8A47EEF0EF080EF0EF090EF0EF0B3
:101D0000010E0126000E02220322042290EF0EF0A3
:101D10000550015E0650025A0750035A0850045AF3
:101D20000150021003100410D8A499EF0EF09BEF9D
:101D30000EF0D0EF0EF01050D8A4A1EF0EF0A3EFEC
:101D40000EF0D0EF0EF0000E016E000E026E000ECF
:101D5000036E000E046E6BEF0FF0D8900136023662
:101D60000336043610AEB7EF0EF0B9EF0EF0BAEF4F
:101D70000EF0018010A0BFEF0EF0C1EF0EF0C5EF26
:101D80000EF0D8801036C7EF0EF0D89010360F50F6
:101D9000D8B4CDEF0EF0CFEF0EF0D0EF0EF00F066F
:101DA00003AED5EF0EF0D7EF0EF0ADEF0EF0000E54
:101DB0000E6E10AEDEEF0EF0E0EF0EF0F8EF0EF06C
:101DC00010C009F07F0E0916D8B4E9EF0EF0EBEF62
:101DD0000EF0EFEF0EF0010E0E6EF8EF0EF001A018
:101DE000F4EF0EF0F6EF0EF0F8EF0EF0EBEF0EF072
:101DF0000E50D8B4FEEF0EF000EF0FF02BEF0FF007
:101E0000010E0126000E02220322042204A00BEF81
:101E10000FF00DEF0FF02BEF0FF001C009F002C033
:101E20000AF003C00BF004C00CF00C340C320B327F
:101E30000A32093209C001F00AC002F00BC003F0F7
:101E40000CC004F00F28D8B428EF0FF02AEF0FF0E1
:101E50002BEF0FF00F2A0F28D8B431EF0FF033EF2C
:101E60000FF03BEF0FF00F50D8A439EF0FF03BEF1E
:101E70000FF04DEF0FF0000E016E000E026E000E1F
:101E8000036E000E046E0F50D8A449EF0FF04BEF15
:101E90000FF04DEF0FF0000E0D6E0FA052EF0FF090
:101EA00054EF0FF057EF0FF0038E58EF0FF0039E33
:101EB000D8900F30046E0DAE60EF0FF062EF0FF0B0
:101EC00063EF0FF0048E01C001F002C002F003C006
:101ED00003F004C004F012002B50800B346E2B5022
:101EE0002B243A6E2AAE77EF0FF079EF0FF07AEFEE
:101EF0000FF03A803A50D8B480EF0FF082EF0FF035
:101F000095EF0FF03A28D8A488EF0FF08AEF0FF082
:101F100092EF0FF0000E286E000E296E000E2A6E52
:101F2000000E2B6E2A8E9DEF0FF0000E286E000E15
:101F3000296E000E2A6E000E2B6E2F50800B341A65
:101F40002F502F24396E2EAEA8EF0FF0AAEF0FF00E
:101F5000ABEF0FF039803950D8B4B1EF0FF0B3EFD9
:101F60000FF0C6EF0FF03928D8A4B9EF0FF0BBEF90
:101F70000FF0C3EF0FF0000E2C6E000E2D6E000E52
:101F80002E6E000E2F6E2E8ECEEF0FF0000E2C6EEA
:101F9000000E2D6E000E2E6E000E2F6E3950D8B42E
:101FA000D4EF0FF0D6EF0FF0DEEF0FF03A50D8A4D9
:101FB000DCEF0FF0DEEF0FF0E8EF0FF0000E286E11
:101FC000000E296E000E2A6E000E2B6E80EF11F0AF
:101FD0002E502802F3CF3FF0F4CF40F03F50356E43
:101FE000366A376A386A40503B6E3C6A3D6A3E6AE0
:101FF0002D502902F3CF3FF0F4CF40F03F5035266B
:10200000000E36223722382240503B26000E3C225A
:102010003D223E222C502A02F3CF3FF0F4CF40F075
:102020003F503526000E36223722382240503B26BC
:10203000000E3C223D223E2237C038F036C037F039
:1020400035C036F0356A2C502902F3CF3FF0F4CF7B
:1020500040F03F50352640503622000E3722000E09
:1020600038222D502802F3CF3FF0F4CF40F03F50FC
:10207000352640503622000E3722000E382237C057
:1020800038F036C037F035C036F0356A2C502802AB
:10209000F3CF3FF0F4CF40F03F503526405036228A
:1020A000000E3722000E38222E502902F3CF3FF0C7
:1020B000F4CF40F03F503B2640503C22000E3D22E2
:1020C000000E3E222D502A02F3CF3FF0F4CF40F015
:1020D0003F503B2640503C22000E3D22000E3E2247
:1020E0002E502A02F3CF3FF0F4CF40F03F50306E35
:1020F0004050316E326A336A32C033F031C032F050
:1021000030C031F0306A30503B2631503C223250E2
:102110003D2233503E2235C030F036C031F037C05A
:1021200032F038C033F0190E9BEF10F0D8903332F4
:10213000323231323032E82E96EF10F030503B26FA
:1021400031503C2232503D2233503E2237C038F0CD
:1021500036C037F035C036F0356A39503AC030F005
:10216000316A3026000E3122820E30243F6EFF0E7F
:102170003120406ED1EF10F0D8903B363C363D36E2
:102180003E3638AEC6EF10F0C8EF10F0C9EF10F0D1
:102190003B80D89035363636373638363F06D8A0AD
:1021A00040063DAED6EF10F0D8EF10F0BCEF10F0C7
:1021B000000E396E38AEDFEF10F0E1EF10F005EFF2
:1021C00011F0FF0E3514306EFF0E3614316EFF0E17
:1021D0003714326E7F0E3814336E30503110321097
:1021E0003310D8B4F6EF10F0F8EF10F0FCEF10F069
:1021F000010E396E05EF11F03BA001EF11F003EF76
:1022000011F005EF11F0F8EF10F03950D8B40BEFE2
:1022100011F00DEF11F031EF11F0010E3B26000E21
:102220003C223D223E223EA018EF11F01AEF11F0A1
:1022300031EF11F03BC030F03CC031F03DC032F026
:102240003EC033F03334333232323132303230C088
:102250003BF031C03CF032C03DF033C03EF03F4A6D
:10226000402A40BE3CEF11F0405008E13F28D8A082
:102270003CEF11F03EEF11F048EF11F0000E3B6E15
:10228000000E3C6E800E3D6E7F0E3E6E76EF11F0BE
:1022900040BE55EF11F0405006E13F04D8B053EF77
:1022A00011F055EF11F061EF11F0000E3B6E000ED2
:1022B0003C6E000E3D6E000E3E6E000E346E76EFEC
:1022C00011F03FC03AF0FF0E3B16FF0E3C167F0E9A
:1022D0003D16000E3E163AA070EF11F072EF11F0AD
:1022E00073EF11F03D8ED8903A303E6E34503E126E
:1022F0003BC028F03CC029F03DC02AF03EC02BF086
:1023000012003AC153F03BC154F03CC155F03DC1FD
:1023100056F041C053F042C054F043C055F044C0A1
:1023200056F053C045F054C046F055C047F056C073
:1023300048F0180EA1EF11F0D890483247324632DB
:102340004532E82E9CEF11F045504D6E4E6A4EBE60
:10235000B3EF11F04E5009E1960E4D5CD8A0B3EFEB
:1023600011F0B5EF11F0BFEF11F041C041F042C0E4
:1023700042F043C043F044C044F057EF13F053C061
:1023800045F054C046F055C047F056C048F0200E06
:10239000CFEF11F0D8904832473246324532E82E1E
:1023A000CAEF11F04550461047104810D8B4DBEF83
:1023B00011F0DDEF11F0EFEF11F041C001F042C07C
:1023C00002F043C003F044C004F04BEC2DF001C018
:1023D00041F002C042F003C043F004C044F04EBEDE
:1023E000FDEF11F04E5007E17E0E4D5CD8B0FBEFD3
:1023F00011F0FDEF11F019EF12F053C028F054C0A6
:1024000029F055C02AF056C02BF0000E2C6E000E9D
:102410002D6E000E2E6E000E2F6E6CEC0FF028C08D
:1024200041F029C042F02AC043F02BC044F057EFDE
:1024300013F0000E056E000E066E000E076E4B0EBA
:10244000086E41C001F042C002F043C003F044C036
:1024500004F00CEC0DF001C04FF002C050F003C0CE
:1024600051F004C052F0000E056E000E066E000E14
:10247000076ECB0E086E4FC001F050C002F051C085
:1024800003F052C004F00CEC0DF001C049F002C0A2
:102490004AF003C04BF004C04CF049C011F04AC0F0
:1024A00012F04BC013F04CC014F041C015F042C004
:1024B00016F043C017F044C018F029EC2CF011C0FE
:1024C00057F012C058F013C059F014C05AF0000E63
:1024D000016E000E026E000E036E3F0E046E57C0BA
:1024E00005F058C006F059C007F05AC008F0DAEC01
:1024F00026F0D8B07EEF12F080EF12F0B6EF12F0B7
:1025000041C005F042C006F043C007F044C008F0E7
:1025100057C001F058C002F059C003F05AC004F08F
:102520000CEC0DF001C04FF002C050F003C051F0B0
:1025300004C052F04FC001F050C002F051C003F08F
:1025400052C004F0000E056E000E066E800E076E7F
:10255000BF0E086E0CEC0DF001C057F002C058F031
:1025600003C059F004C05AF01FEF13F0000E016EC3
:10257000000E026E000E036EBF0E046E57C005F013
:1025800058C006F059C007F05AC008F0DAEC26F03F
:10259000D8A0CDEF12F0CFEF12F005EF13F041C04D
:1025A00005F042C006F043C007F044C008F057C031
:1025B00001F058C002F059C003F05AC004F00CEC0E
:1025C0000DF001C04FF002C050F003C051F004C044
:1025D00052F04FC001F050C002F051C003F052C0A1
:1025E00004F0000E056E000E066E800E076E3F0EA4
:1025F000086E0CEC0DF001C057F002C058F003C09B
:1026000059F004C05AF01FEF13F057C001F058C042
:1026100002F059C003F05AC004F041C005F042C0B6
:1026200006F043C007F044C008F00CEC0DF001C008
:1026300057F002C058F003C059F004C05AF053C01C
:1026400045F054C046F055C047F056C048F0200E43
:102650002FEF13F0D8904832473246324532E82EF9
:102660002AEF13F04550461047104810D8B43BEFFE
:1026700013F03DEF13F04FEF13F057C001F058C0C7
:1026800002F059C003F05AC004F04BEC2DF001C029
:1026900057F002C058F003C059F004C05AF057C0B8
:1026A00041F058C042F059C043F05AC044F0120003
:1026B0002CC020F02DC021F02EC022F02FC023F01E
:1026C000010E246E82EC24F02CC020F02DC021F0ED
:1026D0002EC022F02FC023F0040E246E010E256EB2
:1026E000C3EC20F02CC020F02DC021F02EC022F031
:1026F0002FC023F0020E246E82EC24F00101450766
:102700002CC01AF02DC01BF02EC01CF02FC01DF0E5
:1027100067EC29F0000E336E000E326E9EEF13F060
:10272000090E316E1E0E306EE40EE82EFED7302EEE
:10273000FCD7312EFAD700D0324A332A0101455155
:10274000020D000EF324D96E010EF420DA6EDE5075
:10275000325CDE503358D8A0B0EF13F0B2EF13F074
:1027600090EF13F02CC01AF02DC01BF02EC01CF0FF
:102770002FC01DF02BEC2AF001014551D8A4C3EF66
:1027800013F0C5EF13F0C7EF13F00BEF15F045078B
:102790004551020D000EF324D96E010EF420DA6EBD
:1027A000DE04DE10D8A4D7EF13F0D9EF13F0F5EF65
:1027B00013F02CC020F02DC021F02EC022F02FC02D
:1027C00023F0020E246E010E256EC3EC20F02CC007
:1027D00020F02DC021F02EC022F02FC023F0020ED9
:1027E000246E82EC24F07EEF13F04551020D000EB2
:1027F000F324D96E010EF420DA6E020EDE18DE101C
:10280000D8A405EF14F007EF14F023EF14F02CC058
:1028100020F02DC021F02EC022F02FC023F0020E98
:10282000246E020E256EC3EC20F02CC020F02DC0CB
:1028300021F02EC022F02FC023F0020E246E82EC75
:1028400024F07EEF13F04551020D000EF324D96EF3
:10285000010EF420DA6E030EDE18DE10D8A433EF7A
:1028600014F035EF14F051EF14F02CC020F02DC00F
:1028700021F02EC022F02FC023F0040E246E020E91
:10288000256EC3EC20F02CC020F02DC021F02EC00E
:1028900022F02FC023F0020E246E82EC24F07EEF93
:1028A00013F04551020D000EF324D96E010EF420F1
:1028B000DA6E040EDE18DE10D8A461EF14F063EFB8
:1028C00014F07FEF14F02CC020F02DC021F02EC0AA
:1028D00022F02FC023F0020E246E010E256EC3ECF1
:1028E00020F02CC020F02DC021F02EC022F02FC0EF
:1028F00023F0030E246E82EC24F07EEF13F045519A
:10290000020D000EF324D96E010EF420DA6E050ECE
:10291000DE18DE10D8A48FEF14F091EF14F0ADEFB5
:1029200014F02CC020F02DC021F02EC022F02FC0BA
:1029300023F0020E246E020E256EC3EC20F02CC094
:1029400020F02DC021F02EC022F02FC023F0030E66
:10295000246E82EC24F07EEF13F04551020D000E40
:10296000F324D96E010EF420DA6E060EDE18DE10A6
:10297000D8A4BDEF14F0BFEF14F0DBEF14F02CC0BF
:1029800020F02DC021F02EC022F02FC023F0030E26
:10299000246E010E256EC3EC20F02CC020F02DC05B
:1029A00021F02EC022F02FC023F0020E246E82EC04
:1029B00024F07EEF13F04551020D000EF324D96E82
:1029C000010EF420DA6E070EDE18DE10D8A4EBEF4D
:1029D00014F0EDEF14F009EF15F02CC020F02DC02D
:1029E00021F02EC022F02FC023F0030E246E020E21
:1029F000256EC3EC20F02CC020F02DC021F02EC09D
:102A000022F02FC023F0020E246E82EC24F07EEF21
:102A100013F080EF13F07C8E22EF15F02CC01AF02B
:102A20002DC01BF02EC01CF02FC01DF02BEC2AF087
:102A30008EB41DEF15F01FEF15F022EF15F07C9E00
:102A400029EF15F08EB427EF15F029EF15F00EEFF2
:102A500015F012001250800B1F6E12501224266EB9
:102A600011AE35EF15F037EF15F038EF15F0268081
:102A70002650D8B43EEF15F040EF15F055EF15F0A5
:102A80002628D8A446EF15F048EF15F050EF15F0C2
:102A9000000E0F6E000E106E000E116E000E126E04
:102AA000118E000E126E5DEF15F0000E0F6E000E0F
:102AB000106E000E116E000E126E1650800B1F1A53
:102AC00016501624276E15AE68EF15F06AEF15F054
:102AD0006BEF15F027802750D8B471EF15F073EF26
:102AE00015F088EF15F02728D8A479EF15F07BEFC3
:102AF00015F083EF15F0000E136E000E146E000E2D
:102B0000156E000E166E158E000E166E90EF15F0F7
:102B1000000E136E000E146E000E156E000E166E73
:102B20001350141015101610D8A499EF15F09BEF40
:102B300015F0B3EF15F0000E0F6E000E106E000EC4
:102B4000116E000E126E800E11127F0E12121F50A7
:102B500012120FC00FF010C010F011C011F012C00F
:102B600012F0F6EF16F02650D8A4B9EF15F0BBEF2F
:102B700015F0C5EF15F0000E0F6E000E106E000E72
:102B8000116E000E126EF6EF16F0275026C017F0E9
:102B9000186A175E000E185A7F0E1724206E000E5A
:102BA0001820216E0FC01BF010C01CF011C01DF0CA
:102BB00012C01EF0000E0F6E000E106E000E116E91
:102BC000000E126E000E226E000E236E000E246E9A
:102BD000000E256E000E276E26EF16F02750D8B493
:102BE000F4EF15F0F6EF15F00DEF16F0D8901B3658
:102BF0001C361D361E36D8900F361036113612365A
:102C000025AE05EF16F007EF16F008EF16F00F806F
:102C1000D890223623362436253613501B5C1450A8
:102C20001C5815501D5816501E58D8A01AEF16F0F3
:102C30001CEF16F025EF16F0258C13501B5E145078
:102C40001C5A15501D5A16501E5A272A190E276451
:102C50002CEF16F02EEF16F0EEEF15F01B501C10B7
:102C60001D101E10D8B437EF16F039EF16F051EFE3
:102C700016F0228051EF16F0D8900F36103611362C
:102C8000123625AE46EF16F048EF16F049EF16F073
:102C90000F80D89022362336243625362006D8A039
:102CA000210611AE56EF16F058EF16F03CEF16F075
:102CB000000E276E25AE5FEF16F061EF16F085EF80
:102CC00016F0FF0E2214176EFF0E2314186EFF0E5F
:102CD0002414196E7F0E25141A6E1750181019102F
:102CE0001A10D8B476EF16F078EF16F07CEF16F0E5
:102CF000010E276E85EF16F00FA081EF16F083EF1F
:102D000016F085EF16F078EF16F02750D8B48BEF59
:102D100016F08DEF16F0B1EF16F0010E0F26000E33
:102D200010221122122212A098EF16F09AEF16F03C
:102D3000B1EF16F00FC017F010C018F011C019F065
:102D400012C01AF01A341A3219321832173217C058
:102D50000FF018C010F019C011F01AC012F0204A7C
:102D6000212A21BEBCEF16F0215008E12028D8A06E
:102D7000BCEF16F0BEEF16F0C9EF16F0000E216E94
:102D80002068000E0F6E000E106E000E116E000E09
:102D9000126E21BED6EF16F0215006E12004D8B005
:102DA000D4EF16F0D6EF16F0E4EF16F0000E216E19
:102DB000000E206E000E0F6E000E106E000E116ED3
:102DC000000E126E000E1F6E20C026F026A0EBEF44
:102DD00016F0EDEF16F0F0EF16F0118EF1EF16F0A1
:102DE000119ED8902630126EA7EF15F01200386EA3
:102DF0003850D8B4FEEF16F000EF17F06EEF18F071
:102E00003804D8A406EF17F008EF17F030EF17F0EA
:102E100034C020F035C021F036C022F037C023F096
:102E2000010E246E82EC24F034C020F035C021F075
:102E300036C022F037C023F0020E246E020E256E3B
:102E4000C3EC20F001014551020D000EF324D96EB0
:102E5000010EF420DA6E010EDE6E000EDD6E452BE3
:102E6000020E3818D8A437EF17F039EF17F061EFDA
:102E700017F034C020F035C021F036C022F037C042
:102E800023F0010E246E82EC24F034C020F035C013
:102E900021F036C022F037C023F0020E246E010E5E
:102EA000256EC3EC20F001014551020D000EF32404
:102EB000D96E010EF420DA6E020EDE6E000EDD6EAB
:102EC000452B030E3818D8A468EF17F06AEF17F0F7
:102ED00092EF17F034C020F035C021F036C022F058
:102EE00037C023F0010E246E82EC24F034C020F0B1
:102EF00035C021F036C022F037C023F0040E246E16
:102F0000010E256EC3EC20F001014551020D000EAB
:102F1000F324D96E010EF420DA6E030EDE6E000E7D
:102F2000DD6E452B040E3818D8A499EF17F09BEFEF
:102F300017F0C3EF17F034C020F035C021F036C0D1
:102F400022F037C023F0030E246E82EC24F034C04C
:102F500020F035C021F036C022F037C023F0020E39
:102F6000246E020E256EC3EC20F001014551020DC6
:102F7000000EF324D96E010EF420DA6E040EDE6E1C
:102F8000000EDD6E452B050E3818D8A4CAEF17F0D9
:102F9000CCEF17F0F4EF17F034C020F035C021F07B
:102FA00036C022F037C023F0030E246E82EC24F0EA
:102FB00034C020F035C021F036C022F037C023F0F5
:102FC000020E246E010E256EC3EC20F00101455166
:102FD000020D000EF324D96E010EF420DA6E050EF8
:102FE000DE6E000EDD6E452B060E3818D8A4FBEF02
:102FF00017F0FDEF17F025EF18F034C020F035C0C2
:1030000021F036C022F037C023F0010E246E82EC8E
:1030100024F034C020F035C021F036C022F037C093
:1030200023F0030E246E020E256EC3EC20F0010186
:103030004551020D000EF324D96E010EF420DA6E14
:10304000060EDE6E000EDD6E452B070E3818D8A476
:103050002CEF18F02EEF18F056EF18F034C020F0D7
:1030600035C021F036C022F037C023F0010E246EA7
:1030700082EC24F034C020F035C021F036C022F0BC
:1030800037C023F0030E246E010E256EC3EC20F032
:1030900001014551020D000EF324D96E010EF420FA
:1030A000DA6E070EDE6E000EDD6E452B080E381848
:1030B000D8A45DEF18F05FEF18F06EEF18F0010E76
:1030C000016E020EE1EC19F034C02CF035C02DF089
:1030D00036C02EF037C02FF058EC13F012001EC08F
:1030E00036F01FC037F020C038F021C039F022C0C0
:1030F0003AF023C03BF024C03CF025C03DF03DBE7B
:1031000084EF18F087EF18F0010E88EF18F0000E2A
:10311000346E356A34503510D8B491EF18F093EF0F
:1031200018F0A3EF18F03D1E3C1E3B1E3A1E391E40
:10313000381E371E366C000E3722382239223A22CA
:103140003B223C223D220001FBBFA9EF18F0ABEF70
:1031500018F0ACEF18F0FC93FBBFB9EF18F0FB517F
:1031600006E1FA05D8B0B7EF18F0B9EF18F0BFEFE5
:1031700018F0000E316E010E306EC3EF18F0FAC079
:1031800030F0FBC031F040C132F041C133F0345077
:103190003510D8A4CEEF18F0D0EF18F0D7EF18F014
:1031A000FCA5D5EF18F0D7EF18F0DAEF18F03206DB
:1031B000D8A03306000E3F6E1F0E3E6E000E0101BA
:1031C000656F5FEF19F03E06D8A03F06460E3E241D
:1031D000D96E010E3F20DA6E36C001F037C002F022
:1031E00038C003F039C004F03AC005F03BC006F027
:1031F0003CC007F03DC008F00A0E096E000E0A6ED2
:10320000000E0B6E000E0C6E000E0D6E000E0E6E9C
:10321000000E0F6E000E106E24EC23F001C026F09D
:1032200002C027F003C028F004C029F005C02AF02E
:1032300006C02BF007C02CF008C02DF026C013F0FC
:1032400028C014F0F1EC2CF01350300FDF6E300674
:10325000D8A031063206D8A0330636C001F037C0F8
:1032600002F038C003F039C004F03AC005F03BC0AA
:1032700006F03CC007F03DC008F00A0E096E000ED3
:103280000A6E000E0B6E000E0C6E000E0D6E000E20
:103290000E6E000E0F6E000E106E60EC22F001C07C
:1032A00036F002C037F003C038F004C039F005C072
:1032B0003AF006C03BF007C03CF008C03DF03FBE0E
:1032C0006AEF19F03F5008E13E04D8A06AEF19F008
:1032D0006CEF19F09DEF19F0365037103810391097
:1032E0003A103B103C103D10D8A479EF19F07BEF59
:1032F00019F0E3EF18F031BE88EF19F0315006E114
:103300003004D8B086EF19F088EF19F0E3EF18F029
:1033100033BE93EF19F0335008E13204D8A093EF95
:1033200019F095EF19F09DEF19F00001FCB39BEF38
:1033300019F09DEF19F0E3EF18F034503510D8A4D0
:10334000A4EF19F0A6EF19F0AEEF19F00001FCA5FB
:10335000ACEF19F0AEEF19F0CCEF19F03E06D8A0A3
:103360003F0634503510D8A4B8EF19F0BAEF19F071
:10337000C0EF19F0000E2F6E2B0E2E6EC4EF19F059
:10338000000E2F6E2D0E2E6E460E3E24D96E010EAF
:103390003F20DA6E2EC0DFFF1CC011F01DC012F0FE
:1033A000460E3E24136E010E3F20146E32C015F0FF
:1033B00033C016F004EC29F011C01CF012C01DF04F
:1033C0001200056E000E046E000E046E2DEF1BF051
:1033D0000504D8A4EEEF19F0F0EF19F028EF1AF079
:1033E00080A2F5EF19F0F9EF19F0026A022AFAEF5C
:1033F00019F0026A024680500218FD0B0218806E16
:10340000290E036E960E026E7F0EE82EFED7022E58
:10341000FCD7032EFAD700F080A211EF1AF015EFB7
:103420001AF0026A022A16EF1AF0026A0246805067
:103430000218FD0B0218806E290E036E960E026EA6
:103440007F0EE82EFED7022EFCD7032EFAD700F00F
:10345000020E0518D8A42FEF1AF031EF1AF069EF19
:103460001AF07CA836EF1AF03AEF1AF0026A022A34
:103470003BEF1AF0026A023A7C500218EF0B021876
:103480007C6E290E036E960E026E7F0EE82EFED71E
:10349000022EFCD7032EFAD700F07CA852EF1AF0C8
:1034A00056EF1AF0026A022A57EF1AF0026A023A3D
:1034B0007C500218EF0B02187C6E290E036E960EDC
:1034C000026E7F0EE82EFED7022EFCD7032EFAD70F
:1034D00000F0030E0518D8A470EF1AF072EF1AF07E
:1034E000AEEF1AF07CA677EF1AF07BEF1AF0026AC3
:1034F000022A7CEF1AF0026A0246024602467C501B
:103500000218F70B02187C6E290E036E960E026EDF
:103510007F0EE82EFED7022EFCD7032EFAD700F03E
:103520007CA695EF1AF099EF1AF0026A022A9AEF38
:103530001AF0026A0246024602467C500218F70B55
:1035400002187C6E290E036E960E026E7F0EE82E18
:10355000FED7022EFCD7032EFAD700F0040E051872
:10356000D8A4B5EF1AF0B7EF1AF0EDEF1AF07EA07D
:10357000BCEF1AF0C0EF1AF0026A022AC1EF1AF08B
:10358000026A7E500218FE0B02187E6E290E036E30
:10359000960E026E7F0EE82EFED7022EFCD7032E6B
:1035A000FAD700F07EA0D7EF1AF0DBEF1AF0026A2C
:1035B000022ADCEF1AF0026A7E500218FE0B021893
:1035C0007E6E290E036E960E026E7F0EE82EFED7DB
:1035D000022EFCD7032EFAD700F0030E0518D8A44C
:1035E000F4EF1AF0F6EF1AF02CEF1BF080A0FBEFCF
:1035F0001AF0FFEF1AF0026A022A00EF1BF0026ACB
:1036000080500218FE0B0218806E290E036E960E73
:10361000026E7F0EE82EFED7022EFCD7032EFAD7BD
:1036200000F080A016EF1BF01AEF1BF0026A022ACE
:103630001BEF1BF0026A80500218FE0B0218806E0E
:10364000290E036E960E026E7F0EE82EFED7022E16
:10365000FCD7032EFAD700F0042A0150045CD8A04E
:1036600034EF1BF036EF1BF0E8EF19F012009CEC82
:103670002DF082EC2DF0000E026EC70E016EB0EC44
:103680002CF09A0E016E010E026EA30E036E010E57
:10369000046ED3EC27F081EC2EF090EC2EF0B1EC20
:1036A0002EF0000E0101706F000E756F7E0E00018E
:1036B000786F010E796F660E7A6F010E7B6F9A0E2E
:1036C0007C6F010E7D6FA30E7E6F010E7F6FD6ECB7
:1036D00023F078C06EF179C06FF1D58E42C171F1DF
:1036E00043C172F18FEF1BF09A0E1A6E010E1B6E22
:1036F000A30E1C6E010E1D6E67EC29F09A0E0001E0
:103700006A6F010E6B6FA30E6C6F010E6D6F6EC151
:103710006EF06FC16FF0A1EC28F00101706F010134
:103720007051D8B496EF1BF098EF1BF074EF1BF0BC
:10373000D59E42C173F143C174F17151735D0001B3
:10374000F66F0101725174590001F76FF75109E1E9
:103750000B0EF65DD8A0AFEF1BF0B1EF1BF0D3EF6F
:103760001BF0FD0EF66FFF0EF76F01017151735DD7
:103770000001F86F0101725174590001F96FF6519F
:10378000F827F751F92301014551020D000EF324EA
:10379000D96E010EF420DA6EF8C0DEFFF9C0DDFF4D
:1037A000452BEEEF1BF00101752B7551CEEC2DF082
:1037B000040E01017565DFEF1BF0E1EF1BF0EEEF8A
:1037C0001BF09A0E2C6E010E2D6EA30E2E6E010EA6
:1037D0002F6E58EC13F0000E0101756F9A0E1A6EE1
:1037E000010E1B6EA30E1C6E010E1D6E2BEC2AF03B
:1037F000520E0001F76F2B0EF66F000EE82EFED76B
:10380000F62FFCD7F72FFAD700F09A0E206E010E94
:10381000216EA30E226E010E236E6EEC2CF0760E3E
:103820000001716F010E726F7E0E736F010E746F67
:103830000AEC07F00101446F760E0001926F010E51
:10384000936F7E0E946F010E956F010144518AECC7
:103850002AF00101446F4451D8B431EF1CF033EF2A
:103860001CF041EF1CF09A0E346E010E356EA30E63
:10387000366E010E376E4451F7EC16F0000E010162
:10388000446F000E706F6DEF1BF018EF00F031EC1D
:103890002EF0020E016E010EE1EC19F0290E0F6EF2
:1038A000960E0E6E7F0EE82EFED70E2EFCD70F2E34
:1038B000FAD700F021EC2EF0090E0F6E1E0E0E6EE0
:1038C000E40EE82EFED70E2EFCD70F2EFAD700D02E
:1038D00089EC2BF00CC0D9FF0DC0DAFF05C0DEFF6C
:1038E00006C0DDFFB1EC2BF020EE02F00C50D92623
:1038F0000D50DA2205C0DEFF06C0DDFFD9EC2BF04B
:1039000020EE04F00C50D9260D50DA2205C0DEFF5F
:1039100006C0DDFF41EC2EF0090E0F6E1E0E0E6E7E
:10392000E40EE82EFED70E2EFCD70F2EFAD700D0CD
:1039300089EC2BF020EE06F00C50D9260D50DA223F
:1039400005C0DEFF06C0DDFFB1EC2BF020EE08F075
:103950000C50D9260D50DA2205C0DEFF06C0DDFF6F
:10396000D9EC2BF020EE0AF00C50D9260D50DA22BB
:1039700005C0DEFF06C0DDFF51EC2EF0090E0F6E14
:103980001E0E0E6EE40EE82EFED70E2EFCD70F2E66
:10399000FAD700D089EC2BF020EE0CF00C50D92691
:1039A0000D50DA2205C0DEFF06C0DDFFB1EC2BF0C2
:1039B00020EE0EF00C50D9260D50DA2205C0DEFFA5
:1039C00006C0DDFFD9EC2BF020EE10F00C50D9260C
:1039D0000D50DA2205C0DEFF06C0DDFF01EC2CF041
:1039E00020EE1AF00C50D9260D50DA2205C0DEFF69
:1039F00006C0DDFF61EC2EF0090E0F6E1E0E0E6E7E
:103A0000E40EE82EFED70E2EFCD70F2EFAD700D0EC
:103A100089EC2BF020EE12F00C50D9260D50DA2252
:103A200005C0DEFF06C0DDFFB1EC2BF020EE14F088
:103A30000C50D9260D50DA2205C0DEFF06C0DDFF8E
:103A4000D9EC2BF020EE16F00C50D9260D50DA22CE
:103A500005C0DEFF06C0DDFF01EC2CF020EE18F003
:103A60000C50D9260D50DA2205C0DEFF06C0DDFF5E
:103A700031EC2EF0290E0F6E960E0E6E7F0EE82E94
:103A8000FED70E2EFCD70F2EFAD700F0020E016ED5
:103A9000010EE1EC19F0120020EE01F00F50D926D2
:103AA0001050DA22DF50D8B458EF1DF05AEF1DF055
:103AB0008BEF1DF00FC0D9FF10C0DAFFDF50116E81
:103AC0001150016E026A20EE07F00F50D9261050F7
:103AD000DA22DECF03F0DDCF04F00EEC2EF001C0D1
:103AE00007F002C008F0000E0A6E640E096EC9EC01
:103AF00029F020EE07F00F50D9261050DA22DECF41
:103B000012F0DDCF13F00750125C186E08501358F6
:103B1000196EAEEF1DF00FC0D9FF10C0DAFFDF50F5
:103B2000116E1150016E026A20EE07F00F50D92677
:103B30001050DA22DECF03F0DDCF04F00EEC2EF0D1
:103B400001C007F002C008F0000E0A6E640E096E94
:103B5000C9EC29F007C018F008C019F020EE02F0F7
:103B60000F50D9261050DA22DECF11F0DDCF12F03F
:103B700011C0D9FF12C0DAFF18C0DFFF20EE01F03C
:103B80000F50D9261050DA22DF50D8B4CAEF1DF0FA
:103B9000CCEF1DF001EF1EF020EE04F00F50D926FF
:103BA0001050DA22DECF11F0DDCF12F011C0D9FFB4
:103BB00012C0DAFF10EE04F00F50E1261050E2229E
:103BC000E6CF13F0E5CF14F013C0E1FF14C0E2FF1D
:103BD000E750156E10EE06F00F50E1261050E2226D
:103BE000E750166E010E176E162AF9EF1DF0D890E9
:103BF0001736162EF7EF1DF017501510DF6E35EF44
:103C00001EF020EE04F00F50D9261050DA22DECF3D
:103C100011F0DDCF12F011C0D9FF12C0DAFF10EEA3
:103C200004F00F50E1261050E222E6CF13F0E5CF6A
:103C300014F013C0E1FF14C0E2FFE750156E10EE60
:103C400006F00F50E1261050E222E750166E010EEA
:103C5000176E162A2EEF1EF0D8901736162E2CEF60
:103C60001EF01750FF0A1514DF6E120042C0D9FF74
:103C700043C0DAFFDECFF6FFDDCFF7FF0800F550D7
:103C8000250AD8A446EF1EF048EF1EF0F5EF1EF00F
:103C900042C0D9FF43C0DAFFDE2A000EDD22000E4B
:103CA0000101416F000E406F40C1FCF041C1FDF0C9
:103CB0000001FA69FB6942C0D9FF43C0DAFFDECFD9
:103CC000F6FFDDCFF7FF0800F550640AD8B46BEFBC
:103CD0001EF06DEF1EF07FEF1EF042C0D9FF43C013
:103CE000DAFFDECFF6FFDDCFF7FF0800F550690AF7
:103CF000D8A47DEF1EF07FEF1EF0BFEF1EF042C094
:103D0000D9FF43C0DAFFDE2A000EDD2244C0D9FF0E
:103D100045C0DAFFDFCF46F0020EDE26DFCF47F0E8
:103D2000000EDD2246C0D9FF47C0DAFFDECF48F0E3
:103D3000DDCF49F0000E49BEFF0E4A6E4B6E4C6E51
:103D40004D6E4E6E4F6E40C01CF041C01DF048C01D
:103D50001EF049C01FF04AC020F04BC021F04CC0FB
:103D600022F04DC023F04EC024F04FC025F06FEC80
:103D700018F01CC040F01DC041F010EF1FF042C011
:103D8000D9FF43C0DAFFDECFF6FFDDCFF7FF080033
:103D9000F550250AD8A4CFEF1EF0D1EF1EF0E8EFC2
:103DA0001EF042C0D9FF43C0DAFFDE2A000EDD223A
:103DB000000E026E250E016E40C003F041C004F0FB
:103DC0003CEC28F0000E416E010E406E10EF1FF02B
:103DD00042C0D9FF43C0DAFFDE2A000EDD22000E0A
:103DE000416E000E406E10EF1FF042C0D9FF43C07D
:103DF000DAFFDECFF6FFDDCFF7FF0800F550016EEA
:103E0000026A40C003F041C004F03CEC28F042C01C
:103E1000D9FF43C0DAFFDE2A000EDD22E2EF1EF0FA
:103E20001200096E0950D8B418EF1FF01AEF1FF0F6
:103E30003CEF1FF004BE21EF1FF01FEF1FF03CEF1F
:103E40001FF001C005F002C006F003C007F004C077
:103E500008F0051E061E071E081E052A000E062273
:103E60000722082205C00BF006C00CF007C00DF0B9
:103E700008C00EF044EF1FF001C00BF002C00CF0C0
:103E800003C00DF004C00EF0015002100310041026
:103E9000D8A44DEF1FF04FEF1FF059EF1FF0000EA9
:103EA000016E000E026E000E036E000E046EEAEF4D
:103EB0001FF0960E0A6E63EF1FF00A2AD8900E329A
:103EC0000D320C320B32000E0B14056E000E0C146A
:103ED000066E000E0D14076EFE0E0E14086E0550D1
:103EE000061007100810D8A478EF1FF07AEF1FF023
:103EF0005DEF1FF088EF1FF00A2A010E0B26000E5F
:103F00000C220D220E22D8900E320D320C320B32C2
:103F1000000E0B14056E000E0C14066E000E0D1430
:103F2000076EFF0E0E14086E0550061007100810DD
:103F3000D8A49DEF1FF09FEF1FF07CEF1FF0A7EFBD
:103F40001FF00A06D8900B360C360D360E360DBE15
:103F5000ACEF1FF0AEEF1FF0B6EF1FF0020E0A60DD
:103F6000B4EF1FF0B6EF1FF0A1EF1FF00AB0BBEFE8
:103F70001FF0BDEF1FF0BEEF1FF00D9ED8900A326C
:103F80000AC005F0066A076A086A05C008F0076AF1
:103F9000066A056A05500B1206500C1207500D12E6
:103FA00008500E120950D8B4D8EF1FF0DAEF1FF006
:103FB000E2EF1FF004BEE1EF1FF0DFEF1FF0E2EFD2
:103FC0001FF00E8E0BC001F00CC002F00DC003F00C
:103FD0000EC004F012000001F56F000E0001F26F38
:103FE000000EF46F000EF16F000EF06F020EF51967
:103FF000D8A4FDEF1FF0FFEF1FF005EF20F0E8C0A1
:104000000CF0E9C00DF047EC1CF0040E0001F519AE
:10401000D8A40DEF20F00FEF20F019EF20F0E6C04C
:104020006AF0E7C06BF0C2EC25F06AC0F0F06BC03C
:10403000F1F00001F505D8A420EF20F022EF20F0E8
:1040400030EF20F061EC2EF0E6C00CF0E7C00DF090
:1040500031EC2BF0E6C058F0E7C059F0C8EC2AF07C
:10406000020E0001F519D8A438EF20F03AEF20F045
:1040700049EF20F0E6C071F0E7C072F0E8C073F0DD
:10408000E9C074F00AEC07F00001F36FF351CEECD5
:104090002DF0030E0001F519D8A451EF20F053EFD5
:1040A00020F066EF20F05EEF20F0E6C05AF0E7C0A7
:1040B0005BF095EC21F0010E0001F26FF251D8B4E3
:1040C00064EF20F066EF20F055EF20F0040EF519B4
:1040D000D8A46DEF20F06FEF20F0ADEF20F08BEF64
:1040E00020F0EAC01AF0EBC01BF0ECC01CF0EDC0F1
:1040F0001DF067EC29F0EAC06AF0EBC06BF0ECC091
:104100006CF0EDC06DF0F0C06EF0F1C06FF0A1EC9E
:1041100028F00001F46FF451D8B491EF20F093EF40
:1041200020F071EF20F0EAC01AF0EBC01BF0ECC0F9
:104130001CF0EDC01DF02BEC2AF0520E0001EF6FC9
:104140002B0EEE6F000EE82EFED7EE2FFCD7EF2FD2
:10415000FAD700F0000E0001F46F050EF519D8A48F
:10416000B4EF20F0B6EF20F019EF20F0EAC02CF009
:10417000EBC02DF0ECC02EF0EDC02FF02BEC25F0B5
:1041800019EF20F01200000E2B6E000E2B6E8BEF3D
:1041900021F020EE01F02050D9262150DA22010E24
:1041A000DF6E20EE01F02250D9262350DA22010ED4
:1041B000DF6E2504D8A4DFEF20F0E1EF20F036EF2A
:1041C00021F002EF21F022C0D9FF23C0DAFF050E53
:1041D000DF2620C0D9FF21C0DAFF000EDF6E20C02D
:1041E0000FF021C010F04CEC1DF022C00FF023C0E6
:1041F00010F04CEC1DF0D00E266ECA0EE82EFED745
:10420000262EFCD722C0D9FF23C0DAFF1D0EDF64A3
:104210000CEF21F00EEF21F0E3EF20F0000E286EFE
:10422000000E276E1EEF21F0150E266EC60EE82E2C
:10423000FED7262EFCD700D0274A282A0001FE519F
:10424000275CFF512858D8A028EF21F02AEF21F051
:1042500014EF21F020C01AF021C01BF022C01CF086
:1042600023C01DF02BEC2AF08AEF21F0020E251856
:10427000D8A43DEF21F03FEF21F08AEF21F060EF6D
:1042800021F020C0D9FF21C0DAFF050EDF2622C0B1
:10429000D9FF23C0DAFF000EDF6E20C00FF021C06F
:1042A00010F04CEC1DF022C00FF023C010F04CECCD
:1042B0001DF0D00E266ECA0EE82EFED7262EFCD795
:1042C00020C0D9FF21C0DAFF1D0EDF646AEF21F0A4
:1042D0006CEF21F041EF21F0000E2A6E000E296EE6
:1042E0007CEF21F0150E266EC60EE82EFED7262E88
:1042F000FCD700D0294A2A2A0001FE51295CFF512F
:104300002A58D8A086EF21F088EF21F072EF21F033
:104310002AEF21F02B2A24502B5CD8A092EF21F019
:1043200094EF21F0C9EF20F01200000E0001DF6FC2
:10433000000EDE6F000EE36F000EE26F000EE56F01
:10434000000EE46F000EDF6F000EDE6F61EC2EF0EA
:10435000090E5D6E1E0E5C6EE40EE82EFED75C2E1E
:10436000FCD75D2EFAD700D05AC00CF05BC00DF020
:1043700031EC2BF05AC058F05BC059F0C8EC2AF071
:104380000001DE4BDF2BDFBFCEEF21F0DF5108E174
:10439000DE05D8A0CEEF21F0D0EF21F0A6EF21F07E
:1043A000000EE16F000EE06F21EC2EF0090E5D6E45
:1043B0001E0E5C6EE40EE82EFED75C2EFCD75D2E42
:1043C000FAD700D05AC00CF05BC00DF031EC2BF0E6
:1043D0005AC058F05BC059F0C8EC2AF00001E04B1D
:1043E000E12BE1BFFCEF21F0E15108E1E005D8A0AD
:1043F000FCEF21F0FEEF21F0D4EF21F0000EE36F8F
:10440000000EE26F41EC2EF0090E5D6E1E0E5C6E2A
:10441000E40EE82EFED75C2EFCD75D2EFAD700D036
:104420005AC00CF05BC00DF031EC2BF05AC058F0C4
:104430005BC059F0C8EC2AF00001E24BE32BE3BF6C
:104440002AEF22F0E35108E1E205D8A02AEF22F09A
:104450002CEF22F002EF22F0000EE56F000EE46F69
:1044600051EC2EF0090E5D6E1E0E5C6EE40EE82E11
:10447000FED75C2EFCD75D2EFAD700D05AC00CF0C8
:104480005BC00DF031EC2BF05AC058F05BC059F016
:10449000C8EC2AF00001E44BE52BE5BF58EF22F011
:1044A000E55108E1E405D8A058EF22F05AEF22F0D8
:1044B00030EF22F0010ECEEC2DF061EC2EF0120068
:1044C000000E126E10BE69EF22F067EF22F07BEF54
:1044D00022F0101E0F1E0E1E0D1E0C1E0B1E0A1E9D
:1044E000096C000E0A220B220C220D220E220F2232
:1044F0001022010E126E08BE82EF22F080EF22F031
:1045000094EF22F0081E071E061E051E041E031E41
:10451000021E016C000E0222032204220522062242
:1045200007220822010E121A20EE13F0070EDE6A8F
:10453000E806FDE209500A100B100C100D100E10C9
:104540000F101010D8B4A7EF22F0A9EF22F0FBEF64
:1045500022F0010E116EB7EF22F0D89009360A361C
:104560000B360C360D360E360F361036112A10AEBD
:10457000BCEF22F0BEEF22F0ADEF22F0D890133660
:104580001436153616361736183619361A360950B7
:10459000015C0A5002580B5003580C5004580D503F
:1045A00005580E5006580F50075810500858D8A0FC
:1045B000DCEF22F0DEEF22F0EFEF22F00950015E97
:1045C0000A50025A0B50035A0C50045A0D50055A07
:1045D0000E50065A0F50075A1050085A1380D890A0
:1045E00010320F320E320D320C320B320A320932D7
:1045F000112EBEEF22F01250D8B401EF23F003EFDA
:1046000023F013EF23F01A1E191E181E171E161E74
:10461000151E141E136C000E1422152216221722CA
:10462000182219221A2213C001F014C002F015C07A
:1046300003F016C004F017C005F018C006F019C04A
:1046400007F01AC008F01200000E126E08BE2DEF1F
:1046500023F02BEF23F03FEF23F0081E071E061E6A
:10466000051E041E031E021E016C000E0222032200
:1046700004220522062207220822010E126E10BE15
:1046800046EF23F044EF23F056EF23F0101E0F1EE9
:104690000E1E0D1E0C1E0B1E0A1E096C000E0A2299
:1046A0000B220C220D220E220F22102209500A107A
:1046B0000B100C100D100E100F101010D8B463EF6B
:1046C00023F065EF23F0ADEF23F0010E116E73EFD1
:1046D00023F0D89009360A360B360C360D360E36D6
:1046E0000F361036112A10AE78EF23F07AEF23F050
:1046F00069EF23F00950015C0A5002580B5003582F
:104700000C5004580D5005580E5006580F500758BD
:1047100010500858D8A08FEF23F091EF23F0A1EFAD
:1047200023F00950015E0A50025A0B50035A0C50F4
:10473000045A0D50055A0E50065A0F50075A105081
:10474000085AD89010320F320E320D320C320B3222
:104750000A320932112E7AEF23F01250D8B4B3EF97
:1047600023F0B5EF23F0C5EF23F0081E071E061E49
:10477000051E041E031E021E016C000E02220322EF
:104780000422052206220722082201C001F002C0ED
:1047900002F003C003F004C004F005C005F006C039
:1047A00006F007C007F008C008F01200000E000174
:1047B000836F000E826F31EC2EF07C8E80868EB47B
:1047C000E4EF23F0E6EF23F0DFEF23F08EB4EBEF1E
:1047D00023F0EDEF23F000EF24F078C00CF079C067
:1047E0000DF047EC1CF07C9E290E0001816F960EA7
:1047F000806F7F0EE82EFED7802FFCD7812FFAD74F
:104800008EB605EF24F007EF24F000EF24F08EB60B
:104810000CEF24F00EEF24F048EF24F07AC06AF099
:104820007BC06BF0C2EC25F06AC082F06BC083F0F5
:104830008096290E0001816F960E806F7F0EE82E04
:10484000FED7802FFCD7812FFAD748EF24F07C8E3B
:1048500080A62DEF24F032EF24F00001806B802B36
:1048600034EF24F00001806B804780478047805000
:104870008019F70B8019806E110E0001816F3C0EBC
:10488000806FCB0EE82EFED7802FFCD7812FFAD772
:104890008EA64DEF24F04FEF24F056EF24F08EB4A7
:1048A00054EF24F056EF24F027EF24F08EB65BEFA0
:1048B00024F05DEF24F068EF24F07CC032F07DC07E
:1048C00033F07EC034F07FC035F05CEC27F07C9E86
:1048D0008EB46DEF24F06FEF24F048EF24F07C9E4F
:1048E0008096290E0001816F960E806F7F0EE82E54
:1048F000FED7802FFCD7812FFAD782C078F083C0F3
:1049000079F0120020EE01F02050D9262150DA2251
:10491000000EDF6E20EE01F02250D9262350DA225D
:10492000000EDF6ECCEF24F020C0D9FF21C0DAFFEB
:104930002C0EDF609EEF24F0A0EF24F0A6EF24F011
:1049400020C0D9FF21C0DAFF020EDF2622C0D9FF26
:1049500023C0DAFF2C0EDF60B0EF24F0B2EF24F0BA
:10496000B8EF24F022C0D9FF23C0DAFF020EDF2601
:1049700020C00FF021C010F04CEC1DF022C00FF051
:1049800023C010F04CEC1DF0680E256EE40EE82EEE
:10499000FED7252EFCD700D020C0D9FF21C0DAFFDA
:1049A0002B0EDF64D6EF24F0D8EF24F094EF24F040
:1049B00022C0D9FF23C0DAFF2B0EDF64E2EF24F020
:1049C000E4EF24F094EF24F02404D8A4EAEF24F0D8
:1049D000ECEF24F0F7EF24F0310E266EB40E256EC6
:1049E000660EE82EFED7252EFCD7262EFAD7020E0D
:1049F0002418D8A4FEEF24F000EF25F00CEF25F0EA
:104A0000520E266E2B0E256E000EE82EFED7252E9A
:104A1000FCD7262EFAD700D0030E2418D8A413EF03
:104A200025F015EF25F020EF25F09B0E266E390EB0
:104A3000256E1C0EE82EFED7252EFCD7262EFAD783
:104A400020C01AF021C01BF022C01CF023C01DF0B2
:104A50002BEC2AF012002CC01AF02DC01BF02EC037
:104A60001CF02FC01DF02BEC2AF0A30E316E570E58
:104A7000306E020EE82EFED7302EFCD7312EFAD73C
:104A800000D02CC020F02DC021F02EC022F02FC06D
:104A900023F0080E246E010E256EC3EC20F02CC00E
:104AA0001AF02DC01BF02EC01CF02FC01DF02BECF7
:104AB0002AF0A30E316E570E306E020EE82EFED78E
:104AC000302EFCD7312EFAD700D02CC020F02DC0CC
:104AD00021F02EC022F02FC023F0080E246E020E0B
:104AE000256EC3EC20F02CC01AF02DC01BF02EC098
:104AF0001CF02FC01DF067EC29F0F40E316E820E11
:104B0000306E050EE82EFED7302EFCD7312EFAD7A8
:104B100000F02CC01AF02DC01BF02EC01CF02FC0CE
:104B20001DF02BEC2AF02CC020F02DC021F02EC05F
:104B300022F02FC023F0040E246E010E256EC3EC6C
:104B400020F02CC01AF02DC01BF02EC01CF02FC07E
:104B50001DF067EC29F0F40E316E820E306E050EFA
:104B6000E82EFED7302EFCD7312EFAD700F02CC01D
:104B70001AF02DC01BF02EC01CF02FC01DF02BEC26
:104B80002AF01200000E0001756F000E746F000E07
:104B9000776F000E766F000E6F6F000E6E6F020E55
:104BA000016E020EE1EC19F061EC2EF0290E00010D
:104BB0006D6F960E6C6F7F0EE82EFED76C2FFCD7B4
:104BC0006D2FFAD701EC2CF005C072F006C073F01F
:104BD000110E00016D6F3C0E6C6FCB0EE82EFED7F0
:104BE0006C2FFCD76D2FFAD701EC2CF005C074F0B8
:104BF00006C075F0110E00016D6F3C0E6C6FCB0E90
:104C0000E82EFED76C2FFCD76D2FFAD701EC2CF0D5
:104C100005C076F006C077F0110E00016D6F3C0EF6
:104C20006C6FCB0EE82EFED76C2FFCD76D2FFAD70A
:104C30000001745172256C6F755173216D6F76513F
:104C40006C2777516D236CC001F06DC002F0036AD0
:104C5000046A000E11EC1FF001C00FF002C010F04A
:104C600003C011F004C012F0000E136E000E146E9B
:104C7000400E156E400E166E2AEC15F00FC066F051
:104C800010C067F011C068F012C069F02EEC2DF072
:104C900066C070F067C071F0020E016E020EE1ECAA
:104CA00019F070C06AF071C06BF012005D345E34B0
:104CB0000001656F6551D8A460EF26F062EF26F021
:104CC0006CEF26F0000E5B6E000E5C6E000E5D6EEB
:104CD000000E5E6ED9EF26F05BC060F05CC061F044
:104CE0005DC062F05EC063F0200E7CEF26F0D890CD
:104CF0006333623361336033E82E77EF26F060511F
:104D0000646F5D8EFF0E5B16FF0E5C16FF0E5D1668
:104D1000000E5E16960E655F65BF93EF26F091EF6D
:104D200026F0A9EF26F06551800A970FD8B09BEFC7
:104D300026F09DEF26F09FEF26F062EF26F0D89048
:104D40005E325D325C325B32653F9FEF26F0C1EF31
:104D500026F01F0E6565AFEF26F0B1EF26F0B9EF34
:104D600026F062EF26F0D8905B365C365D365E3614
:104D700065076551D8A4BFEF26F0C1EF26F0B3EF69
:104D800026F06451D8B4C7EF26F0C9EF26F0D1EF72
:104D900026F05E1E5D1E5C1E5B6C000E5C225D22BA
:104DA0005E225BC05BF05CC05CF05DC05DF05EC02D
:104DB0005EF01200000E0114096E000E02140A6E5D
:104DC000800E03140B6E7F0E04140C6E09500A1033
:104DD0000B100C10D8A4EFEF26F0F1EF26F0F9EF4E
:104DE00026F0000E016E000E026E000E036E000E25
:104DF000046E000E0514096E000E06140A6E800E75
:104E000007140B6E7F0E08140C6E09500A100B105D
:104E10000C10D8A40EEF27F010EF27F018EF27F0B2
:104E2000000E056E000E066E000E076E000E086E78
:104E300004AE1DEF27F01FEF27F028EF27F0016CDD
:104E4000021ED8B0022A031ED8B0032A800E0456D0
:104E500008AE2DEF27F02FEF27F038EF27F0056C85
:104E6000061ED8B0062A071ED8B0072A800E08569C
:104E7000000E011A000E021A000E031A800E041A08
:104E8000000E051A000E061A000E071A800E081AE8
:104E90000550015C0650025807500358085004584A
:104EA000D8B055EF27F057EF27F05AEF27F0D890FA
:104EB0005BEF27F0D88012007C8E80868EB463EF83
:104EC00027F065EF27F091EF27F0190E376E5A0E95
:104ED000366EB20EE82EFED7362EFCD7372EFAD716
:104EE0008EB475EF27F077EF27F088EF27F07C9EE0
:104EF000190E376E5A0E366EB20EE82EFED7362ECB
:104F0000FCD7372EFAD7050E0001FE27000EFF232F
:104F10008EB68DEF27F08FEF27F091EF27F0C6EFD9
:104F200027F08EB696EF27F098EF27F05CEF27F08A
:104F3000190E376E5A0E366EB20EE82EFED7362E8A
:104F4000FCD7372EFAD78EB4A8EF27F0AAEF27F0B8
:104F5000ACEF27F0C6EF27F08EB6B1EF27F0B3EF36
:104F600027F05CEF27F08096190E376E5A0E366EDA
:104F7000B20EE82EFED7362EFCD7372EFAD7050E06
:104F80000001FE5F000EFF5B5CEF27F07C9E8096C9
:104F900032C02CF033C02DF034C02EF035C02FF0CD
:104FA0002BEC25F0120001C0D9FF02C0DAFF000E81
:104FB000DF6E20EE01F00150D9260250DA22010EF8
:104FC000DF6E20EE02F00150D9260250DA22A30E45
:104FD000DE6E0F0EDD6E20EE04F00150D926025079
:104FE000DA227D0EDE6E0F0EDD6E20EE06F0015031
:104FF000D9260250DA22040EDF6E20EE07F00150AF
:10500000D9260250DA22C70EDE6E000EDD6E03C016
:10501000D9FF04C0DAFF000EDF6E20EE01F003506E
:10502000D9260450DA22010EDF6E20EE02F0035082
:10503000D9260450DA22A00EDE6E0F0EDD6E20EEB1
:1050400004F00350D9260450DA227F0EDE6E0F0ED4
:10505000DD6E20EE06F00350D9260450DA22060E4B
:10506000DF6E20EE07F00350D9260450DA22C70E77
:10507000DE6E000EDD6E120003500410D8B443EF54
:1050800028F045EF28F04EEF28F003500410D8A484
:105090004CEF28F04EEF28F053EF28F00150C7EC0A
:1050A0002EF0A0EF28F020EE09F00350D92604508E
:1050B000DA22DE50DE10D8B460EF28F062EF28F07C
:1050C0007DEF28F020EE09F00350D9260450DA22B3
:1050D00010EE03F00350E1260450E222DE50E65CBD
:1050E000E650800A096EDE50800A0958D8B07BEF7E
:1050F00028F07DEF28F0A0EF28F020EE03F0035019
:10510000D9260450DA22DECF05F0DDCF06F003C049
:10511000D9FF04C0DAFFDECF07F0DDCF08F005507D
:105120000724D96E06500820DA6E01C0DFFF20EE9A
:1051300003F00350D9260450DA22DE2A000EDD22C5
:105140001200000E0001736F000E726F000E7C6F74
:10515000000E7B6F000E7A6F61EC2EF0090E0001DD
:10516000716F1E0E706FE40EE82EFED7702FFCD705
:10517000712FFAD700F001EC2CF005C078F006C0D2
:1051800079F0B1EC2BF06EC001F06FC002F0036A51
:10519000046A000E11EC1FF001C028F002C029F0D3
:1051A00003C02AF004C02BF0CD0E2C6ECC0E2D6E59
:1051B0008C0E2E6E3F0E2F6E6CEC0FF028C074F02C
:1051C00029C075F02AC076F02BC077F074C066F065
:1051D00075C067F076C068F077C069F02EEC2DF0EE
:1051E00066C07AF067C07BF000017A51785D7B5130
:1051F0007959D8A0FEEF28F000EF29F002EF29F04E
:10520000010E7C6F7C5112000001FCA10AEF29F015
:105210000CEF29F016EF29F013C00AF014C00BF0C0
:1052200011C00CF012C00DF04CEC2CF016BE1BEFB0
:1052300029F01DEF29F023EF29F015C01AF016C050
:105240001BF027EF29F0000E1B6E000E1A6E000EE9
:10525000196E000E186E39EF29F0000E026E200E46
:10526000016E11C003F012C004F03CEC28F0184AA3
:10527000192A1A50185C1950800A176E1B50800AA0
:105280001758D8A046EF29F048EF29F02DEF29F064
:105290000001FCB14EEF29F050EF29F05AEF29F050
:1052A00013C00AF014C00BF011C00CF012C00DF0C6
:1052B0004CEC2CF013C001F014C002F067EC2DF0A0
:1052C0001A500124116E1B500220126E120020EEA3
:1052D00001F01A50D9261B50DA22010EDF6E20EEA3
:1052E00001F01C50D9261D50DA22010EDF6EB0EFFE
:1052F00029F01AC0D9FF1BC0DAFF1E0EDF6083EF52
:1053000029F085EF29F08BEF29F01AC0D9FF1BC0D7
:10531000DAFF020EDF261CC0D9FF1DC0DAFF1E0E09
:10532000DF6095EF29F097EF29F09DEF29F01CC081
:10533000D9FF1DC0DAFF020EDF261AC00FF01BC016
:1053400010F04CEC1DF01CC00FF01DC010F04CEC28
:105350001DF0D00E1E6ECA0EE82EFED71E2EFCD7F4
:105360001AC0D9FF1BC0DAFF1D0EDF64BAEF29F0A7
:10537000BCEF29F079EF29F01CC0D9FF1DC0DAFF7E
:105380001D0EDF64C6EF29F0C8EF29F079EF29F090
:105390001200000E0C6E0ABED2EF29F0D0EF29F0F9
:1053A000D8EF29F0096C0A1ED8B00A2A010E0C6E3B
:1053B00008BEDFEF29F0DDEF29F0E5EF29F0076CFB
:1053C000081ED8B0082A010E0C1A000E0E6E000E30
:1053D0000D6E09500A10D8B4F0EF29F0F2EF29F061
:1053E0001AEF2AF0010E0B6EFAEF29F0D890093669
:1053F0000A360B2A0AAEFFEF29F001EF2AF0F6EF8A
:1054000029F0D8900D360E360950075C0A5008581E
:10541000D8A00DEF2AF00FEF2AF014EF2AF0095070
:10542000075E0A50085A0D80D8900A3209320B2EB6
:1054300001EF2AF00C50D8B420EF2AF022EF2AF026
:1054400026EF2AF00D6C0E1ED8B00E2A0DC007F004
:105450000EC008F0120065EF2AF01AC0D9FF1BC079
:10546000DAFFDF50D8B437EF2AF039EF2AF03FEFF8
:105470002AF01AC0D9FF1BC0DAFF020EDF5E1CC083
:10548000D9FF1DC0DAFFDF50D8B449EF2AF04BEF47
:105490002AF051EF2AF01CC0D9FF1DC0DAFF020E1E
:1054A000DF5E1AC00FF01BC010F04CEC1DF01CC0EA
:1054B0000FF01DC010F04CEC1DF0680E1E6EE40ED7
:1054C000E82EFED71E2EFCD700D01AC0D9FF1BC075
:1054D000DAFFDF50D8A46FEF2AF071EF2AF02DEF3A
:1054E0002AF01CC0D9FF1DC0DAFFDF50D8A47BEF23
:1054F0002AF07DEF2AF02DEF2AF0290E1F6E960E6E
:105500001E6E7F0EE82EFED71E2EFCD71F2EFAD75A
:1055100000F0120000019A6F050E0001976F0F0E48
:10552000966FF10EE82EFED7962FFCD7972FFAD75D
:1055300092C071F093C072F094C073F095C074F093
:105540000AEC07F00001966F9651986F996B050E63
:105550000001976F0F0E966FF10EE82EFED7962F73
:10556000FCD7972FFAD700019A51966F976B9851F5
:10557000961907E199519719D8A4C1EF2AF0C3EF02
:105580002AF0C6EF2AF09A51C7EF2AF0000E120057
:10559000790E0001606F000E616F050E626F0E0ED6
:1055A000636F58C0D9FF59C0DAFFDECF64F0DDCF9A
:1055B00065F020EE02F05850D9265950DA22DECF9D
:1055C00066F0DDCF67F020EE04F05850D926595030
:1055D000DA22DECF68F0DDCF69F020EE06F0585019
:1055E000D9265950DA22DECF6AF0DDCF6BF060ECBD
:1055F0002BF0790E026E000E036EB6EC2DF0120049
:1056000052C056F053C057F0000E01013F6F000E1C
:105610003E6F1EEF2BF050C040F051C041F0560ECF
:10562000426E000E436E54C044F055C045F036EC57
:105630001EF0405001013E2741503F2356C0F6FF67
:1056400057C0F7FF0800F5500009D8A42AEF2BF047
:105650002CEF2BF00BEF2BF03EC150F03FC151F07F
:10566000120089EC2BF00CC0D9FF0DC0DAFF05C089
:10567000DEFF06C0DDFFD9EC2BF020EE04F00C506D
:10568000D9260D50DA2205C0DEFF06C0DDFFB1ECE1
:105690002BF020EE02F00C50D9260D50DA2205C076
:1056A000DEFF06C0DDFF01EC2CF020EE06F00C5012
:1056B000D9260D50DA2205C0DEFF06C0DDFF12003C
:1056C000640E00016C6F000E6D6F60C06EF061C003
:1056D0006FF0000E726F000E716F000E786F000E8B
:1056E000776F6E0E506E000E516E62C052F063C046
:1056F00053F06C0E546E000E556E00EC2BF0000152
:1057000071516025D96E72516121DA6E000EDF6E23
:105710001200C1EC2EF0520EABEC2EF0B60EABEC3C
:105720002EF0B7EC2EF0530EABEC2EF0010E8FECFA
:105730002CF0076E07500A6E0B6A000E8FEC2CF0EF
:10574000076E0750096E086A0A5008100A6E0B505F
:1057500009100B6EBCEC2EF00AC005F00BC006F071
:105760001200C1EC2EF0520EABEC2EF0B80EABECEA
:105770002EF0B7EC2EF0530EABEC2EF0010E8FECAA
:105780002CF0076E07500A6E0B6A000E8FEC2CF09F
:10579000076E0750096E086A0A5008100A6E0B500F
:1057A00009100B6EBCEC2EF00AC005F00BC006F021
:1057B0001200C1EC2EF0520EABEC2EF0BA0EABEC98
:1057C0002EF0B7EC2EF0530EABEC2EF0010E8FEC5A
:1057D0002CF0076E07500A6E0B6A000E8FEC2CF04F
:1057E000076E0750096E086A0A5008100A6E0B50BF
:1057F00009100B6EBCEC2EF00AC005F00BC006F0D1
:105800001200C1EC2EF0520EABEC2EF0B40EABEC4D
:105810002EF0B7EC2EF0530EABEC2EF0010E8FEC09
:105820002CF0076E07500A6E0B6A000E8FEC2CF0FE
:10583000076E0750096E086A0A5008100A6E0B506E
:1058400009100B6EBCEC2EF00AC005F00BC006F080
:105850001200000E151A000E161A000E171A800EEE
:10586000181A11C001F012C002F013C003F014C0E6
:1058700004F015C005F016C006F017C007F018C0F8
:1058800008F00CEC0DF001C011F002C012F003C0E2
:1058900013F004C014F01200000E106E000E0F6E14
:1058A0005DEF2CF00EC001F0026A0CC003F00DC0D9
:1058B00004F03CEC28F00F4A102A0F500A24D96E4D
:1058C00010500B20DA6EDF500E6E0E50D8A46BEF26
:1058D0002CF06DEF2CF052EF2CF0120020C01AF0DB
:1058E00021C01BF022C01CF023C01DF067EC29F082
:1058F000210E256E780E246E980EE82EFED7242EEB
:10590000FCD7252EFAD700D020C01AF021C01BF0FA
:1059100022C01CF023C01DF02BEC2AF01200036EF5
:10592000FAEC2DF00E01DA87FAEC2DF0D5CE04F06A
:10593000FAEC2DF00350D8B4A0EF2CF0A4EF2CF02B
:10594000026A022AA5EF2CF0026A023A02460E0110
:10595000DA510218DF0B0218DA6FDA8904501200EC
:105960008594839E879C85987D947B9E7F9C7D9863
:10597000BD508F0B3009BD6EE00EBE16BF50F00B50
:105980000109BF6EC70EBC6EBD8E0A0E0E01746F8C
:105990000B0E696F000EA36E000EA06EA48EA18E7A
:1059A00012008C0EF66E5D0EF76E000EF86E09009A
:1059B000F5CFFEF00900F5CFFFF001EE00F0660E26
:1059C000EE6AE806FDE10001FD6BFC6BFB6BFA6B18
:1059D0005F905F92000EF86E0E0EF76E000137EFCB
:1059E0001BF014BEFEEF2CF0145006E11304D8B0E7
:1059F000FCEF2CF0FEEF2CF00CEF2DF013C015F0A7
:105A000014C016F0151E161E154A162A15C013F0DE
:105A100016C014F010EF2DF013C013F014C014F0E2
:105A20001200000E0001706F6C516A5D6D516B5970
:105A3000D8B01DEF2DF01FEF2DF02CEF2DF06C5195
:105A40006E5D6D516F59D8A028EF2DF02AEF2DF023
:105A50002CEF2DF0010E706F7051120066C041F0F6
:105A600067C042F068C043F069C044F081EC11F0B7
:105A700041C05BF042C05CF043C05DF044C05EF0EA
:105A800056EC26F05BC066F05CC067F05DC068F065
:105A90005EC069F012000150021003100410D8B467
:105AA00054EF2DF056EF2DF05EEF2DF0000E011AA1
:105AB000000E021A000E031A800E041A01C001F033
:105AC00002C002F003C003F004C004F0120001C0E1
:105AD00003F002C004F06FEF2DF0014A022A01C06A
:105AE000D9FF02C0DAFFDF50D8A479EF2DF07BEFA9
:105AF0002DF06DEF2DF00350015C016E0450025843
:105B0000026E120086840E01B4958686B497879241
:105B1000869E81987F827E8E7988849E7C9E8896E0
:105B200080968892849884968690889080927C98BB
:105B30007C967E9080901200E5EC2DF0010E036EB5
:105B4000000E71EC2EF03F0E056E550EE82EFED7BE
:105B5000052EFCD700F0030E036E000E71EC2EF044
:105B6000D50E036E010E71EC2EF01200C1EF2DF078
:105B700002C0D9FF03C0DAFFDF509FEC2EF0024ACB
:105B8000032A02C0D9FF03C0DAFFDF50D8A4CBEF4D
:105B90002DF0CDEF2DF0B8EF2DF012000001DD6FEC
:105BA000790E0001606F000E616F0D0E626F0E0EB8
:105BB000636FDDC064F0656B60EC2BF0790E026EF4
:105BC000000E036EB6EC2DF012000E01D951F00B51
:105BD0000809D96FD98B9F0ED66F848A848CA79BB6
:105BE000A79D1D0E1D6F1E0E1C6F1C0E6F6F1B0ED2
:105BF000706F12000E01D8B500EF2EF002EF2EF0FC
:105C0000FAEF2DF0DACE01F01F0E0116D8A40BEF3B
:105C10002EF00DEF2EF0FAEF2DF0120001500302DE
:105C2000F3CF05F0F4CF06F001500402F35006263E
:105C300002500302F350062605C001F006C002F030
:105C400012007F827E9E7998110E026E3C0E016ECC
:105C5000CB0EE82EFED7012EFCD7022EFAD700F08D
:105C600012007F927E9E7998110E026E3C0E016E9C
:105C7000CB0EE82EFED7012EFCD7022EFAD700F06D
:105C800012007F927E9E7988110E026E3C0E016E8C
:105C9000CB0EE82EFED7012EFCD7022EFAD700F04D
:105CA00012007F927E8E7998110E026E3C0E016E6C
:105CB000CB0EE82EFED7012EFCD7022EFAD700F02D
:105CC00012007F827E8E7988110E026E3C0E016E6C
:105CD000CB0EE82EFED7012EFCD7022EFAD700F00D
:105CE0001200046EC1EC2EF0520EABEC2EF00450FC
:105CF0008009ABEC2EF00350ABEC2EF0BCEC2EF098
:105D00001200120E0E01626F110E156FE997E895E1
:105D1000330EE56F000EE66FE789E88BE78F120020
:105D2000D6501F0B4009D66ED688D650F00B050909
:105D3000D66ED5883C0ED46EAF0ED36E1200016EB7
:105D40000E0137A5A6EF2EF0A8EF2EF0A0EF2EF053
:105D500001C0E4FE1200026EFAEC2DF002C0D5FE86
:105D60001200F28EF28AF28C0E01298B1200FAECEC
:105D70002DF00E01DA831200FAEC2DF00E01DA8517
:105D80001200FAEC2DF00E01DA8112005901120016
:020000040020DA
:10000000FF0FFF0FFF0FFF0FFF0FFF0FFF0FFF0F80
:020000040030CA
:0C000000AAFFFFFF9FFFFFFFFFFFFFFFB5
:00000001FF
