:0400000024EF00F0F9
:060008005C8247EF2CF0C2
:100018005C80D8CF01F0E0CF02F00E0133AB17EFD0
:1000280000F019EF00F01EEF00F00101604B612BAA
:100038000E01339B02C0E0FF01C0D8FF5C901000A6
:0400480080EF28F02D
:100E0000000000004B256409256409256409256458
:100E10000D0A0000000E0001896F000E886F000EA1
:100E2000856F000E846F000E8B6F000E8A6F000EB0
:100E30008D6F000E8C6F000E876F000E866F000E98
:100E4000916F000E906F000E966F000E956F000E62
:100E5000936F000E926F000E946F87EC2BF080C0A2
:100E60000EF081C00FF0B0EC28F082C0D9FF83C033
:100E7000DAFFDECF52F0DDCF53F052C003F053C0A3
:100E800004F0056A066A000EEFEC1DF003C015F0D1
:100E900004C016F005C017F006C018F080C0D9FFD6
:100EA00081C0DAFFDECF54F0DDCF55F054C003F03F
:100EB00055C004F0056A066A000EEFEC1DF003C091
:100EC00011F004C012F005C013F006C014F0F9ECE4
:100ED00012F011C02AF012C02BF013C02CF014C075
:100EE0002DF0000E2E6E000E2F6EC80E306E420ECC
:100EF000316E0BEC0FF02AC097F02BC098F02CC08D
:100F000099F02DC09AF097C076F098C077F099C00C
:100F100078F09AC079F0AEEC2AF076C08EF077C007
:100F20008FF0000120EE02F08251D9268351DA229F
:100F3000DECF52F0DDCF53F052C003F053C004F0C7
:100F4000056A066A000EEFEC1DF003C015F004C040
:100F500016F005C017F006C018F0000120EE02F0F0
:100F60008051D9268151DA22DECF54F0DDCF55F001
:100F700054C003F055C004F0056A066A000EEFEC99
:100F80001DF003C011F004C012F005C013F006C03C
:100F900014F0F9EC12F011C02AF012C02BF013C0BB
:100FA0002CF014C02DF0000E2E6E000E2F6EC80E09
:100FB000306E420E316E0BEC0FF02AC097F02BC052
:100FC00098F02CC099F02DC09AF097C076F098C098
:100FD00077F099C078F09AC079F0AEEC2AF076C03C
:100FE00088F077C089F0000120EE04F08251D92604
:100FF0008351DA22DECF52F0DDCF53F052C003F03E
:1010000053C004F0056A066A000EEFEC1DF003C041
:1010100015F004C016F005C017F006C018F0000166
:1010200020EE04F08051D9268151DA22DECF54F02F
:10103000DDCF55F054C003F055C004F0056A066AD0
:10104000000EEFEC1DF003C011F004C012F005C05B
:1010500013F006C014F0F9EC12F011C02AF012C01F
:101060002BF013C02CF014C02DF0000E2E6E000ECD
:101070002F6EC80E306E420E316E0BEC0FF02AC090
:1010800097F02BC098F02CC099F02DC09AF097C023
:1010900076F098C077F099C078F09AC079F0AEEC0D
:1010A0002AF0050E536E0F0E526EF10EE82EFED78B
:1010B000522EFCD7532EFAD700F0A7EC2BF080C0AD
:1010C0000EF081C00FF0B0EC28F0000120EE06F029
:1010D0008251D9268351DA22DECF52F0DDCF53F090
:1010E00052C003F053C004F0056A066A000EEFEC2C
:1010F0001DF003C015F004C016F005C017F006C0BF
:1011000018F080C0D9FF81C0DAFFDECF54F0DDCF08
:1011100055F054C003F055C004F0056A066A000E8D
:10112000EFEC1DF003C011F004C012F005C013F085
:1011300006C014F0F9EC12F011C02AF012C02BF026
:1011400013C02CF014C02DF0000E2E6E000E2F6E6A
:10115000C80E306E420E316E0BEC0FF02AC097F0C5
:101160002BC098F02CC099F02DC09AF097C076F063
:1011700098C077F099C078F09AC079F0AEEC2AF078
:1011800076C08AF077C08BF0000120EE08F0825123
:10119000D9268351DA22DECF52F0DDCF53F052C090
:1011A00003F053C004F0056A066A000EEFEC1DF070
:1011B00003C015F004C016F005C017F006C018F003
:1011C000000120EE02F08051D9268151DA22DECFD3
:1011D00054F0DDCF55F054C003F055C004F0056A5B
:1011E000066A000EEFEC1DF003C011F004C012F00F
:1011F00005C013F006C014F0F9EC12F011C02AF08B
:1012000012C02BF013C02CF014C02DF0000E2E6E67
:10121000000E2F6EC80E306E420E316E0BEC0FF0CA
:101220002AC097F02BC098F02CC099F02DC09AF0EE
:1012300097C076F098C077F099C078F09AC079F0AE
:10124000AEEC2AF076C08CF077C08DF0000120EE75
:101250000AF08251D9268351DA22DECF52F0DDCF57
:1012600053F052C003F053C004F0056A066A000E42
:10127000EFEC1DF003C015F004C016F005C017F028
:1012800006C018F0000120EE04F08051D9268151EB
:10129000DA22DECF54F0DDCF55F054C003F055C054
:1012A00004F0056A066A000EEFEC1DF003C011F0B1
:1012B00004C012F005C013F006C014F0F9EC12F0EF
:1012C00011C02AF012C02BF013C02CF014C02DF066
:1012D000000E2E6E000E2F6EC80E306E420E316E56
:1012E0000BEC0FF02AC097F02BC098F02CC099F0AF
:1012F0002DC09AF097C076F098C077F099C078F03A
:101300009AC079F0AEEC2AF0050E536E0F0E526EB5
:10131000F10EE82EFED7522EFCD7532EFAD700F04E
:10132000B7EC2BF080C00EF081C00FF0B0EC28F0CD
:10133000000120EE0CF08251D9268351DA22DECF53
:1013400052F0DDCF53F052C003F053C004F0056AF1
:10135000066A000EEFEC1DF003C015F004C016F095
:1013600005C017F006C018F080C0D9FF81C0DAFFB1
:10137000DECF54F0DDCF55F054C003F055C004F07B
:10138000056A066A000EEFEC1DF003C011F004C000
:1013900012F005C013F006C014F0F9EC12F011C001
:1013A0002AF012C02BF013C02CF014C02DF0000E48
:1013B0002E6E000E2F6EC80E306E420E316E0BEC8C
:1013C0000FF02AC097F02BC098F02CC099F02DC0D8
:1013D0009AF097C076F098C077F099C078F09AC0EC
:1013E00079F0AEEC2AF076C090F077C091F0000171
:1013F00020EE0EF08251D9268351DA22DECF52F050
:10140000DDCF53F052C003F053C004F0056A066A02
:10141000000EEFEC1DF003C015F004C016F005C07F
:1014200017F006C018F0000120EE02F08051D92616
:101430008151DA22DECF54F0DDCF55F054C003F0F5
:1014400055C004F0056A066A000EEFEC1DF003C0FB
:1014500011F004C012F005C013F006C014F0F9EC4E
:1014600012F011C02AF012C02BF013C02CF014C0DF
:101470002DF0000E2E6E000E2F6EC80E306E420E36
:10148000316E0BEC0FF02AC097F02BC098F02CC0F7
:1014900099F02DC09AF097C076F098C077F099C077
:1014A00078F09AC079F0AEEC2AF076C095F077C06B
:1014B00096F0000120EE10F08251D9268351DA22F5
:1014C000DECF52F0DDCF53F052C003F053C004F032
:1014D000056A066A000EEFEC1DF003C015F004C0AB
:1014E00016F005C017F006C018F0000120EE04F059
:1014F0008051D9268151DA22DECF54F0DDCF55F06C
:1015000054C003F055C004F0056A066A000EEFEC03
:101510001DF003C011F004C012F005C013F006C0A6
:1015200014F0F9EC12F011C02AF012C02BF013C025
:101530002CF014C02DF0000E2E6E000E2F6EC80E73
:10154000306E420E316E0BEC0FF02AC097F02BC0BC
:1015500098F02CC099F02DC09AF097C076F098C002
:1015600077F099C078F09AC079F0AEEC2AF076C0A6
:1015700092F077C093F0050E536E0F0E526EF10E7F
:10158000E82EFED7522EFCD7532EFAD700F0000ECD
:1015900000017B6F000E7A6F90C07CF091C07DF0EF
:1015A000000E7F6F460E7E6F91EC2AF00009D8B4D2
:1015B000DCEF0AF0DEEF0AF04FEF0BF092C003F021
:1015C00093C004F0056A066A000EEFEC1DF003C03C
:1015D00015F004C016F005C017F006C018F00001A1
:1015E00095518C25526E96518D21536E52C003F049
:1015F00053C004F0056A066A000EEFEC1DF003C04C
:1016000011F004C012F005C013F006C014F0F9EC9C
:1016100012F011C02AF012C02BF013C02CF014C02D
:101620002DF0000E2E6E000E2F6E480E306E430E03
:10163000316E0BEC0FF02AC097F02BC098F02CC045
:1016400099F02DC09AF0000E00017B6F000E7A6FAA
:1016500097C076F098C077F099C078F09AC079F08A
:10166000AEEC2AF076C07CF077C07DF0010E000170
:101670007F6F9E0E7E6F91EC2AF00009D8B443EF85
:101680000BF045EF0BF04AEF0BF0030E0001946FE7
:1016900030EF0CF0020E0001946F30EF0CF0000EF2
:1016A00000017B6F000E7A6F95C07CF096C07DF0D4
:1016B000000E7F6F4B0E7E6F91EC2AF00009D8B4BC
:1016C00064EF0BF066EF0BF0E0EF0BF088C003F077
:1016D00089C004F0056A066A000EEFEC1DF003C035
:1016E00015F004C016F005C017F006C018F08EC043
:1016F00003F08FC004F0056A066A000EEFEC1DF0DF
:1017000003C011F004C012F005C013F006C014F0BD
:10171000F9EC12F011C02AF012C02BF013C02CF01B
:1017200014C02DF0000E2E6E000E2F6EFA0E306ECD
:10173000430E316E0BEC0FF02AC097F02BC098F0DF
:101740002CC099F02DC09AF0000E00017B6F000EA6
:101750007A6F97C076F098C077F099C078F09AC009
:1017600079F0AEEC2AF076C07CF077C07DF0020E06
:1017700000017F6F9E0E7E6F91EC2AF00009D8B4B5
:10178000C4EF0BF0C6EF0BF0DBEF0BF000018B5159
:1017900009E15B0E8A5DD8A0D0EF0BF0D2EF0BF021
:1017A000D6EF0BF0060E946F30EF0CF0000E000138
:1017B000946F30EF0CF0010E0001946F30EF0CF0DD
:1017C000000E00017B6F000E7A6F90C07CF091C01C
:1017D0007DF0000E7F6F5A0E7E6F91EC2AF00009AB
:1017E000D8B4F5EF0BF0F7EF0BF007EF0CF00001BA
:1017F000965109E15B0E955DD8A001EF0CF003EF67
:101800000CF0D6EF0BF0070E946F30EF0CF00001E8
:101810009251955D93519659D8B011EF0CF013EF9A
:101820000CF017EF0CF0050E946F30EF0CF0000E7B
:101830007B6F000E7A6F92C07CF093C07DF0000E3B
:101840007F6F5A0E7E6F91EC2AF00009D8B42BEF0F
:101850000CF02DEF0CF0D6EF0BF0040E0001946F9E
:10186000000E7B6F5F0E7A6F90C07CF091C07DF0B0
:10187000000E7F6F690E7E6F91EC2AF00009D8B4DC
:1018800044EF0CF046EF0CF077EF0CF0000E000187
:101890007B6F5F0E7A6F95C07CF096C07DF0000E76
:1018A0007F6F690E7E6F91EC2AF00009D8B45BEF70
:1018B0000CF05DEF0CF077EF0CF0000E00017B6F89
:1018C0005F0E7A6F92C07CF093C07DF0000E7F6F48
:1018D000690E7E6F91EC2AF00009D8B472EF0CF01B
:1018E00074EF0CF077EF0CF0080E0001946F000E0F
:1018F00000017B6F000E7A6F90C07CF091C07DF08C
:10190000000E7F6F190E7E6F91EC2AF00009D8B49B
:101910008CEF0CF08EEF0CF0A8EF0CF0000E000135
:101920007B6F000E7A6F8EC07CF08FC07DF0000E52
:101930007F6F5A0E7E6F91EC2AF00009D8B4A3EFA6
:101940000CF0A5EF0CF0A8EF0CF0000E0001946F66
:101950000001945112000650800B0F6E06500624B1
:10196000116E05AEB6EF0CF0B8EF0CF0B9EF0CF05D
:1019700011801150D8B4BFEF0CF0C1EF0CF0D6EFCE
:101980000CF01128D8A4C7EF0CF0C9EF0CF0D1EF80
:101990000CF0000E036E000E046E000E056E000EBD
:1019A000066E058E000E066EDEEF0CF0000E036E66
:1019B000000E046E000E056E000E066E0A50800BBF
:1019C000106E0F501018D8B4E8EF0CF0EAEF0CF0DE
:1019D000EBEF0CF00F8C0A500A24106E09AEF3EFF7
:1019E0000CF0F5EF0CF0F6EF0CF010801050D8B4BE
:1019F000FCEF0CF0FEEF0CF013EF0DF01028D8A464
:101A000004EF0DF006EF0DF00EEF0DF0000E076E77
:101A1000000E086E000E096E000E0A6E098E000E92
:101A20000A6E1BEF0DF0000E076E000E086E000E22
:101A3000096E000E0A6E1150105CD8B022EF0DF046
:101A400024EF0DF04BEF0DF00FAC29EF0DF02BEF65
:101A50000DF02DEF0DF0800E0F1A11C012F010C016
:101A600011F012C010F003C012F007C003F012C052
:101A700007F004C012F008C004F012C008F005C05E
:101A800012F009C005F012C009F006C012F00AC039
:101A900006F012C00AF0000E126E115010C00BF0CA
:101AA0000C6A0B5E000E0C5A0CBE60EF0DF00C5071
:101AB00009E11A0E0B5CD8A060EF0DF062EF0DF09B
:101AC00099EF0DF00350041005100610D8A46BEF29
:101AD0000DF06EEF0DF0010E6FEF0DF0000E126EB7
:101AE000000E036E000E046E000E056E000E066EF4
:101AF00010C011F0A2EF0DF012A081EF0DF083EFF6
:101B00000DF089EF0DF0D89012300109126E8BEFB5
:101B10000DF0D890123203A090EF0DF092EF0DF07F
:101B200093EF0DF0128E0634063205320432033282
:101B3000112A1050115CD8A0A0EF0DF0A2EF0DF00B
:101B40007CEF0DF00FBCA7EF0DF0A9EF0DF0E9EF62
:101B50000DF01150D8A4AFEF0DF0B1EF0DF0BBEFC9
:101B60000DF0000E036E000E046E000E056E000EEA
:101B7000066E0AEF0FF007500326085004220950A2
:101B800005220A50062206A0C8EF0DF0CAEF0DF09C
:101B900076EF0EF012A0CFEF0DF0D1EF0DF0D7EFF2
:101BA0000DF0D89012300109126ED9EF0DF0D890D7
:101BB000123203A0DEEF0DF0E0EF0DF0E1EF0DF0DB
:101BC000128E06340632053204320332112A76EFC1
:101BD0000EF00750035C0850045809500558065091
:101BE000800A0B6E0A50800A0B58D8B0FAEF0DF03D
:101BF000FCEF0DF027EF0EF00350075C0B6E045066
:101C000008580C6E055009580D6E06500A580E6E95
:101C1000FF0E0B24036EFF0E0C20046EFF0E0D2032
:101C2000056EFF0E0E20066E800E0F1A126C1250FB
:101C3000D8A41DEF0EF01FEF0EF02FEF0EF0010EE7
:101C40000326000E0422052206222FEF0EF0075075
:101C5000035E0850045A0950055A0A50065A0350A8
:101C6000041005100610D8A438EF0EF03AEF0EF06D
:101C70006FEF0EF01250D8A440EF0EF042EF0EF0CE
:101C80006FEF0EF0000E036E000E046E000E056E78
:101C9000000E066E0AEF0FF0D890033604360536B4
:101CA000063612AE56EF0EF058EF0EF059EF0EF06A
:101CB000038012A05EEF0EF060EF0EF064EF0EF006
:101CC000D880123666EF0EF0D89012361150D8B484
:101CD0006CEF0EF06EEF0EF06FEF0EF0110605AE2A
:101CE00074EF0EF076EF0EF04CEF0EF0000E106E6B
:101CF00012AE7DEF0EF07FEF0EF097EF0EF012C0F8
:101D00000BF07F0E0B16D8B488EF0EF08AEF0EF0B2
:101D10008EEF0EF0010E106E97EF0EF003A093EF12
:101D20000EF095EF0EF097EF0EF08AEF0EF01050D8
:101D3000D8B49DEF0EF09FEF0EF0CAEF0EF0010E3B
:101D40000326000E04220522062206A0AAEF0EF0AA
:101D5000ACEF0EF0CAEF0EF003C00BF004C00CF0B5
:101D600005C00DF006C00EF00E340E320D320C32EE
:101D70000B320BC003F00CC004F00DC005F00EC018
:101D800006F01128D8B4C7EF0EF0C9EF0EF0CAEF75
:101D90000EF0112A1128D8B4D0EF0EF0D2EF0EF0C9
:101DA000DAEF0EF01150D8A4D8EF0EF0DAEF0EF003
:101DB000ECEF0EF0000E036E000E046E000E056ECA
:101DC000000E066E1150D8A4E8EF0EF0EAEF0EF008
:101DD000ECEF0EF0000E0F6E11A0F1EF0EF0F3EF2E
:101DE0000EF0F6EF0EF0058EF7EF0EF0059ED89090
:101DF0001130066E0FAEFFEF0EF001EF0FF002EFA5
:101E00000FF0068E03C003F004C004F005C005F017
:101E100006C006F012002D50800B366E2D502D247A
:101E20003C6E2CAE16EF0FF018EF0FF019EF0FF01D
:101E30003C803C50D8B41FEF0FF021EF0FF034EF8F
:101E40000FF03C28D8A427EF0FF029EF0FF031EF67
:101E50000FF0000E2A6E000E2B6E000E2C6E000E80
:101E60002D6E2C8E3CEF0FF0000E2A6E000E2B6EA6
:101E7000000E2C6E000E2D6E3150800B361A315034
:101E80003124376E30AE47EF0FF049EF0FF04AEFD5
:101E90000FF037803750D8B450EF0FF052EF0FF0FB
:101EA00065EF0FF03728D8A458EF0FF05AEF0FF076
:101EB00062EF0FF0000E2E6E000E2F6E000E306ED1
:101EC000000E316E308E6DEF0FF0000E2E6E000E94
:101ED0002F6E000E306E000E316E3750D8B473EF97
:101EE0000FF075EF0FF07DEF0FF03C50D8A47BEFB3
:101EF0000FF07DEF0FF087EF0FF0000E2A6E000E4F
:101F00002B6E000E2C6E000E2D6E1FEF11F0305058
:101F10002A02F3CF41F0F4CF42F04150386E396AD3
:101F20003A6A3B6A42503D6E3E6A3F6A406A2F50B1
:101F30002B02F3CF41F0F4CF42F041503826000E8F
:101F400039223A223B2242503D26000E3E223F22B9
:101F500040222E502C02F3CF41F0F4CF42F04150FA
:101F60003826000E39223A223B2242503D26000EEE
:101F70003E223F2240223AC03BF039C03AF038C0FE
:101F800039F0386A2E502B02F3CF41F0F4CF42F0F3
:101F90004150382642503922000E3A22000E3B2290
:101FA0002F502A02F3CF41F0F4CF42F041503826AF
:101FB00042503922000E3A22000E3B223AC03BF03A
:101FC00039C03AF038C039F0386A2E502A02F3CFBF
:101FD00041F0F4CF42F04150382642503922000EF1
:101FE0003A22000E3B2230502B02F3CF41F0F4CFC7
:101FF00042F041503D2642503E22000E3F22000E4C
:1020000040222F502C02F3CF41F0F4CF42F0415048
:102010003D2642503E22000E3F22000E402230500C
:102020002C02F3CF41F0F4CF42F04150326E4250D7
:10203000336E346A356A34C035F033C034F032C0A0
:1020400033F0326A32503D2633503E2234503F2224
:102050003550402238C032F039C033F03AC034F045
:102060003BC035F0190E3AEF10F0D89035323432CB
:1020700033323232E82E35EF10F032503D263350F5
:102080003E2234503F22355040223AC03BF039C006
:102090003AF038C039F0386A37503CC032F0336A11
:1020A0003226000E3322820E3224416EFF0E332080
:1020B000426E70EF10F0D8903D363E363F364036D7
:1020C0003BAE65EF10F067EF10F068EF10F03D8069
:1020D000D890383639363A363B364106D8A04206D3
:1020E0003FAE75EF10F077EF10F05BEF10F0000EE1
:1020F000376E3BAE7EEF10F080EF10F0A4EF10F0E3
:10210000FF0E3814326EFF0E3914336EFF0E3A1480
:10211000346E7F0E3B14356E325033103410351050
:10212000D8B495EF10F097EF10F09BEF10F0010E80
:10213000376EA4EF10F03DA0A0EF10F0A2EF10F06A
:10214000A4EF10F097EF10F03750D8B4AAEF10F0CA
:10215000ACEF10F0D0EF10F0010E3D26000E3E2245
:102160003F22402240A0B7EF10F0B9EF10F0D0EFBF
:1021700010F03DC032F03EC033F03FC034F040C0FC
:1021800035F03534353234323332323232C03DF00C
:1021900033C03EF034C03FF035C040F0414A422ADF
:1021A00042BEDBEF10F0425008E14128D8A0DBEF3F
:1021B00010F0DDEF10F0E7EF10F0000E3D6E000EB6
:1021C0003E6E800E3F6E7F0E406E15EF11F042BEE8
:1021D000F4EF10F0425006E14104D8B0F2EF10F0F5
:1021E000F4EF10F000EF11F0000E3D6E000E3E6EA9
:1021F000000E3F6E000E406E000E366E15EF11F0B1
:1022000041C03CF0FF0E3D16FF0E3E167F0E3F16FE
:10221000000E40163CA00FEF11F011EF11F012EF7D
:1022200011F03F8ED8903C30406E365040123DC089
:102230002AF03EC02BF03FC02CF040C02DF0120021
:1022400050C16AF051C16BF052C16CF053C16DF0D6
:1022500043C06AF044C06BF045C06CF046C06DF0FE
:102260006AC047F06BC048F06CC049F06DC04AF0DE
:10227000180E40EF11F0D8904A32493248324732B6
:10228000E82E3BEF11F047500001646F656B65BFAE
:1022900053EF11F0655109E1960E645DD8A053EF3C
:1022A00011F055EF11F05FEF11F043C043F044C05F
:1022B00044F045C045F046C046F0F8EF12F06AC061
:1022C00047F06BC048F06CC049F06DC04AF0200E7A
:1022D0006FEF11F0D8904A32493248324732E82E37
:1022E0006AEF11F04750481049104A10D8B47BEFFC
:1022F00011F07DEF11F08FEF11F043C003F044C0F7
:1023000004F045C005F046C006F0CBEC2AF003C04F
:1023100043F004C044F005C045F006C046F000019B
:1023200065BF9EEF11F0655107E17E0E645DD8B088
:102330009CEF11F09EEF11F0BAEF11F06AC02AF095
:102340006BC02BF06CC02CF06DC02DF0000E2E6E0B
:10235000000E2F6E000E306E000E316E0BEC0FF083
:102360002AC043F02BC044F02CC045F02DC046F0ED
:10237000F8EF12F0000E076E000E086E000E096EE8
:102380004B0E0A6E43C003F044C004F045C005F094
:1023900046C006F0ABEC0CF003C066F004C067F07A
:1023A00005C068F006C069F0000E076E000E086EEA
:1023B000000E096ECB0E0A6E66C003F067C004F013
:1023C00068C005F069C006F0ABEC0CF003C060F02B
:1023D00004C061F005C062F006C063F060C013F095
:1023E00061C014F062C015F063C016F043C017F06E
:1023F00044C018F045C019F046C01AF0A8EC29F006
:1024000013C06EF014C06FF015C070F016C071F0FC
:10241000000E036E000E046E000E056E3F0E066E7B
:102420006EC007F06FC008F070C009F071C00AF00C
:1024300040EC24F0D8B01FEF12F021EF12F057EF6C
:1024400012F043C007F044C008F045C009F046C090
:102450000AF06EC003F06FC004F070C005F071C0E8
:1024600006F0ABEC0CF003C066F004C067F005C0EA
:1024700068F006C069F066C003F067C004F068C089
:1024800005F069C006F0000E076E000E086E800EA3
:10249000096EBF0E0A6EABEC0CF003C06EF004C008
:1024A0006FF005C070F006C071F0C0EF12F0000EC2
:1024B000036E000E046E000E056EBF0E066E6EC03B
:1024C00007F06FC008F070C009F071C00AF040EC6E
:1024D00024F0D8A06EEF12F070EF12F0A6EF12F019
:1024E00043C007F044C008F045C009F046C00AF0F8
:1024F0006EC003F06FC004F070C005F071C006F04C
:10250000ABEC0CF003C066F004C067F005C068F0E7
:1025100006C069F066C003F067C004F068C005F04B
:1025200069C006F0000E076E000E086E800E096E80
:102530003F0E0A6EABEC0CF003C06EF004C06FF0FF
:1025400005C070F006C071F0C0EF12F06EC003F06D
:102550006FC004F070C005F071C006F043C007F012
:1025600044C008F045C009F046C00AF0ABEC0CF0DE
:1025700003C06EF004C06FF005C070F006C071F0CB
:102580006AC047F06BC048F06CC049F06DC04AF0BB
:10259000200ED0EF12F0D8904A32493248324732FA
:1025A000E82ECBEF12F04750481049104A10D8B42B
:1025B000DCEF12F0DEEF12F0F0EF12F06EC003F07D
:1025C0006FC004F070C005F071C006F0CBEC2AF0CB
:1025D00003C06EF004C06FF005C070F006C071F06B
:1025E0006EC043F06FC044F070C045F071C046F05B
:1025F00012001450800B216E14501424286E13AE58
:1026000004EF13F006EF13F007EF13F028802850C3
:10261000D8B40DEF13F00FEF13F024EF13F02828C8
:10262000D8A415EF13F017EF13F01FEF13F0000EFF
:10263000116E000E126E000E136E000E146E138ECD
:10264000000E146E2CEF13F0000E116E000E126EC1
:10265000000E136E000E146E1850800B211A1850C5
:102660001824296E17AE37EF13F039EF13F03AEF55
:1026700013F029802950D8B440EF13F042EF13F043
:1026800057EF13F02928D8A448EF13F04AEF13F0BE
:1026900052EF13F0000E156E000E166E000E176E40
:1026A000000E186E178E000E186E5FEF13F0000EFE
:1026B000156E000E166E000E176E000E186E155079
:1026C000161017101810D8A468EF13F06AEF13F063
:1026D00082EF13F0000E116E000E126E000E136EDC
:1026E000000E146E800E13127F0E1412215014125D
:1026F00011C011F012C012F013C013F014C014F086
:10270000C5EF14F02850D8A488EF13F08AEF13F027
:1027100094EF13F0000E116E000E126E000E136E89
:10272000000E146EC5EF14F0295028C019F01A6A73
:10273000195E000E1A5A7F0E1924226E000E1A20FE
:10274000236E11C01DF012C01EF013C01FF014C084
:1027500020F0000E116E000E126E000E136E000EB1
:10276000146E000E246E000E256E000E266E000EF6
:10277000276E000E296EF5EF13F02950D8B4C3EF81
:1027800013F0C5EF13F0DCEF13F0D8901D361E36B2
:102790001F362036D890113612361336143627AE2F
:1027A000D4EF13F0D6EF13F0D7EF13F01180D890D9
:1027B000243625362636273615501D5C16501E58F1
:1027C00017501F5818502058D8A0E9EF13F0EBEF1E
:1027D00013F0F4EF13F0278C15501D5E16501E5A9F
:1027E00017501F5A1850205A292A190E2964FBEF36
:1027F00013F0FDEF13F0BDEF13F01D501E101F106E
:102800002010D8B406EF14F008EF14F020EF14F005
:10281000248020EF14F0D890113612361336143677
:1028200027AE15EF14F017EF14F018EF14F0118025
:10283000D89024362536263627362206D8A02306F9
:1028400013AE25EF14F027EF14F00BEF14F0000E89
:10285000296E27AE2EEF14F030EF14F054EF14F081
:10286000FF0E2414196EFF0E25141A6EFF0E261487
:102870001B6E7F0E27141C6E19501A101B101C1093
:10288000D8B445EF14F047EF14F04BEF14F0010EFD
:10289000296E54EF14F011A050EF14F052EF14F021
:1028A00054EF14F047EF14F02950D8B45AEF14F055
:1028B0005CEF14F080EF14F0010E1126000E1222CE
:1028C0001322142214A067EF14F069EF14F080EFC4
:1028D00014F011C019F012C01AF013C01BF014C08C
:1028E0001CF01C341C321B321A32193219C011F080
:1028F0001AC012F01BC013F01CC014F0224A232A85
:1029000023BE8BEF14F0235008E12228D8A08BEFD0
:1029100014F08DEF14F098EF14F0000E236E22687F
:10292000000E116E000E126E000E136E000E146E6D
:1029300023BEA5EF14F0235006E12204D8B0A3EF84
:1029400014F0A5EF14F0B3EF14F0000E236E000E98
:10295000226E000E116E000E126E000E136E000E2F
:10296000146E000E216E22C028F028A0BAEF14F0D9
:10297000BCEF14F0BFEF14F0138EC0EF14F0139EF1
:10298000D8902830146E76EF13F01200426E425049
:10299000D8B4CDEF14F0CFEF14F042EF16F0D59E7F
:1029A00060C15CF161C15DF101015C515E5D406E31
:1029B0005D515F59416E5A50020D000EF324D96EDD
:1029C000010EF420DA6E40C0DEFF41C0DDFF5A2A5E
:1029D0003CC01CF03DC01DF03EC01EF03FC01FF0CB
:1029E00017EC27F04204D8A4F8EF14F0FAEF14F033
:1029F0001DEF15F03CC028F03DC029F03EC02AF084
:102A00003FC02BF02FEC2AF03CC022F03DC023F059
:102A10003EC024F03FC025F05A0E266E52EC20F046
:102A20005A50020D000EF324D96E010EF420DA6E16
:102A3000010EDE6E000EDD6E5A2A020E4218D8A478
:102A400024EF15F026EF15F049EF15F03CC028F003
:102A50003DC029F03EC02AF03FC02BF02FEC2AF0F9
:102A60003CC022F03DC023F03EC024F03FC025F022
:102A70005A0E266E12EC21F05A50020D000EF3246D
:102A8000D96E010EF420DA6E020EDE6E000EDD6EDF
:102A90005A2A030E4218D8A450EF15F052EF15F041
:102AA00075EF15F03CC028F03DC029F03EC02AF07B
:102AB0003FC02BF02FEC2AF03CC022F03DC023F0A9
:102AC0003EC024F03FC025F0B40E266E12EC21F07B
:102AD0005A50020D000EF324D96E010EF420DA6E66
:102AE000030EDE6E000EDD6E5A2A040E4218D8A4C4
:102AF0007CEF15F07EEF15F0A1EF15F03CC028F04B
:102B00003DC029F03EC02AF03FC02BF050EC2AF027
:102B10003CC022F03DC023F03EC024F03FC025F071
:102B20005A0E266E52EC20F05A50020D000EF3247D
:102B3000D96E010EF420DA6E040EDE6E000EDD6E2C
:102B40005A2A050E4218D8A4A8EF15F0AAEF15F0DE
:102B5000CDEF15F03CC028F03DC029F03EC02AF072
:102B60003FC02BF050EC2AF03CC022F03DC023F0D7
:102B70003EC024F03FC025F05A0E266E12EC21F024
:102B80005A50020D000EF324D96E010EF420DA6EB5
:102B9000050EDE6E000EDD6E5A2A060E4218D8A40F
:102BA000D4EF15F0D6EF15F0F9EF15F03CC028F092
:102BB0003DC029F03EC02AF03FC02BF02FEC2AF098
:102BC0003CC022F03DC023F03EC024F03FC025F0C1
:102BD000870E266E52EC20F05A50020D000EF324A0
:102BE000D96E010EF420DA6E060EDE6E000EDD6E7A
:102BF0005A2A070E4218D8A400EF16F002EF16F07A
:102C000025EF16F03CC028F03DC029F03EC02AF068
:102C10003FC02BF02FEC2AF03CC022F03DC023F047
:102C20003EC024F03FC025F0870E266E12EC21F046
:102C30005A50020D000EF324D96E010EF420DA6E04
:102C4000070EDE6E000EDD6E5A2A080E4218D8A45A
:102C50002CEF16F02EEF16F042EF16F03CC028F0E5
:102C60003DC029F03EC02AF03FC02BF02FEC2AF0E7
:102C70003CC034F03DC035F03EC036F03FC037F0C8
:102C80000AEC19F0120020C038F021C039F022C03F
:102C90003AF023C03BF024C03CF025C03DF026C0F4
:102CA0003EF027C03FF03FBE58EF16F05BEF16F046
:102CB000010E5CEF16F0000E366E376A3650371094
:102CC000D8B465EF16F067EF16F077EF16F03F1EF9
:102CD0003E1E3D1E3C1E3B1E3A1E391E386C000E29
:102CE00039223A223B223C223D223E223F22010150
:102CF00059BF7DEF16F07FEF16F080EF16F05A9374
:102D000059BF8DEF16F0595106E15805D8B08BEF39
:102D100016F08DEF16F093EF16F0000E336E010EE5
:102D2000326E97EF16F058C132F059C133F056C1E8
:102D300034F057C135F036503710D8A4A2EF16F052
:102D4000A4EF16F0ABEF16F05AA5A9EF16F0ABEF13
:102D500016F0AEEF16F03406D8A03506000E416E20
:102D60001F0E406E000E826F32EF17F04006D8A0A3
:102D70004106630E4024D96E010E4120DA6E38C040
:102D800003F039C004F03AC005F03BC006F03CC087
:102D900007F03DC008F03EC009F03FC00AF00A0E3F
:102DA0000B6E000E0C6E000E0D6E000E0E6E000E01
:102DB0000F6E000E106E000E116E000E126ED2EC31
:102DC00021F003C028F004C029F005C02AF006C095
:102DD0002BF007C02CF008C02DF009C02EF00AC05F
:102DE0002FF028C015F02AC016F071EC2AF015500B
:102DF000300FDF6E3206D8A033063406D8A0350671
:102E000038C003F039C004F03AC005F03BC006F00A
:102E10003CC007F03DC008F03EC009F03FC00AF0DA
:102E20000A0E0B6E000E0C6E000E0D6E000E0E6E76
:102E3000000E0F6E000E106E000E116E000E126E60
:102E40008EEC1FF003C038F004C039F005C03AF032
:102E500006C03BF007C03CF008C03DF009C03EF0A2
:102E60000AC03FF041BE3DEF17F0415008E1400479
:102E7000D8A03DEF17F03FEF17F070EF17F0385084
:102E800039103A103B103C103D103E103F10D8A4B2
:102E90004CEF17F04EEF17F0B6EF16F033BE5BEFC6
:102EA00017F0335006E13204D8B059EF17F05BEF5A
:102EB00017F0B6EF16F035BE66EF17F0355008E1A3
:102EC0003404D8A066EF17F068EF17F070EF17F032
:102ED00001015AB36EEF17F070EF17F0B6EF16F06E
:102EE00036503710D8A477EF17F079EF17F081EF4D
:102EF00017F001015AA57FEF17F081EF17F09FEF50
:102F000017F04006D8A0410636503710D8A48BEFF2
:102F100017F08DEF17F093EF17F0000E316E2B0EB8
:102F2000306E97EF17F0000E316E2D0E306E630E7F
:102F30004024D96E010E4120DA6E30C0DFFF1EC082
:102F400013F01FC014F0630E4024156E010E4120D3
:102F5000166E34C017F035C018F090EC25F013C091
:102F60001EF014C01FF01200076E000E066E000E59
:102F7000066E00EF19F00704D8A4C1EF17F0C3EFF5
:102F800017F0FBEF17F080A2C8EF17F0CCEF17F0A7
:102F9000046A042ACDEF17F0046A0446805004182E
:102FA000FD0B0418806E290E056E960E046E7F0EC2
:102FB000E82EFED7042EFCD7052EFAD700F080A20B
:102FC000E4EF17F0E8EF17F0046A042AE9EF17F0CE
:102FD000046A044680500418FD0B0418806E290E04
:102FE000056E960E046E7F0EE82EFED7042EFCD7DB
:102FF000052EFAD700F0020E0718D8A402EF18F039
:1030000004EF18F03CEF18F07CA809EF18F00DEF72
:1030100018F0046A042A0EEF18F0046A043A7C508F
:103020000418EF0B04187C6E290E056E960E046EC4
:103030007F0EE82EFED7042EFCD7052EFAD700F01F
:103040007CA825EF18F029EF18F0046A042A2AEF6B
:1030500018F0046A043A7C500418EF0B04187C6ED4
:10306000290E056E960E046E7F0EE82EFED7042EF6
:10307000FCD7052EFAD700F0030E0718D8A443EFAB
:1030800018F045EF18F081EF18F07CA64AEF18F021
:103090004EEF18F0046A042A4FEF18F0046A044651
:1030A000044604467C500418F70B04187C6E290E65
:1030B000056E960E046E7F0EE82EFED7042EFCD70A
:1030C000052EFAD700F07CA668EF18F06CEF18F028
:1030D000046A042A6DEF18F0046A044604460446A4
:1030E0007C500418F70B04187C6E290E056E960EA2
:1030F000046E7F0EE82EFED7042EFCD7052EFAD7DD
:1031000000F0040E0718D8A488EF18F08AEF18F022
:10311000C0EF18F07EA08FEF18F093EF18F0046A5C
:10312000042A94EF18F0046A7E500418FE0B041869
:103130007E6E290E056E960E046E7F0EE82EFED76B
:10314000042EFCD7052EFAD700F07EA0AAEF18F0C7
:10315000AEEF18F0046A042AAFEF18F0046A7E504C
:103160000418FE0B04187E6E290E056E960E046E72
:103170007F0EE82EFED7042EFCD7052EFAD700F0DE
:10318000030E0718D8A4C7EF18F0C9EF18F0FFEF27
:1031900018F080A0CEEF18F0D2EF18F0046A042ADD
:1031A000D3EF18F0046A80500418FE0B0418806EE8
:1031B000290E056E960E046E7F0EE82EFED7042EA5
:1031C000FCD7052EFAD700F080A0E9EF18F0EDEF5C
:1031D00018F0046A042AEEEF18F0046A805004180C
:1031E000FE0B0418806E290E056E960E046E7F0E7F
:1031F000E82EFED7042EFCD7052EFAD700F0062ABB
:103200000350065CD8A007EF19F009EF19F0BBEFE7
:1032100017F0120034C022F035C023F036C024F07D
:1032200037C025F0B40E266E12EC21F04AEF1AF0EA
:1032300034C01CF035C01DF036C01EF037C01FF082
:10324000CDEC27F0000E3B6E000E3A6E36EF19F013
:10325000520E396E2B0E386E000EE82EFED7382E29
:10326000FCD7392EFAD700D03A4A3B2A5A50020DE1
:10327000000EF324D96E010EF420DA6EDE503A5CB3
:10328000DE503B58D8A047EF19F049EF19F028EF6E
:1032900019F034C01CF035C01DF036C01EF037C028
:1032A0001FF017EC27F05A50D8A459EF19F05BEF34
:1032B00019F05DEF19F052EF1AF05A065A50020D4C
:1032C000000EF324D96E010EF420DA6EDE04DE1057
:1032D000D8A46DEF19F06FEF19F07CEF19F034C03E
:1032E00022F035C023F036C024F037C025F05A0E46
:1032F000266E12EC21F05A065A50020D000EF324ED
:10330000D96E010EF420DA6E020EDE18DE10D8A49B
:103310008CEF19F08EEF19F09BEF19F034C022F00A
:1033200035C023F036C024F037C025F05A0E266E83
:1033300052EC20F05A065A50020D000EF324D96EBA
:10334000010EF420DA6E030EDE18DE10D8A4ABEF07
:1033500019F0ADEF19F0BAEF19F034C022F035C012
:1033600023F036C024F037C025F0B40E266E12ECE0
:1033700021F05A065A50020D000EF324D96E010EA8
:10338000F420DA6E040EDE18DE10D8A4CAEF19F0AD
:10339000CCEF19F0E3EF19F034C028F035C029F074
:1033A00036C02AF037C02BF050EC2AF034C022F09F
:1033B00035C023F036C024F037C025F05A0E266EF3
:1033C00012EC21F05A065A50020D000EF324D96E69
:1033D000010EF420DA6E050EDE18DE10D8A4F3EF2D
:1033E00019F0F5EF19F00CEF1AF034C028F035C0E1
:1033F00029F036C02AF037C02BF050EC2AF034C048
:1034000022F035C023F036C024F037C025F05A0E24
:10341000266E52EC20F05A065A50020D000EF3248C
:10342000D96E010EF420DA6E060EDE18DE10D8A476
:103430001CEF1AF01EEF1AF02BEF1AF034C022F036
:1034400035C023F036C024F037C025F0870E266E35
:1034500012EC21F05A065A50020D000EF324D96ED8
:10346000010EF420DA6E070EDE18DE10D8A43BEF52
:103470001AF03DEF1AF04AEF1AF034C022F035C0CE
:1034800023F036C024F037C025F0790E266E52ECBA
:1034900020F05A065A50D8A450EF1AF052EF1AF002
:1034A00018EF19F0120097EC2BF0020E036E010ECC
:1034B000B4EC17F0290E116E960E106E7F0EE82EEA
:1034C000FED7102EFCD7112EFAD700F087EC2BF088
:1034D00008EC29F00EC0D9FF0FC0DAFF07C0DEFFED
:1034E00008C0DDFF30EC29F020EE02F00E50D926A6
:1034F0000F50DA2207C0DEFF08C0DDFF58EC29F0CC
:1035000020EE04F00E50D9260F50DA2207C0DEFF5D
:1035100008C0DDFF090E116E1E0E106EE40EE82EBF
:10352000FED7102EFCD7112EFAD700D0A7EC2BF027
:1035300008EC29F020EE06F00E50D9260F50DA22C2
:1035400007C0DEFF08C0DDFF30EC29F020EE08F0F8
:103550000E50D9260F50DA2207C0DEFF08C0DDFF6B
:1035600058EC29F020EE0AF00E50D9260F50DA223E
:1035700007C0DEFF08C0DDFF090E116E1E0E106EC3
:10358000E40EE82EFED7102EFCD7112EFAD700D06D
:10359000B7EC2BF008EC29F020EE0CF00E50D926F9
:1035A0000F50DA2207C0DEFF08C0DDFF30EC29F043
:1035B00020EE0EF00E50D9260F50DA2207C0DEFFA3
:1035C00008C0DDFF58EC29F020EE10F00E50D9268F
:1035D0000F50DA2207C0DEFF08C0DDFF090E116EB2
:1035E0001E0E106EE40EE82EFED7102EFCD7112E04
:1035F000FAD700D0C7EC2BF008EC29F020EE12F03F
:103600000E50D9260F50DA2207C0DEFF08C0DDFFBA
:1036100030EC29F020EE14F00E50D9260F50DA22AB
:1036200007C0DEFF08C0DDFF58EC29F020EE16F0E1
:103630000E50D9260F50DA2207C0DEFF08C0DDFF8A
:1036400080EC29F020EE18F00E50D9260F50DA2227
:1036500007C0DEFF08C0DDFF290E116E960E106E4A
:103660007F0EE82EFED7102EFCD7112EFAD700F0D1
:1036700097EC2BF0290E116E960E106E7F0EE82E31
:10368000FED7102EFCD7112EFAD700F0020E036ED3
:10369000010EB4EC17F0120020EE01F01150D92603
:1036A0001250DA22DF50D8B458EF1BF05AEF1BF05B
:1036B0008BEF1BF011C0D9FF12C0DAFFDF50136E81
:1036C0001350036E046A20EE07F01150D9261250F1
:1036D000DA22DECF05F0DDCF06F074EC2BF003C06C
:1036E00009F004C00AF0000E0C6E640E0B6E55EC6F
:1036F00026F020EE07F01150D9261250DA22DECF44
:1037000014F0DDCF15F00950145C1A6E0A501558EC
:103710001B6EAEEF1BF011C0D9FF12C0DAFFDF50F5
:10372000136E1350036E046A20EE07F01150D92671
:103730001250DA22DECF05F0DDCF06F074EC2BF06C
:1037400003C009F004C00AF0000E0C6E640E0B6E8C
:1037500055EC26F009C01AF00AC01BF020EE02F06A
:103760001150D9261250DA22DECF13F0DDCF14F03B
:1037700013C0D9FF14C0DAFF1AC0DFFF20EE01F03A
:103780001150D9261250DA22DF50D8B4CAEF1BF0FC
:10379000CCEF1BF001EF1CF020EE04F01150D92605
:1037A0001250DA22DECF13F0DDCF14F013C0D9FFB0
:1037B00014C0DAFF10EE04F01150E1261250E2229C
:1037C000E6CF15F0E5CF16F015C0E1FF16C0E2FF19
:1037D000E750176E10EE06F01150E1261250E2226B
:1037E000E750186E010E196E182AF9EF1BF0D890E9
:1037F0001936182EF7EF1BF019501710DF6E35EF42
:103800001CF020EE04F01150D9261250DA22DECF3F
:1038100013F0DDCF14F013C0D9FF14C0DAFF10EE9F
:1038200004F01150E1261250E222E6CF15F0E5CF68
:1038300016F015C0E1FF16C0E2FFE750176E10EE5C
:1038400006F01150E1261250E222E750186E010EE8
:10385000196E182A2EEF1CF0D8901936182E2CEF5E
:103860001CF01950FF0A1714DF6E1200000E000141
:10387000E46F000EE36F000EE86F000EE76F000EBE
:10388000EA6F000EE96F000EE46F000EE36FC7EC05
:103890002BF0DFC00EF0E0C00FF0B0EC28F0DFC07E
:1038A00079F0E0C07AF017EC28F0090E0001E26F21
:1038B0001E0EE16FE40EE82EFED7E12FFCD7E22FBB
:1038C000FAD700F00001E34BE42BE4BF71EF1CF0EA
:1038D000E45109E1050EE35DD8A071EF1CF073EF30
:1038E0001CF047EF1CF0000E34EC2BF0000E000132
:1038F000E66F000EE56F87EC2BF0DFC00EF0E0C046
:103900000FF0B0EC28F0DFC079F0E0C07AF017ECEF
:1039100028F0090E0001E26F1E0EE16FE40EE82EA2
:10392000FED7E12FFCD7E22FFAD700F00001E54BDC
:10393000E62BE6BFA5EF1CF0E65109E1050EE55DBB
:10394000D8A0A5EF1CF0A7EF1CF07BEF1CF0000E39
:1039500034EC2BF0000E0001E86F000EE76FA7ECCF
:103960002BF0DFC00EF0E0C00FF0B0EC28F0DFC0AD
:1039700079F0E0C07AF017EC28F0090E0001E26F50
:103980001E0EE16FE40EE82EFED7E12FFCD7E22FEA
:10399000FAD700F00001E74BE82BE8BFD9EF1CF0A5
:1039A000E85109E1050EE75DD8A0D9EF1CF0DBEF87
:1039B0001CF0AFEF1CF0000E34EC2BF0000E0001F9
:1039C000EA6F000EE96FB7EC2BF0DFC00EF0E0C03D
:1039D0000FF0B0EC28F0DFC079F0E0C07AF017EC1F
:1039E00028F0090E0001E26F1E0EE16FE40EE82ED2
:1039F000FED7E12FFCD7E22FFAD700F00001E94B08
:103A0000EA2BEABF0DEF1DF0EA5109E1050EE95D71
:103A1000D8A00DEF1DF00FEF1DF0E3EF1CF0010E2D
:103A200034EC2BF0C7EC2BF0120044C0D9FF45C09A
:103A3000DAFFDECFF6FFDDCFF7FF0800F550250AED
:103A4000D8A425EF1DF027EF1DF0D3EF1DF044C0E3
:103A5000D9FF45C0DAFFDE2A000EDD22000E01018B
:103A6000576F000E566F56C15AF157C15BF1586936
:103A7000596944C0D9FF45C0DAFFDECFF6FFDDCF7C
:103A8000F7FF0800F550640AD8B449EF1DF04BEF7A
:103A90001DF05DEF1DF044C0D9FF45C0DAFFDECF59
:103AA000F6FFDDCFF7FF0800F550690AD8A45BEFF9
:103AB0001DF05DEF1DF09DEF1DF044C0D9FF45C026
:103AC000DAFFDE2A000EDD2246C0D9FF47C0DAFF4A
:103AD000DFCF48F0020EDE26DFCF49F0000EDD22F8
:103AE00048C0D9FF49C0DAFFDECF4AF0DDCF4BF046
:103AF000000E4BBEFF0E4C6E4D6E4E6E4F6E506EF6
:103B0000516E42C01EF043C01FF04AC020F04BC0AF
:103B100021F04CC022F04DC023F04EC024F04FC025
:103B200025F050C026F051C027F043EC16F01EC01F
:103B300042F01FC043F0EEEF1DF044C0D9FF45C076
:103B4000DAFFDECFF6FFDDCFF7FF0800F550250ADC
:103B5000D8A4ADEF1DF0AFEF1DF0C6EF1DF044C0CF
:103B6000D9FF45C0DAFFDE2A000EDD22000E046E0A
:103B7000250E036E42C005F043C006F02BEC25F085
:103B8000000E436E010E426EEEEF1DF044C0D9FFF1
:103B900045C0DAFFDE2A000EDD22000E436E000E65
:103BA000426EEEEF1DF044C0D9FF45C0DAFFDECF14
:103BB000F6FFDDCFF7FF0800F550036E046A42C040
:103BC00005F043C006F02BEC25F044C0D9FF45C0FA
:103BD000DAFFDE2A000EDD22C0EF1DF012000B6EB0
:103BE0000B50D8B4F6EF1DF0F8EF1DF01AEF1EF0F1
:103BF00006BEFFEF1DF0FDEF1DF01AEF1EF003C033
:103C000007F004C008F005C009F006C00AF0071E5E
:103C1000081E091E0A1E072A000E082209220A226F
:103C200007C00DF008C00EF009C00FF00AC010F078
:103C300022EF1EF003C00DF004C00EF005C00FF01F
:103C400006C010F00350041005100610D8A42BEF86
:103C50001EF02DEF1EF037EF1EF0000E036E000E6B
:103C6000046E000E056E000E066EC8EF1EF0960E76
:103C70000C6E41EF1EF00C2AD89010320F320E322B
:103C80000D32000E0D14076E000E0E14086E000E9D
:103C90000F14096EFE0E10140A6E0750081009105A
:103CA0000A10D8A456EF1EF058EF1EF03BEF1EF09E
:103CB00066EF1EF00C2A010E0D26000E0E220F22BA
:103CC0001022D89010320F320E320D32000E0D1429
:103CD000076E000E0E14086E000E0F14096EFF0E14
:103CE00010140A6E0750081009100A10D8A47BEFB0
:103CF0001EF07DEF1EF05AEF1EF085EF1EF00C0651
:103D0000D8900D360E360F3610360FBE8AEF1EF0E5
:103D10008CEF1EF094EF1EF0020E0C6092EF1EF07E
:103D200094EF1EF07FEF1EF00CB099EF1EF09BEFAA
:103D30001EF09CEF1EF00F9ED8900C320CC007F0C6
:103D4000086A096A0A6A07C00AF0096A086A076A03
:103D500007500D1208500E1209500F120A5010127F
:103D60000B50D8B4B6EF1EF0B8EF1EF0C0EF1EF047
:103D700006BEBFEF1EF0BDEF1EF0C0EF1EF0108EAE
:103D80000DC003F00EC004F00FC005F010C006F027
:103D900012000001FA6F000E0001F76F000EF96FBC
:103DA000000EF66F000EF56F020EFA19D8A4DBEFC5
:103DB0001EF0DDEF1EF0E3EF1EF0EDC00EF0EEC0E2
:103DC0000FF053EC1AF0040E0001FA19D8A4EBEF2F
:103DD0001EF0EDEF1EF0F7EF1EF0EBC07AF0ECC036
:103DE0007BF028EC23F07AC0F5F07BC0F6F0000100
:103DF000FA05D8A4FEEF1EF000EF1FF00EEF1FF043
:103E0000C7EC2BF0EBC00EF0ECC00FF0B0EC28F0DC
:103E1000EBC079F0ECC07AF017EC28F0020E00014C
:103E2000FA19D8A416EF1FF018EF1FF027EF1FF0B4
:103E3000EBC080F0ECC081F0EDC082F0EEC083F00A
:103E40000AEC07F00001F86FF85134EC2BF0030E88
:103E50000001FA19D8A42FEF1FF031EF1FF044EF43
:103E60001FF03CEF1FF0EBC0DFF0ECC0E0F036ECF1
:103E70001CF0010E0001F76FF751D8B442EF1FF0AC
:103E800044EF1FF033EF1FF0040EFA19D8A44BEFE4
:103E90001FF04DEF1FF0F7EF1EF069EF1FF0EFC0BE
:103EA0001CF0F0C01DF0F1C01EF0F2C01FF0CDEC10
:103EB00027F0EFC07AF0F0C07BF0F1C07CF0F2C0E8
:103EC0007DF0F5C07EF0F6C07FF0F3EC25F0000148
:103ED000F96FF951D8B46FEF1FF071EF1FF04FEF8A
:103EE0001FF0EFC01CF0F0C01DF0F1C01EF0F2C0DA
:103EF0001FF017EC27F0520E0001F46F2B0EF36F3A
:103F0000000EE82EFED7F32FFCD7F42FFAD700F0DF
:103F1000000E0001F96FF7EF1EF01200000E146E94
:103F200012BE97EF1FF095EF1FF0A9EF1FF0121EC2
:103F3000111E101E0F1E0E1E0D1E0C1E0B6C000EF1
:103F40000C220D220E220F22102211221222010E0B
:103F5000146E0ABEB0EF1FF0AEEF1FF0C2EF1FF0FD
:103F60000A1E091E081E071E061E051E041E036CDF
:103F7000000E0422052206220722082209220A2214
:103F8000010E141A20EE15F0070EDE6AE806FDE2B7
:103F90000B500C100D100E100F10101011101210ED
:103FA000D8B4D5EF1FF0D7EF1FF029EF20F0010EA6
:103FB000136EE5EF1FF0D8900B360C360D360E362B
:103FC0000F36103611361236132A12AEEAEF1FF0F2
:103FD000ECEF1FF0DBEF1FF0D890153616361736D2
:103FE000183619361A361B361C360B50035C0C502B
:103FF00004580D5005580E5006580F5007581050D1
:1040000008581150095812500A58D8A00AEF20F049
:104010000CEF20F01DEF20F00B50035E0C50045A03
:104020000D50055A0E50065A0F50075A1050085A94
:104030001150095A12500A5A1580D8901232113272
:1040400010320F320E320D320C320B32132EECEFD7
:104050001FF01450D8B42FEF20F031EF20F041EFD3
:1040600020F01C1E1B1E1A1E191E181E171E161EBF
:10407000156C000E16221722182219221A221B2252
:104080001C2215C003F016C004F017C005F018C0BC
:1040900006F019C007F01AC008F01BC009F01CC0D8
:1040A0000AF0120020EE01F02250D9262350DA2225
:1040B000010EDF6E20EE01F02450D9262550DA22C1
:1040C000010EDF6E83EF20F022C0D9FF23C0DAFF9C
:1040D000050EDF2624C0D9FF25C0DAFF000EDF6EF3
:1040E00022C011F023C012F04CEC1BF024C011F0E0
:1040F00025C012F04CEC1BF0D00E276ECA0EE82E35
:10410000FED7272EFCD722C0D9FF23C0DAFF180E16
:10411000DF648DEF20F08FEF20F064EF20F0265069
:104120000001FE03F3CF32F0F4CF33F00A0E322455
:10413000286E000E3320296E140E32242A6E000ED3
:1041400033202B6EB40E2618D8A4A9EF20F0ABEFC5
:1041500020F0C6EF20F0000E2D6E000E2C6EBBEF8F
:1041600020F0150E276EC60EE82EFED7272EFCD7A0
:1041700000D02C4A2D2A2A502C5C2B502D58D8A028
:10418000C4EF20F0C6EF20F0B1EF20F0870E261824
:10419000D8A4CDEF20F0CFEF20F0ECEF20F0000E10
:1041A0002F6E000E2E6EDFEF20F0150E276EC60E5E
:1041B000E82EFED7272EFCD700D02E4A2F2A2850D3
:1041C0002E5C29502F58D8A0E8EF20F0EAEF20F01D
:1041D000D5EF20F007EF21F0000E316E000E306EAB
:1041E000FCEF20F0150E276EC60EE82EFED7272E08
:1041F000FCD700D0304A312A3250305C335031582D
:10420000D8A005EF21F007EF21F0F2EF20F022C057
:104210001CF023C01DF024C01EF025C01FF017ECB9
:1042200027F0120020EE01F02250D9262350DA2286
:10423000010EDF6E20EE01F02450D9262550DA223F
:10424000010EDF6E43EF21F024C0D9FF25C0DAFF55
:10425000050EDF2622C0D9FF23C0DAFF000EDF6E75
:1042600022C011F023C012F04CEC1BF024C011F05E
:1042700025C012F04CEC1BF0D00E276ECA0EE82EB3
:10428000FED7272EFCD724C0D9FF25C0DAFF180E91
:10429000DF644DEF21F04FEF21F024EF21F02650A5
:1042A0000001FE03F3CF32F0F4CF33F00A0E3224D4
:1042B000286E000E3320296E140E32242A6E000E52
:1042C00033202B6EB40E2618D8A469EF21F06BEFC3
:1042D00021F086EF21F0000E2D6E000E2C6E7BEF8C
:1042E00021F0150E276EC60EE82EFED7272EFCD71E
:1042F00000D02C4A2D2A2A502C5C2B502D58D8A0A7
:1043000084EF21F086EF21F071EF21F0870E26185F
:10431000D8A48DEF21F08FEF21F0ACEF21F0000E4B
:104320002F6E000E2E6E9FEF21F0150E276EC60E1B
:10433000E82EFED7272EFCD700D02E4A2F2A285051
:104340002E5C29502F58D8A0A8EF21F0AAEF21F019
:1043500095EF21F0C7EF21F0000E316E000E306EA8
:10436000BCEF21F0150E276EC60EE82EFED7272EC5
:10437000FCD700D0304A312A3250305C33503158AB
:10438000D8A0C5EF21F0C7EF21F0B2EF21F022C095
:104390001CF023C01DF024C01EF025C01FF017EC38
:1043A00027F01200000E146E0ABEDBEF21F0D9EFE9
:1043B00021F0EDEF21F00A1E091E081E071E061E41
:1043C000051E041E036C000E04220522062207228D
:1043D000082209220A22010E146E12BEF4EF21F007
:1043E000F2EF21F004EF22F0121E111E101E0F1E1C
:1043F0000E1E0D1E0C1E0B6C000E0C220D220E222A
:104400000F221022112212220B500C100D100E1030
:104410000F10101011101210D8B411EF22F013EF7A
:1044200022F05BEF22F0010E136E21EF22F0D89004
:104430000B360C360D360E360F3610361136123658
:10444000132A12AE26EF22F028EF22F017EF22F007
:104450000B50035C0C5004580D5005580E50065874
:104460000F500758105008581150095812500A5848
:10447000D8A03DEF22F03FEF22F04FEF22F00B509B
:10448000035E0C50045A0D50055A0E50065A0F5038
:10449000075A1050085A1150095A12500A5AD89007
:1044A0001232113210320F320E320D320C320B3208
:1044B000132E28EF22F01450D8B461EF22F063EFEE
:1044C00022F073EF22F00A1E091E081E071E061EA8
:1044D000051E041E036C000E04220522062207227C
:1044E000082209220A2203C003F004C004F005C018
:1044F00005F006C006F007C007F008C008F009C0C4
:1045000009F00AC00AF0120032EC2CF006EC2CF094
:104510004BEC2BF002EC2BF0000E046EC70E036E7A
:104520000EEC2AF021EC2CF0F7EC2BF0D7EC2BF072
:10453000B20E036E010E046EBC0E056E010E066E09
:10454000C2EC24F0000E01018F6F980E0E6E010E6A
:104550000F6E53EC1AF0850E00017A6F010E7B6F1F
:1045600028EC23F07AC08DF17BC08EF1D58E60C12E
:104570005EF161C15FF1D8EF22F0B20E1C6E010E48
:104580001D6EBC0E1E6E010E1F6ECDEC27F0B20E1E
:1045900000017A6F010E7B6FBC0E7C6F010E7D6F88
:1045A0008DC17EF08EC17FF0F3EC25F001018F6F9D
:1045B00001018F51D8B4DFEF22F0E1EF22F0BDEF1F
:1045C00022F0B20E1C6E010E1D6EBC0E1E6E010E90
:1045D0001F6E17EC27F0520E0101846F2B0E836FB4
:1045E000000EE82EFED7832FFCD7842FFAD700F0D9
:1045F000900E0001806F010E816F980E826F010E88
:10460000836F0AEC07F00101626F900E00019B6F4F
:10461000010E9C6F980E9D6F010E9E6F01016251FD
:1046200075EC27F00101626FB20E3C6E010E3D6E1B
:10463000BC0E3E6E010E3F6E6251C6EC14F0000ED1
:104640000101626F000E8F6FB6EF22F024EF00F0D1
:10465000000E0001836F000E826F000E856F000E4A
:10466000846F000E7D6F000E7C6F020E036E020ED3
:10467000B4EC17F0C7EC2BF0290E526E960E516E6B
:104680007F0EE82EFED7512EFCD7522EFAD700F01F
:1046900080EC29F007C080F008C081F0110E526E46
:1046A0003C0E516ECB0EE82EFED7512EFCD7522E6B
:1046B000FAD700F080EC29F007C082F008C083F040
:1046C000110E526E3C0E516ECB0EE82EFED7512EBF
:1046D000FCD7522EFAD700F080EC29F007C084F006
:1046E00008C085F0110E526E3C0E516ECB0EE82EB6
:1046F000FED7512EFCD7522EFAD700F0000182517E
:104700008025516E83518121526E845151268551ED
:10471000522251C003F052C004F0056A066A000E2E
:10472000EFEC1DF003C011F004C012F005C013F04F
:1047300006C014F0000E156E000E166E400E176EB9
:10474000400E186EF9EC12F011C076F012C077F03E
:1047500013C078F014C079F0AEEC2AF076C07EF089
:1047600077C07FF0020E036E020EB4EC17F07EC02D
:104770007AF07FC07BF01200000174357535506E01
:104780005050D8A4C6EF23F0C8EF23F0D2EF23F0A7
:10479000000E726F000E736F000E746F000E756F57
:1047A0003FEF24F072C04BF073C04CF074C04DF07A
:1047B00075C04EF0200EE2EF23F0D8904E324D320D
:1047C0004C324B32E82EDDEF23F04B504F6E748F9E
:1047D000FF0E7217FF0E7317FF0E7417000E75177A
:1047E000960E505E50BEF9EF23F0F7EF23F00FEF77
:1047F00024F05050800A970FD8B001EF24F003EF57
:1048000024F005EF24F0C8EF23F0D890753374330B
:1048100073337233503E05EF24F027EF24F01F0E60
:10482000506415EF24F017EF24F01FEF24F0C8EFC9
:1048300023F0D8907237733774377537500650505D
:10484000D8A425EF24F027EF24F019EF24F04F50DF
:10485000D8B42DEF24F02FEF24F037EF24F0751F9C
:10486000741F731F726D000E73237423752372C03F
:1048700072F073C073F074C074F075C075F01200FC
:10488000000E03140B6E000E04140C6E800E051443
:104890000D6E7F0E06140E6E0B500C100D100E10C8
:1048A000D8A455EF24F057EF24F05FEF24F0000E6A
:1048B000036E000E046E000E056E000E066E000EF6
:1048C00007140B6E000E08140C6E800E09140D6E8A
:1048D0007F0E0A140E6E0B500C100D100E10D8A483
:1048E00074EF24F076EF24F07EEF24F0000E076ED4
:1048F000000E086E000E096E000E0A6E06AE83EF03
:1049000024F085EF24F08EEF24F0036C041ED8B061
:10491000042A051ED8B0052A800E06560AAE93EF6B
:1049200024F095EF24F09EEF24F0076C081ED8B019
:10493000082A091ED8B0092A800E0A56000E031A4A
:10494000000E041A000E051A800E061A000E071A31
:10495000000E081A000E091A800E0A1A0750035C8E
:1049600008500458095005580A500658D8B0BBEFF3
:1049700024F0BDEF24F0C0EF24F0D890C1EF24F074
:10498000D880120003C0D9FF04C0DAFF000EDF6E2A
:1049900020EE01F00350D9260450DA22010EDF6E1A
:1049A00020EE02F00350D9260450DA22A30EDE6E68
:1049B0000F0EDD6E20EE04F00350D9260450DA22EB
:1049C0007D0EDE6E0F0EDD6E20EE06F00350D92652
:1049D0000450DA22040EDF6E20EE07F00350D926D1
:1049E0000450DA22C70EDE6E000EDD6E05C0D9FF60
:1049F00006C0DAFF000EDF6E20EE01F00550D9266A
:104A00000650DA22010EDF6E20EE02F00550D926A4
:104A10000650DA22A00EDE6E0F0EDD6E20EE04F0E0
:104A20000550D9260650DA227F0EDE6E0F0EDD6E9F
:104A300020EE06F00550D9260650DA22060EDF6E6B
:104A400020EE07F00550D9260650DA22C70EDE6E9A
:104A5000000EDD6E120005500610D8B432EF25F0BE
:104A600034EF25F03DEF25F005500610D8A43BEFBC
:104A700025F03DEF25F042EF25F003504AEC2CF0F5
:104A80008FEF25F020EE09F00550D9260650DA22E6
:104A9000DE50DE10D8B44FEF25F051EF25F06CEF6B
:104AA00025F020EE09F00550D9260650DA2210EE46
:104AB00003F00550E1260650E222DE50E65CE650A7
:104AC000800A0B6EDE50800A0B58D8B06AEF25F0D2
:104AD0006CEF25F08FEF25F020EE03F00550D9267E
:104AE0000650DA22DECF07F0DDCF08F005C0D9FF8F
:104AF00006C0DAFFDECF09F0DDCF0AF00750092447
:104B0000D96E08500A20DA6E03C0DFFF20EE03F0F2
:104B10000550D9260650DA22DE2A000EDD221200C8
:104B200001015AA196EF25F098EF25F0A2EF25F0AC
:104B300015C00CF016C00DF013C00EF014C00FF02D
:104B4000CBEC29F018BEA7EF25F0A9EF25F0AFEFC9
:104B500025F017C01CF018C01DF0B3EF25F0000EB3
:104B60001D6E000E1C6E000E1B6E000E1A6EC5EF41
:104B700025F0000E046E200E036E13C005F014C065
:104B800006F02BEC25F01A4A1B2A1C501A5C1B500D
:104B9000800A196E1D50800A1958D8A0D2EF25F04E
:104BA000D4EF25F0B9EF25F001015AB1DAEF25F085
:104BB000DCEF25F0E6EF25F015C00CF016C00DF087
:104BC00013C00EF014C00FF0CBEC29F015C003F0A9
:104BD00016C004F0E7EC2AF01C500324136E1D509D
:104BE0000420146E1200000E0001816F000E806F11
:104BF000000E8A6F000E896F000E886FC7EC2BF0D5
:104C0000090E526E1E0E516EE40EE82EFED7512E86
:104C1000FCD7522EFAD700D080EC29F007C086F0DE
:104C200008C087F030EC29F07EC003F07FC004F0AC
:104C3000056A066A000EEFEC1DF003C02AF004C0FE
:104C40002BF005C02CF006C02DF0660E2E6E660E01
:104C50002F6E860E306E3F0E316E0BEC0FF02AC0B9
:104C600082F02BC083F02CC084F02DC085F082C070
:104C700076F083C077F084C078F085C079F0AEEC30
:104C80002AF076C088F077C089F000018851865DEF
:104C900089518759D8A04FEF26F051EF26F053EFF6
:104CA00026F0010E8A6F8A511200000E0E6E0CBEA5
:104CB0005EEF26F05CEF26F064EF26F00B6C0C1E26
:104CC000D8B00C2A010E0E6E0ABE6BEF26F069EF0B
:104CD00026F071EF26F0096C0A1ED8B00A2A010EE0
:104CE0000E1A000E106E000E0F6E0B500C10D8B482
:104CF0007CEF26F07EEF26F0A6EF26F0010E0D6E7B
:104D000086EF26F0D8900B360C360D2A0CAE8BEFC2
:104D100026F08DEF26F082EF26F0D8900F36103671
:104D20000B50095C0C500A58D8A099EF26F09BEF65
:104D300026F0A0EF26F00B50095E0C500A5A0F80A7
:104D4000D8900C320B320D2E8DEF26F00E50D8B4C9
:104D5000ACEF26F0AEEF26F0B2EF26F00F6C101E8F
:104D6000D8B0102A0FC009F010C00AF0120020EECF
:104D700001F02250D9262350DA22000EDF6E20EEF9
:104D800001F02450D9262550DA22000EDF6EE8EF1C
:104D900026F022C0D9FF23C0DAFF0A0EDF2624C086
:104DA000D9FF25C0DAFF0A0EDF2622C011F023C08A
:104DB00012F04CEC1BF024C011F025C012F04CECAA
:104DC0001BF0D00E266ECA0EE82EFED7262EFCD77C
:104DD00022C0D9FF23C0DAFF320EDF60F2EF26F0E7
:104DE000F4EF26F000EF27F024C0D9FF25C0DAFF4A
:104DF000310EDF64FEEF26F000EF27F0C9EF26F05A
:104E0000290E276E960E266E7F0EE82EFED7262ED2
:104E1000FCD7272EFAD700F022C01CF023C01DF0CB
:104E200024C01EF025C01FF017EC27F0120050EF31
:104E300027F01CC0D9FF1DC0DAFFDF50D8B423EF24
:104E400027F025EF27F02BEF27F01CC0D9FF1DC05E
:104E5000DAFF050EDF5E1EC0D9FF1FC0DAFFDF508C
:104E6000D8B435EF27F037EF27F03DEF27F01EC01D
:104E7000D9FF1FC0DAFF050EDF5E1CC011F01DC098
:104E800012F04CEC1BF01EC011F01FC012F04CECE5
:104E90001BF0D00E206ECA0EE82EFED7202EFCD7B7
:104EA0001CC0D9FF1DC0DAFFDF50D8A45AEF27F08D
:104EB0005CEF27F019EF27F01EC0D9FF1FC0DAFF03
:104EC000DF50D8A466EF27F068EF27F019EF27F03E
:104ED000090E216E1E0E206EE40EE82EFED7202E47
:104EE000FCD7212EFAD700D012000001A36F050EC7
:104EF000576E0F0E566EF10EE82EFED7562EFCD7CB
:104F0000572EFAD700F09BC080F09CC081F09DC066
:104F100082F09EC083F00AEC07F0566E56500001F6
:104F2000A16FA26B050E576E0F0E566EF10EE82E96
:104F3000FED7562EFCD7572EFAD700F09BC080F034
:104F40009CC081F09DC082F09EC083F00AEC07F007
:104F5000566E565000019F6FA06BA351566E576A54
:104F6000A151561807E1A2515718D8A4BAEF27F05B
:104F7000BCEF27F0CBEF27F09F51A11907E1A0511B
:104F8000A219D8A4C6EF27F0C8EF27F0CBEF27F07F
:104F9000A351CCEF27F0000E120020EE01F01C50C0
:104FA000D9261D50DA22010EDF6E20EE01F01E50D0
:104FB000D9261F50DA22010EDF6EFEEF27F01CC04B
:104FC000D9FF1DC0DAFF0A0EDF261EC0D9FF1FC0A1
:104FD000DAFF0A0EDF261CC011F01DC012F04CECE7
:104FE0001BF01EC011F01FC012F04CEC1BF0D00ED5
:104FF000206ECA0EE82EFED7202EFCD71CC0D9FF8B
:105000001DC0DAFF140EDF6008EF28F00AEF28F069
:1050100016EF28F01EC0D9FF1FC0DAFF130EDF64A1
:1050200014EF28F016EF28F0DFEF27F012007B0EC8
:105030000001606F000E616F050E626F0E0E636FF0
:1050400079C0D9FF7AC0DAFFDECF64F0DDCF65F03A
:1050500020EE02F07951D9267A51DA22DECF66F0BD
:10506000DDCF67F020EE04F07951D9267A51DA22AB
:10507000DECF68F0DDCF69F020EE06F07951D92659
:105080007A51DA22DECF6AF0DDCF6BF0DFEC28F068
:105090007B0E046E000E056E1CEC2BF0120054C04B
:1050A00058F055C059F0000E0101556F000E546FB5
:1050B0006DEF28F052C042F053C043F0580E446EDA
:1050C000000E456E56C046F057C047F015EC1DF077
:1050D0004250010154274350552358C0F6FF59C090
:1050E000F7FF0800F5500009D8A479EF28F07BEF0E
:1050F00028F05AEF28F054C152F055C153F0120075
:10510000920EF66E580EF76E000EF86E0900F5CF8F
:10511000C6F10900F5CFC7F1960EF66E580EF76E80
:10512000000EF86E0900F5CFFEF002EE00F03C0E26
:10513000EE6AE806FDE101EE00F0830EEE6AE80695
:10514000FDE10001FD6BFC6BFB6B5B6A5A6A5C90D6
:105150005C92000EF86E0E0EF76E000184EF22F0E6
:1051600008EC29F00EC0D9FF0FC0DAFF07C0DEFF40
:1051700008C0DDFF58EC29F020EE04F00E50D926CF
:105180000F50DA2207C0DEFF08C0DDFF30EC29F047
:1051900020EE02F00E50D9260F50DA2207C0DEFFB3
:1051A00008C0DDFF80EC29F020EE06F00E50D92675
:1051B0000F50DA2207C0DEFF08C0DDFF1200640EC8
:1051C00000016C6F000E6D6F60C06EF061C06FF01B
:1051D000000E726F000E716F000E786F000E776F09
:1051E0006E0E526E000E536E62C054F063C055F0E6
:1051F0006C0E566E000E576E4FEC28F00001715188
:105200006025D96E72516121DA6E000EDF6E1200D8
:1052100042EC2CF0520E2CEC2CF0B60E2CEC2CF0B8
:1052200038EC2CF0530E2CEC2CF0010EEDEC29F0A8
:10523000096E09500C6E0D6A000EEDEC29F0096E36
:1052400009500B6E0A6A0C500A100C6E0D500B10B0
:105250000D6E3DEC2CF00CC007F00DC008F01200F4
:1052600042EC2CF0520E2CEC2CF0B80E2CEC2CF066
:1052700038EC2CF0530E2CEC2CF0010EEDEC29F058
:10528000096E09500C6E0D6A000EEDEC29F0096EE6
:1052900009500B6E0A6A0C500A100C6E0D500B1060
:1052A0000D6E3DEC2CF00CC007F00DC008F01200A4
:1052B00042EC2CF0520E2CEC2CF0BA0E2CEC2CF014
:1052C00038EC2CF0530E2CEC2CF0010EEDEC29F008
:1052D000096E09500C6E0D6A000EEDEC29F0096E96
:1052E00009500B6E0A6A0C500A100C6E0D500B1010
:1052F0000D6E3DEC2CF00CC007F00DC008F0120054
:1053000042EC2CF0520E2CEC2CF0B40E2CEC2CF0C9
:1053100038EC2CF0530E2CEC2CF0010EEDEC29F0B7
:10532000096E09500C6E0D6A000EEDEC29F0096E45
:1053300009500B6E0A6A0C500A100C6E0D500B10BF
:105340000D6E3DEC2CF00CC007F00DC008F0120003
:10535000000E171A000E181A000E191A800E1A1ACB
:1053600013C003F014C004F015C005F016C006F019
:1053700017C007F018C008F019C009F01AC00AF0E9
:10538000ABEC0CF003C013F004C014F005C015F032
:1053900006C016F01200000E126E000E116EDCEF49
:1053A00029F010C003F0046A0EC005F00FC006F02B
:1053B0002BEC25F0114A122A11500C24D96E1250F0
:1053C0000D20DA6EDF50106E1050D8A4EAEF29F0ED
:1053D000ECEF29F0D1EF29F01200056E60EC2BF014
:1053E0000E01DA8760EC2BF0D5CE06F060EC2BF0E6
:1053F0000550D8B4FEEF29F002EF2AF0046A042A1F
:1054000003EF2AF0046A043A04460E01DA51041844
:10541000DF0B0418DA6FDA89065012008594839E38
:10542000879C85987D947B9E7F9C7D98BD508F0B3B
:105430003009BD6EE00EBE16BF50F00B0109BF6E05
:10544000C70EBC6EBD8E0A0E0E01746F0B0E696F17
:10545000000EA36E000EA06EA48EA18E120028C0B6
:1054600022F029C023F02AC024F02BC025F0B7EC8D
:1054700026F0290E2D6E960E2C6E7F0EE82EFED78E
:105480002C2EFCD72D2EFAD700F028C01CF029C0F6
:105490001DF02AC01EF02BC01FF017EC27F01200E1
:1054A00028C022F029C023F02AC024F02BC025F008
:1054B000B7EC26F0520E2D6E2B0E2C6E000EE82E41
:1054C000FED72C2EFCD72D2EFAD700D028C01CF0EA
:1054D00029C01DF02AC01EF02BC01FF017EC27F0CA
:1054E000120016BE7EEF2AF0165006E11504D8B061
:1054F0007CEF2AF07EEF2AF08CEF2AF015C017F02F
:1055000016C018F0171E181E174A182A17C015F0D3
:1055100018C016F090EF2AF015C015F016C016F05E
:105520001200000E516E00017C517A5D7D517B5955
:10553000D8B09DEF2AF09FEF2AF0ACEF2AF07C5113
:105540007E5D7D517F59D8A0A8EF2AF0AAEF2AF0FE
:10555000ACEF2AF0010E516E5150120076C043F0AC
:1055600077C044F078C045F079C046F020EC11F0E7
:1055700043C072F044C073F045C074F046C075F08B
:10558000BCEC23F072C076F073C077F074C078F092
:1055900075C079F012000350041005100610D8B43D
:1055A000D4EF2AF0D6EF2AF0DEEF2AF0000E031A2D
:1055B000000E041A000E051A800E061A03C003F02E
:1055C00004C004F005C005F006C006F0120003C0D8
:1055D00005F004C006F0EFEF2AF0034A042A03C0E6
:1055E000D9FF04C0DAFFDF50D8A4F9EF2AF0FBEFAF
:1055F0002AF0EDEF2AF00550035C036E06500458C4
:10560000046E12004BEC2BF0010E056E000EE7EC61
:105610002BF03F0E076E550EE82EFED7072EFCD757
:1056200000F0030E056E000EE7EC2BF0D50E056EB4
:10563000010EE7EC2BF0120027EF2BF004C0D9FF8E
:1056400005C0DAFFDF5015EC2CF0044A052A04C02F
:10565000D9FF05C0DAFFDF50D8A431EF2BF033EFCC
:105660002BF01EEF2BF012000001DD6F790E000110
:10567000606F000E616F0D0E626F0E0E636FDDC006
:1056800064F0656BDFEC28F0790E046E000E056E99
:105690001CEC2BF012000E01D951F00B0809D96F48
:1056A000D98B9F0ED66F848A848CA79BA79D1D0ED5
:1056B0001D6F1E0E1C6F1C0E6F6F1B0E706F120085
:1056C0000E01D8B566EF2BF068EF2BF060EF2BF0F2
:1056D000DACE03F01F0E0316D8A471EF2BF073EF90
:1056E0002BF060EF2BF0120003500502F3CF07F010
:1056F000F4CF08F003500602F350082604500502C8
:10570000F350082607C003F008C004F012007F829F
:105710007E9E7998110E046E3C0E036ECB0EE82E21
:10572000FED7032EFCD7042EFAD700F012007F928A
:105730007E9E7998110E046E3C0E036ECB0EE82E01
:10574000FED7032EFCD7042EFAD700F012007F926A
:105750007E9E7988110E046E3C0E036ECB0EE82EF1
:10576000FED7032EFCD7042EFAD700F012007F924A
:105770007E8E7998110E046E3C0E036ECB0EE82ED1
:10578000FED7032EFCD7042EFAD700F012007F823A
:105790007E8E7988050E046E0F0E036EF10EE82ED4
:1057A000FED7032EFCD7042EFAD700F01200868411
:1057B0000E01B4958686B4978792869E81987F82E3
:1057C0007E8E7988849E7C9E889680961200066ED6
:1057D00042EC2CF0520E2CEC2CF0065080092CECF4
:1057E0002CF005502CEC2CF03DEC2CF01200120E9D
:1057F0000E01626F110E156FE997E895330EE56F94
:10580000000EE66FE789E88BE78F1200D6501F0B7A
:105810004009D66ED688D650F00B0809D66ED588CA
:105820000B0ED46EDB0ED36E1200036E0E0137A585
:105830001CEF2CF01EEF2CF016EF2CF003C0E4FE52
:1058400012008892849884968690889080927C98A2
:105850007C967E9080901200046E60EC2BF004C069
:10586000D5FE1200F28EF28AF28C0E01298B120004
:1058700060EC2BF00E01DA83120060EC2BF00E01CD
:10588000DA85120060EC2BF00E01DA8112005C92D6
:075890001100140A12000AC6
:020000040020DA
:10000000FF0FFF0FFF0FFF0FFF0FFF0FFF0FFF0F80
:020000040030CA
:0C000000AAFFFFFF9FFFFFFFFFFFFFFFB5
:00000001FF
