:0400000068EF0EF0A7
:100E0000000925640925640925640925640D0A0083
:010E100000E1
:100E12001EC036F01FC037F020C038F021C039F0B4
:100E220022C03AF023C03BF024C03CF025C03DF084
:100E32003DBE1EEF07F021EF07F0010E22EF07F093
:100E4200000E346E356A34503510D8B42BEF07F0EB
:100E52002DEF07F03DEF07F03D1E3C1E3B1E3A1EF4
:100E6200391E381E371E366C000E372238223922C0
:100E72003A223B223C223D220001F8BF43EF07F019
:100E820045EF07F046EF07F0F993F8BF53EF07F08D
:100E9200F85106E1F705D8B051EF07F053EF07F02C
:100EA20059EF07F0000E316E010E306E5DEF07F064
:100EB200F7C030F0F8C031F0F5C032F0F6C033F0D0
:100EC20034503510D8A468EF07F06AEF07F071EFDD
:100ED20007F0F9A56FEF07F071EF07F074EF07F075
:100EE2003206D8A03306000E3F6E1F0E3E6E000E75
:100EF20001015B6FF9EF07F03E06D8A03F063C0EFA
:100F02003E24D96E010E3F20DA6E36C001F037C0A2
:100F120002F038C003F039C004F03AC005F03BC01B
:100F220006F03CC007F03DC008F00A0E096E000E44
:100F32000A6E000E0B6E000E0C6E000E0D6E000E91
:100F42000E6E000E0F6E000E106E19EC0AF001C04C
:100F520026F002C027F003C028F004C029F005C023
:100F62002AF006C02BF007C02CF008C02DF026C0D6
:100F720013F028C014F0D2EC0DF01350300FDF6ED6
:100F82003006D8A031063206D8A0330636C001F0AA
:100F920037C002F038C003F039C004F03AC005F09F
:100FA2003BC006F03CC007F03DC008F00A0E096ED7
:100FB200000E0A6E000E0B6E000E0C6E000E0D6E11
:100FC200000E0E6E000E0F6E000E106E55EC09F044
:100FD20001C036F002C037F003C038F004C039F067
:100FE20005C03AF006C03BF007C03CF008C03DF037
:100FF2003FBE04EF08F03F5008E13E04D8A004EFE2
:1010020008F006EF08F037EF08F0365037103810C6
:1010120039103A103B103C103D10D8A413EF08F0E1
:1010220015EF08F07DEF07F031BE22EF08F03150E6
:1010320006E13004D8B020EF08F022EF08F07DEF8F
:1010420007F033BE2DEF08F0335008E13204D8A088
:101052002DEF08F02FEF08F037EF08F00001F9B399
:1010620035EF08F037EF08F07DEF07F03450351018
:10107200D8A43EEF08F040EF08F048EF08F0000176
:10108200F9A546EF08F048EF08F066EF08F03E06D3
:10109200D8A03F0634503510D8A452EF08F054EFD0
:1010A20008F05AEF08F0000E2F6E2B0E2E6E5EEF38
:1010B20008F0000E2F6E2D0E2E6E3C0E3E24D96EC1
:1010C200010E3F20DA6E2EC0DFFF1CC011F01DC0E2
:1010D20012F03C0E3E24136E010E3F20146E32C0FD
:1010E20015F033C016F030EC0BF011C01CF012C03A
:1010F2001DF0120042C0D9FF43C0DAFFDECFF6FF77
:10110200DDCFF7FF0800F550250AD8A48BEF08F0D1
:101112008DEF08F039EF09F042C0D9FF43C0DAFF82
:10112200DE2A000EDD22000E0001F66F000EF56FC2
:10113200F5C0F9F0F6C0FAF0F769F86942C0D9FFD4
:1011420043C0DAFFDECFF6FFDDCFF7FF0800F55030
:10115200640AD8B4AFEF08F0B1EF08F0C3EF08F0BB
:1011620042C0D9FF43C0DAFFDECFF6FFDDCFF7FF83
:101172000800F550690AD8A4C1EF08F0C3EF08F0DF
:1011820003EF09F042C0D9FF43C0DAFFDE2A000EA6
:10119200DD2244C0D9FF45C0DAFFDFCF46F0020EA0
:1011A200DE26DFCF47F0000EDD2246C0D9FF47C062
:1011B200DAFFDECF48F0DDCF49F0000E49BEFF0E68
:1011C2004A6E4B6E4C6E4D6E4E6E4F6E40C01CF0B2
:1011D20041C01DF048C01EF049C01FF04AC020F0B7
:1011E2004BC021F04CC022F04DC023F04EC024F081
:1011F2004FC025F009EC07F01CC040F01DC041F0C3
:1012020054EF09F042C0D9FF43C0DAFFDECFF6FF48
:10121200DDCFF7FF0800F550250AD8A413EF09F037
:1012220015EF09F02CEF09F042C0D9FF43C0DAFFF5
:10123200DE2A000EDD22000E026E250E016E40C077
:1012420003F041C004F0CBEC0AF0000E416E010E37
:10125200406E54EF09F042C0D9FF43C0DAFFDE2AE4
:10126200000EDD22000E416E000E406E54EF09F0BA
:1012720042C0D9FF43C0DAFFDECFF6FFDDCFF7FF72
:101282000800F550016E026A40C003F041C004F04C
:10129200CBEC0AF042C0D9FF43C0DAFFDE2A000ECF
:1012A200DD2226EF09F01200000E126E10BE5EEF74
:1012B20009F05CEF09F070EF09F0101E0F1E0E1E10
:1012C2000D1E0C1E0B1E0A1E096C000E0A220B229A
:1012D2000C220D220E220F221022010E126E08BEC7
:1012E20077EF09F075EF09F089EF09F0081E071E84
:1012F200061E051E041E031E021E016C000E0222A3
:10130200032204220522062207220822010E121AB3
:1013120020EE13F0070EDE6AE806FDE209500A101D
:101322000B100C100D100E100F101010D8B49CEFF3
:1013320009F09EEF09F0F0EF09F0010E116EACEF2B
:1013420009F0D89009360A360B360C360D360E36B1
:101352000F361036112A10AEB1EF09F0B3EF09F0D3
:10136200A2EF09F0D8901336143615361636173612
:10137200183619361A360950015C0A5002580B50B9
:1013820003580C5004580D5005580E5006580F5073
:10139200075810500858D8A0D1EF09F0D3EF09F040
:1013A200E4EF09F00950015E0A50025A0B50035A49
:1013B2000C50045A0D50055A0E50065A0F50075A37
:1013C2001050085A1380D89010320F320E320D325C
:1013D2000C320B320A320932112EB3EF09F01250DD
:1013E200D8B4F6EF09F0F8EF09F008EF0AF01A1E88
:1013F200191E181E171E161E151E141E136C000E23
:101402001422152216221722182219221A2213C078
:1014120001F014C002F015C003F016C004F017C0AA
:1014220005F018C006F019C007F01AC008F0120043
:10143200000E126E08BE22EF0AF020EF0AF034EF1F
:101442000AF0081E071E061E051E041E031E021EAB
:10145200016C000E02220322042205220622072228
:101462000822010E126E10BE3BEF0AF039EF0AF0AD
:101472004BEF0AF0101E0F1E0E1E0D1E0C1E0B1E31
:101482000A1E096C000E0A220B220C220D220E22C9
:101492000F22102209500A100B100C100D100E1002
:1014A2000F101010D8B458EF0AF05AEF0AF0A2EF5A
:1014B2000AF0010E116E68EF0AF0D89009360A366A
:1014C2000B360C360D360E360F361036112A10AE8C
:1014D2006DEF0AF06FEF0AF05EEF0AF00950015C5F
:1014E2000A5002580B5003580C5004580D5005581E
:1014F2000E5006580F50075810500858D8A084EFC5
:101502000AF086EF0AF096EF0AF00950015E0A50DF
:10151200025A0B50035A0C50045A0D50055A0E50E1
:10152200065A0F50075A1050085AD89010320F32EC
:101532000E320D320C320B320A320932112E6FEF9B
:101542000AF01250D8B4A8EF0AF0AAEF0AF0BAEFE4
:101552000AF0081E071E061E051E041E031E021E9A
:10156200016C000E02220322042205220622072217
:10157200082201C001F002C002F003C003F004C05F
:1015820004F005C005F006C006F007C007F008C069
:1015920008F0120003500410D8B4D2EF0AF0D4EFCE
:1015A2000AF0DDEF0AF003500410D8A4DBEF0AF0D2
:1015B200DDEF0AF0E2EF0AF00150BBEC0EF02FEF84
:1015C2000BF020EE09F00350D9260450DA22DE5047
:1015D200DE10D8B4EFEF0AF0F1EF0AF00CEF0BF0E7
:1015E20020EE09F00350D9260450DA2210EE03F05F
:1015F2000350E1260450E222DE50E65CE650800A07
:10160200096EDE50800A0958D8B00AEF0BF00CEFD1
:101612000BF02FEF0BF020EE03F00350D92604500D
:10162200DA22DECF05F0DDCF06F003C0D9FF04C019
:10163200DAFFDECF07F0DDCF08F005500724D96EC0
:1016420006500820DA6E01C0DFFF20EE03F00350DF
:10165200D9260450DA22DE2A000EDD221200000111
:10166200F9A136EF0BF038EF0BF042EF0BF013C09D
:101672000AF014C00BF011C00CF012C00DF06EECA9
:101682000DF016BE47EF0BF049EF0BF04FEF0BF0EA
:1016920015C01AF016C01BF053EF0BF0000E1B6EB4
:1016A200000E1A6E000E196E000E186E65EF0BF02A
:1016B200000E026E200E016E11C003F012C004F083
:1016C200CBEC0AF0184A192A1A50185C1950800AF1
:1016D200176E1B50800A1758D8A072EF0BF074EFE8
:1016E2000BF059EF0BF00001F9B17AEF0BF07CEF40
:1016F2000BF086EF0BF013C00AF014C00BF011C010
:101702000CF012C00DF06EEC0DF013C001F014C01D
:1017120002F0F2EC0DF01A500124116E1B5002205F
:10172200126E12003FEC0EF00DEC0EF0000E026E87
:10173200C70E016E90EC0DF08BEC0EF0000E000166
:10174200CD6F010ECE6FA30ECF6F0F0ED06F7D0E39
:10175200D16F0F0ED26F040ED36F000ED56FC70E6E
:10176200D46F000ED66F010ED76FA00ED86F0F0E7A
:10177200D96F7F0EDA6F0F0EDB6F060EDC6F000E75
:10178200DE6FC70EDD6F8792869E81987F827E8E86
:101792007988C90E0E6E000E0F6E53EC0CF0C90E56
:1017A200586E000E596EE6EC0BF0520E5F6E2B0E69
:1017B2005E6E000EE82EFED75E2EFCD75F2EFAD7A5
:1017C20000D0CAEF0BF000EF00F0790E0001606F5D
:1017D200000E616F010E626F0E0E636F58C0D9FF6B
:1017E20059C0DAFFDF505A6E5A50646F656B20EEB3
:1017F20001F05850D9265950DA22DF505B6E5B5007
:10180200666F676B20EE02F05850D9265950DA22E3
:10181200DF505C6E5C50686F696B20EE03F05850CD
:10182200D9265950DA22DF505D6E5D506A6F6B6BBC
:101832007EEC0CF0790E026E000E036E27EC0EF0B9
:10184200120052C056F053C057F0000E0001F46F60
:10185200000EF36F40EF0CF050C040F051C041F069
:10186200560E426E000E436E54C044F055C045F011
:101872007BEC08F040500001F3274150F42356C09E
:10188200F6FF57C0F7FF0800F5500009D8A44CEF47
:101892000CF04EEF0CF02DEF0CF0F3C050F0F4C052
:1018A20051F012007F827E8E7988110E116E3C0EED
:1018B200106ECB0EE82EFED7102EFCD7112EFAD7C3
:1018C20000F00EC00CF00FC00DF047EC0DF07F825F
:1018D2007E9E7998110E116E3C0E106ECB0EE82E84
:1018E200FED7102EFCD7112EFAD700F00EC00CF046
:1018F2000FC00DF047EC0DF01200640E00016C6F8A
:10190200000E6D6F60C06EF061C06FF0000E726FFE
:10191200000E716F000E786F000E776F6E0E506EB4
:10192200000E516E62C052F063C053F06C0E546EE2
:10193200000E556E22EC0CF0000171516025D96E3B
:1019420072516121DA6E000EDF6E1200B6EC0EF0FB
:10195200520EA6EC0EF0B60EA6EC0EF0ACEC0EF0AB
:10196200530EA6EC0EF0010EB1EC0DF0076E07500F
:101972000A6E0B6A000EB1EC0DF0076E0750096E8D
:10198200086A0A5008100A6E0B5009100B6EB1EC6F
:101992000EF00AC005F00BC006F01200B6EC0EF015
:1019A200520EA6EC0EF0B80EA6EC0EF0ACEC0EF059
:1019B200530EA6EC0EF0010EB1EC0DF0076E0750BF
:1019C2000A6E0B6A000EB1EC0DF0076E0750096E3D
:1019D200086A0A5008100A6E0B5009100B6EB1EC1F
:1019E2000EF00AC005F00BC006F01200B6EC0EF0C5
:1019F200520EA6EC0EF0B40EA6EC0EF0ACEC0EF00D
:101A0200530EA6EC0EF0010EB1EC0DF0076E07506E
:101A12000A6E0B6A000EB1EC0DF0076E0750096EEC
:101A2200086A0A5008100A6E0B5009100B6EB1ECCE
:101A32000EF00AC005F00BC006F01200B6EC0EF074
:101A4200520EA6EC0EF0BA0EA6EC0EF0ACEC0EF0B6
:101A5200530EA6EC0EF0010EB1EC0DF0076E07501E
:101A62000A6E0B6A000EB1EC0DF0076E0750096E9C
:101A7200086A0A5008100A6E0B5009100B6EB1EC7E
:101A82000EF00AC005F00BC006F01200A7EC0CF035
:101A920005500CC0D9FF0DC0DAFFDF6E20EE02F058
:101AA2000C50D9260D50DA221FEC0DF00550DF6ED6
:101AB20020EE01F00C50D9260D50DA22CFEC0CF0BA
:101AC2000550DF6E20EE03F00C50D9260D50DA22BD
:101AD200F7EC0CF00550DF6E1200000E106E000ED7
:101AE2000F6E7FEF0DF00EC001F0026A0CC003F022
:101AF2000DC004F0CBEC0AF00F4A102A0F500A2452
:101B0200D96E10500B20DA6EDF500E6E0E50D8A434
:101B12008DEF0DF08FEF0DF074EF0DF01200859444
:101B2200839E879C85987D947B9E7F9C7D98BD50EB
:101B32008F0B3009BD6EE00EBE16BF50F00B0109CF
:101B4200BF6EC70EBC6EBD8E0A0E0E01746F0B0EF9
:101B5200696F000EA36E000EA06EA48EA18E1200FD
:101B6200036E54EC0EF00E01DA8754EC0EF0D5CE73
:101B720004F054EC0EF00350D8B4C2EF0DF0C6EFEF
:101B82000DF0026A022AC7EF0DF0026A023A02461B
:101B92000E01DA510218DF0B0218DA6FDA890450EB
:101BA200120014BEDFEF0DF0145006E11304D8B09A
:101BB200DDEF0DF0DFEF0DF0EDEF0DF013C015F0DE
:101BC20014C016F0151E161E154A162A15C013F05B
:101BD20016C014F0F1EF0DF013C013F014C014F09E
:101BE200120001C003F002C004F0FAEF0DF0014A46
:101BF200022A01C0D9FF02C0DAFFDF50D8A404EFE5
:101C02000EF006EF0EF0F8EF0DF00350015C016EDE
:101C120004500258026E12003FEC0EF0010E036EE9
:101C2200000E7BEC0EF03F0E056E550EE82EFED731
:101C3200052EFCD700F0030E036E000E7BEC0EF0B7
:101C4200D50E036E010E7BEC0EF0120032EF0EF099
:101C520002C0D9FF03C0DAFFDF509AEC0EF0024A4D
:101C6200032A02C0D9FF03C0DAFFDF50D8A43CEF39
:101C72000EF03EEF0EF029EF0EF012000E01D951D8
:101C8200F00B0809D96FD98B9F0ED66F848A848C8A
:101C9200A79BA79D1D0E1D6F1E0E1C6F1C0E6F6F46
:101CA2001B0E706F12000E01D8B55AEF0EF05CEFEA
:101CB2000EF054EF0EF0DACE01F01F0E0116D8A48A
:101CC20065EF0EF067EF0EF054EF0EF0120001EE2A
:101CD20000F05C0EEE6AE806FDE100EEDFF0200E99
:101CE200EE6AE806FDE1000EF86E0E0EF76E0001D8
:101CF20093EF0BF0046EB6EC0EF0520EA6EC0EF063
:101D020004508009A6EC0EF00350A6EC0EF0B1ECE4
:101D12000EF01200120E0E01626F110E156FE9978E
:101D2200E895330EE56F000EE66FE789E88BE78FE3
:101D32001200016E0E0137A5A1EF0EF0A3EF0EF017
:101D42009BEF0EF001C0E4FE1200026E54EC0EF0A6
:101D520002C0D5FE120054EC0EF00E01DA8312001E
:101D620054EC0EF00E01DA85120054EC0EF00E0166
:061D7200DA8112001200EC
:020000040020DA
:10000000FF0FFF0FFF0FFF0FFF0FFF0FFF0FFF0F80
:020000040030CA
:0C000000AAFFFFFF9FFFFFFFFFFFFFFFB5
:00000001FF
