:040000005EEF20F09F
:100E0000000000004B256409256409256409256458
:100E10000D0A004C6967687420626C7565004F723A
:100E2000616E67650059656C6C6F7700576869740F
:100E30006500426C61636B00477265656E004572C8
:100E4000726F7200426C75650050696E6B0052657E
:030E50006400003B
:100E5400000E00017B6F000E7A6F000E7D6F000E96
:100E64007C6F000E816F000E806F000E836F000E8A
:100E7400826F000E7F6F000E7E6F000E8D6F000E6E
:100E84008C6F000E8F6F000E8E6F000E876F000E3A
:100E9400866F000E896F000E886F000E8B6F000E38
:100EA4008A6F000E796F000E786F000E906F69ECF8
:100EB40021F070C00CF071C00DF0BFEC1EF072C0D8
:100EC400D9FF73C0DAFFDECF74F0DDCF75F074C0E4
:100ED40001F075C002F0036A046A000ED0EC16F04B
:100EE40001C013F002C014F003C015F004C016F0E2
:100EF40070C0D9FF71C0DAFFDECF76F0DDCF77F0B6
:100F040076C001F077C002F0036A046A000ED0ECE8
:100F140016F001C00FF002C010F003C011F004C0BD
:100F240012F091EC13F00FC028F010C029F011C09A
:100F34002AF012C02BF0000E2C6E000E2D6EC80E7F
:100F44002E6E420E2F6EA5EC0FF028C091F029C032
:100F540092F02AC093F02BC094F091C066F092C036
:100F640067F093C068F094C069F07DEC20F066C02F
:100F740084F067C085F0000120EE02F07251D9269A
:100F84007351DA22DECF74F0DDCF75F074C001F056
:100F940075C002F0036A046A000ED0EC16F001C0BA
:100FA40013F002C014F003C015F004C016F00001E1
:100FB40020EE02F07051D9267151DA22DECF76F09C
:100FC400DDCF77F076C001F077C002F0036A046ADF
:100FD400000ED0EC16F001C00FF002C010F003C0F8
:100FE40011F004C012F091EC13F00FC028F010C0FF
:100FF40029F011C02AF012C02BF0000E2C6E000E46
:101004002D6EC80E2E6E420E2F6EA5EC0FF028C06A
:1010140091F029C092F02AC093F02BC094F091C0B3
:1010240066F092C067F093C068F094C069F07DECFC
:1010340020F0000120EE04F07251D9267351DA2217
:10104400DECF74F0DDCF75F074C001F075C002F02E
:10105400036A046A000ED0EC16F001C013F002C05B
:1010640014F003C015F004C016F0000120EE04F0E3
:101074007051D9267151DA22DECF76F0DDCF77F0C8
:1010840076C001F077C002F0036A046A000ED0EC67
:1010940016F001C00FF002C010F003C011F004C03C
:1010A40012F091EC13F00FC028F010C029F011C019
:1010B4002AF012C02BF0000E2C6E000E2D6EC80EFE
:1010C4002E6E420E2F6EA5EC0FF028C091F029C0B1
:1010D40092F02AC093F02BC094F091C066F092C0B5
:1010E40067F093C068F094C069F07DEC20F0050EC1
:1010F4000001756F0F0E746FF10EE82EFED7742F7A
:10110400FCD7752FFAD779EC21F070C00CF071C0C0
:101114000DF0BFEC1EF070C0D9FF71C0DAFFDECF56
:1011240088F0DDCF89F0000120EE06F07051D92659
:101134007151DA22DECF8AF0DDCF8BF020EE06F09B
:101144007251D9267351DA22DECF74F0DDCF75F0F7
:1011540074C001F075C002F0036A046A000ED0EC9A
:1011640016F001C013F002C014F003C015F004C05F
:1011740016F070C0D9FF71C0DAFFDECF76F0DDCF94
:1011840077F076C001F077C002F0036A046A000EBB
:10119400D0EC16F001C00FF002C010F003C011F043
:1011A40004C012F091EC13F00FC028F010C029F025
:1011B40011C02AF012C02BF0000E2C6E000E2D6E02
:1011C400C80E2E6E420E2F6EA5EC0FF028C091F0C3
:1011D40029C092F02AC093F02BC094F091C066F01D
:1011E40092C067F093C068F094C069F07DEC20F081
:1011F40066C080F067C081F0000120EE08F07251F3
:10120400D9267351DA22DECF74F0DDCF75F074C0C5
:1012140001F075C002F0036A046A000ED0EC16F007
:1012240001C013F002C014F003C015F004C016F09E
:10123400000120EE02F07051D9267151DA22DECF7E
:1012440076F0DDCF77F076C001F077C002F0036A64
:10125400046A000ED0EC16F001C00FF002C010F0CA
:1012640003C011F004C012F091EC13F00FC028F089
:1012740010C029F011C02AF012C02BF0000E2C6E01
:10128400000E2D6EC80E2E6E420E2F6EA5EC0FF0C2
:1012940028C091F029C092F02AC093F02BC094F09A
:1012A40091C066F092C067F093C068F094C069F092
:1012B4007DEC20F066C082F067C083F0000120EE70
:1012C4000AF07251D9267351DA22DECF74F0DDCFE1
:1012D40075F074C001F075C002F0036A046A000E70
:1012E400D0EC16F001C013F002C014F003C015F0E6
:1012F40004C016F0000120EE04F07051D92671519B
:10130400DA22DECF76F0DDCF77F076C001F077C059
:1013140002F0036A046A000ED0EC16F001C00FF06C
:1013240002C010F003C011F004C012F091EC13F0ED
:101334000FC028F010C029F011C02AF012C02BF001
:10134400000E2C6E000E2D6EC80E2E6E420E2F6EE9
:10135400A5EC0FF028C091F029C092F02AC093F0B8
:101364002BC094F091C066F092C067F093C068F00F
:1013740094C069F07DEC20F0050E0001756F0F0E2E
:10138400746FF10EE82EFED7742FFCD7752FFAD7A1
:1013940089EC21F070C00CF071C00DF0BFEC1EF0B0
:1013A400000120EE0CF07251D9267351DA22DECFFF
:1013B40074F0DDCF75F074C001F075C002F0036AFB
:1013C400046A000ED0EC16F001C013F002C014F051
:1013D40003C015F004C016F070C0D9FF71C0DAFF65
:1013E400DECF76F0DDCF77F076C001F077C002F083
:1013F400036A046A000ED0EC16F001C00FF002C0BC
:1014040010F003C011F004C012F091EC13F00FC0FF
:1014140028F010C029F011C02AF012C02BF0000EE1
:101424002C6E000E2D6EC80E2E6E420E2F6EA5EC85
:101434000FF028C091F029C092F02AC093F02BC07D
:1014440094F091C066F092C067F093C068F094C0C5
:1014540069F07DEC20F066C08CF067C08DF000016F
:1014640020EE0EF07251D9267351DA22DECF74F0D9
:10147400DDCF75F074C001F075C002F0036A046A30
:10148400000ED0EC16F001C013F002C014F003C03B
:1014940015F004C016F0000120EE02F07051D926B8
:1014A4007151DA22DECF76F0DDCF77F076C001F02D
:1014B40077C002F0036A046A000ED0EC16F001C093
:1014C4000FF002C010F003C011F004C012F091EC50
:1014D40013F00FC028F010C029F011C02AF012C078
:1014E4002BF0000E2C6E000E2D6EC80E2E6E420ECA
:1014F4002F6EA5EC0FF028C091F029C092F02AC0FD
:1015040093F02BC094F091C066F092C067F093C042
:1015140068F094C069F07DEC20F066C08EF067C07E
:101524008FF0000120EE10F07251D9267351DA22A7
:10153400DECF74F0DDCF75F074C001F075C002F039
:10154400036A046A000ED0EC16F001C013F002C066
:1015540014F003C015F004C016F0000120EE04F0EE
:101564007051D9267151DA22DECF76F0DDCF77F0D3
:1015740076C001F077C002F0036A046A000ED0EC72
:1015840016F001C00FF002C010F003C011F004C047
:1015940012F091EC13F00FC028F010C029F011C024
:1015A4002AF012C02BF0000E2C6E000E2D6EC80E09
:1015B4002E6E420E2F6EA5EC0FF028C091F029C0BC
:1015C40092F02AC093F02BC094F091C066F092C0C0
:1015D40067F093C068F094C069F07DEC20F066C0B9
:1015E40086F067C087F0050E0001756F0F0E746FEB
:1015F400F10EE82EFED7742FFCD7752FFAD7000E04
:1016040000016B6F000E6A6F8CC06CF08DC06DF0C2
:10161400000E6F6F370E6E6F9AEC20F00009D8B48D
:1016240016EF0BF018EF0BF089EF0BF086C001F00A
:1016340087C002F0036A046A000ED0EC16F001C001
:1016440013F002C014F003C015F004C016F000013A
:101654008E518225746F8F518321756F74C001F090
:1016640075C002F0036A046A000ED0EC16F001C0E3
:101674000FF002C010F003C011F004C012F091EC9E
:1016840013F00FC028F010C029F011C02AF012C0C6
:101694002BF0000E2C6E000E2D6E480E2E6E430E97
:1016A4002F6EA5EC0FF028C091F029C092F02AC04B
:1016B40093F02BC094F0000E00016B6F000E6A6F64
:1016C40091C066F092C067F093C068F094C069F06E
:1016D4007DEC20F066C06CF067C06DF0010E000177
:1016E4006F6F870E6E6F9AEC20F00009D8B47DEF0F
:1016F4000BF07FEF0BF084EF0BF0030E0001906F03
:1017040052EF0CF0020E0001906F52EF0CF0000E3D
:1017140000016B6F000E6A6F8EC06CF08FC06DF0AD
:10172400000E6F6F4B0E6E6F9AEC20F00009D8B468
:101734009EEF0BF0A0EF0BF019EF0CF08EC001F050
:101744008FC002F0036A046A000ED0EC16F001C0E8
:1017540013F002C014F003C015F004C016F084C0E6
:1017640001F085C002F0036A046A000ED0EC16F0A2
:1017740001C00FF002C010F003C011F004C012F059
:1017840091EC13F00FC028F010C029F011C02AF01A
:1017940012C02BF0000E2C6E000E2D6E480E2E6E15
:1017A400430E2F6EA5EC0FF028C091F029C092F0E3
:1017B4002AC093F02BC094F0000E00016B6F000E52
:1017C4006A6F91C066F092C067F093C068F094C0ED
:1017D40069F07DEC20F066C06CF067C06DF0010E1E
:1017E40000016F6F1D0E6E6F9AEC20F00009D8B4E3
:1017F400FEEF0BF000EF0CF014EF0CF00001815140
:1018040009E15B0E805DD8A00AEF0CF00CEF0CF040
:1018140010EF0CF0060E906F52EF0CF0000E906F6C
:1018240052EF0CF0010E0001906F52EF0CF0000E1D
:1018340000016B6F000E6A6F8CC06CF08DC06DF090
:10184400000E6F6F5A0E6E6F9AEC20F00009D8B438
:101854002EEF0CF030EF0CF040EF0CF000018F5144
:1018640009E15B0E8E5DD8A03AEF0CF03CEF0CF072
:1018740010EF0CF0070E906F52EF0CF00001865140
:101884008E5D87518F59D8B04AEF0CF04CEF0CF0B5
:1018940050EF0CF0050E906F52EF0CF0040E906FA9
:1018A400000E6B6F5F0E6A6F8CC06CF08DC06DF0B4
:1018B400000E6F6F690E6E6F9AEC20F00009D8B4B9
:1018C40066EF0CF068EF0CF082EF0CF0000E0001F4
:1018D4006B6F5F0E6A6F8EC06CF08FC06DF0000E80
:1018E4006F6F690E6E6F9AEC20F00009D8B47DEF2B
:1018F4000CF07FEF0CF082EF0CF0080E0001906FFB
:10190400000E00016B6F000E6A6F8CC06CF08DC00E
:101914006DF0000E6F6F190E6E6F9AEC20F00009D7
:10192400D8B497EF0CF099EF0CF0B3EF0CF0000E75
:1019340000016B6F000E6A6F84C06CF085C06DF09F
:10194400000E6F6F5A0E6E6F9AEC20F00009D8B437
:10195400AEEF0CF0B0EF0CF0B3EF0CF0000E0001A2
:10196400906F020E00019019D8B4BBEF0CF0BDEFDC
:101974000CF0C6EF0CF0030E9019D8A4C4EF0CF0D1
:10198400C6EF0CF0DEEF0CF0895109E1320E885DF0
:10199400D8A0CFEF0CF0D1EF0CF0DCEF0CF0080E78
:1019A4008A5D020E8B59D8B0DAEF0CF0DCEF0CF044
:1019B400DEEF0CF0000E906F9005D8B4E4EF0CF05D
:1019C400E6EF0CF0EFEF0CF0060E9019D8A4EDEF53
:1019D4000CF0EFEF0CF007EF0DF0895109E13C0E2C
:1019E400885DD8A0F8EF0CF0FAEF0CF005EF0DF0DD
:1019F400F40E8A5D010E8B59D8B003EF0DF005EF9C
:101A04000DF007EF0DF0000E906F070E9019D8B48B
:101A14000EEF0DF010EF0DF02BEF0DF0040E9019FA
:101A2400D8B417EF0DF019EF0DF02BEF0DF0050EF4
:101A34009019D8B420EF0DF022EF0DF02BEF0DF03C
:101A4400080E9019D8A429EF0DF02BEF0DF043EFF9
:101A54000DF0895109E1460E885DD8A034EF0DF0F0
:101A640036EF0DF041EF0DF0300E8A5D020E8B590A
:101A7400D8B03FEF0DF041EF0DF043EF0DF0000E45
:101A8400906F905112000450800B0D6E045004248A
:101A94000F6E03AE50EF0DF052EF0DF053EF0DF05B
:101AA4000F800F50D8B459EF0DF05BEF0DF070EFCD
:101AB4000DF00F28D8A461EF0DF063EF0DF06BEF7C
:101AC4000DF0000E016E000E026E000E036E000E8D
:101AD400046E038E000E046E78EF0DF0000E016E9E
:101AE400000E026E000E036E000E046E0850800B92
:101AF4000E6E0D500E18D8B482EF0DF084EF0DF079
:101B040085EF0DF00D8C085008240E6E07AE8DEF96
:101B14000DF08FEF0DF090EF0DF00E800E50D8B455
:101B240096EF0DF098EF0DF0ADEF0DF00E28D8A460
:101B34009EEF0DF0A0EF0DF0A8EF0DF0000E056E76
:101B4400000E066E000E076E000E086E078E000E65
:101B5400086EB5EF0DF0000E056E000E066E000E59
:101B6400076E000E086E0F500E5CD8B0BCEF0DF07F
:101B7400BEEF0DF0E5EF0DF00DACC3EF0DF0C5EFCA
:101B84000DF0C7EF0DF0800E0D1A0FC010F00EC04F
:101B94000FF010C00EF001C010F005C001F010C02D
:101BA40005F002C010F006C002F010C006F003C039
:101BB40010F007C003F010C007F004C010F008C014
:101BC40004F010C008F0000E106E0F500EC009F0A3
:101BD4000A6A095E000E0A5A0ABEFAEF0DF00A50AC
:101BE40009E11A0E095CD8A0FAEF0DF0FCEF0DF034
:101BF40033EF0EF00150021003100410D8A405EFC7
:101C04000EF008EF0EF0010E09EF0EF0000E106E4C
:101C1400000E016E000E026E000E036E000E046EC6
:101C24000EC00FF03CEF0EF010A01BEF0EF01DEFF6
:101C34000EF023EF0EF0D89010300109106E25EF4E
:101C44000EF0D890103201A02AEF0EF02CEF0EF017
:101C54002DEF0EF0108E04340432033202320132BE
:101C64000F2A0E500F5CD8A03AEF0EF03CEF0EF0A6
:101C740016EF0EF00DBC41EF0EF043EF0EF083EFC4
:101C84000EF00F50D8A449EF0EF04BEF0EF055EFC5
:101C94000EF0000E016E000E026E000E036E000EBA
:101CA400046EA4EF0FF005500126065002220750DF
:101CB40003220850042204A062EF0EF064EF0EF039
:101CC40010EF0FF010A069EF0EF06BEF0EF071EF54
:101CD4000EF0D89010300109106E73EF0EF0D8900A
:101CE400103201A078EF0EF07AEF0EF07BEF0EF0D9
:101CF400108E043404320332023201320F2A10EF00
:101D04000FF00550015C0650025807500358045068
:101D1400800A096E0850800A0958D8B094EF0EF072
:101D240096EF0EF0C1EF0EF00150055C096E025003
:101D340006580A6E035007580B6E045008580C6E70
:101D4400FF0E0924016EFF0E0A20026EFF0E0B2007
:101D5400036EFF0E0C20046E800E0D1A106C1050D2
:101D6400D8A4B7EF0EF0B9EF0EF0C9EF0EF0010EE4
:101D74000126000E022203220422C9EF0EF00550B0
:101D8400015E0650025A0750035A0850045A015083
:101D9400021003100410D8A4D2EF0EF0D4EF0EF00A
:101DA40009EF0FF01050D8A4DAEF0EF0DCEF0EF0CC
:101DB40009EF0FF0000E016E000E026E000E036EAE
:101DC400000E046EA4EF0FF0D890013602360336ED
:101DD400043610AEF0EF0EF0F2EF0EF0F3EF0EF06B
:101DE400018010A0F8EF0EF0FAEF0EF0FEEF0EF007
:101DF400D880103600EF0FF0D89010360F50D8B4BA
:101E040006EF0FF008EF0FF009EF0FF00F0603AE27
:101E14000EEF0FF010EF0FF0E6EF0EF0000E0E6E67
:101E240010AE17EF0FF019EF0FF031EF0FF010C0F5
:101E340009F07F0E0916D8B422EF0FF024EF0FF04B
:101E440028EF0FF0010E0E6E31EF0FF001A02DEF11
:101E54000FF02FEF0FF031EF0FF024EF0FF00E50D3
:101E6400D8B437EF0FF039EF0FF064EF0FF0010E35
:101E74000126000E02220322042204A044EF0FF0E4
:101E840046EF0FF064EF0FF001C009F002C00AF052
:101E940003C00BF004C00CF00C340C320B320A32C9
:101EA400093209C001F00AC002F00BC003F00CC0F3
:101EB40004F00F28D8B461EF0FF063EF0FF064EF74
:101EC4000FF00F2A0F28D8B46AEF0FF06CEF0FF061
:101ED40074EF0FF00F50D8A472EF0FF074EF0FF0FF
:101EE40086EF0FF0000E016E000E026E000E036E00
:101EF400000E046E0F50D8A482EF0FF084EF0FF0A1
:101F040086EF0FF0000E0D6E0FA08BEF0FF08DEF2C
:101F14000FF090EF0FF0038E91EF0FF0039ED89027
:101F24000F30046E0DAE99EF0FF09BEF0FF09CEFA6
:101F34000FF0048E01C001F002C002F003C003F0F0
:101F440004C004F012002B50800B346E2B502B2451
:101F54003A6E2AAEB0EF0FF0B2EF0FF0B3EF0FF01E
:101F64003A803A50D8B4B9EF0FF0BBEF0FF0CEEF90
:101F74000FF03A28D8A4C1EF0FF0C3EF0FF0CBEF66
:101F84000FF0000E286E000E296E000E2A6E000E51
:101F94002B6E2A8ED6EF0FF0000E286E000E296EDF
:101FA400000E2A6E000E2B6E2F50800B341A2F5009
:101FB4002F24396E2EAEE1EF0FF0E3EF0FF0E4EFD4
:101FC4000FF039803950D8B4EAEF0FF0ECEF0FF08E
:101FD400FFEF0FF03928D8A4F2EF0FF0F4EF0FF071
:101FE400FCEF0FF0000E2C6E000E2D6E000E2E6E08
:101FF400000E2F6E2E8E07EF10F0000E2C6E000ECA
:102004002D6E000E2E6E000E2F6E3950D8B40DEFCB
:1020140010F00FEF10F017EF10F03A50D8A415EFAE
:1020240010F017EF10F021EF10F0000E286E000EE4
:10203400296E000E2A6E000E2B6EB9EF11F02E5091
:102044002802F3CF3FF0F4CF40F03F50356E366AAC
:10205400376A386A40503B6E3C6A3D6A3E6A2D508E
:102064002902F3CF3FF0F4CF40F03F503526000E65
:1020740036223722382240503B26000E3C223D2295
:102084003E222C502A02F3CF3FF0F4CF40F03F50D1
:102094003526000E36223722382240503B26000EC9
:1020A4003C223D223E2237C038F036C037F035C0DE
:1020B40036F0356A2C502902F3CF3FF0F4CF40F0CC
:1020C4003F50352640503622000E3722000E38226B
:1020D4002D502802F3CF3FF0F4CF40F03F50352687
:1020E40040503622000E3722000E382237C038F016
:1020F40036C037F035C036F0356A2C502802F3CF9D
:102104003FF0F4CF40F03F50352640503622000EC9
:102114003722000E38222E502902F3CF3FF0F4CF9D
:1021240040F03F503B2640503C22000E3D22000E22
:102134003E222D502A02F3CF3FF0F4CF40F03F501F
:102144003B2640503C22000E3D22000E3E222E50E3
:102154002A02F3CF3FF0F4CF40F03F50306E4050AE
:10216400316E326A336A32C033F031C032F030C07B
:1021740031F0306A30503B2631503C2232503D22FF
:1021840033503E2235C030F036C031F037C032F023
:1021940038C033F0190ED4EF10F0D8903332323205
:1021A40031323032E82ECFEF10F030503B26315030
:1021B4003C2232503D2233503E2237C038F036C0E4
:1021C40037F035C036F0356A39503AC030F0316AEC
:1021D4003026000E3122820E30243F6EFF0E312055
:1021E400406E0AEF11F0D8903B363C363D363E3611
:1021F40038AEFFEF10F001EF11F002EF11F03B8069
:10220400D89035363636373638363F06D8A04006AD
:102214003DAE0FEF11F011EF11F0F5EF10F0000EDD
:10222400396E38AE18EF11F01AEF11F03EEF11F0DD
:10223400FF0E3514306EFF0E3614316EFF0E371458
:10224400326E7F0E3814336E30503110321033102A
:10225400D8B42FEF11F031EF11F035EF11F0010E7A
:10226400396E3EEF11F03BA03AEF11F03CEF11F064
:102274003EEF11F031EF11F03950D8B444EF11F0C2
:1022840046EF11F06AEF11F0010E3B26000E3C22DE
:102294003D223E223EA051EF11F053EF11F06AEFC0
:1022A40011F03BC030F03CC031F03DC032F03EC0D4
:1022B40033F03334333232323132303230C03BF0E7
:1022C40031C03CF032C03DF033C03EF03F4A402ABA
:1022D40040BE75EF11F0405008E13F28D8A075EFDB
:1022E40011F077EF11F081EF11F0000E3B6E000E4C
:1022F4003C6E800E3D6E7F0E3E6EAFEF11F040BE21
:102304008EEF11F0405006E13F04D8B08CEF11F08D
:102314008EEF11F09AEF11F0000E3B6E000E3C6E42
:10232400000E3D6E000E3E6E000E346EAFEF11F0E7
:102334003FC03AF0FF0E3B16FF0E3C167F0E3D16D3
:10234400000E3E163AA0A9EF11F0ABEF11F0ACEF7E
:1023540011F03D8ED8903A303E6E34503E123BC060
:1023640028F03CC029F03DC02AF03EC02BF01200FA
:10237400E8C053F0E9C054F0EAC055F0EBC056F0A1
:1023840041C053F042C054F043C055F044C056F02D
:1023940053C045F054C046F055C047F056C048F00D
:1023A400180EDAEF11F0D8904832473246324532EF
:1023B400E82ED5EF11F045504D6E4E6A4EBEECEF4F
:1023C40011F04E5009E1960E4D5CD8A0ECEF11F0DF
:1023D400EEEF11F0F8EF11F041C041F042C042F0CD
:1023E40043C043F044C044F090EF13F053C045F0B1
:1023F40054C046F055C047F056C048F0200E08EFD0
:1024040012F0D8904832473246324532E82E03EF74
:1024140012F04550461047104810D8B414EF12F08B
:1024240016EF12F028EF12F041C001F042C002F0A2
:1024340043C003F044C004F0B7EC20F001C041F005
:1024440002C042F003C043F004C044F04EBE36EF75
:1024540012F04E5007E17E0E4D5CD8B034EF12F00E
:1024640036EF12F052EF12F053C028F054C029F0A6
:1024740055C02AF056C02BF0000E2C6E000E2D6EA7
:10248400000E2E6E000E2F6EA5EC0FF028C041F04A
:1024940029C042F02AC043F02BC044F090EF13F05F
:1024A400000E056E000E066E000E076E4B0E086ED3
:1024B40041C001F042C002F043C003F044C004F044
:1024C40045EC0DF001C04FF002C050F003C051F0D4
:1024D40004C052F0000E056E000E066E000E076E6C
:1024E400CB0E086E4FC001F050C002F051C003F093
:1024F40052C004F045EC0DF001C049F002C04AF0AE
:1025040003C04BF004C04CF049C011F04AC012F0B3
:102514004BC013F04CC014F041C015F042C016F08B
:1025240043C017F044C018F0B7EC1FF011C057F0C7
:1025340012C058F013C059F014C05AF0000E016EC6
:10254400000E026E000E036E3F0E046E57C005F0BF
:1025540058C006F059C007F05AC008F0DEEC1BF072
:10256400D8B0B7EF12F0B9EF12F0EFEF12F041C0AC
:1025740005F042C006F043C007F044C008F057C05D
:1025840001F058C002F059C003F05AC004F045EC01
:102594000DF001C04FF002C050F003C051F004C070
:1025A40052F04FC001F050C002F051C003F052C0CD
:1025B40004F0000E056E000E066E800E076EBF0E50
:1025C400086E45EC0DF001C057F002C058F003C08E
:1025D40059F004C05AF058EF13F0000E016E000ECB
:1025E400026E000E036EBF0E046E57C005F058C095
:1025F40006F059C007F05AC008F0DEEC1BF0D8A072
:1026040006EF13F008EF13F03EEF13F041C005F0AE
:1026140042C006F043C007F044C008F057C001F0C0
:1026240058C002F059C003F05AC004F045EC0DF054
:1026340001C04FF002C050F003C051F004C052F08A
:102644004FC001F050C002F051C003F052C004F07A
:10265400000E056E000E066E800E076E3F0E086EAD
:1026640045EC0DF001C057F002C058F003C059F01A
:1026740004C05AF058EF13F057C001F058C002F0EC
:1026840059C003F05AC004F041C005F042C006F03E
:1026940043C007F044C008F045EC0DF001C057F00A
:1026A40002C058F003C059F004C05AF053C045F0BA
:1026B40054C046F055C047F056C048F0200E68EFAD
:1026C40013F0D8904832473246324532E82E63EF51
:1026D40013F04550461047104810D8B474EF13F067
:1026E40076EF13F088EF13F057C001F058C002F0F2
:1026F40059C003F05AC004F0B7EC20F001C057F001
:1027040002C058F003C059F004C05AF057C041F059
:1027140058C042F059C043F05AC044F0120012505D
:10272400800B1F6E12501224266E11AE9CEF13F014
:102734009EEF13F09FEF13F026802650D8B4A5EF38
:1027440013F0A7EF13F0BCEF13F02628D8A4ADEFD5
:1027540013F0AFEF13F0B7EF13F0000E0F6E000E8F
:10276400106E000E116E000E126E118E000E126E9F
:10277400C4EF13F0000E0F6E000E106E000E116EFB
:10278400000E126E1650800B1F1A16501624276E58
:1027940015AECFEF13F0D1EF13F0D2EF13F0278083
:1027A4002750D8B4D8EF13F0DAEF13F0EFEF13F0AB
:1027B4002728D8A4E0EF13F0E2EF13F0EAEF13F0C8
:1027C400000E136E000E146E000E156E000E166EC3
:1027D400158E000E166EF7EF13F0000E136E000E3A
:1027E400146E000E156E000E166E13501410151094
:1027F4001610D8A400EF14F002EF14F01AEF14F03E
:10280400000E0F6E000E106E000E116E000E126E92
:10281400800E11127F0E12121F5012120FC00FF0F1
:1028240010C010F011C011F012C012F05DEF15F0DD
:102834002650D8A420EF14F022EF14F02CEF14F05B
:10284400000E0F6E000E106E000E116E000E126E52
:102854005DEF15F0275026C017F0186A175E000EBA
:10286400185A7F0E1724206E000E1820216E0FC0F8
:102874001BF010C01CF011C01DF012C01EF0000EA1
:102884000F6E000E106E000E116E000E126E000E12
:10289400226E000E236E000E246E000E256E000EB6
:1028A400276E8DEF14F02750D8B45BEF14F05DEF72
:1028B40014F074EF14F0D8901B361C361D361E36F7
:1028C400D8900F3610361136123625AE6CEF14F050
:1028D4006EEF14F06FEF14F00F80D8902236233689
:1028E4002436253613501B5C14501C5815501D58A3
:1028F40016501E58D8A081EF14F083EF14F08CEF1B
:1029040014F0258C13501B5E14501C5A15501D5A7C
:1029140016501E5A272A190E276493EF14F095EFC8
:1029240014F055EF14F01B501C101D101E10D8B4D9
:102934009EEF14F0A0EF14F0B8EF14F02280B8EF7B
:1029440014F0D8900F3610361136123625AEADEF8E
:1029540014F0AFEF14F0B0EF14F00F80D8902236DB
:102964002336243625362006D8A0210611AEBDEF25
:1029740014F0BFEF14F0A3EF14F0000E276E25AE91
:10298400C6EF14F0C8EF14F0ECEF14F0FF0E2214AD
:10299400176EFF0E2314186EFF0E2414196E7F0E8B
:1029A40025141A6E1750181019101A10D8B4DDEF28
:1029B40014F0DFEF14F0E3EF14F0010E276EECEFE8
:1029C40014F00FA0E8EF14F0EAEF14F0ECEF14F0B9
:1029D400DFEF14F02750D8B4F2EF14F0F4EF14F052
:1029E40018EF15F0010E0F26000E102211221222EC
:1029F40012A0FFEF14F001EF15F018EF15F00FC05F
:102A040017F010C018F011C019F012C01AF01A34DF
:102A14001A3219321832173217C00FF018C010F0DA
:102A240019C011F01AC012F0204A212A21BE23EF46
:102A340015F0215008E12028D8A023EF15F025EF48
:102A440015F030EF15F0000E216E2068000E0F6EA9
:102A5400000E106E000E116E000E126E21BE3DEFC0
:102A640015F0215006E12004D8B03BEF15F03DEFFE
:102A740015F04BEF15F0000E216E000E206E000EC7
:102A84000F6E000E106E000E116E000E126E000E10
:102A94001F6E20C026F026A052EF15F054EF15F05B
:102AA40057EF15F0118E58EF15F0119ED89026307F
:102AB400126E0EEF14F012001EC036F01FC037F075
:102AC40020C038F021C039F022C03AF023C03BF0D6
:102AD40024C03CF025C03DF03DBE73EF15F076EF09
:102AE40015F0010E77EF15F0000E346E356A345090
:102AF4003510D8B480EF15F082EF15F092EF15F091
:102B04003D1E3C1E3B1E3A1E391E381E371E366CB7
:102B1400000E3722382239223A223B223C223D221F
:102B24000001F1BF98EF15F09AEF15F09BEF15F047
:102B3400F293F1BFA8EF15F0F15106E1F005D8B01A
:102B4400A6EF15F0A8EF15F0AEEF15F0000E316EFC
:102B5400010E306EB2EF15F0F0C030F0F1C031F07C
:102B6400EEC032F0EFC033F034503510D8A4BDEFCE
:102B740015F0BFEF15F0C6EF15F0F2A5C4EF15F090
:102B8400C6EF15F0C9EF15F03206D8A03306000ED3
:102B94003F6E1F0E3E6E000E0101846F4EEF16F065
:102BA4003E06D8A03F06650E3E24D96E010E3F2096
:102BB400DA6E36C001F037C002F038C003F039C015
:102BC40004F03AC005F03BC006F03CC007F03DC03D
:102BD40008F00A0E096E000E0A6E000E0B6E000E4F
:102BE4000C6E000E0D6E000E0E6E000E0F6E000EBB
:102BF400106E13EC1AF001C026F002C027F003C0D7
:102C040028F004C029F005C02AF006C02BF007C044
:102C14002CF008C02DF026C013F028C014F03EECB0
:102C240020F01350300FDF6E3006D8A03106320684
:102C3400D8A0330636C001F037C002F038C003F024
:102C440039C004F03AC005F03BC006F03CC007F0C0
:102C54003DC008F00A0E096E000E0A6E000E0B6EDF
:102C6400000E0C6E000E0D6E000E0E6E000E0F6E3A
:102C7400000E106E4FEC19F001C036F002C037F0B0
:102C840003C038F004C039F005C03AF006C03BF088
:102C940007C03CF008C03DF03FBE59EF16F03F506E
:102CA40008E13E04D8A059EF16F05BEF16F08CEF64
:102CB40016F036503710381039103A103B103C10CB
:102CC4003D10D8A468EF16F06AEF16F0D2EF15F0B5
:102CD40031BE77EF16F0315006E13004D8B075EF0D
:102CE40016F077EF16F0D2EF15F033BE82EF16F040
:102CF400335008E13204D8A082EF16F084EF16F0C6
:102D04008CEF16F00001F2B38AEF16F08CEF16F098
:102D1400D2EF15F034503510D8A493EF16F095EF98
:102D240016F09DEF16F00001F2A59BEF16F09DEF53
:102D340016F0BBEF16F03E06D8A03F06345035100F
:102D4400D8A4A7EF16F0A9EF16F0AFEF16F0000E17
:102D54002F6E2B0E2E6EB3EF16F0000E2F6E2D0E6F
:102D64002E6E650E3E24D96E010E3F20DA6E2EC003
:102D7400DFFF1CC011F01DC012F0650E3E24136E5F
:102D8400010E3F20146E32C015F033C016F09DECD6
:102D94001DF011C01CF012C01DF01200096E095084
:102DA400D8B4D7EF16F0D9EF16F0FBEF16F004BE47
:102DB400E0EF16F0DEEF16F0FBEF16F001C005F0C1
:102DC40002C006F003C007F004C008F0051E061E8A
:102DD400071E081E052A000E06220722082205C027
:102DE4000BF006C00CF007C00DF008C00EF003EFA6
:102DF40017F001C00BF002C00CF003C00DF004C0CA
:102E04000EF00150021003100410D8A40CEF17F0B8
:102E14000EEF17F018EF17F0000E016E000E026EA1
:102E2400000E036E000E046EA9EF17F0960E0A6EE4
:102E340022EF17F00A2AD8900E320D320C320B32E0
:102E4400000E0B14056E000E0C14066E000E0D140D
:102E5400076EFE0E0E14086E0550061007100810BB
:102E6400D8A437EF17F039EF17F01CEF17F047EF3E
:102E740017F00A2A010E0B26000E0C220D220E2238
:102E8400D8900E320D320C320B32000E0B14056E3C
:102E9400000E0C14066E000E0D14076EFF0E0E14B9
:102EA400086E0550061007100810D8A45CEF17F040
:102EB4005EEF17F03BEF17F066EF17F00A06D890B5
:102EC4000B360C360D360E360DBE6BEF17F06DEF6C
:102ED40017F075EF17F0020E0A6073EF17F075EF35
:102EE40017F060EF17F00AB07AEF17F07CEF17F0E5
:102EF4007DEF17F00D9ED8900A320AC005F0066ADD
:102F0400076A086A05C008F0076A066A056A055078
:102F14000B1206500C1207500D1208500E120950D5
:102F2400D8B497EF17F099EF17F0A1EF17F004BE9C
:102F3400A0EF17F09EEF17F0A1EF17F00E8E0BC065
:102F440001F00CC002F00DC003F00EC004F012003A
:102F540042C0D9FF43C0DAFFDECFF6FFDDCFF7FF73
:102F64000800F550250AD8A4BAEF17F0BCEF17F003
:102F740068EF18F042C0D9FF43C0DAFFDE2A000E22
:102F8400DD22000E0001EF6F000EEE6FEEC0F2F0D6
:102F9400EFC0F3F0F069F16942C0D9FF43C0DAFF32
:102FA400DECFF6FFDDCFF7FF0800F550640AD8B492
:102FB400DEEF17F0E0EF17F0F2EF17F042C0D9FFA1
:102FC40043C0DAFFDECFF6FFDDCFF7FF0800F55090
:102FD400690AD8A4F0EF17F0F2EF17F032EF18F007
:102FE40042C0D9FF43C0DAFFDE2A000EDD2244C00E
:102FF400D9FF45C0DAFFDFCF46F0020EDE26DFCF71
:1030040047F0000EDD2246C0D9FF47C0DAFFDECF0D
:1030140048F0DDCF49F0000E49BEFF0E4A6E4B6EFC
:103024004C6E4D6E4E6E4F6E40C01CF041C01DF094
:1030340048C01EF049C01FF04AC020F04BC021F028
:103044004CC022F04DC023F04EC024F04FC025F0F8
:103054005EEC15F01CC040F01DC041F083EF18F089
:1030640042C0D9FF43C0DAFFDECFF6FFDDCFF7FF62
:103074000800F550250AD8A442EF18F044EF18F0E0
:103084005BEF18F042C0D9FF43C0DAFFDE2A000E1E
:10309400DD22000E026E250E016E40C003F041C019
:1030A40004F038EC1DF0000E416E010E406E83EF0B
:1030B40018F042C0D9FF43C0DAFFDE2A000EDD2239
:1030C400000E416E000E406E83EF18F042C0D9FF2F
:1030D40043C0DAFFDECFF6FFDDCFF7FF0800F5507F
:1030E400016E026A40C003F041C004F038EC1DF0E8
:1030F40042C0D9FF43C0DAFFDE2A000EDD2255EFBD
:1031040018F01200000E0001DF6F000EDE6F000EDB
:10311400E36F000EE26F000EE56F000EE46F000E29
:10312400DF6F000EDE6F49EC21F05AC00CF05BC07B
:103134000DF0BFEC1EF05AC058F05BC059F056ECCD
:103144001EF0290E5D6E960E5C6E7F0EE82EFED785
:103154005C2EFCD75D2EFAD700F00001DE4BDF2B8E
:10316400DFBFBDEF18F0DF5108E1DE05D8A0BDEFE9
:1031740018F0BFEF18F095EF18F0000EE16F000E95
:10318400E06F69EC21F05AC00CF05BC00DF0BFECAD
:103194001EF05AC058F05BC059F056EC1EF0290ED0
:1031A4005D6E960E5C6E7F0EE82EFED75C2EFCD70D
:1031B4005D2EFAD700F00001E04BE12BE1BFEBEF0D
:1031C40018F0E15108E1E005D8A0EBEF18F0EDEFBD
:1031D40018F0C3EF18F0000EE36F000EE26F79EC05
:1031E40021F05AC00CF05BC00DF0BFEC1EF05AC0C9
:1031F40058F05BC059F056EC1EF0290E5D6E960E29
:103204005C6E7F0EE82EFED75C2EFCD75D2EFAD7BF
:1032140000F00001E24BE32BE3BF19EF19F0E35197
:1032240008E1E205D8A019EF19F01BEF19F0F1EF4E
:1032340018F0000EE56F000EE46F89EC21F05AC01F
:103244000CF05BC00DF0BFEC1EF05AC058F05BC030
:1032540059F056EC1EF0290E5D6E960E5C6E7F0ED4
:10326400E82EFED75C2EFCD75D2EFAD700F00001C5
:10327400E44BE52BE5BF47EF19F0E55108E1E40520
:10328400D8A047EF19F049EF19F01FEF19F0000E1D
:1032940060EC1CF049EC21F01200000E126E10BE1E
:1032A40058EF19F056EF19F06AEF19F0101E0F1EBF
:1032B4000E1E0D1E0C1E0B1E0A1E096C000E0A2289
:1032C4000B220C220D220E220F221022010E126E4E
:1032D40008BE71EF19F06FEF19F083EF19F0081EB3
:1032E400071E061E051E041E031E021E016C000E90
:1032F4000222032204220522062207220822010EAA
:10330400121A20EE13F0070EDE6AE806FDE20950F9
:103314000A100B100C100D100E100F101010D8B452
:1033240096EF19F098EF19F0EAEF19F0010E116E0B
:10333400A6EF19F0D89009360A360B360C360D363E
:103344000E360F361036112A10AEABEF19F0ADEF72
:1033540019F09CEF19F0D89013361436153616363A
:103364001736183619361A360950015C0A500258B5
:103374000B5003580C5004580D5005580E50065865
:103384000F50075810500858D8A0CBEF19F0CDEFC4
:1033940019F0DEEF19F00950015E0A50025A0B5081
:1033A400035A0C50045A0D50055A0E50065A0F5029
:1033B400075A1050085A1380D89010320F320E3228
:1033C4000D320C320B320A320932112EADEF19F0E4
:1033D4001250D8B4F0EF19F0F2EF19F002EF1AF02E
:1033E4001A1E191E181E171E161E151E141E136CE7
:1033F400000E1422152216221722182219221A222C
:1034040013C001F014C002F015C003F016C004F09C
:1034140017C005F018C006F019C007F01AC008F06C
:103424001200000E126E08BE1CEF1AF01AEF1AF00A
:103434002EEF1AF0081E071E061E051E041E031E8C
:10344400021E016C000E022203220422052206221F
:1034540007220822010E126E10BE35EF1AF033EF68
:103464001AF045EF1AF0101E0F1E0E1E0D1E0C1E34
:103474000B1E0A1E096C000E0A220B220C220D22BE
:103484000E220F22102209500A100B100C100D10DE
:103494000E100F101010D8B452EF1AF054EF1AF0A7
:1034A4009CEF1AF0010E116E62EF1AF0D8900936F3
:1034B4000A360B360C360D360E360F361036112AF8
:1034C40010AE67EF1AF069EF1AF058EF1AF00950CE
:1034D400015C0A5002580B5003580C5004580D500C
:1034E40005580E5006580F50075810500858D8A0C9
:1034F4007EEF1AF080EF1AF090EF1AF00950015E97
:103504000A50025A0B50035A0C50045A0D50055AD3
:103514000E50065A0F50075A1050085AD8901032BD
:103524000F320E320D320C320B320A320932112EA6
:1035340069EF1AF01250D8B4A2EF1AF0A4EF1AF0FF
:10354400B4EF1AF0081E071E061E051E041E031EF5
:10355400021E016C000E022203220422052206220E
:103564000722082201C001F002C002F003C003F0E8
:1035740004C004F005C005F006C006F007C007F05B
:1035840008C008F0120069EC21F03FEC1FF00CC0F9
:10359400D9FF0DC0DAFF05C0DEFF06C0DDFF67EC12
:1035A4001FF020EE02F00C50D9260D50DA2205C08F
:1035B400DEFF06C0DDFF8FEC1FF020EE04F00C50A0
:1035C400D9260D50DA2205C0DEFF06C0DDFF090E44
:1035D4000F6E1E0E0E6EE40EE82EFED70E2EFCD7D6
:1035E4000F2EFAD700D079EC21F03FEC1FF020EE3B
:1035F40006F00C50D9260D50DA2205C0DEFF06C0B5
:10360400DDFF67EC1FF020EE08F00C50D9260D50BA
:10361400DA2205C0DEFF06C0DDFF8FEC1FF020EECE
:103624000AF00C50D9260D50DA2205C0DEFF06C080
:10363400DDFF090E0F6E1E0E0E6EE40EE82EFED791
:103644000E2EFCD70F2EFAD700D089EC21F03FECD8
:103654001FF020EE0CF00C50D9260D50DA2205C0D4
:10366400DEFF06C0DDFF67EC1FF020EE0EF00C500D
:10367400D9260D50DA2205C0DEFF06C0DDFF8FEC2F
:103684001FF020EE10F00C50D9260D50DA2205C0A0
:10369400DEFF06C0DDFF090E0F6E1E0E0E6EE40E79
:1036A400E82EFED70E2EFCD70F2EFAD700D012002C
:1036B4005D345E340001656F6551D8A464EF1BF07E
:1036C40066EF1BF070EF1BF0000E5B6E000E5C6E7D
:1036D400000E5D6E000E5E6EDDEF1BF05BC060F0F1
:1036E4005CC061F05DC062F05EC063F0200E80EFEC
:1036F4001BF0D8906333623361336033E82E7BEF81
:103704001BF06051646F5D8EFF0E5B16FF0E5C163E
:10371400FF0E5D16000E5E16960E655F65BF97EF91
:103724001BF095EF1BF0ADEF1BF06551800A970F6E
:10373400D8B09FEF1BF0A1EF1BF0A3EF1BF066EFD7
:103744001BF0D8905E325D325C325B32653FA3EF92
:103754001BF0C5EF1BF01F0E6565B3EF1BF0B5EF53
:103764001BF0BDEF1BF066EF1BF0D8905B365C36A8
:103774005D365E3665076551D8A4C3EF1BF0C5EF0F
:103784001BF0B7EF1BF06451D8B4CBEF1BF0CDEFB7
:103794001BF0D5EF1BF05E1E5D1E5C1E5B6C000E05
:1037A4005C225D225E225BC05BF05CC05CF05DC0AD
:1037B4005DF05EC05EF01200000E0114096E000E92
:1037C40002140A6E800E03140B6E7F0E04140C6E2A
:1037D40009500A100B100C10D8A4F3EF1BF0F5EFEE
:1037E4001BF0FDEF1BF0000E016E000E026E000ECA
:1037F400036E000E046E000E0514096E000E06140E
:103804000A6E800E07140B6E7F0E08140C6E09509E
:103814000A100B100C10D8A412EF1CF014EF1CF0BB
:103824001CEF1CF0000E056E000E066E000E076EF7
:10383400000E086E04AE21EF1CF023EF1CF02CEFF9
:103844001CF0016C021ED8B0022A031ED8B0032A51
:10385400800E045608AE31EF1CF033EF1CF03CEF41
:103864001CF0056C061ED8B0062A071ED8B0072A1D
:10387400800E0856000E011A000E021A000E031ADA
:10388400800E041A000E051A000E061A000E071AFE
:10389400800E081A0550015C065002580750035860
:1038A40008500458D8B059EF1CF05BEF1CF05EEFE1
:1038B4001CF0D8905FEF1CF0D88012000001DD6F7F
:1038C4000001DD51D8A469EF1CF06BEF1CF06BEF25
:1038D4001CF0DD05D8A471EF1CF073EF1CF073EF3E
:1038E4001CF0020EDD19D8A47AEF1CF07CEF1CF05A
:1038F4007CEF1CF0030EDD19D8A483EF1CF085EFD8
:103904001CF085EF1CF0040EDD19D8A48CEF1CF01C
:103914008EEF1CF08EEF1CF0050EDD19D8A495EF88
:103924001CF097EF1CF097EF1CF0060EDD19D8A4DD
:103934009EEF1CF0A0EF1CF0A0EF1CF0070EDD19A9
:10394400D8A4A7EF1CF0A9EF1CF0A9EF1CF0080EF7
:10395400DD19D8A4B0EF1CF0B2EF1CF0B2EF1CF0EC
:10396400090EDD19D8A4B9EF1CF0BBEF1CF0BBEFB6
:103974001CF0790E606F000E616F0D0E626F0E0EFB
:10398400636FDDC064F0656BEEEC1EF0790E026EC1
:10399400000E036E08EC21F0120001C0D9FF02C032
:1039A400DAFF000EDF6E20EE01F00150D92602503E
:1039B400DA22010EDF6E20EE02F00150D926025009
:1039C400DA22A30EDE6E0F0EDD6E20EE04F001503F
:1039D400D9260250DA227D0EDE6E0F0EDD6E20EE49
:1039E40006F00150D9260250DA22040EDF6E20EED2
:1039F40007F00150D9260250DA22C70EDE6E000EFF
:103A0400DD6E03C0D9FF04C0DAFF000EDF6E20EEC6
:103A140001F00350D9260450DA22010EDF6E20EEA5
:103A240002F00350D9260450DA22A00EDE6E0F0EE7
:103A3400DD6E20EE04F00350D9260450DA227F0E06
:103A4400DE6E0F0EDD6E20EE06F00350D926045014
:103A5400DA22060EDF6E20EE07F00350D92604505A
:103A6400DA22C70EDE6E000EDD6E12000350041063
:103A7400D8B43FEF1DF041EF1DF04AEF1DF00350A5
:103A84000410D8A448EF1DF04AEF1DF04FEF1DF0CD
:103A94000150D8EC21F09CEF1DF020EE09F003500A
:103AA400D9260450DA22DE50DE10D8B45CEF1DF0C3
:103AB4005EEF1DF079EF1DF020EE09F00350D926DA
:103AC4000450DA2210EE03F00350E1260450E222FF
:103AD400DE50E65CE650800A096EDE50800A095822
:103AE400D8B077EF1DF079EF1DF09CEF1DF020EEBC
:103AF40003F00350D9260450DA22DECF05F0DDCFDF
:103B040006F003C0D9FF04C0DAFFDECF07F0DDCF33
:103B140008F005500724D96E06500820DA6E01C05B
:103B2400DFFF20EE03F00350D9260450DA22DE2A08
:103B3400000EDD2212000001F2A1A3EF1DF0A5EF9B
:103B44001DF0AFEF1DF013C00AF014C00BF011C04C
:103B54000CF012C00DF0DAEC1FF016BEB4EF1DF03D
:103B6400B6EF1DF0BCEF1DF015C01AF016C01BF027
:103B7400C0EF1DF0000E1B6E000E1A6E000E196EC3
:103B8400000E186ED2EF1DF0000E026E200E016EB4
:103B940011C003F012C004F038EC1DF0184A192AC1
:103BA4001A50185C1950800A176E1B50800A175857
:103BB400D8A0DFEF1DF0E1EF1DF0C6EF1DF000010E
:103BC400F2B1E7EF1DF0E9EF1DF0F3EF1DF013C0C4
:103BD4000AF014C00BF011C00CF012C00DF0DAECB6
:103BE4001FF013C001F014C002F0D3EC20F01A50FF
:103BF4000124116E1B500220126E120020EC21F0E1
:103C0400EEEC20F0000E026EC70E016EFCEC1FF00D
:103C140099EC21F0850E016E010E026E8F0E036E7B
:103C2400010E046ECFEC1CF0A8EC21F0F40E0001A0
:103C3400E76F820EE66F050EE82EFED7E62FFCD75F
:103C4400E72FFAD7A10E0C6E010E0D6EC5EC1AF01B
:103C5400F40E0001E76F820EE66F050EE82EFED724
:103C6400E62FFCD7E72FFAD7990E0001706F010EEB
:103C7400716FA10E726F010E736F2AEC07F00101D0
:103C8400646F645160EC1CF0110E0001E76F3C0E90
:103C9400E66FCB0EE82EFED7E62FFCD7E72FFAD738
:103CA40036EF1EF000EF00F0790E0001606F000E99
:103CB400616F050E626F0E0E636F58C0D9FF59C055
:103CC400DAFFDECF64F0DDCF65F020EE02F058506D
:103CD400D9265950DA22DECF66F0DDCF67F020EE28
:103CE40004F05850D9265950DA22DECF68F0DDCFDF
:103CF40069F020EE06F05850D9265950DA22DECF6A
:103D04006AF0DDCF6BF0EEEC1EF0790E026E000E61
:103D1400036E08EC21F0120052C056F053C057F065
:103D2400000E0001ED6F000EEC6FACEF1EF050C002
:103D340040F051C041F0560E426E000E436E54C026
:103D440044F055C045F0AAEC17F040500001EC27B0
:103D54004150ED2356C0F6FF57C0F7FF0800F55059
:103D64000009D8A4B8EF1EF0BAEF1EF099EF1EF0C8
:103D7400ECC050F0EDC051F012003FEC1FF00CC04D
:103D8400D9FF0DC0DAFF05C0DEFF06C0DDFF8FECF2
:103D94001FF020EE04F00C50D9260D50DA2205C095
:103DA400DEFF06C0DDFF67EC1FF020EE02F00C50D2
:103DB400D9260D50DA2205C0DEFF06C0DDFF17EC60
:103DC4001FF020EE06F00C50D9260D50DA2205C063
:103DD400DEFF06C0DDFF1200640E00016C6F000EF2
:103DE4006D6F60C06EF061C06FF0000E726F000EF8
:103DF400716F000E786F000E776F6E0E506E000EAE
:103E0400516E62C052F063C053F06C0E546E000EDB
:103E1400556E8EEC1EF0000171516025D96E725101
:103E24006121DA6E000EDF6E1200CDEC21F0520E2D
:103E3400C2EC21F0B40EC2EC21F0D2EC21F0530E0E
:103E4400C2EC21F0010E1DEC20F0076E07500A6E43
:103E54000B6A000E1DEC20F0076E0750096E086A0D
:103E64000A5008100A6E0B5009100B6EC8EC21F0B2
:103E74000AC005F00BC006F01200CDEC21F0520E82
:103E8400C2EC21F0B60EC2EC21F0D2EC21F0530EBC
:103E9400C2EC21F0010E1DEC20F0076E07500A6EF3
:103EA4000B6A000E1DEC20F0076E0750096E086ABD
:103EB4000A5008100A6E0B5009100B6EC8EC21F062
:103EC4000AC005F00BC006F01200CDEC21F0520E32
:103ED400C2EC21F0B80EC2EC21F0D2EC21F0530E6A
:103EE400C2EC21F0010E1DEC20F0076E07500A6EA3
:103EF4000B6A000E1DEC20F0076E0750096E086A6D
:103F04000A5008100A6E0B5009100B6EC8EC21F011
:103F14000AC005F00BC006F01200CDEC21F0520EE1
:103F2400C2EC21F0BA0EC2EC21F0D2EC21F0530E17
:103F3400C2EC21F0010E1DEC20F0076E07500A6E52
:103F44000B6A000E1DEC20F0076E0750096E086A1C
:103F54000A5008100A6E0B5009100B6EC8EC21F0C1
:103F64000AC005F00BC006F01200000E151A000E70
:103F7400161A000E171A800E181A11C001F012C07A
:103F840002F013C003F014C004F015C005F016C00D
:103F940006F017C007F018C008F045EC0DF001C09A
:103FA40011F002C012F003C013F004C014F01200A8
:103FB400000E106E000E0F6EEBEF1FF00EC001F03E
:103FC400026A0CC003F00DC004F038EC1DF00F4A77
:103FD400102A0F500A24D96E10500B20DA6EDF50CD
:103FE4000E6E0E50D8A4F9EF1FF0FBEF1FF0E0EFB8
:103FF4001FF012008594839E879C85987D947B9EF8
:104004007F9C7D98BD508F0B3009BD6EE00EBE16AF
:10401400BF50F00B0109BF6EC70EBC6EBD8E0A0EF9
:104024000E01746F0B0E696F000EA36E000EA06E6E
:10403400A48EA18E1200036E35EC21F00E01DA87F6
:1040440035EC21F0D5CE04F035EC21F00350D8B492
:104054002EEF20F032EF20F0026A022A33EF20F034
:10406400026A023A02460E01DA510218DF0B021804
:10407400DA6FDA890450120014BE4BEF20F01450AA
:1040840006E11304D8B049EF20F04BEF20F059EFCC
:1040940020F013C015F014C016F0151E161E154A94
:1040A400162A15C013F016C014F05DEF20F013C0EB
:1040B40013F014C014F01200AE0EF66E430EF76E39
:1040C400000EF86E0900F5CFF8F00900F5CFF9F00D
:1040D40001EE00F0850EEE6AE806FDE100EEE8F080
:1040E400100EEE6AE806FDE1000EF86E0E0EF76E95
:1040F400000100EF1EF066C041F067C042F068C0E6
:1041040043F069C044F0BAEC11F041C05BF042C026
:104114005CF043C05DF044C05EF05AEC1BF05BC041
:1041240066F05CC067F05DC068F05EC069F01200C4
:10413400000E5F6E00016C516A5D6D516B59D8B011
:10414400A6EF20F0A8EF20F0B5EF20F06C516E5DE3
:104154006D516F59D8A0B1EF20F0B3EF20F0B5EF57
:1041640020F0010E5F6E5F50120001500210031028
:104174000410D8B4C0EF20F0C2EF20F0CAEF20F052
:10418400000E011A000E021A000E031A800E041A01
:1041940001C001F002C002F003C003F004C004F047
:1041A400120001C003F002C004F0DBEF20F0014A6A
:1041B400022A01C0D9FF02C0DAFFDF50D8A4E5EF1C
:1041C40020F0E7EF20F0D9EF20F00350015C016EFE
:1041D40004500258026E120020EC21F0010E036E0E
:1041E400000E59EC21F03F0E056E550EE82EFED759
:1041F400052EFCD700F0030E036E000E59EC21F0DF
:10420400D50E036E010E59EC21F0120013EF21F0CC
:1042140002C0D9FF03C0DAFFDF50B6EC21F0024A36
:10422400032A02C0D9FF03C0DAFFDF50D8A41DEF70
:1042340021F01FEF21F00AEF21F012000E01D951F5
:10424400F00B0809D96FD98B9F0ED66F848A848CA2
:10425400A79BA79D1D0E1D6F1E0E1C6F1C0E6F6F5E
:104264001B0E706F12000E01D8B53BEF21F03DEF2D
:1042740021F035EF21F0DACE01F01F0E0116D8A49B
:1042840046EF21F048EF21F035EF21F012007F8254
:104294007E8E7988110E026E3C0E016ECB0EE82ED6
:1042A400FED7012EFCD7022EFAD700F01200046EBE
:1042B400CDEC21F0520EC2EC21F004508009C2EC86
:1042C40021F00350C2EC21F0C8EC21F012007F82EF
:1042D4007E9E7998110E026E3C0E016ECB0EE82E76
:1042E400FED7012EFCD7022EFAD700F012007F92DF
:1042F4007E9E7988110E026E3C0E016ECB0EE82E66
:10430400FED7012EFCD7022EFAD700F012007F92BE
:104314007E8E7998110E026E3C0E016ECB0EE82E45
:10432400FED7012EFCD7022EFAD700F01200120E8F
:104334000E01626F110E156FE997E895330EE56F64
:10434400000EE66FE789E88BE78F120086840E0182
:10435400B4958686B497869C7E9C8792869E819827
:104364007F827E8E79881200016E0E0137A5BDEF23
:1043740021F0BFEF21F0B7EF21F001C0E4FE1200FD
:10438400026E35EC21F002C0D5FE120035EC21F0AE
:104394000E01DA85120035EC21F00E01DA811200EB
:0E43A40035EC21F00E01DA831200280B120016
:020000040020DA
:10000000FF0FFF0FFF0FFF0FFF0FFF0FFF0FFF0F80
:020000040030CA
:0C000000AAFFFFFF9FFFFFFFFFFFFFFFB5
:00000001FF
