:0400000061EF12F0AA
:100E0000000925640925640925640925640D0A0083
:100E10004C6967687420626C7565004F72616E671B
:100E2000650059656C6C6F7700576869746500429E
:100E30006C61636B00477265656E004572726F721C
:100E400000426C75650050696E6B0052656400006D
:100E5000000E206E000E1F6E000E1A6E000E196E30
:100E6000000E1C6E000E1B6E000E226E000E216E18
:100E7000000E1E6E000E1D6E000E276E000E266EFA
:100E8000000E296E000E286E000E246E000E236EDA
:100E9000000E256E15C00EF016C00FF00AEC13F010
:100EA00015C00CF016C00DF005EC11F015C0D9FFFF
:100EB00016C0DAFFDECF2AF0DDCF2BF020EE02F0F5
:100EC0001550D9261650DA22DECF1FF0DDCF20F0E4
:100ED000050E186E0F0E176EF10EE82EFED7172EA8
:100EE000FCD7182EFAD700F015C00EF016C00FF080
:100EF00020EC13F015C00CF016C00DF005EC11F04D
:100F000020EE02F01550D9261650DA22DECF21F05D
:100F1000DDCF22F0050E186E0F0E176EF10EE82EC3
:100F2000FED7172EFCD7182EFAD700F015C00EF0FA
:100F300016C00FF036EC13F015C00CF016C00DF013
:100F400005EC11F015C0D9FF16C0DAFFDECF26F090
:100F5000DDCF27F020EE02F01550D9261650DA2208
:100F6000DECF28F0DDCF29F020EE04F01550D92691
:100F70001650DA22DECF23F0DDCF24F0050E186EF6
:100F80000F0E176EF10EE82EFED7172EFCD7182E77
:100F9000FAD700F02AC00EF02BC00FF0020E116E2F
:100FA000580E106E000E136E010E126EA1EC12F0B0
:100FB0000009D8B4DEEF07F0E0EF07F084EF08F0A7
:100FC000030E0F6E300E0E6E23C003F024C004F02B
:100FD00021C001F022C002F062EC10F001C008F064
:100FE00002C009F0000E0B6EC80E0A6E8BEC13F0F7
:100FF00008C010F009C011F023C003F024C004F0B1
:1010000021C001F022C002F062EC10F001C008F033
:1010100002C009F0000E0B6EC80E0A6E8BEC13F0C6
:101020000A0E0824126E000E0920136EA1EC12F0B5
:101030000009D8B41EEF08F020EF08F024EF08F004
:10104000090E256EF6EF09F0020E0F6EE60E0E6E1B
:1010500023C003F024C004F021C001F022C002F03C
:1010600062EC10F001C008F002C009F0000E0B6E37
:10107000C80E0A6E8BEC13F008C010F009C011F016
:10108000030E136E300E126EA1EC12F00009D8B4EC
:101090004CEF08F04EEF08F052EF08F0020E256E0C
:1010A000F6EF09F0000E0F6E000E0E6E23C003F077
:1010B00024C004F021C001F022C002F062EC10F064
:1010C00001C008F002C009F0000E0B6EC80E0A6ED7
:1010D0008BEC13F008C010F009C011F0020E136E73
:1010E000E60E126EA1EC12F00009D8B47AEF08F007
:1010F0007CEF08F080EF08F0030E256EF6EF09F0A4
:10110000000E256EF6EF09F0000E0F6E000E0E6E4B
:101110001FC010F020C011F0000E136E320E126EC0
:10112000A1EC12F00009D8B498EF08F09AEF08F09B
:101130000CEF09F0000E0F6E000E0E6E28C003F0CB
:1011400029C004F02AC001F02BC002F062EC10F0BC
:1011500001C008F002C009F0000E0B6E640E0A6EAA
:101160008BEC13F008C010F009C011F0060E136EDE
:101170003D0E126EA1EC12F00009D8B4C2EF08F0D7
:10118000C4EF08F0C8EF08F0060E256EF6EF09F080
:10119000060E0F6E3D0E0E6E28C003F029C004F03F
:1011A0002AC001F02BC002F062EC10F001C008F080
:1011B00002C009F0000E0B6E640E0A6E8BEC13F089
:1011C00008C010F009C011F028C003F029C004F0D5
:1011D0002AC001F02BC002F062EC10F001C008F050
:1011E00002C009F0000E0B6E640E0A6E8BEC13F059
:1011F0000A0E0824126E000E0920136EA1EC12F0E4
:101200000009D8B406EF09F008EF09F080EF08F004
:10121000010E256EF6EF09F0000E0F6E410E0E6EF8
:101220001FC010F020C011F00A0E1F24126E000E15
:101230002020136EA1EC12F00009D8B422EF09F0BF
:1012400024EF09F028EF09F0080E256EF6EF09F0FB
:10125000000E0F6E320E0E6E1FC010F020C011F087
:10126000000E136E410E126EA1EC12F00009D8B4FC
:101270003CEF09F03EEF09F080EF08F0000E0F6E32
:10128000500E0E6E26C010F027C011F00A0E262454
:10129000126E000E2720136EA1EC12F00009D8B4D4
:1012A00054EF09F056EF09F05AEF09F0050E256EDC
:1012B000F6EF09F0000E0F6E000E0E6E26C010F055
:1012C00027C011F0000E136E500E126EA1EC12F03A
:1012D0000009D8B46EEF09F070EF09F09EEF09F045
:1012E000000E0F6E000E0E6E28C003F029C004F031
:1012F0002AC001F02BC002F062EC10F001C008F02F
:1013000002C009F0000E0B6E640E0A6E8BEC13F037
:1013100008C010F009C011F0040E136E330E126EE7
:10132000A1EC12F00009D8B498EF09F09AEF09F097
:101330009EEF09F0070E256EF6EF09F0000E0F6E16
:10134000000E0E6E26C010F027C011F0000E136EB6
:10135000500E126EA1EC12F00009D8B4B2EF09F0F1
:10136000B4EF09F080EF08F0040E0F6E330E0E6E2E
:1013700028C003F029C004F02AC001F02BC002F0FD
:1013800062EC10F001C008F002C009F0000E0B6E14
:10139000640E0A6E8BEC13F008C010F009C011F057
:1013A00026C003F027C004F02AC001F02BC002F0D1
:1013B00062EC10F001C008F002C009F0000E0B6EE4
:1013C000640E0A6E8BEC13F00A0E0824126E000EE7
:1013D0000920136EA1EC12F00009D8B4F2EF09F065
:1013E000F4EF09F080EF08F0040E256E255012008E
:1013F0001EC036F01FC037F020C038F021C039F0D1
:1014000022C03AF023C03BF024C03CF025C03DF0A0
:101410003DBE0DEF0AF010EF0AF0010E11EF0AF0D9
:10142000000E346E356A34503510D8B41AEF0AF015
:101430001CEF0AF02CEF0AF03D1E3C1E3B1E3A1E2C
:10144000391E381E371E366C000E372238223922DC
:101450003A223B223C223D220001F7BF32EF0AF044
:1014600034EF0AF035EF0AF0F893F7BF42EF0AF0D5
:10147000F75106E1F605D8B040EF0AF042EF0AF066
:1014800048EF0AF0000E316E010E306E4CEF0AF09C
:10149000F6C030F0F7C031F0F4C032F0F5C033F0F0
:1014A00034503510D8A457EF0AF059EF0AF060EF26
:1014B0000AF0F8A55EEF0AF060EF0AF063EF0AF0B9
:1014C0003206D8A03306000E3F6E1F0E3E6E000E91
:1014D00001015B6FE8EF0AF03E06D8A03F063C0E24
:1014E0003E24D96E010E3F20DA6E36C001F037C0BF
:1014F00002F038C003F039C004F03AC005F03BC038
:1015000006F03CC007F03DC008F00A0E096E000E60
:101510000A6E000E0B6E000E0C6E000E0D6E000EAD
:101520000E6E000E0F6E000E106E10EC0EF001C06D
:1015300026F002C027F003C028F004C029F005C03F
:101540002AF006C02BF007C02CF008C02DF026C0F2
:1015500013F028C014F081EC12F01350300FDF6E3E
:101560003006D8A031063206D8A0330636C001F0C6
:1015700037C002F038C003F039C004F03AC005F0BB
:101580003BC006F03CC007F03DC008F00A0E096EF3
:10159000000E0A6E000E0B6E000E0C6E000E0D6E2D
:1015A000000E0E6E000E0F6E000E106E4CEC0DF065
:1015B00001C036F002C037F003C038F004C039F083
:1015C00005C03AF006C03BF007C03CF008C03DF053
:1015D0003FBEF3EF0AF03F5008E13E04D8A0F3EF1E
:1015E0000AF0F5EF0AF026EF0BF0365037103810FE
:1015F00039103A103B103C103D10D8A402EF0BF00C
:1016000004EF0BF06CEF0AF031BE11EF0BF031502C
:1016100006E13004D8B00FEF0BF011EF0BF06CEFD8
:101620000AF033BE1CEF0BF0335008E13204D8A0AF
:101630001CEF0BF01EEF0BF026EF0BF00001F8B3E0
:1016400024EF0BF026EF0BF06CEF0AF0345035105E
:10165000D8A42DEF0BF02FEF0BF037EF0BF00001BC
:10166000F8A535EF0BF037EF0BF055EF0BF03E061A
:10167000D8A03F0634503510D8A441EF0BF043EF0B
:101680000BF049EF0BF0000E2F6E2B0E2E6E4DEF70
:101690000BF0000E2F6E2D0E2E6E3C0E3E24D96EDA
:1016A000010E3F20DA6E2EC0DFFF1CC011F01DC0FE
:1016B00012F03C0E3E24136E010E3F20146E32C019
:1016C00015F033C016F0FFEC0FF011C01CF012C083
:1016D0001DF0120062EC13F0D8EC12F0000E026E56
:1016E000C70E016E1FEC12F0AEEC13F0650E016E2A
:1016F000010E026E6F0E036E010E046E31EC0FF0E0
:10170000869C7E9C8792869E81987F827E8E798839
:10171000000E01015C6FF40E5B6E820E5A6E050EB8
:10172000E82EFED75A2EFCD75B2EFAD700F065EFD5
:101730000CF0000E5E6F000E5D6F790E0E6E010EE6
:101740000F6E4CEC13F0790E586E010E596E9CEC36
:1017500010F0090E5B6E1E0E5A6EE40EE82EFED7D8
:101760005A2EFCD75B2EFAD700D001015D4B5E2BC1
:101770005EBFC4EF0BF05E5109E1320E5D5DD8A093
:10178000C4EF0BF0C6EF0BF09DEF0BF0000EC2ECB8
:101790000EF0000E0101606F000E5F6F790E0E6E8D
:1017A000010E0F6E0AEC13F0790E586E010E596E91
:1017B0009CEC10F0090E5B6E1E0E5A6EE40EE82EC5
:1017C000FED75A2EFCD75B2EFAD700D001015F4B13
:1017D000602B60BFF5EF0BF0605109E1320E5F5DE9
:1017E000D8A0F5EF0BF0F7EF0BF0CEEF0BF0000EFB
:1017F000C2EC0EF0000E0101626F000E616F790EF7
:101800000E6E010E0F6E20EC13F0790E586E010E65
:10181000596E9CEC10F0090E5B6E1E0E5A6EE40EB3
:10182000E82EFED75A2EFCD75B2EFAD700D0010146
:10183000614B622B62BF26EF0CF0625109E1320E60
:10184000615DD8A026EF0CF028EF0CF0FFEF0BF055
:10185000000EC2EC0EF0000E0101646F000E636F0B
:10186000790E0E6E010E0F6E36EC13F0790E586E77
:10187000010E596E9CEC10F0090E5B6E1E0E5A6E36
:10188000E40EE82EFED75A2EFCD75B2EFAD700D0F6
:101890000101634B642B64BF57EF0CF0645109E105
:1018A000320E635DD8A057EF0CF059EF0CF030EF1B
:1018B0000CF0000EC2EC0EF0010E01015C6F790E0F
:1018C0000E6E010E0F6E4CEC13F001015C51D8B49A
:1018D0006CEF0CF06EEF0CF099EF0BF065EF0CF085
:1018E00000EF00F042C0D9FF43C0DAFFDECFF6FFC1
:1018F000DDCFF7FF0800F550250AD8A482EF0CF0E1
:1019000084EF0CF030EF0DF042C0D9FF43C0DAFF96
:10191000DE2A000EDD22000E0001F56F000EF46FCE
:10192000F4C0F8F0F5C0F9F0F669F76942C0D9FFE4
:1019300043C0DAFFDECFF6FFDDCFF7FF0800F5503A
:10194000640AD8B4A6EF0CF0A8EF0CF0BAEF0CF0D4
:1019500042C0D9FF43C0DAFFDECFF6FFDDCFF7FF8D
:101960000800F550690AD8A4B8EF0CF0BAEF0CF0F3
:10197000FAEF0CF042C0D9FF43C0DAFFDE2A000EB6
:10198000DD2244C0D9FF45C0DAFFDFCF46F0020EAA
:10199000DE26DFCF47F0000EDD2246C0D9FF47C06C
:1019A000DAFFDECF48F0DDCF49F0000E49BEFF0E72
:1019B0004A6E4B6E4C6E4D6E4E6E4F6E40C01CF0BC
:1019C00041C01DF048C01EF049C01FF04AC020F0C1
:1019D0004BC021F04CC022F04DC023F04EC024F08B
:1019E0004FC025F0F8EC09F01CC040F01DC041F0DC
:1019F0004BEF0DF042C0D9FF43C0DAFFDECFF6FF58
:101A0000DDCFF7FF0800F550250AD8A40AEF0DF046
:101A10000CEF0DF023EF0DF042C0D9FF43C0DAFF09
:101A2000DE2A000EDD22000E026E250E016E40C081
:101A300003F041C004F09AEC0FF0000E416E010E6D
:101A4000406E4BEF0DF042C0D9FF43C0DAFFDE2AF3
:101A5000000EDD22000E416E000E406E4BEF0DF0C9
:101A600042C0D9FF43C0DAFFDECFF6FFDDCFF7FF7C
:101A70000800F550016E026A40C003F041C004F056
:101A80009AEC0FF042C0D9FF43C0DAFFDE2A000E05
:101A9000DD221DEF0DF01200000E126E10BE55EF8C
:101AA0000DF053EF0DF067EF0DF0101E0F1E0E1E20
:101AB0000D1E0C1E0B1E0A1E096C000E0A220B22A4
:101AC0000C220D220E220F221022010E126E08BED1
:101AD0006EEF0DF06CEF0DF080EF0DF0081E071E9D
:101AE000061E051E041E031E021E016C000E0222AD
:101AF000032204220522062207220822010E121ABE
:101B000020EE13F0070EDE6AE806FDE209500A1027
:101B10000B100C100D100E100F101010D8B493EF06
:101B20000DF095EF0DF0E7EF0DF0010E116EA3EF44
:101B30000DF0D89009360A360B360C360D360E36B7
:101B40000F361036112A10AEA8EF0DF0AAEF0DF0E7
:101B500099EF0DF0D8901336143615361636173621
:101B6000183619361A360950015C0A5002580B50C3
:101B700003580C5004580D5005580E5006580F507D
:101B8000075810500858D8A0C8EF0DF0CAEF0DF054
:101B9000DBEF0DF00950015E0A50025A0B50035A58
:101BA0000C50045A0D50055A0E50065A0F50075A41
:101BB0001050085A1380D89010320F320E320D3266
:101BC0000C320B320A320932112EAAEF0DF01250EC
:101BD000D8B4EDEF0DF0EFEF0DF0FFEF0DF01A1EA2
:101BE000191E181E171E161E151E141E136C000E2D
:101BF0001422152216221722182219221A2213C083
:101C000001F014C002F015C003F016C004F017C0B4
:101C100005F018C006F019C007F01AC008F012004D
:101C2000000E126E08BE19EF0EF017EF0EF02BEF3C
:101C30000EF0081E071E061E051E041E031E021EB1
:101C4000016C000E02220322042205220622072232
:101C50000822010E126E10BE32EF0EF030EF0EF0C1
:101C600042EF0EF0101E0F1E0E1E0D1E0C1E0B1E40
:101C70000A1E096C000E0A220B220C220D220E22D3
:101C80000F22102209500A100B100C100D100E100C
:101C90000F101010D8B44FEF0EF051EF0EF099EF77
:101CA0000EF0010E116E5FEF0EF0D89009360A3675
:101CB0000B360C360D360E360F361036112A10AE96
:101CC00064EF0EF066EF0EF055EF0EF00950015C78
:101CD0000A5002580B5003580C5004580D50055828
:101CE0000E5006580F50075810500858D8A07BEFD8
:101CF0000EF07DEF0EF08DEF0EF00950015E0A50F0
:101D0000025A0B50035A0C50045A0D50055A0E50EB
:101D1000065A0F50075A1050085AD89010320F32F6
:101D20000E320D320C320B320A320932112E66EFAE
:101D30000EF01250D8B49FEF0EF0A1EF0EF0B1EFFD
:101D40000EF0081E071E061E051E041E031E021EA0
:101D5000016C000E02220322042205220622072221
:101D6000082201C001F002C002F003C003F004C069
:101D700004F005C005F006C006F007C007F008C073
:101D800008F012000001DD6F0001DD51D8A4CBEF97
:101D90000EF0CDEF0EF0CDEF0EF0DD05D8A4D3EFB1
:101DA0000EF0D5EF0EF0D5EF0EF0020EDD19D8A42F
:101DB000DCEF0EF0DEEF0EF0DEEF0EF0030EDD19BD
:101DC000D8A4E5EF0EF0E7EF0EF0E7EF0EF0040E0B
:101DD000DD19D8A4EEEF0EF0F0EF0EF0F0EF0EF0FC
:101DE000050EDD19D8A4F7EF0EF0F9EF0EF0F9EFBC
:101DF0000EF0060EDD19D8A400EF0FF002EF0FF081
:101E000002EF0FF0070EDD19D8A409EF0FF00BEF6A
:101E10000FF00BEF0FF0080EDD19D8A412EF0FF042
:101E200014EF0FF014EF0FF0090EDD19D8A41BEF1B
:101E30000FF01DEF0FF01DEF0FF0790E606F000E29
:101E4000616F0A0E626F0E0E636FDDC064F0656B2A
:101E500034EC11F0790E026E000E036EF2EC12F00B
:101E6000120001C0D9FF02C0DAFF000EDF6E20EEC3
:101E700001F00150D9260250DA22010EDF6E20EE69
:101E800002F00150D9260250DA22A30EDE6E0F0EA8
:101E9000DD6E20EE04F00150D9260250DA227D0ECC
:101EA000DE6E0F0EDD6E20EE06F00150D9260250D8
:101EB000DA22040EDF6E20EE07F00150D926025020
:101EC000DA22C70EDE6E000EDD6E03C0D9FF04C03D
:101ED000DAFF000EDF6E20EE01F00350D926045029
:101EE000DA22010EDF6E20EE02F00350D9260450F4
:101EF000DA22A00EDE6E0F0EDD6E20EE04F003502F
:101F0000D9260450DA227F0EDE6E0F0EDD6E20EE33
:101F100006F00350D9260450DA22060EDF6E20EEBA
:101F200007F00350D9260450DA22C70EDE6E000EE9
:101F3000DD6E120003500410D8B4A1EF0FF0A3EF30
:101F40000FF0ACEF0FF003500410D8A4AAEF0FF07D
:101F5000ACEF0FF0B1EF0FF00150DEEC13F0FEEF3D
:101F60000FF020EE09F00350D9260450DA22DE509B
:101F7000DE10D8B4BEEF0FF0C0EF0FF0DBEF0FF0C4
:101F800020EE09F00350D9260450DA2210EE03F0B7
:101F90000350E1260450E222DE50E65CE650800A5F
:101FA000096EDE50800A0958D8B0D9EF0FF0DBEF88
:101FB0000FF0FEEF0FF020EE03F00350D92604508F
:101FC000DA22DECF05F0DDCF06F003C0D9FF04C072
:101FD000DAFFDECF07F0DDCF08F005500724D96E19
:101FE00006500820DA6E01C0DFFF20EE03F0035038
:101FF000D9260450DA22DE2A000EDD22120000016A
:10200000F8A105EF10F007EF10F011EF10F013C07A
:102010000AF014C00BF011C00CF012C00DF0FDEC72
:1020200011F016BE16EF10F018EF10F01EEF10F0C2
:1020300015C01AF016C01BF022EF10F0000E1B6E38
:10204000000E1A6E000E196E000E186E34EF10F0AE
:10205000000E026E200E016E11C003F012C004F0DB
:102060009AEC0FF0184A192A1A50185C1950800A75
:10207000176E1B50800A1758D8A041EF10F043EF9D
:1020800010F028EF10F00001F8B149EF10F04BEF1D
:1020900010F055EF10F013C00AF014C00BF011C08F
:1020A0000CF012C00DF0FDEC11F013C001F014C0E3
:1020B00002F0BDEC12F01A500124116E1B500220E8
:1020C000126E1200000E066E000E056E0350041014
:1020D000D8B46DEF10F06FEF10F097EF10F0010E25
:1020E000076E77EF10F0D89003360436072A04AE57
:1020F0007CEF10F07EEF10F073EF10F0D890053603
:1021000006360350015C04500258D8A08AEF10F044
:102110008CEF10F091EF10F00350015E0450025A62
:102120000580D89004320332072E7EEF10F005C0F0
:1021300001F006C002F01200790E0001606F000E7F
:10214000616F010E626F0E0E636F58C0D9FF59C0E8
:10215000DAFFDECF64F0DDCF65F020EE02F05850FC
:10216000D9265950DA22DECF66F0DDCF67F020EEB7
:1021700004F05850D9265950DA22DECF68F0DDCF6E
:1021800069F020EE06F05850D9265950DA22DECFF9
:102190006AF0DDCF6BF034EC11F0790E026E000EB8
:1021A000036EF2EC12F0120052C056F053C057F01A
:1021B000000E0001F36F000EF26FF2EF10F050C04E
:1021C00040F051C041F0560E426E000E436E54C0B6
:1021D00044F055C045F072EC0CF040500001F2277D
:1021E0004150F32356C0F6FF57C0F7FF0800F550E3
:1021F0000009D8A4FEEF10F000EF11F0DFEF10F0AF
:10220000F2C050F0F3C051F012005DEC11F00CC0C0
:10221000D9FF0DC0DAFF05C0DEFF06C0DDFFD5EC3B
:1022200011F020EE04F00C50D9260D50DA2205C032
:10223000DEFF06C0DDFF85EC11F020EE02F00C5051
:10224000D9260D50DA2205C0DEFF06C0DDFFADEC59
:1022500011F020EE06F00C50D9260D50DA2205C000
:10226000DEFF06C0DDFF1200640E00016C6F000E81
:102270006D6F60C06EF061C06FF0000E726F000E87
:10228000716F000E786F000E776F6E0E506E000E3D
:10229000516E62C052F063C053F06C0E546E000E6B
:1022A000556ED4EC10F0000171516025D96E725159
:1022B0006121DA6E000EDF6E1200D4EC13F0520EC4
:1022C000C9EC13F0B60EC9EC13F0D9EC13F0530EB1
:1022D000C9EC13F0010E40EC12F0076E07500A6EC5
:1022E0000B6A000E40EC12F0076E0750096E086A88
:1022F0000A5008100A6E0B5009100B6ECFEC13F049
:102300000AC005F00BC006F01200D4EC13F0520E18
:10231000C9EC13F0B80EC9EC13F0D9EC13F0530E5E
:10232000C9EC13F0010E40EC12F0076E07500A6E74
:102330000B6A000E40EC12F0076E0750096E086A37
:102340000A5008100A6E0B5009100B6ECFEC13F0F8
:102350000AC005F00BC006F01200D4EC13F0520EC8
:10236000C9EC13F0B40EC9EC13F0D9EC13F0530E12
:10237000C9EC13F0010E40EC12F0076E07500A6E24
:102380000B6A000E40EC12F0076E0750096E086AE7
:102390000A5008100A6E0B5009100B6ECFEC13F0A8
:1023A0000AC005F00BC006F01200D4EC13F0520E78
:1023B000C9EC13F0BA0EC9EC13F0D9EC13F0530EBC
:1023C000C9EC13F0010E40EC12F0076E07500A6ED4
:1023D0000B6A000E40EC12F0076E0750096E086A97
:1023E0000A5008100A6E0B5009100B6ECFEC13F058
:1023F0000AC005F00BC006F01200000E106E000EB1
:102400000F6E0EEF12F00EC001F0026A0CC003F066
:102410000DC004F09AEC0FF00F4A102A0F500A2456
:10242000D96E10500B20DA6EDF500E6E0E50D8A40D
:102430001CEF12F01EEF12F003EF12F01200859461
:10244000839E879C85987D947B9E7F9C7D98BD50C4
:102450008F0B3009BD6EE00EBE16BF50F00B0109A8
:10246000BF6EC70EBC6EBD8E0A0E0E01746F0B0ED2
:10247000696F000EA36E000EA06EA48EA18E1200D6
:10248000036E77EC13F00E01DA8777EC13F0D5CEFC
:1024900004F077EC13F00350D8B451EF12F055EF7D
:1024A00012F0026A022A56EF12F0026A023A02465B
:1024B0000E01DA510218DF0B0218DA6FDA890450C4
:1024C0001200BE0EF66E270EF76E000EF86E0900B3
:1024D000F5CFFAF001EE00F05C0EEE6AE806FDE1E1
:1024E00000EEDEF01C0EEE6AE806FDE15F6A5E6A51
:1024F0005D6A5C6A000EF86E0E0EF76E00016AEF00
:102500000BF014BE8EEF12F0145006E11304D8B095
:102510008CEF12F08EEF12F09CEF12F013C015F05A
:1025200014C016F0151E161E154A162A15C013F0F3
:1025300016C014F0A0EF12F013C013F014C014F082
:102540001200000E146E10500E5C11500F58D8B0CF
:10255000ACEF12F0AEEF12F0BBEF12F01050125CC5
:1025600011501358D8A0B7EF12F0B9EF12F0BBEF2B
:1025700012F0010E146E1450120001C003F002C0DC
:1025800004F0C5EF12F0014A022A01C0D9FF02C0CF
:10259000DAFFDF50D8A4CFEF12F0D1EF12F0C3EF83
:1025A00012F00350015C016E04500258026E1200DA
:1025B00062EC13F0010E036E000E9EEC13F03F0E62
:1025C000056E550EE82EFED7052EFCD700F0030E43
:1025D000036E000E9EEC13F0D50E036E010E9EEC02
:1025E00013F01200FDEF12F002C0D9FF03C0DAFFB2
:1025F000DF50BDEC13F0024A032A02C0D9FF03C02A
:10260000DAFFDF50D8A407EF13F009EF13F0F4EF6F
:1026100012F012007F827E9E7998110E116E3C0E90
:10262000106ECB0EE82EFED7102EFCD7112EFAD747
:1026300000F00EC00CF00FC00DF005EC11F0120010
:102640007F927E9E7988110E116E3C0E106ECB0E1D
:10265000E82EFED7102EFCD7112EFAD700F00EC0B0
:102660000CF00FC00DF005EC11F012007F927E8E81
:102670007998110E116E3C0E106ECB0EE82EFED71F
:10268000102EFCD7112EFAD700F00EC00CF00FC0A0
:102690000DF005EC11F012007F827E8E7988110E0C
:1026A000116E3C0E106ECB0EE82EFED7102EFCD70E
:1026B000112EFAD700F00EC00CF00FC00DF005EC93
:1026C00011F012000E01D951F00B0809D96FD98B06
:1026D0009F0ED66F848A848CA79BA79D1D0E1D6FAD
:1026E0001E0E1C6F1C0E6F6F1B0E706F12000E0102
:1026F000D8B57DEF13F07FEF13F077EF13F0DACE5C
:1027000001F01F0E0116D8A488EF13F08AEF13F022
:1027100077EF13F0120008500A02F3CF0CF0F4CF59
:102720000DF008500B02F3500D2609500A02F35029
:102730000D260CC008F00DC009F01200046ED4EC98
:1027400013F0520EC9EC13F004508009C9EC13F0D9
:102750000350C9EC13F0CFEC13F01200120E0E016F
:10276000626F110E156FE997E895330EE56F000E55
:10277000E66FE789E88BE78F1200016E0E0137A53F
:10278000C4EF13F0C6EF13F0BEEF13F001C0E4FE88
:102790001200026E77EC13F002C0D5FE120077EC47
:1027A00013F00E01DA85120077EC13F00E01DA81D6
:0F27B000120077EC13F00E01DA83120012000111
:020000040020DA
:10000000FF0FFF0FFF0FFF0FFF0FFF0FFF0FFF0F80
:020000040030CA
:0C000000AAFFFFFF9FFFFFFFFFFFFFFFB5
:00000001FF
