:0400000014EF00F009
:100008005F820E0133AB0BEF00F00DEF00F012EF43
:1000180000F00201EB4BEC2B0E01339B5F921100B9
:040028007BEF29F051
:100E0000000000004B676F206261636B2066696EB3
:100E10006973680D0A00256409256409256409259C
:100E2000640D0A00726573756C743A2025640D0AAE
:100E300000676F206261636B0D0A00726570656107
:050E4000740D0A000022
:100E4600000E00017A6F000E796F000E7C6F000EA7
:100E56007B6F000E826F000E816F000E886F000E92
:100E6600876F000E7E6F000E7D6F000E8D6F000E79
:100E76008C6F000E8A6F000E896F000E866F000E53
:100E8600856F000E806F000E7F6F000E8B6FABECD0
:100E96002CF0090E0001766F1E0E756FE40EE82E1B
:100EA600FED7752FFCD7762FFAD700F071C00CF05D
:100EB60072C00DF0ABEC29F073C0D9FF74C0DAFF35
:100EC600DECF75F0DDCF76F075C001F076C002F0AA
:100ED600036A046A000E5EEC1DF001C013F002C046
:100EE60014F003C015F004C016F071C0D9FF72C02B
:100EF600DAFFDECF77F0DDCF78F077C001F078C08B
:100F060002F0036A046A000E5EEC1DF001C00FF0E9
:100F160002C010F003C011F004C012F0A1EC13F0EF
:100F26000FC028F010C029F011C02AF012C02BF013
:100F3600000E2C6E000E2D6EC80E2E6E420E2F6EFB
:100F4600B5EC0FF028C08EF029C08FF02AC090F0C3
:100F56002BC091F08EC066F08FC067F090C068F02D
:100F660091C069F0D2EC2BF066C083F067C084F0C4
:100F7600000120EE02F07351D9267451DA22DECF39
:100F860075F0DDCF76F075C001F076C002F0036A29
:100F9600046A000E5EEC1DF001C013F002C014F0EE
:100FA60003C015F004C016F0000120EE02F07151E6
:100FB600D9267251DA22DECF77F0DDCF78F077C00E
:100FC60001F078C002F0036A046A000E5EEC1DF0C0
:100FD60001C00FF002C010F003C011F004C012F0FF
:100FE600A1EC13F00FC028F010C029F011C02AF0B0
:100FF60012C02BF0000E2C6E000E2D6EC80E2E6E3B
:10100600420E2F6EB5EC0FF028C08EF029C08FF07F
:101016002AC090F02BC091F08EC066F08FC067F0AA
:1010260090C068F091C069F0D2EC2BF0000120EE80
:1010360004F07351D9267451DA22DECF75F0DDCF74
:1010460076F075C001F076C002F0036A046A000EFD
:101056005EEC1DF001C013F002C014F003C015F0E1
:1010660004C016F0000120EE04F07151D926725129
:10107600DA22DECF77F0DDCF78F077C001F078C0E6
:1010860002F0036A046A000E5EEC1DF001C00FF068
:1010960002C010F003C011F004C012F0A1EC13F06E
:1010A6000FC028F010C029F011C02AF012C02BF092
:1010B600000E2C6E000E2D6EC80E2E6E420E2F6E7A
:1010C600B5EC0FF028C08EF029C08FF02AC090F042
:1010D6002BC091F08EC066F08FC067F090C068F0AC
:1010E60091C069F0D2EC2BF0050E0001766F0F0E61
:1010F600756FF10EE82EFED7752FFCD7762FFAD72F
:10110600CBEC2CF0090E0001766F1E0E756FE40E07
:10111600E82EFED7752FFCD7762FFAD700F071C0D0
:101126000CF072C00DF0ABEC29F0000120EE06F0D9
:101136007351D9267451DA22DECF75F0DDCF76F001
:1011460075C001F076C002F0036A046A000E5EEC18
:101156001DF001C013F002C014F003C015F004C066
:1011660016F071C0D9FF72C0DAFFDECF77F0DDCF9F
:1011760078F077C001F078C002F0036A046A000EC6
:101186005EEC1DF001C00FF002C010F003C011F0BC
:1011960004C012F0A1EC13F00FC028F010C029F023
:1011A60011C02AF012C02BF0000E2C6E000E2D6E10
:1011B600C80E2E6E420E2F6EB5EC0FF028C08EF0C4
:1011C60029C08FF02AC090F02BC091F08EC066F037
:1011D6008FC067F090C068F091C069F0D2EC2BF038
:1011E60066C081F067C082F0000120EE08F07351FE
:1011F600D9267451DA22DECF75F0DDCF76F075C0D0
:1012060001F076C002F0036A046A000E5EEC1DF07F
:1012160001C013F002C014F003C015F004C016F0AC
:10122600000120EE02F07151D9267251DA22DECF8A
:1012360077F0DDCF78F077C001F078C002F0036A6E
:10124600046A000E5EEC1DF001C00FF002C010F043
:1012560003C011F004C012F0A1EC13F00FC028F087
:1012660010C029F011C02AF012C02BF0000E2C6E0F
:10127600000E2D6EC80E2E6E420E2F6EB5EC0FF0C0
:1012860028C08EF029C08FF02AC090F02BC091F0B4
:101296008EC066F08FC067F090C068F091C069F0AC
:1012A600D2EC2BF066C087F067C088F0000120EE14
:1012B6000AF07351D9267451DA22DECF75F0DDCFEC
:1012C60076F075C001F076C002F0036A046A000E7B
:1012D6005EEC1DF001C013F002C014F003C015F05F
:1012E60004C016F0000120EE04F07151D9267251A7
:1012F600DA22DECF77F0DDCF78F077C001F078C064
:1013060002F0036A046A000E5EEC1DF001C00FF0E5
:1013160002C010F003C011F004C012F0A1EC13F0EB
:101326000FC028F010C029F011C02AF012C02BF00F
:10133600000E2C6E000E2D6EC80E2E6E420E2F6EF7
:10134600B5EC0FF028C08EF029C08FF02AC090F0BF
:101356002BC091F08EC066F08FC067F090C068F029
:1013660091C069F0D2EC2BF0DBEC2CF0090E0001F9
:10137600766F1E0E756FE40EE82EFED7752FFCD71E
:10138600762FFAD700F071C00CF072C00DF0ABECFE
:1013960029F0000120EE0CF07351D9267451DA229F
:1013A600DECF75F0DDCF76F075C001F076C002F0C5
:1013B600036A046A000E5EEC1DF001C013F002C061
:1013C60014F003C015F004C016F071C0D9FF72C046
:1013D600DAFFDECF77F0DDCF78F077C001F078C0A6
:1013E60002F0036A046A000E5EEC1DF001C00FF005
:1013F60002C010F003C011F004C012F0A1EC13F00B
:101406000FC028F010C029F011C02AF012C02BF02E
:10141600000E2C6E000E2D6EC80E2E6E420E2F6E16
:10142600B5EC0FF028C08EF029C08FF02AC090F0DE
:101436002BC091F08EC066F08FC067F090C068F048
:1014460091C069F0D2EC2BF066C08CF067C08DF0CD
:10145600000120EE0EF07351D9267451DA22DECF48
:1014660075F0DDCF76F075C001F076C002F0036A44
:10147600046A000E5EEC1DF001C013F002C014F009
:1014860003C015F004C016F0000120EE02F0715101
:10149600D9267251DA22DECF77F0DDCF78F077C029
:1014A60001F078C002F0036A046A000E5EEC1DF0DB
:1014B60001C00FF002C010F003C011F004C012F01A
:1014C600A1EC13F00FC028F010C029F011C02AF0CB
:1014D60012C02BF0000E2C6E000E2D6EC80E2E6E56
:1014E600420E2F6EB5EC0FF028C08EF029C08FF09B
:1014F6002AC090F02BC091F08EC066F08FC067F0C6
:1015060090C068F091C069F0D2EC2BF066C089F00B
:1015160067C08AF0000120EE10F07351D92674518D
:10152600DA22DECF75F0DDCF76F075C001F076C039
:1015360002F0036A046A000E5EEC1DF001C013F0AF
:1015460002C014F003C015F004C016F0000120EE2E
:1015560004F07151D9267251DA22DECF77F0DDCF51
:1015660078F077C001F078C002F0036A046A000ED2
:101576005EEC1DF001C00FF002C010F003C011F0C8
:1015860004C012F0A1EC13F00FC028F010C029F02F
:1015960011C02AF012C02BF0000E2C6E000E2D6E1C
:1015A600C80E2E6E420E2F6EB5EC0FF028C08EF0D0
:1015B60029C08FF02AC090F02BC091F08EC066F043
:1015C6008FC067F090C068F091C069F0D2EC2BF044
:1015D60066C085F067C086F0000120EE1AF07351F0
:1015E600D9267451DA22DECF75F0DDCF76F075C0DC
:1015F60001F076C002F0036A046A000E5EEC1DF08C
:1016060001C013F002C014F003C015F004C016F0B8
:10161600000120EE06F07151D9267251DA22DECF92
:1016260077F0DDCF78F077C001F078C002F0036A7A
:10163600046A000E5EEC1DF001C00FF002C010F04F
:1016460003C011F004C012F0A1EC13F00FC028F093
:1016560010C029F011C02AF012C02BF0000E2C6E1B
:10166600000E2D6EC80E2E6E420E2F6EB5EC0FF0CC
:1016760028C08EF029C08FF02AC090F02BC091F0C0
:101686008EC066F08FC067F090C068F091C069F0B8
:10169600D2EC2BF0000E00016B6F000E6A6F8CC04F
:1016A6006CF08DC06DF0000E6F6F460E6E6FB5EC70
:1016B6002BF00009D8B462EF0BF064EF0BF0D5EF16
:1016C6000BF085C001F086C002F0036A046A000EC2
:1016D6005EEC1DF001C013F002C014F003C015F05B
:1016E60004C016F0000189518725756F8A5188213B
:1016F600766F75C001F076C002F0036A046A000EC8
:101706005EEC1DF001C00FF002C010F003C011F036
:1017160004C012F0A1EC13F00FC028F010C029F09D
:1017260011C02AF012C02BF0000E2C6E000E2D6E8A
:10173600480E2E6E430E2F6EB5EC0FF028C08EF0BD
:1017460029C08FF02AC090F02BC091F0000E000146
:101756006B6F000E6A6F8EC066F08FC067F090C028
:1017660068F091C069F0D2EC2BF066C06CF067C0EF
:101776006DF0010E00016F6F9B0E6E6FB5EC2BF0D6
:101786000009D8B4C9EF0BF0CBEF0BF0D0EF0BF09C
:10179600030E00018B6FCEEF0CF0020E00018B6F73
:1017A600CEEF0CF0000E00016B6F000E6A6F89C061
:1017B6006CF08AC06DF0000E6F6F4B0E6E6FB5EC5D
:1017C6002BF00009D8B4EAEF0BF0ECEF0BF056EF74
:1017D6000CF083C001F084C002F0036A046A000EB4
:1017E6005EEC1DF001C013F002C014F003C015F04A
:1017F60004C016F081C001F082C002F0036A046AD8
:10180600000E5EEC1DF001C00FF002C010F003C028
:1018160011F004C012F0A1EC13F00FC028F010C0B4
:1018260029F011C02AF012C02BF0000E2C6E000E0B
:101836002D6EFA0E2E6E430E2F6EB5EC0FF028C0ED
:101846008EF029C08FF02AC090F02BC091F0010EC7
:1018560000016B6FE00E6A6F8EC066F08FC067F096
:1018660090C068F091C069F0D2EC2BF066C06CF0C5
:1018760067C06DF0020E00016F6F080E6E6FB5EC5B
:101886002BF00009D8B44AEF0CF04CEF0CF051EFF6
:101896000CF0060E00018B6FCEEF0CF0010E00016E
:1018A6008B6FCEEF0CF0000189518C5D8A518D59FA
:1018B600D8B060EF0CF062EF0CF066EF0CF0070E9C
:1018C6008B6FCEEF0CF085C001F086C002F0036A84
:1018D600046A000E5EEC1DF001C013F002C014F0A5
:1018E60003C015F004C016F089C001F08AC002F0EA
:1018F600036A046A000E5EEC1DF001C00FF002C020
:1019060010F003C011F004C012F0A1EC13F00FC0E8
:1019160028F010C029F011C02AF012C02BF0000EDA
:101926002C6E000E2D6EFA0E2E6E430E2F6EB5EC3B
:101936000FF028C08EF029C08FF02AC090F02BC07F
:1019460091F0000E00016B6F000E6A6F8EC066F09C
:101956008FC067F090C068F091C069F0D2EC2BF0B0
:1019660066C06CF067C06DF0020E00016F6F260E48
:101976006E6FB5EC2BF00009D8B4C4EF0CF0C6EFCF
:101986000CF0CBEF0CF0050E00018B6FCEEF0CF0D8
:10199600040E00018B6F000E6B6F5A0E6A6F8CC0BF
:1019A6006CF08DC06DF08CC001F08DC002F0000EA1
:1019B600046E1E0E036E98EC2CF001C06EF002C091
:1019C6006FF0B5EC2BF00009D8B4ECEF0CF0EEEFAD
:1019D6000CF012EF0DF0000E00016B6F5A0E6A6FDD
:1019E60087C06CF088C06DF087C001F088C002F037
:1019F600000E046E1E0E036E98EC2CF001C06EF005
:101A060002C06FF0B5EC2BF00009D8B40DEF0DF065
:101A16000FEF0DF012EF0DF0080E00018B6F000EA8
:101A260000016B6F000E6A6F8CC06CF08DC06DF09C
:101A3600000E6F6F190E6E6FB5EC2BF00009D8B45F
:101A460027EF0DF029EF0DF043EF0DF0000E00012A
:101A56006B6F000E6A6F83C06CF084C06DF0000E71
:101A66006F6F5A0E6E6FB5EC2BF00009D8B43EEFCF
:101A76000DF040EF0DF043EF0DF0000E00018B6FFF
:101A8600080E00018B19D8A44BEF0DF04DEF0DF0A9
:101A960052EF0DF0010E016E020E19EC1AF0000164
:101AA6008B5112000450800B0D6E045004240F6EEF
:101AB60003AE60EF0DF062EF0DF063EF0DF00F80F7
:101AC6000F50D8B469EF0DF06BEF0DF080EF0DF00D
:101AD6000F28D8A471EF0DF073EF0DF07BEF0DF02A
:101AE600000E016E000E026E000E036E000E046EF6
:101AF600038E000E046E88EF0DF0000E016E000ED0
:101B0600026E000E036E000E046E0850800B0E6E01
:101B16000D500E18D8B492EF0DF094EF0DF095EF2E
:101B26000DF00D8C085008240E6E07AE9DEF0DF0DB
:101B36009FEF0DF0A0EF0DF00E800E50D8B4A6EF7B
:101B46000DF0A8EF0DF0BDEF0DF00E28D8A4AEEF06
:101B56000DF0B0EF0DF0B8EF0DF0000E056E000EB3
:101B6600066E000E076E000E086E078E000E086EDB
:101B7600C5EF0DF0000E056E000E066E000E076E28
:101B8600000E086E0F500E5CD8B0CCEF0DF0CEEF05
:101B96000DF0F5EF0DF00DACD3EF0DF0D5EF0DF028
:101BA600D7EF0DF0800E0D1A0FC010F00EC00FF01B
:101BB60010C00EF001C010F005C001F010C005F015
:101BC60002C010F006C002F010C006F003C010F00C
:101BD60007C003F010C007F004C010F008C004F0FE
:101BE60010C008F0000E106E0F500EC009F00A6A01
:101BF600095E000E0A5A0ABE0AEF0EF00A5009E103
:101C06001A0E095CD8A00AEF0EF00CEF0EF043EFA7
:101C16000EF00150021003100410D8A415EF0EF0B8
:101C260018EF0EF0010E19EF0EF0000E106E000EFA
:101C3600016E000E026E000E036E000E046E0EC0E4
:101C46000FF04CEF0EF010A02BEF0EF02DEF0EF074
:101C560033EF0EF0D89010300109106E35EF0EF00C
:101C6600D890103201A03AEF0EF03CEF0EF03DEFA7
:101C76000EF0108E043404320332023201320F2A7F
:101C86000E500F5CD8A04AEF0EF04CEF0EF026EF88
:101C96000EF00DBC51EF0EF053EF0EF093EF0EF079
:101CA6000F50D8A459EF0EF05BEF0EF065EF0EF073
:101CB600000E016E000E026E000E036E000E046E24
:101CC600B4EF0FF0055001260650022207500322FA
:101CD6000850042204A072EF0EF074EF0EF020EF0D
:101CE6000FF010A079EF0EF07BEF0EF081EF0EF003
:101CF600D89010300109106E83EF0EF0D890103294
:101D060001A088EF0EF08AEF0EF08BEF0EF0108E2A
:101D1600043404320332023201320F2A20EF0FF06C
:101D26000550015C06500258075003580450800ABB
:101D3600096E0850800A0958D8B0A4EF0EF0A6EF35
:101D46000EF0D1EF0EF00150055C096E02500658F8
:101D56000A6E035007580B6E045008580C6EFF0E9F
:101D66000924016EFF0E0A20026EFF0E0B20036E81
:101D7600FF0E0C20046E800E0D1A106C1050D8A4A5
:101D8600C7EF0EF0C9EF0EF0D9EF0EF0010E0126E7
:101D9600000E022203220422D9EF0EF00550015E46
:101DA6000650025A0750035A0850045A01500210AE
:101DB60003100410D8A4E2EF0EF0E4EF0EF019EFD2
:101DC6000FF01050D8A4EAEF0EF0ECEF0EF019EF7A
:101DD6000FF0000E016E000E026E000E036E000E76
:101DE600046EB4EF0FF0D89001360236033604368F
:101DF60010AE00EF0FF002EF0FF003EF0FF00180CF
:101E060010A008EF0FF00AEF0FF00EEF0FF0D880DA
:101E1600103610EF0FF0D89010360F50D8B416EFDA
:101E26000FF018EF0FF019EF0FF00F0603AE1EEFCD
:101E36000FF020EF0FF0F6EF0EF0000E0E6E10AE64
:101E460027EF0FF029EF0FF041EF0FF010C009F068
:101E56007F0E0916D8B432EF0FF034EF0FF038EFDB
:101E66000FF0010E0E6E41EF0FF001A03DEF0FF0E7
:101E76003FEF0FF041EF0FF034EF0FF00E50D8B4F4
:101E860047EF0FF049EF0FF074EF0FF0010E012648
:101E9600000E02220322042204A054EF0FF056EF94
:101EA6000FF074EF0FF001C009F002C00AF003C092
:101EB6000BF004C00CF00C340C320B320A3209322F
:101EC60009C001F00AC002F00BC003F00CC004F018
:101ED6000F28D8B471EF0FF073EF0FF074EF0FF017
:101EE6000F2A0F28D8B47AEF0FF07CEF0FF084EFAB
:101EF6000FF00F50D8A482EF0FF084EF0FF096EF9B
:101F06000FF0000E016E000E026E000E036E000E44
:101F1600046E0F50D8A492EF0FF094EF0FF096EFE7
:101F26000FF0000E0D6E0FA09BEF0FF09DEF0FF060
:101F3600A0EF0FF0038EA1EF0FF0039ED8900F30A5
:101F4600046E0DAEA9EF0FF0ABEF0FF0ACEF0FF094
:101F5600048E01C001F002C002F003C003F004C009
:101F660004F012002B50800B346E2B502B243A6E4B
:101F76002AAEC0EF0FF0C2EF0FF0C3EF0FF03A80BA
:101F86003A50D8B4C9EF0FF0CBEF0FF0DEEF0FF0F9
:101F96003A28D8A4D1EF0FF0D3EF0FF0DBEF0FF014
:101FA600000E286E000E296E000E2A6E000E2B6E95
:101FB6002A8EE6EF0FF0000E286E000E296E000E38
:101FC6002A6E000E2B6E2F50800B341A2F502F24A2
:101FD600396E2EAEF1EF0FF0F3EF0FF0F4EF0FF0D6
:101FE60039803950D8B4FAEF0FF0FCEF0FF00FEF4D
:101FF60010F03928D8A402EF10F004EF10F00CEF1F
:1020060010F0000E2C6E000E2D6E000E2E6E000EC1
:102016002F6E2E8E17EF10F0000E2C6E000E2D6E0A
:10202600000E2E6E000E2F6E3950D8B41DEF10F034
:102036001FEF10F027EF10F03A50D8A425EF10F05C
:1020460027EF10F031EF10F0000E286E000E296E0B
:10205600000E2A6E000E2B6EC9EF11F02E502802CC
:10206600F3CF3FF0F4CF40F03F50356E366A376A13
:10207600386A40503B6E3C6A3D6A3E6A2D502902E2
:10208600F3CF3FF0F4CF40F03F503526000E362216
:102096003722382240503B26000E3C223D223E226B
:1020A6002C502A02F3CF3FF0F4CF40F03F503526B4
:1020B600000E36223722382240503B26000E3C22A4
:1020C6003D223E2237C038F036C037F035C036F0F4
:1020D600356A2C502902F3CF3FF0F4CF40F03F5041
:1020E600352640503622000E3722000E38222D505B
:1020F6002802F3CF3FF0F4CF40F03F503526405052
:102106003622000E3722000E382237C038F036C08D
:1021160037F035C036F0356A2C502802F3CF3FF041
:10212600F4CF40F03F50352640503622000E37227D
:10213600000E38222E502902F3CF3FF0F4CF40F0A4
:102146003F503B2640503C22000E3D22000E3E22D0
:102156002D502A02F3CF3FF0F4CF40F03F503B26FC
:1021660040503C22000E3D22000E3E222E502A02F6
:10217600F3CF3FF0F4CF40F03F50306E4050316E19
:10218600326A336A32C033F031C032F030C031F0D7
:10219600306A30503B2631503C2232503D2233507B
:1021A6003E2235C030F036C031F037C032F038C08C
:1021B60033F0190EE4EF10F0D89033323232313268
:1021C6003032E82EDFEF10F030503B2631503C2203
:1021D60032503D2233503E2237C038F036C037F0F9
:1021E60035C036F0356A39503AC030F0316A30269B
:1021F600000E3122820E30243F6EFF0E3120406EDB
:102206001AEF11F0D8903B363C363D363E3638AEA6
:102216000FEF11F011EF11F012EF11F03B80D89093
:1022260035363636373638363F06D8A040063DAE08
:102236001FEF11F021EF11F005EF11F0000E396ECE
:1022460038AE28EF11F02AEF11F04EEF11F0FF0E25
:102256003514306EFF0E3614316EFF0E3714326EA3
:102266007F0E3814336E3050311032103310D8B41C
:102276003FEF11F041EF11F045EF11F0010E396E0D
:102286004EEF11F03BA04AEF11F04CEF11F04EEF7C
:1022960011F041EF11F03950D8B454EF11F056EF68
:1022A60011F07AEF11F0010E3B26000E3C223D2282
:1022B6003E223EA061EF11F063EF11F07AEF11F0CC
:1022C6003BC030F03CC031F03DC032F03EC033F090
:1022D6003334333232323132303230C03BF031C0F7
:1022E6003CF032C03DF033C03EF03F4A402A40BE8B
:1022F60085EF11F0405008E13F28D8A085EF11F096
:1023060087EF11F091EF11F0000E3B6E000E3C6E60
:10231600800E3D6E7F0E3E6EBFEF11F040BE9EEF0B
:1023260011F0405006E13F04D8B09CEF11F09EEF4B
:1023360011F0AAEF11F0000E3B6E000E3C6E000E7F
:102346003D6E000E3E6E000E346EBFEF11F03FC0C4
:102356003AF0FF0E3B16FF0E3C167F0E3D16000EA2
:102366003E163AA0B9EF11F0BBEF11F0BCEF11F039
:102376003D8ED8903A303E6E34503E123BC028F027
:102386003CC029F03DC02AF03EC02BF01200DDC251
:1023960053F0DEC254F0DFC255F0E0C256F041C041
:1023A60053F042C054F043C055F044C056F053C0F9
:1023B60045F054C046F055C047F056C048F0180ED8
:1023C600EAEF11F0D8904832473246324532E82ECD
:1023D600E5EF11F045504D6E4E6A4EBEFCEF11F022
:1023E6004E5009E1960E4D5CD8A0FCEF11F0FEEFC1
:1023F60011F008EF12F041C041F042C042F043C074
:1024060043F044C044F0A0EF13F053C045F054C06D
:1024160046F055C047F056C048F0200E18EF12F0AF
:10242600D8904832473246324532E82E13EF12F042
:102436004550461047104810D8B424EF12F026EF46
:1024460012F038EF12F041C001F042C002F043C072
:1024560003F044C004F0EFEC2BF001C041F002C0E1
:1024660042F003C043F004C044F04EBE46EF12F003
:102476004E5007E17E0E4D5CD8B044EF12F046EFA9
:1024860012F062EF12F053C028F054C029F055C084
:102496002AF056C02BF0000E2C6E000E2D6E000E8C
:1024A6002E6E000E2F6EB5EC0FF028C041F029C03D
:1024B60042F02AC043F02BC044F0A0EF13F0000E08
:1024C600056E000E066E000E076E4B0E086E41C0BE
:1024D60001F042C002F043C003F044C004F055ECE2
:1024E6000DF001C04FF002C050F003C051F004C01F
:1024F60052F0000E056E000E066E000E076ECB0E35
:10250600086E4FC001F050C002F051C003F052C037
:1025160004F055EC0DF001C049F002C04AF003C0CA
:102526004BF004C04CF049C011F04AC012F04BC049
:1025360013F04CC014F041C015F042C016F043C071
:1025460017F044C018F0CEEC2AF011C057F012C0B4
:1025560058F013C059F014C05AF0000E016E000E68
:10256600026E000E036E3F0E046E57C005F058C093
:1025760006F059C007F05AC008F0BEEC24F0D8B0F7
:10258600C7EF12F0C9EF12F0FFEF12F041C005F0ED
:1025960042C006F043C007F044C008F057C001F03F
:1025A60058C002F059C003F05AC004F055EC0DF0C3
:1025B60001C04FF002C050F003C051F004C052F009
:1025C6004FC001F050C002F051C003F052C004F0F9
:1025D600000E056E000E066E800E076EBF0E086EAC
:1025E60055EC0DF001C057F002C058F003C059F089
:1025F60004C05AF068EF13F0000E016E000E026E72
:10260600000E036EBF0E046E57C005F058C006F0EC
:1026160059C007F05AC008F0BEEC24F0D8A016EF57
:1026260013F018EF13F04EEF13F041C005F042C05F
:1026360006F043C007F044C008F057C001F058C088
:1026460002F059C003F05AC004F055EC0DF001C079
:102656004FF002C050F003C051F004C052F04FC01A
:1026660001F050C002F051C003F052C004F0000E59
:10267600056E000E066E800E076E3F0E086E55EC58
:102686000DF001C057F002C058F003C059F004C065
:102696005AF068EF13F057C001F058C002F059C065
:1026A60003F05AC004F041C005F042C006F043C032
:1026B60007F044C008F055EC0DF001C057F002C019
:1026C60058F003C059F004C05AF053C045F054C046
:1026D60046F055C047F056C048F0200E78EF13F08C
:1026E600D8904832473246324532E82E73EF13F01F
:1026F6004550461047104810D8B484EF13F086EFC3
:1027060013F098EF13F057C001F058C002F059C00B
:1027160003F05AC004F0EFEC2BF001C057F002C0F2
:1027260058F003C059F004C05AF057C041F058C0E1
:1027360042F059C043F05AC044F012001250800BC8
:102746001F6E12501224266E11AEACEF13F0AEEFD0
:1027560013F0AFEF13F026802650D8B4B5EF13F080
:10276600B7EF13F0CCEF13F02628D8A4BDEF13F083
:10277600BFEF13F0C7EF13F0000E0F6E000E106ED2
:10278600000E116E000E126E118E000E126ED4EF38
:1027960013F0000E0F6E000E106E000E116E000E7E
:1027A600126E1650800B1F1A16501624276E15AE81
:1027B600DFEF13F0E1EF13F0E2EF13F0278027507D
:1027C600D8B4E8EF13F0EAEF13F0FFEF13F0272881
:1027D600D8A4F0EF13F0F2EF13F0FAEF13F0000EB7
:1027E600136E000E146E000E156E000E166E158E0C
:1027F600000E166E07EF14F0000E136E000E146E28
:10280600000E156E000E166E1350141015101610CD
:10281600D8A410EF14F012EF14F02AEF14F0000E03
:102826000F6E000E106E000E116E000E126E800EF0
:1028360011127F0E12121F5012120FC00FF010C08D
:1028460010F011C011F012C012F06DEF15F0265005
:10285600D8A430EF14F032EF14F03CEF14F0000E71
:102866000F6E000E106E000E116E000E126E6DEFE2
:1028760015F0275026C017F0186A175E000E185A72
:102886007F0E1724206E000E1820216E0FC01BF03D
:1028960010C01CF011C01DF012C01EF0000E0F6E0D
:1028A600000E106E000E116E000E126E000E226EDD
:1028B600000E236E000E246E000E256E000E276E8F
:1028C6009DEF14F02750D8B46BEF14F06DEF14F0B1
:1028D60084EF14F0D8901B361C361D361E36D89061
:1028E6000F3610361136123625AE7CEF14F07EEF19
:1028F60014F07FEF14F00F80D8902236233624365A
:10290600253613501B5C14501C5815501D58165074
:102916001E58D8A091EF14F093EF14F09CEF14F02A
:10292600258C13501B5E14501C5A15501D5A1650F8
:102936001E5A272A190E2764A3EF14F0A5EF14F0E8
:1029460065EF14F01B501C101D101E10D8B4AEEF0E
:1029560014F0B0EF14F0C8EF14F02280C8EF14F0B2
:10296600D8900F3610361136123625AEBDEF14F05C
:10297600BFEF14F0C0EF14F00F80D8902236233644
:10298600243625362006D8A0210611AECDEF14F048
:10299600CFEF14F0B3EF14F0000E276E25AED6EF8E
:1029A60014F0D8EF14F0FCEF14F0FF0E2214176E9B
:1029B600FF0E2314186EFF0E2414196E7F0E2514B5
:1029C6001A6E1750181019101A10D8B4EDEF14F02B
:1029D600EFEF14F0F3EF14F0010E276EFCEF14F096
:1029E6000FA0F8EF14F0FAEF14F0FCEF14F0EFEF8D
:1029F60014F02750D8B402EF15F004EF15F028EFC5
:102A060015F0010E0F26000E10221122122212A01E
:102A16000FEF15F011EF15F028EF15F00FC017F0B6
:102A260010C018F011C019F012C01AF01A341A3278
:102A360019321832173217C00FF018C010F019C02B
:102A460011F01AC012F0204A212A21BE33EF15F0E8
:102A5600215008E12028D8A033EF15F035EF15F006
:102A660040EF15F0000E216E2068000E0F6E000E6E
:102A7600106E000E116E000E126E21BE4DEF15F097
:102A8600215006E12004D8B04BEF15F04DEF15F0BC
:102A96005BEF15F0000E216E000E206E000E0F6E1D
:102AA600000E106E000E116E000E126E000E1F6EDE
:102AB60020C026F026A062EF15F064EF15F067EF50
:102AC60015F0118E68EF15F0119ED8902630126E13
:102AD6001EEF14F0120058C020F059C021F05AC061
:102AE60022F05BC023F0B40E246EDDEC1FF0000173
:102AF600F907000E606F010E616F310E626F0E0EE8
:102B0600636F05EC2AF0000E026E010E036E40ECB8
:102B16002CF0640E0001606F010E616F3B0E626F58
:102B26000E0E636F05EC2AF0640E026E010E036E44
:102B360040EC2CF00001F95158EC2CF00001F95151
:102B4600020D3C0EF324D96E030EF420DA6EDF502C
:102B560058EC2CF0C80E58EC2CF058C01AF059C09E
:102B66001BF05AC01CF05BC01DF054EC28F0000EA0
:102B76000001DF6F000EDE6FD0EF15F0520E5D6EB6
:102B86002B0E5C6E000EE82EFED75C2EFCD75D2E5B
:102B9600FAD700D00001DE4BDF2BF951020D3C0EB7
:102BA600F324D96E030EF420DA6EDE50DE5DDE50BD
:102BB600DF59D8A0E1EF15F0E3EF15F0C1EF15F0FE
:102BC60058C01AF059C01BF05AC01CF05BC01DF06B
:102BD600F6EC27F00001F951D8A4F4EF15F0F6EF62
:102BE60015F0F8EF15F003EF17F0F907F95158EC67
:102BF6002CF00001F951020D3C0EF324D96E030EA0
:102C0600F420DA6EDF5058EC2CF0C80E58EC2CF09D
:102C16000001F951020D3C0EF324D96E030EF42087
:102C2600DA6EDE04DE10D8A41BEF16F01DEF16F0E8
:102C36002DEF16F058C020F059C021F05AC022F0EE
:102C46005BC023F05A0E246EA4EC20F00001F907B5
:102C56008CEF15F0F951020D3C0EF324D96E030EDC
:102C6600F420DA6E020EDE18DE10D8A43DEF16F060
:102C76003FEF16F04DEF16F058C020F059C021F086
:102C86005AC022F05BC023F05A0E246EDDEC1FF012
:102C960029EF16F0F951020D3C0EF324D96E030EFE
:102CA600F420DA6E030EDE18DE10D8A45DEF16F0FF
:102CB6005FEF16F06DEF16F058C020F059C021F006
:102CC6005AC022F05BC023F0B40E246EA4EC20F0B0
:102CD60029EF16F0F951020D3C0EF324D96E030EBE
:102CE600F420DA6E040EDE18DE10D8A47DEF16F09E
:102CF6007FEF16F097EF16F058C026F059C027F070
:102D06005AC028F05BC029F075EC2BF058C020F0B3
:102D160059C021F05AC022F05BC023F05A0E246E2F
:102D2600A4EC20F029EF16F0F951020D3C0EF32425
:102D3600D96E030EF420DA6E050EDE18DE10D8A466
:102D4600A7EF16F0A9EF16F0C1EF16F058C026F05F
:102D560059C027F05AC028F05BC029F075EC2BF05B
:102D660058C020F059C021F05AC022F05BC023F0B1
:102D76005A0E246EDDEC1FF029EF16F0F951020D04
:102D86003C0EF324D96E030EF420DA6E060EDE181E
:102D9600DE10D8A4D1EF16F0D3EF16F0E1EF16F05F
:102DA60058C020F059C021F05AC022F05BC023F071
:102DB600870E246EA4EC20F029EF16F0F951020DCF
:102DC6003C0EF324D96E030EF420DA6E070EDE18DD
:102DD600DE10D8A4F1EF16F0F3EF16F001EF17F0BE
:102DE60058C020F059C021F05AC022F05BC023F031
:102DF600870E246EDDEC1FF029EF16F08CEF15F030
:102E0600000E606F020E616F050E626F0E0E636F2D
:102E160005EC2AF0000E026E020E036E40EC2CF05A
:102E260058C01AF059C01BF05AC01CF05BC01DF008
:102E3600F6EC27F013EF17F012000201C86F02013B
:102E4600C851D8B429EF17F02BEF17F0A3EF18F0FD
:102E5600640E0001606F020E616F240E626F0E0E2B
:102E6600636FC8C264F0656B05EC2AF0640E026EEF
:102E7600020E036E40EC2CF00201C805D8A446EF02
:102E860017F048EF17F06CEF17F0E0C026F0E1C03E
:102E960027F0E2C028F0E3C029F055EC2BF0E0C0A3
:102EA60020F0E1C021F0E2C022F0E3C023F05A0E88
:102EB600246EDDEC1FF00001F951020D3C0EF324E7
:102EC600D96E030EF420DA6E010EDE6E000EDD6E94
:102ED600F92B020E0201C819D8A474EF17F076EF89
:102EE60017F09AEF17F0E0C026F0E1C027F0E2C035
:102EF60028F0E3C029F055EC2BF0E0C020F0E1C04B
:102F060021F0E2C022F0E3C023F05A0E246EA4ECB6
:102F160020F00001F951020D3C0EF324D96E030E88
:102F2600F420DA6E020EDE6E000EDD6EF92B030E55
:102F36000201C819D8A4A2EF17F0A4EF17F0C8EF42
:102F460017F0E0C026F0E1C027F0E2C028F0E3C0A9
:102F560029F055EC2BF0E0C020F0E1C021F0E2C0F2
:102F660022F0E3C023F0B40E246EA4EC20F000019E
:102F7600F951020D3C0EF324D96E030EF420DA6EDD
:102F8600030EDE6E000EDD6EF92B040E0201C8196B
:102F9600D8A4D0EF17F0D2EF17F0F6EF17F0E0C095
:102FA60026F0E1C027F0E2C028F0E3C029F075EC76
:102FB6002BF0E0C020F0E1C021F0E2C022F0E3C037
:102FC60023F05A0E246EDDEC1FF00001F951020DBC
:102FD6003C0EF324D96E030EF420DA6E040EDE6E78
:102FE600000EDD6EF92B050E0201C819D8A4FEEFFE
:102FF60017F000EF18F024EF18F0E0C026F0E1C05B
:1030060027F0E2C028F0E3C029F075EC2BF0E0C011
:1030160020F0E1C021F0E2C022F0E3C023F05A0E16
:10302600246EA4EC20F00001F951020D3C0EF324AD
:10303600D96E030EF420DA6E050EDE6E000EDD6E1E
:10304600F92B060E0201C819D8A42CEF18F02EEFA2
:1030560018F052EF18F0E0C026F0E1C027F0E2C009
:1030660028F0E3C029F055EC2BF0E0C020F0E1C0D9
:1030760021F0E2C022F0E3C023F0870E246EDDECDF
:103086001FF00001F951020D3C0EF324D96E030E18
:10309600F420DA6E060EDE6E000EDD6EF92B070EDC
:1030A6000201C819D8A45AEF18F05CEF18F080EFA7
:1030B60018F0E0C026F0E1C027F0E2C028F0E3C037
:1030C60029F055EC2BF0E0C020F0E1C021F0E2C081
:1030D60022F0E3C023F0870E246EA4EC20F000015A
:1030E600F951020D3C0EF324D96E030EF420DA6E6C
:1030F600070EDE6E000EDD6EF92B080E0201C819F2
:10310600D8A488EF18F08AEF18F0A3EF18F0010E94
:10311600016E020E19EC1AF0E0C026F0E1C027F0AD
:10312600E2C028F0E3C029F055EC2BF0E0C058F0DF
:10313600E1C059F0E2C05AF0E3C05BF06EEC15F066
:1031460012001EC036F01FC037F020C038F021C074
:1031560039F022C03AF023C03BF024C03CF025C031
:103166003DF03DBEB9EF18F0BCEF18F0010EBDEF13
:1031760018F0000E346E356A34503510D8B4C6EFE8
:1031860018F0C8EF18F0D8EF18F03D1E3C1E3B1E95
:103196003A1E391E381E371E366C000E372238226C
:1031A60039223A223B223C223D220201E6BFDEEFD3
:1031B60018F0E0EF18F0E2EF18F00001F6930201C4
:1031C600E6BFF0EF18F0E65106E1E505D8B0EEEF00
:1031D60018F0F0EF18F0F6EF18F0000E316E010E51
:1031E600306EFAEF18F0E5C230F0E6C231F0E3C215
:1031F60032F0E4C233F034503510D8A405EF19F09C
:1032060007EF19F00FEF19F00001F6A50DEF19F011
:103216000FEF19F012EF19F03206D8A03306000EA0
:103226003F6E1F0E3E6E000E0301976F97EF19F06B
:103236003E06D8A03F06780E3E24D96E030E3F20E8
:10324600DA6E36C001F037C002F038C003F039C07C
:1032560004F03AC005F03BC006F03CC007F03DC0A4
:1032660008F00A0E096E000E0A6E000E0B6E000EB6
:103276000C6E000E0D6E000E0E6E000E0F6E000E22
:10328600106EF4EC22F001C026F002C027F003C055
:1032960028F004C029F005C02AF006C02BF007C0AC
:1032A6002CF008C02DF026C013F028C014F095ECC1
:1032B6002BF01350300FDF6E3006D8A031063206E1
:1032C600D8A0330636C001F037C002F038C003F08C
:1032D60039C004F03AC005F03BC006F03CC007F028
:1032E6003DC008F00A0E096E000E0A6E000E0B6E47
:1032F600000E0C6E000E0D6E000E0E6E000E0F6EA2
:10330600000E106E30EC22F001C036F002C037F02D
:1033160003C038F004C039F005C03AF006C03BF0EF
:1033260007C03CF008C03DF03FBEA2EF19F03F5089
:1033360008E13E04D8A0A2EF19F0A4EF19F0D5EFEA
:1033460019F036503710381039103A103B103C102F
:103356003D10D8A4B1EF19F0B3EF19F01BEF19F037
:1033660031BEC0EF19F0315006E13004D8B0BEEFDF
:1033760019F0C0EF19F01BEF19F033BECBEF19F0BF
:10338600335008E13204D8A0CBEF19F0CDEF19F095
:10339600D5EF19F00001F6B3D3EF19F0D5EF19F018
:1033A6001BEF19F034503510D8A4DCEF19F0DEEF1E
:1033B60019F0E6EF19F00001F6A5E4EF19F0E6EFD3
:1033C60019F004EF1AF03E06D8A03F063450351027
:1033D600D8A4F0EF19F0F2EF19F0F8EF19F0000E9B
:1033E6002F6E2B0E2E6EFCEF19F0000E2F6E2D0E8B
:1033F6002E6E780E3E24D96E030E3F20DA6E2EC056
:10340600DFFF1CC011F01DC012F0780E3E24136EB3
:10341600030E3F20146E32C015F033C016F071EC67
:1034260026F011C01CF012C01DF01200056E000E31
:10343600046E000E046E65EF1BF00504D8A426EF9B
:103446001AF028EF1AF060EF1AF080A22DEF1AF0AA
:1034560031EF1AF0026A022A32EF1AF0026A0246C5
:1034660080500218FD0B0218806E290E036E960E10
:10347600026E7F0EE82EFED7022EFCD7032EFAD759
:1034860000F080A249EF1AF04DEF1AF0026A022A04
:103496004EEF1AF0026A024680500218FD0B02181F
:1034A600806E290E036E960E026E7F0EE82EFED7F4
:1034B600022EFCD7032EFAD700F0020E0518D8A468
:1034C60067EF1AF069EF1AF0A1EF1AF07CA86EEF19
:1034D6001AF072EF1AF0026A022A73EF1AF0026A01
:1034E600023A7C500218EF0B02187C6E290E036E0E
:1034F600960E026E7F0EE82EFED7022EFCD7032E06
:10350600FAD700F07CA88AEF1AF08EEF1AF0026A5A
:10351600022A8FEF1AF0026A023A7C500218EF0B69
:1035260002187C6E290E036E960E026E7F0EE82E32
:10353600FED7022EFCD7032EFAD700F0030E05188D
:10354600D8A4A8EF1AF0AAEF1AF0E6EF1AF07CA6B4
:10355600AFEF1AF0B3EF1AF0026A022AB4EF1AF0CC
:10356600026A0246024602467C500218F70B02180F
:103576007C6E290E036E960E026E7F0EE82EFED727
:10358600022EFCD7032EFAD700F07CA6CDEF1AF058
:10359600D1EF1AF0026A022AD2EF1AF0026A024644
:1035A600024602467C500218F70B02187C6E290E62
:1035B600036E960E026E7F0EE82EFED7022EFCD705
:1035C600032EFAD700F0040E0518D8A4EDEF1AF072
:1035D600EFEF1AF025EF1BF07EA0F4EF1AF0F8EFEC
:1035E6001AF0026A022AF9EF1AF0026A7E500218ED
:1035F600FE0B02187E6E290E036E960E026E7F0E6D
:10360600E82EFED7022EFCD7032EFAD700F07EA0B6
:103616000FEF1BF013EF1BF0026A022A14EF1BF0E8
:10362600026A7E500218FE0B02187E6E290E036E89
:10363600960E026E7F0EE82EFED7022EFCD7032EC4
:10364600FAD700F0030E0518D8A42CEF1BF02EEFC6
:103656001BF064EF1BF080A033EF1BF037EF1BF07D
:10366600026A022A38EF1BF0026A80500218FE0B2B
:103676000218806E290E036E960E026E7F0EE82EDD
:10368600FED7022EFCD7032EFAD700F080A04EEF0D
:103696001BF052EF1BF0026A022A53EF1BF0026A7C
:1036A60080500218FE0B0218806E290E036E960ECD
:1036B600026E7F0EE82EFED7022EFCD7032EFAD717
:1036C60000F0042A0150045CD8A06CEF1BF06EEFEA
:1036D6001BF020EF1AF01200BBEC2CF0020E016E6C
:1036E600010E19EC1AF0290E0F6E960E0E6E7F0E55
:1036F600E82EFED70E2EFCD70F2EFAD700F0ABEC35
:103706002CF0090E0F6E1E0E0E6EE40EE82EFED77E
:103716000E2EFCD70F2EFAD700D02EEC2AF00CC0B6
:10372600D9FF0DC0DAFF05C0DEFF06C0DDFF56EC8F
:103736002AF020EE02F00C50D9260D50DA2205C0F0
:10374600DEFF06C0DDFF7EEC2AF020EE04F00C5012
:10375600D9260D50DA2205C0DEFF06C0DDFFCBEC10
:103766002CF0090E0F6E1E0E0E6EE40EE82EFED71E
:103776000E2EFCD70F2EFAD700D02EEC2AF020EE14
:1037860006F00C50D9260D50DA2205C0DEFF06C021
:10379600DDFF56EC2AF020EE08F00C50D9260D502D
:1037A600DA2205C0DEFF06C0DDFF7EEC2AF020EE41
:1037B6000AF00C50D9260D50DA2205C0DEFF06C0ED
:1037C600DDFFDBEC2CF0090E0F6E1E0E0E6EE40E06
:1037D600E82EFED70E2EFCD70F2EFAD700D02EECF1
:1037E6002AF020EE0CF00C50D9260D50DA2205C036
:1037F600DEFF06C0DDFF56EC2AF020EE0EF00C5080
:10380600D9260D50DA2205C0DEFF06C0DDFF7EECAC
:103816002AF020EE10F00C50D9260D50DA2205C001
:10382600DEFF06C0DDFFA6EC2AF020EE1AF00C50F3
:10383600D9260D50DA2205C0DEFF06C0DDFFEBEC0F
:103846002CF0090E0F6E1E0E0E6EE40EE82EFED73D
:103856000E2EFCD70F2EFAD700D02EEC2AF020EE33
:1038660012F00C50D9260D50DA2205C0DEFF06C034
:10387600DDFF56EC2AF020EE14F00C50D9260D5040
:10388600DA2205C0DEFF06C0DDFF7EEC2AF020EE60
:1038960016F00C50D9260D50DA2205C0DEFF06C000
:1038A600DDFFA6EC2AF020EE18F00C50D9260D50BC
:1038B600DA2205C0DEFF06C0DDFFBBEC2CF0290EC8
:1038C6000F6E960E0E6E7F0EE82EFED70E2EFCD7CE
:1038D6000F2EFAD700F0020E016E010E19EC1AF047
:1038E600120020EE01F00F50D9261050DA22DF50D8
:1038F600D8B480EF1CF082EF1CF0B3EF1CF00FC0C1
:10390600D9FF10C0DAFFDF50116E1150016E026A46
:1039160020EE07F00F50D9261050DA22DECF03F042
:10392600DDCF04F098EC2CF001C007F002C008F0DF
:10393600000E0A6E640E096ED4EC26F020EE07F037
:103946000F50D9261050DA22DECF12F0DDCF13F059
:103956000750125C186E08501358196ED6EF1CF0FB
:103966000FC0D9FF10C0DAFFDF50116E1150016E83
:10397600026A20EE07F00F50D9261050DA22DECF69
:1039860003F0DDCF04F098EC2CF001C007F002C084
:1039960008F0000E0A6E640E096ED4EC26F007C01D
:1039A60018F008C019F020EE02F00F50D92610507A
:1039B600DA22DECF11F0DDCF12F011C0D9FF12C02E
:1039C600DAFF18C0DFFF20EE01F00F50D9261050A5
:1039D600DA22DF50D8B4F2EF1CF0F4EF1CF029EF36
:1039E6001DF020EE04F00F50D9261050DA22DECF5B
:1039F60011F0DDCF12F011C0D9FF12C0DAFF10EEC0
:103A060004F00F50E1261050E222E6CF13F0E5CF86
:103A160014F013C0E1FF14C0E2FFE750156E10EE7C
:103A260006F00F50E1261050E222E750166E010E06
:103A3600176E162A21EF1DF0D8901736162E1FEF97
:103A46001DF017501510DF6E5DEF1DF020EE04F02F
:103A56000F50D9261050DA22DECF11F0DDCF12F04A
:103A660011C0D9FF12C0DAFF10EE04F00F50E126A4
:103A76001050E222E6CF13F0E5CF14F013C0E1FFB9
:103A860014C0E2FFE750156E10EE06F00F50E12667
:103A96001050E222E750166E010E176E162A56EFE8
:103AA6001DF0D8901736162E54EF1DF01750FF0A4A
:103AB6001514DF6E1200096E0950D8B465EF1DF0BB
:103AC60067EF1DF089EF1DF004BE6EEF1DF06CEF81
:103AD6001DF089EF1DF001C005F002C006F003C01D
:103AE60007F004C008F0051E061E071E081E052A5C
:103AF600000E06220722082205C00BF006C00CF0B5
:103B060007C00DF008C00EF091EF1DF001C00BF0DC
:103B160002C00CF003C00DF004C00EF001500210FC
:103B260003100410D8A49AEF1DF09CEF1DF0A6EF29
:103B36001DF0000E016E000E026E000E036E000EEA
:103B4600046E37EF1EF0960E0A6EB0EF1DF00A2ACD
:103B5600D8900E320D320C320B32000E0B14056E5D
:103B6600000E0C14066E000E0D14076EFE0E0E14DB
:103B7600086E0550061007100810D8A4C5EF1DF0F2
:103B8600C7EF1DF0AAEF1DF0D5EF1DF00A2A010EB2
:103B96000B26000E0C220D220E22D8900E320D326C
:103BA6000C320B32000E0B14056E000E0C14066E52
:103BB600000E0D14076EFF0E0E14086E055006104B
:103BC60007100810D8A4EAEF1DF0ECEF1DF0C9EFBE
:103BD6001DF0F4EF1DF00A06D8900B360C360D36A4
:103BE6000E360DBEF9EF1DF0FBEF1DF003EF1EF0D4
:103BF600020E0A6001EF1EF003EF1EF0EEEF1DF05D
:103C06000AB008EF1EF00AEF1EF00BEF1EF00D9E35
:103C1600D8900A320AC005F0066A076A086A05C023
:103C260008F0076A066A056A05500B1206500C1260
:103C360007500D1208500E120950D8B425EF1EF089
:103C460027EF1EF02FEF1EF004BE2EEF1EF02CEF16
:103C56001EF02FEF1EF00E8E0BC001F00CC002F00E
:103C66000DC003F00EC004F0120042C0D9FF43C0DD
:103C7600DAFFDECFF6FFDDCFF7FF0800F550250AA5
:103C8600D8A448EF1EF04AEF1EF0F6EF1EF042C031
:103C9600D9FF43C0DAFFDE2A000EDD22000E020144
:103CA600E46F000EE36FE3C2F6F0E4C2F7F0E569F5
:103CB600E66942C0D9FF43C0DAFFDECFF6FFDDCFAB
:103CC600F7FF0800F550640AD8B46CEF1EF06EEFEB
:103CD6001EF080EF1EF042C0D9FF43C0DAFFDECFF0
:103CE600F6FFDDCFF7FF0800F550690AD8A47EEF8E
:103CF6001EF080EF1EF0C0EF1EF042C0D9FF43C099
:103D0600DAFFDE2A000EDD2244C0D9FF45C0DAFF05
:103D1600DFCF46F0020EDE26DFCF47F0000EDD22B3
:103D260046C0D9FF47C0DAFFDECF48F0DDCF49F005
:103D3600000E49BEFF0E4A6E4B6E4C6E4D6E4E6EB9
:103D46004F6E40C01CF041C01DF048C01EF049C077
:103D56001FF04AC020F04BC021F04CC022F04DC0ED
:103D660023F04EC024F04FC025F0A4EC18F01CC080
:103D760040F01DC041F011EF1FF042C0D9FF43C013
:103D8600DAFFDECFF6FFDDCFF7FF0800F550250A94
:103D9600D8A4D0EF1EF0D2EF1EF0E9EF1EF042C01D
:103DA600D9FF43C0DAFFDE2A000EDD22000E026EC6
:103DB600250E016E40C003F041C004F0A9EC25F0C9
:103DC600000E416E010E406E11EF1FF042C0D9FF8A
:103DD60043C0DAFFDE2A000EDD22000E416E000E21
:103DE600406E11EF1FF042C0D9FF43C0DAFFDECFAD
:103DF600F6FFDDCFF7FF0800F550016E026A40C0FE
:103E060003F041C004F0A9EC25F042C0D9FF43C03D
:103E1600DAFFDE2A000EDD22E3EF1EF01200000EAE
:103E26000001DF6F000EDE6F000EE36F000EE26F23
:103E3600000EE56F000EE46F000EDF6F000EDE6F02
:103E4600EBEC2CF0090E5D6E1E0E5C6EE40EE82E99
:103E5600FED75C2EFCD75D2EFAD700D05AC00CF0E8
:103E66005BC00DF0ABEC29F05AC058F05BC059F0BE
:103E7600DCEC28F00001DE4BDF2BDFBF4BEF1FF041
:103E8600DF5108E1DE05D8A04BEF1FF04DEF1FF024
:103E960023EF1FF0000EE16F000EE06FABEC2CF08D
:103EA600090E5D6E1E0E5C6EE40EE82EFED75C2ECD
:103EB600FCD75D2EFAD700D05AC00CF05BC00DF0CF
:103EC600ABEC29F05AC058F05BC059F0DCEC28F096
:103ED6000001E04BE12BE1BF79EF1FF0E15108E172
:103EE600E005D8A079EF1FF07BEF1FF051EF1FF030
:103EF600000EE36F000EE26FCBEC2CF0090E5D6E48
:103F06001E0E5C6EE40EE82EFED75C2EFCD75D2EF0
:103F1600FAD700D05AC00CF05BC00DF0ABEC29F01C
:103F26005AC058F05BC059F0DCEC28F00001E24BB7
:103F3600E32BE3BFA7EF1FF0E35108E1E205D8A0AA
:103F4600A7EF1FF0A9EF1FF07FEF1FF0000EE56F40
:103F5600000EE46FDBEC2CF0090E5D6E1E0E5C6E3F
:103F6600E40EE82EFED75C2EFCD75D2EFAD700D0E5
:103F76005AC00CF05BC00DF0ABEC29F05AC058F0FB
:103F86005BC059F0DCEC28F00001E44BE52BE5BF03
:103F9600D5EF1FF0E55108E1E405D8A0D5EF1FF0F5
:103FA600D7EF1FF0ADEF1FF0010E58EC2CF0EBEC45
:103FB6002CF0120020EE01F02050D9262150DA22F2
:103FC600010EDF6E20EE01F02250D9262350DA22B0
:103FD600010EDF6E0EEF20F020C0D9FF21C0DAFF00
:103FE600050EDF2622C0D9FF23C0DAFF000EDF6EE2
:103FF60020C00FF021C010F074EC1CF022C00FF0AE
:1040060023C010F074EC1CF0D00E256ECA0EE82EFC
:10401600FED7252EFCD720C0D9FF21C0DAFF180E07
:10402600DF6418EF20F01AEF20F0EFEF1FF02450B6
:104036000001FE03F3CF30F0F4CF31F00F0E302441
:10404600266E000E3120276E0A0E3024286E000ED2
:104056003120296EB40E2418D8A434EF20F036EFA0
:1040660020F051EF20F0000E2B6E000E2A6E46EF68
:1040760020F0150E256EC60EE82EFED7252EFCD78F
:1040860000D02A4A2B2A28502A5C29502B58D8A01F
:104096004FEF20F051EF20F03CEF20F0870E241870
:1040A600D8A458EF20F05AEF20F075EF20F0000E5C
:1040B6002D6E000E2C6E6AEF20F0150E256EC60EC4
:1040C600E82EFED7252EFCD700D02C4A2D2A2650C6
:1040D6002C5C27502D58D8A073EF20F075EF20F0F8
:1040E60060EF20F05A0E2418D8A47CEF20F07EEF63
:1040F60020F099EF20F0000E2F6E000E2E6E8EEF40
:1041060020F0150E256EC60EE82EFED7252EFCD7FE
:1041160000D02E4A2F2A30502E5C31502F58D8A06E
:1041260097EF20F099EF20F084EF20F020C01AF0EE
:1041360021C01BF022C01CF023C01DF0F6EC27F0B6
:10414600120020EE01F02050D9262150DA22010E6D
:10415600DF6E20EE01F02250D9262350DA22010E1E
:10416600DF6ED5EF20F022C0D9FF23C0DAFF050E9F
:10417600DF2620C0D9FF21C0DAFF000EDF6E20C087
:104186000FF021C010F074EC1CF022C00FF023C019
:1041960010F074EC1CF0D00E256ECA0EE82EFED779
:1041A600252EFCD722C0D9FF23C0DAFF180EDF6404
:1041B600DFEF20F0E1EF20F0B6EF20F02450000111
:1041C600FE03F3CF30F0F4CF31F00F0E3024266E1D
:1041D600000E3120276E0A0E3024286E000E312084
:1041E600296EB40E2418D8A4FBEF20F0FDEF20F0C2
:1041F60018EF21F0000E2B6E000E2A6E0DEF21F047
:10420600150E256EC60EE82EFED7252EFCD700D03D
:104216002A4A2B2A28502A5C29502B58D8A016EF58
:1042260021F018EF21F003EF21F0870E2418D8A40F
:104236001FEF21F021EF21F03CEF21F0000E2D6E53
:10424600000E2C6E31EF21F0150E256EC60EE82EEF
:10425600FED7252EFCD700D02C4A2D2A26502C5CC2
:1042660027502D58D8A03AEF21F03CEF21F027EF48
:1042760021F05A0E2418D8A443EF21F045EF21F07F
:1042860060EF21F0000E2F6E000E2E6E55EF21F01E
:10429600150E256EC60EE82EFED7252EFCD700D0AD
:1042A6002E4A2F2A30502E5C31502F58D8A05EEF60
:1042B60021F060EF21F04BEF21F020C01AF021C071
:1042C6001BF022C01CF023C01DF0F6EC27F01200F4
:1042D6000001F56F000E0001F26F000EF46F000E84
:1042E600F16F000EF06F020EF519D8A47DEF21F0E4
:1042F6007FEF21F085EF21F0E8C00CF0E9C00DF06A
:104306006FEC1BF0040E0001F519D8A48DEF21F017
:104316008FEF21F099EF21F0E6C06AF0E7C06BF06D
:10432600A6EC23F06AC0F0F06BC0F1F00001F505D1
:10433600D8A4A0EF21F0A2EF21F0B0EF21F0EBEC32
:104346002CF0E6C00CF0E7C00DF0ABEC29F0E6C0AF
:1043560058F0E7C059F0DCEC28F0020E0001F51920
:10436600D8A4B8EF21F0BAEF21F0C9EF21F0E6C0EA
:1043760071F0E7C072F0E8C073F0E9C074F023ECA6
:1043860007F00001F36FF35158EC2CF0030E000117
:10439600F519D8A4D1EF21F0D3EF21F0E6EF21F003
:1043A600DEEF21F0E6C05AF0E7C05BF012EC1FF03A
:1043B600010E0001F26FF251D8B4E4EF21F0E6EFFE
:1043C60021F0D5EF21F0040EF519D8A4EDEF21F078
:1043D600EFEF21F099EF21F00BEF22F0EAC01AF08F
:1043E600EBC01BF0ECC01CF0EDC01DF054EC28F047
:1043F600EAC06AF0EBC06BF0ECC06CF0EDC06DF09B
:10440600F0C06EF0F1C06FF00EEC26F00001F46F14
:10441600F451D8B411EF22F013EF22F0F1EF21F0AE
:10442600EAC01AF0EBC01BF0ECC01CF0EDC01DF0AA
:10443600F6EC27F0520E0001EF6F2B0EEE6F000E1A
:10444600E82EFED7EE2FFCD7EF2FFAD700F0000E9E
:104456000001F46F99EF21F01200000E126E10BEEB
:1044660039EF22F037EF22F04BEF22F0101E0F1E2D
:104476000E1E0D1E0C1E0B1E0A1E096C000E0A22B5
:104486000B220C220D220E220F221022010E126E7A
:1044960008BE52EF22F050EF22F064EF22F0081E21
:1044A600071E061E051E041E031E021E016C000EBC
:1044B6000222032204220522062207220822010ED6
:1044C600121A20EE13F0070EDE6AE806FDE2095026
:1044D6000A100B100C100D100E100F101010D8B47F
:1044E60077EF22F079EF22F0CBEF22F0010E116E7A
:1044F60087EF22F0D89009360A360B360C360D3681
:104506000E360F361036112A10AE8CEF22F08EEFD3
:1045160022F07DEF22F0D890133614361536163673
:104526001736183619361A360950015C0A500258E1
:104536000B5003580C5004580D5005580E50065891
:104546000F50075810500858D8A0ACEF22F0AEEF25
:1045560022F0BFEF22F00950015E0A50025A0B50BA
:10456600035A0C50045A0D50055A0E50065A0F5055
:10457600075A1050085A1380D89010320F320E3254
:104586000D320C320B320A320932112E8EEF22F026
:104596001250D8B4D1EF22F0D3EF22F0E3EF22F09D
:1045A6001A1E191E181E171E161E151E141E136C13
:1045B600000E1422152216221722182219221A2258
:1045C60013C001F014C002F015C003F016C004F0C9
:1045D60017C005F018C006F019C007F01AC008F099
:1045E6001200000E126E08BEFDEF22F0FBEF22F065
:1045F6000FEF23F0081E071E061E051E041E031ECF
:10460600021E016C000E022203220422052206224B
:1046160007220822010E126E10BE16EF23F014EFC9
:1046260023F026EF23F0101E0F1E0E1E0D1E0C1E6D
:104636000B1E0A1E096C000E0A220B220C220D22EA
:104646000E220F22102209500A100B100C100D100A
:104656000E100F101010D8B433EF23F035EF23F0FF
:104666007DEF23F0010E116E43EF23F0D89009364B
:104676000A360B360C360D360E360F361036112A24
:1046860010AE48EF23F04AEF23F039EF23F009503C
:10469600015C0A5002580B5003580C5004580D5038
:1046A60005580E5006580F50075810500858D8A0F5
:1046B6005FEF23F061EF23F071EF23F00950015E05
:1046C6000A50025A0B50035A0C50045A0D50055A00
:1046D6000E50065A0F50075A1050085AD8901032EA
:1046E6000F320E320D320C320B320A320932112ED3
:1046F6004AEF23F01250D8B483EF23F085EF23F06E
:1047060095EF23F0081E071E061E051E041E031E37
:10471600021E016C000E022203220422052206223A
:104726000722082201C001F002C002F003C003F014
:1047360004C004F005C005F006C006F007C007F087
:1047460008C008F01200000E0001756F000E746FAD
:10475600000E776F000E766F000E6F6F000E6E6F95
:10476600020E016E020E19EC1AF0EBEC2CF0290E7B
:1047760000016D6F960E6C6F7F0EE82EFED76C2FC4
:10478600FCD76D2FFAD7A6EC2AF005C072F006C04A
:1047960073F0110E00016D6F3C0E6C6FCB0EE82EA0
:1047A600FED76C2FFCD76D2FFAD7A6EC2AF005C0E2
:1047B60074F006C075F0110E00016D6F3C0E6C6F43
:1047C600CB0EE82EFED76C2FFCD76D2FFAD7A6ECB2
:1047D6002AF005C076F006C077F0110E00016D6F65
:1047E6003C0E6C6FCB0EE82EFED76C2FFCD76D2FD0
:1047F600FAD70001745172256C6F755173216D6F74
:1048060076516C2777516D236CC001F06DC002F0B4
:10481600036A046A000E5EEC1DF001C00FF002C0D0
:1048260010F003C011F004C012F0000E136E000E5B
:10483600146E400E156E400E166EA1EC13F00FC0EE
:1048460066F010C067F011C068F012C069F0D2ECD3
:104856002BF066C070F067C071F0020E016E020E9A
:1048660019EC1AF070C06AF071C06BF012005D347A
:104876005E340001656F6551D8A444EF24F046EF1D
:1048860024F050EF24F0000E5B6E000E5C6E000EFE
:104896005D6E000E5E6EBDEF24F05BC060F05CC026
:1048A60061F05DC062F05EC063F0200E60EF24F040
:1048B600D8906333623361336033E82E5BEF24F0C4
:1048C6006051646F5D8EFF0E5B16FF0E5C16FF0E69
:1048D6005D16000E5E16960E655F65BF77EF24F0D7
:1048E60075EF24F08DEF24F06551800A970FD8B04C
:1048F6007FEF24F081EF24F083EF24F046EF24F0DD
:10490600D8905E325D325C325B32653F83EF24F0D5
:10491600A5EF24F01F0E656593EF24F095EF24F0C4
:104926009DEF24F046EF24F0D8905B365C365D367A
:104936005E3665076551D8A4A3EF24F0A5EF24F0F1
:1049460097EF24F06451D8B4ABEF24F0ADEF24F028
:10495600B5EF24F05E1E5D1E5C1E5B6C000E5C22D5
:104966005D225E225BC05BF05CC05CF05DC05DF00A
:104976005EC05EF01200000E0114096E000E0214F5
:104986000A6E800E03140B6E7F0E04140C6E095013
:104996000A100B100C10D8A4D3EF24F0D5EF24F096
:1049A600DDEF24F0000E016E000E026E000E036EA7
:1049B600000E046E000E0514096E000E06140A6E33
:1049C600800E07140B6E7F0E08140C6E09500A1029
:1049D6000B100C10D8A4F2EF24F0F4EF24F0FCEF47
:1049E60024F0000E056E000E066E000E076E000E19
:1049F600086E04AE01EF25F003EF25F00CEF25F06D
:104A0600016C021ED8B0022A031ED8B0032A800EFB
:104A1600045608AE11EF25F013EF25F01CEF25F034
:104A2600056C061ED8B0062A071ED8B0072A800EC7
:104A36000856000E011A000E021A000E031A800E06
:104A4600041A000E051A000E061A000E071A800E2A
:104A5600081A0550015C06500258075003580850C2
:104A66000458D8B039EF25F03BEF25F03EEF25F09E
:104A7600D8903FEF25F0D880120001C0D9FF02C0C0
:104A8600DAFF000EDF6E20EE01F00150D92602504B
:104A9600DA22010EDF6E20EE02F00150D926025016
:104AA600DA22A30EDE6E0F0EDD6E20EE04F001504C
:104AB600D9260250DA227D0EDE6E0F0EDD6E20EE56
:104AC60006F00150D9260250DA22040EDF6E20EEDF
:104AD60007F00150D9260250DA22C70EDE6E000E0C
:104AE600DD6E03C0D9FF04C0DAFF000EDF6E20EED4
:104AF60001F00350D9260450DA22010EDF6E20EEB3
:104B060002F00350D9260450DA22A00EDE6E0F0EF4
:104B1600DD6E20EE04F00350D9260450DA227F0E13
:104B2600DE6E0F0EDD6E20EE06F00350D926045021
:104B3600DA22060EDF6E20EE07F00350D926045067
:104B4600DA22C70EDE6E000EDD6E12000350041070
:104B5600D8B4B0EF25F0B2EF25F0BBEF25F0035047
:104B66000410D8A4B9EF25F0BBEF25F0C0EF25F06F
:104B760001506CEC2DF00DEF26F020EE09F00350FD
:104B8600D9260450DA22DE50DE10D8B4CDEF25F057
:104B9600CFEF25F0EAEF25F020EE09F00350D926F5
:104BA6000450DA2210EE03F00350E1260450E2220C
:104BB600DE50E65CE650800A096EDE50800A09582F
:104BC600D8B0E8EF25F0EAEF25F00DEF26F020EE5D
:104BD60003F00350D9260450DA22DECF05F0DDCFEC
:104BE60006F003C0D9FF04C0DAFFDECF07F0DDCF41
:104BF60008F005500724D96E06500820DA6E01C069
:104C0600DFFF20EE03F00350D9260450DA22DE2A15
:104C1600000EDD221200000E0001736F000E726F8F
:104C2600000E7C6F000E7B6F000E7A6FEBEC2CF0A3
:104C3600090E0001716F1E0E706FE40EE82EFED78E
:104C4600702FFCD7712FFAD700F0A6EC2AF005C01A
:104C560078F006C079F056EC2AF06EC001F06FC00D
:104C660002F0036A046A000E5EEC1DF001C028F033
:104C760002C029F003C02AF004C02BF0660E2C6E89
:104C8600660E2D6E860E2E6E3F0E2F6EB5EC0FF055
:104C960028C074F029C075F02AC076F02BC077F0D2
:104CA60074C066F075C067F076C068F077C069F0CA
:104CB600D2EC2BF066C07AF067C07BF000017A5127
:104CC600785D7B517959D8A06BEF26F06DEF26F011
:104CD6006FEF26F0010E7C6F7C5112000001F6A1E9
:104CE60077EF26F079EF26F083EF26F013C00AF06F
:104CF60014C00BF011C00CF012C00DF0F1EC2AF04C
:104D060016BE88EF26F08AEF26F090EF26F015C043
:104D16001AF016C01BF094EF26F0000E1B6E000E64
:104D26001A6E000E196E000E186EA6EF26F0000E13
:104D3600026E200E016E11C003F012C004F0A9EC41
:104D460025F0184A192A1A50185C1950800A176E4D
:104D56001B50800A1758D8A0B3EF26F0B5EF26F0FF
:104D66009AEF26F00001F6B1BBEF26F0BDEF26F074
:104D7600C7EF26F013C00AF014C00BF011C00CF0F8
:104D860012C00DF0F1EC2AF013C001F014C002F0CD
:104D96000BEC2CF01A500124116E1B500220126EDF
:104DA6001200000E0C6E0ABEDDEF26F0DBEF26F0D9
:104DB600E3EF26F0096C0A1ED8B00A2A010E0C6E23
:104DC60008BEEAEF26F0E8EF26F0F0EF26F0076CD3
:104DD600081ED8B0082A010E0C1A000E0E6E000E20
:104DE6000D6E09500A10D8B4FBEF26F0FDEF26F041
:104DF60025EF27F0010E0B6E05EF27F0D890093648
:104E06000A360B2A0AAE0AEF27F00CEF27F001EF5D
:104E160027F0D8900D360E360950075C0A50085810
:104E2600D8A018EF27F01AEF27F01FEF27F0095048
:104E3600075E0A50085A0D80D8900A3209320B2EA6
:104E46000CEF27F00C50D8B42BEF27F02DEF27F0FE
:104E560031EF27F00D6C0E1ED8B00E2A0DC007F0EC
:104E66000EC008F0120020EE01F02050D926215085
:104E7600DA22000EDF6E20EE01F02250D9262350F2
:104E8600DA22000EDF6E67EF27F020C0D9FF21C0BF
:104E9600DAFF0A0EDF2622C0D9FF23C0DAFF0A0E88
:104EA600DF2620C00FF021C010F074EC1CF022C0E9
:104EB6000FF023C010F074EC1CF0D00E246ECA0E56
:104EC600E82EFED7242EFCD720C0D9FF21C0DAFF5A
:104ED600280EDF6071EF27F073EF27F07FEF27F0E2
:104EE60022C0D9FF23C0DAFF270EDF647DEF27F04B
:104EF6007FEF27F048EF27F0090E256E1E0E246E71
:104F0600E40EE82EFED7242EFCD7252EFAD700D0A5
:104F160020C01AF021C01BF022C01CF023C01DF0D7
:104F2600F6EC27F0120020EE01F02050D926215091
:104F3600DA22000EDF6E20EE01F02250D926235031
:104F4600DA22000EDF6EC7EF27F020C0D9FF21C09E
:104F5600DAFF0A0EDF2622C0D9FF23C0DAFF0A0EC7
:104F6600DF2620C00FF021C010F074EC1CF022C028
:104F76000FF023C010F074EC1CF0D00E246ECA0E95
:104F8600E82EFED7242EFCD720C0D9FF21C0DAFF99
:104F9600320EDF60D1EF27F0D3EF27F0DFEF27F0F7
:104FA60022C0D9FF23C0DAFF310EDF64DDEF27F020
:104FB600DFEF27F0A8EF27F0290E256E960E246E58
:104FC6007F0EE82EFED7242EFCD7252EFAD700F02A
:104FD60020C01AF021C01BF022C01CF023C01DF017
:104FE600F6EC27F012002FEF28F01AC0D9FF1BC0ED
:104FF600DAFFDF50D8B402EF28F004EF28F00AEF0A
:1050060028F01AC0D9FF1BC0DAFF050EDF5E1CC0F0
:10501600D9FF1DC0DAFFDF50D8B414EF28F016EF21
:1050260028F01CEF28F01CC0D9FF1DC0DAFF050EC2
:10503600DF5E1AC00FF01BC010F074EC1CF01CC031
:105046000FF01DC010F074EC1CF0D00E1E6ECA0ED0
:10505600E82EFED71E2EFCD71AC0D9FF1BC0DAFFDA
:10506600DF50D8A439EF28F03BEF28F0F8EF27F00F
:105076001CC0D9FF1DC0DAFFDF50D8A445EF28F0C9
:1050860047EF28F0F8EF27F0290E1F6E960E1E6EDA
:105096007F0EE82EFED71E2EFCD71F2EFAD700F065
:1050A600120020EE01F01A50D9261B50DA22010E0A
:1050B600DF6E20EE01F01C50D9261D50DA22010EBB
:1050C600DF6E85EF28F01AC0D9FF1BC0DAFF0A0E83
:1050D600DF261CC0D9FF1DC0DAFF0A0EDF261AC064
:1050E6000FF01BC010F074EC1CF01CC00FF01DC0BC
:1050F60010F074EC1CF0D00E1E6ECA0EE82EFED711
:105106001E2EFCD71AC0D9FF1BC0DAFF140EDF60B3
:105116008FEF28F091EF28F09DEF28F01CC0D9FF03
:105126001DC0DAFF130EDF649BEF28F09DEF28F019
:1051360066EF28F0120000019A6F050E0001976FC6
:105146000F0E966FF10EE82EFED7962FFCD7972FEF
:10515600FAD792C071F093C072F094C073F095C004
:1051660074F023EC07F00001966F9651986F996BD7
:10517600050E0001976F0F0E966FF10EE82EFED703
:10518600962FFCD7972FFAD700019A51966F976BF7
:105196009851961907E199519719D8A4D5EF28F097
:1051A600D7EF28F0DAEF28F09A51DBEF28F0000E5F
:1051B6001200790E0001606F000E616F160E626FAD
:1051C6000E0E636F58C0D9FF59C0DAFFDECF64F008
:1051D600DDCF65F020EE02F05850D9265950DA227C
:1051E600DECF66F0DDCF67F020EE04F05850D9260A
:1051F6005950DA22DECF68F0DDCF69F020EE06F0F6
:105206005850D9265950DA22DECF6AF0DDCF6BF03E
:1052160005EC2AF0790E026E000E036E40EC2CF0BF
:1052260012006FEC2CF026EC2CF0000E026EC70E6E
:10523600016E34EC2BF045EC2DF01BEC2DF02AEC36
:105246002DF056EC2DF0FBEC2CF0EC0E016E010E61
:10525600026EF60E036E010E046E40EC25F0C80ECB
:105266000001E66F010EE76FD00EE86F010EE96FE1
:10527600EC0EEA6F010EEB6FF60EEC6F010EED6FA2
:10528600030E6BEC21F032EF29F014EF00F052C060
:1052960056F053C057F0000E0201E26F000EE16FA8
:1052A60068EF29F050C040F051C041F0560E426EF2
:1052B600000E436E54C044F055C045F038EC1EF065
:1052C60040500201E1274150E22356C0F6FF57C085
:1052D600F7FF0800F5500009D8A474EF29F076EF1F
:1052E60029F055EF29F0E1C250F0E2C251F0120068
:1052F600DA0EF66E5A0EF76E000EF86E0900F5CF4E
:10530600EDF2D60EF66E5A0EF76E000EF86E090026
:10531600F5CFFEF00900F5CFFFF003EE00F0980E92
:10532600EE6AE806FDE102EEC9F0240EEE6AE80632
:10533600FDE100EEF6F0080EEE6AE806FDE15F908C
:105346005F92000EF86E0E0EF76E000114EF29F054
:105356002EEC2AF00CC0D9FF0DC0DAFF05C0DEFF27
:1053660006C0DDFF7EEC2AF020EE04F00C50D926B4
:105376000D50DA2205C0DEFF06C0DDFF56EC2AF02E
:1053860020EE02F00C50D9260D50DA2205C0DEFFC1
:1053960006C0DDFFA6EC2AF020EE06F00C50D9265A
:1053A6000D50DA2205C0DEFF06C0DDFF120026C062
:1053B6001AF027C01BF028C01CF029C01DF054ECC1
:1053C60028F0290E2B6E960E2A6E7F0EE82EFED73B
:1053D6002A2EFCD72B2EFAD700F026C020F027C0A5
:1053E60021F028C022F029C023F036EC27F026C091
:1053F6001AF027C01BF028C01CF029C01DF0F6ECDF
:1054060027F01200640E00016C6F000E6D6F60C015
:105416006EF061C06FF0000E726F000E716F000EBD
:10542600786F000E776F6E0E506E000E516E62C072
:1054360052F063C053F06C0E546E000E556E4AEC7B
:1054460029F0000171516025D96E72516121DA6E21
:10545600000EDF6E120066EC2DF0520E50EC2DF0B1
:10546600B60E50EC2DF05CEC2DF0530E50EC2DF0FA
:10547600010E13EC2BF0076E07500A6E0B6A000E36
:1054860013EC2BF0076E0750096E086A0A500810D5
:105496000A6E0B5009100B6E61EC2DF00AC005F078
:1054A6000BC006F0120066EC2DF0520E50EC2DF0FB
:1054B600B80E50EC2DF05CEC2DF0530E50EC2DF0A8
:1054C600010E13EC2BF0076E07500A6E0B6A000EE6
:1054D60013EC2BF0076E0750096E086A0A50081085
:1054E6000A6E0B5009100B6E61EC2DF00AC005F028
:1054F6000BC006F0120066EC2DF0520E50EC2DF0AB
:10550600BA0E50EC2DF05CEC2DF0530E50EC2DF055
:10551600010E13EC2BF0076E07500A6E0B6A000E95
:1055260013EC2BF0076E0750096E086A0A50081034
:105536000A6E0B5009100B6E61EC2DF00AC005F0D7
:105546000BC006F0120066EC2DF0520E50EC2DF05A
:10555600B40E50EC2DF05CEC2DF0530E50EC2DF00B
:10556600010E13EC2BF0076E07500A6E0B6A000E45
:1055760013EC2BF0076E0750096E086A0A500810E4
:105586000A6E0B5009100B6E61EC2DF00AC005F087
:105596000BC006F01200000E151A000E161A000EA9
:1055A600171A800E181A11C001F012C002F013C0AB
:1055B60003F014C004F015C005F016C006F017C0BD
:1055C60007F018C008F055EC0DF001C011F002C04C
:1055D60012F003C013F004C014F01200000E106E97
:1055E600000E0F6E02EF2BF00EC001F0026A0CC027
:1055F60003F00DC004F0A9EC25F00F4A102A0F5055
:105606000A24D96E10500B20DA6EDF500E6E0E5043
:10561600D8A410EF2BF012EF2BF0F7EF2AF01200C0
:10562600036E84EC2CF00E01DA8784EC2CF0D5CED8
:1056360004F084EC2CF00350D8B424EF2BF028EFC0
:105646002BF0026A022A29EF2BF0026A023A02467E
:105656000E01DA510218DF0B0218DA6FDA890450EC
:1056660012008594839E879C85987D947B9E7F9C63
:105676007D98BD508F0B3009BD6EE00EBE16BF5033
:10568600F00B0109BF6EC70EBC6EBD8E0A0E0E0171
:10569600746F0B0E696F000EA36E000EA06EA48EC3
:1056A600A18E120026C020F027C021F028C022F0CB
:1056B60029C023F096EC27F0190E2B6E5A0E2A6E8F
:1056C600B20EE82EFED72A2EFCD72B2EFAD726C0EE
:1056D6001AF027C01BF028C01CF029C01DF0F6ECFC
:1056E60027F0120026C020F027C021F028C022F0A3
:1056F60029C023F096EC27F07A0E2B6EC10E2A6E87
:10570600820EE82EFED72A2EFCD72B2EFAD726C0DD
:105716001AF027C01BF028C01CF029C01DF0F6ECBB
:1057260027F0120014BEA2EF2BF0145006E113046A
:10573600D8B0A0EF2BF0A2EF2BF0B0EF2BF013C0F8
:1057460015F014C016F0151E161E154A162A15C099
:1057560013F016C014F0B4EF2BF013C013F014C0FE
:1057660014F01200000E0001706F6C516A5D6D51ED
:105776006B59D8B0C1EF2BF0C3EF2BF0D0EF2BF065
:105786006C516E5D6D516F59D8A0CCEF2BF0CEEFFA
:105796002BF0D0EF2BF0010E706F7051120066C027
:1057A60041F067C042F068C043F069C044F0CAECFB
:1057B60011F041C05BF042C05CF043C05DF044C0F4
:1057C6005EF03AEC24F05BC066F05CC067F05DC04A
:1057D60068F05EC069F01200015002100310041058
:1057E600D8B4F8EF2BF0FAEF2BF002EF2CF0000E06
:1057F600011A000E021A000E031A800E041A01C0C6
:1058060001F002C002F003C003F004C004F012006D
:1058160001C003F002C004F013EF2CF0014A022A83
:1058260001C0D9FF02C0DAFFDF50D8A41DEF2CF06B
:105836001FEF2CF011EF2CF00350015C016E0450A9
:105846000258026E12006FEC2CF0010E036E000E71
:105856000BEC2DF03F0E056E550EE82EFED7052EED
:10586600FCD700F0030E036E000E0BEC2DF0D50EE8
:10587600036E010E0BEC2DF012004BEF2CF002C064
:10588600D9FF03C0DAFFDF5039EC2DF0024A032AB4
:1058960002C0D9FF03C0DAFFDF50D8A455EF2CF0C1
:1058A60057EF2CF042EF2CF012000001DD6F790E5D
:1058B6000001606F000E616F1E0E626F0E0E636F49
:1058C600DDC064F0656B05EC2AF0790E026E000E01
:1058D600036E40EC2CF012000E01D951F00B0809B2
:1058E600D96FD98B9F0ED66F848A848CA79BA79D70
:1058F6001D0E1D6F1E0E1C6F1C0E6F6F1B0E706F24
:1059060012000E01D8B58AEF2CF08CEF2CF084EF44
:105916002CF0DACE01F01F0E0116D8A495EF2CF06C
:1059260097EF2CF084EF2CF0120001500302F3CF16
:1059360005F0F4CF06F001500402F350062602509B
:105946000302F350062605C001F006C002F012005D
:105956007F827E9E7998110E026E3C0E016ECB0EF2
:10596600E82EFED7012EFCD7022EFAD700F0120041
:105976007F927E9E7998110E026E3C0E016ECB0EC2
:10598600E82EFED7012EFCD7022EFAD700F0120021
:105996007F927E9E7988110E026E3C0E016ECB0EB2
:1059A600E82EFED7012EFCD7022EFAD700F0120001
:1059B6007F927E8E7998110E026E3C0E016ECB0E92
:1059C600E82EFED7012EFCD7022EFAD700F01200E1
:1059D6007F827E8E7988110E026E3C0E016ECB0E92
:1059E600E82EFED7012EFCD7022EFAD700F01200C1
:1059F60086840E01B4958686B4978792869E819892
:105A06007F827E8E7988849E7C9E88968096120000
:105A1600046E66EC2DF0520E50EC2DF00450800909
:105A260050EC2DF0035050EC2DF061EC2DF01200EF
:105A3600120E0E01626F110E156FE997E895330E7F
:105A4600E56F000EE66FE789E88BE78F1200D65008
:105A56001F0B4009D66ED688D650F00B0809D66EB5
:105A6600D5880B0ED46EDB0ED36E1200016E0E01BE
:105A760037A540EF2DF042EF2DF03AEF2DF001C0A3
:105A8600E4FE12008892849884968690889080928C
:105A96007C987C967E9080901200026E84EC2CF0AE
:105AA60002C0D5FE1200F28EF28AF28C0E01298B0C
:105AB600120084EC2CF00E01DA83120084EC2CF038
:105AC6000E01DA85120084EC2CF00E01DA81120048
:055AD6000A0F12000A96
:020000040020DA
:10000000FF0FFF0FFF0FFF0FFF0FFF0FFF0FFF0F80
:020000040030CA
:0C000000AAFFFFFF9FFFFFFFFFFFFFFFB5
:00000001FF
