:0400000018EF00F005
:100008005F820E0133AB0BEF00F00DEF00F016EF3F
:1000180000F03C0ED46EAF0ED36E0101424B432B61
:0C0028000E01339B5F9211005BEF2CF087
:100E0000000000004B256409256409256409256458
:100E10000D0A0000000E00017A6F000E796F000EBF
:100E2000826F000E816F000E7E6F000E7D6F000ED0
:100E3000886F000E876F000E846F000E836F000EA8
:100E4000866F000E856F000E8D6F000E8C6F000E8A
:100E5000806F000E7F6F000E7C6F000E7B6F000EA8
:100E6000896F91EC2DF0090E0001766F1E0E756FE3
:100E7000E40EE82EFED7752FFCD7762FFAD700F0B8
:100E800071C00CF072C00DF09AEC2AF073C0D9FF5B
:100E900074C0DAFFDECF75F0DDCF76F075C001F0FB
:100EA00076C002F0036A046A000EEEEC1EF001C088
:100EB00013F002C014F003C015F004C016F071C0A6
:100EC000D9FF72C0DAFFDECF77F0DDCF78F077C0E0
:100ED00001F078C002F0036A046A000EEEEC1EF026
:100EE00001C00FF002C010F003C011F004C012F0F6
:100EF0002AEC15F00FC028F010C029F011C02AF01C
:100F000012C02BF0000E2C6E000E2D6EC80E2E6E31
:100F1000420E2F6E6CEC0FF028C08EF029C08FF0BF
:100F20002AC090F02BC091F08EC066F08FC067F0A1
:100F300090C068F091C069F0B8EC2CF066C08AF0FF
:100F400067C08BF0000120EE02F07351D926745176
:100F5000DA22DECF75F0DDCF76F075C001F076C015
:100F600002F0036A046A000EEEEC1EF001C013F0FA
:100F700002C014F003C015F004C016F0000120EE0A
:100F800002F07151D9267251DA22DECF77F0DDCF2F
:100F900078F077C001F078C002F0036A046A000EAE
:100FA000EEEC1EF001C00FF002C010F003C011F013
:100FB00004C012F02AEC15F00FC028F010C029F080
:100FC00011C02AF012C02BF0000E2C6E000E2D6EF8
:100FD000C80E2E6E420E2F6E6CEC0FF028C08EF0F5
:100FE00029C08FF02AC090F02BC091F08EC066F01F
:100FF0008FC067F090C068F091C069F0B8EC2CF039
:10100000000120EE04F07351D9267451DA22DECFAC
:1010100075F0DDCF76F075C001F076C002F0036A9E
:10102000046A000EEEEC1EF001C013F002C014F0D2
:1010300003C015F004C016F0000120EE04F0715159
:10104000D9267251DA22DECF77F0DDCF78F077C083
:1010500001F078C002F0036A046A000EEEEC1EF0A4
:1010600001C00FF002C010F003C011F004C012F074
:101070002AEC15F00FC028F010C029F011C02AF09A
:1010800012C02BF0000E2C6E000E2D6EC80E2E6EB0
:10109000420E2F6E6CEC0FF028C08EF029C08FF03E
:1010A0002AC090F02BC091F08EC066F08FC067F020
:1010B00090C068F091C069F0B8EC2CF066C081F087
:1010C00067C082F0050E0001766F0F0E756FF10E8E
:1010D000E82EFED7752FFCD7762FFAD7B1EC2DF07E
:1010E000090E0001766F1E0E756FE40EE82EFED716
:1010F000752FFCD7762FFAD700F071C00CF072C0B4
:101100000DF09AEC2AF0000120EE06F07351D9267A
:101110007451DA22DECF75F0DDCF76F075C001F0C4
:1011200076C002F0036A046A000EEEEC1EF001C005
:1011300013F002C014F003C015F004C016F071C023
:10114000D9FF72C0DAFFDECF77F0DDCF78F077C05D
:1011500001F078C002F0036A046A000EEEEC1EF0A3
:1011600001C00FF002C010F003C011F004C012F073
:101170002AEC15F00FC028F010C029F011C02AF099
:1011800012C02BF0000E2C6E000E2D6EC80E2E6EAF
:10119000420E2F6E6CEC0FF028C08EF029C08FF03D
:1011A0002AC090F02BC091F08EC066F08FC067F01F
:1011B00090C068F091C069F0B8EC2CF066C07DF08A
:1011C00067C07EF0000120EE08F07351D9267451FB
:1011D000DA22DECF75F0DDCF76F075C001F076C093
:1011E00002F0036A046A000EEEEC1EF001C013F078
:1011F00002C014F003C015F004C016F0000120EE88
:1012000002F07151D9267251DA22DECF77F0DDCFAC
:1012100078F077C001F078C002F0036A046A000E2B
:10122000EEEC1EF001C00FF002C010F003C011F090
:1012300004C012F02AEC15F00FC028F010C029F0FD
:1012400011C02AF012C02BF0000E2C6E000E2D6E75
:10125000C80E2E6E420E2F6E6CEC0FF028C08EF072
:1012600029C08FF02AC090F02BC091F08EC066F09C
:101270008FC067F090C068F091C069F0B8EC2CF0B6
:1012800066C087F067C088F0000120EE0AF0735155
:10129000D9267451DA22DECF75F0DDCF76F075C035
:1012A00001F076C002F0036A046A000EEEEC1EF054
:1012B00001C013F002C014F003C015F004C016F012
:1012C000000120EE04F07151D9267251DA22DECFEE
:1012D00077F0DDCF78F077C001F078C002F0036AD4
:1012E000046A000EEEEC1EF001C00FF002C010F018
:1012F00003C011F004C012F02AEC15F00FC028F062
:1013000010C029F011C02AF012C02BF0000E2C6E74
:10131000000E2D6EC80E2E6E420E2F6E6CEC0FF06E
:1013200028C08EF029C08FF02AC090F02BC091F019
:101330008EC066F08FC067F090C068F091C069F011
:10134000B8EC2CF066C083F067C084F0C1EC2DF0DF
:10135000090E0001766F1E0E756FE40EE82EFED7A3
:10136000752FFCD7762FFAD700F071C00CF072C041
:101370000DF09AEC2AF0000120EE0CF07351D92602
:101380007451DA22DECF75F0DDCF76F075C001F052
:1013900076C002F0036A046A000EEEEC1EF001C093
:1013A00013F002C014F003C015F004C016F071C0B1
:1013B000D9FF72C0DAFFDECF77F0DDCF78F077C0EB
:1013C00001F078C002F0036A046A000EEEEC1EF031
:1013D00001C00FF002C010F003C011F004C012F001
:1013E0002AEC15F00FC028F010C029F011C02AF027
:1013F00012C02BF0000E2C6E000E2D6EC80E2E6E3D
:10140000420E2F6E6CEC0FF028C08EF029C08FF0CA
:101410002AC090F02BC091F08EC066F08FC067F0AC
:1014200090C068F091C069F0B8EC2CF066C085F00F
:1014300067C086F0000120EE0EF07351D92674517A
:10144000DA22DECF75F0DDCF76F075C001F076C020
:1014500002F0036A046A000EEEEC1EF001C013F005
:1014600002C014F003C015F004C016F0000120EE15
:1014700002F07151D9267251DA22DECF77F0DDCF3A
:1014800078F077C001F078C002F0036A046A000EB9
:10149000EEEC1EF001C00FF002C010F003C011F01E
:1014A00004C012F02AEC15F00FC028F010C029F08B
:1014B00011C02AF012C02BF0000E2C6E000E2D6E03
:1014C000C80E2E6E420E2F6E6CEC0FF028C08EF000
:1014D00029C08FF02AC090F02BC091F08EC066F02A
:1014E0008FC067F090C068F091C069F0B8EC2CF044
:1014F00066C08CF067C08DF0000120EE10F07351D3
:10150000D9267451DA22DECF75F0DDCF76F075C0C2
:1015100001F076C002F0036A046A000EEEEC1EF0E1
:1015200001C013F002C014F003C015F004C016F09F
:10153000000120EE04F07151D9267251DA22DECF7B
:1015400077F0DDCF78F077C001F078C002F0036A61
:10155000046A000EEEEC1EF001C00FF002C010F0A5
:1015600003C011F004C012F02AEC15F00FC028F0EF
:1015700010C029F011C02AF012C02BF0000E2C6E02
:10158000000E2D6EC80E2E6E420E2F6E6CEC0FF0FC
:1015900028C08EF029C08FF02AC090F02BC091F0A7
:1015A0008EC066F08FC067F090C068F091C069F09F
:1015B000B8EC2CF066C07FF067C080F0000120EE30
:1015C0001AF07351D9267451DA22DECF75F0DDCFCF
:1015D00076F075C001F076C002F0036A046A000E6E
:1015E000EEEC1EF001C013F002C014F003C015F0C1
:1015F00004C016F0000120EE06F07151D926725198
:10160000DA22DECF77F0DDCF78F077C001F078C056
:1016100002F0036A046A000EEEEC1EF001C00FF047
:1016200002C010F003C011F004C012F02AEC15F053
:101630000FC028F010C029F011C02AF012C02BF002
:10164000000E2C6E000E2D6EC80E2E6E420E2F6EEA
:101650006CEC0FF028C08EF029C08FF02AC090F0FB
:101660002BC091F08EC066F08FC067F090C068F01C
:1016700091C069F0B8EC2CF0000E00016B6F000E09
:101680006A6F8AC06CF08BC06DF0000E6F6F2D0E0C
:101690006E6F9BEC2CF00009D8B451EF0BF053EFB8
:1016A0000BF0C4EF0BF07FC001F080C002F0036AC2
:1016B000046A000EEEEC1EF001C013F002C014F03C
:1016C00003C015F004C016F000018C518725756F1A
:1016D0008D518821766F75C001F076C002F0036AE3
:1016E000046A000EEEEC1EF001C00FF002C010F014
:1016F00003C011F004C012F02AEC15F00FC028F05E
:1017000010C029F011C02AF012C02BF0000E2C6E70
:10171000000E2D6E480E2E6E430E2F6E6CEC0FF0E9
:1017200028C08EF029C08FF02AC090F02BC091F015
:10173000000E00016B6F000E6A6F8EC066F08FC0E6
:1017400067F090C068F091C069F0B8EC2CF066C00A
:101750006CF067C06DF0010E00016F6FD30E6E6FFD
:101760009BEC2CF00009D8B4B8EF0BF0BAEF0BF0FB
:10177000BFEF0BF0030E0001896F7FEF0CF0020E3C
:101780000001896F7FEF0CF00001885107E11F0E07
:10179000875DD8B0CEEF0BF0D0EF0BF045EF0CF03B
:1017A000845107E11F0E835DD8B0D9EF0BF0DBEF5A
:1017B0000BF045EF0CF08AC001F08BC002F0036A19
:1017C000046A000EEEEC1EF001C013F002C014F02B
:1017D00003C015F004C016F07DC001F07EC002F019
:1017E000036A046A000EEEEC1EF001C00FF002C0A6
:1017F00010F003C011F004C012F02AEC15F00FC075
:1018000028F010C029F011C02AF012C02BF0000EF1
:101810002C6E000E2D6EFA0E2E6E430E2F6E6CEC9B
:101820000FF028C08EF029C08FF02AC090F02BC096
:1018300091F0000E00016B6F000E6A6F8EC066F0B3
:101840008FC067F090C068F091C069F0B8EC2CF0E0
:1018500066C06CF067C06DF0000E00016F6F960EF1
:101860006E6F9BEC2CF00009D8B439EF0CF03BEF15
:101870000CF040EF0CF0010E0001896F7FEF0CF0CF
:10188000060E0001896F7FEF0CF0885109E11F0EF1
:10189000875DD8A04EEF0CF050EF0CF07DEF0CF010
:1018A000845109E11F0E835DD8A059EF0CF05BEF66
:1018B0000CF07DEF0CF085518C5D86518D59D8A0D0
:1018C00064EF0CF066EF0CF06AEF0CF0070E896F16
:1018D0007FEF0CF08D5107E1300E8C5DD8B073EFC7
:1018E0000CF075EF0CF079EF0CF0040E896F7FEFC0
:1018F0000CF0050E896F7FEF0CF0000E896F000E63
:101900006B6F5A0E6A6F8AC06CF08BC06DF0D89006
:101910008A356E6F8B356F6F9BEC2CF00009D8B455
:1019200094EF0CF096EF0CF0C9EF0CF0000E0001F4
:101930006B6F5A0E6A6F81C06CF082C06DF0D890E8
:1019400081356E6F82356F6F9BEC2CF00009D8B437
:10195000ACEF0CF0AEEF0CF0C9EF0CF0000E000194
:101960006B6F5A0E6A6F8CC06CF08DC06DF0D890A2
:101970008C356E6F8D356F6F9BEC2CF00009D8B4F1
:10198000C4EF0CF0C6EF0CF0C9EF0CF0080E00012C
:10199000896F000E00016B6F000E6A6F85C06CF0DE
:1019A00086C06DF0000E6F6F190E6E6F9BEC2CF001
:1019B0000009D8B4DEEF0CF0E0EF0CF0FAEF0CF019
:1019C000000E00016B6F000E6A6F8AC06CF08BC056
:1019D0006DF0000E6F6F1E0E6E6F9BEC2CF0000909
:1019E000D8B4F5EF0CF0F7EF0CF0FAEF0CF0000EB6
:1019F0000001896F080E00018919D8A402EF0DF0CB
:101A000004EF0DF009EF0DF0010E016E020EE1EC96
:101A100019F00001895112000450800B0D6E045022
:101A200004240F6E03AE17EF0DF019EF0DF01AEF4F
:101A30000DF00F800F50D8B420EF0DF022EF0DF015
:101A400037EF0DF00F28D8A428EF0DF02AEF0DF096
:101A500032EF0DF0000E016E000E026E000E036EEE
:101A6000000E046E038E000E046E3FEF0DF0000EAC
:101A7000016E000E026E000E036E000E046E085022
:101A8000800B0E6E0D500E18D8B449EF0DF04BEFD1
:101A90000DF04CEF0DF00D8C085008240E6E07AEC3
:101AA00054EF0DF056EF0DF057EF0DF00E800E5085
:101AB000D8B45DEF0DF05FEF0DF074EF0DF00E2870
:101AC000D8A465EF0DF067EF0DF06FEF0DF0000E8D
:101AD000056E000E066E000E076E000E086E078E75
:101AE000000E086E7CEF0DF0000E056E000E066E07
:101AF000000E076E000E086E0F500E5CD8B083EF1C
:101B00000DF085EF0DF0ACEF0DF00DAC8AEF0DF0A0
:101B10008CEF0DF08EEF0DF0800E0D1A0FC010F04F
:101B20000EC00FF010C00EF001C010F005C001F0A3
:101B300010C005F002C010F006C002F010C006F0A0
:101B400003C010F007C003F010C007F004C010F08D
:101B500008C004F010C008F0000E106E0F500EC048
:101B600009F00A6A095E000E0A5A0ABEC1EF0DF0BA
:101B70000A5009E11A0E095CD8A0C1EF0DF0C3EFBD
:101B80000DF0FAEF0DF00150021003100410D8A46C
:101B9000CCEF0DF0CFEF0DF0010ED0EF0DF0000EF9
:101BA000106E000E016E000E026E000E036E000E2F
:101BB000046E0EC00FF003EF0EF010A0E2EF0DF078
:101BC000E4EF0DF0EAEF0DF0D89010300109106E3F
:101BD000ECEF0DF0D890103201A0F1EF0DF0F3EF23
:101BE0000DF0F4EF0DF0108E0434043203320232A3
:101BF00001320F2A0E500F5CD8A001EF0EF003EF58
:101C00000EF0DDEF0DF00DBC08EF0EF00AEF0EF058
:101C10004AEF0EF00F50D8A410EF0EF012EF0EF0B6
:101C20001CEF0EF0000E016E000E026E000E036E31
:101C3000000E046E6BEF0FF00550012606500222D5
:101C4000075003220850042204A029EF0EF02BEFC6
:101C50000EF0D7EF0EF010A030EF0EF032EF0EF0D6
:101C600038EF0EF0D89010300109106E3AEF0EF0F8
:101C7000D890103201A03FEF0EF041EF0EF042EF8E
:101C80000EF0108E043404320332023201320F2A75
:101C9000D7EF0EF00550015C06500258075003586C
:101CA0000450800A096E0850800A0958D8B05BEFCA
:101CB0000EF05DEF0EF088EF0EF00150055C096E3E
:101CC000025006580A6E035007580B6E045008580D
:101CD0000C6EFF0E0924016EFF0E0A20026EFF0E2D
:101CE0000B20036EFF0E0C20046E800E0D1A106C7C
:101CF0001050D8A47EEF0EF080EF0EF090EF0EF0B3
:101D0000010E0126000E02220322042290EF0EF0A3
:101D10000550015E0650025A0750035A0850045AF3
:101D20000150021003100410D8A499EF0EF09BEF9D
:101D30000EF0D0EF0EF01050D8A4A1EF0EF0A3EFEC
:101D40000EF0D0EF0EF0000E016E000E026E000ECF
:101D5000036E000E046E6BEF0FF0D8900136023662
:101D60000336043610AEB7EF0EF0B9EF0EF0BAEF4F
:101D70000EF0018010A0BFEF0EF0C1EF0EF0C5EF26
:101D80000EF0D8801036C7EF0EF0D89010360F50F6
:101D9000D8B4CDEF0EF0CFEF0EF0D0EF0EF00F066F
:101DA00003AED5EF0EF0D7EF0EF0ADEF0EF0000E54
:101DB0000E6E10AEDEEF0EF0E0EF0EF0F8EF0EF06C
:101DC00010C009F07F0E0916D8B4E9EF0EF0EBEF62
:101DD0000EF0EFEF0EF0010E0E6EF8EF0EF001A018
:101DE000F4EF0EF0F6EF0EF0F8EF0EF0EBEF0EF072
:101DF0000E50D8B4FEEF0EF000EF0FF02BEF0FF007
:101E0000010E0126000E02220322042204A00BEF81
:101E10000FF00DEF0FF02BEF0FF001C009F002C033
:101E20000AF003C00BF004C00CF00C340C320B327F
:101E30000A32093209C001F00AC002F00BC003F0F7
:101E40000CC004F00F28D8B428EF0FF02AEF0FF0E1
:101E50002BEF0FF00F2A0F28D8B431EF0FF033EF2C
:101E60000FF03BEF0FF00F50D8A439EF0FF03BEF1E
:101E70000FF04DEF0FF0000E016E000E026E000E1F
:101E8000036E000E046E0F50D8A449EF0FF04BEF15
:101E90000FF04DEF0FF0000E0D6E0FA052EF0FF090
:101EA00054EF0FF057EF0FF0038E58EF0FF0039E33
:101EB000D8900F30046E0DAE60EF0FF062EF0FF0B0
:101EC00063EF0FF0048E01C001F002C002F003C006
:101ED00003F004C004F012002B50800B346E2B5022
:101EE0002B243A6E2AAE77EF0FF079EF0FF07AEFEE
:101EF0000FF03A803A50D8B480EF0FF082EF0FF035
:101F000095EF0FF03A28D8A488EF0FF08AEF0FF082
:101F100092EF0FF0000E286E000E296E000E2A6E52
:101F2000000E2B6E2A8E9DEF0FF0000E286E000E15
:101F3000296E000E2A6E000E2B6E2F50800B341A65
:101F40002F502F24396E2EAEA8EF0FF0AAEF0FF00E
:101F5000ABEF0FF039803950D8B4B1EF0FF0B3EFD9
:101F60000FF0C6EF0FF03928D8A4B9EF0FF0BBEF90
:101F70000FF0C3EF0FF0000E2C6E000E2D6E000E52
:101F80002E6E000E2F6E2E8ECEEF0FF0000E2C6EEA
:101F9000000E2D6E000E2E6E000E2F6E3950D8B42E
:101FA000D4EF0FF0D6EF0FF0DEEF0FF03A50D8A4D9
:101FB000DCEF0FF0DEEF0FF0E8EF0FF0000E286E11
:101FC000000E296E000E2A6E000E2B6E80EF11F0AF
:101FD0002E502802F3CF3FF0F4CF40F03F50356E43
:101FE000366A376A386A40503B6E3C6A3D6A3E6AE0
:101FF0002D502902F3CF3FF0F4CF40F03F5035266B
:10200000000E36223722382240503B26000E3C225A
:102010003D223E222C502A02F3CF3FF0F4CF40F075
:102020003F503526000E36223722382240503B26BC
:10203000000E3C223D223E2237C038F036C037F039
:1020400035C036F0356A2C502902F3CF3FF0F4CF7B
:1020500040F03F50352640503622000E3722000E09
:1020600038222D502802F3CF3FF0F4CF40F03F50FC
:10207000352640503622000E3722000E382237C057
:1020800038F036C037F035C036F0356A2C502802AB
:10209000F3CF3FF0F4CF40F03F503526405036228A
:1020A000000E3722000E38222E502902F3CF3FF0C7
:1020B000F4CF40F03F503B2640503C22000E3D22E2
:1020C000000E3E222D502A02F3CF3FF0F4CF40F015
:1020D0003F503B2640503C22000E3D22000E3E2247
:1020E0002E502A02F3CF3FF0F4CF40F03F50306E35
:1020F0004050316E326A336A32C033F031C032F050
:1021000030C031F0306A30503B2631503C223250E2
:102110003D2233503E2235C030F036C031F037C05A
:1021200032F038C033F0190E9BEF10F0D8903332F4
:10213000323231323032E82E96EF10F030503B26FA
:1021400031503C2232503D2233503E2237C038F0CD
:1021500036C037F035C036F0356A39503AC030F005
:10216000316A3026000E3122820E30243F6EFF0E7F
:102170003120406ED1EF10F0D8903B363C363D36E2
:102180003E3638AEC6EF10F0C8EF10F0C9EF10F0D1
:102190003B80D89035363636373638363F06D8A0AD
:1021A00040063DAED6EF10F0D8EF10F0BCEF10F0C7
:1021B000000E396E38AEDFEF10F0E1EF10F005EFF2
:1021C00011F0FF0E3514306EFF0E3614316EFF0E17
:1021D0003714326E7F0E3814336E30503110321097
:1021E0003310D8B4F6EF10F0F8EF10F0FCEF10F069
:1021F000010E396E05EF11F03BA001EF11F003EF76
:1022000011F005EF11F0F8EF10F03950D8B40BEFE2
:1022100011F00DEF11F031EF11F0010E3B26000E21
:102220003C223D223E223EA018EF11F01AEF11F0A1
:1022300031EF11F03BC030F03CC031F03DC032F026
:102240003EC033F03334333232323132303230C088
:102250003BF031C03CF032C03DF033C03EF03F4A6D
:10226000402A40BE3CEF11F0405008E13F28D8A082
:102270003CEF11F03EEF11F048EF11F0000E3B6E15
:10228000000E3C6E800E3D6E7F0E3E6E76EF11F0BE
:1022900040BE55EF11F0405006E13F04D8B053EF77
:1022A00011F055EF11F061EF11F0000E3B6E000ED2
:1022B0003C6E000E3D6E000E3E6E000E346E76EFEC
:1022C00011F03FC03AF0FF0E3B16FF0E3C167F0E9A
:1022D0003D16000E3E163AA070EF11F072EF11F0AD
:1022E00073EF11F03D8ED8903A303E6E34503E126E
:1022F0003BC028F03CC029F03DC02AF03EC02BF086
:1023000012003AC153F03BC154F03CC155F03DC1FD
:1023100056F041C053F042C054F043C055F044C0A1
:1023200056F053C045F054C046F055C047F056C073
:1023300048F0180EA1EF11F0D890483247324632DB
:102340004532E82E9CEF11F045504D6E4E6A4EBE60
:10235000B3EF11F04E5009E1960E4D5CD8A0B3EFEB
:1023600011F0B5EF11F0BFEF11F041C041F042C0E4
:1023700042F043C043F044C044F057EF13F053C061
:1023800045F054C046F055C047F056C048F0200E06
:10239000CFEF11F0D8904832473246324532E82E1E
:1023A000CAEF11F04550461047104810D8B4DBEF83
:1023B00011F0DDEF11F0EFEF11F041C001F042C07C
:1023C00002F043C003F044C004F0D5EC2CF001C08F
:1023D00041F002C042F003C043F004C044F04EBEDE
:1023E000FDEF11F04E5007E17E0E4D5CD8B0FBEFD3
:1023F00011F0FDEF11F019EF12F053C028F054C0A6
:1024000029F055C02AF056C02BF0000E2C6E000E9D
:102410002D6E000E2E6E000E2F6E6CEC0FF028C08D
:1024200041F029C042F02AC043F02BC044F057EFDE
:1024300013F0000E056E000E066E000E076E4B0EBA
:10244000086E41C001F042C002F043C003F044C036
:1024500004F00CEC0DF001C04FF002C050F003C0CE
:1024600051F004C052F0000E056E000E066E000E14
:10247000076ECB0E086E4FC001F050C002F051C085
:1024800003F052C004F00CEC0DF001C049F002C0A2
:102490004AF003C04BF004C04CF049C011F04AC0F0
:1024A00012F04BC013F04CC014F041C015F042C004
:1024B00016F043C017F044C018F092EC2BF011C096
:1024C00057F012C058F013C059F014C05AF0000E63
:1024D000016E000E026E000E036E3F0E046E57C0BA
:1024E00005F058C006F059C007F05AC008F04FEC8C
:1024F00025F0D8B07EEF12F080EF12F0B6EF12F0B8
:1025000041C005F042C006F043C007F044C008F0E7
:1025100057C001F058C002F059C003F05AC004F08F
:102520000CEC0DF001C04FF002C050F003C051F0B0
:1025300004C052F04FC001F050C002F051C003F08F
:1025400052C004F0000E056E000E066E800E076E7F
:10255000BF0E086E0CEC0DF001C057F002C058F031
:1025600003C059F004C05AF01FEF13F0000E016EC3
:10257000000E026E000E036EBF0E046E57C005F013
:1025800058C006F059C007F05AC008F04FEC25F0CB
:10259000D8A0CDEF12F0CFEF12F005EF13F041C04D
:1025A00005F042C006F043C007F044C008F057C031
:1025B00001F058C002F059C003F05AC004F00CEC0E
:1025C0000DF001C04FF002C050F003C051F004C044
:1025D00052F04FC001F050C002F051C003F052C0A1
:1025E00004F0000E056E000E066E800E076E3F0EA4
:1025F000086E0CEC0DF001C057F002C058F003C09B
:1026000059F004C05AF01FEF13F057C001F058C042
:1026100002F059C003F05AC004F041C005F042C0B6
:1026200006F043C007F044C008F00CEC0DF001C008
:1026300057F002C058F003C059F004C05AF053C01C
:1026400045F054C046F055C047F056C048F0200E43
:102650002FEF13F0D8904832473246324532E82EF9
:102660002AEF13F04550461047104810D8B43BEFFE
:1026700013F03DEF13F04FEF13F057C001F058C0C7
:1026800002F059C003F05AC004F0D5EC2CF001C0A0
:1026900057F002C058F003C059F004C05AF057C0B8
:1026A00041F058C042F059C043F05AC044F0120003
:1026B0002DC020F02EC021F02FC022F030C023F01A
:1026C000010E246E3AEC24F02DC020F02EC021F033
:1026D0002FC022F030C023F0040E246E010E256EB0
:1026E000C8EC1FF02DC020F02EC021F02FC022F02A
:1026F00030C023F0020E246E3AEC24F001014507AD
:102700002DC01AF02EC01BF02FC01CF030C01DF0E1
:1027100050EC28F0000E346E000E336E9EEF13F076
:10272000090E326E1E0E316EE40EE82EFED7312EEB
:10273000FCD7322EFAD700D0334A342A0101455152
:10274000020D000EF324D96E010EF420DA6EDE5075
:10275000335CDE503458D8A0B0EF13F0B2EF13F072
:1027600090EF13F02DC01AF02EC01BF02FC01CF0FC
:1027700030C01DF014EC29F001014551D8A4C3EF7D
:1027800013F0C5EF13F0C7EF13F00BEF15F045078B
:102790004551020D000EF324D96E010EF420DA6EBD
:1027A000DE04DE10D8A4D7EF13F0D9EF13F0F5EF65
:1027B00013F02DC020F02EC021F02FC022F030C029
:1027C00023F0020E246E010E256EC8EC1FF02DC002
:1027D00020F02EC021F02FC022F030C023F0020ED6
:1027E000246E3AEC24F07EEF13F04551020D000EFA
:1027F000F324D96E010EF420DA6E020EDE18DE101C
:10280000D8A405EF14F007EF14F023EF14F02DC057
:1028100020F02EC021F02FC022F030C023F0020E95
:10282000246E020E256EC8EC1FF02DC020F02EC0C5
:1028300021F02FC022F030C023F0020E246E3AECBB
:1028400024F07EEF13F04551020D000EF324D96EF3
:10285000010EF420DA6E030EDE18DE10D8A433EF7A
:1028600014F035EF14F051EF14F02DC020F02EC00D
:1028700021F02FC022F030C023F0040E246E010E90
:10288000256EC8EC1FF02DC020F02EC021F02FC007
:1028900022F030C023F0020E246E3AEC24F07EEFDA
:1028A00013F04551020D000EF324D96E010EF420F1
:1028B000DA6E040EDE18DE10D8A461EF14F063EFB8
:1028C00014F07FEF14F02DC020F02EC021F02FC0A7
:1028D00022F030C023F0020E246E010E256EC8ECEB
:1028E0001FF02DC020F02EC021F02FC022F030C0EC
:1028F00023F0030E246E3AEC24F07EEF13F04551E2
:10290000020D000EF324D96E010EF420DA6E050ECE
:10291000DE18DE10D8A48FEF14F091EF14F0ADEFB5
:1029200014F02DC020F02EC021F02FC022F030C0B6
:1029300023F0020E246E020E256EC8EC1FF02DC08F
:1029400020F02EC021F02FC022F030C023F0030E63
:10295000246E3AEC24F07EEF13F04551020D000E88
:10296000F324D96E010EF420DA6E060EDE18DE10A6
:10297000D8A4BDEF14F0BFEF14F0DBEF14F02DC0BE
:1029800020F02EC021F02FC022F030C023F0030E23
:10299000246E010E256EC8EC1FF02DC020F02EC055
:1029A00021F02FC022F030C023F0020E246E3AEC4A
:1029B00024F07EEF13F04551020D000EF324D96E82
:1029C000010EF420DA6E070EDE18DE10D8A4EBEF4D
:1029D00014F0EDEF14F009EF15F02DC020F02EC02B
:1029E00021F02FC022F030C023F0030E246E020E1F
:1029F000256EC8EC1FF02DC020F02EC021F02FC096
:102A000022F030C023F0020E246E3AEC24F07EEF68
:102A100013F080EF13F07C8E22EF15F02DC01AF02A
:102A20002EC01BF02FC01CF030C01DF014EC29F09C
:102A30008EB41DEF15F01FEF15F022EF15F07C9E00
:102A400029EF15F08EB427EF15F029EF15F00EEFF2
:102A500015F012001250800B1F6E12501224266EB9
:102A600011AE35EF15F037EF15F038EF15F0268081
:102A70002650D8B43EEF15F040EF15F055EF15F0A5
:102A80002628D8A446EF15F048EF15F050EF15F0C2
:102A9000000E0F6E000E106E000E116E000E126E04
:102AA000118E000E126E5DEF15F0000E0F6E000E0F
:102AB000106E000E116E000E126E1650800B1F1A53
:102AC00016501624276E15AE68EF15F06AEF15F054
:102AD0006BEF15F027802750D8B471EF15F073EF26
:102AE00015F088EF15F02728D8A479EF15F07BEFC3
:102AF00015F083EF15F0000E136E000E146E000E2D
:102B0000156E000E166E158E000E166E90EF15F0F7
:102B1000000E136E000E146E000E156E000E166E73
:102B20001350141015101610D8A499EF15F09BEF40
:102B300015F0B3EF15F0000E0F6E000E106E000EC4
:102B4000116E000E126E800E11127F0E12121F50A7
:102B500012120FC00FF010C010F011C011F012C00F
:102B600012F0F6EF16F02650D8A4B9EF15F0BBEF2F
:102B700015F0C5EF15F0000E0F6E000E106E000E72
:102B8000116E000E126EF6EF16F0275026C017F0E9
:102B9000186A175E000E185A7F0E1724206E000E5A
:102BA0001820216E0FC01BF010C01CF011C01DF0CA
:102BB00012C01EF0000E0F6E000E106E000E116E91
:102BC000000E126E000E226E000E236E000E246E9A
:102BD000000E256E000E276E26EF16F02750D8B493
:102BE000F4EF15F0F6EF15F00DEF16F0D8901B3658
:102BF0001C361D361E36D8900F361036113612365A
:102C000025AE05EF16F007EF16F008EF16F00F806F
:102C1000D890223623362436253613501B5C1450A8
:102C20001C5815501D5816501E58D8A01AEF16F0F3
:102C30001CEF16F025EF16F0258C13501B5E145078
:102C40001C5A15501D5A16501E5A272A190E276451
:102C50002CEF16F02EEF16F0EEEF15F01B501C10B7
:102C60001D101E10D8B437EF16F039EF16F051EFE3
:102C700016F0228051EF16F0D8900F36103611362C
:102C8000123625AE46EF16F048EF16F049EF16F073
:102C90000F80D89022362336243625362006D8A039
:102CA000210611AE56EF16F058EF16F03CEF16F075
:102CB000000E276E25AE5FEF16F061EF16F085EF80
:102CC00016F0FF0E2214176EFF0E2314186EFF0E5F
:102CD0002414196E7F0E25141A6E1750181019102F
:102CE0001A10D8B476EF16F078EF16F07CEF16F0E5
:102CF000010E276E85EF16F00FA081EF16F083EF1F
:102D000016F085EF16F078EF16F02750D8B48BEF59
:102D100016F08DEF16F0B1EF16F0010E0F26000E33
:102D200010221122122212A098EF16F09AEF16F03C
:102D3000B1EF16F00FC017F010C018F011C019F065
:102D400012C01AF01A341A3219321832173217C058
:102D50000FF018C010F019C011F01AC012F0204A7C
:102D6000212A21BEBCEF16F0215008E12028D8A06E
:102D7000BCEF16F0BEEF16F0C9EF16F0000E216E94
:102D80002068000E0F6E000E106E000E116E000E09
:102D9000126E21BED6EF16F0215006E12004D8B005
:102DA000D4EF16F0D6EF16F0E4EF16F0000E216E19
:102DB000000E206E000E0F6E000E106E000E116ED3
:102DC000000E126E000E1F6E20C026F026A0EBEF44
:102DD00016F0EDEF16F0F0EF16F0118EF1EF16F0A1
:102DE000119ED8902630126EA7EF15F01200396EA2
:102DF0003950D8B4FEEF16F000EF17F06EEF18F070
:102E00003904D8A406EF17F008EF17F030EF17F0E9
:102E100035C020F036C021F037C022F038C023F092
:102E2000010E246E3AEC24F035C020F036C021F0BB
:102E300037C022F038C023F0020E246E020E256E39
:102E4000C8EC1FF001014551020D000EF324D96EAC
:102E5000010EF420DA6E010EDE6E000EDD6E452BE3
:102E6000020E3918D8A437EF17F039EF17F061EFD9
:102E700017F035C020F036C021F037C022F038C03E
:102E800023F0010E246E3AEC24F035C020F036C059
:102E900021F037C022F038C023F0020E246E010E5C
:102EA000256EC8EC1FF001014551020D000EF32400
:102EB000D96E010EF420DA6E020EDE6E000EDD6EAB
:102EC000452B030E3918D8A468EF17F06AEF17F0F6
:102ED00092EF17F035C020F036C021F037C022F055
:102EE00038C023F0010E246E3AEC24F035C020F0F7
:102EF00036C021F037C022F038C023F0040E246E13
:102F0000010E256EC8EC1FF001014551020D000EA7
:102F1000F324D96E010EF420DA6E030EDE6E000E7D
:102F2000DD6E452B040E3918D8A499EF17F09BEFEE
:102F300017F0C3EF17F035C020F036C021F037C0CE
:102F400022F038C023F0030E246E3AEC24F035C092
:102F500020F036C021F037C022F038C023F0020E36
:102F6000246E020E256EC8EC1FF001014551020DC2
:102F7000000EF324D96E010EF420DA6E040EDE6E1C
:102F8000000EDD6E452B050E3918D8A4CAEF17F0D8
:102F9000CCEF17F0F4EF17F035C020F036C021F079
:102FA00037C022F038C023F0030E246E3AEC24F030
:102FB00035C020F036C021F037C022F038C023F0F1
:102FC000020E246E010E256EC8EC1FF00101455162
:102FD000020D000EF324D96E010EF420DA6E050EF8
:102FE000DE6E000EDD6E452B060E3918D8A4FBEF01
:102FF00017F0FDEF17F025EF18F035C020F036C0C0
:1030000021F037C022F038C023F0010E246E3AECD4
:1030100024F035C020F036C021F037C022F038C08F
:1030200023F0030E246E020E256EC8EC1FF0010182
:103030004551020D000EF324D96E010EF420DA6E14
:10304000060EDE6E000EDD6E452B070E3918D8A475
:103050002CEF18F02EEF18F056EF18F035C020F0D6
:1030600036C021F037C022F038C023F0010E246EA4
:103070003AEC24F035C020F036C021F037C022F001
:1030800038C023F0030E246E010E256EC8EC1FF02D
:1030900001014551020D000EF324D96E010EF420FA
:1030A000DA6E070EDE6E000EDD6E452B080E391847
:1030B000D8A45DEF18F05FEF18F06EEF18F0010E76
:1030C000016E020EE1EC19F035C02DF036C02EF085
:1030D00037C02FF038C030F058EC13F012001EC08B
:1030E00036F01FC037F020C038F021C039F022C0C0
:1030F0003AF023C03BF024C03CF025C03DF03DBE7B
:1031000084EF18F087EF18F0010E88EF18F0000E2A
:10311000346E356A34503510D8B491EF18F093EF0F
:1031200018F0A3EF18F03D1E3C1E3B1E3A1E391E40
:10313000381E371E366C000E3722382239223A22CA
:103140003B223C223D220001FBBFA9EF18F0ABEF70
:1031500018F0ACEF18F0FC93FBBFB9EF18F0FB517F
:1031600006E1FA05D8B0B7EF18F0B9EF18F0BFEFE5
:1031700018F0000E316E010E306EC3EF18F0FAC079
:1031800030F0FBC031F040C132F041C133F0345077
:103190003510D8A4CEEF18F0D0EF18F0D7EF18F014
:1031A000FCA5D5EF18F0D7EF18F0DAEF18F03206DB
:1031B000D8A03306000E3F6E1F0E3E6E000E0101BA
:1031C000656F5FEF19F03E06D8A03F06460E3E241D
:1031D000D96E010E3F20DA6E36C001F037C002F022
:1031E00038C003F039C004F03AC005F03BC006F027
:1031F0003CC007F03DC008F00A0E096E000E0A6ED2
:10320000000E0B6E000E0C6E000E0D6E000E0E6E9C
:10321000000E0F6E000E106EF4EC22F001C026F0CE
:1032200002C027F003C028F004C029F005C02AF02E
:1032300006C02BF007C02CF008C02DF026C013F0FC
:1032400028C014F07BEC2CF01350300FDF6E3006EA
:10325000D8A031063206D8A0330636C001F037C0F8
:1032600002F038C003F039C004F03AC005F03BC0AA
:1032700006F03CC007F03DC008F00A0E096E000ED3
:103280000A6E000E0B6E000E0C6E000E0D6E000E20
:103290000E6E000E0F6E000E106E30EC22F001C0AC
:1032A00036F002C037F003C038F004C039F005C072
:1032B0003AF006C03BF007C03CF008C03DF03FBE0E
:1032C0006AEF19F03F5008E13E04D8A06AEF19F008
:1032D0006CEF19F09DEF19F0365037103810391097
:1032E0003A103B103C103D10D8A479EF19F07BEF59
:1032F00019F0E3EF18F031BE88EF19F0315006E114
:103300003004D8B086EF19F088EF19F0E3EF18F029
:1033100033BE93EF19F0335008E13204D8A093EF95
:1033200019F095EF19F09DEF19F00001FCB39BEF38
:1033300019F09DEF19F0E3EF18F034503510D8A4D0
:10334000A4EF19F0A6EF19F0AEEF19F00001FCA5FB
:10335000ACEF19F0AEEF19F0CCEF19F03E06D8A0A3
:103360003F0634503510D8A4B8EF19F0BAEF19F071
:10337000C0EF19F0000E2F6E2B0E2E6EC4EF19F059
:10338000000E2F6E2D0E2E6E460E3E24D96E010EAF
:103390003F20DA6E2EC0DFFF1CC011F01DC012F0FE
:1033A000460E3E24136E010E3F20146E32C015F0FF
:1033B00033C016F08AEC27F011C01CF012C01DF0CB
:1033C0001200056E000E046E000E046E2DEF1BF051
:1033D0000504D8A4EEEF19F0F0EF19F028EF1AF079
:1033E00080A2F5EF19F0F9EF19F0026A022AFAEF5C
:1033F00019F0026A024680500218FD0B0218806E16
:10340000290E036E960E026E7F0EE82EFED7022E58
:10341000FCD7032EFAD700F080A211EF1AF015EFB7
:103420001AF0026A022A16EF1AF0026A0246805067
:103430000218FD0B0218806E290E036E960E026EA6
:103440007F0EE82EFED7022EFCD7032EFAD700F00F
:10345000020E0518D8A42FEF1AF031EF1AF069EF19
:103460001AF07CA836EF1AF03AEF1AF0026A022A34
:103470003BEF1AF0026A023A7C500218EF0B021876
:103480007C6E290E036E960E026E7F0EE82EFED71E
:10349000022EFCD7032EFAD700F07CA852EF1AF0C8
:1034A00056EF1AF0026A022A57EF1AF0026A023A3D
:1034B0007C500218EF0B02187C6E290E036E960EDC
:1034C000026E7F0EE82EFED7022EFCD7032EFAD70F
:1034D00000F0030E0518D8A470EF1AF072EF1AF07E
:1034E000AEEF1AF07CA677EF1AF07BEF1AF0026AC3
:1034F000022A7CEF1AF0026A0246024602467C501B
:103500000218F70B02187C6E290E036E960E026EDF
:103510007F0EE82EFED7022EFCD7032EFAD700F03E
:103520007CA695EF1AF099EF1AF0026A022A9AEF38
:103530001AF0026A0246024602467C500218F70B55
:1035400002187C6E290E036E960E026E7F0EE82E18
:10355000FED7022EFCD7032EFAD700F0040E051872
:10356000D8A4B5EF1AF0B7EF1AF0EDEF1AF07EA07D
:10357000BCEF1AF0C0EF1AF0026A022AC1EF1AF08B
:10358000026A7E500218FE0B02187E6E290E036E30
:10359000960E026E7F0EE82EFED7022EFCD7032E6B
:1035A000FAD700F07EA0D7EF1AF0DBEF1AF0026A2C
:1035B000022ADCEF1AF0026A7E500218FE0B021893
:1035C0007E6E290E036E960E026E7F0EE82EFED7DB
:1035D000022EFCD7032EFAD700F0030E0518D8A44C
:1035E000F4EF1AF0F6EF1AF02CEF1BF080A0FBEFCF
:1035F0001AF0FFEF1AF0026A022A00EF1BF0026ACB
:1036000080500218FE0B0218806E290E036E960E73
:10361000026E7F0EE82EFED7022EFCD7032EFAD7BD
:1036200000F080A016EF1BF01AEF1BF0026A022ACE
:103630001BEF1BF0026A80500218FE0B0218806E0E
:10364000290E036E960E026E7F0EE82EFED7022E16
:10365000FCD7032EFAD700F0042A0150045CD8A04E
:1036600034EF1BF036EF1BF0E8EF19F01200A1EC7D
:103670002DF0020E016E010EE1EC19F0290E0F6E15
:10368000960E0E6E7F0EE82EFED70E2EFCD70F2E56
:10369000FAD700F091EC2DF0090E0F6E1E0E0E6E93
:1036A000E40EE82EFED70E2EFCD70F2EFAD700D050
:1036B000F2EC2AF00CC0D9FF0DC0DAFF05C0DEFF26
:1036C00006C0DDFF1AEC2BF020EE02F00C50D926DC
:1036D0000D50DA2205C0DEFF06C0DDFF42EC2BF004
:1036E00020EE04F00C50D9260D50DA2205C0DEFF82
:1036F00006C0DDFFB1EC2DF0090E0F6E1E0E0E6E32
:10370000E40EE82EFED70E2EFCD70F2EFAD700D0EF
:10371000F2EC2AF020EE06F00C50D9260D50DA22F9
:1037200005C0DEFF06C0DDFF1AEC2BF020EE08F02E
:103730000C50D9260D50DA2205C0DEFF06C0DDFF91
:1037400042EC2BF020EE0AF00C50D9260D50DA2274
:1037500005C0DEFF06C0DDFFC1EC2DF0090E0F6EC7
:103760001E0E0E6EE40EE82EFED70E2EFCD70F2E88
:10377000FAD700D0F2EC2AF020EE0CF00C50D9264B
:103780000D50DA2205C0DEFF06C0DDFF1AEC2BF07B
:1037900020EE0EF00C50D9260D50DA2205C0DEFFC7
:1037A00006C0DDFF42EC2BF020EE10F00C50D926C5
:1037B0000D50DA2205C0DEFF06C0DDFF6AEC2BF0FB
:1037C00020EE1AF00C50D9260D50DA2205C0DEFF8B
:1037D00006C0DDFFD1EC2DF0090E0F6E1E0E0E6E31
:1037E000E40EE82EFED70E2EFCD70F2EFAD700D00F
:1037F000F2EC2AF020EE12F00C50D9260D50DA220D
:1038000005C0DEFF06C0DDFF1AEC2BF020EE14F041
:103810000C50D9260D50DA2205C0DEFF06C0DDFFB0
:1038200042EC2BF020EE16F00C50D9260D50DA2287
:1038300005C0DEFF06C0DDFF6AEC2BF020EE18F0BD
:103840000C50D9260D50DA2205C0DEFF06C0DDFF80
:10385000A1EC2DF0290E0F6E960E0E6E7F0EE82E47
:10386000FED70E2EFCD70F2EFAD700F0020E016EF7
:10387000010EE1EC19F0120055EC2DF00CEC2DF0DE
:10388000000E026EC70E016E3AEC2CF02BEC2EF0FF
:1038900001EC2EF010EC2EF03CEC2EF0E1EC2DF0D3
:1038A000990E016E010E026EA20E036E010E046EE1
:1038B000BCEC26F0000E01016F6F000E6E6F000E63
:1038C000706F000E726F000E716F000E746F000E3D
:1038D000736F000E0001796F000E786F7D0E7A6FA6
:1038E000010E7B6F660E7C6F010E7D6F990E7E6FF1
:1038F000010E7F6FA20E806F010E816F48EC26F0E3
:10390000990E00017D6F010E7E6FA20E7F6F010E7A
:10391000806F6EC181F06FC182F071C183F072C19E
:1039200084F073C185F074C186F073EC29F0010155
:103930007151735D0001F66F0101725174590001FC
:10394000F76FF75109E10B0EF65DD8A0AAEF1CF056
:10395000ACEF1CF0CEEF1CF0FD0EF66FFF0EF76F14
:1039600001017151735D0001F86F010172517459C9
:103970000001F96FF651F827F751F923010145517C
:10398000020D000EF324D96E010EF420DA6EF8C099
:10399000DEFFF9C0DDFF452BE9EF1CF00101702BC4
:1039A00070513EEC2DF0040E01017065DAEF1CF051
:1039B000DCEF1CF0E9EF1CF0990E2D6E010E2E6E5F
:1039C000A20E2F6E010E306E58EC13F0000E0101A6
:1039D000706F990E206E010E216EA20E226E010EE6
:1039E000236ED7EC2BF0750E0001716F010E726F14
:1039F0007D0E736F010E746F0AEC07F00101446FC6
:103A0000750E0001926F010E936F7D0E946F010E83
:103A1000956F01014451F3EC29F00101446F4451C9
:103A2000D8B415EF1DF017EF1DF025EF1DF0990E1E
:103A3000356E010E366EA20E376E010E386E445191
:103A4000F7EC16F0000E0101446F80EF1CF018EF48
:103A500000F020EE01F00F50D9261050DA22DF508E
:103A6000D8B435EF1DF037EF1DF068EF1DF00FC033
:103A7000D9FF10C0DAFFDF50116E1150016E026ADB
:103A800020EE07F00F50D9261050DA22DECF03F0D7
:103A9000DDCF04F07EEC2DF001C007F002C008F08D
:103AA000000E0A6E640E096EB2EC28F020EE07F0EC
:103AB0000F50D9261050DA22DECF12F0DDCF13F0EE
:103AC0000750125C186E08501358196E8BEF1DF0DA
:103AD0000FC0D9FF10C0DAFFDF50116E1150016E18
:103AE000026A20EE07F00F50D9261050DA22DECFFE
:103AF00003F0DDCF04F07EEC2DF001C007F002C032
:103B000008F0000E0A6E640E096EB2EC28F007C0D1
:103B100018F008C019F020EE02F00F50D92610500E
:103B2000DA22DECF11F0DDCF12F011C0D9FF12C0C2
:103B3000DAFF18C0DFFF20EE01F00F50D926105039
:103B4000DA22DF50D8B4A7EF1DF0A9EF1DF0DEEFA9
:103B50001DF020EE04F00F50D9261050DA22DECFEF
:103B600011F0DDCF12F011C0D9FF12C0DAFF10EE54
:103B700004F00F50E1261050E222E6CF13F0E5CF1B
:103B800014F013C0E1FF14C0E2FFE750156E10EE11
:103B900006F00F50E1261050E222E750166E010E9B
:103BA000176E162AD6EF1DF0D8901736162ED4EFC2
:103BB0001DF017501510DF6E12EF1EF020EE04F00E
:103BC0000F50D9261050DA22DECF11F0DDCF12F0DF
:103BD00011C0D9FF12C0DAFF10EE04F00F50E12639
:103BE0001050E222E6CF13F0E5CF14F013C0E1FF4E
:103BF00014C0E2FFE750156E10EE06F00F50E126FC
:103C00001050E222E750166E010E176E162A0BEFC7
:103C10001EF0D8901736162E09EF1EF01750FF0A27
:103C20001514DF6E120042C0D9FF43C0DAFFDECFA9
:103C3000F6FFDDCFF7FF0800F550250AD8A423EFE3
:103C40001EF025EF1EF0D2EF1EF042C0D9FF43C098
:103C5000DAFFDE2A000EDD22000E0101416F000EA8
:103C6000406F40C1FCF041C1FDF00001FA69FB6901
:103C700042C0D9FF43C0DAFFDECFF6FFDDCFF7FF4A
:103C80000800F550640AD8B448EF1EF04AEF1EF061
:103C90005CEF1EF042C0D9FF43C0DAFFDECFF6FF73
:103CA000DDCFF7FF0800F550690AD8A45AEF1EF0DF
:103CB0005CEF1EF09CEF1EF042C0D9FF43C0DAFF5C
:103CC000DE2A000EDD2244C0D9FF45C0DAFFDFCF77
:103CD00046F0020EDE26DFCF47F0000EDD2246C0A2
:103CE000D9FF47C0DAFFDECF48F0DDCF49F0000E44
:103CF00049BEFF0E4A6E4B6E4C6E4D6E4E6E4F6E51
:103D000040C01CF041C01DF048C01EF049C01FF06B
:103D10004AC020F04BC021F04CC022F04DC023F02F
:103D20004EC024F04FC025F06FEC18F01CC040F0DE
:103D30001DC041F0EDEF1EF042C0D9FF43C0DAFFD5
:103D4000DECFF6FFDDCFF7FF0800F550250AD8A437
:103D5000ACEF1EF0AEEF1EF0C5EF1EF042C0D9FF73
:103D600043C0DAFFDE2A000EDD22000E026E250EB1
:103D7000016E40C003F041C004F025EC27F0000EB6
:103D8000416E010E406EEDEF1EF042C0D9FF43C000
:103D9000DAFFDE2A000EDD22000E416E000E406EBC
:103DA000EDEF1EF042C0D9FF43C0DAFFDECFF6FFD1
:103DB000DDCFF7FF0800F550016E026A40C003F046
:103DC00041C004F025EC27F042C0D9FF43C0DAFF20
:103DD000DE2A000EDD22BFEF1EF01200096E095030
:103DE000D8B4F5EF1EF0F7EF1EF019EF1FF004BE88
:103DF000FEEF1EF0FCEF1EF019EF1FF001C005F002
:103E000002C006F003C007F004C008F0051E061E3D
:103E1000071E081E052A000E06220722082205C0DA
:103E20000BF006C00CF007C00DF008C00EF021EF3B
:103E30001FF001C00BF002C00CF003C00DF004C075
:103E40000EF00150021003100410D8A42AEF1FF046
:103E50002CEF1FF036EF1FF0000E016E000E026E09
:103E6000000E036E000E046EC7EF1FF0960E0A6E72
:103E700040EF1FF00A2AD8900E320D320C320B326E
:103E8000000E0B14056E000E0C14066E000E0D14C1
:103E9000076EFE0E0E14086E05500610071008106F
:103EA000D8A455EF1FF057EF1FF03AEF1FF065EF62
:103EB0001FF00A2A010E0B26000E0C220D220E22E4
:103EC000D8900E320D320C320B32000E0B14056EF0
:103ED000000E0C14066E000E0D14076EFF0E0E146D
:103EE000086E0550061007100810D8A47AEF1FF0CE
:103EF0007CEF1FF059EF1FF084EF1FF00A06D890F7
:103F00000B360C360D360E360DBE89EF1FF08BEFDB
:103F10001FF093EF1FF0020E0A6091EF1FF093EF76
:103F20001FF07EEF1FF00AB098EF1FF09AEF1FF01E
:103F30009BEF1FF00D9ED8900A320AC005F0066A6A
:103F4000076A086A05C008F0076A066A056A05502C
:103F50000B1206500C1207500D1208500E12095089
:103F6000D8B4B5EF1FF0B7EF1FF0BFEF1FF004BEDE
:103F7000BEEF1FF0BCEF1FF0BFEF1FF00E8E0BC0A7
:103F800001F00CC002F00DC003F00EC004F01200EE
:103F9000000E2C6E000E2C6E96EF20F020EE01F03D
:103FA0002050D9262150DA22010EDF6E20EE01F0DA
:103FB0002250D9262350DA22010EDF6E2504D8A420
:103FC000E4EF1FF0E6EF1FF03BEF20F007EF20F0EB
:103FD00022C0D9FF23C0DAFF050EDF2620C0D9FF9B
:103FE00021C0DAFF000EDF6E20C00FF021C010F0FC
:103FF00029EC1DF022C00FF023C010F029EC1DF0B9
:10400000D00E266ECA0EE82EFED7262EFCD722C072
:10401000D9FF23C0DAFF1D0EDF6411EF20F013EF8C
:1040200020F0E8EF1FF0000E296E000E286E23EF3F
:1040300020F0150E266EC60EE82EFED7262EFCD7D3
:1040400000D0284A292A0001FE51285CFF51295836
:10405000D8A02DEF20F02FEF20F019EF20F020C096
:104060001AF021C01BF022C01CF023C01DF014EC7C
:1040700029F095EF20F0020E2518D8A442EF20F089
:1040800044EF20F095EF20F065EF20F020C0D9FF3D
:1040900021C0DAFF050EDF2622C0D9FF23C0DAFFD8
:1040A000000EDF6E20C00FF021C010F029EC1DF0D3
:1040B00022C00FF023C010F029EC1DF0D00E266EA8
:1040C000CA0EE82EFED7262EFCD720C0D9FF21C06D
:1040D000DAFF1D0EDF646FEF20F071EF20F046EF86
:1040E00020F0000E2B6E000E2A6E81EF20F0150ED0
:1040F000266EC60EE82EFED7262EFCD700D02A4A02
:104100002B2A0A0E0001FE25266E000EFF21276EC7
:1041100026502A5C27502B58D8A091EF20F093EF1F
:1041200020F077EF20F02FEF20F02C2A24502C5C89
:10413000D8A09DEF20F09FEF20F0CEEF1FF01200EF
:10414000000E0001DF6F000EDE6F000EE36F000E49
:10415000E26F000EE56F000EE46F000EDF6F000EE1
:10416000DE6FD1EC2DF0090E5D6E1E0E5C6EE40E5E
:10417000E82EFED75C2EFCD75D2EFAD700D05AC0B1
:104180000CF05BC00DF09AEC2AF05AC058F05BC0FE
:1041900059F031EC2AF00001DE4BDF2BDFBFD9EF05
:1041A00020F0DF5108E1DE05D8A0D9EF20F0DBEFE9
:1041B00020F0B1EF20F0000EE16F000EE06F91EC07
:1041C0002DF0090E5D6E1E0E5C6EE40EE82EFED71D
:1041D0005C2EFCD75D2EFAD700D05AC00CF05BC025
:1041E0000DF09AEC2AF05AC058F05BC059F031EC4F
:1041F0002AF00001E04BE12BE1BF07EF21F0E15194
:1042000008E1E005D8A007EF21F009EF21F0DFEF8A
:1042100020F0000EE36F000EE26FB1EC2DF0090EFE
:104220005D6E1E0E5C6EE40EE82EFED75C2EFCD793
:104230005D2EFAD700D05AC00CF05BC00DF09AEC9E
:104240002AF05AC058F05BC059F031EC2AF0000156
:10425000E24BE32BE3BF35EF21F0E35108E1E20548
:10426000D8A035EF21F037EF21F00DEF21F0000E4F
:10427000E56F000EE46FC1EC2DF0090E5D6E1E0EB1
:104280005C6EE40EE82EFED75C2EFCD75D2EFAD7CE
:1042900000D05AC00CF05BC00DF09AEC2AF05AC066
:1042A00058F05BC059F031EC2AF00001E44BE52BEB
:1042B000E5BF63EF21F0E55108E1E405D8A063EF25
:1042C00021F065EF21F03BEF21F0010E3EEC2DF0E7
:1042D000D1EC2DF012000001F56F000E0001F26F1D
:1042E000000EF46F000EF16F000EF06F020EF51964
:1042F000D8A47DEF21F07FEF21F085EF21F0E8C019
:104300000CF0E9C00DF037EC1BF0040E0001F519BC
:10431000D8A48DEF21F08FEF21F099EF21F0E6C0C6
:104320006AF0E7C06BF0A6EC23F06AC0F0F06BC057
:10433000F1F00001F505D8A4A0EF21F0A2EF21F0E3
:10434000B0EF21F0D1EC2DF0E6C00CF0E7C00DF09D
:104350009AEC2AF0E6C058F0E7C059F031EC2AF0A8
:10436000020E0001F519D8A4B8EF21F0BAEF21F040
:10437000C9EF21F0E6C071F0E7C072F0E8C073F059
:10438000E9C074F00AEC07F00001F36FF3513EEC62
:104390002DF0030E0001F519D8A4D1EF21F0D3EFD1
:1043A00021F0E6EF21F0DEEF21F0E6C05AF0E7C0A1
:1043B0005BF0A0EC20F0010E0001F26FF251D8B4D6
:1043C000E4EF21F0E6EF21F0D5EF21F0040EF5192E
:1043D000D8A4EDEF21F0EFEF21F099EF21F00BEFF2
:1043E00022F0EAC01AF0EBC01BF0ECC01CF0EDC0EC
:1043F0001DF050EC28F0EAC06AF0EBC06BF0ECC0A6
:104400006CF0EDC06DF0F0C06EF0F1C06FF0EDEC4F
:1044100027F00001F46FF451D8B411EF22F013EF3C
:1044200022F0F1EF21F0EAC01AF0EBC01BF0ECC073
:104430001CF0EDC01DF014EC29F0520E0001EF6FDE
:104440002B0EEE6F000EE82EFED7EE2FFCD7EF2FCF
:10445000FAD700F0000E0001F46F99EF21F012007E
:10446000000E126E10BE39EF22F037EF22F04BEF44
:1044700022F0101E0F1E0E1E0D1E0C1E0B1E0A1EFD
:10448000096C000E0A220B220C220D220E220F2292
:104490001022010E126E08BE52EF22F050EF22F0F1
:1044A00064EF22F0081E071E061E051E041E031ED2
:1044B000021E016C000E02220322042205220622A3
:1044C00007220822010E121A20EE13F0070EDE6AF0
:1044D000E806FDE209500A100B100C100D100E102A
:1044E0000F101010D8B477EF22F079EF22F0CBEF55
:1044F00022F0010E116E87EF22F0D89009360A36AD
:104500000B360C360D360E360F361036112A10AE1D
:104510008CEF22F08EEF22F07DEF22F0D890133650
:104520001436153616361736183619361A36095017
:10453000015C0A5002580B5003580C5004580D509F
:1045400005580E5006580F50075810500858D8A05C
:10455000ACEF22F0AEEF22F0BFEF22F00950015E87
:104560000A50025A0B50035A0C50045A0D50055A67
:104570000E50065A0F50075A1050085A1380D89000
:1045800010320F320E320D320C320B320A32093237
:10459000112E8EEF22F01250D8B4D1EF22F0D3EFCB
:1045A00022F0E3EF22F01A1E191E181E171E161E07
:1045B000151E141E136C000E14221522162217222B
:1045C000182219221A2213C001F014C002F015C0DB
:1045D00003F016C004F017C005F018C006F019C0AB
:1045E00007F01AC008F01200000E126E08BEFDEFB0
:1045F00022F0FBEF22F00FEF23F0081E071E061E2D
:10460000051E041E031E021E016C000E0222032260
:1046100004220522062207220822010E126E10BE75
:1046200016EF23F014EF23F026EF23F0101E0F1ED9
:104630000E1E0D1E0C1E0B1E0A1E096C000E0A22F9
:104640000B220C220D220E220F22102209500A10DA
:104650000B100C100D100E100F101010D8B433EFFB
:1046600023F035EF23F07DEF23F0010E116E43EFC1
:1046700023F0D89009360A360B360C360D360E3636
:104680000F361036112A10AE48EF23F04AEF23F010
:1046900039EF23F00950015C0A5002580B500358BF
:1046A0000C5004580D5005580E5006580F5007581E
:1046B00010500858D8A05FEF23F061EF23F071EF9E
:1046C00023F00950015E0A50025A0B50035A0C5055
:1046D000045A0D50055A0E50065A0F50075A1050E2
:1046E000085AD89010320F320E320D320C320B3283
:1046F0000A320932112E4AEF23F01250D8B483EF58
:1047000023F085EF23F095EF23F0081E071E061E09
:10471000051E041E031E021E016C000E022203224F
:104720000422052206220722082201C001F002C04D
:1047300002F003C003F004C004F005C005F006C099
:1047400006F007C007F008C008F01200000E0001D4
:10475000756F000E746F000E776F000E766F000E8F
:104760006F6F000E6E6F020E016E020EE1EC19F01B
:10477000D1EC2DF0290E00016D6F960E6C6F7F0E3F
:10478000E82EFED76C2FFCD76D2FFAD76AEC2BF0F2
:1047900005C072F006C073F0110E00016D6F3C0E83
:1047A0006C6FCB0EE82EFED76C2FFCD76D2FFAD78F
:1047B0006AEC2BF005C074F006C075F0110E000114
:1047C0006D6F3C0E6C6FCB0EE82EFED76C2FFCD7B6
:1047D0006D2FFAD76AEC2BF005C076F006C077F0A3
:1047E000110E00016D6F3C0E6C6FCB0EE82EFED7E4
:1047F0006C2FFCD76D2FFAD70001745172256C6FA6
:10480000755173216D6F76516C2777516D236CC094
:1048100001F06DC002F0036A046A000EEEEC1EF0B7
:1048200001C00FF002C010F003C011F004C012F07C
:10483000000E136E000E146E400E156E400E166EB6
:104840002AEC15F00FC066F010C067F011C068F0D8
:1048500012C069F0B8EC2CF066C070F067C071F05F
:10486000020E016E020EE1EC19F070C06AF071C028
:104870006BF0120020EE01F02050D9262150DA22F0
:10488000000EDF6E20EE01F02250D9262350DA22EE
:10489000000EDF6E6BEF24F020C0D9FF21C0DAFFDD
:1048A0000A0EDF2622C0D9FF23C0DAFF0A0EDF2658
:1048B00020C00FF021C010F029EC1DF022C00FF035
:1048C00023C010F029EC1DF0D00E256ECA0EE82E84
:1048D000FED7252EFCD720C0D9FF21C0DAFF270E36
:1048E000DF6475EF24F077EF24F04CEF24F022C062
:1048F000D9FF23C0DAFF270EDF6481EF24F083EFB6
:1049000024F04CEF24F02404D8A489EF24F08BEF9A
:1049100024F096EF24F0310E266EB40E256E660E4E
:10492000E82EFED7252EFCD7262EFAD7020E241805
:10493000D8A49DEF24F09FEF24F0ABEF24F0410EBC
:10494000266EF00E256E330EE82EFED7252EFCD7F0
:10495000262EFAD700F0030E2418D8A4B2EF24F0C4
:10496000B4EF24F0C0EF24F0720E266EA30E256E75
:104970009B0EE82EFED7252EFCD7262EFAD700F068
:1049800020C01AF021C01BF022C01CF023C01DF073
:1049900014EC29F012005D345E340001656F65513E
:1049A000D8A4D5EF24F0D7EF24F0E1EF24F0000EE7
:1049B0005B6E000E5C6E000E5D6E000E5E6E4EEF66
:1049C00025F05BC060F05CC061F05DC062F05EC06D
:1049D00063F0200EF1EF24F0D8906333623361333B
:1049E0006033E82EECEF24F06051646F5D8EFF0EB3
:1049F0005B16FF0E5C16FF0E5D16000E5E16960E21
:104A0000655F65BF08EF25F006EF25F01EEF25F086
:104A10006551800A970FD8B010EF25F012EF25F0FE
:104A200014EF25F0D7EF24F0D8905E325D325C327F
:104A30005B32653F14EF25F036EF25F01F0E6565FC
:104A400024EF25F026EF25F02EEF25F0D7EF24F008
:104A5000D8905B365C365D365E3665076551D8A406
:104A600034EF25F036EF25F028EF25F06451D8B467
:104A70003CEF25F03EEF25F046EF25F05E1E5D1E73
:104A80005C1E5B6C000E5C225D225E225BC05BF0F4
:104A90005CC05CF05DC05DF05EC05EF01200000EB8
:104AA0000114096E000E02140A6E800E03140B6EC0
:104AB0007F0E04140C6E09500A100B100C10D8A4B1
:104AC00064EF25F066EF25F06EEF25F0000E016E25
:104AD000000E026E000E036E000E046E000E051432
:104AE000096E000E06140A6E800E07140B6E7F0E00
:104AF00008140C6E09500A100B100C10D8A483EF88
:104B000025F085EF25F08DEF25F0000E056E000EE7
:104B1000066E000E076E000E086E04AE92EF25F0D2
:104B200094EF25F09DEF25F0016C021ED8B0022A0B
:104B3000031ED8B0032A800E045608AEA2EF25F05B
:104B4000A4EF25F0ADEF25F0056C061ED8B0062ABF
:104B5000071ED8B0072A800E0856000E011A000E54
:104B6000021A000E031A800E041A000E051A000E17
:104B7000061A000E071A800E081A0550015C06502E
:104B800002580750035808500458D8B0CAEF25F00F
:104B9000CCEF25F0CFEF25F0D890D0EF25F0D880DE
:104BA00012007C8E80868EB4D8EF25F0DAEF25F0E7
:104BB00006EF26F0190E366E5A0E356EB20EE82E3E
:104BC000FED7352EFCD7362EFAD78EB4EAEF25F075
:104BD000ECEF25F0FDEF25F07C9E190E366E5A0E97
:104BE000356EB20EE82EFED7352EFCD7362EFAD70C
:104BF000050E0001FE27000EFF238EB602EF26F001
:104C000004EF26F006EF26F03BEF26F08EB60BEF12
:104C100026F00DEF26F0D1EF25F0190E366E5A0E64
:104C2000356EB20EE82EFED7352EFCD7362EFAD7CB
:104C30008EB41DEF26F01FEF26F021EF26F03BEF9C
:104C400026F08EB626EF26F028EF26F0D1EF25F0DD
:104C50008096190E366E5A0E356EB20EE82EFED7BD
:104C6000352EFCD7362EFAD7050E0001FE5F000E5A
:104C7000FF5BD1EF25F07C9E809631C02DF032C0D5
:104C80002EF033C02FF034C030F0B4EC29F0120015
:104C9000A1EC2DF07C8E80868EB451EF26F053EF80
:104CA00026F04CEF26F08EB458EF26F05AEF26F09F
:104CB0006DEF26F07AC00CF07BC00DF037EC1BF0E6
:104CC0007C9E290E0001836F960E826F7F0EE82E68
:104CD000FED7822FFCD7832FFAD78EB672EF26F03D
:104CE00074EF26F06DEF26F08EB679EF26F07BEFAD
:104CF00026F08EEF26F07CC06AF07DC06BF0A6EC4B
:104D000023F08096290E0001836F960E826F7F0E2E
:104D1000E82EFED7822FFCD7832FFAD77C8E8EB653
:104D200094EF26F096EF26F0A0EF26F07EC031F04B
:104D30007FC032F080C033F081C034F0D1EC25F078
:104D40008EB4A5EF26F0A7EF26F0A0EF26F08EB4E4
:104D5000ACEF26F0AEEF26F0BBEF26F07C9E290EDE
:104D60000001836F960E826F7F0EE82EFED7822F92
:104D7000FCD7832FFAD7120001C0D9FF02C0DAFF97
:104D8000000EDF6E20EE01F00150D9260250DA222B
:104D9000010EDF6E20EE02F00150D9260250DA2219
:104DA000A30EDE6E0F0EDD6E20EE04F00150D9264C
:104DB0000250DA227D0EDE6E0F0EDD6E20EE06F062
:104DC0000150D9260250DA22040EDF6E20EE07F0E1
:104DD0000150D9260250DA22C70EDE6E000EDD6EBB
:104DE00003C0D9FF04C0DAFF000EDF6E20EE01F031
:104DF0000350D9260450DA22010EDF6E20EE02F0B5
:104E00000350D9260450DA22A00EDE6E0F0EDD6E9E
:104E100020EE04F00350D9260450DA227F0EDE6E15
:104E20000F0EDD6E20EE06F00350D9260450DA2274
:104E3000060EDF6E20EE07F00350D9260450DA226A
:104E4000C70EDE6E000EDD6E120003500410D8B4E3
:104E50002CEF27F02EEF27F037EF27F00350041048
:104E6000D8A435EF27F037EF27F03CEF27F00150BB
:104E700052EC2EF089EF27F020EE09F00350D926EE
:104E80000450DA22DE50DE10D8B449EF27F04BEFA1
:104E900027F066EF27F020EE09F00350D9260450E2
:104EA000DA2210EE03F00350E1260450E222DE5035
:104EB000E65CE650800A096EDE50800A0958D8B0D8
:104EC00064EF27F066EF27F089EF27F020EE03F07C
:104ED0000350D9260450DA22DECF05F0DDCF06F0EC
:104EE00003C0D9FF04C0DAFFDECF07F0DDCF08F042
:104EF00005500724D96E06500820DA6E01C0DFFF86
:104F000020EE03F00350D9260450DA22DE2A000EE8
:104F1000DD2212000001FCA190EF27F092EF27F0B4
:104F20009CEF27F013C00AF014C00BF011C00CF076
:104F300012C00DF0B5EC2BF016BEA1EF27F0A3EFD9
:104F400027F0A9EF27F015C01AF016C01BF0ADEF3F
:104F500027F0000E1B6E000E1A6E000E196E000E6A
:104F6000186EBFEF27F0000E026E200E016E11C00A
:104F700003F012C004F025EC27F0184A192A1A5041
:104F8000185C1950800A176E1B50800A1758D8A059
:104F9000CCEF27F0CEEF27F0B3EF27F00001FCB104
:104FA000D4EF27F0D6EF27F0E0EF27F013C00AF098
:104FB00014C00BF011C00CF012C00DF0B5EC2BF0CA
:104FC00013C001F014C002F0F1EC2CF01A500124CF
:104FD000116E1B500220126E1200000E0001736F42
:104FE000000E726F000E7C6F000E7B6F000E7A6FEA
:104FF000D1EC2DF0090E0001716F1E0E706FE40EE2
:10500000E82EFED7702FFCD7712FFAD700F06AEC8C
:105010002BF005C078F006C079F01AEC2BF06EC0CA
:1050200001F06FC002F0036A046A000EEEEC1EF09D
:1050300001C028F002C029F003C02AF004C02BF000
:10504000CD0E2C6ECC0E2D6E8C0E2E6E3F0E2F6E56
:105050006CEC0FF028C074F029C075F02AC076F00F
:105060002BC077F074C066F075C067F076C068F04A
:1050700077C069F0B8EC2CF066C07AF067C07BF0BE
:1050800000017A51785D7B517959D8A04AEF28F018
:105090004CEF28F04EEF28F0010E7C6F7C5112008F
:1050A00020EE01F01A50D9261B50DA22010EDF6ED5
:1050B00020EE01F01C50D9261D50DA22010EDF6EC1
:1050C00099EF28F01AC0D9FF1BC0DAFF220EDF606B
:1050D0006CEF28F06EEF28F074EF28F01AC0D9FFBB
:1050E0001BC0DAFF020EDF261CC0D9FF1DC0DAFF8D
:1050F0001E0EDF607EEF28F080EF28F086EF28F0AC
:105100001CC0D9FF1DC0DAFF020EDF261AC00FF047
:105110001BC010F029EC1DF01CC00FF01DC010F0DA
:1051200029EC1DF0D00E1E6ECA0EE82EFED71E2EE4
:10513000FCD71AC0D9FF1BC0DAFF210EDF64A3EF32
:1051400028F0A5EF28F062EF28F01CC0D9FF1DC0A1
:10515000DAFF1D0EDF64AFEF28F0B1EF28F062EF49
:1051600028F01200000E0C6E0ABEBBEF28F0B9EF5B
:1051700028F0C1EF28F0096C0A1ED8B00A2A010EE7
:105180000C6E08BEC8EF28F0C6EF28F0CEEF28F06E
:10519000076C081ED8B0082A010E0C1A000E0E6EFD
:1051A000000E0D6E09500A10D8B4D9EF28F0DBEFCD
:1051B00028F003EF29F0010E0B6EE3EF28F0D890F2
:1051C00009360A360B2A0AAEE8EF28F0EAEF28F093
:1051D000DFEF28F0D8900D360E360950075C0A50E4
:1051E0000858D8A0F6EF28F0F8EF28F0FDEF28F0E7
:1051F0000950075E0A50085A0D80D8900A320932C9
:105200000B2EEAEF28F00C50D8B409EF29F00BEF81
:1052100029F00FEF29F00D6C0E1ED8B00E2A0DC02C
:1052200007F00EC008F012004EEF29F01AC0D9FFA7
:105230001BC0DAFFDF50D8B420EF29F022EF29F0AD
:1052400028EF29F01AC0D9FF1BC0DAFF020EDF5E7B
:105250001CC0D9FF1DC0DAFFDF50D8B432EF29F0EF
:1052600034EF29F03AEF29F01CC0D9FF1DC0DAFF56
:10527000020EDF5E1AC00FF01BC010F029EC1DF00B
:105280001CC00FF01DC010F029EC1DF0680E1E6E42
:10529000E40EE82EFED71E2EFCD700D01AC0D9FF90
:1052A0001BC0DAFFDF50D8A458EF29F05AEF29F0DD
:1052B00016EF29F01CC0D9FF1DC0DAFFDF50D8A4BB
:1052C00064EF29F066EF29F016EF29F0290E1F6E22
:1052D000960E1E6E7F0EE82EFED71E2EFCD71F2EBA
:1052E000FAD700F01200000E0001896FD58E93EFFF
:1052F00029F07DC01AF07EC01BF07FC01CF080C07A
:105300001DF050EC28F07DC06AF07EC06BF07FC0CD
:105310006CF080C06DF081C06EF082C06FF0EDEC7B
:1053200027F00001896F8951D8B499EF29F09BEFDC
:1053300029F079EF29F0D59E7DC01AF07EC01BF0D0
:105340007FC01CF080C01DF014EC29F0520E00014B
:10535000886F2B0E876F000EE82EFED7872FFCD7A5
:10536000882FFAD700F012002DC020F02EC021F0B7
:105370002FC022F030C023F0080E246E010E256EDF
:10538000C8EC1FF02DC020F02EC021F02FC022F05D
:1053900030C023F0080E246E020E256EC8EC1FF0FC
:1053A0002DC020F02EC021F02FC022F030C023F0FD
:1053B000F8EC2BF02DC020F02EC021F02FC022F0F1
:1053C00030C023F0030E246E010E256EC8EC1FF0D2
:1053D0002DC020F02EC021F02FC022F030C023F0CD
:1053E000F8EC2BF0120000019A6F050E0001976F88
:1053F0000F0E966FF10EE82EFED7962FFCD7972F43
:10540000FAD792C071F093C072F094C073F095C057
:1054100074F00AEC07F00001966F9651986F996B43
:10542000050E0001976F0F0E966FF10EE82EFED756
:10543000962FFCD7972FFAD700019A51966F976B4A
:105440009851961907E199519719D8A42AEF2AF093
:105450002CEF2AF02FEF2AF09A5130EF2AF0000EAD
:105460001200790E0001606F000E616F050E626F11
:105470000E0E636F58C0D9FF59C0DAFFDECF64F05B
:10548000DDCF65F020EE02F05850D9265950DA22CF
:10549000DECF66F0DDCF67F020EE04F05850D9265D
:1054A0005950DA22DECF68F0DDCF69F020EE06F049
:1054B0005850D9265950DA22DECF6AF0DDCF6BF092
:1054C000C9EC2AF0790E026E000E036E26EC2DF068
:1054D000120052C056F053C057F0000E01013F6F4A
:1054E000000E3E6F87EF2AF050C040F051C041F0EF
:1054F000560E426E000E436E54C044F055C045F047
:1055000013EC1EF0405001013E2741503F2356C08E
:10551000F6FF57C0F7FF0800F5500009D8A493EF35
:105520002AF095EF2AF074EF2AF03EC150F03FC107
:1055300051F01200F2EC2AF00CC0D9FF0DC0DAFFD6
:1055400005C0DEFF06C0DDFF42EC2BF020EE04F0CC
:105550000C50D9260D50DA2205C0DEFF06C0DDFF53
:105560001AEC2BF020EE02F00C50D9260D50DA2266
:1055700005C0DEFF06C0DDFF6AEC2BF020EE06F072
:105580000C50D9260D50DA2205C0DEFF06C0DDFF23
:105590001200640E00016C6F000E6D6F60C06EF043
:1055A00061C06FF0000E726F000E716F000E786FA9
:1055B000000E776F6E0E506E000E516E62C052F08C
:1055C00063C053F06C0E546E000E556E69EC2AF0F9
:1055D000000171516025D96E72516121DA6E000EA1
:1055E000DF6E12004CEC2EF0520E36EC2EF0B60EA2
:1055F00036EC2EF042EC2EF0530E36EC2EF0010E6F
:1056000019EC2CF0076E07500A6E0B6A000E19ECAD
:105610002CF0076E0750096E086A0A5008100A6ECF
:105620000B5009100B6E47EC2EF00AC005F00BC0B2
:1056300006F012004CEC2EF0520E36EC2EF0B80EA6
:1056400036EC2EF042EC2EF0530E36EC2EF0010E1E
:1056500019EC2CF0076E07500A6E0B6A000E19EC5D
:105660002CF0076E0750096E086A0A5008100A6E7F
:105670000B5009100B6E47EC2EF00AC005F00BC062
:1056800006F012004CEC2EF0520E36EC2EF0BA0E54
:1056900036EC2EF042EC2EF0530E36EC2EF0010ECE
:1056A00019EC2CF0076E07500A6E0B6A000E19EC0D
:1056B0002CF0076E0750096E086A0A5008100A6E2F
:1056C0000B5009100B6E47EC2EF00AC005F00BC012
:1056D00006F012004CEC2EF0520E36EC2EF0B40E0A
:1056E00036EC2EF042EC2EF0530E36EC2EF0010E7E
:1056F00019EC2CF0076E07500A6E0B6A000E19ECBD
:105700002CF0076E0750096E086A0A5008100A6EDE
:105710000B5009100B6E47EC2EF00AC005F00BC0C1
:1057200006F01200000E151A000E161A000E171AB7
:10573000800E181A11C001F012C002F013C003F05D
:1057400014C004F015C005F016C006F017C007F02D
:1057500018C008F00CEC0DF001C011F002C012F0FE
:1057600003C013F004C014F01200000E106E000EFF
:105770000F6EC6EF2BF00EC001F0026A0CC003F0F2
:105780000DC004F025EC27F00F4A102A0F500A2410
:10579000D96E10500B20DA6EDF500E6E0E50D8A46A
:1057A000D4EF2BF0D6EF2BF0BBEF2BF0120020C084
:1057B0001AF021C01BF022C01CF023C01DF050ECD9
:1057C00028F0290E256E960E246E7F0EE82EFED749
:1057D000242EFCD7252EFAD700F020C01AF021C0C5
:1057E0001BF022C01CF023C01DF014EC29F01200A5
:1057F00020C01AF021C01BF022C01CF023C01DF0F5
:1058000050EC28F0F40E256E820E246E050EE82E64
:10581000FED7242EFCD7252EFAD700F020C01AF090
:1058200021C01BF022C01CF023C01DF014EC29F095
:105830001200036E6AEC2DF00E01DA876AEC2DF08F
:10584000D5CE04F06AEC2DF00350D8B42AEF2CF03A
:105850002EEF2CF0026A022A2FEF2CF0026A023A95
:1058600002460E01DA510218DF0B0218DA6FDA89EC
:10587000045012008594839E879C85987D947B9E1E
:105880007F9C7D98BD508F0B3009BD6EE00EBE161B
:10589000BF50F00B0109BF6EC70EBC6EBD8E0A0E65
:1058A0000E01746F0B0E696F000EA36E000EA06EDA
:1058B000A48EA18E1200A20EF66E5C0EF76E000E84
:1058C000F86E0900F5CFFEF00900F5CFFFF001EE0C
:1058D00000F0660EEE6AE806FDE10001FD6BFC6B70
:1058E000FB6BFA6B5F905F92000EF86E0E0EF76E18
:1058F00000013CEF1CF014BE88EF2CF0145006E1C0
:105900001304D8B086EF2CF088EF2CF096EF2CF033
:1059100013C015F014C016F0151E161E154A162ACF
:1059200015C013F016C014F09AEF2CF013C013F04A
:1059300014C014F01200000E0001706F6C516A5D0B
:105940006D516B59D8B0A7EF2CF0A9EF2CF0B6EF42
:105950002CF06C516E5D6D516F59D8A0B2EF2CF0E8
:10596000B4EF2CF0B6EF2CF0010E706F70511200F6
:1059700066C041F067C042F068C043F069C044F0BF
:1059800081EC11F041C05BF042C05CF043C05DF0BF
:1059900044C05EF0CBEC24F05BC066F05CC067F006
:1059A0005DC068F05EC069F0120001500210031083
:1059B0000410D8B4DEEF2CF0E0EF2CF0E8EF2CF080
:1059C000000E011A000E021A000E031A800E041AAD
:1059D00001C001F002C002F003C003F004C004F0F3
:1059E000120001C003F002C004F0F9EF2CF0014AEC
:1059F000022A01C0D9FF02C0DAFFDF50D8A403EFAA
:105A00002DF005EF2DF0F7EF2CF00350015C016E47
:105A100004500258026E120055EC2DF0010E036E78
:105A2000000EF1EC2DF03F0E056E550EE82EFED760
:105A3000052EFCD700F0030E036E000EF1EC2DF0E6
:105A4000D50E036E010EF1EC2DF0120031EF2DF0AA
:105A500002C0D9FF03C0DAFFDF501FEC2EF0024A6C
:105A6000032A02C0D9FF03C0DAFFDF50D8A43BEFFE
:105A70002DF03DEF2DF028EF2DF012000001DD6F2D
:105A8000790E0001606F000E616F0D0E626F0E0ED9
:105A9000636FDDC064F0656BC9EC2AF0790E026EAD
:105AA000000E036E26EC2DF012000E01D951F00B02
:105AB0000809D96FD98B9F0ED66F848A848CA79BD7
:105AC000A79D1D0E1D6F1E0E1C6F1C0E6F6F1B0EF3
:105AD000706F12000E01D8B570EF2DF072EF2DF03F
:105AE0006AEF2DF0DACE01F01F0E0116D8A47BEF7D
:105AF0002DF07DEF2DF06AEF2DF012000150030222
:105B0000F3CF05F0F4CF06F001500402F35006265F
:105B100002500302F350062605C001F006C002F051
:105B200012007F827E9E7998110E026E3C0E016EED
:105B3000CB0EE82EFED7012EFCD7022EFAD700F0AE
:105B400012007F927E9E7998110E026E3C0E016EBD
:105B5000CB0EE82EFED7012EFCD7022EFAD700F08E
:105B600012007F927E9E7988110E026E3C0E016EAD
:105B7000CB0EE82EFED7012EFCD7022EFAD700F06E
:105B800012007F927E8E7998110E026E3C0E016E8D
:105B9000CB0EE82EFED7012EFCD7022EFAD700F04E
:105BA00012007F827E8E7988110E026E3C0E016E8D
:105BB000CB0EE82EFED7012EFCD7022EFAD700F02E
:105BC000120086840E01B4958686B4978792869ECD
:105BD00081987F827E8E7988849E7C9E889680962E
:105BE0001200046E4CEC2EF0520E36EC2EF00450E7
:105BF000800936EC2EF0035036EC2EF047EC2EF0F8
:105C00001200120E0E01626F110E156FE997E895E2
:105C1000330EE56F000EE66FE789E88BE78F120021
:105C2000D6501F0B4009D66ED688D650F00B05090A
:105C3000D66ED5883C0ED46EAF0ED36E1200016EB8
:105C40000E0137A526EF2EF028EF2EF020EF2EF0D4
:105C500001C0E4FE12008892849884968690889011
:105C600080927C987C967E9080901200026E6AEC06
:105C70002DF002C0D5FE1200F28EF28AF28C0E01D7
:105C8000298B12006AEC2DF00E01DA8312006AEC07
:105C90002DF00E01DA8512006AEC2DF00E01DA818A
:065CA00012006301120076
:020000040020DA
:10000000FF0FFF0FFF0FFF0FFF0FFF0FFF0FFF0F80
:020000040030CA
:0C000000AAFFFFFF9FFFFFFFFFFFFFFFB5
:00000001FF
