:040000001CEF1FF0E2
:100E0000000000004B256409256409256409256458
:100E10000D0A004C6967687420626C7565004F723A
:100E2000616E67650059656C6C6F7700576869740F
:100E30006500426C61636B00477265656E004572C8
:100E4000726F7200426C75650050696E6B0052657E
:030E50006400003B
:100E5400000E0001796F000E786F000E7B6F000E9C
:100E64007A6F000E7D6F000E7C6F000E816F000E96
:100E7400806F000E7F6F000E7E6F000E886F000E75
:100E8400876F000E8A6F000E896F000E856F000E4B
:100E9400846F000E866FCAEC1FF070C00CF071C036
:100EA4000DF043EC1DF072C0D9FF73C0DAFFDECF42
:100EB40074F0DDCF75F074C001F075C002F0036A00
:100EC400046A000E05EC16F001C013F002C014F021
:100ED40003C015F004C016F070C0D9FF71C0DAFF6A
:100EE400DECF76F0DDCF77F076C001F077C002F088
:100EF400036A046A000E05EC16F001C00FF002C08C
:100F040010F003C011F004C012F0C6EC12F00FC0D0
:100F140028F010C029F011C02AF012C02BF0000EE6
:100F24002C6E000E2D6EC80E2E6E420E2F6EDAEC55
:100F34000EF028C08BF029C08CF02AC08DF02BC095
:100F44008EF08BC066F08CC067F08DC068F08EC0E8
:100F540069F0E2EC1EF066C082F067C083F0000125
:100F640020EE02F07251D9267351DA22DECF74F0EA
:100F7400DDCF75F074C001F075C002F0036A046A35
:100F8400000E05EC16F001C013F002C014F003C00B
:100F940015F004C016F0000120EE02F07051D926BD
:100FA4007151DA22DECF76F0DDCF77F076C001F032
:100FB40077C002F0036A046A000E05EC16F001C063
:100FC4000FF002C010F003C011F004C012F0C6EC20
:100FD40012F00FC028F010C029F011C02AF012C07E
:100FE4002BF0000E2C6E000E2D6EC80E2E6E420ECF
:100FF4002F6EDAEC0EF028C08BF029C08CF02AC0DA
:101004008DF02BC08EF08BC066F08CC067F08DC065
:1010140068F08EC069F0E2EC1EF0000120EE04F0EE
:101024007251D9267351DA22DECF74F0DDCF75F018
:1010340074C001F075C002F0036A046A000E05EC86
:1010440016F001C013F002C014F003C015F004C080
:1010540016F0000120EE04F07051D9267151DA2205
:10106400DECF76F0DDCF77F076C001F077C002F006
:10107400036A046A000E05EC16F001C00FF002C00A
:1010840010F003C011F004C012F0C6EC12F00FC04F
:1010940028F010C029F011C02AF012C02BF0000E65
:1010A4002C6E000E2D6EC80E2E6E420E2F6EDAECD4
:1010B4000EF028C08BF029C08CF02AC08DF02BC014
:1010C4008EF08BC066F08CC067F08DC068F08EC067
:1010D40069F0E2EC1EF0050E0001756F0F0E746FDF
:1010E400F10EE82EFED7742FFCD7752FFAD7DAEC61
:1010F4001FF070C00CF071C00DF043EC1DF0000146
:1011040020EE06F07251D9267351DA22DECF74F044
:10111400DDCF75F074C001F075C002F0036A046A93
:10112400000E05EC16F001C013F002C014F003C069
:1011340015F004C016F070C0D9FF71C0DAFFDECF1D
:1011440076F0DDCF77F076C001F077C002F0036A65
:10115400046A000E05EC16F001C00FF002C010F096
:1011640003C011F004C012F0C6EC12F00FC028F056
:1011740010C029F011C02AF012C02BF0000E2C6E02
:10118400000E2D6EC80E2E6E420E2F6EDAEC0EF08F
:1011940028C08BF029C08CF02AC08DF02BC08EF0B3
:1011A4008BC066F08CC067F08DC068F08EC069F0AB
:1011B400E2EC1EF0000120EE08F07251D9267351C2
:1011C400DA22DECF74F0DDCF75F074C001F075C0A3
:1011D40002F0036A046A000E05EC16F001C013F075
:1011E40002C014F003C015F004C016F0000120EE94
:1011F40002F07051D9267151DA22DECF76F0DDCFBC
:1012040077F076C001F077C002F0036A046A000E3A
:1012140005EC16F001C00FF002C010F003C011F08D
:1012240004C012F0C6EC12F00FC028F010C029F070
:1012340011C02AF012C02BF0000E2C6E000E2D6E81
:10124400C80E2E6E420E2F6EDAEC0EF028C08BF014
:1012540029C08CF02AC08DF02BC08EF08BC066F0B4
:101264008CC067F08DC068F08EC069F0E2EC1EF0AF
:1012740066C080F067C081F0000120EE0AF0725170
:10128400D9267351DA22DECF74F0DDCF75F074C045
:1012940001F075C002F0036A046A000E05EC16F052
:1012A40001C013F002C014F003C015F004C016F01E
:1012B400000120EE04F07051D9267151DA22DECFFC
:1012C40076F0DDCF77F076C001F077C002F0036AE4
:1012D400046A000E05EC16F001C00FF002C010F015
:1012E40003C011F004C012F0C6EC12F00FC028F0D5
:1012F40010C029F011C02AF012C02BF0000E2C6E81
:10130400000E2D6EC80E2E6E420E2F6EDAEC0EF00D
:1013140028C08BF029C08CF02AC08DF02BC08EF031
:101324008BC066F08CC067F08DC068F08EC069F029
:10133400E2EC1EF0050E0001756F0F0E746FF10ED6
:10134400E82EFED7742FFCD7752FFAD7FAEC1FF0CE
:1013540070C00CF071C00DF043EC1DF0000120EEE4
:101364000CF07251D9267351DA22DECF74F0DDCF3E
:1013740075F074C001F075C002F0036A046A000ECF
:1013840005EC16F001C013F002C014F003C015F010
:1013940004C016F070C0D9FF71C0DAFFDECF76F05A
:1013A400DDCF77F076C001F077C002F0036A046AFB
:1013B400000E05EC16F001C00FF002C010F003C0DF
:1013C40011F004C012F0C6EC12F00FC028F010C0E7
:1013D40029F011C02AF012C02BF0000E2C6E000E62
:1013E4002D6EC80E2E6E420E2F6EDAEC0EF028C053
:1013F4008BF029C08CF02AC08DF02BC08EF08BC0EE
:1014040066F08CC067F08DC068F08EC069F0E2ECC5
:101414001EF066C087F067C088F0000120EE0EF071
:101424007251D9267351DA22DECF74F0DDCF75F014
:1014340074C001F075C002F0036A046A000E05EC82
:1014440016F001C013F002C014F003C015F004C07C
:1014540016F0000120EE02F07051D9267151DA2203
:10146400DECF76F0DDCF77F076C001F077C002F002
:10147400036A046A000E05EC16F001C00FF002C006
:1014840010F003C011F004C012F0C6EC12F00FC04B
:1014940028F010C029F011C02AF012C02BF0000E61
:1014A4002C6E000E2D6EC80E2E6E420E2F6EDAECD0
:1014B4000EF028C08BF029C08CF02AC08DF02BC010
:1014C4008EF08BC066F08CC067F08DC068F08EC063
:1014D40069F0E2EC1EF066C089F067C08AF0000192
:1014E40020EE10F07251D9267351DA22DECF74F057
:1014F400DDCF75F074C001F075C002F0036A046AB0
:10150400000E05EC16F001C013F002C014F003C085
:1015140015F004C016F0000120EE04F07051D92635
:101524007151DA22DECF76F0DDCF77F076C001F0AC
:1015340077C002F0036A046A000E05EC16F001C0DD
:101544000FF002C010F003C011F004C012F0C6EC9A
:1015540012F00FC028F010C029F011C02AF012C0F8
:101564002BF0000E2C6E000E2D6EC80E2E6E420E49
:101574002F6EDAEC0EF028C08BF029C08CF02AC054
:101584008DF02BC08EF08BC066F08CC067F08DC0E0
:1015940068F08EC069F0E2EC1EF066C084F067C0AB
:1015A40085F0050E0001756F0F0E746FF10EE82EB5
:1015B400FED7742FFCD7752FFAD7000E00016B6F7E
:1015C400000E6A6F87C06CF088C06DF0000E6F6FFC
:1015D400370E6E6FFFEC1EF00009D8B4F4EF0AF07A
:1015E400F6EF0AF067EF0BF084C001F085C002F05B
:1015F400036A046A000E05EC16F001C013F002C081
:1016040014F003C015F004C016F0000189518025C0
:10161400746F8A518121756F74C001F075C002F036
:10162400036A046A000E05EC16F001C00FF002C054
:1016340010F003C011F004C012F0C6EC12F00FC099
:1016440028F010C029F011C02AF012C02BF0000EAF
:101654002C6E000E2D6E480E2E6E430E2F6EDAEC9D
:101664000EF028C08BF029C08CF02AC08DF02BC05E
:101674008EF0000E00016B6F000E6A6F8BC066F077
:101684008CC067F08DC068F08EC069F0E2EC1EF08B
:1016940066C06CF067C06DF0010E00016F6F870EBD
:1016A4006E6FFFEC1EF00009D8B45BEF0BF05DEF3A
:1016B4000BF062EF0BF0030E0001866F16EF0CF0D7
:1016C400020E0001866F16EF0CF0000E00016B6F26
:1016D400000E6A6F89C06CF08AC06DF0000E6F6FE7
:1016E4004B0E6E6FFFEC1EF00009D8B47CEF0BF0CC
:1016F4007EEF0BF0E8EF0BF089C001F08AC002F036
:10170400036A046A000E05EC16F001C013F002C06F
:1017140014F003C015F004C016F082C001F083C0B9
:1017240002F0036A046A000E05EC16F001C00FF023
:1017340002C010F003C011F004C012F0C6EC12F0A5
:101744000FC028F010C029F011C02AF012C02BF0ED
:10175400000E2C6E000E2D6E480E2E6E430E2F6E54
:10176400DAEC0EF028C08BF029C08CF02AC08DF082
:101774002BC08EF0000E00016B6F000E6A6F8BC0E1
:1017840066F08CC067F08DC068F08EC069F0E2EC42
:101794001EF066C06CF067C06DF0010E00016F6F43
:1017A400390E6E6FFFEC1EF00009D8B4DCEF0BF0BD
:1017B400DEEF0BF0E3EF0BF0060E0001866F16EF81
:1017C4000CF0010E0001866F16EF0CF0000E000104
:1017D4006B6F000E6A6F87C06CF088C06DF0000EEE
:1017E4006F6F550E6E6FFFEC1EF00009D8B4FDEF5D
:1017F4000BF0FFEF0BF004EF0CF0070E0001866F07
:1018040016EF0CF000018451895D85518A59D8B0D6
:101814000EEF0CF010EF0CF014EF0CF0050E866FC9
:1018240016EF0CF0040E866F000E6B6F5F0E6A6F7E
:1018340087C06CF088C06DF0000E6F6F690E6E6F1C
:10184400FFEC1EF00009D8B42AEF0CF02CEF0CF0DA
:1018540046EF0CF0000E00016B6F5F0E6A6F89C0DB
:101864006CF08AC06DF0000E6F6F690E6E6FFFEC46
:101874001EF00009D8B441EF0CF043EF0CF046EF32
:101884000CF0080E0001866F000E00016B6F000E55
:101894006A6F87C06CF088C06DF0000E6F6F190E10
:1018A4006E6FFFEC1EF00009D8B45BEF0CF05DEF37
:1018B4000CF077EF0CF0000E00016B6F000E6A6FF6
:1018C40082C06CF083C06DF0000E6F6F5A0E6E6FA5
:1018D400FFEC1EF00009D8B472EF0CF074EF0CF0BA
:1018E40077EF0CF0090E0001866F0001865112009B
:1018F4000450800B0D6E045004240F6E03AE85EF6C
:101904000CF087EF0CF088EF0CF00F800F50D8B478
:101914008EEF0CF090EF0CF0A5EF0CF00F28D8A48C
:1019240096EF0CF098EF0CF0A0EF0CF0000E016EA7
:10193400000E026E000E036E000E046E038E000E87
:10194400046EADEF0CF0000E016E000E026E000E80
:10195400036E000E046E0850800B0E6E0D500E18B0
:10196400D8B4B7EF0CF0B9EF0CF0BAEF0CF00D8C63
:10197400085008240E6E07AEC2EF0CF0C4EF0CF052
:10198400C5EF0CF00E800E50D8B4CBEF0CF0CDEFB9
:101994000CF0E2EF0CF00E28D8A4D3EF0CF0D5EF46
:1019A4000CF0DDEF0CF0000E056E000E066E000E5E
:1019B400076E000E086E078E000E086EEAEF0CF03C
:1019C400000E056E000E066E000E076E000E086E09
:1019D4000F500E5CD8B0F1EF0CF0F3EF0CF01AEFEF
:1019E4000DF00DACF8EF0CF0FAEF0CF0FCEF0CF08E
:1019F400800E0D1A0FC010F00EC00FF010C00EF0C4
:101A040001C010F005C001F010C005F002C010F0D4
:101A140006C002F010C006F003C010F007C003F0C7
:101A240010C007F004C010F008C004F010C008F0A3
:101A3400000E106E0F500EC009F00A6A095E000E07
:101A44000A5A0ABE2FEF0DF00A5009E11A0E095C7A
:101A5400D8A02FEF0DF031EF0DF068EF0DF001502D
:101A6400021003100410D8A43AEF0DF03DEF0DF06E
:101A7400010E3EEF0DF0000E106E000E016E000E12
:101A8400026E000E036E000E046E0EC00FF071EFB6
:101A94000DF010A050EF0DF052EF0DF058EF0DF0D7
:101AA400D89010300109106E5AEF0DF0D890103212
:101AB40001A05FEF0DF061EF0DF062EF0DF0108EFD
:101AC400043404320332023201320F2A0E500F5C06
:101AD400D8A06FEF0DF071EF0DF04BEF0DF00DBCD2
:101AE40076EF0DF078EF0DF0B8EF0DF00F50D8A4AD
:101AF4007EEF0DF080EF0DF08AEF0DF0000E016E19
:101B0400000E026E000E036E000E046ED9EF0EF08E
:101B140005500126065002220750032208500422D1
:101B240004A097EF0DF099EF0DF045EF0EF010A023
:101B34009EEF0DF0A0EF0DF0A6EF0DF0D890103051
:101B44000109106EA8EF0DF0D890103201A0ADEF8E
:101B54000DF0AFEF0DF0B0EF0DF0108E0434043241
:101B64000332023201320F2A45EF0EF00550015CB8
:101B740006500258075003580450800A096E085052
:101B8400800A0958D8B0C9EF0DF0CBEF0DF0F6EF8D
:101B94000DF00150055C096E025006580A6E0350A0
:101BA40007580B6E045008580C6EFF0E0924016E82
:101BB400FF0E0A20026EFF0E0B20036EFF0E0C2098
:101BC400046E800E0D1A106C1050D8A4ECEF0DF0BA
:101BD400EEEF0DF0FEEF0DF0010E0126000E0222D5
:101BE40003220422FEEF0DF00550015E0650025A56
:101BF4000750035A0850045A0150021003100410ED
:101C0400D8A407EF0EF009EF0EF03EEF0EF01050DF
:101C1400D8A40FEF0EF011EF0EF03EEF0EF0000E11
:101C2400016E000E026E000E036E000E046ED9EFFC
:101C34000EF0D890013602360336043610AE25EF86
:101C44000EF027EF0EF028EF0EF0018010A02DEF1C
:101C54000EF02FEF0EF033EF0EF0D880103635EF84
:101C64000EF0D89010360F50D8B43BEF0EF03DEF85
:101C74000EF03EEF0EF00F0603AE43EF0EF045EF0D
:101C84000EF01BEF0EF0000E0E6E10AE4CEF0EF0C9
:101C94004EEF0EF066EF0EF010C009F07F0E09163D
:101CA400D8B457EF0EF059EF0EF05DEF0EF0010EC1
:101CB4000E6E66EF0EF001A062EF0EF064EF0EF010
:101CC40066EF0EF059EF0EF00E50D8B46CEF0EF034
:101CD4006EEF0EF099EF0EF0010E0126000E0222B7
:101CE4000322042204A079EF0EF07BEF0EF099EFAB
:101CF4000EF001C009F002C00AF003C00BF004C0EA
:101D04000CF00C340C320B320A32093209C001F0E7
:101D14000AC002F00BC003F00CC004F00F28D8B4C2
:101D240096EF0EF098EF0EF099EF0EF00F2A0F28B1
:101D3400D8B49FEF0EF0A1EF0EF0A9EF0EF00F5004
:101D4400D8A4A7EF0EF0A9EF0EF0BBEF0EF0000E33
:101D5400016E000E026E000E036E000E046E0F5034
:101D6400D8A4B7EF0EF0B9EF0EF0BBEF0EF0000EF3
:101D74000D6E0FA0C0EF0EF0C2EF0EF0C5EF0EF027
:101D8400038EC6EF0EF0039ED8900F30046E0DAE96
:101D9400CEEF0EF0D0EF0EF0D1EF0EF0048E01C0B6
:101DA40001F002C002F003C003F004C004F012000A
:101DB4002B50800B346E2B502B243A6E2AAEE5EF59
:101DC4000EF0E7EF0EF0E8EF0EF03A803A50D8B498
:101DD400EEEF0EF0F0EF0EF003EF0FF03A28D8A478
:101DE400F6EF0EF0F8EF0EF000EF0FF0000E286E95
:101DF400000E296E000E2A6E000E2B6E2A8E0BEF3B
:101E04000FF0000E286E000E296E000E2A6E000ED2
:101E14002B6E2F50800B341A2F502F24396E2EAE78
:101E240016EF0FF018EF0FF019EF0FF0398039505B
:101E3400D8B41FEF0FF021EF0FF034EF0FF0392873
:101E4400D8A427EF0FF029EF0FF031EF0FF0000EB9
:101E54002C6E000E2D6E000E2E6E000E2F6E2E8E2A
:101E64003CEF0FF0000E2C6E000E2D6E000E2E6E49
:101E7400000E2F6E3950D8B442EF0FF044EF0FF03C
:101E84004CEF0FF03A50D8A44AEF0FF04CEF0FF09C
:101E940056EF0FF0000E286E000E296E000E2A6E0B
:101EA400000E2B6EEEEF10F02E502802F3CF3FF011
:101EB400F4CF40F03F50356E366A376A386A405086
:101EC4003B6E3C6A3D6A3E6A2D502902F3CF3FF0D7
:101ED400F4CF40F03F503526000E36223722382208
:101EE40040503B26000E3C223D223E222C502A022A
:101EF400F3CF3FF0F4CF40F03F503526000E3622AA
:101F04003722382240503B26000E3C223D223E22FE
:101F140037C038F036C037F035C036F0356A2C504B
:101F24002902F3CF3FF0F4CF40F03F503526405024
:101F34003622000E3722000E38222D502802F3CF0D
:101F44003FF0F4CF40F03F50352640503622000E8B
:101F54003722000E382237C038F036C037F035C08B
:101F640036F0356A2C502802F3CF3FF0F4CF40F01E
:101F74003F50352640503622000E3722000E3822BC
:101F84002E502902F3CF3FF0F4CF40F03F503B26D0
:101F940040503C22000E3D22000E3E222D502A02CB
:101FA400F3CF3FF0F4CF40F03F503B2640503C226B
:101FB400000E3D22000E3E222E502A02F3CF3FF0A7
:101FC400F4CF40F03F50306E4050316E326A336A85
:101FD40032C033F031C032F030C031F0306A3050AA
:101FE4003B2631503C2232503D2233503E2235C0F4
:101FF40030F036C031F037C032F038C033F0190E4B
:1020040009EF10F0D8903332323231323032E82EC8
:1020140004EF10F030503B2631503C2232503D2228
:1020240033503E2237C038F036C037F035C036F072
:10203400356A39503AC030F0316A3026000E312208
:10204400820E30243F6EFF0E3120406E3FEF10F0C1
:10205400D8903B363C363D363E3638AE34EF10F041
:1020640036EF10F037EF10F03B80D8903536363627
:10207400373638363F06D8A040063DAE44EF10F060
:1020840046EF10F02AEF10F0000E396E38AE4DEF27
:1020940010F04FEF10F073EF10F0FF0E3514306EA8
:1020A400FF0E3614316EFF0E3714326E7F0E381465
:1020B400336E3050311032103310D8B464EF10F056
:1020C40066EF10F06AEF10F0010E396E73EF10F046
:1020D4003BA06FEF10F071EF10F073EF10F066EFAC
:1020E40010F03950D8B479EF10F07BEF10F09FEF77
:1020F40010F0010E3B26000E3C223D223E223EA063
:1021040086EF10F088EF10F09FEF10F03BC030F036
:102114003CC031F03DC032F03EC033F03334333292
:1021240032323132303230C03BF031C03CF032C058
:102134003DF033C03EF03F4A402A40BEAAEF10F0C3
:10214400405008E13F28D8A0AAEF10F0ACEF10F0FF
:10215400B6EF10F0000E3B6E000E3C6E800E3D6E2E
:102164007F0E3E6EE4EF10F040BEC3EF10F040501F
:1021740006E13F04D8B0C1EF10F0C3EF10F0CFEF89
:1021840010F0000E3B6E000E3C6E000E3D6E000E15
:102194003E6E000E346EE4EF10F03FC03AF0FF0ED6
:1021A4003B16FF0E3C167F0E3D16000E3E163AA05F
:1021B400DEEF10F0E0EF10F0E1EF10F03D8ED8907C
:1021C4003A303E6E34503E123BC028F03CC029F0F9
:1021D4003DC02AF03EC02BF01200E6C053F0E7C029
:1021E40054F0E8C055F0E9C056F041C053F042C085
:1021F40054F043C055F044C056F053C045F054C0A9
:1022040046F055C047F056C048F0180E0FEF11F0D5
:10221400D8904832473246324532E82E0AEF11F060
:1022240045504D6E4E6A4EBE21EF11F04E5009E1FD
:10223400960E4D5CD8A021EF11F023EF11F02DEF95
:1022440011F041C041F042C042F043C043F044C0E9
:1022540044F0C5EF12F053C045F054C046F055C0E9
:1022640047F056C048F0200E3DEF11F0D8904832A8
:10227400473246324532E82E38EF11F045504610C9
:1022840047104810D8B449EF11F04BEF11F05DEF4F
:1022940011F041C001F042C002F043C003F044C059
:1022A40004F038EC1FF001C041F002C042F003C05A
:1022B40043F004C044F04EBE6BEF11F04E5007E102
:1022C4007E0E4D5CD8B069EF11F06BEF11F087EF23
:1022D40011F053C028F054C029F055C02AF056C05C
:1022E4002BF0000E2C6E000E2D6E000E2E6E000EC6
:1022F4002F6EDAEC0EF028C041F029C042F02AC05B
:1023040043F02BC044F0C5EF12F0000E056E000E32
:10231400066E000E076E4B0E086E41C001F042C0FF
:1023240002F043C003F044C004F07AEC0CF001C0A6
:102334004FF002C050F003C051F004C052F0000E40
:10234400056E000E066E000E076ECB0E086E4FC0B3
:1023540001F050C002F051C003F052C004F07AEC16
:102364000CF001C049F002C04AF003C04BF004C0B5
:102374004CF049C011F04AC012F04BC013F04CC0ED
:1023840014F041C015F042C016F043C017F044C029
:1023940018F03BEC1EF011C057F012C058F013C0F7
:1023A40059F014C05AF0000E016E000E026E000EB9
:1023B400036E3F0E046E57C005F058C006F059C0B6
:1023C40007F05AC008F07EEC1AF0D8B0ECEF11F028
:1023D400EEEF11F024EF12F041C005F042C006F018
:1023E40043C007F044C008F057C001F058C002F0E1
:1023F40059C003F05AC004F07AEC0CF001C04FF05D
:1024040002C050F003C051F004C052F04FC001F0BC
:1024140050C002F051C003F052C004F0000E056E2B
:10242400000E066E800E076EBF0E086E7AEC0CF07E
:1024340001C057F002C058F003C059F004C05AF06C
:102444008DEF12F0000E016E000E026E000E036E90
:10245400BF0E046E57C005F058C006F059C007F00F
:102464005AC008F07EEC1AF0D8A03BEF12F03DEF12
:1024740012F073EF12F041C005F042C006F043C001
:1024840007F044C008F057C001F058C002F059C02A
:1024940003F05AC004F07AEC0CF001C04FF002C013
:1024A40050F003C051F004C052F04FC001F050C0CE
:1024B40002F051C003F052C004F0000E056E000E8D
:1024C400066E800E076E3F0E086E7AEC0CF001C0AB
:1024D40057F002C058F003C059F004C05AF08DEF11
:1024E40012F057C001F058C002F059C003F05AC0AE
:1024F40004F041C005F042C006F043C007F044C0F8
:1025040008F07AEC0CF001C057F002C058F003C098
:1025140059F004C05AF053C045F054C046F055C0B9
:1025240047F056C048F0200E9DEF12F0D890483284
:10253400473246324532E82E98EF12F045504610A5
:1025440047104810D8B4A9EF12F0ABEF12F0BDEF6A
:1025540012F057C001F058C002F059C003F05AC03D
:1025640004F038EC1FF001C057F002C058F003C06B
:1025740059F004C05AF057C041F058C042F059C055
:1025840043F05AC044F012001250800B1F6E1250D8
:102594001224266E11AED1EF12F0D3EF12F0D4EF65
:1025A40012F026802650D8B4DAEF12F0DCEF12F0E5
:1025B400F1EF12F02628D8A4E2EF12F0E4EF12F0C3
:1025C400ECEF12F0000E0F6E000E106E000E116E86
:1025D400000E126E118E000E126EF9EF12F0000E44
:1025E4000F6E000E106E000E116E000E126E16505D
:1025F400800B1F1A16501624276E15AE04EF13F025
:1026040006EF13F007EF13F027802750D8B40DEF2F
:1026140013F00FEF13F024EF13F02728D8A415EFCD
:1026240013F017EF13F01FEF13F0000E136E000EEC
:10263400146E000E156E000E166E158E000E166EBC
:102644002CEF13F0000E136E000E146E000E156EB8
:10265400000E166E1350141015101610D8A435EF72
:1026640013F037EF13F04FEF13F0000E0F6E000E60
:10267400106E000E116E000E126E800E11127F0E7F
:1026840012121F5012120FC00FF010C010F011C020
:1026940011F012C012F092EF14F02650D8A455EFA6
:1026A40013F057EF13F061EF13F0000E0F6E000EEE
:1026B400106E000E116E000E126E92EF14F0275081
:1026C40026C017F0186A175E000E185A7F0E1724DA
:1026D400206E000E1820216E0FC01BF010C01CF0DD
:1026E40011C01DF012C01EF0000E0F6E000E106E11
:1026F400000E116E000E126E000E226E000E236E7E
:10270400000E246E000E256E000E276EC2EF13F02D
:102714002750D8B490EF13F092EF13F0A9EF13F011
:10272400D8901B361C361D361E36D8900F36103600
:102734001136123625AEA1EF13F0A3EF13F0A4EF78
:1027440013F00F80D89022362336243625361350C2
:102754001B5C14501C5815501D5816501E58D8A0F8
:10276400B6EF13F0B8EF13F0C1EF13F0258C13504C
:102774001B5E14501C5A15501D5A16501E5A272AF7
:10278400190E2764C8EF13F0CAEF13F08AEF13F0A1
:102794001B501C101D101E10D8B4D3EF13F0D5EF2E
:1027A40013F0EDEF13F02280EDEF13F0D8900F3615
:1027B40010361136123625AEE2EF13F0E4EF13F0C3
:1027C400E5EF13F00F80D8902236233624362536D1
:1027D4002006D8A0210611AEF2EF13F0F4EF13F0A7
:1027E400D8EF13F0000E276E25AEFBEF13F0FDEFCC
:1027F40013F021EF14F0FF0E2214176EFF0E2314B2
:10280400186EFF0E2414196E7F0E25141A6E1750BD
:10281400181019101A10D8B412EF14F014EF14F0A1
:1028240018EF14F0010E276E21EF14F00FA01DEF26
:1028340014F01FEF14F021EF14F014EF14F02750EC
:10284400D8B427EF14F029EF14F04DEF14F0010E73
:102854000F26000E10221122122212A034EF14F0BF
:1028640036EF14F04DEF14F00FC017F010C018F04D
:1028740011C019F012C01AF01A341A32193218326F
:10288400173217C00FF018C010F019C011F01AC099
:1028940012F0204A212A21BE58EF14F0215008E1F9
:1028A4002028D8A058EF14F05AEF14F065EF14F074
:1028B400000E216E2068000E0F6E000E106E000ECA
:1028C400116E000E126E21BE72EF14F0215006E15B
:1028D4002004D8B070EF14F072EF14F080EF14F00D
:1028E400000E216E000E206E000E0F6E000E106E94
:1028F400000E116E000E126E000E1F6E20C026F028
:1029040026A087EF14F089EF14F08CEF14F0118EE9
:102914008DEF14F0119ED8902630126E43EF13F011
:1029240012001EC036F01FC037F020C038F021C09E
:1029340039F022C03AF023C03BF024C03CF025C05B
:102944003DF03DBEA8EF14F0ABEF14F0010EACEF78
:1029540014F0000E346E356A34503510D8B4B5EF27
:1029640014F0B7EF14F0C7EF14F03D1E3C1E3B1EED
:102974003A1E391E381E371E366C000E3722382296
:1029840039223A223B223C223D220001EFBFCDEF07
:1029940014F0CFEF14F0D0EF14F0F093EFBFDDEFAD
:1029A40014F0EF5106E1EE05D8B0DBEF14F0DDEFE3
:1029B40014F0E3EF14F0000E316E010E306EE7EF09
:1029C40014F0EEC030F0EFC031F0ECC032F0EDC0E6
:1029D40033F034503510D8A4F2EF14F0F4EF14F0BF
:1029E400FBEF14F0F0A5F9EF14F0FBEF14F0FEEF99
:1029F40014F03206D8A03306000E3F6E1F0E3E6E52
:102A0400000E0101846F83EF15F03E06D8A03F0647
:102A1400650E3E24D96E010E3F20DA6E36C001F0F9
:102A240037C002F038C003F039C004F03AC005F0F2
:102A34003BC006F03CC007F03DC008F00A0E096E2A
:102A4400000E0A6E000E0B6E000E0C6E000E0D6E64
:102A5400000E0E6E000E0F6E000E106E48EC19F094
:102A640001C026F002C027F003C028F004C029F0FA
:102A740005C02AF006C02BF007C02CF008C02DF0CA
:102A840026C013F028C014F0C2EC1EF01350300F0F
:102A9400DF6E3006D8A031063206D8A0330636C021
:102AA40001F037C002F038C003F039C004F03AC076
:102AB40005F03BC006F03CC007F03DC008F00A0E2C
:102AC400096E000E0A6E000E0B6E000E0C6E000EE8
:102AD4000D6E000E0E6E000E0F6E000E106E84EC66
:102AE40018F001C036F002C037F003C038F004C05B
:102AF40039F005C03AF006C03BF007C03CF008C00E
:102B04003DF03FBE8EEF15F03F5008E13E04D8A0E3
:102B14008EEF15F090EF15F0C1EF15F03650371029
:102B2400381039103A103B103C103D10D8A49DEFDA
:102B340015F09FEF15F007EF15F031BEACEF15F06F
:102B4400315006E13004D8B0AAEF15F0ACEF15F01F
:102B540007EF15F033BEB7EF15F0335008E1320438
:102B6400D8A0B7EF15F0B9EF15F0C1EF15F00001DB
:102B7400F0B3BFEF15F0C1EF15F007EF15F03450C7
:102B84003510D8A4C8EF15F0CAEF15F0D2EF15F040
:102B94000001F0A5D0EF15F0D2EF15F0F0EF15F02D
:102BA4003E06D8A03F0634503510D8A4DCEF15F00B
:102BB400DEEF15F0E4EF15F0000E2F6E2B0E2E6EE7
:102BC400E8EF15F0000E2F6E2D0E2E6E650E3E24CE
:102BD400D96E010E3F20DA6E2EC0DFFF1CC011F04B
:102BE4001DC012F0650E3E24136E010E3F20146EBC
:102BF40032C015F033C016F03DEC1CF011C01CF0CF
:102C040012C01DF01200096E0950D8B40CEF16F072
:102C14000EEF16F030EF16F004BE15EF16F013EFBA
:102C240016F030EF16F001C005F002C006F003C044
:102C340007F004C008F0051E061E071E081E052A1C
:102C4400000E06220722082205C00BF006C00CF075
:102C540007C00DF008C00EF038EF16F001C00BF0FD
:102C640002C00CF003C00DF004C00EF001500210BD
:102C740003100410D8A441EF16F043EF16F04DEF03
:102C840016F0000E016E000E026E000E036E000EB2
:102C9400046EDEEF16F0960E0A6E57EF16F00A2A4F
:102CA400D8900E320D320C320B32000E0B14056E1E
:102CB400000E0C14066E000E0D14076EFE0E0E149C
:102CC400086E0550061007100810D8A46CEF16F013
:102CD4006EEF16F051EF16F07CEF16F00A2A010E93
:102CE4000B26000E0C220D220E22D8900E320D322D
:102CF4000C320B32000E0B14056E000E0C14066E13
:102D0400000E0D14076EFF0E0E14086E055006100B
:102D140007100810D8A491EF16F093EF16F070EF97
:102D240016F09BEF16F00A06D8900B360C360D36CB
:102D34000E360DBEA0EF16F0A2EF16F0AAEF16F0B5
:102D4400020E0A60A8EF16F0AAEF16F095EF16F03F
:102D54000AB0AFEF16F0B1EF16F0B2EF16F00D9E19
:102D6400D8900A320AC005F0066A076A086A05C0E4
:102D740008F0076A066A056A05500B1206500C1221
:102D840007500D1208500E120950D8B4CCEF16F0AB
:102D9400CEEF16F0D6EF16F004BED5EF16F0D3EF53
:102DA40016F0D6EF16F00E8E0BC001F00CC002F038
:102DB4000DC003F00EC004F0120042C0D9FF43C09E
:102DC400DAFFDECFF6FFDDCFF7FF0800F550250A66
:102DD400D8A4EFEF16F0F1EF16F09DEF17F042C014
:102DE400D9FF43C0DAFFDE2A000EDD22000E000107
:102DF400ED6F000EEC6FECC0F0F0EDC0F1F0EE6999
:102E0400EF6942C0D9FF43C0DAFFDECFF6FFDDCF62
:102E1400F7FF0800F550640AD8B413EF17F015EF64
:102E240017F027EF17F042C0D9FF43C0DAFFDECF17
:102E3400F6FFDDCFF7FF0800F550690AD8A425EFA7
:102E440017F027EF17F067EF17F042C0D9FF43C020
:102E5400DAFFDE2A000EDD2244C0D9FF45C0DAFFC6
:102E6400DFCF46F0020EDE26DFCF47F0000EDD2274
:102E740046C0D9FF47C0DAFFDECF48F0DDCF49F0C6
:102E8400000E49BEFF0E4A6E4B6E4C6E4D6E4E6E7A
:102E94004F6E40C01CF041C01DF048C01EF049C038
:102EA4001FF04AC020F04BC021F04CC022F04DC0AE
:102EB40023F04EC024F04FC025F093EC14F01CC056
:102EC40040F01DC041F0B8EF17F042C0D9FF43C035
:102ED400DAFFDECFF6FFDDCFF7FF0800F550250A55
:102EE400D8A477EF17F079EF17F090EF17F042C0FE
:102EF400D9FF43C0DAFFDE2A000EDD22000E026E87
:102F0400250E016E40C003F041C004F0D8EC1BF064
:102F1400000E416E010E406EB8EF17F042C0D9FFAB
:102F240043C0DAFFDE2A000EDD22000E416E000EE1
:102F3400406EB8EF17F042C0D9FF43C0DAFFDECFCE
:102F4400F6FFDDCFF7FF0800F550016E026A40C0BE
:102F540003F041C004F0D8EC1BF042C0D9FF43C0D9
:102F6400DAFFDE2A000EDD228AEF17F01200000ECF
:102F74000001DF6F000EDE6F000EE36F000EE26FE4
:102F8400000EE56F000EE46F000EDF6F000EDE6FC3
:102F9400EAEC1FF05AC00CF05BC00DF043EC1DF0DE
:102FA4005AC058F05BC059F0DAEC1CF0290E5D6E83
:102FB400960E5C6E7F0EE82EFED75C2EFCD75D2E3F
:102FC400FAD700F00001DE4BDF2BDFBFF2EF17F082
:102FD400DF5108E1DE05D8A0F2EF17F0F4EF17F0A7
:102FE400CAEF17F0000EE16F000EE06FCAEC1FF09D
:102FF4005AC00CF05BC00DF043EC1DF05AC058F001
:103004005BC059F0DAEC1CF0290E5D6E960E5C6E16
:103014007F0EE82EFED75C2EFCD75D2EFAD700F08B
:103024000001E04BE12BE1BF20EF18F0E15108E192
:10303400E005D8A020EF18F022EF18F0F8EF17F011
:10304400000EE36F000EE26FDAEC1FF05AC00CF0D2
:103054005BC00DF043EC1DF05AC058F05BC059F052
:10306400DAEC1CF0290E5D6E960E5C6E7F0EE82E77
:10307400FED75C2EFCD75D2EFAD700F00001E24BA0
:10308400E32BE3BF4EEF18F0E35108E1E205D8A0CB
:103094004EEF18F050EF18F026EF18F0000EE56F21
:1030A400000EE46FFAEC1FF05AC00CF05BC00DF098
:1030B40043EC1DF05AC058F05BC059F0DAEC1CF038
:1030C400290E5D6E960E5C6E7F0EE82EFED75C2E8A
:1030D400FCD75D2EFAD700F00001E44BE52BE5BFE9
:1030E4007CEF18F0E55108E1E405D8A07CEF18F076
:1030F4007EEF18F054EF18F0000E00EC1BF0EAEC31
:103104001FF01200000E126E10BE8DEF18F08BEF40
:1031140018F09FEF18F0101E0F1E0E1E0D1E0C1E31
:103124000B1E0A1E096C000E0A220B220C220D2211
:103134000E220F221022010E126E08BEA6EF18F006
:10314400A4EF18F0B8EF18F0081E071E061E051E9F
:10315400041E031E021E016C000E0222032204221E
:103164000522062207220822010E121A20EE13F06D
:10317400070EDE6AE806FDE209500A100B100C1077
:103184000D100E100F101010D8B4CBEF18F0CDEFB7
:1031940018F01FEF19F0010E116EDBEF18F0D89044
:1031A40009360A360B360C360D360E360F36103607
:1031B400112A10AEE0EF18F0E2EF18F0D1EF18F09A
:1031C400D89013361436153616361736183619367F
:1031D4001A360950015C0A5002580B5003580C501F
:1031E40004580D5005580E5006580F5007581050EB
:1031F4000858D8A000EF19F002EF19F013EF19F0F6
:103204000950015E0A50025A0B50035A0C50045ADA
:103214000D50055A0E50065A0F50075A1050085AAE
:103224001380D89010320F320E320D320C320B3222
:103234000A320932112EE2EF18F01250D8B425EFF9
:1032440019F027EF19F037EF19F01A1E191E181E7E
:10325400171E161E151E141E136C000E14221522A2
:1032640016221722182219221A2213C001F014C0A0
:1032740002F015C003F016C004F017C005F018C022
:1032840006F019C007F01AC008F01200000E126E02
:1032940008BE51EF19F04FEF19F063EF19F0081E53
:1032A400071E061E051E041E031E021E016C000ED0
:1032B4000222032204220522062207220822010EEA
:1032C400126E10BE6AEF19F068EF19F07AEF19F078
:1032D400101E0F1E0E1E0D1E0C1E0B1E0A1E096C48
:1032E400000E0A220B220C220D220E220F22102283
:1032F40009500A100B100C100D100E100F101010A6
:10330400D8B487EF19F089EF19F0D1EF19F0010E55
:10331400116E97EF19F0D89009360A360B360C3631
:103324000D360E360F361036112A10AE9CEF19F0FA
:103334009EEF19F08DEF19F00950015C0A50025804
:103344000B5003580C5004580D5005580E50065895
:103354000F50075810500858D8A0B3EF19F0B5EF24
:1033640019F0C5EF19F00950015E0A50025A0B50CA
:10337400035A0C50045A0D50055A0E50065A0F5059
:10338400075A1050085AD89010320F320E320D32AC
:103394000C320B320A320932112E9EEF19F0125000
:1033A400D8B4D7EF19F0D9EF19F0E9EF19F0081EE6
:1033B400071E061E051E041E031E021E016C000EBF
:1033C400022203220422052206220722082201C027
:1033D40001F002C002F003C003F004C004F005C011
:1033E40005F006C006F007C007F008C008F0120098
:1033F4005D345E340001656F6551D8A404EF1AF0A2
:1034040006EF1AF010EF1AF0000E5B6E000E5C6E01
:10341400000E5D6E000E5E6E7DEF1AF05BC060F014
:103424005CC061F05DC062F05EC063F0200E20EF0E
:103434001AF0D8906333623361336033E82E1BEFA4
:103444001AF06051646F5D8EFF0E5B16FF0E5C1602
:10345400FF0E5D16000E5E16960E655F65BF37EFB4
:103464001AF035EF1AF04DEF1AF06551800A970FF4
:10347400D8B03FEF1AF041EF1AF043EF1AF006EF1D
:103484001AF0D8905E325D325C325B32653F43EFB6
:103494001AF065EF1AF01F0E656553EF1AF055EF39
:1034A4001AF05DEF1AF006EF1AF0D8905B365C362E
:1034B4005D365E3665076551D8A463EF1AF065EF93
:1034C4001AF057EF1AF06451D8B46BEF1AF06DEF9D
:1034D4001AF075EF1AF05E1E5D1E5C1E5B6C000E2A
:1034E4005C225D225E225BC05BF05CC05CF05DC070
:1034F4005DF05EC05EF01200000E0114096E000E55
:1035040002140A6E800E03140B6E7F0E04140C6EEC
:1035140009500A100B100C10D8A493EF1AF095EF71
:103524001AF09DEF1AF0000E016E000E026E000EEE
:10353400036E000E046E000E0514096E000E0614D0
:103544000A6E800E07140B6E7F0E08140C6E095061
:103554000A100B100C10D8A4B2EF1AF0B4EF1AF042
:10356400BCEF1AF0000E056E000E066E000E076E1C
:10357400000E086E04AEC1EF1AF0C3EF1AF0CCEFE0
:103584001AF0016C021ED8B0022A031ED8B0032A16
:10359400800E045608AED1EF1AF0D3EF1AF0DCEF28
:1035A4001AF0056C061ED8B0062A071ED8B0072AE2
:1035B400800E0856000E011A000E021A000E031A9D
:1035C400800E041A000E051A000E061A000E071AC1
:1035D400800E081A0550015C065002580750035823
:1035E40008500458D8B0F9EF1AF0FBEF1AF0FEEFC8
:1035F4001AF0D890FFEF1AF0D88012000001DD6FA6
:103604000001DD51D8A409EF1BF00BEF1BF00BEF09
:103614001BF0DD05D8A411EF1BF013EF1BF013EF23
:103624001BF0020EDD19D8A41AEF1BF01CEF1BF0DF
:103634001CEF1BF0030EDD19D8A423EF1BF025EFBC
:103644001BF025EF1BF0040EDD19D8A42CEF1BF0A2
:103654002EEF1BF02EEF1BF0050EDD19D8A435EF6D
:103664001BF037EF1BF037EF1BF0060EDD19D8A463
:103674003EEF1BF040EF1BF040EF1BF0070EDD198F
:10368400D8A447EF1BF049EF1BF049EF1BF0080EDD
:10369400DD19D8A450EF1BF052EF1BF052EF1BF0D2
:1036A400090EDD19D8A459EF1BF05BEF1BF05BEF9B
:1036B4001BF0790E606F000E616F0D0E626F0E0EBF
:1036C400636FDDC064F0656B72EC1DF0790E026E01
:1036D400000E036E89EC1FF0120001C0D9FF02C076
:1036E400DAFF000EDF6E20EE01F00150D926025001
:1036F400DA22010EDF6E20EE02F00150D9260250CC
:10370400DA22A30EDE6E0F0EDD6E20EE04F0015001
:10371400D9260250DA227D0EDE6E0F0EDD6E20EE0B
:1037240006F00150D9260250DA22040EDF6E20EE94
:1037340007F00150D9260250DA22C70EDE6E000EC1
:10374400DD6E03C0D9FF04C0DAFF000EDF6E20EE89
:1037540001F00350D9260450DA22010EDF6E20EE68
:1037640002F00350D9260450DA22A00EDE6E0F0EAA
:10377400DD6E20EE04F00350D9260450DA227F0EC9
:10378400DE6E0F0EDD6E20EE06F00350D9260450D7
:10379400DA22060EDF6E20EE07F00350D92604501D
:1037A400DA22C70EDE6E000EDD6E12000350041026
:1037B400D8B4DFEF1BF0E1EF1BF0EAEF1BF003508E
:1037C4000410D8A4E8EF1BF0EAEF1BF0EFEF1BF0B6
:1037D400015050EC20F03CEF1CF020EE09F00350B7
:1037E400D9260450DA22DE50DE10D8B4FCEF1BF0E8
:1037F400FEEF1BF019EF1CF020EE09F00350D92660
:103804000450DA2210EE03F00350E1260450E222C1
:10381400DE50E65CE650800A096EDE50800A0958E4
:10382400D8B017EF1CF019EF1CF03CEF1CF020EEA1
:1038340003F00350D9260450DA22DECF05F0DDCFA1
:1038440006F003C0D9FF04C0DAFFDECF07F0DDCFF6
:1038540008F005500724D96E06500820DA6E01C01E
:10386400DFFF20EE03F00350D9260450DA22DE2ACB
:10387400000EDD2212000001F0A143EF1CF045EF21
:103884001CF04FEF1CF013C00AF014C00BF011C071
:103894000CF012C00DF05EEC1EF016BE54EF1CF0DE
:1038A40056EF1CF05CEF1CF015C01AF016C01BF0AC
:1038B40060EF1CF0000E1B6E000E1A6E000E196EE7
:1038C400000E186E72EF1CF0000E026E200E016ED8
:1038D40011C003F012C004F0D8EC1BF0184A192AE6
:1038E4001A50185C1950800A176E1B50800A17581A
:1038F400D8A07FEF1CF081EF1CF066EF1CF00001F4
:10390400F0B187EF1CF089EF1CF093EF1CF013C0AB
:103914000AF014C00BF011C00CF012C00DF05EECF4
:103924001EF013C001F014C002F054EC1FF01A5042
:103934000124116E1B500220126E1200A1EC1FF024
:103944006FEC1FF0000E026EC70E016E80EC1EF0CD
:103954001AEC20F0860E016E010E026E900E036EBC
:10396400010E046E6FEC1BF03BEC20F0869C7E9CF9
:103974008792869E81987F827E8E7988000E0101CF
:10398400856FCEEF1CF09A0E5A6E010E5B6EB9EC89
:1039940017F0010E0101856F8551D8B4D4EF1CF0E6
:1039A400D6EF1CF0C5EF1CF0CEEF1CF000EF00F0DA
:1039B400790E0001606F000E616F050E626F0E0ECE
:1039C400636F58C0D9FF59C0DAFFDECF64F0DDCF92
:1039D40065F020EE02F05850D9265950DA22DECF95
:1039E40066F0DDCF67F020EE04F05850D926595028
:1039F400DA22DECF68F0DDCF69F020EE06F0585011
:103A0400D9265950DA22DECF6AF0DDCF6BF072ECA2
:103A14001DF0790E026E000E036E89EC1FF0120089
:103A240052C056F053C057F0000E0001EB6F000E69
:103A3400EA6F30EF1DF050C040F051C041F0560E17
:103A4400426E000E436E54C044F055C045F0DFECA6
:103A540016F040500001EA274150EB2356C0F6FF10
:103A640057C0F7FF0800F5500009D8A43CEF1DF03B
:103A74003EEF1DF01DEF1DF0EAC050F0EBC051F019
:103A840012009BEC1DF00CC0D9FF0DC0DAFF05C07D
:103A9400DEFF06C0DDFF13EC1EF020EE04F00C5038
:103AA400D9260D50DA2205C0DEFF06C0DDFFC3ECC7
:103AB4001DF020EE02F00C50D9260D50DA2205C07C
:103AC400DEFF06C0DDFFEBEC1DF020EE06F00C502F
:103AD400D9260D50DA2205C0DEFF06C0DDFF120034
:103AE400640E00016C6F000E6D6F60C06EF061C0FB
:103AF4006FF0000E726F000E716F000E786F000E83
:103B0400776F6E0E506E000E516E62C052F063C03D
:103B140053F06C0E546E000E556E12EC1DF0000145
:103B240071516025D96E72516121DA6E000EDF6E1B
:103B340012004BEC20F0520E35EC20F0B60E35ECB2
:103B440020F041EC20F0530E35EC20F0010EA1ECF6
:103B54001EF0076E07500A6E0B6A000EA1EC1EF0F1
:103B6400076E0750096E086A0A5008100A6E0B5057
:103B740009100B6E46EC20F00AC005F00BC006F0ED
:103B840012004BEC20F0520E35EC20F0B80E35EC60
:103B940020F041EC20F0530E35EC20F0010EA1ECA6
:103BA4001EF0076E07500A6E0B6A000EA1EC1EF0A1
:103BB400076E0750096E086A0A5008100A6E0B5007
:103BC40009100B6E46EC20F00AC005F00BC006F09D
:103BD40012004BEC20F0520E35EC20F0B40E35EC14
:103BE40020F041EC20F0530E35EC20F0010EA1EC56
:103BF4001EF0076E07500A6E0B6A000EA1EC1EF051
:103C0400076E0750096E086A0A5008100A6E0B50B6
:103C140009100B6E46EC20F00AC005F00BC006F04C
:103C240012004BEC20F0520E35EC20F0BA0E35ECBD
:103C340020F041EC20F0530E35EC20F0010EA1EC05
:103C44001EF0076E07500A6E0B6A000EA1EC1EF000
:103C5400076E0750096E086A0A5008100A6E0B5066
:103C640009100B6E46EC20F00AC005F00BC006F0FC
:103C74001200000E151A000E161A000E171A800EE6
:103C8400181A11C001F012C002F013C003F014C0DE
:103C940004F015C005F016C006F017C007F018C0F0
:103CA40008F07AEC0CF001C011F002C012F003C06D
:103CB40013F004C014F01200000E106E000E0F6E0C
:103CC4006FEF1EF00EC001F0026A0CC003F00DC0CD
:103CD40004F0D8EC1BF00F4A102A0F500A24D96EB6
:103CE40010500B20DA6EDF500E6E0E50D8A47DEF0C
:103CF4001EF07FEF1EF064EF1EF012008594839E89
:103D0400879C85987D947B9E7F9C7D98BD508F0B6E
:103D14003009BD6EE00EBE16BF50F00B0109BF6E38
:103D2400C70EBC6EBD8E0A0E0E01746F0B0E696F4A
:103D3400000EA36E000EA06EA48EA18E1200036E60
:103D4400B6EC1FF00E01DA87B6EC1FF0D5CE04F006
:103D5400B6EC1FF00350D8B4B2EF1EF0B6EF1EF06D
:103D6400026A022AB7EF1EF0026A023A02460E0104
:103D7400DA510218DF0B0218DA6FDA8904501200E4
:103D840014BECFEF1EF0145006E11304D8B0CDEFEB
:103D94001EF0CFEF1EF0DDEF1EF013C015F014C0BF
:103DA40016F0151E161E154A162A15C013F016C055
:103DB40014F0E1EF1EF013C013F014C014F012005D
:103DC40066C041F067C042F068C043F069C044F087
:103DD400EFEC10F041C05BF042C05CF043C05DF01A
:103DE40044C05EF0FAEC19F05BC066F05CC067F0AA
:103DF4005DC068F05EC069F01200000E5F6E0001E5
:103E04006C516A5D6D516B59D8B00BEF1FF00DEF1B
:103E14001FF01AEF1FF06C516E5D6D516F59D8A0F1
:103E240016EF1FF018EF1FF01AEF1FF0010E5F6E70
:103E34005F501200A20EF66E400EF76E000EF86E82
:103E44000900F5CFF6F001EE00F0850EEE6AE80603
:103E5400FDE100EEE6F0100EEE6AE806FDE1000E6C
:103E6400F86E0E0EF76E0001A0EF1CF00150021068
:103E740003100410D8B441EF1FF043EF1FF04BEFD1
:103E84001FF0000E011A000E021A000E031A800E13
:103E9400041A01C001F002C002F003C003F004C020
:103EA40004F0120001C003F002C004F05CEF1FF044
:103EB400014A022A01C0D9FF02C0DAFFDF50D8A4A8
:103EC40066EF1FF068EF1FF05AEF1FF00350015C1C
:103ED400016E04500258026E1200A1EC1FF0010E94
:103EE400036E000E0AEC20F03F0E056E550EE82E10
:103EF400FED7052EFCD700F0030E036E000E0AEC6D
:103F040020F0D50E036E010E0AEC20F0120094EF9F
:103F14001FF002C0D9FF03C0DAFFDF5029EC20F004
:103F2400024A032A02C0D9FF03C0DAFFDF50D8A433
:103F34009EEF1FF0A0EF1FF08BEF1FF012000E0199
:103F4400D951F00B0809D96FD98B9F0ED66F848A8B
:103F5400848CA79BA79D1D0E1D6F1E0E1C6F1C0E2F
:103F64006F6F1B0E706F12000E01D8B5BCEF1FF0FF
:103F7400BEEF1FF0B6EF1FF0DACE01F01F0E0116F0
:103F8400D8A4C7EF1FF0C9EF1FF0B6EF1FF012005F
:103F94007F827E9E7998110E026E3C0E016ECB0ECE
:103FA400E82EFED7012EFCD7022EFAD700F012001D
:103FB4007F927E9E7988110E026E3C0E016ECB0EAE
:103FC400E82EFED7012EFCD7022EFAD700F01200FD
:103FD4007F827E8E7988110E026E3C0E016ECB0EAE
:103FE400E82EFED7012EFCD7022EFAD700F01200DD
:103FF4007F927E8E7998110E026E3C0E016ECB0E6E
:10400400E82EFED7012EFCD7022EFAD700F01200BC
:10401400046E4BEC20F0520E35EC20F00450800975
:1040240035EC20F0035035EC20F046EC20F0120083
:10403400120E0E01626F110E156FE997E895330E9B
:10404400E56F000EE66FE789E88BE78F1200016EDB
:104054000E0137A530EF20F032EF20F02AEF20F0E8
:1040640001C0E4FE1200026EB6EC1FF002C0D5FEE1
:10407400120086840E01B4958686B4971200B6ECBD
:104084001FF00E01DA831200B6EC1FF00E01DA8580
:0F4094001200B6EC1FF00E01DA811200120007C5
:020000040020DA
:10000000FF0FFF0FFF0FFF0FFF0FFF0FFF0FFF0F80
:020000040030CA
:0C000000AAFFFFFF9FFFFFFFFFFFFFFFB5
:00000001FF
