:0400000014EF00F009
:100008005F820E0133AB0BEF00F00DEF00F012EF43
:1000180000F001019A4B9B2B0E01339B5F9211005C
:04002800D3EF28F0FA
:100E0000000000004B256409256409256409256458
:100E10000D0A0000000E00017E6F000E7D6F000EB7
:100E20007A6F000E796F000E806F000E7F6F000EDC
:100E3000826F000E816F000E7C6F000E7B6F000EC4
:100E4000866F000E856F000E8A6F000E896F000E90
:100E5000886F000E876F000E8B6FA6EC2BF071C0B1
:100E60000CF072C00DF0A4EC28F073C0D9FF74C070
:100E7000DAFFDECF75F0DDCF76F075C001F076C019
:100E800002F0036A046A000E29EC1DF001C013F0A1
:100E900002C014F003C015F004C016F071C0D9FFF1
:100EA00072C0DAFFDECF77F0DDCF78F077C001F0E7
:100EB00078C002F0036A046A000E29EC1DF001C03C
:100EC0000FF002C010F003C011F004C012F006ECE5
:100ED00013F00FC028F010C029F011C02AF012C082
:100EE0002BF0000E2C6E000E2D6EC80E2E6E420ED4
:100EF0002F6E1AEC0FF028C08CF029C08DF02AC09C
:100F00008EF02BC08FF08CC066F08DC067F08EC065
:100F100068F08FC069F0CDEC2AF066C083F067C03E
:100F200084F0000120EE02F07351D9267451DA22C8
:100F3000DECF75F0DDCF76F075C001F076C002F03F
:100F4000036A046A000E29EC1DF001C013F002C010
:100F500014F003C015F004C016F0000120EE02F0FA
:100F60007151D9267251DA22DECF77F0DDCF78F0D9
:100F700077C001F078C002F0036A046A000E29EC21
:100F80001DF001C00FF002C010F003C011F004C04A
:100F900012F006EC13F00FC028F010C029F011C0B9
:100FA0002AF012C02BF0000E2C6E000E2D6EC80E13
:100FB0002E6E420E2F6E1AEC0FF028C08CF029C056
:100FC0008DF02AC08EF02BC08FF08CC066F08DC0E3
:100FD00067F08EC068F08FC069F0CDEC2AF066C073
:100FE0007DF067C07EF0000120EE04F07351D92639
:100FF0007451DA22DECF75F0DDCF76F075C001F0E6
:1010000076C002F0036A046A000E29EC1DF001C0EC
:1010100013F002C014F003C015F004C016F0000174
:1010200020EE04F07151D9267251DA22DECF77F02A
:10103000DDCF78F077C001F078C002F0036A046A6F
:10104000000E29EC1DF001C00FF002C010F003C02B
:1010500011F004C012F006EC13F00FC028F010C01D
:1010600029F011C02AF012C02BF0000E2C6E000ED9
:101070002D6EC80E2E6E420E2F6E1AEC0FF028C089
:101080008CF029C08DF02AC08EF02BC08FF08CC060
:1010900066F08DC067F08EC068F08FC069F0CDEC4F
:1010A0002AF0050E0001766F0F0E756FF10EE82E17
:1010B000FED7752FFCD7762FFAD7C6EC2BF071C070
:1010C0000CF072C00DF0A4EC28F0000120EE06F048
:1010D0007351D9267451DA22DECF75F0DDCF76F068
:1010E00075C001F076C002F0036A046A000E29ECB4
:1010F0001DF001C013F002C014F003C015F004C0CD
:1011000016F071C0D9FF72C0DAFFDECF77F0DDCF05
:1011100078F077C001F078C002F0036A046A000E2C
:1011200029EC1DF001C00FF002C010F003C011F057
:1011300004C012F006EC13F00FC028F010C029F024
:1011400011C02AF012C02BF0000E2C6E000E2D6E76
:10115000C80E2E6E420E2F6E1AEC0FF028C08CF0C7
:1011600029C08DF02AC08EF02BC08FF08CC066F0A5
:101170008DC067F08EC068F08FC069F0CDEC2AF0AA
:1011800066C07FF067C080F0000120EE08F0735168
:10119000D9267451DA22DECF75F0DDCF76F075C036
:1011A00001F076C002F0036A046A000E29EC1DF01B
:1011B00001C013F002C014F003C015F004C016F013
:1011C000000120EE02F07151D9267251DA22DECFF1
:1011D00077F0DDCF78F077C001F078C002F0036AD5
:1011E000046A000E29EC1DF001C00FF002C010F0DF
:1011F00003C011F004C012F006EC13F00FC028F089
:1012000010C029F011C02AF012C02BF0000E2C6E75
:10121000000E2D6EC80E2E6E420E2F6E1AEC0FF0C1
:1012200028C08CF029C08DF02AC08EF02BC08FF022
:101230008CC066F08DC067F08EC068F08FC069F01A
:10124000CDEC2AF066C081F067C082F0000120EE8C
:101250000AF07351D9267451DA22DECF75F0DDCF52
:1012600076F075C001F076C002F0036A046A000EE1
:1012700029EC1DF001C013F002C014F003C015F0FA
:1012800004C016F0000120EE04F07151D92672510D
:10129000DA22DECF77F0DDCF78F077C001F078C0CA
:1012A00002F0036A046A000E29EC1DF001C00FF081
:1012B00002C010F003C011F004C012F006EC13F0ED
:1012C0000FC028F010C029F011C02AF012C02BF076
:1012D000000E2C6E000E2D6EC80E2E6E420E2F6E5E
:1012E0001AEC0FF028C08CF029C08DF02AC08EF0C7
:1012F0002BC08FF08CC066F08DC067F08EC068F098
:101300008FC069F0CDEC2AF0050E0001766F0F0E4C
:10131000756FF10EE82EFED7752FFCD7762FFAD712
:10132000D6EC2BF071C00CF072C00DF0A4EC28F0DC
:10133000000120EE0CF07351D9267451DA22DECF71
:1013400075F0DDCF76F075C001F076C002F0036A6B
:10135000046A000E29EC1DF001C013F002C014F065
:1013600003C015F004C016F071C0D9FF72C0DAFFD7
:10137000DECF77F0DDCF78F077C001F078C002F0F3
:10138000036A046A000E29EC1DF001C00FF002C0D0
:1013900010F003C011F004C012F006EC13F00FC0FF
:1013A00028F010C029F011C02AF012C02BF0000E56
:1013B0002C6E000E2D6EC80E2E6E420E2F6E1AEC85
:1013C0000FF028C08CF029C08DF02AC08EF02BC001
:1013D0008FF08CC066F08DC067F08EC068F08FC053
:1013E00069F0CDEC2AF066C085F067C086F0000198
:1013F00020EE0EF07351D9267451DA22DECF75F04B
:10140000DDCF76F075C001F076C002F0036A046AA1
:10141000000E29EC1DF001C013F002C014F003C04F
:1014200015F004C016F0000120EE02F07151D9262B
:101430007251DA22DECF77F0DDCF78F077C001F09D
:1014400078C002F0036A046A000E29EC1DF001C0A6
:101450000FF002C010F003C011F004C012F006EC4F
:1014600013F00FC028F010C029F011C02AF012C0EC
:101470002BF0000E2C6E000E2D6EC80E2E6E420E3E
:101480002F6E1AEC0FF028C08CF029C08DF02AC006
:101490008EF02BC08FF08CC066F08DC067F08EC0D0
:1014A00068F08FC069F0CDEC2AF066C089F067C0A3
:1014B0008AF0000120EE10F07351D9267451DA221F
:1014C000DECF75F0DDCF76F075C001F076C002F0AA
:1014D000036A046A000E29EC1DF001C013F002C07B
:1014E00014F003C015F004C016F0000120EE04F063
:1014F0007151D9267251DA22DECF77F0DDCF78F044
:1015000077C001F078C002F0036A046A000E29EC8B
:101510001DF001C00FF002C010F003C011F004C0B4
:1015200012F006EC13F00FC028F010C029F011C023
:101530002AF012C02BF0000E2C6E000E2D6EC80E7D
:101540002E6E420E2F6E1AEC0FF028C08CF029C0C0
:101550008DF02AC08EF02BC08FF08CC066F08DC04D
:1015600067F08EC068F08FC069F0CDEC2AF066C0DD
:1015700087F067C088F0050E0001766F0F0E756F5B
:10158000F10EE82EFED7752FFCD7762FFAD7000E76
:1015900000016B6F000E6A6F85C06CF086C06DF045
:1015A000000E6F6F460E6E6FB0EC2AF00009D8B4D3
:1015B000DCEF0AF0DEEF0AF04FEF0BF087C001F02E
:1015C00088C002F0036A046A000E29EC1DF001C015
:1015D00013F002C014F003C015F004C016F00001AF
:1015E00089518125756F8A518221766F75C001F00E
:1015F00076C002F0036A046A000E29EC1DF001C0F7
:101600000FF002C010F003C011F004C012F006EC9D
:1016100013F00FC028F010C029F011C02AF012C03A
:101620002BF0000E2C6E000E2D6E480E2E6E430E0B
:101630002F6E1AEC0FF028C08CF029C08DF02AC054
:101640008EF02BC08FF0000E00016B6F000E6A6FE2
:101650008CC066F08DC067F08EC068F08FC069F0F6
:10166000CDEC2AF066C06CF067C06DF0010E000191
:101670006F6F9E0E6E6FB0EC2AF00009D8B443EF86
:101680000BF045EF0BF04AEF0BF0030E00018B6FF0
:1016900030EF0CF0020E00018B6F30EF0CF0000EFB
:1016A00000016B6F000E6A6F89C06CF08AC06DF02C
:1016B000000E6F6F4B0E6E6FB0EC2AF00009D8B4BD
:1016C00064EF0BF066EF0BF0E0EF0BF07DC001F084
:1016D0007EC002F0036A046A000E29EC1DF001C00E
:1016E00013F002C014F003C015F004C016F083C05C
:1016F00001F084C002F0036A046A000E29EC1DF0B8
:1017000001C00FF002C010F003C011F004C012F0CD
:1017100006EC13F00FC028F010C029F011C02AF019
:1017200012C02BF0000E2C6E000E2D6EFA0E2E6ED7
:10173000430E2F6E1AEC0FF028C08CF029C08DF0EC
:101740002AC08EF02BC08FF0000E00016B6F000ED0
:101750006A6F8CC066F08DC067F08EC068F08FC075
:1017600069F0CDEC2AF066C06CF067C06DF0020E37
:1017700000016F6F9E0E6E6FB0EC2AF00009D8B4B6
:10178000C4EF0BF0C6EF0BF0DBEF0BF00001805164
:1017900009E15B0E7F5DD8A0D0EF0BF0D2EF0BF02C
:1017A000D6EF0BF0060E8B6F30EF0CF0000E000141
:1017B0008B6F30EF0CF0010E00018B6F30EF0CF0EF
:1017C000000E00016B6F000E6A6F85C06CF086C062
:1017D0006DF0000E6F6F5A0E6E6FB0EC2AF00009BC
:1017E000D8B4F5EF0BF0F7EF0BF007EF0CF00001BA
:1017F0008A5109E15B0E895DD8A001EF0CF003EF7F
:101800000CF0D6EF0BF0070E8B6F30EF0CF00001F1
:101810008751895D88518A59D8B011EF0CF013EFC8
:101820000CF017EF0CF0050E8B6F30EF0CF0000E84
:101830006B6F000E6A6F87C06CF088C06DF0000E91
:101840006F6F5A0E6E6FB0EC2AF00009D8B42BEF10
:101850000CF02DEF0CF0D6EF0BF0040E00018B6FA7
:10186000000E6B6F5A0E6A6F85C06CF086C06DF00B
:10187000000E6F6F6E0E6E6FB0EC2AF00009D8B4D8
:1018800044EF0CF046EF0CF077EF0CF0000E000187
:101890006B6F5F0E6A6F89C06CF08AC06DF0000ECE
:1018A0006F6F690E6E6FB0EC2AF00009D8B45BEF71
:1018B0000CF05DEF0CF077EF0CF0000E00016B6F99
:1018C0005F0E6A6F87C06CF088C06DF0000E6F6F9E
:1018D000690E6E6FB0EC2AF00009D8B472EF0CF00C
:1018E00074EF0CF077EF0CF0080E00018B6F000E18
:1018F00000016B6F000E6A6F85C06CF086C06DF0E2
:10190000000E6F6F190E6E6FB0EC2AF00009D8B49C
:101910008CEF0CF08EEF0CF0A8EF0CF0000E000135
:101920006B6F000E6A6F83C06CF084C06DF0000EA8
:101930006F6F5A0E6E6FB0EC2AF00009D8B4A3EFA7
:101940000CF0A5EF0CF0A8EF0CF0000E00018B6F6F
:10195000080E00018B19D8A4B0EF0CF0B2EF0CF018
:10196000B7EF0CF0010E016E020E15EC19F000013C
:101970008B5112000450800B0D6E045004240F6E26
:1019800003AEC5EF0CF0C7EF0CF0C8EF0CF00F8002
:101990000F50D8B4CEEF0CF0D0EF0CF0E5EF0CF018
:1019A0000F28D8A4D6EF0CF0D8EF0CF0E0EF0CF035
:1019B000000E016E000E026E000E036E000E046E2D
:1019C000038E000E046EEDEF0CF0000E016E000EA3
:1019D000026E000E036E000E046E0850800B0E6E39
:1019E0000D500E18D8B4F7EF0CF0F9EF0CF0FAEF39
:1019F0000CF00D8C085008240E6E07AE02EF0DF0AF
:101A000004EF0DF005EF0DF00E800E50D8B40BEF83
:101A10000DF00DEF0DF022EF0DF00E28D8A413EF0E
:101A20000DF015EF0DF01DEF0DF0000E056E000E20
:101A3000066E000E076E000E086E078E000E086E12
:101A40002AEF0DF0000E056E000E066E000E076EFA
:101A5000000E086E0F500E5CD8B031EF0DF033EF72
:101A60000DF05AEF0DF00DAC38EF0DF03AEF0DF030
:101A70003CEF0DF0800E0D1A0FC010F00EC00FF0ED
:101A800010C00EF001C010F005C001F010C005F04C
:101A900002C010F006C002F010C006F003C010F043
:101AA00007C003F010C007F004C010F008C004F035
:101AB00010C008F0000E106E0F500EC009F00A6A38
:101AC000095E000E0A5A0ABE6FEF0DF00A5009E1D6
:101AD0001A0E095CD8A06FEF0DF071EF0DF0A8EFB2
:101AE0000DF00150021003100410D8A47AEF0DF08D
:101AF0007DEF0DF0010E7EEF0DF0000E106E000E6A
:101B0000016E000E026E000E036E000E046E0EC01B
:101B10000FF0B1EF0DF010A090EF0DF092EF0DF07F
:101B200098EF0DF0D89010300109106E9AEF0DF07B
:101B3000D890103201A09FEF0DF0A1EF0DF0A2EFB1
:101B40000DF0108E043404320332023201320F2AB7
:101B50000E500F5CD8A0AFEF0DF0B1EF0DF08BEF92
:101B60000DF00DBCB6EF0DF0B8EF0DF0F8EF0DF085
:101B70000F50D8A4BEEF0DF0C0EF0DF0CAEF0DF07E
:101B8000000E016E000E026E000E036E000E046E5B
:101B900019EF0FF0055001260650022207500322CC
:101BA0000850042204A0D7EF0DF0D9EF0DF085EF17
:101BB0000EF010A0DEEF0DF0E0EF0DF0E6EF0DF00F
:101BC000D89010300109106EE8EF0DF0D890103267
:101BD00001A0EDEF0DF0EFEF0DF0F0EF0DF0108E36
:101BE000043404320332023201320F2A85EF0EF040
:101BF0000550015C06500258075003580450800AF3
:101C0000096E0850800A0958D8B009EF0EF00BEFA2
:101C10000EF036EF0EF00150055C096E02500658CA
:101C20000A6E035007580B6E045008580C6EFF0ED6
:101C30000924016EFF0E0A20026EFF0E0B20036EB8
:101C4000FF0E0C20046E800E0D1A106C1050D8A4DC
:101C50002CEF0EF02EEF0EF03EEF0EF0010E0126EF
:101C6000000E0222032204223EEF0EF00550015E18
:101C70000650025A0750035A0850045A01500210E5
:101C800003100410D8A447EF0EF049EF0EF07EEFDA
:101C90000EF01050D8A44FEF0EF051EF0EF07EEF83
:101CA0000EF0000E016E000E026E000E036E000EAE
:101CB000046E19EF0FF0D890013602360336043661
:101CC00010AE65EF0EF067EF0EF068EF0EF00180DA
:101CD00010A06DEF0EF06FEF0EF073EF0EF0D880E6
:101CE000103675EF0EF0D89010360F50D8B47BEF49
:101CF0000EF07DEF0EF07EEF0EF00F0603AE83EFD9
:101D00000EF085EF0EF05BEF0EF0000E0E6E10AED3
:101D10008CEF0EF08EEF0EF0A6EF0EF010C009F073
:101D20007F0E0916D8B497EF0EF099EF0EF09DEFE5
:101D30000EF0010E0E6EA6EF0EF001A0A2EF0EF057
:101D4000A4EF0EF0A6EF0EF099EF0EF00E50D8B4FF
:101D5000ACEF0EF0AEEF0EF0D9EF0EF0010E012653
:101D6000000E02220322042204A0B9EF0EF0BBEF02
:101D70000EF0D9EF0EF001C009F002C00AF003C066
:101D80000BF004C00CF00C340C320B320A32093266
:101D900009C001F00AC002F00BC003F00CC004F04F
:101DA0000F28D8B4D6EF0EF0D8EF0EF0D9EF0EF022
:101DB0000F2A0F28D8B4DFEF0EF0E1EF0EF0E9EFB5
:101DC0000EF00F50D8A4E7EF0EF0E9EF0EF0FBEFA6
:101DD0000EF0000E016E000E026E000E036E000E7D
:101DE000046E0F50D8A4F7EF0EF0F9EF0EF0FBEFF2
:101DF0000EF0000E0D6E0FA000EF0FF002EF0FF0CF
:101E000005EF0FF0038E06EF0FF0039ED8900F3012
:101E1000046E0DAE0EEF0FF010EF0FF011EF0FF09C
:101E2000048E01C001F002C002F003C003F004C040
:101E300004F012002B50800B346E2B502B243A6E82
:101E40002AAE25EF0FF027EF0FF028EF0FF03A80C2
:101E50003A50D8B42EEF0FF030EF0FF043EF0FF001
:101E60003A28D8A436EF0FF038EF0FF040EF0FF01C
:101E7000000E286E000E296E000E2A6E000E2B6ECC
:101E80002A8E4BEF0FF0000E286E000E296E000E0A
:101E90002A6E000E2B6E2F50800B341A2F502F24D9
:101EA000396E2EAE56EF0FF058EF0FF059EF0FF0DE
:101EB00039803950D8B45FEF0FF061EF0FF074EF55
:101EC0000FF03928D8A467EF0FF069EF0FF071EF2A
:101ED0000FF0000E2C6E000E2D6E000E2E6E000EFA
:101EE0002F6E2E8E7CEF0FF0000E2C6E000E2D6EDE
:101EF000000E2E6E000E2F6E3950D8B482EF0FF008
:101F000084EF0FF08CEF0FF03A50D8A48AEF0FF067
:101F10008CEF0FF096EF0FF0000E286E000E296E7A
:101F2000000E2A6E000E2B6E2EEF11F02E5028029E
:101F3000F3CF3FF0F4CF40F03F50356E366A376A4A
:101F4000386A40503B6E3C6A3D6A3E6A2D50290219
:101F5000F3CF3FF0F4CF40F03F503526000E36224D
:101F60003722382240503B26000E3C223D223E22A2
:101F70002C502A02F3CF3FF0F4CF40F03F503526EB
:101F8000000E36223722382240503B26000E3C22DB
:101F90003D223E2237C038F036C037F035C036F02B
:101FA000356A2C502902F3CF3FF0F4CF40F03F5078
:101FB000352640503622000E3722000E38222D5092
:101FC0002802F3CF3FF0F4CF40F03F503526405089
:101FD0003622000E3722000E382237C038F036C0C5
:101FE00037F035C036F0356A2C502802F3CF3FF079
:101FF000F4CF40F03F50352640503622000E3722B5
:10200000000E38222E502902F3CF3FF0F4CF40F0DB
:102010003F503B2640503C22000E3D22000E3E2207
:102020002D502A02F3CF3FF0F4CF40F03F503B2633
:1020300040503C22000E3D22000E3E222E502A022D
:10204000F3CF3FF0F4CF40F03F50306E4050316E50
:10205000326A336A32C033F031C032F030C031F00E
:10206000306A30503B2631503C2232503D223350B2
:102070003E2235C030F036C031F037C032F038C0C3
:1020800033F0190E49EF10F0D8903332323231323A
:102090003032E82E44EF10F030503B2631503C22D5
:1020A00032503D2233503E2237C038F036C037F030
:1020B00035C036F0356A39503AC030F0316A3026D2
:1020C000000E3122820E30243F6EFF0E3120406E12
:1020D0007FEF10F0D8903B363C363D363E3638AE7A
:1020E00074EF10F076EF10F077EF10F03B80D8909F
:1020F00035363636373638363F06D8A040063DAE40
:1021000084EF10F086EF10F06AEF10F0000E396ED9
:1021100038AE8DEF10F08FEF10F0B3EF10F0FF0E30
:102120003514306EFF0E3614316EFF0E3714326EDA
:102130007F0E3814336E3050311032103310D8B453
:10214000A4EF10F0A6EF10F0AAEF10F0010E396E18
:10215000B3EF10F03BA0AFEF10F0B1EF10F0B3EF22
:1021600010F0A6EF10F03950D8B4B9EF10F0BBEF73
:1021700010F0DFEF10F0010E3B26000E3C223D2256
:102180003E223EA0C6EF10F0C8EF10F0DFEF10F0D7
:102190003BC030F03CC031F03DC032F03EC033F0C7
:1021A0003334333232323132303230C03BF031C02E
:1021B0003CF032C03DF033C03EF03F4A402A40BEC2
:1021C000EAEF10F0405008E13F28D8A0EAEF10F005
:1021D000ECEF10F0F6EF10F0000E3B6E000E3C6ED0
:1021E000800E3D6E7F0E3E6E24EF11F040BE03EF79
:1021F00011F0405006E13F04D8B001EF11F003EFB9
:1022000011F00FEF11F0000E3B6E000E3C6E000E51
:102210003D6E000E3E6E000E346E24EF11F03FC096
:102220003AF0FF0E3B16FF0E3C167F0E3D16000ED9
:102230003E163AA01EEF11F020EF11F021EF11F041
:102240003D8ED8903A303E6E34503E123BC028F05E
:102250003CC029F03DC02AF03EC02BF012008CC1DA
:1022600053F08DC154F08EC155F08FC156F041C06E
:1022700053F042C054F043C055F044C056F053C030
:1022800045F054C046F055C047F056C048F0180E0F
:102290004FEF11F0D8904832473246324532E82E9F
:1022A0004AEF11F045504D6E4E6A4EBE61EF11F08F
:1022B0004E5009E1960E4D5CD8A061EF11F063EF2E
:1022C00011F06DEF11F041C041F042C042F043C047
:1022D00043F044C044F005EF13F053C045F054C040
:1022E00046F055C047F056C048F0200E7DEF11F083
:1022F000D8904832473246324532E82E78EF11F016
:102300004550461047104810D8B489EF11F08BEFB4
:1023100011F09DEF11F041C001F042C002F043C046
:1023200003F044C004F0EAEC2AF001C041F002C01E
:1023300042F003C043F004C044F04EBEABEF11F0D6
:102340004E5007E17E0E4D5CD8B0A9EF11F0ABEF17
:1023500011F0C7EF11F053C028F054C029F055C058
:102360002AF056C02BF0000E2C6E000E2D6E000EC3
:102370002E6E000E2F6E1AEC0FF028C041F029C00F
:1023800042F02AC043F02BC044F005EF13F0000EDA
:10239000056E000E066E000E076E4B0E086E41C0F5
:1023A00001F042C002F043C003F044C004F0BAECB4
:1023B0000CF001C04FF002C050F003C051F004C057
:1023C00052F0000E056E000E066E000E076ECB0E6C
:1023D000086E4FC001F050C002F051C003F052C06F
:1023E00004F0BAEC0CF001C049F002C04AF003C09E
:1023F0004BF004C04CF049C011F04AC012F04BC081
:1024000013F04CC014F041C015F042C016F043C0A8
:1024100017F044C018F0C7EC29F011C057F012C0F3
:1024200058F013C059F014C05AF0000E016E000E9F
:10243000026E000E036E3F0E046E57C005F058C0CA
:1024400006F059C007F05AC008F07DEC24F0D8B06F
:102450002CEF12F02EEF12F064EF12F041C005F0F5
:1024600042C006F043C007F044C008F057C001F076
:1024700058C002F059C003F05AC004F0BAEC0CF096
:1024800001C04FF002C050F003C051F004C052F040
:102490004FC001F050C002F051C003F052C004F030
:1024A000000E056E000E066E800E076EBF0E086EE3
:1024B000BAEC0CF001C057F002C058F003C059F05C
:1024C00004C05AF0CDEF12F0000E016E000E026E45
:1024D000000E036EBF0E046E57C005F058C006F024
:1024E00059C007F05AC008F07DEC24F0D8A07BEF6B
:1024F00012F07DEF12F0B3EF12F041C005F042C0D0
:1025000006F043C007F044C008F057C001F058C0BF
:1025100002F059C003F05AC004F0BAEC0CF001C04C
:102520004FF002C050F003C051F004C052F04FC051
:1025300001F050C002F051C003F052C004F0000E90
:10254000056E000E066E800E076E3F0E086EBAEC2A
:102550000CF001C057F002C058F003C059F004C09D
:102560005AF0CDEF12F057C001F058C002F059C038
:1025700003F05AC004F041C005F042C006F043C069
:1025800007F044C008F0BAEC0CF001C057F002C0EC
:1025900058F003C059F004C05AF053C045F054C07D
:1025A00046F055C047F056C048F0200EDDEF12F05F
:1025B000D8904832473246324532E82ED8EF12F0F2
:1025C0004550461047104810D8B4E9EF12F0EBEF31
:1025D00012F0FDEF12F057C001F058C002F059C0E0
:1025E00003F05AC004F0EAEC2AF001C057F002C030
:1025F00058F003C059F004C05AF057C041F058C019
:1026000042F059C043F05AC044F012001250800BFF
:102610001F6E12501224266E11AE11EF13F013EF3D
:1026200013F014EF13F026802650D8B41AEF13F0ED
:102630001CEF13F031EF13F02628D8A422EF13F08B
:1026400024EF13F02CEF13F0000E0F6E000E106E3F
:10265000000E116E000E126E118E000E126E39EF0A
:1026600013F0000E0F6E000E106E000E116E000EB5
:10267000126E1650800B1F1A16501624276E15AEB8
:1026800044EF13F046EF13F047EF13F02780275085
:10269000D8B44DEF13F04FEF13F064EF13F0272889
:1026A000D8A455EF13F057EF13F05FEF13F0000EBF
:1026B000136E000E146E000E156E000E166E158E43
:1026C000000E166E6CEF13F0000E136E000E146EFB
:1026D000000E156E000E166E135014101510161005
:1026E000D8A475EF13F077EF13F08FEF13F0000E0F
:1026F0000F6E000E106E000E116E000E126E800E28
:1027000011127F0E12121F5012120FC00FF010C0C4
:1027100010F011C011F012C012F0D2EF14F02650D8
:10272000D8A495EF13F097EF13F0A1EF13F0000E7C
:102730000F6E000E106E000E116E000E126ED2EFB4
:1027400014F0275026C017F0186A175E000E185AAA
:102750007F0E1724206E000E1820216E0FC01BF074
:1027600010C01CF011C01DF012C01EF0000E0F6E44
:10277000000E106E000E116E000E126E000E226E14
:10278000000E236E000E246E000E256E000E276EC6
:1027900002EF14F02750D8B4D0EF13F0D2EF13F0BB
:1027A000E9EF13F0D8901B361C361D361E36D89034
:1027B0000F3610361136123625AEE1EF13F0E3EF87
:1027C00013F0E4EF13F00F80D8902236233624362E
:1027D000253613501B5C14501C5815501D581650AC
:1027E0001E58D8A0F6EF13F0F8EF13F001EF14F035
:1027F000258C13501B5E14501C5A15501D5A165030
:102800001E5A272A190E276408EF14F00AEF14F055
:10281000CAEF13F01B501C101D101E10D8B413EF7C
:1028200014F015EF14F02DEF14F022802DEF14F0BA
:10283000D8900F3610361136123625AE22EF14F02E
:1028400024EF14F025EF14F00F80D89022362336B1
:10285000243625362006D8A0210611AE32EF14F01A
:1028600034EF14F018EF14F0000E276E25AE3BEF96
:1028700014F03DEF14F061EF14F0FF0E2214176E08
:10288000FF0E2314186EFF0E2414196E7F0E2514EC
:102890001A6E1750181019101A10D8B452EF14F0FD
:1028A00054EF14F058EF14F0010E276E61EF14F09E
:1028B0000FA05DEF14F05FEF14F061EF14F054EF30
:1028C00014F02750D8B467EF14F069EF14F08DEFCF
:1028D00014F0010E0F26000E10221122122212A057
:1028E00074EF14F076EF14F08DEF14F00FC017F0C2
:1028F00010C018F011C019F012C01AF01A341A32B0
:1029000019321832173217C00FF018C010F019C062
:1029100011F01AC012F0204A212A21BE98EF14F0BB
:10292000215008E12028D8A098EF14F09AEF14F075
:10293000A5EF14F0000E216E2068000E0F6E000E41
:10294000106E000E116E000E126E21BEB2EF14F06A
:10295000215006E12004D8B0B0EF14F0B2EF14F02B
:10296000C0EF14F0000E216E000E206E000E0F6EF0
:10297000000E106E000E116E000E126E000E1F6E15
:1029800020C026F026A0C7EF14F0C9EF14F0CCEF5A
:1029900014F0118ECDEF14F0119ED8902630126EE7
:1029A00083EF13F012001EC036F01FC037F020C0B6
:1029B00038F021C039F022C03AF023C03BF024C0E7
:1029C0003CF025C03DF03DBEE8EF14F0EBEF14F015
:1029D000010EECEF14F0000E346E356A34503510F1
:1029E000D8B4F5EF14F0F7EF14F007EF15F03D1E33
:1029F0003C1E3B1E3A1E391E381E371E366C000E1A
:102A00003722382239223A223B223C223D22010140
:102A100095BF0DEF15F00FEF15F011EF15F0000158
:102A2000F893010195BF1FEF15F0955106E194054C
:102A3000D8B01DEF15F01FEF15F025EF15F0000EC3
:102A4000316E010E306E29EF15F094C130F095C152
:102A500031F092C132F093C133F034503510D8A424
:102A600034EF15F036EF15F03EEF15F00001F8A544
:102A70003CEF15F03EEF15F041EF15F03206D8A00F
:102A80003306000E3F6E1F0E3E6E000E0101BD6F3D
:102A9000C6EF15F03E06D8A03F069E0E3E24D96E26
:102AA000010E3F20DA6E36C001F037C002F038C0A8
:102AB00003F039C004F03AC005F03BC006F03CC05A
:102AC00007F03DC008F00A0E096E000E0A6E000EF7
:102AD0000B6E000E0C6E000E0D6E000E0E6E000ED4
:102AE0000F6E000E106EB3EC22F001C026F002C093
:102AF00027F003C028F004C029F005C02AF006C062
:102B00002BF007C02CF008C02DF026C013F028C011
:102B100014F090EC2AF01350300FDF6E3006D8A07E
:102B200031063206D8A0330636C001F037C002F0B5
:102B300038C003F039C004F03AC005F03BC006F0DD
:102B40003CC007F03DC008F00A0E096E000E0A6E88
:102B5000000E0B6E000E0C6E000E0D6E000E0E6E53
:102B6000000E0F6E000E106E6FEC20F001C036F0FC
:102B700002C037F003C038F004C039F005C03AF0A5
:102B800006C03BF007C03CF008C03DF03FBED1EFAF
:102B900015F03F5008E13E04D8A0D1EF15F0D3EF77
:102BA00015F004EF16F036503710381039103A107F
:102BB0003B103C103D10D8A4E0EF15F0E2EF15F00B
:102BC0004AEF15F031BEEFEF15F0315006E1300459
:102BD000D8B0EDEF15F0EFEF15F04AEF15F033BE7A
:102BE000FAEF15F0335008E13204D8A0FAEF15F0EF
:102BF000FCEF15F004EF16F00001F8B302EF16F049
:102C000004EF16F04AEF15F034503510D8A40BEF4E
:102C100016F00DEF16F015EF16F00001F8A513EF02
:102C200016F015EF16F033EF16F03E06D8A03F066B
:102C300034503510D8A41FEF16F021EF16F027EF0F
:102C400016F0000E2F6E2B0E2E6E2BEF16F0000ED0
:102C50002F6E2D0E2E6E9E0E3E24D96E010E3F203D
:102C6000DA6E2EC0DFFF1CC011F01DC012F09E0EE8
:102C70003E24136E010E3F20146E32C015F033C097
:102C800016F030EC26F011C01CF012C01DF012003E
:102C900058C020F059C021F05AC022F05BC023F088
:102CA000B40E246E33EC21F001019D0758C01AF0D8
:102CB00059C01BF05AC01CF05BC01DF0B3EC27F0EC
:102CC00001019D5153EC2BF0C90E53EC2BF0000E7B
:102CD0000001DF6F000EDE6F7DEF16F0520E5D6EAD
:102CE0002B0E5C6E000EE82EFED75C2EFCD75D2E00
:102CF000FAD700D00001DE4BDF2B01019D51020D00
:102D00003C0EF324D96E010EF420DA6EDE50000181
:102D1000DE5DDE50DF59D8A090EF16F092EF16F08E
:102D20006EEF16F058C01AF059C01BF05AC01CF0D4
:102D30005BC01DF055EC27F001019D51D8A4A3EF15
:102D400016F0A5EF16F0A7EF16F0A2EF17F09D070B
:102D50009D5153EC2BF0C90E53EC2BF001019D510A
:102D6000020D3C0EF324D96E010EF420DA6EDE045F
:102D7000DE10D8A4BEEF16F0C0EF16F0CEEF16F0BE
:102D800058C020F059C021F05AC022F05BC023F097
:102D90005A0E246EF3EC21F001019D079D51020DA6
:102DA0003C0EF324D96E010EF420DA6E020EDE180A
:102DB000DE10D8A4DEEF16F0E0EF16F0EEEF16F01E
:102DC00058C020F059C021F05AC022F05BC023F057
:102DD0005A0E246E33EC21F001019D079D51020D26
:102DE0003C0EF324D96E010EF420DA6E030EDE18C9
:102DF000DE10D8A4FEEF16F000EF17F00EEF17F07C
:102E000058C020F059C021F05AC022F05BC023F016
:102E1000B40E246EF3EC21F001019D079D51020DCB
:102E20003C0EF324D96E010EF420DA6E040EDE1887
:102E3000DE10D8A41EEF17F020EF17F038EF17F0D0
:102E400058C026F059C027F05AC028F05BC029F0BE
:102E50006FEC2AF058C020F059C021F05AC022F07F
:102E60005BC023F05A0E246EF3EC21F001019D07A4
:102E70009D51020D3C0EF324D96E010EF420DA6E42
:102E8000050EDE18DE10D8A448EF17F04AEF17F051
:102E900062EF17F058C026F059C027F05AC028F04A
:102EA0005BC029F06FEC2AF058C020F059C021F027
:102EB0005AC022F05BC023F05A0E246E33EC21F08E
:102EC00001019D079D51020D3C0EF324D96E010EA8
:102ED000F420DA6E060EDE18DE10D8A472EF17F0BA
:102EE00074EF17F082EF17F058C020F059C021F0AE
:102EF0005AC022F05BC023F0870E246EF3EC21F061
:102F000001019D079D51020D3C0EF324D96E010E67
:102F1000F420DA6E070EDE18DE10D8A492EF17F058
:102F200094EF17F056EF16F058C020F059C021F07A
:102F30005AC022F05BC023F0790E246E33EC21F0EE
:102F400054EF16F058C01AF059C01BF05AC01CF0CC
:102F50005BC01DF055EC27F0A2EF17F012005E6E7B
:102F60005E50D8B4B6EF17F0B8EF17F014EF19F0C1
:102F70005E04D8A4BEEF17F0C0EF17F0E4EF17F02F
:102F8000E0C026F0E1C027F0E2C028F0E3C029F05D
:102F90004EEC2AF0E0C020F0E1C021F0E2C022F0C7
:102FA000E3C023F05A0E246E33EC21F001019D5151
:102FB000020D3C0EF324D96E010EF420DA6E010EE0
:102FC000DE6E000EDD6E9D2B020E5E18D8A4EBEFB8
:102FD00017F0EDEF17F011EF18F0E0C026F0E1C0A8
:102FE00027F0E2C028F0E3C029F04EEC2AF0E0C060
:102FF00020F0E1C021F0E2C022F0E3C023F05A0E3D
:10300000246EF3EC21F001019D51020D3C0EF324DE
:10301000D96E010EF420DA6E020EDE6E000EDD6E49
:103020009D2B030E5E18D8A418EF18F01AEF18F0B5
:103030003EEF18F0E0C026F0E1C027F0E2C028F033
:10304000E3C029F04EEC2AF0E0C020F0E1C021F00E
:10305000E2C022F0E3C023F0B40E246EF3EC21F0C2
:1030600001019D51020D3C0EF324D96E010EF42096
:10307000DA6E030EDE6E000EDD6E9D2B040E5E1802
:10308000D8A445EF18F047EF18F06BEF18F0E0C048
:1030900026F0E1C027F0E2C028F0E3C029F06FEC91
:1030A0002AF0E0C020F0E1C021F0E2C022F0E3C04D
:1030B00023F05A0E246E33EC21F001019D51020DD4
:1030C0003C0EF324D96E010EF420DA6E040EDE6E8F
:1030D000000EDD6E9D2B050E5E18D8A472EF18F061
:1030E00074EF18F098EF18F0E0C026F0E1C027F078
:1030F000E2C028F0E3C029F06FEC2AF0E0C020F035
:10310000E1C021F0E2C022F0E3C023F05A0E246EA9
:10311000F3EC21F001019D51020D3C0EF324D96E18
:10312000010EF420DA6E050EDE6E000EDD6E9D2BB4
:10313000060E5E18D8A49FEF18F0A1EF18F0C5EFA7
:1031400018F0E0C026F0E1C027F0E2C028F0E3C0AC
:1031500029F04EEC2AF0E0C020F0E1C021F0E2C0FE
:1031600022F0E3C023F0870E246E33EC21F001013E
:103170009D51020D3C0EF324D96E010EF420DA6E3F
:10318000060EDE6E000EDD6E9D2B070E5E18D8A4B7
:10319000CCEF18F0CEEF18F0F2EF18F0E0C026F008
:1031A000E1C027F0E2C028F0E3C029F04EEC2AF09D
:1031B000E0C020F0E1C021F0E2C022F0E3C023F043
:1031C000870E246EF3EC21F001019D51020D3C0E9F
:1031D000F324D96E010EF420DA6E070EDE6E000EB7
:1031E000DD6E9D2B080E5E18D8A4F9EF18F0FBEFEA
:1031F00018F014EF19F0010E016E020E15EC19F023
:10320000E0C026F0E1C027F0E2C028F0E3C029F0DA
:103210004EEC2AF0E0C058F0E1C059F0E2C05AF09C
:10322000E3C05BF048EC16F01200056E000E046E71
:10323000000E046E61EF1AF00504D8A422EF19F015
:1032400024EF19F05CEF19F080A229EF19F02DEFAF
:1032500019F0026A022A2EEF19F0026A0246805023
:103260000218FD0B0218806E290E036E960E026E78
:103270007F0EE82EFED7022EFCD7032EFAD700F0E1
:1032800080A245EF19F049EF19F0026A022A4AEFCD
:1032900019F0026A024680500218FD0B0218806E77
:1032A000290E036E960E026E7F0EE82EFED7022EBA
:1032B000FCD7032EFAD700F0020E0518D8A463EF4E
:1032C00019F065EF19F09DEF19F07CA86AEF19F07D
:1032D0006EEF19F0026A022A6FEF19F0026A023AE1
:1032E0007C500218EF0B02187C6E290E036E960EAE
:1032F000026E7F0EE82EFED7022EFCD7032EFAD7E1
:1033000000F07CA886EF19F08AEF19F0026A022A11
:103310008BEF19F0026A023A7C500218EF0B021888
:103320007C6E290E036E960E026E7F0EE82EFED77F
:10333000022EFCD7032EFAD700F0030E0518D8A4EE
:10334000A4EF19F0A6EF19F0E2EF19F07CA6ABEFAD
:1033500019F0AFEF19F0026A022AB0EF19F0026A11
:103360000246024602467C500218F70B02187C6E99
:10337000290E036E960E026E7F0EE82EFED7022EE9
:10338000FCD7032EFAD700F07CA6C9EF19F0CDEFD9
:1033900019F0026A022ACEEF19F0026A02460246CA
:1033A00002467C500218F70B02187C6E290E036E41
:1033B000960E026E7F0EE82EFED7022EFCD7032E4D
:1033C000FAD700F0040E0518D8A4E9EF19F0EBEFD6
:1033D00019F021EF1AF07EA0F0EF19F0F4EF19F0D8
:1033E000026A022AF5EF19F0026A7E500218FE0BFB
:1033F00002187E6E290E036E960E026E7F0EE82E68
:10340000FED7022EFCD7032EFAD700F07EA00BEFDA
:103410001AF00FEF1AF0026A022A10EF1AF0026A8D
:103420007E500218FE0B02187E6E290E036E960E59
:10343000026E7F0EE82EFED7022EFCD7032EFAD79F
:1034400000F0030E0518D8A428EF1AF02AEF1AF09E
:1034500060EF1AF080A02FEF1AF033EF1AF0026A33
:10346000022A34EF1AF0026A80500218FE0B02188A
:10347000806E290E036E960E026E7F0EE82EFED72A
:10348000022EFCD7032EFAD700F080A04AEF1AF0E4
:103490004EEF1AF0026A022A4FEF1AF0026A8050C9
:1034A0000218FE0B0218806E290E036E960E026E35
:1034B0007F0EE82EFED7022EFCD7032EFAD700F09F
:1034C000042A0150045CD8A068EF1AF06AEF1AF0E1
:1034D0001CEF19F01200B6EC2BF0020E016E010E7B
:1034E00015EC19F0290E0F6E960E0E6E7F0EE82E5B
:1034F000FED70E2EFCD70F2EFAD700F0A6EC2BF03D
:1035000027EC29F00CC0D9FF0DC0DAFF05C0DEFFA3
:1035100006C0DDFF4FEC29F020EE02F00C50D9265A
:103520000D50DA2205C0DEFF06C0DDFF77EC29F082
:1035300020EE04F00C50D9260D50DA2205C0DEFF33
:1035400006C0DDFF090E0F6E1E0E0E6EE40EE82E95
:10355000FED70E2EFCD70F2EFAD700D0C6EC2BF0DC
:1035600027EC29F020EE06F00C50D9260D50DA2277
:1035700005C0DEFF06C0DDFF4FEC29F020EE08F0AD
:103580000C50D9260D50DA2205C0DEFF06C0DDFF43
:1035900077EC29F020EE0AF00C50D9260D50DA22F3
:1035A00005C0DEFF06C0DDFF090E0F6E1E0E0E6E9B
:1035B000E40EE82EFED70E2EFCD70F2EFAD700D041
:1035C000D6EC2BF027EC29F020EE0CF00C50D9268D
:1035D0000D50DA2205C0DEFF06C0DDFF4FEC29F0FA
:1035E00020EE0EF00C50D9260D50DA2205C0DEFF79
:1035F00006C0DDFF77EC29F020EE10F00C50D92644
:103600000D50DA2205C0DEFF06C0DDFF090E0F6E89
:103610001E0E0E6EE40EE82EFED70E2EFCD70F2ED9
:10362000FAD700D0E6EC2BF027EC29F020EE12F0D0
:103630000C50D9260D50DA2205C0DEFF06C0DDFF92
:103640004FEC29F020EE14F00C50D9260D50DA2260
:1036500005C0DEFF06C0DDFF77EC29F020EE16F096
:103660000C50D9260D50DA2205C0DEFF06C0DDFF62
:103670009FEC29F020EE18F00C50D9260D50DA22DC
:1036800005C0DEFF06C0DDFF290E0F6E960E0E6E22
:103690007F0EE82EFED70E2EFCD70F2EFAD700F0A5
:1036A000B6EC2BF0290E0F6E960E0E6E7F0EE82EE6
:1036B000FED70E2EFCD70F2EFAD700F0020E016EA9
:1036C000010E15EC19F0120020EE01F00F50D92672
:1036D0001050DA22DF50D8B470EF1BF072EF1BF0FD
:1036E000A3EF1BF00FC0D9FF10C0DAFFDF50116E3F
:1036F0001150016E026A20EE07F00F50D9261050CB
:10370000DA22DECF03F0DDCF04F093EC2BF001C022
:1037100007F002C008F0000E0A6E640E096E93EC0A
:1037200026F020EE07F00F50D9261050DA22DECF17
:1037300012F0DDCF13F00750125C186E08501358CA
:10374000196EC6EF1BF00FC0D9FF10C0DAFFDF50B3
:10375000116E1150016E026A20EE07F00F50D9264B
:103760001050DA22DECF03F0DDCF04F093EC2BF023
:1037700001C007F002C008F0000E0A6E640E096E68
:1037800093EC26F007C018F008C019F020EE02F004
:103790000F50D9261050DA22DECF11F0DDCF12F013
:1037A00011C0D9FF12C0DAFF18C0DFFF20EE01F010
:1037B0000F50D9261050DA22DF50D8B4E2EF1BF0B8
:1037C000E4EF1BF019EF1CF020EE04F00F50D926A7
:1037D0001050DA22DECF11F0DDCF12F011C0D9FF88
:1037E00012C0DAFF10EE04F00F50E1261050E22272
:1037F000E6CF13F0E5CF14F013C0E1FF14C0E2FFF1
:10380000E750156E10EE06F00F50E1261050E22240
:10381000E750166E010E176E162A11EF1CF0D890A5
:103820001736162E0FEF1CF017501510DF6E4DEFE8
:103830001CF020EE04F00F50D9261050DA22DECF13
:1038400011F0DDCF12F011C0D9FF12C0DAFF10EE77
:1038500004F00F50E1261050E222E6CF13F0E5CF3E
:1038600014F013C0E1FF14C0E2FFE750156E10EE34
:1038700006F00F50E1261050E222E750166E010EBE
:10388000176E162A46EF1CF0D8901736162E44EF06
:103890001CF01750FF0A1514DF6E1200000E000115
:1038A000DF6F000EDE6F000EE36F000EE26F000EA2
:1038B000E56F000EE46F000EDF6F000EDE6FE6ECCA
:1038C0002BF05AC00CF05BC00DF0A4EC28F05AC0ED
:1038D00058F05BC059F03BEC28F0090E5D6E1E0EEF
:1038E0005C6EE40EE82EFED75C2EFCD75D2EFAD778
:1038F00000D00001DE4BDF2BDFBF88EF1CF0DF5173
:1039000009E1050EDE5DD8A088EF1CF08AEF1CF0FF
:103910005FEF1CF0000E53EC2BF0000E0001E16F86
:10392000000EE06FA6EC2BF05AC00CF05BC00DF05F
:10393000A4EC28F05AC058F05BC059F03BEC28F0DA
:10394000090E5D6E1E0E5C6EE40EE82EFED75C2E38
:10395000FCD75D2EFAD700D00001E04BE12BE1BF90
:10396000BBEF1CF0E15109E1050EE05DD8A0BBEF13
:103970001CF0BDEF1CF092EF1CF0000E53EC2BF08E
:10398000000E0001E36F000EE26FC6EC2BF05AC090
:103990000CF05BC00DF0A4EC28F05AC058F05BC0EE
:1039A00059F03BEC28F0090E5D6E1E0E5C6EE40EC5
:1039B000E82EFED75C2EFCD75D2EFAD700D0000192
:1039C000E24BE32BE3BFEEEF1CF0E35109E1050E00
:1039D000E25DD8A0EEEF1CF0F0EF1CF0C5EF1CF09C
:1039E000000E53EC2BF0000E0001E56F000EE46FAB
:1039F000D6EC2BF05AC00CF05BC00DF0A4EC28F014
:103A00005AC058F05BC059F03BEC28F0090E5D6ECF
:103A10001E0E5C6EE40EE82EFED75C2EFCD75D2EEB
:103A2000FAD700D00001E44BE52BE5BF21EF1DF0F4
:103A3000E55109E1050EE45DD8A021EF1DF023EF6B
:103A40001DF0F8EF1CF0010E53EC2BF0E6EC2BF020
:103A50001200096E0950D8B430EF1DF032EF1DF09E
:103A600054EF1DF004BE39EF1DF037EF1DF054EF99
:103A70001DF001C005F002C006F003C007F004C04D
:103A800008F0051E061E071E081E052A000E062247
:103A90000722082205C00BF006C00CF007C00DF08D
:103AA00008C00EF05CEF1DF001C00BF002C00CF07E
:103AB00003C00DF004C00EF00150021003100410FA
:103AC000D8A465EF1DF067EF1DF071EF1DF0000E3B
:103AD000016E000E026E000E036E000E046E02EF09
:103AE0001EF0960E0A6E7BEF1DF00A2AD8900E3259
:103AF0000D320C320B32000E0B14056E000E0C143E
:103B0000066E000E0D14076EFE0E0E14086E0550A4
:103B1000061007100810D8A490EF1DF092EF1DF0CA
:103B200075EF1DF0A0EF1DF00A2A010E0B26000E06
:103B30000C220D220E22D8900E320D320C320B3296
:103B4000000E0B14056E000E0C14066E000E0D1404
:103B5000076EFF0E0E14086E0550061007100810B1
:103B6000D8A4B5EF1DF0B7EF1DF094EF1DF0BFEF37
:103B70001DF00A06D8900B360C360D360E360DBEEB
:103B8000C4EF1DF0C6EF1DF0CEEF1DF0020E0A606F
:103B9000CCEF1DF0CEEF1DF0B9EF1DF00AB0D3EF62
:103BA0001DF0D5EF1DF0D6EF1DF00D9ED8900A3216
:103BB0000AC005F0066A076A086A05C008F0076AC5
:103BC000066A056A05500B1206500C1207500D12BA
:103BD00008500E120950D8B4F0EF1DF0F2EF1DF0AE
:103BE000FAEF1DF004BEF9EF1DF0F7EF1DF0FAEF4C
:103BF0001DF00E8E0BC001F00CC002F00DC003F0E2
:103C00000EC004F0120042C0D9FF43C0DAFFDECF7D
:103C1000F6FFDDCFF7FF0800F550250AD8A413EF13
:103C20001EF015EF1EF0C1EF1EF042C0D9FF43C0D9
:103C3000DAFFDE2A000EDD22000E0101936F000E76
:103C4000926F92C1F8F093C1F9F09469956942C0FE
:103C5000D9FF43C0DAFFDECFF6FFDDCFF7FF080064
:103C6000F550640AD8B437EF1EF039EF1EF04BEF71
:103C70001EF042C0D9FF43C0DAFFDECFF6FFDDCF32
:103C8000F7FF0800F550690AD8A449EF1EF04BEF82
:103C90001EF08BEF1EF042C0D9FF43C0DAFFDE2AD0
:103CA000000EDD2244C0D9FF45C0DAFFDFCF46F069
:103CB000020EDE26DFCF47F0000EDD2246C0D9FF20
:103CC00047C0DAFFDECF48F0DDCF49F0000E49BE35
:103CD000FF0E4A6E4B6E4C6E4D6E4E6E4F6E40C078
:103CE0001CF041C01DF048C01EF049C01FF04AC082
:103CF00020F04BC021F04CC022F04DC023F04EC04C
:103D000024F04FC025F0D3EC14F01CC040F01DC0CF
:103D100041F0DCEF1EF042C0D9FF43C0DAFFDECF36
:103D2000F6FFDDCFF7FF0800F550250AD8A49BEF7A
:103D30001EF09DEF1EF0B4EF1EF042C0D9FF43C04D
:103D4000DAFFDE2A000EDD22000E026E250E016E65
:103D500040C003F041C004F068EC25F0000E416E55
:103D6000010E406EDCEF1EF042C0D9FF43C0DAFF07
:103D7000DE2A000EDD22000E416E000E406EDCEFEA
:103D80001EF042C0D9FF43C0DAFFDECFF6FFDDCF21
:103D9000F7FF0800F550016E026A40C003F041C011
:103DA00004F068EC25F042C0D9FF43C0DAFFDE2AF8
:103DB000000EDD22AEEF1EF012006AEC2BF021ECBB
:103DC0002BF0000E026EC70E016E2DEC2AF040ECB7
:103DD0002CF016EC2CF025EC2CF051EC2CF0F6EC41
:103DE0002BF0EB0E016E010E026EF50E036E010E4E
:103DF000046EFFEC24F0000E0101C86FD10E0C6EB2
:103E0000010E0D6E6BEC1AF0BE0E00016A6F010E12
:103E10006B6F65EC23F06AC0C6F16BC0C7F1D58E3D
:103E20009AC198F19BC199F131EF1FF0EB0E1A6E18
:103E3000010E1B6EF50E1C6E010E1D6EB3EC27F00D
:103E4000EB0E00016A6F010E6B6FF50E6C6F010EC9
:103E50006D6FC6C16EF0C7C16FF0CDEC25F00101EA
:103E6000C86F0101C851D8B438EF1FF03AEF1FF006
:103E700016EF1FF0D59E9AC196F19BC197F198510C
:103E8000965D0001F66F0101995197590001F76F96
:103E900001019D51020D3C0EF324D96E010EF42058
:103EA000DA6EF6C0DEFFF7C0DDFF9D2B9851965D00
:103EB00053EC2BF001019D5153EC2BF0C80E53EC49
:103EC0002BF0EB0E1A6E010E1B6EF50E1C6E010E22
:103ED0001D6E55EC27F0520E0001F76F2B0EF66F9A
:103EE000000EE82EFED7F62FFCD7F72FFAD700F0FA
:103EF000C90E0001716F010E726FD10E736F010E4A
:103F0000746F0AEC07F001019C6FC90E0001906FFD
:103F1000010E916FD10E926F010E936F01019C51B2
:103F2000FDEC27F001019C6FEB0E0001E06F010E2C
:103F3000E16FF50EE26F010EE36F01019C51AFECF2
:103F400017F0000E01019C6F000EC86F0FEF1FF0FD
:103F500014EF00F00001F56F000E0001F26F000E8B
:103F6000F46F000EF16F000EF06F020EF519D8A479
:103F7000BCEF1FF0BEEF1FF0C4EF1FF0E8C00CF065
:103F8000E9C00DF06BEC1AF0040E0001F519D8A48D
:103F9000CCEF1FF0CEEF1FF0D8EF1FF0E6C06AF0B5
:103FA000E7C06BF065EC23F06AC0F0F06BC0F1F095
:103FB0000001F505D8A4DFEF1FF0E1EF1FF0EFEFF0
:103FC0001FF0E6EC2BF0E6C00CF0E7C00DF0A4EC1F
:103FD00028F0E6C058F0E7C059F03BEC28F0020E9C
:103FE0000001F519D8A4F7EF1FF0F9EF1FF008EF63
:103FF00020F0E6C071F0E7C072F0E8C073F0E9C0ED
:1040000074F00AEC07F00001F36FF35153EC2BF05E
:10401000030E0001F519D8A410EF20F012EF20F0E4
:1040200025EF20F01DEF20F0E6C05AF0E7C05BF06E
:104030004EEC1CF0010E0001F26FF251D8B423EFE8
:1040400020F025EF20F014EF20F0040EF519D8A48D
:104050002CEF20F02EEF20F0D8EF1FF04AEF20F0E9
:10406000EAC01AF0EBC01BF0ECC01CF0EDC01DF074
:10407000B3EC27F0EAC06AF0EBC06BF0ECC06CF078
:10408000EDC06DF0F0C06EF0F1C06FF0CDEC25F03A
:104090000001F46FF451D8B450EF20F052EF20F04B
:1040A00030EF20F0EAC01AF0EBC01BF0ECC01CF0BF
:1040B000EDC01DF055EC27F0520E0001EF6F2B0EF6
:1040C000EE6F000EE82EFED7EE2FFCD7EF2FFAD7BB
:1040D00000F0000E0001F46FD8EF1FF01200000E88
:1040E000126E10BE78EF20F076EF20F08AEF20F00D
:1040F000101E0F1E0E1E0D1E0C1E0B1E0A1E096C1E
:10410000000E0A220B220C220D220E220F22102258
:10411000010E126E08BE91EF20F08FEF20F0A3EF9A
:1041200020F0081E071E061E051E041E031E021E8A
:10413000016C000E0222032204220522062207221D
:104140000822010E121A20EE13F0070EDE6AE806AE
:10415000FDE209500A100B100C100D100E100F107C
:104160001010D8B4B6EF20F0B8EF20F00AEF21F02D
:10417000010E116EC6EF20F0D89009360A360B36C4
:104180000C360D360E360F361036112A10AECBEF28
:1041900020F0CDEF20F0BCEF20F0D890133614368D
:1041A000153616361736183619361A360950015C88
:1041B0000A5002580B5003580C5004580D50055823
:1041C0000E5006580F50075810500858D8A0EBEF63
:1041D00020F0EDEF20F0FEEF20F00950015E0A50D4
:1041E000025A0B50035A0C50045A0D50055A0E50E7
:1041F000065A0F50075A1050085A1380D8901032A0
:104200000F320E320D320C320B320A320932112EBD
:10421000CDEF20F01250D8B410EF21F012EF21F0C2
:1042200022EF21F01A1E191E181E171E161E151E2B
:10423000141E136C000E14221522162217221822A7
:1042400019221A2213C001F014C002F015C003F0A5
:1042500016C004F017C005F018C006F019C007F02A
:104260001AC008F0120020EE01F02050D92621508B
:10427000DA22010EDF6E20EE01F02250D926235003
:10428000DA22010EDF6E64EF21F020C0D9FF21C0D9
:10429000DAFF050EDF2622C0D9FF23C0DAFF000EA9
:1042A000DF6E20C00FF021C010F064EC1BF022C0C4
:1042B0000FF023C010F064EC1BF0D00E256ECA0E78
:1042C000E82EFED7252EFCD720C0D9FF21C0DAFF6B
:1042D000180EDF646EEF21F070EF21F045EF21F052
:1042E00024500001FE03F3CF30F0F4CF31F00A0E7A
:1042F0003024266E000E3120276E140E3024286ED6
:10430000000E3120296EB40E2418D8A48AEF21F0B3
:104310008CEF21F0A7EF21F0000E2B6E000E2A6E1D
:104320009CEF21F0150E256EC60EE82EFED7252E29
:10433000FCD700D02A4A2B2A28502A5C29502B5817
:10434000D8A0A5EF21F0A7EF21F092EF21F0870E82
:104350002418D8A4AEEF21F0B0EF21F0CDEF21F07A
:10436000000E2D6E000E2C6EC0EF21F0150E256E86
:10437000C60EE82EFED7252EFCD700D02C4A2D2ABB
:1043800026502C5C27502D58D8A0C9EF21F0CBEF38
:1043900021F0B6EF21F0E8EF21F0000E2F6E000EB5
:1043A0002E6EDDEF21F0150E256EC60EE82EFED71F
:1043B000252EFCD700D02E4A2F2A30502E5C3150AB
:1043C0002F58D8A0E6EF21F0E8EF21F0D3EF21F04D
:1043D00020C01AF021C01BF022C01CF023C01DF029
:1043E00055EC27F0120020EE01F02050D926215084
:1043F000DA22010EDF6E20EE01F02250D926235082
:10440000DA22010EDF6E24EF22F022C0D9FF23C092
:10441000DAFF050EDF2620C0D9FF21C0DAFF000E2B
:10442000DF6E20C00FF021C010F064EC1BF022C042
:104430000FF023C010F064EC1BF0D00E256ECA0EF6
:10444000E82EFED7252EFCD722C0D9FF23C0DAFFE5
:10445000180EDF642EEF22F030EF22F005EF22F08D
:1044600024500001FE03F3CF30F0F4CF31F00A0EF8
:104470003024266E000E3120276E140E3024286E54
:10448000000E3120296EB40E2418D8A44AEF22F071
:104490004CEF22F067EF22F0000E2B6E000E2A6E1A
:1044A0005CEF22F0150E256EC60EE82EFED7252EE7
:1044B000FCD700D02A4A2B2A28502A5C29502B5896
:1044C000D8A065EF22F067EF22F052EF22F0870EBE
:1044D0002418D8A46EEF22F070EF22F08DEF22F0B6
:1044E000000E2D6E000E2C6E80EF22F0150E256E44
:1044F000C60EE82EFED7252EFCD700D02C4A2D2A3A
:1045000026502C5C27502D58D8A089EF22F08BEF35
:1045100022F076EF22F0A8EF22F0000E2F6E000EB0
:104520002E6E9DEF22F0150E256EC60EE82EFED7DC
:10453000252EFCD700D02E4A2F2A30502E5C315029
:104540002F58D8A0A6EF22F0A8EF22F093EF22F088
:1045500020C01AF021C01BF022C01CF023C01DF0A7
:1045600055EC27F01200000E126E08BEBCEF22F0D0
:10457000BAEF22F0CEEF22F0081E071E061E051E1F
:10458000041E031E021E016C000E022203220422DE
:104590000522062207220822010E126E10BED5EF58
:1045A00022F0D3EF22F0E5EF22F0101E0F1E0E1EB8
:1045B0000D1E0C1E0B1E0A1E096C000E0A220B2279
:1045C0000C220D220E220F22102209500A100B106D
:1045D0000C100D100E100F101010D8B4F2EF22F0C6
:1045E000F4EF22F03CEF23F0010E116E02EF23F006
:1045F000D89009360A360B360C360D360E360F3685
:104600001036112A10AE07EF23F009EF23F0F8EF70
:1046100022F00950015C0A5002580B5003580C500C
:1046200004580D5005580E5006580F50075810509A
:104630000858D8A01EEF23F020EF23F030EF23F02E
:104640000950015E0A50025A0B50035A0C50045A8A
:104650000D50055A0E50065A0F50075A1050085A5E
:10466000D89010320F320E320D320C320B320A3229
:104670000932112E09EF23F01250D8B442EF23F083
:1046800044EF23F054EF23F0081E071E061E051EFC
:10469000041E031E021E016C000E022203220422CD
:1046A000052206220722082201C001F002C002F002
:1046B00003C003F004C004F005C005F006C006F016
:1046C00007C007F008C008F01200000E0001756F67
:1046D000000E746F000E776F000E766F000E6F6F16
:1046E000000E6E6F020E016E020E15EC19F0E6EC74
:1046F0002BF0290E00016D6F960E6C6F7F0EE82E69
:10470000FED76C2FFCD76D2FFAD79FEC29F005C090
:1047100072F006C073F0110E00016D6F3C0E6C6FED
:10472000CB0EE82EFED76C2FFCD76D2FFAD79FEC5F
:1047300029F005C074F006C075F0110E00016D6F10
:104740003C0E6C6FCB0EE82EFED76C2FFCD76D2F76
:10475000FAD79FEC29F005C076F006C077F0110E6D
:1047600000016D6F3C0E6C6FCB0EE82EFED76C2FE8
:10477000FCD76D2FFAD70001745172256C6F7551FB
:1047800073216D6F76516C2777516D236CC001F0EA
:104790006DC002F0036A046A000E29EC1DF001C02E
:1047A0000FF002C010F003C011F004C012F0000EB0
:1047B000136E000E146E400E156E400E166E06EC53
:1047C00013F00FC066F010C067F011C068F012C09F
:1047D00069F0CDEC2AF066C070F067C071F0020E8F
:1047E000016E020E15EC19F070C06AF071C06BF02A
:1047F00012005D345E340001656F6551D8A403EF8B
:1048000024F005EF24F00FEF24F0000E5B6E000E95
:104810005C6E000E5D6E000E5E6E7CEF24F05BC081
:1048200060F05CC061F05DC062F05EC063F0200EBD
:104830001FEF24F0D8906333623361336033E82E86
:104840001AEF24F06051646F5D8EFF0E5B16FF0E51
:104850005C16FF0E5D16000E5E16960E655F65BF58
:1048600036EF24F034EF24F04CEF24F06551800A49
:10487000970FD8B03EEF24F040EF24F042EF24F041
:1048800005EF24F0D8905E325D325C325B32653FDA
:1048900042EF24F064EF24F01F0E656552EF24F020
:1048A00054EF24F05CEF24F005EF24F0D8905B3651
:1048B0005C365D365E3665076551D8A462EF24F03C
:1048C00064EF24F056EF24F06451D8B46AEF24F07A
:1048D0006CEF24F074EF24F05E1E5D1E5C1E5B6CBA
:1048E000000E5C225D225E225BC05BF05CC05CF06F
:1048F0005DC05DF05EC05EF01200000E0114096E36
:10490000000E02140A6E800E03140B6E7F0E041448
:104910000C6E09500A100B100C10D8A492EF24F062
:1049200094EF24F09CEF24F0000E016E000E026E56
:10493000000E036E000E046E000E0514096E000ECC
:1049400006140A6E800E07140B6E7F0E08140C6E90
:1049500009500A100B100C10D8A4B1EF24F0B3EFDB
:1049600024F0BBEF24F0000E056E000E066E000E64
:10497000076E000E086E04AEC0EF24F0C2EF24F004
:10498000CBEF24F0016C021ED8B0022A031ED8B06F
:10499000032A800E045608AED0EF24F0D2EF24F0A4
:1049A000DBEF24F0056C061ED8B0062A071ED8B02F
:1049B000072A800E0856000E011A000E021A000E79
:1049C000031A800E041A000E051A000E061A000EB5
:1049D000071A800E081A0550015C0650025807504D
:1049E000035808500458D8B0F8EF24F0FAEF24F038
:1049F000FDEF24F0D890FEEF24F0D880120001C023
:104A0000D9FF02C0DAFF000EDF6E20EE01F0015088
:104A1000D9260250DA22010EDF6E20EE02F001509C
:104A2000D9260250DA22A30EDE6E0F0EDD6E20EEC6
:104A300004F00150D9260250DA227D0EDE6E0F0EF0
:104A4000DD6E20EE06F00150D9260250DA22040E67
:104A5000DF6E20EE07F00150D9260250DA22C70E91
:104A6000DE6E000EDD6E03C0D9FF04C0DAFF000E5B
:104A7000DF6E20EE01F00350D9260450DA22010E39
:104A8000DF6E20EE02F00350D9260450DA22A00E89
:104A9000DE6E0F0EDD6E20EE04F00350D9260450BA
:104AA000DA227F0EDE6E0F0EDD6E20EE06F0035072
:104AB000D9260450DA22060EDF6E20EE07F00350EE
:104AC000D9260450DA22C70EDE6E000EDD6E12000B
:104AD00003500410D8B46FEF25F071EF25F07AEF92
:104AE00025F003500410D8A478EF25F07AEF25F0D4
:104AF0007FEF25F0015067EC2CF0CCEF25F020EE95
:104B000009F00350D9260450DA22DE50DE10D8B462
:104B10008CEF25F08EEF25F0A9EF25F020EE09F0BF
:104B20000350D9260450DA2210EE03F00350E12698
:104B30000450E222DE50E65CE650800A096EDE5048
:104B4000800A0958D8B0A7EF25F0A9EF25F0CCEFDF
:104B500025F020EE03F00350D9260450DA22DECFF0
:104B600005F0DDCF06F003C0D9FF04C0DAFFDECFC9
:104B700007F0DDCF08F005500724D96E0650082055
:104B8000DA6E01C0DFFF20EE03F00350D926045097
:104B9000DA22DE2A000EDD221200000E0001736F01
:104BA000000E726F000E7C6F000E7B6F000E7A6F2E
:104BB000E6EC2BF0090E0001716F1E0E706FE40E13
:104BC000E82EFED7702FFCD7712FFAD700F09FEC9C
:104BD00029F005C078F006C079F04FEC29F06EC0DE
:104BE00001F06FC002F0036A046A000E29EC1DF0A8
:104BF00001C028F002C029F003C02AF004C02BF045
:104C0000660E2C6E660E2D6E860E2E6E3F0E2F6E6D
:104C10001AEC0FF028C074F029C075F02AC076F0A5
:104C20002BC077F074C066F075C067F076C068F08E
:104C300077C069F0CDEC2AF066C07AF067C07BF0EF
:104C400000017A51785D7B517959D8A02AEF26F07E
:104C50002CEF26F02EEF26F0010E7C6F7C51120017
:104C60000001F8A136EF26F038EF26F042EF26F0EB
:104C700013C00AF014C00BF011C00CF012C00DF0FC
:104C8000EAEC29F016BE47EF26F049EF26F04FEF89
:104C900026F015C01AF016C01BF053EF26F0000ED8
:104CA0001B6E000E1A6E000E196E000E186E65EF68
:104CB00026F0000E026E200E016E11C003F012C02D
:104CC00004F068EC25F0184A192A1A50185C19509B
:104CD000800A176E1B50800A1758D8A072EF26F072
:104CE00074EF26F059EF26F00001F8B17AEF26F0C4
:104CF0007CEF26F086EF26F013C00AF014C00BF00C
:104D000011C00CF012C00DF0EAEC29F013C001F054
:104D100014C002F006EC2BF01A500124116E1B5047
:104D20000220126E1200000E0C6E0ABE9CEF26F0DE
:104D30009AEF26F0A2EF26F0096C0A1ED8B00A2AD4
:104D4000010E0C6E08BEA9EF26F0A7EF26F0AFEF1C
:104D500026F0076C081ED8B0082A010E0C1A000EA7
:104D60000E6E000E0D6E09500A10D8B4BAEF26F080
:104D7000BCEF26F0E4EF26F0010E0B6EC4EF26F038
:104D8000D89009360A360B2A0AAEC9EF26F0CBEFC7
:104D900026F0C0EF26F0D8900D360E360950075C8D
:104DA0000A500858D8A0D7EF26F0D9EF26F0DEEF4A
:104DB00026F00950075E0A50085A0D80D8900A3232
:104DC00009320B2ECBEF26F00C50D8B4EAEF26F0C8
:104DD000ECEF26F0F0EF26F00D6C0E1ED8B00E2A88
:104DE0000DC007F00EC008F0120020EE01F02050B8
:104DF000D9262150DA22000EDF6E20EE01F022507B
:104E0000D9262350DA22000EDF6E26EF27F020C0CD
:104E1000D9FF21C0DAFF0A0EDF2622C0D9FF23C046
:104E2000DAFF0A0EDF2620C00FF021C010F064EC7C
:104E30001BF022C00FF023C010F064EC1BF0D00E6A
:104E4000246ECA0EE82EFED7242EFCD720C0D9FF30
:104E500021C0DAFF320EDF6030EF27F032EF27F0AB
:104E60003EEF27F022C0D9FF23C0DAFF310EDF6406
:104E70003CEF27F03EEF27F007EF27F0290E256ED5
:104E8000960E246E7F0EE82EFED7242EFCD7252EFC
:104E9000FAD700F020C01AF021C01BF022C01CF08D
:104EA00023C01DF055EC27F012008EEF27F01AC03A
:104EB000D9FF1BC0DAFFDF50D8B461EF27F063EFF2
:104EC00027F069EF27F01AC0D9FF1BC0DAFF050EE3
:104ED000DF5E1CC0D9FF1DC0DAFFDF50D8B473EF0E
:104EE00027F075EF27F07BEF27F01CC0D9FF1DC01E
:104EF000DAFF050EDF5E1AC00FF01BC010F064EC85
:104F00001BF01CC00FF01DC010F064EC1BF0D00EA5
:104F10001E6ECA0EE82EFED71E2EFCD71AC0D9FF71
:104F20001BC0DAFFDF50D8A498EF27F09AEF27F0E4
:104F300057EF27F01CC0D9FF1DC0DAFFDF50D8A4FF
:104F4000A4EF27F0A6EF27F057EF27F0090E1F6E0A
:104F50001E0E1E6EE40EE82EFED71E2EFCD71F2E50
:104F6000FAD700D0120020EE01F01A50D9261B50BB
:104F7000DA22010EDF6E20EE01F01C50D9261D5002
:104F8000DA22010EDF6EE4EF27F01AC0D9FF1BC052
:104F9000DAFF0A0EDF261CC0D9FF1DC0DAFF0A0E99
:104FA000DF261AC00FF01BC010F064EC1BF01CC011
:104FB0000FF01DC010F064EC1BF0D00E1E6ECA0E78
:104FC000E82EFED71E2EFCD71AC0D9FF1BC0DAFF71
:104FD000140EDF60EEEF27F0F0EF27F0FCEF27F084
:104FE0001CC0D9FF1DC0DAFF130EDF64FAEF27F0F3
:104FF000FCEF27F0C5EF27F012000001986F050EB7
:105000000001956F0F0E946FF10EE82EFED7942FCE
:10501000FCD7952FFAD790C071F091C072F092C072
:1050200073F093C074F00AEC07F00001946F945190
:10503000966F976B050E0001956F0F0E946FF10E32
:10504000E82EFED7942FFCD7952FFAD70001985160
:10505000946F956B9651941907E197519519D8A4BF
:1050600034EF28F036EF28F039EF28F098513AEF76
:1050700028F0000E1200790E0001606F000E616FC3
:10508000050E626F0E0E636F58C0D9FF59C0DAFF6C
:10509000DECF64F0DDCF65F020EE02F05850D92667
:1050A0005950DA22DECF66F0DDCF67F020EE04F053
:1050B0005850D9265950DA22DECF68F0DDCF69F09A
:1050C00020EE06F05850D9265950DA22DECF6AF089
:1050D000DDCF6BF0FEEC28F0790E026E000E036E51
:1050E0003BEC2BF0120052C056F053C057F0000EAC
:1050F0000101916F000E906F91EF28F050C040F0C9
:1051000051C041F0560E426E000E436E54C044F042
:1051100055C045F003EC1EF040500101902741506E
:10512000912356C0F6FF57C0F7FF0800F55000095D
:10513000D8A49DEF28F09FEF28F07EEF28F090C1D3
:1051400050F091C151F0120027EC29F00CC0D9FFAA
:105150000DC0DAFF05C0DEFF06C0DDFF77EC29F0E9
:1051600020EE04F00C50D9260D50DA2205C0DEFFE7
:1051700006C0DDFF4FEC29F020EE02F00C50D926DE
:105180000D50DA2205C0DEFF06C0DDFF9FEC29F0DE
:1051900020EE06F00C50D9260D50DA2205C0DEFFB5
:1051A00006C0DDFF1200D00EF66E580EF76E000E30
:1051B000F86E0900F5CFFFF1CC0EF66E580EF76EC3
:1051C000000EF86E0900F5CFFEF00900F5CFFFF0F4
:1051D00001EE00F0BE0EEE6AE806FDE10001FD6B97
:1051E000FC6BFB6BFA6BF96BF86B5F905F92000ED8
:1051F000F86E0E0EF76E0001DDEF1EF0640E00017A
:105200006C6F000E6D6F60C06EF061C06FF0000ECD
:10521000726F000E716F000E786F000E776F6E0E5A
:10522000506E000E516E62C052F063C053F06C0EAF
:10523000546E000E556E73EC28F00001715160251C
:10524000D96E72516121DA6E000EDF6E120061ECD0
:105250002CF0520E4BEC2CF0B60E4BEC2CF057EC25
:105260002CF0530E4BEC2CF0010E0CEC2AF0076ED8
:1052700007500A6E0B6A000E0CEC2AF0076E0750FE
:10528000096E086A0A5008100A6E0B5009100B6E5E
:105290005CEC2CF00AC005F00BC006F0120061ECCB
:1052A0002CF0520E4BEC2CF0B80E4BEC2CF057ECD3
:1052B0002CF0530E4BEC2CF0010E0CEC2AF0076E88
:1052C00007500A6E0B6A000E0CEC2AF0076E0750AE
:1052D000096E086A0A5008100A6E0B5009100B6E0E
:1052E0005CEC2CF00AC005F00BC006F0120061EC7B
:1052F0002CF0520E4BEC2CF0BA0E4BEC2CF057EC81
:105300002CF0530E4BEC2CF0010E0CEC2AF0076E37
:1053100007500A6E0B6A000E0CEC2AF0076E07505D
:10532000096E086A0A5008100A6E0B5009100B6EBD
:105330005CEC2CF00AC005F00BC006F0120061EC2A
:105340002CF0520E4BEC2CF0B40E4BEC2CF057EC36
:105350002CF0530E4BEC2CF0010E0CEC2AF0076EE7
:1053600007500A6E0B6A000E0CEC2AF0076E07500D
:10537000096E086A0A5008100A6E0B5009100B6E6D
:105380005CEC2CF00AC005F00BC006F01200000E19
:10539000151A000E161A000E171A800E181A11C0D0
:1053A00001F012C002F013C003F014C004F015C0E5
:1053B00005F016C006F017C007F018C008F0BAECE8
:1053C0000CF001C011F002C012F003C013F004C0D1
:1053D00014F01200000E106E000E0F6EFBEF29F09D
:1053E0000EC001F0026A0CC003F00DC004F068ECBE
:1053F00025F00F4A102A0F500A24D96E10500B20A6
:10540000DA6EDF500E6E0E50D8A409EF2AF00BEFC3
:105410002AF0F0EF29F01200036E7FEC2BF00E0162
:10542000DA877FEC2BF0D5CE04F07FEC2BF0035025
:10543000D8B41DEF2AF021EF2AF0026A022A22EFE7
:105440002AF0026A023A02460E01DA510218DF0B14
:105450000218DA6FDA89045012008594839E879CC3
:1054600085987D947B9E7F9C7D98BD508F0B3009E5
:10547000BD6EE00EBE16BF50F00B0109BF6EC70E29
:10548000BC6EBD8E0A0E0E01746F0B0E696F000E9E
:10549000A36E000EA06EA48EA18E120026C020F076
:1054A00027C021F028C022F029C023F0F5EC26F017
:1054B000290E2B6E960E2A6E7F0EE82EFED72A2E10
:1054C000FCD72B2EFAD700F026C01AF027C01BF00D
:1054D00028C01CF029C01DF055EC27F0120026C092
:1054E00020F027C021F028C022F029C023F0F5ECDD
:1054F00026F0520E2B6E2B0E2A6E000EE82EFED7D3
:105500002A2EFCD72B2EFAD700D026C01AF027C09F
:105510001BF028C01CF029C01DF055EC27F012002C
:1055200014BE9DEF2AF0145006E11304D8B09BEF8F
:105530002AF09DEF2AF0ABEF2AF013C015F014C04B
:1055400016F0151E161E154A162A15C013F016C0A1
:1055500014F0AFEF2AF013C013F014C014F01200CF
:10556000000E0001706F6C516A5D6D516B59D8B0BF
:10557000BCEF2AF0BEEF2AF0CBEF2AF06C516E5D43
:105580006D516F59D8A0C7EF2AF0C9EF2AF0CBEFC1
:105590002AF0010E706F7051120066C041F067C0B2
:1055A00042F068C043F069C044F02FEC11F041C0F4
:1055B0005BF042C05CF043C05DF044C05EF0F9ECCB
:1055C00023F05BC066F05CC067F05DC068F05EC051
:1055D00069F012000150021003100410D8B4F3EF68
:1055E0002AF0F5EF2AF0FDEF2AF0000E011A000E66
:1055F000021A000E031A800E041A01C001F002C044
:1056000002F003C003F004C004F0120001C003F074
:1056100002C004F00EEF2BF0014A022A01C0D9FFAC
:1056200002C0DAFFDF50D8A418EF2BF01AEF2BF0EE
:105630000CEF2BF00350015C016E04500258026E17
:1056400012006AEC2BF0010E036E000E06EC2CF03B
:105650003F0E056E550EE82EFED7052EFCD700F046
:10566000030E036E000E06EC2CF0D50E036E010E39
:1056700006EC2CF0120046EF2BF002C0D9FF03C05D
:10568000DAFFDF5034EC2CF0024A032A02C0D9FFC3
:1056900003C0DAFFDF50D8A450EF2BF052EF2BF00D
:1056A0003DEF2BF012000001DD6F790E0001606FFD
:1056B000000E616F0D0E626F0E0E636FDDC064F041
:1056C000656BFEEC28F0790E026E000E036E3BEC6B
:1056D0002BF012000E01D951F00B0809D96FD98BAC
:1056E0009F0ED66F848A848CA79BA79D1D0E1D6F6D
:1056F0001E0E1C6F1C0E6F6F1B0E706F12000E01C2
:10570000D8B585EF2BF087EF2BF07FEF2BF0DACEBB
:1057100001F01F0E0116D8A490EF2BF092EF2BF0A2
:105720007FEF2BF0120001500302F3CF05F0F4CF0E
:1057300006F001500402F350062602500302F35013
:10574000062605C001F006C002F012007F827E9E90
:105750007998110E026E3C0E016ECB0EE82EFED72C
:10576000012EFCD7022EFAD700F012007F927E9E07
:105770007998110E026E3C0E016ECB0EE82EFED70C
:10578000012EFCD7022EFAD700F012007F927E9EE7
:105790007988110E026E3C0E016ECB0EE82EFED7FC
:1057A000012EFCD7022EFAD700F012007F927E8ED7
:1057B0007998110E026E3C0E016ECB0EE82EFED7CC
:1057C000012EFCD7022EFAD700F012007F827E8EC7
:1057D0007988050E026E0F0E016EF10EE82EFED7CF
:1057E000012EFCD7022EFAD700F0120086840E019B
:1057F000B4958686B4978792869E81987F827E8EA6
:105800007988849E7C9E889680961200046E61EC56
:105810002CF0520E4BEC2CF0045080094BEC2CF089
:1058200003504BEC2CF05CEC2CF01200120E0E012D
:10583000626F110E156FE997E895330EE56F000E54
:10584000E66FE789E88BE78F1200D6501F0B4009FF
:10585000D66ED688D650F00B0809D66ED5880B0EBA
:10586000D46EDB0ED36E1200016E0E0137A53BEF36
:105870002CF03DEF2CF035EF2CF001C0E4FE1200CF
:105880008892849884968690889080927C987C9662
:105890007E9080901200026E7FEC2BF002C0D5FE4D
:1058A0001200F28EF28AF28C0E01298B12007FEC2C
:1058B0002BF00E01DA8312007FEC2BF00E01DA855B
:1058C00012007FEC2BF00E01DA8112000A0A12009E
:0158D00014C3
:020000040020DA
:10000000FF0FFF0FFF0FFF0FFF0FFF0FFF0FFF0F80
:020000040030CA
:0C000000AAFFFFFF9FFFFFFFFFFFFFFFB5
:00000001FF
