:04000000C9EF0EF046
:100E0000000925640925640925640925640D0A0083
:010E100000E1
:100E12001EC036F01FC037F020C038F021C039F0B4
:100E220022C03AF023C03BF024C03CF025C03DF084
:100E32003DBE1EEF07F021EF07F0010E22EF07F093
:100E4200000E346E356A34503510D8B42BEF07F0EB
:100E52002DEF07F03DEF07F03D1E3C1E3B1E3A1EF4
:100E6200391E381E371E366C000E372238223922C0
:100E72003A223B223C223D220001F7BF43EF07F01A
:100E820045EF07F046EF07F0F893F7BF53EF07F08F
:100E9200F75106E1F605D8B051EF07F053EF07F02E
:100EA20059EF07F0000E316E010E306E5DEF07F064
:100EB200F6C030F0F7C031F0F4C032F0F5C033F0D4
:100EC20034503510D8A468EF07F06AEF07F071EFDD
:100ED20007F0F8A56FEF07F071EF07F074EF07F076
:100EE2003206D8A03306000E3F6E1F0E3E6E000E75
:100EF20001015B6FF9EF07F03E06D8A03F063C0EFA
:100F02003E24D96E010E3F20DA6E36C001F037C0A2
:100F120002F038C003F039C004F03AC005F03BC01B
:100F220006F03CC007F03DC008F00A0E096E000E44
:100F32000A6E000E0B6E000E0C6E000E0D6E000E91
:100F42000E6E000E0F6E000E106E21EC0BF001C043
:100F520026F002C027F003C028F004C029F005C023
:100F62002AF006C02BF007C02CF008C02DF026C0D6
:100F720013F028C014F0E9EC0EF01350300FDF6EBE
:100F82003006D8A031063206D8A0330636C001F0AA
:100F920037C002F038C003F039C004F03AC005F09F
:100FA2003BC006F03CC007F03DC008F00A0E096ED7
:100FB200000E0A6E000E0B6E000E0C6E000E0D6E11
:100FC200000E0E6E000E0F6E000E106E5DEC0AF03B
:100FD20001C036F002C037F003C038F004C039F067
:100FE20005C03AF006C03BF007C03CF008C03DF037
:100FF2003FBE04EF08F03F5008E13E04D8A004EFE2
:1010020008F006EF08F037EF08F0365037103810C6
:1010120039103A103B103C103D10D8A413EF08F0E1
:1010220015EF08F07DEF07F031BE22EF08F03150E6
:1010320006E13004D8B020EF08F022EF08F07DEF8F
:1010420007F033BE2DEF08F0335008E13204D8A088
:101052002DEF08F02FEF08F037EF08F00001F8B39A
:1010620035EF08F037EF08F07DEF07F03450351018
:10107200D8A43EEF08F040EF08F048EF08F0000176
:10108200F8A546EF08F048EF08F066EF08F03E06D4
:10109200D8A03F0634503510D8A452EF08F054EFD0
:1010A20008F05AEF08F0000E2F6E2B0E2E6E5EEF38
:1010B20008F0000E2F6E2D0E2E6E3C0E3E24D96EC1
:1010C200010E3F20DA6E2EC0DFFF1CC011F01DC0E2
:1010D20012F03C0E3E24136E010E3F20146E32C0FD
:1010E20015F033C016F0A1EC0CF011C01CF012C0C8
:1010F2001DF01200C5EC0FF024EC0FF0000E026E92
:10110200C70E016E87EC0EF0FEEC0FF0650E016E5D
:10111200010E026E6F0E036E010E046ED3EC0BF025
:10112200869C7E9C8792869E81987F827E8E79881D
:10113200000E01015C6FF40E5B6E820E5A6E050E9C
:10114200E82EFED75A2EFCD75B2EFAD700F076EFA8
:1011520009F0000E5E6F000E5D6F790E0E6E010ECD
:101162000F6E99EC0FF0790E586E010E596E04EC69
:101172000DF0090E5B6E1E0E5A6EE40EE82EFED7BF
:101182005A2EFCD75B2EFAD700D001015D4B5E2BA5
:101192005EBFD5EF08F05E5109E1320E5D5DD8A069
:1011A200D5EF08F0D7EF08F0AEEF08F0000E56ECDE
:1011B2000FF0000E0101606F000E5F6F790E0E6E70
:1011C200010E0F6E6DEC0FF0790E586E010E596E16
:1011D20004EC0DF0090E5B6E1E0E5A6EE40EE82E44
:1011E200FED75A2EFCD75B2EFAD700D001015F4BF7
:1011F200602B60BF06EF09F0605109E1320E5F5DBE
:10120200D8A006EF09F008EF09F0DFEF08F0000EB2
:1012120056EC0FF0000E0101626F000E616F790E45
:101222000E6E010E0F6E83EC0FF0790E586E010EEA
:10123200596E04EC0DF0090E5B6E1E0E5A6EE40E32
:10124200E82EFED75A2EFCD75B2EFAD700D001012A
:10125200614B622B62BF37EF09F0625109E1320E36
:10126200615DD8A037EF09F039EF09F010EF09F00E
:10127200000E56EC0FF0000E0101646F000E636F5A
:10128200790E0E6E010E0F6EAFEC0FF0790E586EE6
:10129200010E596E04EC0DF0090E5B6E1E0E5A6EB5
:1012A200E40EE82EFED75A2EFCD75B2EFAD700D0DA
:1012B2000101634B642B64BF68EF09F0645109E1DB
:1012C200320E635DD8A068EF09F06AEF09F041EFD2
:1012D20009F0000E56EC0FF0010E01015C6F790E61
:1012E2000E6E010E0F6E99EC0FF001015C51D8B435
:1012F2007DEF09F07FEF09F0AAEF08F076EF09F031
:1013020000EF00F042C0D9FF43C0DAFFDECFF6FFA4
:10131200DDCFF7FF0800F550250AD8A493EF09F0B6
:1013220095EF09F041EF0AF042C0D9FF43C0DAFF5E
:10133200DE2A000EDD22000E0001F56F000EF46FB2
:10134200F4C0F8F0F5C0F9F0F669F76942C0D9FFC8
:1013520043C0DAFFDECFF6FFDDCFF7FF0800F5501E
:10136200640AD8B4B7EF09F0B9EF09F0CBEF09F08E
:1013720042C0D9FF43C0DAFFDECFF6FFDDCFF7FF71
:101382000800F550690AD8A4C9EF09F0CBEF09F0BB
:101392000BEF0AF042C0D9FF43C0DAFFDE2A000E8B
:1013A200DD2244C0D9FF45C0DAFFDFCF46F0020E8E
:1013B200DE26DFCF47F0000EDD2246C0D9FF47C050
:1013C200DAFFDECF48F0DDCF49F0000E49BEFF0E56
:1013D2004A6E4B6E4C6E4D6E4E6E4F6E40C01CF0A0
:1013E20041C01DF048C01EF049C01FF04AC020F0A5
:1013F2004BC021F04CC022F04DC023F04EC024F06F
:101402004FC025F009EC07F01CC040F01DC041F0B0
:101412005CEF0AF042C0D9FF43C0DAFFDECFF6FF2D
:10142200DDCFF7FF0800F550250AD8A41BEF0AF01C
:101432001DEF0AF034EF0AF042C0D9FF43C0DAFFD1
:10144200DE2A000EDD22000E026E250E016E40C065
:1014520003F041C004F03CEC0CF0000E416E010EB2
:10146200406E5CEF0AF042C0D9FF43C0DAFFDE2AC9
:10147200000EDD22000E416E000E406E5CEF0AF09F
:1014820042C0D9FF43C0DAFFDECFF6FFDDCFF7FF60
:101492000800F550016E026A40C003F041C004F03A
:1014A2003CEC0CF042C0D9FF43C0DAFFDE2A000E4A
:1014B200DD222EEF0AF01200000E126E10BE66EF51
:1014C2000AF064EF0AF078EF0AF0101E0F1E0E1EEB
:1014D2000D1E0C1E0B1E0A1E096C000E0A220B2288
:1014E2000C220D220E220F221022010E126E08BEB5
:1014F2007FEF0AF07DEF0AF091EF0AF0081E071E57
:10150200061E051E041E031E021E016C000E022290
:10151200032204220522062207220822010E121AA1
:1015220020EE13F0070EDE6AE806FDE209500A100B
:101532000B100C100D100E100F101010D8B4A4EFD9
:101542000AF0A6EF0AF0F8EF0AF0010E116EB4EFFE
:101552000AF0D89009360A360B360C360D360E369E
:101562000F361036112A10AEB9EF0AF0BBEF0AF0AF
:10157200AAEF0AF0D89013361436153616361736F7
:10158200183619361A360950015C0A5002580B50A7
:1015920003580C5004580D5005580E5006580F5061
:1015A200075810500858D8A0D9EF0AF0DBEF0AF01C
:1015B200ECEF0AF00950015E0A50025A0B50035A2E
:1015C2000C50045A0D50055A0E50065A0F50075A25
:1015D2001050085A1380D89010320F320E320D324A
:1015E2000C320B320A320932112EBBEF0AF01250C2
:1015F200D8B4FEEF0AF000EF0BF010EF0BF01A1E5A
:10160200191E181E171E161E151E141E136C000E10
:101612001422152216221722182219221A2213C066
:1016220001F014C002F015C003F016C004F017C098
:1016320005F018C006F019C007F01AC008F0120031
:10164200000E126E08BE2AEF0BF028EF0BF03CEFF3
:101652000BF0081E071E061E051E041E031E021E98
:10166200016C000E02220322042205220622072216
:101672000822010E126E10BE43EF0BF041EF0BF089
:1016820053EF0BF0101E0F1E0E1E0D1E0C1E0B1E16
:101692000A1E096C000E0A220B220C220D220E22B7
:1016A2000F22102209500A100B100C100D100E10F0
:1016B2000F101010D8B460EF0BF062EF0BF0AAEF2E
:1016C2000BF0010E116E70EF0BF0D89009360A364E
:1016D2000B360C360D360E360F361036112A10AE7A
:1016E20075EF0BF077EF0BF066EF0BF00950015C32
:1016F2000A5002580B5003580C5004580D5005580C
:101702000E5006580F50075810500858D8A08CEFAA
:101712000BF08EEF0BF09EEF0BF00950015E0A50BA
:10172200025A0B50035A0C50045A0D50055A0E50CF
:10173200065A0F50075A1050085AD89010320F32DA
:101742000E320D320C320B320A320932112E77EF81
:101752000BF01250D8B4B0EF0BF0B2EF0BF0C2EFB7
:101762000BF0081E071E061E051E041E031E021E87
:10177200016C000E02220322042205220622072205
:10178200082201C001F002C002F003C003F004C04D
:1017920004F005C005F006C006F007C007F008C057
:1017A20008F0120001C0D9FF02C0DAFF000EDF6E9E
:1017B20020EE01F00150D9260250DA22010EDF6E2E
:1017C20020EE02F00150D9260250DA22A30EDE6E7C
:1017D2000F0EDD6E20EE04F00150D9260250DA22FF
:1017E2007D0EDE6E0F0EDD6E20EE06F00150D92664
:1017F2000250DA22040EDF6E20EE07F00150D926E5
:101802000250DA22C70EDE6E000EDD6E03C0D9FF73
:1018120004C0DAFF000EDF6E20EE01F00350D9267D
:101822000450DA22010EDF6E20EE02F00350D926B8
:101832000450DA22A00EDE6E0F0EDD6E20EE04F0F2
:101842000350D9260450DA227F0EDE6E0F0EDD6EB3
:1018520020EE06F00350D9260450DA22060EDF6E7F
:1018620020EE07F00350D9260450DA22C70EDE6EAE
:10187200000EDD6E120003500410D8B443EF0CF0DA
:1018820045EF0CF04EEF0CF003500410D8A44CEFCF
:101892000CF04EEF0CF053EF0CF001502EEC10F068
:1018A200A0EF0CF020EE09F00350D9260450DA2202
:1018B200DE50DE10D8B460EF0CF062EF0CF07DEF7A
:1018C2000CF020EE09F00350D9260450DA2210EE73
:1018D20003F00350E1260450E222DE50E65CE650BB
:1018E200800A096EDE50800A0958D8B07BEF0CF0EE
:1018F2007DEF0CF0A0EF0CF020EE03F00350D926A0
:101902000450DA22DECF05F0DDCF06F003C0D9FFA6
:1019120004C0DAFFDECF07F0DDCF08F00550072460
:10192200D96E06500820DA6E01C0DFFF20EE03F008
:101932000350D9260450DA22DE2A000EDD221200DC
:101942000001F8A1A7EF0CF0A9EF0CF0B3EF0CF037
:1019520013C00AF014C00BF011C00CF012C00DF04D
:1019620065EC0EF016BEB8EF0CF0BAEF0CF0C0EF5B
:101972000CF015C01AF016C01BF0C4EF0CF0000EEC
:101982001B6E000E1A6E000E196E000E186ED6EF48
:101992000CF0000E026E200E016E11C003F012C098
:1019A20004F03CEC0CF0184A192A1A50185C195031
:1019B200800A176E1B50800A1758D8A0E3EF0CF06C
:1019C200E5EF0CF0CAEF0CF00001F8B1EBEF0CF010
:1019D200EDEF0CF0F7EF0CF013C00AF014C00BF0AF
:1019E20011C00CF012C00DF065EC0EF013C001F046
:1019F20014C002F009EC0FF01A500124116E1B50B2
:101A02000220126E1200790E0001606F000E616FEB
:101A1200010E626F0E0E636F58C0D9FF59C0DAFF14
:101A2200DECF64F0DDCF65F020EE02F05850D9260B
:101A32005950DA22DECF66F0DDCF67F020EE04F0F7
:101A42005850D9265950DA22DECF68F0DDCF69F03E
:101A520020EE06F05850D9265950DA22DECF6AF02D
:101A6200DDCF6BF09CEC0DF0790E026E000E036E72
:101A72003EEC0FF0120052C056F053C057F0000E69
:101A82000001F36F000EF26F5AEF0DF050C040F0FC
:101A920051C041F0560E426E000E436E54C044F0E7
:101AA20055C045F083EC09F040500001F227415047
:101AB200F32356C0F6FF57C0F7FF0800F5500009A0
:101AC200D8A466EF0DF068EF0DF047EF0DF0F2C00D
:101AD20050F0F3C051F01200C5EC0DF00CC0D9FF6C
:101AE2000DC0DAFF05C0DEFF06C0DDFF3DEC0EF0E3
:101AF20020EE04F00C50D9260D50DA2205C0DEFF8C
:101B020006C0DDFFEDEC0DF020EE02F00C50D92600
:101B12000D50DA2205C0DEFF06C0DDFF15EC0EF027
:101B220020EE06F00C50D9260D50DA2205C0DEFF59
:101B320006C0DDFF1200640E00016C6F000E6D6FB7
:101B420060C06EF061C06FF0000E726F000E716FB8
:101B5200000E786F000E776F6E0E506E000E516E93
:101B620062C052F063C053F06C0E546E000E556E9C
:101B72003CEC0DF0000171516025D96E725161216A
:101B8200DA6E000EDF6E120024EC10F0520E19EC29
:101B920010F0B60E19EC10F029EC10F0530E19ECFF
:101BA20010F0010EA8EC0EF0076E07500A6E0B6AD9
:101BB200000EA8EC0EF0076E0750096E086A0A5074
:101BC20008100A6E0B5009100B6E1FEC10F00AC0C1
:101BD20005F00BC006F0120024EC10F0520E19ECC6
:101BE20010F0B80E19EC10F029EC10F0530E19ECAD
:101BF20010F0010EA8EC0EF0076E07500A6E0B6A89
:101C0200000EA8EC0EF0076E0750096E086A0A5023
:101C120008100A6E0B5009100B6E1FEC10F00AC070
:101C220005F00BC006F0120024EC10F0520E19EC75
:101C320010F0B40E19EC10F029EC10F0530E19EC60
:101C420010F0010EA8EC0EF0076E07500A6E0B6A38
:101C5200000EA8EC0EF0076E0750096E086A0A50D3
:101C620008100A6E0B5009100B6E1FEC10F00AC020
:101C720005F00BC006F0120024EC10F0520E19EC25
:101C820010F0BA0E19EC10F029EC10F0530E19EC0A
:101C920010F0010EA8EC0EF0076E07500A6E0B6AE8
:101CA200000EA8EC0EF0076E0750096E086A0A5083
:101CB20008100A6E0B5009100B6E1FEC10F00AC0D0
:101CC20005F00BC006F01200000E106E000E0F6E33
:101CD20076EF0EF00EC001F0026A0CC003F00DC0E8
:101CE20004F03CEC0CF00F4A102A0F500A24D96E73
:101CF20010500B20DA6EDF500E6E0E50D8A484EF17
:101D02000EF086EF0EF06BEF0EF012008594839EBC
:101D1200879C85987D947B9E7F9C7D98BD508F0B80
:101D22003009BD6EE00EBE16BF50F00B0109BF6E4A
:101D3200C70EBC6EBD8E0A0E0E01746F0B0E696F5C
:101D4200000EA36E000EA06EA48EA18E1200036E72
:101D5200DAEC0FF00E01DA87DAEC0FF0D5CE04F0F0
:101D6200DAEC0FF00350D8B4B9EF0EF0BDEF0EF07D
:101D7200026A022ABEEF0EF0026A023A02460E011F
:101D8200DA510218DF0B0218DA6FDA8904501200F6
:101D92005E0EF66E200EF76E000EF86E0900F5CF9D
:101DA200FAF001EE00F05C0EEE6AE806FDE100EEEC
:101DB200DEF01C0EEE6AE806FDE15F6A5E6A5D6AAD
:101DC2005C6A000EF86E0E0EF76E00017BEF08F0F3
:101DD20014BEF6EF0EF0145006E11304D8B0F4EF7F
:101DE2000EF0F6EF0EF004EF0FF013C015F014C072
:101DF20016F0151E161E154A162A15C013F016C027
:101E020014F008EF0FF013C013F014C014F0120016
:101E120001C003F002C004F011EF0FF0014A022AE0
:101E220001C0D9FF02C0DAFFDF50D8A41BEF0FF0C8
:101E32001DEF0FF00FEF0FF00350015C016E045025
:101E42000258026E1200C5EC0FF0010E036E000E76
:101E5200EEEC0FF03F0E056E550EE82EFED7052E66
:101E6200FCD700F0030E036E000EEEEC0FF0D50E61
:101E7200036E010EEEEC0FF0120049EF0FF002C0FC
:101E8200D9FF03C0DAFFDF500DEC10F0024A032A3B
:101E920002C0D9FF03C0DAFFDF50D8A453EF0FF01E
:101EA20055EF0FF040EF0FF012000001DD6F790ED9
:101EB2000001606F000E616F0A0E626F0E0E636F9B
:101EC200DDC064F0656B9CEC0DF0790E026E000EC5
:101ED200036E3EEC0FF012007F827E9E7998110E07
:101EE200116E3C0E106ECB0EE82EFED7102EFCD7D4
:101EF200112EFAD700F00EC00CF00FC00DF06DECF1
:101F02000DF012007F927E9E7988110E116E3C0EAA
:101F1200106ECB0EE82EFED7102EFCD7112EFAD75C
:101F220000F00EC00CF00FC00DF06DEC0DF01200C1
:101F32007F827E8E7988110E116E3C0E106ECB0E52
:101F4200E82EFED7102EFCD7112EFAD700F00EC0C5
:101F52000CF00FC00DF06DEC0DF012007F927E8E32
:101F62007998110E116E3C0E106ECB0EE82EFED734
:101F7200102EFCD7112EFAD700F00EC00CF00FC0B5
:101F82000DF06DEC0DF012000E01D951F00B0809A5
:101F9200D96FD98B9F0ED66F848A848CA79BA79DFD
:101FA2001D0E1D6F1E0E1C6F1C0E6F6F1B0E706FB1
:101FB20012000E01D8B5E0EF0FF0E2EF0FF0DAEF0A
:101FC2000FF0DACE01F01F0E0116D8A4EBEF0FF0DE
:101FD200EDEF0FF0DAEF0FF01200046E24EC10F0C8
:101FE200520E19EC10F00450800919EC10F0035055
:101FF20019EC10F01FEC10F01200120E0E01626FBD
:10200200110E156FE997E895330EE56F000EE66F36
:10201200E789E88BE78F1200016E0E0137A514EFF6
:1020220010F016EF10F00EEF10F001C0E4FE1200F7
:10203200026EDAEC0FF002C0D5FE1200DAEC0FF0FD
:102042000E01DA851200DAEC0FF00E01DA811200CD
:0D205200DAEC0FF00E01DA8312001200012B
:020000040020DA
:10000000FF0FFF0FFF0FFF0FFF0FFF0FFF0FFF0F80
:020000040030CA
:0C000000AAFFFFFF9FFFFFFFFFFFFFFFB5
:00000001FF
