:04000000AEEF0CF063
:100E0000000000004B256409256409256409256458
:100E10000D0A004C6967687420626C7565004F723A
:100E2000616E67650059656C6C6F7700576869740F
:100E30006500426C61636B00477265656E004572C8
:100E4000726F7200426C75650050696E6B0052657E
:030E50006400003B
:100E5400366E32C01AF033C01BF034C01CF035C0FB
:100E64001DF0DAEC0BF03650D8B43BEF07F03DEF51
:100E740007F03CEF08F032C01AF033C01BF034C066
:100E84001CF035C01DF07CEC0BF03604D8A44DEFFB
:100E940007F04FEF07F065EF07F032C026F033C0DC
:100EA40027F034C028F035C029F06CEC0CF032C0C7
:100EB40020F033C021F034C022F035C023F05A0EA4
:100EC400246E27EC09F0020E3618D8A46CEF07F054
:100ED4006EEF07F084EF07F032C026F033C027F03E
:100EE40034C028F035C029F06CEC0CF032C020F08E
:100EF40033C021F034C022F035C023F05A0E246EE2
:100F0400BCEC09F0030E3618D8A48BEF07F08DEF74
:100F140007F0A3EF07F032C026F033C027F034C047
:100F240028F035C029F06CEC0CF032C020F033C04E
:100F340021F034C022F035C023F0B40E246EBCEC92
:100F440009F0040E3618D8A4AAEF07F0ACEF07F0A6
:100F5400C2EF07F032C026F033C027F034C028F0C7
:100F640035C029F08DEC0CF032C020F033C021F0F4
:100F740034C022F035C023F05A0E246E27EC09F059
:100F8400050E3618D8A4C9EF07F0CBEF07F0E1EF50
:100F940007F032C026F033C027F034C028F035C043
:100FA40029F08DEC0CF032C020F033C021F034C0B5
:100FB40022F035C023F05A0E246EBCEC09F0060E64
:100FC4003618D8A4E8EF07F0EAEF07F000EF08F0CE
:100FD40032C026F033C027F034C028F035C029F0E1
:100FE4006CEC0CF032C020F033C021F034C022F09D
:100FF40035C023F0870E246E27EC09F0070E36184F
:10100400D8A407EF08F009EF08F01FEF08F032C08A
:1010140026F033C027F034C028F035C029F06CEC3A
:101024000CF032C020F033C021F034C022F035C0BF
:1010340023F0870E246EBCEC09F0080E3618D8A4F1
:1010440026EF08F028EF08F03CEF08F032C026F055
:1010540033C027F034C028F035C029F06CEC0CF014
:1010640032C02EF033C02FF034C030F035C031F030
:1010740050EC0DF0120020EE01F00F50D926105064
:10108400DA22DF50D8B449EF08F04BEF08F07CEFD8
:1010940008F00FC0D9FF10C0DAFFDF50116E1150F5
:1010A400016E026A20EE07F00F50D9261050DA22A2
:1010B400DECF03F0DDCF04F010EC0DF001C007F03B
:1010C40002C008F0000E0A6E640E096EBAEC0AF053
:1010D40020EE07F00F50D9261050DA22DECF12F09E
:1010E400DDCF13F00750125C186E08501358196EB8
:1010F4009FEF08F00FC0D9FF10C0DAFFDF50116E68
:101104001150016E026A20EE07F00F50D9261050DC
:10111400DA22DECF03F0DDCF04F010EC0DF001C0D5
:1011240007F002C008F0000E0A6E640E096EBAECF5
:101134000AF007C018F008C019F020EE02F00F50B2
:10114400D9261050DA22DECF11F0DDCF12F011C013
:10115400D9FF12C0DAFF18C0DFFF20EE01F00F50F4
:10116400D9261050DA22DF50D8B4BBEF08F0BDEF17
:1011740008F0F2EF08F020EE04F00F50D9261050DA
:10118400DA22DECF11F0DDCF12F011C0D9FF12C088
:10119400DAFF10EE04F00F50E1261050E222E6CF01
:1011A40013F0E5CF14F013C0E1FF14C0E2FFE750E1
:1011B400156E10EE06F00F50E1261050E222E750B3
:1011C400166E010E176E162AEAEF08F0D89017363D
:1011D400162EE8EF08F017501510DF6E26EF09F011
:1011E40020EE04F00F50D9261050DA22DECF11F091
:1011F400DDCF12F011C0D9FF12C0DAFF10EE04F0F7
:101204000F50E1261050E222E6CF13F0E5CF14F0A0
:1012140013C0E1FF14C0E2FFE750156E10EE06F0B4
:101224000F50E1261050E222E750166E010E176EA1
:10123400162A1FEF09F0D8901736162E1DEF09F065
:101244001750FF0A1514DF6E120020EE01F0205033
:10125400D9262150DA22010EDF6E20EE01F0225051
:10126400D9262350DA22010EDF6E58EF09F020C090
:10127400D9FF21C0DAFF050EDF2622C0D9FF23C023
:10128400DAFF000EDF6E20C00FF021C010F03DEC3D
:1012940008F022C00FF023C010F03DEC08F0D00E8F
:1012A400256ECA0EE82EFED7252EFCD720C0D9FF06
:1012B40021C0DAFF180EDF6462EF09F064EF09F071
:1012C40039EF09F024505F02F3CF2CF0F4CF2DF066
:1012D400280E2C24266E000E2D20276EB40E241802
:1012E400D8A477EF09F079EF09F096EF09F0000E32
:1012F400296E000E286E89EF09F0150E256EC60EB4
:10130400E82EFED7252EFCD700D0284A292A2650BD
:10131400285C27502958D8A092EF09F094EF09F0DF
:101324007FEF09F0B1EF09F0000E2B6E000E2A6E6C
:10133400A6EF09F0150E256EC60EE82EFED7252E53
:10134400FCD700D02A4A2B2A2C502A5C2D502B582B
:10135400D8A0AFEF09F0B1EF09F09CEF09F020C07D
:101364001AF021C01BF022C01CF023C01DF07CEC3D
:101374000BF0120020EE01F02050D9262150DA2281
:10138400010EDF6E20EE01F02250D9262350DA221E
:10139400010EDF6EEDEF09F022C0D9FF23C0DAFFA2
:1013A400050EDF2620C0D9FF21C0DAFF000EDF6E54
:1013B40020C00FF021C010F03DEC08F022C00FF067
:1013C40023C010F03DEC08F0D00E256ECA0EE82EB6
:1013D400FED7252EFCD722C0D9FF23C0DAFF180E72
:1013E400DF64F7EF09F0F9EF09F0CEEF09F02450CC
:1013F4005F02F3CF2CF0F4CF2DF0280E2C24266EB0
:10140400000E2D20276EB40E2418D8A40CEF0AF079
:101414000EEF0AF02BEF0AF0000E296E000E286E74
:101424001EEF0AF0150E256EC60EE82EFED7252EE9
:10143400FCD700D0284A292A2650285C275029584E
:10144400D8A027EF0AF029EF0AF014EF0AF046EFCC
:101454000AF0000E2B6E000E2A6E3BEF0AF0150EFA
:10146400256EC60EE82EFED7252EFCD700D02A4ABC
:101474002B2A2C502A5C2D502B58D8A044EF0AF06C
:1014840046EF0AF031EF0AF020C01AF021C01BF039
:1014940022C01CF023C01DF07CEC0BF0120001C034
:1014A400D9FF02C0DAFF000EDF6E20EE01F001501A
:1014B400D9260250DA22010EDF6E20EE02F001502E
:1014C400D9260250DA22A30EDE6E0F0EDD6E20EE58
:1014D40004F00150D9260250DA227D0EDE6E0F0E82
:1014E400DD6E20EE06F00150D9260250DA22040EF9
:1014F400DF6E20EE07F00150D9260250DA22C70E23
:10150400DE6E000EDD6E03C0D9FF04C0DAFF000EEC
:10151400DF6E20EE01F00350D9260450DA22010ECA
:10152400DF6E20EE02F00350D9260450DA22A00E1A
:10153400DE6E0F0EDD6E20EE04F00350D92604504B
:10154400DA227F0EDE6E0F0EDD6E20EE06F0035003
:10155400D9260450DA22060EDF6E20EE07F003507F
:10156400D9260450DA22C70EDE6E000EDD6E12009C
:10157400000E0C6E0ABEC3EF0AF0C1EF0AF0C9EF09
:101584000AF0096C0A1ED8B00A2A010E0C6E08BEB5
:10159400D0EF0AF0CEEF0AF0D6EF0AF0076C081E7F
:1015A400D8B0082A010E0C1A000E0E6E000E0D6E35
:1015B40009500A10D8B4E1EF0AF0E3EF0AF00BEF98
:1015C4000BF0010E0B6EEBEF0AF0D89009360A36D9
:1015D4000B2A0AAEF0EF0AF0F2EF0AF0E7EF0AF096
:1015E400D8900D360E360950075C0A500858D8A01A
:1015F400FEEF0AF000EF0BF005EF0BF00950075E69
:101604000A50085A0D80D8900A3209320B2EF2EF94
:101614000AF00C50D8B411EF0BF013EF0BF017EFE6
:101624000BF00D6C0E1ED8B00E2A0DC007F00EC0C4
:1016340008F0120020EE01F02050D9262150DA22C1
:10164400000EDF6E20EE01F02250D9262350DA225C
:10165400000EDF6E4DEF0BF020C0D9FF21C0DAFF82
:101664000A0EDF2622C0D9FF23C0DAFF0A0EDF26C6
:1016740020C00FF021C010F03DEC08F022C00FF0A4
:1016840023C010F03DEC08F0D00E246ECA0EE82EF4
:10169400FED7242EFCD720C0D9FF21C0DAFF320E9A
:1016A400DF6057EF0BF059EF0BF065EF0BF022C042
:1016B400D9FF23C0DAFF310EDF6463EF0BF065EF6F
:1016C4000BF02EEF0BF0290E256E960E246E7F0E76
:1016D400E82EFED7242EFCD7252EFAD700F020C002
:1016E4001AF021C01BF022C01CF023C01DF07CECBA
:1016F4000BF01200B5EF0BF01AC0D9FF1BC0DAFFD4
:10170400DF50D8B488EF0BF08AEF0BF090EF0BF0BA
:101714001AC0D9FF1BC0DAFF050EDF5E1CC0D9FF5B
:101724001DC0DAFFDF50D8B49AEF0BF09CEF0BF03A
:10173400A2EF0BF01CC0D9FF1DC0DAFF050EDF5E5F
:101744001AC00FF01BC010F03DEC08F01CC00FF0E5
:101754001DC010F03DEC08F0D00E1E6ECA0EE82E2F
:10176400FED71E2EFCD71AC0D9FF1BC0DAFFDF50EC
:10177400D8A4BFEF0BF0C1EF0BF07EEF0BF01CC051
:10178400D9FF1DC0DAFFDF50D8A4CBEF0BF0CDEFAB
:101794000BF07EEF0BF0520E1F6E2B0E1E6E000E22
:1017A400E82EFED71E2EFCD71F2EFAD700D012002B
:1017B40020EE01F01A50D9261B50DA22010EDF6EFA
:1017C40020EE01F01C50D9261D50DA22010EDF6EE6
:1017D4000BEF0CF01AC0D9FF1BC0DAFF0A0EDF268C
:1017E4001CC0D9FF1DC0DAFF0A0EDF261AC00FF095
:1017F4001BC010F03DEC08F01CC00FF01DC010F031
:101804003DEC08F0D00E1E6ECA0EE82EFED71E2E3A
:10181400FCD71AC0D9FF1BC0DAFF280EDF6015EF12
:101824000CF017EF0CF023EF0CF01CC0D9FF1DC017
:10183400DAFF270EDF6421EF0CF023EF0CF0ECEF5E
:101844000BF01200E7EC0CF0CDEC0CF0000E026E85
:10185400C70E016E4BEC0CF033EC0DF0370E016E3D
:10186400000E026E410E036E000E046E51EC0AF07F
:1018740042EC0DF0370E326E000E336E410E346EB4
:10188400000E356E000E2AEC07F047EF0CF000EF67
:1018940000F08594839E879C85987D947B9E7F9C95
:1018A4007D98BD508F0B3009BD6EE00EBE16BF5043
:1018B400F00B0109BF6EC70EBC6EBD8E0A0E0E0181
:1018C400746F0B0E696F000EA36E000EA06EA48ED3
:1018D400A18E120026C020F027C021F028C022F0DB
:1018E40029C023F01CEC0BF0290E2B6E960E2A6EE9
:1018F4007F0EE82EFED72A2EFCD72B2EFAD700F027
:1019040026C01AF027C01BF028C01CF029C01DF007
:101914007CEC0BF0120026C020F027C021F028C078
:1019240022F029C023F01CEC0BF0520E2B6E2B0E70
:101934002A6E000EE82EFED72A2EFCD72B2EFAD7BD
:1019440000D026C01AF027C01BF028C01CF029C004
:101954001DF07CEC0BF01200DA0EF66E1A0EF76E28
:10196400000EF86E0900F5CF5EF00900F5CF5FF0C8
:1019740000EE60F05A0EEE6AE806FDE100EE4BF070
:10198400130EEE6AE806FDE1000EF86E0E0EF76E19
:10199400000124EF0CF0E7EC0CF0010E036E000ED6
:1019A40023EC0DF03F0E056E550EE82EFED7052EE6
:1019B400FCD700F0030E036E000E23EC0DF0D50EE1
:1019C400036E010E23EC0DF012000E01D951F00B41
:1019D4000809D96FD98B9F0ED66F848A848CA79BF4
:1019E400A79D1D0E1D6F1E0E1C6F1C0E6F6F1B0E10
:1019F400706F12000E01D8B502EF0DF004EF0DF078
:101A0400FCEF0CF0DACE01F01F0E0116D8A40DEF96
:101A14000DF00FEF0DF0FCEF0CF01200015003027B
:101A2400F3CF05F0F4CF06F001500402F35006267C
:101A340002500302F350062605C001F006C002F06E
:101A44001200046E68EC0DF0520E5DEC0DF00450C3
:101A540080095DEC0DF003505DEC0DF063EC0DF0CE
:101A64001200120E0E01626F110E156FE997E895C0
:101A7400330EE56F000EE66FE789E88BE78F1200FF
:101A840086840E01B4958686B497869C7E9C879244
:101A9400869E81987F827E8E798812002EC020F0E7
:101AA4002FC021F030C022F031C023F0B40E246ED8
:101AB400BCEC09F01200026EFCEC0CF002C0D5FE86
:101AC4001200FCEC0CF00E01DA851200FCEC0CF0B8
:081AD4000E01DA811200280B5B
:020000040020DA
:10000000FF0FFF0FFF0FFF0FFF0FFF0FFF0FFF0F80
:020000040030CA
:0C000000AAFFFFFF9FFFFFFFFFFFFFFFB5
:00000001FF
