:0400000024EF00F0F9
:060008005C82DEEF2BF02C
:100018005C80D8CF01F0E0CF02F00E0133AB17EFD0
:1000280000F019EF00F01EEF00F001019A4B9B2B36
:100038000E01339B02C0E0FF01C0D8FF5C901000A6
:040048004AEF28F063
:100E0000000000004B256409256409256409256458
:100E10000D0A0000000E0001896F000E886F000EA1
:100E2000856F000E846F000E8B6F000E8A6F000EB0
:100E30008D6F000E8C6F000E876F000E866F000E98
:100E4000916F000E906F000E966F000E956F000E62
:100E5000936F000E926F000E946F1EEC2BF080C00B
:100E60000EF081C00FF01BEC28F082C0D9FF83C0C8
:100E7000DAFFDECF52F0DDCF53F052C003F053C0A3
:100E800004F0056A066A000EF8EC1DF003C015F0C8
:100E900004C016F005C017F006C018F080C0D9FFD6
:100EA00081C0DAFFDECF54F0DDCF55F054C003F03F
:100EB00055C004F0056A066A000EF8EC1DF003C088
:100EC00011F004C012F005C013F006C014F0F9ECE4
:100ED00012F011C02AF012C02BF013C02CF014C075
:100EE0002DF0000E2E6E000E2F6EC80E306E420ECC
:100EF000316E0BEC0FF02AC097F02BC098F02CC08D
:100F000099F02DC09AF097C076F098C077F099C00C
:100F100078F09AC079F045EC2AF076C08EF077C070
:100F20008FF0000120EE02F08251D9268351DA229F
:100F3000DECF52F0DDCF53F052C003F053C004F0C7
:100F4000056A066A000EF8EC1DF003C015F004C037
:100F500016F005C017F006C018F0000120EE02F0F0
:100F60008051D9268151DA22DECF54F0DDCF55F001
:100F700054C003F055C004F0056A066A000EF8EC90
:100F80001DF003C011F004C012F005C013F006C03C
:100F900014F0F9EC12F011C02AF012C02BF013C0BB
:100FA0002CF014C02DF0000E2E6E000E2F6EC80E09
:100FB000306E420E316E0BEC0FF02AC097F02BC052
:100FC00098F02CC099F02DC09AF097C076F098C098
:100FD00077F099C078F09AC079F045EC2AF076C0A5
:100FE00088F077C089F0000120EE04F08251D92604
:100FF0008351DA22DECF52F0DDCF53F052C003F03E
:1010000053C004F0056A066A000EF8EC1DF003C038
:1010100015F004C016F005C017F006C018F0000166
:1010200020EE04F08051D9268151DA22DECF54F02F
:10103000DDCF55F054C003F055C004F0056A066AD0
:10104000000EF8EC1DF003C011F004C012F005C052
:1010500013F006C014F0F9EC12F011C02AF012C01F
:101060002BF013C02CF014C02DF0000E2E6E000ECD
:101070002F6EC80E306E420E316E0BEC0FF02AC090
:1010800097F02BC098F02CC099F02DC09AF097C023
:1010900076F098C077F099C078F09AC079F045EC76
:1010A0002AF0050E536E0F0E526EF10EE82EFED78B
:1010B000522EFCD7532EFAD700F03EEC2BF080C016
:1010C0000EF081C00FF01BEC28F0000120EE06F0BE
:1010D0008251D9268351DA22DECF52F0DDCF53F090
:1010E00052C003F053C004F0056A066A000EF8EC23
:1010F0001DF003C015F004C016F005C017F006C0BF
:1011000018F080C0D9FF81C0DAFFDECF54F0DDCF08
:1011100055F054C003F055C004F0056A066A000E8D
:10112000F8EC1DF003C011F004C012F005C013F07C
:1011300006C014F0F9EC12F011C02AF012C02BF026
:1011400013C02CF014C02DF0000E2E6E000E2F6E6A
:10115000C80E306E420E316E0BEC0FF02AC097F0C5
:101160002BC098F02CC099F02DC09AF097C076F063
:1011700098C077F099C078F09AC079F045EC2AF0E1
:1011800076C08AF077C08BF0000120EE08F0825123
:10119000D9268351DA22DECF52F0DDCF53F052C090
:1011A00003F053C004F0056A066A000EF8EC1DF067
:1011B00003C015F004C016F005C017F006C018F003
:1011C000000120EE02F08051D9268151DA22DECFD3
:1011D00054F0DDCF55F054C003F055C004F0056A5B
:1011E000066A000EF8EC1DF003C011F004C012F006
:1011F00005C013F006C014F0F9EC12F011C02AF08B
:1012000012C02BF013C02CF014C02DF0000E2E6E67
:10121000000E2F6EC80E306E420E316E0BEC0FF0CA
:101220002AC097F02BC098F02CC099F02DC09AF0EE
:1012300097C076F098C077F099C078F09AC079F0AE
:1012400045EC2AF076C08CF077C08DF0000120EEDE
:101250000AF08251D9268351DA22DECF52F0DDCF57
:1012600053F052C003F053C004F0056A066A000E42
:10127000F8EC1DF003C015F004C016F005C017F01F
:1012800006C018F0000120EE04F08051D9268151EB
:10129000DA22DECF54F0DDCF55F054C003F055C054
:1012A00004F0056A066A000EF8EC1DF003C011F0A8
:1012B00004C012F005C013F006C014F0F9EC12F0EF
:1012C00011C02AF012C02BF013C02CF014C02DF066
:1012D000000E2E6E000E2F6EC80E306E420E316E56
:1012E0000BEC0FF02AC097F02BC098F02CC099F0AF
:1012F0002DC09AF097C076F098C077F099C078F03A
:101300009AC079F045EC2AF0050E536E0F0E526E1E
:10131000F10EE82EFED7522EFCD7532EFAD700F04E
:101320004EEC2BF080C00EF081C00FF01BEC28F0CB
:10133000000120EE0CF08251D9268351DA22DECF53
:1013400052F0DDCF53F052C003F053C004F0056AF1
:10135000066A000EF8EC1DF003C015F004C016F08C
:1013600005C017F006C018F080C0D9FF81C0DAFFB1
:10137000DECF54F0DDCF55F054C003F055C004F07B
:10138000056A066A000EF8EC1DF003C011F004C0F7
:1013900012F005C013F006C014F0F9EC12F011C001
:1013A0002AF012C02BF013C02CF014C02DF0000E48
:1013B0002E6E000E2F6EC80E306E420E316E0BEC8C
:1013C0000FF02AC097F02BC098F02CC099F02DC0D8
:1013D0009AF097C076F098C077F099C078F09AC0EC
:1013E00079F045EC2AF076C090F077C091F00001DA
:1013F00020EE0EF08251D9268351DA22DECF52F050
:10140000DDCF53F052C003F053C004F0056A066A02
:10141000000EF8EC1DF003C015F004C016F005C076
:1014200017F006C018F0000120EE02F08051D92616
:101430008151DA22DECF54F0DDCF55F054C003F0F5
:1014400055C004F0056A066A000EF8EC1DF003C0F2
:1014500011F004C012F005C013F006C014F0F9EC4E
:1014600012F011C02AF012C02BF013C02CF014C0DF
:101470002DF0000E2E6E000E2F6EC80E306E420E36
:10148000316E0BEC0FF02AC097F02BC098F02CC0F7
:1014900099F02DC09AF097C076F098C077F099C077
:1014A00078F09AC079F045EC2AF076C095F077C0D4
:1014B00096F0000120EE10F08251D9268351DA22F5
:1014C000DECF52F0DDCF53F052C003F053C004F032
:1014D000056A066A000EF8EC1DF003C015F004C0A2
:1014E00016F005C017F006C018F0000120EE04F059
:1014F0008051D9268151DA22DECF54F0DDCF55F06C
:1015000054C003F055C004F0056A066A000EF8ECFA
:101510001DF003C011F004C012F005C013F006C0A6
:1015200014F0F9EC12F011C02AF012C02BF013C025
:101530002CF014C02DF0000E2E6E000E2F6EC80E73
:10154000306E420E316E0BEC0FF02AC097F02BC0BC
:1015500098F02CC099F02DC09AF097C076F098C002
:1015600077F099C078F09AC079F045EC2AF076C00F
:1015700092F077C093F0050E536E0F0E526EF10E7F
:10158000E82EFED7522EFCD7532EFAD700F0000ECD
:1015900000017B6F000E7A6F90C07CF091C07DF0EF
:1015A000000E7F6F460E7E6F28EC2AF00009D8B43B
:1015B000DCEF0AF0DEEF0AF04FEF0BF092C003F021
:1015C00093C004F0056A066A000EF8EC1DF003C033
:1015D00015F004C016F005C017F006C018F00001A1
:1015E00095518C25526E96518D21536E52C003F049
:1015F00053C004F0056A066A000EF8EC1DF003C043
:1016000011F004C012F005C013F006C014F0F9EC9C
:1016100012F011C02AF012C02BF013C02CF014C02D
:101620002DF0000E2E6E000E2F6E480E306E430E03
:10163000316E0BEC0FF02AC097F02BC098F02CC045
:1016400099F02DC09AF0000E00017B6F000E7A6FAA
:1016500097C076F098C077F099C078F09AC079F08A
:1016600045EC2AF076C07CF077C07DF0010E0001D9
:101670007F6F9E0E7E6F28EC2AF00009D8B443EFEE
:101680000BF045EF0BF04AEF0BF0030E0001946FE7
:1016900030EF0CF0020E0001946F30EF0CF0000EF2
:1016A00000017B6F000E7A6F95C07CF096C07DF0D4
:1016B000000E7F6F4B0E7E6F28EC2AF00009D8B425
:1016C00064EF0BF066EF0BF0E0EF0BF088C003F077
:1016D00089C004F0056A066A000EF8EC1DF003C02C
:1016E00015F004C016F005C017F006C018F08EC043
:1016F00003F08FC004F0056A066A000EF8EC1DF0D6
:1017000003C011F004C012F005C013F006C014F0BD
:10171000F9EC12F011C02AF012C02BF013C02CF01B
:1017200014C02DF0000E2E6E000E2F6EFA0E306ECD
:10173000430E316E0BEC0FF02AC097F02BC098F0DF
:101740002CC099F02DC09AF0000E00017B6F000EA6
:101750007A6F97C076F098C077F099C078F09AC009
:1017600079F045EC2AF076C07CF077C07DF0020E6F
:1017700000017F6F9E0E7E6F28EC2AF00009D8B41E
:10178000C4EF0BF0C6EF0BF0DBEF0BF000018B5159
:1017900009E15B0E8A5DD8A0D0EF0BF0D2EF0BF021
:1017A000D6EF0BF0060E946F30EF0CF0000E000138
:1017B000946F30EF0CF0010E0001946F30EF0CF0DD
:1017C000000E00017B6F000E7A6F90C07CF091C01C
:1017D0007DF0000E7F6F5A0E7E6F28EC2AF0000914
:1017E000D8B4F5EF0BF0F7EF0BF007EF0CF00001BA
:1017F000965109E15B0E955DD8A001EF0CF003EF67
:101800000CF0D6EF0BF0070E946F30EF0CF00001E8
:101810009251955D93519659D8B011EF0CF013EF9A
:101820000CF017EF0CF0050E946F30EF0CF0000E7B
:101830007B6F000E7A6F92C07CF093C07DF0000E3B
:101840007F6F5A0E7E6F28EC2AF00009D8B42BEF78
:101850000CF02DEF0CF0D6EF0BF0040E0001946F9E
:10186000000E7B6F5F0E7A6F90C07CF091C07DF0B0
:10187000000E7F6F690E7E6F28EC2AF00009D8B445
:1018800044EF0CF046EF0CF077EF0CF0000E000187
:101890007B6F5F0E7A6F95C07CF096C07DF0000E76
:1018A0007F6F690E7E6F28EC2AF00009D8B45BEFD9
:1018B0000CF05DEF0CF077EF0CF0000E00017B6F89
:1018C0005F0E7A6F92C07CF093C07DF0000E7F6F48
:1018D000690E7E6F28EC2AF00009D8B472EF0CF084
:1018E00074EF0CF077EF0CF0080E0001946F000E0F
:1018F00000017B6F000E7A6F90C07CF091C07DF08C
:10190000000E7F6F190E7E6F28EC2AF00009D8B404
:101910008CEF0CF08EEF0CF0A8EF0CF0000E000135
:101920007B6F000E7A6F8EC07CF08FC07DF0000E52
:101930007F6F5A0E7E6F28EC2AF00009D8B4A3EF0F
:101940000CF0A5EF0CF0A8EF0CF0000E0001946F66
:101950000001945112000650800B0F6E06500624B1
:10196000116E05AEB6EF0CF0B8EF0CF0B9EF0CF05D
:1019700011801150D8B4BFEF0CF0C1EF0CF0D6EFCE
:101980000CF01128D8A4C7EF0CF0C9EF0CF0D1EF80
:101990000CF0000E036E000E046E000E056E000EBD
:1019A000066E058E000E066EDEEF0CF0000E036E66
:1019B000000E046E000E056E000E066E0A50800BBF
:1019C000106E0F501018D8B4E8EF0CF0EAEF0CF0DE
:1019D000EBEF0CF00F8C0A500A24106E09AEF3EFF7
:1019E0000CF0F5EF0CF0F6EF0CF010801050D8B4BE
:1019F000FCEF0CF0FEEF0CF013EF0DF01028D8A464
:101A000004EF0DF006EF0DF00EEF0DF0000E076E77
:101A1000000E086E000E096E000E0A6E098E000E92
:101A20000A6E1BEF0DF0000E076E000E086E000E22
:101A3000096E000E0A6E1150105CD8B022EF0DF046
:101A400024EF0DF04BEF0DF00FAC29EF0DF02BEF65
:101A50000DF02DEF0DF0800E0F1A11C012F010C016
:101A600011F012C010F003C012F007C003F012C052
:101A700007F004C012F008C004F012C008F005C05E
:101A800012F009C005F012C009F006C012F00AC039
:101A900006F012C00AF0000E126E115010C00BF0CA
:101AA0000C6A0B5E000E0C5A0CBE60EF0DF00C5071
:101AB00009E11A0E0B5CD8A060EF0DF062EF0DF09B
:101AC00099EF0DF00350041005100610D8A46BEF29
:101AD0000DF06EEF0DF0010E6FEF0DF0000E126EB7
:101AE000000E036E000E046E000E056E000E066EF4
:101AF00010C011F0A2EF0DF012A081EF0DF083EFF6
:101B00000DF089EF0DF0D89012300109126E8BEFB5
:101B10000DF0D890123203A090EF0DF092EF0DF07F
:101B200093EF0DF0128E0634063205320432033282
:101B3000112A1050115CD8A0A0EF0DF0A2EF0DF00B
:101B40007CEF0DF00FBCA7EF0DF0A9EF0DF0E9EF62
:101B50000DF01150D8A4AFEF0DF0B1EF0DF0BBEFC9
:101B60000DF0000E036E000E046E000E056E000EEA
:101B7000066E0AEF0FF007500326085004220950A2
:101B800005220A50062206A0C8EF0DF0CAEF0DF09C
:101B900076EF0EF012A0CFEF0DF0D1EF0DF0D7EFF2
:101BA0000DF0D89012300109126ED9EF0DF0D890D7
:101BB000123203A0DEEF0DF0E0EF0DF0E1EF0DF0DB
:101BC000128E06340632053204320332112A76EFC1
:101BD0000EF00750035C0850045809500558065091
:101BE000800A0B6E0A50800A0B58D8B0FAEF0DF03D
:101BF000FCEF0DF027EF0EF00350075C0B6E045066
:101C000008580C6E055009580D6E06500A580E6E95
:101C1000FF0E0B24036EFF0E0C20046EFF0E0D2032
:101C2000056EFF0E0E20066E800E0F1A126C1250FB
:101C3000D8A41DEF0EF01FEF0EF02FEF0EF0010EE7
:101C40000326000E0422052206222FEF0EF0075075
:101C5000035E0850045A0950055A0A50065A0350A8
:101C6000041005100610D8A438EF0EF03AEF0EF06D
:101C70006FEF0EF01250D8A440EF0EF042EF0EF0CE
:101C80006FEF0EF0000E036E000E046E000E056E78
:101C9000000E066E0AEF0FF0D890033604360536B4
:101CA000063612AE56EF0EF058EF0EF059EF0EF06A
:101CB000038012A05EEF0EF060EF0EF064EF0EF006
:101CC000D880123666EF0EF0D89012361150D8B484
:101CD0006CEF0EF06EEF0EF06FEF0EF0110605AE2A
:101CE00074EF0EF076EF0EF04CEF0EF0000E106E6B
:101CF00012AE7DEF0EF07FEF0EF097EF0EF012C0F8
:101D00000BF07F0E0B16D8B488EF0EF08AEF0EF0B2
:101D10008EEF0EF0010E106E97EF0EF003A093EF12
:101D20000EF095EF0EF097EF0EF08AEF0EF01050D8
:101D3000D8B49DEF0EF09FEF0EF0CAEF0EF0010E3B
:101D40000326000E04220522062206A0AAEF0EF0AA
:101D5000ACEF0EF0CAEF0EF003C00BF004C00CF0B5
:101D600005C00DF006C00EF00E340E320D320C32EE
:101D70000B320BC003F00CC004F00DC005F00EC018
:101D800006F01128D8B4C7EF0EF0C9EF0EF0CAEF75
:101D90000EF0112A1128D8B4D0EF0EF0D2EF0EF0C9
:101DA000DAEF0EF01150D8A4D8EF0EF0DAEF0EF003
:101DB000ECEF0EF0000E036E000E046E000E056ECA
:101DC000000E066E1150D8A4E8EF0EF0EAEF0EF008
:101DD000ECEF0EF0000E0F6E11A0F1EF0EF0F3EF2E
:101DE0000EF0F6EF0EF0058EF7EF0EF0059ED89090
:101DF0001130066E0FAEFFEF0EF001EF0FF002EFA5
:101E00000FF0068E03C003F004C004F005C005F017
:101E100006C006F012002D50800B366E2D502D247A
:101E20003C6E2CAE16EF0FF018EF0FF019EF0FF01D
:101E30003C803C50D8B41FEF0FF021EF0FF034EF8F
:101E40000FF03C28D8A427EF0FF029EF0FF031EF67
:101E50000FF0000E2A6E000E2B6E000E2C6E000E80
:101E60002D6E2C8E3CEF0FF0000E2A6E000E2B6EA6
:101E7000000E2C6E000E2D6E3150800B361A315034
:101E80003124376E30AE47EF0FF049EF0FF04AEFD5
:101E90000FF037803750D8B450EF0FF052EF0FF0FB
:101EA00065EF0FF03728D8A458EF0FF05AEF0FF076
:101EB00062EF0FF0000E2E6E000E2F6E000E306ED1
:101EC000000E316E308E6DEF0FF0000E2E6E000E94
:101ED0002F6E000E306E000E316E3750D8B473EF97
:101EE0000FF075EF0FF07DEF0FF03C50D8A47BEFB3
:101EF0000FF07DEF0FF087EF0FF0000E2A6E000E4F
:101F00002B6E000E2C6E000E2D6E1FEF11F0305058
:101F10002A02F3CF41F0F4CF42F04150386E396AD3
:101F20003A6A3B6A42503D6E3E6A3F6A406A2F50B1
:101F30002B02F3CF41F0F4CF42F041503826000E8F
:101F400039223A223B2242503D26000E3E223F22B9
:101F500040222E502C02F3CF41F0F4CF42F04150FA
:101F60003826000E39223A223B2242503D26000EEE
:101F70003E223F2240223AC03BF039C03AF038C0FE
:101F800039F0386A2E502B02F3CF41F0F4CF42F0F3
:101F90004150382642503922000E3A22000E3B2290
:101FA0002F502A02F3CF41F0F4CF42F041503826AF
:101FB00042503922000E3A22000E3B223AC03BF03A
:101FC00039C03AF038C039F0386A2E502A02F3CFBF
:101FD00041F0F4CF42F04150382642503922000EF1
:101FE0003A22000E3B2230502B02F3CF41F0F4CFC7
:101FF00042F041503D2642503E22000E3F22000E4C
:1020000040222F502C02F3CF41F0F4CF42F0415048
:102010003D2642503E22000E3F22000E402230500C
:102020002C02F3CF41F0F4CF42F04150326E4250D7
:10203000336E346A356A34C035F033C034F032C0A0
:1020400033F0326A32503D2633503E2234503F2224
:102050003550402238C032F039C033F03AC034F045
:102060003BC035F0190E3AEF10F0D89035323432CB
:1020700033323232E82E35EF10F032503D263350F5
:102080003E2234503F22355040223AC03BF039C006
:102090003AF038C039F0386A37503CC032F0336A11
:1020A0003226000E3322820E3224416EFF0E332080
:1020B000426E70EF10F0D8903D363E363F364036D7
:1020C0003BAE65EF10F067EF10F068EF10F03D8069
:1020D000D890383639363A363B364106D8A04206D3
:1020E0003FAE75EF10F077EF10F05BEF10F0000EE1
:1020F000376E3BAE7EEF10F080EF10F0A4EF10F0E3
:10210000FF0E3814326EFF0E3914336EFF0E3A1480
:10211000346E7F0E3B14356E325033103410351050
:10212000D8B495EF10F097EF10F09BEF10F0010E80
:10213000376EA4EF10F03DA0A0EF10F0A2EF10F06A
:10214000A4EF10F097EF10F03750D8B4AAEF10F0CA
:10215000ACEF10F0D0EF10F0010E3D26000E3E2245
:102160003F22402240A0B7EF10F0B9EF10F0D0EFBF
:1021700010F03DC032F03EC033F03FC034F040C0FC
:1021800035F03534353234323332323232C03DF00C
:1021900033C03EF034C03FF035C040F0414A422ADF
:1021A00042BEDBEF10F0425008E14128D8A0DBEF3F
:1021B00010F0DDEF10F0E7EF10F0000E3D6E000EB6
:1021C0003E6E800E3F6E7F0E406E15EF11F042BEE8
:1021D000F4EF10F0425006E14104D8B0F2EF10F0F5
:1021E000F4EF10F000EF11F0000E3D6E000E3E6EA9
:1021F000000E3F6E000E406E000E366E15EF11F0B1
:1022000041C03CF0FF0E3D16FF0E3E167F0E3F16FE
:10221000000E40163CA00FEF11F011EF11F012EF7D
:1022200011F03F8ED8903C30406E365040123DC089
:102230002AF03EC02BF03FC02CF040C02DF0120021
:102240008CC16AF08DC16BF08EC16CF08FC16DF0E6
:1022500043C06AF044C06BF045C06CF046C06DF0FE
:102260006AC047F06BC048F06CC049F06DC04AF0DE
:10227000180E40EF11F0D8904A32493248324732B6
:10228000E82E3BEF11F047500001646F656B65BFAE
:1022900053EF11F0655109E1960E645DD8A053EF3C
:1022A00011F055EF11F05FEF11F043C043F044C05F
:1022B00044F045C045F046C046F0F8EF12F06AC061
:1022C00047F06BC048F06CC049F06DC04AF0200E7A
:1022D0006FEF11F0D8904A32493248324732E82E37
:1022E0006AEF11F04750481049104A10D8B47BEFFC
:1022F00011F07DEF11F08FEF11F043C003F044C0F7
:1023000004F045C005F046C006F062EC2AF003C0B8
:1023100043F004C044F005C045F006C046F000019B
:1023200065BF9EEF11F0655107E17E0E645DD8B088
:102330009CEF11F09EEF11F0BAEF11F06AC02AF095
:102340006BC02BF06CC02CF06DC02DF0000E2E6E0B
:10235000000E2F6E000E306E000E316E0BEC0FF083
:102360002AC043F02BC044F02CC045F02DC046F0ED
:10237000F8EF12F0000E076E000E086E000E096EE8
:102380004B0E0A6E43C003F044C004F045C005F094
:1023900046C006F0ABEC0CF003C066F004C067F07A
:1023A00005C068F006C069F0000E076E000E086EEA
:1023B000000E096ECB0E0A6E66C003F067C004F013
:1023C00068C005F069C006F0ABEC0CF003C060F02B
:1023D00004C061F005C062F006C063F060C013F095
:1023E00061C014F062C015F063C016F043C017F06E
:1023F00044C018F045C019F046C01AF03FEC29F06F
:1024000013C06EF014C06FF015C070F016C071F0FC
:10241000000E036E000E046E000E056E3F0E066E7B
:102420006EC007F06FC008F070C009F071C00AF00C
:10243000A5EC23F0D8B01FEF12F021EF12F057EF08
:1024400012F043C007F044C008F045C009F046C090
:102450000AF06EC003F06FC004F070C005F071C0E8
:1024600006F0ABEC0CF003C066F004C067F005C0EA
:1024700068F006C069F066C003F067C004F068C089
:1024800005F069C006F0000E076E000E086E800EA3
:10249000096EBF0E0A6EABEC0CF003C06EF004C008
:1024A0006FF005C070F006C071F0C0EF12F0000EC2
:1024B000036E000E046E000E056EBF0E066E6EC03B
:1024C00007F06FC008F070C009F071C00AF0A5EC09
:1024D00023F0D8A06EEF12F070EF12F0A6EF12F01A
:1024E00043C007F044C008F045C009F046C00AF0F8
:1024F0006EC003F06FC004F070C005F071C006F04C
:10250000ABEC0CF003C066F004C067F005C068F0E7
:1025100006C069F066C003F067C004F068C005F04B
:1025200069C006F0000E076E000E086E800E096E80
:102530003F0E0A6EABEC0CF003C06EF004C06FF0FF
:1025400005C070F006C071F0C0EF12F06EC003F06D
:102550006FC004F070C005F071C006F043C007F012
:1025600044C008F045C009F046C00AF0ABEC0CF0DE
:1025700003C06EF004C06FF005C070F006C071F0CB
:102580006AC047F06BC048F06CC049F06DC04AF0BB
:10259000200ED0EF12F0D8904A32493248324732FA
:1025A000E82ECBEF12F04750481049104A10D8B42B
:1025B000DCEF12F0DEEF12F0F0EF12F06EC003F07D
:1025C0006FC004F070C005F071C006F062EC2AF034
:1025D00003C06EF004C06FF005C070F006C071F06B
:1025E0006EC043F06FC044F070C045F071C046F05B
:1025F00012001450800B216E14501424286E13AE58
:1026000004EF13F006EF13F007EF13F028802850C3
:10261000D8B40DEF13F00FEF13F024EF13F02828C8
:10262000D8A415EF13F017EF13F01FEF13F0000EFF
:10263000116E000E126E000E136E000E146E138ECD
:10264000000E146E2CEF13F0000E116E000E126EC1
:10265000000E136E000E146E1850800B211A1850C5
:102660001824296E17AE37EF13F039EF13F03AEF55
:1026700013F029802950D8B440EF13F042EF13F043
:1026800057EF13F02928D8A448EF13F04AEF13F0BE
:1026900052EF13F0000E156E000E166E000E176E40
:1026A000000E186E178E000E186E5FEF13F0000EFE
:1026B000156E000E166E000E176E000E186E155079
:1026C000161017101810D8A468EF13F06AEF13F063
:1026D00082EF13F0000E116E000E126E000E136EDC
:1026E000000E146E800E13127F0E1412215014125D
:1026F00011C011F012C012F013C013F014C014F086
:10270000C5EF14F02850D8A488EF13F08AEF13F027
:1027100094EF13F0000E116E000E126E000E136E89
:10272000000E146EC5EF14F0295028C019F01A6A73
:10273000195E000E1A5A7F0E1924226E000E1A20FE
:10274000236E11C01DF012C01EF013C01FF014C084
:1027500020F0000E116E000E126E000E136E000EB1
:10276000146E000E246E000E256E000E266E000EF6
:10277000276E000E296EF5EF13F02950D8B4C3EF81
:1027800013F0C5EF13F0DCEF13F0D8901D361E36B2
:102790001F362036D890113612361336143627AE2F
:1027A000D4EF13F0D6EF13F0D7EF13F01180D890D9
:1027B000243625362636273615501D5C16501E58F1
:1027C00017501F5818502058D8A0E9EF13F0EBEF1E
:1027D00013F0F4EF13F0278C15501D5E16501E5A9F
:1027E00017501F5A1850205A292A190E2964FBEF36
:1027F00013F0FDEF13F0BDEF13F01D501E101F106E
:102800002010D8B406EF14F008EF14F020EF14F005
:10281000248020EF14F0D890113612361336143677
:1028200027AE15EF14F017EF14F018EF14F0118025
:10283000D89024362536263627362206D8A02306F9
:1028400013AE25EF14F027EF14F00BEF14F0000E89
:10285000296E27AE2EEF14F030EF14F054EF14F081
:10286000FF0E2414196EFF0E25141A6EFF0E261487
:102870001B6E7F0E27141C6E19501A101B101C1093
:10288000D8B445EF14F047EF14F04BEF14F0010EFD
:10289000296E54EF14F011A050EF14F052EF14F021
:1028A00054EF14F047EF14F02950D8B45AEF14F055
:1028B0005CEF14F080EF14F0010E1126000E1222CE
:1028C0001322142214A067EF14F069EF14F080EFC4
:1028D00014F011C019F012C01AF013C01BF014C08C
:1028E0001CF01C341C321B321A32193219C011F080
:1028F0001AC012F01BC013F01CC014F0224A232A85
:1029000023BE8BEF14F0235008E12228D8A08BEFD0
:1029100014F08DEF14F098EF14F0000E236E22687F
:10292000000E116E000E126E000E136E000E146E6D
:1029300023BEA5EF14F0235006E12204D8B0A3EF84
:1029400014F0A5EF14F0B3EF14F0000E236E000E98
:10295000226E000E116E000E126E000E136E000E2F
:10296000146E000E216E22C028F028A0BAEF14F0D9
:10297000BCEF14F0BFEF14F0138EC0EF14F0139EF1
:10298000D8902830146E76EF13F01200426ED58E78
:102990009AC198F19BC199F14250D8B4D2EF14F08A
:1029A000D4EF14F047EF16F0D59E9AC196F19BC173
:1029B00097F101019651985D406E97519959416E7A
:1029C0005A50020D3C0EF324D96E010EF420DA6E3B
:1029D00040C0DEFF41C0DDFF5A2A3CC01CF03DC0B4
:1029E0001DF03EC01EF03FC01FF07CEC26F04204FC
:1029F000D8A4FDEF14F0FFEF14F022EF15F03CC067
:102A000028F03DC029F03EC02AF03FC02BF0C6ECB4
:102A100029F03CC022F03DC023F03EC024F03FC06E
:102A200025F05A0E266E5BEC20F05A50020D3C0E3B
:102A3000F324D96E010EF420DA6E010EDE6E000E64
:102A4000DD6E5A2A020E4218D8A429EF15F02BEF9A
:102A500015F04EEF15F03CC028F03DC029F03EC007
:102A60002AF03FC02BF0C6EC29F03CC022F03DC05C
:102A700023F03EC024F03FC025F05A0E266E1BEC1A
:102A800021F05A50020D3C0EF324D96E010EF420B1
:102A9000DA6E020EDE6E000EDD6E5A2A030E42184A
:102AA000D8A455EF15F057EF15F07AEF15F03CC0AC
:102AB00028F03DC029F03EC02AF03FC02BF0C6EC04
:102AC00029F03CC022F03DC023F03EC024F03FC0BE
:102AD00025F0B40E266E1BEC21F05A50020D3C0E70
:102AE000F324D96E010EF420DA6E030EDE6E000EB2
:102AF000DD6E5A2A040E4218D8A481EF15F083EF38
:102B000015F0A6EF15F03CC028F03DC029F03EC0FE
:102B10002AF03FC02BF0E7EC29F03CC022F03DC08A
:102B200023F03EC024F03FC025F05A0E266E5BEC29
:102B300020F05A50020D3C0EF324D96E010EF42001
:102B4000DA6E040EDE6E000EDD6E5A2A050E421895
:102B5000D8A4ADEF15F0AFEF15F0D2EF15F03CC0F3
:102B600028F03DC029F03EC02AF03FC02BF0E7EC32
:102B700029F03CC022F03DC023F03EC024F03FC00D
:102B800025F05A0E266E1BEC21F05A50020D3C0E19
:102B9000F324D96E010EF420DA6E050EDE6E000EFF
:102BA000DD6E5A2A060E4218D8A4D9EF15F0DBEFD5
:102BB00015F0FEEF15F03CC028F03DC029F03EC0F6
:102BC0002AF03FC02BF0C6EC29F03CC022F03DC0FB
:102BD00023F03EC024F03FC025F0870E266E5BEC4C
:102BE00020F05A50020D3C0EF324D96E010EF42051
:102BF000DA6E060EDE6E000EDD6E5A2A070E4218E1
:102C0000D8A405EF16F007EF16F02AEF16F03CC037
:102C100028F03DC029F03EC02AF03FC02BF0C6ECA2
:102C200029F03CC022F03DC023F03EC024F03FC05C
:102C300025F0870E266E1BEC21F05A50020D3C0E3B
:102C4000F324D96E010EF420DA6E070EDE6E000E4C
:102C5000DD6E5A2A080E4218D8A431EF16F033EF71
:102C600016F047EF16F03CC028F03DC029F03EC0FA
:102C70002AF03FC02BF0C6EC29F03CC034F03DC038
:102C800035F03EC036F03FC037F013EC19F01200BB
:102C900020C038F021C039F022C03AF023C03BF008
:102CA00024C03CF025C03DF026C03EF027C03FF0D8
:102CB0003FBE5DEF16F060EF16F0010E61EF16F00B
:102CC000000E366E376A36503710D8B46AEF16F0F9
:102CD0006CEF16F07CEF16F03F1E3E1E3D1E3C1EB4
:102CE0003B1E3A1E391E386C000E39223A223B2216
:102CF0003C223D223E223F22010195BF82EF16F089
:102D000084EF16F086EF16F00001F593010195BFF0
:102D100094EF16F0955106E19405D8B092EF16F0B5
:102D200094EF16F09AEF16F0000E336E010E326E2D
:102D30009EEF16F094C132F095C133F092C134F099
:102D400093C135F036503710D8A4A9EF16F0ABEF89
:102D500016F0B3EF16F00001F5A5B1EF16F0B3EFE2
:102D600016F0B6EF16F03406D8A03506000E416E08
:102D70001F0E406E000E0101BC6F3BEF17F04006C6
:102D8000D8A041069D0E4024D96E010E4120DA6E76
:102D900038C003F039C004F03AC005F03BC006F07B
:102DA0003CC007F03DC008F03EC009F03FC00AF04B
:102DB0000A0E0B6E000E0C6E000E0D6E000E0E6EE7
:102DC000000E0F6E000E106E000E116E000E126ED1
:102DD000DBEC21F003C028F004C029F005C02AF084
:102DE00006C02BF007C02CF008C02DF009C02EF053
:102DF0000AC02FF028C015F02AC016F008EC2AF0FF
:102E00001550300FDF6E3206D8A033063406D8A036
:102E1000350638C003F039C004F03AC005F03BC0B5
:102E200006F03CC007F03DC008F03EC009F03FC0CE
:102E30000AF00A0E0B6E000E0C6E000E0D6E000EE8
:102E40000E6E000E0F6E000E106E000E116E000E54
:102E5000126E97EC1FF003C038F004C039F005C0C3
:102E60003AF006C03BF007C03CF008C03DF009C096
:102E70003EF00AC03FF041BE46EF17F0415008E176
:102E80004004D8A046EF17F048EF17F079EF17F09D
:102E9000385039103A103B103C103D103E103F1096
:102EA000D8A455EF17F057EF17F0BFEF16F033BE69
:102EB00064EF17F0335006E13204D8B062EF17F038
:102EC00064EF17F0BFEF16F035BE6FEF17F0355017
:102ED00008E13404D8A06FEF17F071EF17F079EF25
:102EE00017F00001F5B377EF17F079EF17F0BFEFA8
:102EF00016F036503710D8A480EF17F082EF17F095
:102F00008AEF17F00001F5A588EF17F08AEF17F0A8
:102F1000A8EF17F04006D8A0410636503710D8A4C5
:102F200094EF17F096EF17F09CEF17F0000E316E4C
:102F30002B0E306EA0EF17F0000E316E2D0E306E9E
:102F40009D0E4024D96E010E4120DA6E30C0DFFFA5
:102F50001EC013F01FC014F09D0E4024156E010E0C
:102F60004120166E34C017F035C018F0F5EC24F08F
:102F700013C01EF014C01FF01200076E000E066E84
:102F8000000E066E09EF19F00704D8A4CAEF17F077
:102F9000CCEF17F004EF18F080A2D1EF17F0D5EFC7
:102FA00017F0046A042AD6EF17F0046A044680502A
:102FB0000418FD0B0418806E290E056E960E046E23
:102FC0007F0EE82EFED7042EFCD7052EFAD700F090
:102FD00080A2EDEF17F0F1EF17F0046A042AF2EF88
:102FE00017F0046A044680500418FD0B0418806E24
:102FF000290E056E960E046E7F0EE82EFED7042E67
:10300000FCD7052EFAD700F0020E0718D8A40BEF54
:1030100018F00DEF18F045EF18F07CA812EF18F03B
:1030200016EF18F0046A042A17EF18F0046A043A3D
:103030007C500418EF0B04187C6E290E056E960E5A
:10304000046E7F0EE82EFED7042EFCD7052EFAD78D
:1030500000F07CA82EEF18F032EF18F0046A042A72
:1030600033EF18F0046A043A7C500418EF0B04188C
:103070007C6E290E056E960E046E7F0EE82EFED72E
:10308000042EFCD7052EFAD700F0030E0718D8A49B
:103090004CEF18F04EEF18F08AEF18F07CA653EFC3
:1030A00018F057EF18F0046A042A58EF18F0046A71
:1030B0000446044604467C500418F70B04187C6E42
:1030C000290E056E960E046E7F0EE82EFED7042E96
:1030D000FCD7052EFAD700F07CA671EF18F075EF3B
:1030E00018F0046A042A76EF18F0046A04460446CD
:1030F00004467C500418F70B04187C6E290E056EEC
:10310000960E046E7F0EE82EFED7042EFCD7052EF9
:10311000FAD700F0040E0718D8A491EF18F093EF37
:1031200018F0C9EF18F07EA098EF18F09CEF18F097
:10313000046A042A9DEF18F0046A7E500418FE0BFE
:1031400004187E6E290E056E960E046E7F0EE82E14
:10315000FED7042EFCD7052EFAD700F07EA0B3EFE1
:1031600018F0B7EF18F0046A042AB8EF18F0046AF0
:103170007E500418FE0B04187E6E290E056E960E06
:10318000046E7F0EE82EFED7042EFCD7052EFAD74C
:1031900000F0030E0718D8A4D0EF18F0D2EF18F003
:1031A00008EF19F080A0D7EF18F0DBEF18F0046AF1
:1031B000042ADCEF18F0046A80500418FE0B04188F
:1031C000806E290E056E960E046E7F0EE82EFED7D9
:1031D000042EFCD7052EFAD700F080A0F2EF18F0ED
:1031E000F6EF18F0046A042AF7EF18F0046A80502A
:1031F0000418FE0B0418806E290E056E960E046EE0
:103200007F0EE82EFED7042EFCD7052EFAD700F04D
:10321000062A0350065CD8A010EF19F012EF19F03F
:10322000C4EF17F0120034C022F035C023F036C0CE
:1032300024F037C025F0B40E266E1BEC21F053EFBE
:103240001AF034C01CF035C01DF036C01EF037C077
:103250001FF032EC27F0000E3B6E000E3A6E3FEF8F
:1032600019F0520E396E2B0E386E000EE82EFED776
:10327000382EFCD7392EFAD700D03A4A3B2A5A507A
:10328000020D3C0EF324D96E010EF420DA6EDE50EE
:103290003A5CDE503B58D8A050EF19F052EF19F0CD
:1032A00031EF19F034C01CF035C01DF036C01EF0EF
:1032B00037C01FF07CEC26F05A50D8A462EF19F00A
:1032C00064EF19F066EF19F05BEF1AF05A065A50E6
:1032D000020D3C0EF324D96E010EF420DA6EDE04EA
:1032E000DE10D8A476EF19F078EF19F085EF19F019
:1032F00034C022F035C023F036C024F037C025F0AA
:103300005A0E266E1BEC21F05A065A50020D3C0E46
:10331000F324D96E010EF420DA6E020EDE18DE10F0
:10332000D8A495EF19F097EF19F0A4EF19F034C075
:1033300022F035C023F036C024F037C025F05A0EF5
:10334000266E5BEC20F05A065A50020D3C0EF32418
:10335000D96E010EF420DA6E030EDE18DE10D8A44A
:10336000B4EF19F0B6EF19F0C3EF19F034C022F042
:1033700035C023F036C024F037C025F0B40E266ED9
:103380001BEC21F05A065A50020D3C0EF324D96E64
:10339000010EF420DA6E040EDE18DE10D8A4D3EF8E
:1033A00019F0D5EF19F0ECEF19F034C028F035C062
:1033B00029F036C02AF037C02BF0E7EC29F034C0F2
:1033C00022F035C023F036C024F037C025F05A0E65
:1033D000266E1BEC21F05A065A50020D3C0EF324C7
:1033E000D96E010EF420DA6E050EDE18DE10D8A4B8
:1033F000FCEF19F0FEEF19F015EF1AF034C028F0C9
:1034000035C029F036C02AF037C02BF0E7EC29F0A0
:1034100034C022F035C023F036C024F037C025F088
:103420005A0E266E5BEC20F05A065A50020D3C0EE6
:10343000F324D96E010EF420DA6E060EDE18DE10CB
:10344000D8A425EF1AF027EF1AF034EF1AF034C0A1
:1034500022F035C023F036C024F037C025F0870EA7
:10346000266E1BEC21F05A065A50020D3C0EF32436
:10347000D96E010EF420DA6E070EDE18DE10D8A425
:1034800044EF1AF046EF1AF053EF1AF034C022F06E
:1034900035C023F036C024F037C025F0790E266EF3
:1034A0005BEC20F05A065A50D8A459EF1AF05BEFA3
:1034B0001AF021EF19F012002EEC2BF0020E036E21
:1034C000010EBDEC17F0290E116E960E106E7F0ED8
:1034D000E82EFED7102EFCD7112EFAD700F01EECE6
:1034E0002BF09FEC28F00EC0D9FF0FC0DAFF07C009
:1034F000DEFF08C0DDFFC7EC28F020EE02F00E5022
:10350000D9260F50DA2207C0DEFF08C0DDFFEFEC3E
:1035100028F020EE04F00E50D9260F50DA2207C012
:10352000DEFF08C0DDFF090E116E1E0E106EE40EE8
:10353000E82EFED7102EFCD7112EFAD700D03EEC85
:103540002BF09FEC28F020EE06F00E50D9260F50FD
:10355000DA2207C0DEFF08C0DDFFC7EC28F020EE4E
:1035600008F00E50D9260F50DA2207C0DEFF08C03F
:10357000DDFFEFEC28F020EE0AF00E50D9260F50B8
:10358000DA2207C0DEFF08C0DDFF090E116E1E0E35
:10359000106EE40EE82EFED7102EFCD7112EFAD7AF
:1035A00000D04EEC2BF09FEC28F020EE0CF00E50EB
:1035B000D9260F50DA2207C0DEFF08C0DDFFC7ECB6
:1035C00028F020EE0EF00E50D9260F50DA2207C058
:1035D000DEFF08C0DDFFEFEC28F020EE10F00E500B
:1035E000D9260F50DA2207C0DEFF08C0DDFF090E22
:1035F000116E1E0E106EE40EE82EFED7102EFCD7B4
:10360000112EFAD700D05EEC2BF09FEC28F020EEC4
:1036100012F00E50D9260F50DA2207C0DEFF08C084
:10362000DDFFC7EC28F020EE14F00E50D9260F5025
:10363000DA2207C0DEFF08C0DDFFEFEC28F020EE45
:1036400016F00E50D9260F50DA2207C0DEFF08C050
:10365000DDFF17EC29F020EE18F00E50D9260F50A0
:10366000DA2207C0DEFF08C0DDFF290E116E960EBC
:10367000106E7F0EE82EFED7102EFCD7112EFAD733
:1036800000F02EEC2BF0290E116E960E106E7F0EB0
:10369000E82EFED7102EFCD7112EFAD700F0020E1E
:1036A000036E010EBDEC17F0120020EE01F0115078
:1036B000D9261250DA22DF50D8B461EF1BF063EF45
:1036C0001BF094EF1BF011C0D9FF12C0DAFFDF50DE
:1036D000136E1350036E046A20EE07F01150D926C2
:1036E0001250DA22DECF05F0DDCF06F00BEC2BF026
:1036F00003C009F004C00AF0000E0C6E640E0B6EDD
:10370000BAEC25F020EE07F01150D9261250DA223B
:10371000DECF14F0DDCF15F00950145C1A6E0A509C
:1037200015581B6EB7EF1BF011C0D9FF12C0DAFF9E
:10373000DF50136E1350036E046A20EE07F0115031
:10374000D9261250DA22DECF05F0DDCF06F00BECE1
:103750002BF003C009F004C00AF0000E0C6E640EDA
:103760000B6EBAEC25F009C01AF00AC01BF020EE6F
:1037700002F01150D9261250DA22DECF13F0DDCF3D
:1037800014F013C0D9FF14C0DAFF1AC0DFFF20EE17
:1037900001F01150D9261250DA22DF50D8B4D3EFFD
:1037A0001BF0D5EF1BF00AEF1CF020EE04F01150D7
:1037B000D9261250DA22DECF13F0DDCF14F013C079
:1037C000D9FF14C0DAFF10EE04F01150E1261250B8
:1037D000E222E6CF15F0E5CF16F015C0E1FF16C0E6
:1037E000E2FFE750176E10EE06F01150E12612507E
:1037F000E222E750186E010E196E182A02EF1CF033
:10380000D8901936182E00EF1CF019501710DF6EE3
:103810003EEF1CF020EE04F01150D9261250DA22AF
:10382000DECF13F0DDCF14F013C0D9FF14C0DAFFE0
:1038300010EE04F01150E1261250E222E6CF15F00E
:10384000E5CF16F015C0E1FF16C0E2FFE750176E96
:1038500010EE06F01150E1261250E222E750186EE9
:10386000010E196E182A37EF1CF0D8901936182E51
:1038700035EF1CF01950FF0A1714DF6E1200000E0E
:103880000001E46F000EE36F000EE86F000EE76FBB
:10389000000EEA6F000EE96F000EE46F000EE36F9A
:1038A0005EEC2BF0DFC00EF0E0C00FF01BEC28F058
:1038B000DFC079F0E0C07AF07CEC27F0090E00015F
:1038C000E26F1E0EE16FE40EE82EFED7E12FFCD76B
:1038D000E22FFAD700F00001E34BE42BE4BF7AEFCC
:1038E0001CF0E45109E1050EE35DD8A07AEF1CF06D
:1038F0007CEF1CF050EF1CF0000ECBEC2AF0000E19
:103900000001E66F000EE56F1EEC2BF0DFC00EF03D
:10391000E0C00FF01BEC28F0DFC079F0E0C07AF0D7
:103920007CEC27F0090E0001E26F1E0EE16FE40E41
:10393000E82EFED7E12FFCD7E22FFAD700F00001E6
:10394000E54BE62BE6BFAEEF1CF0E65109E1050EB4
:10395000E55DD8A0AEEF1CF0B0EF1CF084EF1CF0DA
:10396000000ECBEC2AF0000E0001E86F000EE76FAE
:103970003EEC2BF0DFC00EF0E0C00FF01BEC28F0A7
:10398000DFC079F0E0C07AF07CEC27F0090E00018E
:10399000E26F1E0EE16FE40EE82EFED7E12FFCD79A
:1039A000E22FFAD700F00001E74BE82BE8BFE2EF87
:1039B0001CF0E85109E1050EE75DD8A0E2EF1CF02C
:1039C000E4EF1CF0B8EF1CF0000ECBEC2AF0000E78
:1039D0000001EA6F000EE96F4EEC2BF0DFC00EF035
:1039E000E0C00FF01BEC28F0DFC079F0E0C07AF007
:1039F0007CEC27F0090E0001E26F1E0EE16FE40E71
:103A0000E82EFED7E12FFCD7E22FFAD700F0000115
:103A1000E94BEA2BEABF16EF1DF0EA5109E1050E6A
:103A2000E95DD8A016EF1DF018EF1DF0ECEF1CF0CB
:103A3000010ECBEC2AF05EEC2BF0120044C0D9FF53
:103A400045C0DAFFDECFF6FFDDCFF7FF0800F55007
:103A5000250AD8A42EEF1DF030EF1DF0DCEF1DF08D
:103A600044C0D9FF45C0DAFFDE2A000EDD22000E79
:103A70000101936F000E926F92C1F5F093C1F6F0C1
:103A80009469956944C0D9FF45C0DAFFDECFF6FFDF
:103A9000DDCFF7FF0800F550640AD8B452EF1DF0EF
:103AA00054EF1DF066EF1DF044C0D9FF45C0DAFFAA
:103AB000DECFF6FFDDCFF7FF0800F550690AD8A486
:103AC00064EF1DF066EF1DF0A6EF1DF044C0D9FFB6
:103AD00045C0DAFFDE2A000EDD2246C0D9FF47C00E
:103AE000DAFFDFCF48F0020EDE26DFCF49F0000E0E
:103AF000DD2248C0D9FF49C0DAFFDECF4AF0DDCF72
:103B00004BF0000E4BBEFF0E4C6E4D6E4E6E4F6E68
:103B1000506E516E42C01EF043C01FF04AC020F0EC
:103B20004BC021F04CC022F04DC023F04EC024F019
:103B30004FC025F050C026F051C027F048EC16F0D9
:103B40001EC042F01FC043F0F7EF1DF044C0D9FF84
:103B500045C0DAFFDECFF6FFDDCFF7FF0800F550F6
:103B6000250AD8A4B6EF1DF0B8EF1DF0CFEF1DF079
:103B700044C0D9FF45C0DAFFDE2A000EDD22000E68
:103B8000046E250E036E42C005F043C006F090ECB3
:103B900024F0000E436E010E426EF7EF1DF044C09C
:103BA000D9FF45C0DAFFDE2A000EDD22000E436E8B
:103BB000000E426EF7EF1DF044C0D9FF45C0DAFF9A
:103BC000DECFF6FFDDCFF7FF0800F550036E046A85
:103BD00042C005F043C006F090EC24F044C0D9FF89
:103BE00045C0DAFFDE2A000EDD22C9EF1DF012000B
:103BF0000B6E0B50D8B4FFEF1DF001EF1EF023EF5A
:103C00001EF006BE08EF1EF006EF1EF023EF1EF0BA
:103C100003C007F004C008F005C009F006C00AF0B0
:103C2000071E081E091E0A1E072A000E0822092266
:103C30000A2207C00DF008C00EF009C00FF00AC03C
:103C400010F02BEF1EF003C00DF004C00EF005C005
:103C50000FF006C010F00350041005100610D8A491
:103C600034EF1EF036EF1EF040EF1EF0000E036E34
:103C7000000E046E000E056E000E066ED1EF1EF0F3
:103C8000960E0C6E4AEF1EF00C2AD89010320F32AE
:103C90000E320D32000E0D14076E000E0E14086E5B
:103CA000000E0F14096EFE0E10140A6E0750081055
:103CB00009100A10D8A45FEF1EF061EF1EF044EF68
:103CC0001EF06FEF1EF00C2A010E0D26000E0E22C4
:103CD0000F221022D89010320F320E320D32000E09
:103CE0000D14076E000E0E14086E000E0F14096EF0
:103CF000FF0E10140A6E0750081009100A10D8A4FD
:103D000084EF1EF086EF1EF063EF1EF08EEF1EF0C4
:103D10000C06D8900D360E360F3610360FBE93EFC8
:103D20001EF095EF1EF09DEF1EF0020E0C609BEF53
:103D30001EF09DEF1EF088EF1EF00CB0A2EF1EF0FB
:103D4000A4EF1EF0A5EF1EF00F9ED8900C320CC011
:103D500007F0086A096A0A6A07C00AF0096A086A6D
:103D6000076A07500D1208500E1209500F120A5020
:103D700010120B50D8B4BFEF1EF0C1EF1EF0C9EF08
:103D80001EF006BEC8EF1EF0C6EF1EF0C9EF1EF013
:103D9000108E0DC003F00EC004F00FC005F010C06F
:103DA00006F012000101C26F000E0101BF6F000E8C
:103DB000C16F000EBE6F000EBD6F020EC219D8A4F7
:103DC000E4EF1EF0E6EF1EF0ECEF1EF0EDC00EF09B
:103DD000EEC00FF05CEC1AF0040E0101C219D8A479
:103DE000F4EF1EF0F6EF1EF000EF1FF0EBC07AF0DC
:103DF000ECC07BF08DEC22F07AC0BDF17BC0BEF14F
:103E00000101C205D8A407EF1FF009EF1FF017EF5B
:103E10001FF05EEC2BF0EBC00EF0ECC00FF01BECD3
:103E200028F0EBC079F0ECC07AF07CEC27F0020EC1
:103E30000101C219D8A41FEF1FF021EF1FF030EFCE
:103E40001FF0EBC080F0ECC081F0EDC082F0EEC05E
:103E500083F00AEC07F00101C06FC051CBEC2AF0EF
:103E6000030E0101C219D8A438EF1FF03AEF1FF07A
:103E70004DEF1FF045EF1FF0EBC0DFF0ECC0E0F0BE
:103E80003FEC1CF0010E0101BF6FBF51D8B44BEFE6
:103E90001FF04DEF1FF03CEF1FF0040EC219D8A425
:103EA00054EF1FF056EF1FF000EF1FF072EF1FF0FE
:103EB000EFC01CF0F0C01DF0F1C01EF0F2C01FF00A
:103EC00032EC27F0EFC07AF0F0C07BF0F1C07CF06C
:103ED000F2C07DF0BDC17EF0BEC17FF058EC25F090
:103EE0000101C16FC151D8B478EF1FF07AEF1FF014
:103EF00058EF1FF0EFC01CF0F0C01DF0F1C01EF035
:103F0000F2C01FF07CEC26F0520E0001F46F2B0E75
:103F1000F36F000EE82EFED7F32FFCD7F42FFAD75D
:103F200000F0000E0101C16F00EF1FF01200000E43
:103F3000146E12BEA0EF1FF09EEF1FF0B2EF1FF045
:103F4000121E111E101E0F1E0E1E0D1E0C1E0B6CBF
:103F5000000E0C220D220E220F22102211221222FC
:103F6000010E146E0ABEB9EF1FF0B7EF1FF0CBEFD2
:103F70001FF00A1E091E081E071E061E051E041E2F
:103F8000036C000E042205220622072208220922C1
:103F90000A22010E141A20EE15F0070EDE6AE8065A
:103FA000FDE20B500C100D100E100F101010111020
:103FB0001210D8B4DEEF1FF0E0EF1FF032EF20F068
:103FC000010E136EEEEF1FF0D8900B360C360D3647
:103FD0000E360F36103611361236132A12AEF3EFA4
:103FE0001FF0F5EF1FF0E4EF1FF0D89015361636EE
:103FF0001736183619361A361B361C360B50035C2A
:104000000C5004580D5005580E5006580F500758C4
:10401000105008581150095812500A58D8A013EFE0
:1040200020F015EF20F026EF20F00B50035E0C502F
:10403000045A0D50055A0E50065A0F50075A105088
:10404000085A1150095A12500A5A1580D890123243
:10405000113210320F320E320D320C320B32132E5F
:10406000F5EF1FF01450D8B438EF20F03AEF20F0FD
:104070004AEF20F01C1E1B1E1A1E191E181E171EAA
:10408000161E156C000E16221722182219221A224B
:104090001B221C2215C003F016C004F017C005F047
:1040A00018C006F019C007F01AC008F01BC009F0CC
:1040B0001CC00AF0120020EE01F02250D926235035
:1040C000DA22010EDF6E20EE01F02450D9262550B1
:1040D000DA22010EDF6E8CEF20F022C0D9FF23C060
:1040E000DAFF050EDF2624C0D9FF25C0DAFF000E57
:1040F000DF6E22C011F023C012F055EC1BF024C07B
:1041000011F025C012F055EC1BF0D00E276ECA0E30
:10411000E82EFED7272EFCD722C0D9FF23C0DAFF16
:10412000180EDF6496EF20F098EF20F06DEF20F08E
:1041300026500001FA03F3CF32F0F4CF33F00A0E29
:104140003224286E000E3320296E140E32242A6E7B
:10415000000E33202B6EB40E2618D8A4B2EF20F038
:10416000B4EF20F0CFEF20F0000E2D6E000E2C6E7D
:10417000C4EF20F0150E276EC60EE82EFED7272EB0
:10418000FCD700D02C4A2D2A2A502C5C2B502D58BD
:10419000D8A0CDEF20F0CFEF20F0BAEF20F0870EBF
:1041A0002618D8A4D6EF20F0D8EF20F0F5EF20F0B5
:1041B000000E2F6E000E2E6EE8EF20F0150E276E0B
:1041C000C60EE82EFED7272EFCD700D02E4A2F2A67
:1041D00028502E5C29502F58D8A0F1EF20F0F3EF93
:1041E00020F0DEEF20F010EF21F0000E316E000E17
:1041F000306E05EF21F0150E276EC60EE82EFED7A5
:10420000272EFCD700D0304A312A3250305C335050
:104210003158D8A00EEF21F010EF21F0FBEF20F085
:1042200022C01CF023C01DF024C01EF025C01FF0CA
:104230007CEC26F0120020EE01F02250D92623500B
:10424000DA22010EDF6E20EE01F02450D92625502F
:10425000DA22010EDF6E4CEF21F024C0D9FF25C019
:10426000DAFF050EDF2622C0D9FF23C0DAFF000ED9
:10427000DF6E22C011F023C012F055EC1BF024C0F9
:1042800011F025C012F055EC1BF0D00E276ECA0EAF
:10429000E82EFED7272EFCD724C0D9FF25C0DAFF91
:1042A000180EDF6456EF21F058EF21F02DEF21F0CA
:1042B00026500001FA03F3CF32F0F4CF33F00A0EA8
:1042C0003224286E000E3320296E140E32242A6EFA
:1042D000000E33202B6EB40E2618D8A472EF21F0F6
:1042E00074EF21F08FEF21F0000E2D6E000E2C6E7A
:1042F00084EF21F0150E276EC60EE82EFED7272E6E
:10430000FCD700D02C4A2D2A2A502C5C2B502D583B
:10431000D8A08DEF21F08FEF21F07AEF21F0870EFA
:104320002618D8A496EF21F098EF21F0B5EF21F0F0
:10433000000E2F6E000E2E6EA8EF21F0150E276EC8
:10434000C60EE82EFED7272EFCD700D02E4A2F2AE5
:1043500028502E5C29502F58D8A0B1EF21F0B3EF90
:1043600021F09EEF21F0D0EF21F0000E316E000E13
:10437000306EC5EF21F0150E276EC60EE82EFED763
:10438000272EFCD700D0304A312A3250305C3350CF
:104390003158D8A0CEEF21F0D0EF21F0BBEF21F0C3
:1043A00022C01CF023C01DF024C01EF025C01FF049
:1043B0007CEC26F01200000E146E0ABEE4EF21F031
:1043C000E2EF21F0F6EF21F00A1E091E081E071E7B
:1043D000061E051E041E036C000E04220522062282
:1043E0000722082209220A22010E146E12BEFDEFD6
:1043F00021F0FBEF21F00DEF22F0121E111E101E16
:104400000F1E0E1E0D1E0C1E0B6C000E0C220D221C
:104410000E220F221022112212220B500C100D100E
:104420000E100F10101011101210D8B41AEF22F045
:104430001CEF22F064EF22F0010E136E2AEF22F03F
:10444000D8900B360C360D360E360F361036113628
:104450001236132A12AE2FEF22F031EF22F020EFA6
:1044600022F00B50035C0C5004580D5005580E50B0
:1044700006580F500758105008581150095812503C
:104480000A58D8A046EF22F048EF22F058EF22F069
:104490000B50035E0C50045A0D50055A0E50065A2C
:1044A0000F50075A1050085A1150095A12500A5A00
:1044B000D8901232113210320F320E320D320C32CD
:1044C0000B32132E31EF22F01450D8B46AEF22F0E1
:1044D0006CEF22F07CEF22F00A1E091E081E071E58
:1044E000061E051E041E036C000E04220522062271
:1044F0000722082209220A2203C003F004C004F0A4
:1045000005C005F006C006F007C007F008C008F0B7
:1045100009C009F00AC00AF01200000E0001836F02
:10452000000E826F000E856F000E846F000E7D6F8F
:10453000000E7C6F020E036E020EBDEC17F05EECF7
:104540002BF0290E526E960E516E7F0EE82EFED77E
:10455000512EFCD7522EFAD700F017EC29F007C0E5
:1045600080F008C081F0110E526E3C0E516ECB0EE1
:10457000E82EFED7512EFCD7522EFAD700F017ECBA
:1045800029F007C082F008C083F0110E526E3C0E75
:10459000516ECB0EE82EFED7512EFCD7522EFAD7F5
:1045A00000F017EC29F007C084F008C085F0110E68
:1045B000526E3C0E516ECB0EE82EFED7512EFCD71C
:1045C000522EFAD700F0000182518025516E83519E
:1045D0008121526E845151268551522251C003F0DF
:1045E00052C004F0056A066A000EF8EC1DF003C024
:1045F00011F004C012F005C013F006C014F0000E54
:10460000156E000E166E400E176E400E186EF9EC09
:1046100012F011C076F012C077F013C078F014C019
:1046200079F045EC2AF076C07EF077C07FF0020E7C
:10463000036E020EBDEC17F07EC07AF07FC07BF0F7
:104640001200000174357535506E5050D8A42BEF10
:1046500023F02DEF23F037EF23F0000E726F000EE2
:10466000736F000E746F000E756FA4EF23F072C0AD
:104670004BF073C04CF074C04DF075C04EF0200E7E
:1046800047EF23F0D8904E324D324C324B32E82E69
:1046900042EF23F04B504F6E748FFF0E7217FF0ED8
:1046A0007317FF0E7417000E7517960E505E50BEEE
:1046B0005EEF23F05CEF23F074EF23F05050800A9C
:1046C000970FD8B066EF23F068EF23F06AEF23F07E
:1046D0002DEF23F0D8907533743373337233503E1B
:1046E0006AEF23F08CEF23F01F0E50647AEF23F073
:1046F0007CEF23F084EF23F02DEF23F0D890723776
:1047000073377437753750065050D8A48AEF23F0AA
:104710008CEF23F07EEF23F04F50D8B492EF23F0CC
:1047200094EF23F09CEF23F0751F741F731F726DBD
:10473000000E73237423752372C072F073C073F07C
:1047400074C074F075C075F01200000E03140B6E87
:10475000000E04140C6E800E05140D6E7F0E0614F0
:104760000E6E0B500C100D100E10D8A4BAEF23F0E3
:10477000BCEF23F0C4EF23F0000E036E000E046EB6
:10478000000E056E000E066E000E07140B6E000E76
:1047900008140C6E800E09140D6E7F0E0A140E6E36
:1047A0000B500C100D100E10D8A4D9EF23F0DBEF36
:1047B00023F0E3EF23F0000E076E000E086E000EEC
:1047C000096E000E0A6E06AEE8EF23F0EAEF23F062
:1047D000F3EF23F0036C041ED8B0042A051ED8B0F2
:1047E000052A800E06560AAEF8EF23F0FAEF23F002
:1047F00003EF24F0076C081ED8B0082A091ED8B0B1
:10480000092A800E0A56000E031A000E041A000E22
:10481000051A800E061A000E071A000E081A000E5E
:10482000091A800E0A1A0750035C085004580950F0
:1048300005580A500658D8B020EF24F022EF24F093
:1048400025EF24F0D89026EF24F0D880120003C082
:10485000D9FF04C0DAFF000EDF6E20EE01F0035036
:10486000D9260450DA22010EDF6E20EE02F003504A
:10487000D9260450DA22A30EDE6E0F0EDD6E20EE76
:1048800004F00350D9260450DA227D0EDE6E0F0E9E
:10489000DD6E20EE06F00350D9260450DA22040E15
:1048A000DF6E20EE07F00350D9260450DA22C70E3F
:1048B000DE6E000EDD6E05C0D9FF06C0DAFF000E09
:1048C000DF6E20EE01F00550D9260650DA22010EE7
:1048D000DF6E20EE02F00550D9260650DA22A00E37
:1048E000DE6E0F0EDD6E20EE04F00550D926065068
:1048F000DA227F0EDE6E0F0EDD6E20EE06F0055022
:10490000D9260650DA22060EDF6E20EE07F005509B
:10491000D9260650DA22C70EDE6E000EDD6E1200BA
:1049200005500610D8B497EF24F099EF24F0A2EFC9
:1049300024F005500610D8A4A0EF24F0A2EF24F034
:10494000A7EF24F00350E1EC2BF0F4EF24F020EE7D
:1049500009F00550D9260650DA22DE50DE10D8B410
:10496000B4EF24F0B6EF24F0D1EF24F020EE09F0FC
:104970000550D9260650DA2210EE03F00550E12644
:104980000650E222DE50E65CE650800A0B6EDE50F6
:10499000800A0B58D8B0CFEF24F0D1EF24F0F4EF19
:1049A00024F020EE03F00550D9260650DA22DECF9F
:1049B00007F0DDCF08F005C0D9FF06C0DAFFDECF73
:1049C00009F0DDCF0AF007500924D96E08500A20FB
:1049D000DA6E03C0DFFF20EE03F00550D926065043
:1049E000DA22DE2A000EDD2212000001F5A1FBEF23
:1049F00024F0FDEF24F007EF25F015C00CF016C0F1
:104A00000DF013C00EF014C00FF062EC29F018BEC8
:104A10000CEF25F00EEF25F014EF25F017C01CF079
:104A200018C01DF018EF25F0000E1D6E000E1C6E54
:104A3000000E1B6E000E1A6E2AEF25F0000E046E9B
:104A4000200E036E13C005F014C006F090EC24F0A5
:104A50001A4A1B2A1C501A5C1B50800A196E1D50E2
:104A6000800A1958D8A037EF25F039EF25F01EEF4E
:104A700025F00001F5B13FEF25F041EF25F04BEFB8
:104A800025F015C00CF016C00DF013C00EF014C0C8
:104A90000FF062EC29F015C003F016C004F07EECB4
:104AA0002AF01C500324136E1D500420146E1200B3
:104AB000000E0001816F000E806F000E8A6F000EE5
:104AC000896F000E886F5EEC2BF0090E526E1E0E81
:104AD000516EE40EE82EFED7512EFCD7522EFAD797
:104AE00000D017EC29F007C086F008C087F0C7ECAB
:104AF00028F07EC003F07FC004F0056A066A000E4D
:104B0000F8EC1DF003C02AF004C02BF005C02CF017
:104B100006C02DF0660E2E6E660E2F6E860E306E5F
:104B20003F0E316E0BEC0FF02AC082F02BC083F0E9
:104B30002CC084F02DC085F082C076F083C077F061
:104B400084C078F085C079F045EC2AF076C088F012
:104B500077C089F000018851865D89518759D8A0B6
:104B6000B4EF25F0B6EF25F0B8EF25F0010E8A6F0F
:104B70008A511200000E0E6E0CBEC3EF25F0C1EF7D
:104B800025F0C9EF25F00B6C0C1ED8B00C2A010ED5
:104B90000E6E0ABED0EF25F0CEEF25F0D6EF25F051
:104BA000096C0A1ED8B00A2A010E0E1A000E106EE9
:104BB000000E0F6E0B500C10D8B4E1EF25F0E3EFB0
:104BC00025F00BEF26F0010E0D6EEBEF25F0D890DF
:104BD0000B360C360D2A0CAEF0EF25F0F2EF25F077
:104BE000E7EF25F0D8900F3610360B50095C0C50CB
:104BF0000A58D8A0FEEF25F000EF26F005EF26F0CA
:104C00000B50095E0C500A5A0F80D8900C320B32B0
:104C10000D2EF2EF25F00E50D8B411EF26F013EF61
:104C200026F017EF26F00F6C101ED8B0102A0FC018
:104C300009F010C00AF0120020EE01F02250D9262F
:104C40002350DA22000EDF6E20EE01F02450D92628
:104C50002550DA22000EDF6E4DEF26F022C0D9FF7C
:104C600023C0DAFF0A0EDF2624C0D9FF25C0DAFFF1
:104C70000A0EDF2622C011F023C012F055EC1BF003
:104C800024C011F025C012F055EC1BF0D00E266E9A
:104C9000CA0EE82EFED7262EFCD722C0D9FF23C08D
:104CA000DAFF320EDF6057EF26F059EF26F065EF9E
:104CB00026F024C0D9FF25C0DAFF310EDF6463EF90
:104CC00026F065EF26F02EEF26F0290E276E960EC1
:104CD000266E7F0EE82EFED7262EFCD7272EFAD77B
:104CE00000F022C01CF023C01DF024C01EF025C01F
:104CF0001FF07CEC26F01200B5EF26F01CC0D9FFA7
:104D00001DC0DAFFDF50D8B488EF26F08AEF26F016
:104D100090EF26F01CC0D9FF1DC0DAFF050EDF5E44
:104D20001EC0D9FF1FC0DAFFDF50D8B49AEF26F0BB
:104D30009CEF26F0A2EF26F01EC0D9FF1FC0DAFFBD
:104D4000050EDF5E1CC011F01DC012F055EC1BF00B
:104D50001EC011F01FC012F055EC1BF0D00E206EDB
:104D6000CA0EE82EFED7202EFCD71CC0D9FF1DC0CE
:104D7000DAFFDF50D8A4BFEF26F0C1EF26F07EEFB8
:104D800026F01EC0D9FF1FC0DAFFDF50D8A4CBEF3A
:104D900026F0CDEF26F07EEF26F0090E216E1E0ED6
:104DA000206EE40EE82EFED7202EFCD7212EFAD757
:104DB00000D012000001A36F050E576E0F0E566E45
:104DC000F10EE82EFED7562EFCD7572EFAD700F05C
:104DD0009BC080F09CC081F09DC082F09EC083F09B
:104DE0000AEC07F0566E56500001A16FA26B050E3B
:104DF000576E0F0E566EF10EE82EFED7562EFCD7CC
:104E0000572EFAD700F09BC080F09CC081F09DC067
:104E100082F09EC083F00AEC07F0566E56500001F7
:104E20009F6FA06BA351566E576AA151561807E1A8
:104E3000A2515718D8A41FEF27F021EF27F030EF29
:104E400027F09F51A11907E1A051A219D8A42BEF77
:104E500027F02DEF27F030EF27F0A35131EF27F0A7
:104E6000000E120020EE01F01C50D9261D50DA224F
:104E7000010EDF6E20EE01F01E50D9261F50DA22FF
:104E8000010EDF6E63EF27F01CC0D9FF1DC0DAFFF3
:104E90000A0EDF261EC0D9FF1FC0DAFF0A0EDF266A
:104EA0001CC011F01DC012F055EC1BF01EC011F01B
:104EB0001FC012F055EC1BF0D00E206ECA0EE82E6B
:104EC000FED7202EFCD71CC0D9FF1DC0DAFF140E60
:104ED000DF606DEF27F06FEF27F07BEF27F01EC04C
:104EE000D9FF1FC0DAFF130EDF6479EF27F07BEFE5
:104EF00027F044EF27F012007B0E0001606F000ED8
:104F0000616F050E626F0E0E636F79C0D9FF7AC0B4
:104F1000DAFFDECF64F0DDCF65F020EE02F07951EC
:104F2000D9267A51DA22DECF66F0DDCF67F020EEA7
:104F300004F07951D9267A51DA22DECF68F0DDCF3C
:104F400069F020EE06F07951D9267A51DA22DECFC7
:104F50006AF0DDCF6BF076EC28F07B0E046E000E6D
:104F6000056EB3EC2AF01200C9EC2BF09DEC2BF08F
:104F7000E2EC2AF099EC2AF0000E046EC70E036EE4
:104F8000A5EC29F0B8EC2BF08EEC2BF06EEC2BF0AE
:104F9000E50E036E010E046EEF0E056E010E066E39
:104FA00027EC24F0C30E0001EB6F010EEC6FCB0E6B
:104FB000ED6F010EEE6FE50EEF6F010EF06FEF0E6D
:104FC000F16F010EF26F020ED2EC1EF0D2EF27F05D
:104FD00024EF00F054C058F055C059F0000E010104
:104FE000916F000E906F08EF28F052C042F053C04E
:104FF00043F0580E446E000E456E56C046F057C042
:1050000047F01EEC1DF042500101902743509123C0
:1050100058C0F6FF59C0F7FF0800F5500009D8A4A2
:1050200014EF28F016EF28F0F5EF27F090C152F0BA
:1050300091C153F012009FEC28F00EC0D9FF0FC0B1
:10504000DAFF07C0DEFF08C0DDFFEFEC28F020EE3E
:1050500004F00E50D9260F50DA2207C0DEFF08C038
:10506000DDFFC7EC28F020EE02F00E50D9260F50DD
:10507000DA2207C0DEFF08C0DDFF17EC29F020EEC2
:1050800006F00E50D9260F50DA2207C0DEFF08C006
:10509000DDFF1200C00EF66E570EF76E000EF86EB2
:1050A0000900F5CFF9F10900F5CFFAF1C40EF66E5B
:1050B000570EF76E000EF86E0900F5CFFAF001EE0C
:1050C00000F0BD0EEE6AE806FDE10001F96BF86B39
:1050D000F76BF66BF56B5B6A5A6A5C905C92000E3C
:1050E000F86E0E0EF76E0001B4EF27F0640E0001AB
:1050F0006C6F000E6D6F60C06EF061C06FF0000EDF
:10510000726F000E716F000E786F000E776F6E0E6B
:10511000526E000E536E62C054F063C055F06C0EB8
:10512000566E000E576EEAEC27F0000171516025B3
:10513000D96E72516121DA6E000EDF6E1200D9EC69
:105140002BF0520EC3EC2BF0B60EC3EC2BF0CFECD1
:105150002BF0530EC3EC2BF0010E84EC29F0096EFA
:1051600009500C6E0D6A000E84EC29F0096E09508E
:105170000B6E0A6A0C500A100C6E0D500B100D6E5F
:10518000D4EC2BF00CC007F00DC008F01200D9ECE5
:105190002BF0520EC3EC2BF0B80EC3EC2BF0CFEC7F
:1051A0002BF0530EC3EC2BF0010E84EC29F0096EAA
:1051B00009500C6E0D6A000E84EC29F0096E09503E
:1051C0000B6E0A6A0C500A100C6E0D500B100D6E0F
:1051D000D4EC2BF00CC007F00DC008F01200D9EC95
:1051E0002BF0520EC3EC2BF0BA0EC3EC2BF0CFEC2D
:1051F0002BF0530EC3EC2BF0010E84EC29F0096E5A
:1052000009500C6E0D6A000E84EC29F0096E0950ED
:105210000B6E0A6A0C500A100C6E0D500B100D6EBE
:10522000D4EC2BF00CC007F00DC008F01200D9EC44
:105230002BF0520EC3EC2BF0B40EC3EC2BF0CFECE2
:105240002BF0530EC3EC2BF0010E84EC29F0096E09
:1052500009500C6E0D6A000E84EC29F0096E09509D
:105260000B6E0A6A0C500A100C6E0D500B100D6E6E
:10527000D4EC2BF00CC007F00DC008F01200000EAB
:10528000171A000E181A000E191A800E1A1A13C0D7
:1052900003F014C004F015C005F016C006F017C0E6
:1052A00007F018C008F019C009F01AC00AF0ABECFA
:1052B0000CF003C013F004C014F005C015F006C0D4
:1052C00016F01200000E126E000E116E73EF29F030
:1052D00010C003F0046A0EC005F00FC006F090EC99
:1052E00024F0114A122A11500C24D96E12500D20AC
:1052F000DA6EDF50106E1050D8A481EF29F083EFE2
:1053000029F068EF29F01200056EF7EC2AF00E0183
:10531000DA87F7EC2AF0D5CE06F0F7EC2AF0055044
:10532000D8B495EF29F099EF29F0046A042A9AEF8E
:1053300029F0046A043A04460E01DA510418DF0B1E
:105340000418DA6FDA89065012008594839E879CD0
:1053500085987D947B9E7F9C7D98BD508F0B3009F6
:10536000BD6EE00EBE16BF50F00B0109BF6EC70E3A
:10537000BC6EBD8E0A0E0E01746F0B0E696F000EAF
:10538000A36E000EA06EA48EA18E120028C022F083
:1053900029C023F02AC024F02BC025F01CEC26F0F5
:1053A000290E2D6E960E2C6E7F0EE82EFED72C2E1B
:1053B000FCD72D2EFAD700F028C01CF029C01DF014
:1053C0002AC01EF02BC01FF07CEC26F0120028C073
:1053D00022F029C023F02AC024F02BC025F01CECB9
:1053E00026F0520E2D6E2B0E2C6E000EE82EFED7E0
:1053F0002C2EFCD72D2EFAD700D028C01CF029C0A7
:105400001DF02AC01EF02BC01FF07CEC26F012000D
:1054100016BE15EF2AF0165006E11504D8B013EFAA
:105420002AF015EF2AF023EF2AF015C017F016C066
:1054300018F0171E181E174A182A17C015F018C0A2
:1054400016F027EF2AF015C015F016C016F012005E
:10545000000E516E00017C517A5D7D517B59D8B0B0
:1054600034EF2AF036EF2AF043EF2AF07C517E5DCC
:105470007D517F59D8A03FEF2AF041EF2AF043EF4A
:105480002AF0010E516E5150120076C043F077C0E1
:1054900044F078C045F079C046F020EC11F043C0EC
:1054A00072F044C073F045C074F046C075F021EC52
:1054B00023F072C076F073C077F074C078F075C0D6
:1054C00079F012000350041005100610D8B46BEFE9
:1054D0002AF06DEF2AF075EF2AF0000E031A000E85
:1054E000041A000E051A800E061A03C003F004C049
:1054F00004F005C005F006C006F0120003C005F078
:1055000004C006F086EF2AF0034A042A03C0D9FF3C
:1055100004C0DAFFDF50D8A490EF2AF092EF2AF00F
:1055200084EF2AF00550035C036E06500458046EA5
:105530001200E2EC2AF0010E056E000E7EEC2BF05C
:105540003F0E076E550EE82EFED7072EFCD700F053
:10555000030E056E000E7EEC2BF0D50E056E010ECF
:105560007EEC2BF01200BEEF2AF004C0D9FF05C07C
:10557000DAFFDF50ACEC2BF0044A052A04C0D9FF57
:1055800005C0DAFFDF50D8A4C8EF2AF0CAEF2AF02E
:10559000B5EF2AF012000001DD6F790E0001606F97
:1055A000000E616F0D0E626F0E0E636FDDC064F052
:1055B000656B76EC28F0790E046E000E056EB3EC88
:1055C0002AF012000E01D951F00B0809D96FD98BBE
:1055D0009F0ED66F848A848CA79BA79D1D0E1D6F7E
:1055E0001E0E1C6F1C0E6F6F1B0E706F12000E01D3
:1055F000D8B5FDEF2AF0FFEF2AF0F7EF2AF0DACE68
:1056000003F01F0E0316D8A408EF2BF00AEF2BF0BF
:10561000F7EF2AF0120003500502F3CF07F0F4CFA2
:1056200008F003500602F350082604500502F35018
:10563000082607C003F008C004F012007F827E9E97
:105640007998110E046E3C0E036ECB0EE82EFED739
:10565000032EFCD7042EFAD700F012007F927E9E14
:105660007998110E046E3C0E036ECB0EE82EFED719
:10567000032EFCD7042EFAD700F012007F927E9EF4
:105680007988110E046E3C0E036ECB0EE82EFED709
:10569000032EFCD7042EFAD700F012007F927E8EE4
:1056A0007998110E046E3C0E036ECB0EE82EFED7D9
:1056B000032EFCD7042EFAD700F012007F827E8ED4
:1056C0007988050E046E0F0E036EF10EE82EFED7DC
:1056D000032EFCD7042EFAD700F0120086840E01A8
:1056E000B4958686B4978792869E81987F827E8EB7
:1056F0007988849E7C9E889680961200066ED9ECEE
:105700002BF0520EC3EC2BF006508009C3EC2BF0AB
:105710000550C3EC2BF0D4EC2BF01200120E0E014E
:10572000626F110E156FE997E895330EE56F000E65
:10573000E66FE789E88BE78F1200D6501F0B400910
:10574000D66ED688D650F00B0809D66ED5880B0ECB
:10575000D46EDB0ED36E1200036E0E0137A5B3EFCD
:105760002BF0B5EF2BF0ADEF2BF003C0E4FE1200F1
:105770008892849884968690889080927C987C9673
:105780007E9080901200046EF7EC2AF004C0D5FEE3
:105790001200F28EF28AF28C0E01298B1200F7ECC5
:1057A0002AF00E01DA831200F7EC2AF00E01DA85F6
:1057B0001200F7EC2AF00E01DA8112005C9211005F
:0557C000140A12000AAA
:020000040020DA
:10000000FF0FFF0FFF0FFF0FFF0FFF0FFF0FFF0F80
:020000040030CA
:0C000000AAFFFFFF9FFFFFFFFFFFFFFFB5
:00000001FF
