:0400000014EF00F009
:100008005F820E0133AB0BEF00F00DEF00F012EF43
:1000180000F001015C4B5D2B0E01339B5F921100D8
:0400280089EF29F043
:100E0000000000004B256409256409256409256458
:100E10000D0A0000000E00017E6F000E7D6F000EB7
:100E20007A6F000E796F000E806F000E7F6F000EDC
:100E3000826F000E816F000E7C6F000E7B6F000EC4
:100E4000886F000E876F000E8D6F000E8C6F000E86
:100E50008A6F000E896F000E846F000E836F000E84
:100E60008B6F90EC2CF071C00CF072C00DF0B9ECEF
:100E700029F073C0D9FF74C0DAFFDECF75F0DDCF83
:100E800076F075C001F076C002F0036A046A000EC5
:100E9000EDEC1EF001C013F002C014F003C015F019
:100EA00004C016F071C0D9FF72C0DAFFDECF77F050
:100EB000DDCF78F077C001F078C002F0036A046AF1
:100EC000000EEDEC1EF001C00FF002C010F003C0E8
:100ED00011F004C012F0E6EC13F00FC028F010C0BF
:100EE00029F011C02AF012C02BF0000E2C6E000E5B
:100EF0002D6EC80E2E6E420E2F6EFAEC0FF028C02B
:100F00008EF029C08FF02AC090F02BC091F08EC0D7
:100F100066F08FC067F090C068F091C069F0B7ECE0
:100F20002BF066C085F067C086F0000120EE02F06D
:100F30007351D9267451DA22DECF75F0DDCF76F009
:100F400075C001F076C002F0036A046A000EEDEC91
:100F50001EF001C013F002C014F003C015F004C06D
:100F600016F0000120EE02F07151D9267251DA22FA
:100F7000DECF77F0DDCF78F077C001F078C002F0F7
:100F8000036A046A000EEDEC1EF001C00FF002C00F
:100F900010F003C011F004C012F0E6EC13F00FC023
:100FA00028F010C029F011C02AF012C02BF0000E5A
:100FB0002C6E000E2D6EC80E2E6E420E2F6EFAECA9
:100FC0000FF028C08EF029C08FF02AC090F02BC0FF
:100FD00091F08EC066F08FC067F090C068F091C04D
:100FE00069F0B7EC2BF066C07DF067C07EF00001C1
:100FF00020EE04F07351D9267451DA22DECF75F059
:10100000DDCF76F075C001F076C002F0036A046AA5
:10101000000EEDEC1EF001C013F002C014F003C08E
:1010200015F004C016F0000120EE04F07151D9262D
:101030007251DA22DECF77F0DDCF78F077C001F0A1
:1010400078C002F0036A046A000EEDEC1EF001C0E5
:101050000FF002C010F003C011F004C012F0E6EC73
:1010600013F00FC028F010C029F011C02AF012C0F0
:101070002BF0000E2C6E000E2D6EC80E2E6E420E42
:101080002F6EFAEC0FF028C08EF029C08FF02AC026
:1010900090F02BC091F08EC066F08FC067F090C0CA
:1010A00068F091C069F0B7EC2BF0050E0001766F87
:1010B0000F0E756FF10EE82EFED7752FFCD7762F29
:1010C000FAD7B0EC2CF071C00CF072C00DF0B9EC96
:1010D00029F0000120EE06F07351D9267451DA226E
:1010E000DECF75F0DDCF76F075C001F076C002F08E
:1010F000036A046A000EEDEC1EF001C013F002C09A
:1011000014F003C015F004C016F071C0D9FF72C00E
:10111000DAFFDECF77F0DDCF78F077C001F078C06E
:1011200002F0036A046A000EEDEC1EF001C00FF03D
:1011300002C010F003C011F004C012F0E6EC13F08E
:101140000FC028F010C029F011C02AF012C02BF0F7
:10115000000E2C6E000E2D6EC80E2E6E420E2F6EDF
:10116000FAEC0FF028C08EF029C08FF02AC090F062
:101170002BC091F08EC066F08FC067F090C068F011
:1011800091C069F0B7EC2BF066C07FF067C080F0CB
:10119000000120EE08F07351D9267451DA22DECF17
:1011A00075F0DDCF76F075C001F076C002F0036A0D
:1011B000046A000EEDEC1EF001C013F002C014F042
:1011C00003C015F004C016F0000120EE02F07151CA
:1011D000D9267251DA22DECF77F0DDCF78F077C0F2
:1011E00001F078C002F0036A046A000EEDEC1EF014
:1011F00001C00FF002C010F003C011F004C012F0E3
:10120000E6EC13F00FC028F010C029F011C02AF04E
:1012100012C02BF0000E2C6E000E2D6EC80E2E6E1E
:10122000420E2F6EFAEC0FF028C08EF029C08FF01E
:101230002AC090F02BC091F08EC066F08FC067F08E
:1012400090C068F091C069F0B7EC2BF066C081F0F7
:1012500067C082F0000120EE0AF07351D926745164
:10126000DA22DECF75F0DDCF76F075C001F076C002
:1012700002F0036A046A000EEDEC1EF001C013F0E8
:1012800002C014F003C015F004C016F0000120EEF7
:1012900004F07151D9267251DA22DECF77F0DDCF1A
:1012A00078F077C001F078C002F0036A046A000E9B
:1012B000EDEC1EF001C00FF002C010F003C011F001
:1012C00004C012F0E6EC13F00FC028F010C029F0B3
:1012D00011C02AF012C02BF0000E2C6E000E2D6EE5
:1012E000C80E2E6E420E2F6EFAEC0FF028C08EF054
:1012F00029C08FF02AC090F02BC091F08EC066F00C
:101300008FC067F090C068F091C069F0B7EC2BF027
:10131000050E0001766F0F0E756FF10EE82EFED7E9
:10132000752FFCD7762FFAD7C0EC2CF071C00CF0DB
:1013300072C00DF0B9EC29F0000120EE0CF07351F1
:10134000D9267451DA22DECF75F0DDCF76F075C084
:1013500001F076C002F0036A046A000EEDEC1EF0A4
:1013600001C013F002C014F003C015F004C016F061
:1013700071C0D9FF72C0DAFFDECF77F0DDCF78F031
:1013800077C001F078C002F0036A046A000EEDEC49
:101390001EF001C00FF002C010F003C011F004C035
:1013A00012F0E6EC13F00FC028F010C029F011C0C5
:1013B0002AF012C02BF0000E2C6E000E2D6EC80EFF
:1013C0002E6E420E2F6EFAEC0FF028C08EF029C060
:1013D0008FF02AC090F02BC091F08EC066F08FC0C5
:1013E00067F090C068F091C069F0B7EC2BF066C070
:1013F00087F067C088F0000120EE0EF07351D92607
:101400007451DA22DECF75F0DDCF76F075C001F0D1
:1014100076C002F0036A046A000EEDEC1EF001C013
:1014200013F002C014F003C015F004C016F0000160
:1014300020EE02F07151D9267251DA22DECF77F018
:10144000DDCF78F077C001F078C002F0036A046A5B
:10145000000EEDEC1EF001C00FF002C010F003C052
:1014600011F004C012F0E6EC13F00FC028F010C029
:1014700029F011C02AF012C02BF0000E2C6E000EC5
:101480002D6EC80E2E6E420E2F6EFAEC0FF028C095
:101490008EF029C08FF02AC090F02BC091F08EC042
:1014A00066F08FC067F090C068F091C069F0B7EC4B
:1014B0002BF066C08CF067C08DF0000120EE10F0BC
:1014C0007351D9267451DA22DECF75F0DDCF76F074
:1014D00075C001F076C002F0036A046A000EEDECFC
:1014E0001EF001C013F002C014F003C015F004C0D8
:1014F00016F0000120EE04F07151D9267251DA2263
:10150000DECF77F0DDCF78F077C001F078C002F061
:10151000036A046A000EEDEC1EF001C00FF002C079
:1015200010F003C011F004C012F0E6EC13F00FC08D
:1015300028F010C029F011C02AF012C02BF0000EC4
:101540002C6E000E2D6EC80E2E6E420E2F6EFAEC13
:101550000FF028C08EF029C08FF02AC090F02BC069
:1015600091F08EC066F08FC067F090C068F091C0B7
:1015700069F0B7EC2BF066C089F067C08AF0000113
:1015800020EE1AF07351D9267451DA22DECF75F0AD
:10159000DDCF76F075C001F076C002F0036A046A10
:1015A000000EEDEC1EF001C013F002C014F003C0F9
:1015B00015F004C016F0000120EE06F07151D92696
:1015C0007251DA22DECF77F0DDCF78F077C001F00C
:1015D00078C002F0036A046A000EEDEC1EF001C050
:1015E0000FF002C010F003C011F004C012F0E6ECDE
:1015F00013F00FC028F010C029F011C02AF012C05B
:101600002BF0000E2C6E000E2D6EC80E2E6E420EAC
:101610002F6EFAEC0FF028C08EF029C08FF02AC090
:1016200090F02BC091F08EC066F08FC067F090C034
:1016300068F091C069F0B7EC2BF066C083F067C02A
:1016400084F0050E0001766F0F0E756FF10EE82E17
:10165000FED7752FFCD7762FFAD7000E00016B6FDF
:10166000000E6A6F87C06CF088C06DF0000E6F6F5F
:10167000460E6E6F9AEC2BF00009D8B442EF0BF0D7
:1016800044EF0BF0B5EF0BF089C001F08AC002F017
:10169000036A046A000EEDEC1EF001C013F002C0F4
:1016A00014F003C015F004C016F000018C51812520
:1016B000756F8D518221766F75C001F076C002F092
:1016C000036A046A000EEDEC1EF001C00FF002C0C8
:1016D00010F003C011F004C012F0E6EC13F00FC0DC
:1016E00028F010C029F011C02AF012C02BF0000E13
:1016F0002C6E000E2D6E480E2E6E430E2F6EFAECE1
:101700000FF028C08EF029C08FF02AC090F02BC0B7
:1017100091F0000E00016B6F000E6A6F8EC066F0D4
:101720008FC067F090C068F091C069F0B7EC2BF003
:1017300066C06CF067C06DF0010E00016F6F9B0E0C
:101740006E6F9AEC2BF00009D8B4A9EF0BF0ABEF59
:101750000BF0B0EF0BF0030E00018B6F27EF0DF0D5
:10176000020E00018B6F27EF0DF0000E00016B6F72
:10177000000E6A6F8CC06CF08DC06DF0000E6F6F44
:101780004B0E6E6F9AEC2BF00009D8B4CAEF0BF039
:10179000CCEF0BF045EF0CF07DC001F07EC002F005
:1017A000036A046A000EEDEC1EF001C013F002C0E3
:1017B00014F003C015F004C016F085C001F086C017
:1017C00002F0036A046A000EEDEC1EF001C00FF097
:1017D00002C010F003C011F004C012F0E6EC13F0E8
:1017E0000FC028F010C029F011C02AF012C02BF051
:1017F000000E2C6E000E2D6EFA0E2E6E430E2F6E06
:10180000FAEC0FF028C08EF029C08FF02AC090F0BB
:101810002BC091F0000E00016B6F000E6A6F8EC03E
:1018200066F08FC067F090C068F091C069F0B7ECC7
:101830002BF066C06CF067C06DF0020E00016F6F98
:101840009E0E6E6F9AEC2BF00009D8B42AEF0CF0C4
:101850002CEF0CF040EF0CF00001805109E15B0E21
:101860007F5DD8A036EF0CF038EF0CF03CEF0CF0B9
:10187000060E8B6F27EF0DF0000E8B6F27EF0DF02C
:10188000010E00018B6F27EF0DF089C001F08AC0B7
:1018900002F0036A046A000EEDEC1EF001C013F0C2
:1018A00002C014F003C015F004C016F000018C5102
:1018B0008725756F8D518821766F75C001F076C0D0
:1018C00002F0036A046A000EEDEC1EF001C00FF096
:1018D00002C010F003C011F004C012F0E6EC13F0E7
:1018E0000FC028F010C029F011C02AF012C02BF050
:1018F000000E2C6E000E2D6EC80E2E6E420E2F6E38
:10190000FAEC0FF028C08EF029C08FF02AC090F0BA
:101910002BC091F0000E00016B6F000E6A6F8EC03D
:1019200066F08FC067F090C068F091C069F0B7ECC6
:101930002BF066C06CF067C06DF0000E00016F6F99
:10194000640E6E6F9AEC2BF00009D8B4AAEF0CF07D
:10195000ACEF0CF0BCEF0CF000018D5109E15B0E17
:101960008C5DD8A0B6EF0CF0B8EF0CF03CEF0CF0AB
:10197000070E8B6F27EF0DF000018C51895D8D51A3
:101980008A59D8B0C6EF0CF0C8EF0CF025EF0DF077
:1019900083C001F084C002F0036A046A000EEDEC1B
:1019A0001EF001C013F002C014F003C015F004C013
:1019B00016F089C001F08AC002F0036A046A000EC2
:1019C000EDEC1EF001C00FF002C010F003C011F0EA
:1019D00004C012F0E6EC13F00FC028F010C029F09C
:1019E00011C02AF012C02BF0000E2C6E000E2D6ECE
:1019F000C80E2E6E420E2F6EFAEC0FF028C08EF03D
:101A000029C08FF02AC090F02BC091F08EC066F0F4
:101A10008FC067F090C068F091C069F0B7EC2BF010
:101A2000000169BF21EF0DF069516811671107E1ED
:101A30005A0E665DD8B01FEF0DF021EF0DF025EFC7
:101A40000DF0040E8B6F27EF0DF0050E8B6F000E5F
:101A50006B6F5A0E6A6F87C06CF088C06DF0000E15
:101A60006F6F6E0E6E6F9AEC2BF00009D8B43BEFDF
:101A70000DF03DEF0DF057EF0DF0000E00016B6F14
:101A80005A0E6A6F8CC06CF08DC06DF0000E6F6FD7
:101A90006E0E6E6F9AEC2BF00009D8B452EF0DF079
:101AA00054EF0DF057EF0DF0080E00018B6F000E94
:101AB00000016B6F000E6A6F87C06CF088C06DF01C
:101AC000000E6F6F190E6E6F9AEC2BF00009D8B4F0
:101AD0006CEF0DF06EEF0DF088EF0DF0000E0001D1
:101AE0006B6F000E6A6F85C06CF086C06DF0000EE3
:101AF0006F6F5A0E6E6F9AEC2BF00009D8B483EF1B
:101B00000DF085EF0DF088EF0DF0000E00018B6FEA
:101B1000080E00018B19D8A490EF0DF092EF0DF094
:101B200097EF0DF0010E016E020EF2EC19F00001BC
:101B30008B5112000450800B0D6E045004240F6E64
:101B400003AEA5EF0DF0A7EF0DF0A8EF0DF00F809D
:101B50000F50D8B4AEEF0DF0B0EF0DF0C5EF0DF0B3
:101B60000F28D8A4B6EF0DF0B8EF0DF0C0EF0DF0D0
:101B7000000E016E000E026E000E036E000E046E6B
:101B8000038E000E046ECDEF0DF0000E016E000E00
:101B9000026E000E036E000E046E0850800B0E6E77
:101BA0000D500E18D8B4D7EF0DF0D9EF0DF0DAEFD5
:101BB0000DF00D8C085008240E6E07AEE2EF0DF00C
:101BC000E4EF0DF0E5EF0DF00E800E50D8B4EBEF22
:101BD0000DF0EDEF0DF002EF0EF00E28D8A4F3EFAC
:101BE0000DF0F5EF0DF0FDEF0DF0000E056E000E9F
:101BF000066E000E076E000E086E078E000E086E51
:101C00000AEF0EF0000E056E000E066E000E076E57
:101C1000000E086E0F500E5CD8B011EF0EF013EFEF
:101C20000EF03AEF0EF00DAC18EF0EF01AEF0EF0CA
:101C30001CEF0EF0800E0D1A0FC010F00EC00FF04A
:101C400010C00EF001C010F005C001F010C005F08A
:101C500002C010F006C002F010C006F003C010F081
:101C600007C003F010C007F004C010F008C004F073
:101C700010C008F0000E106E0F500EC009F00A6A76
:101C8000095E000E0A5A0ABE4FEF0EF00A5009E133
:101C90001A0E095CD8A04FEF0EF051EF0EF088EF4E
:101CA0000EF00150021003100410D8A45AEF0EF0E9
:101CB0005DEF0EF0010E5EEF0EF0000E106E000EE6
:101CC000016E000E026E000E036E000E046E0EC05A
:101CD0000FF091EF0EF010A070EF0EF072EF0EF01B
:101CE00078EF0EF0D89010300109106E7AEF0EF0F8
:101CF000D890103201A07FEF0EF081EF0EF082EF4E
:101D00000EF0108E043404320332023201320F2AF4
:101D10000E500F5CD8A08FEF0EF091EF0EF06BEF2E
:101D20000EF00DBC96EF0EF098EF0EF0D8EF0EF01F
:101D30000F50D8A49EEF0EF0A0EF0EF0AAEF0EF019
:101D4000000E016E000E026E000E036E000E046E99
:101D5000F9EF0FF00550012606500222075003222A
:101D60000850042204A0B7EF0EF0B9EF0EF065EFB3
:101D70000FF010A0BEEF0EF0C0EF0EF0C6EF0EF0A9
:101D8000D89010300109106EC8EF0EF0D8901032C4
:101D900001A0CDEF0EF0CFEF0EF0D0EF0EF0108ED1
:101DA000043404320332023201320F2A65EF0FF09D
:101DB0000550015C06500258075003580450800A31
:101DC000096E0850800A0958D8B0E9EF0EF0EBEF21
:101DD0000EF016EF0FF00150055C096E0250065828
:101DE0000A6E035007580B6E045008580C6EFF0E15
:101DF0000924016EFF0E0A20026EFF0E0B20036EF7
:101E0000FF0E0C20046E800E0D1A106C1050D8A41A
:101E10000CEF0FF00EEF0FF01EEF0FF0010E01268A
:101E2000000E0222032204221EEF0FF00550015E75
:101E30000650025A0750035A0850045A0150021023
:101E400003100410D8A427EF0FF029EF0FF05EEF76
:101E50000FF01050D8A42FEF0FF031EF0FF05EEF1E
:101E60000FF0000E016E000E026E000E036E000EEB
:101E7000046EF9EF0FF0D8900136023603360436BF
:101E800010AE45EF0FF047EF0FF048EF0FF0018075
:101E900010A04DEF0FF04FEF0FF053EF0FF0D88081
:101EA000103655EF0FF0D89010360F50D8B45BEFC6
:101EB0000FF05DEF0FF05EEF0FF00F0603AE63EF74
:101EC0000FF065EF0FF03BEF0FF0000E0E6E10AE4F
:101ED0006CEF0FF06EEF0FF086EF0FF010C009F00F
:101EE0007F0E0916D8B477EF0FF079EF0FF07DEF82
:101EF0000FF0010E0E6E86EF0FF001A082EF0FF0D3
:101F000084EF0FF086EF0FF079EF0FF00E50D8B49A
:101F10008CEF0FF08EEF0FF0B9EF0FF0010E0126EE
:101F2000000E02220322042204A099EF0FF09BEF7F
:101F30000FF0B9EF0FF001C009F002C00AF003C0C2
:101F40000BF004C00CF00C340C320B320A320932A4
:101F500009C001F00AC002F00BC003F00CC004F08D
:101F60000F28D8B4B6EF0FF0B8EF0FF0B9EF0FF0BD
:101F70000F2A0F28D8B4BFEF0FF0C1EF0FF0C9EF51
:101F80000FF00F50D8A4C7EF0FF0C9EF0FF0DBEF41
:101F90000FF0000E016E000E026E000E036E000EBA
:101FA000046E0F50D8A4D7EF0FF0D9EF0FF0DBEF8E
:101FB0000FF0000E0D6E0FA0E0EF0FF0E2EF0FF04C
:101FC000E5EF0FF0038EE6EF0FF0039ED8900F3091
:101FD000046E0DAEEEEF0FF0F0EF0FF0F1EF0FF03B
:101FE000048E01C001F002C002F003C003F004C07F
:101FF00004F012002B50800B346E2B502B243A6EC1
:102000002AAE05EF10F007EF10F008EF10F03A805D
:102010003A50D8B40EEF10F010EF10F023EF10F09C
:102020003A28D8A416EF10F018EF10F020EF10F0B7
:10203000000E286E000E296E000E2A6E000E2B6E0A
:102040002A8E2BEF10F0000E286E000E296E000E67
:102050002A6E000E2B6E2F50800B341A2F502F2417
:10206000396E2EAE36EF10F038EF10F039EF10F079
:1020700039803950D8B43FEF10F041EF10F054EFF1
:1020800010F03928D8A447EF10F049EF10F051EFC5
:1020900010F0000E2C6E000E2D6E000E2E6E000E37
:1020A0002F6E2E8E5CEF10F0000E2C6E000E2D6E3B
:1020B000000E2E6E000E2F6E3950D8B462EF10F065
:1020C00064EF10F06CEF10F03A50D8A46AEF10F003
:1020D0006CEF10F076EF10F0000E286E000E296EF7
:1020E000000E2A6E000E2B6E0EEF12F02E502802FC
:1020F000F3CF3FF0F4CF40F03F50356E366A376A89
:10210000386A40503B6E3C6A3D6A3E6A2D50290257
:10211000F3CF3FF0F4CF40F03F503526000E36228B
:102120003722382240503B26000E3C223D223E22E0
:102130002C502A02F3CF3FF0F4CF40F03F50352629
:10214000000E36223722382240503B26000E3C2219
:102150003D223E2237C038F036C037F035C036F069
:10216000356A2C502902F3CF3FF0F4CF40F03F50B6
:10217000352640503622000E3722000E38222D50D0
:102180002802F3CF3FF0F4CF40F03F5035264050C7
:102190003622000E3722000E382237C038F036C003
:1021A00037F035C036F0356A2C502802F3CF3FF0B7
:1021B000F4CF40F03F50352640503622000E3722F3
:1021C000000E38222E502902F3CF3FF0F4CF40F01A
:1021D0003F503B2640503C22000E3D22000E3E2246
:1021E0002D502A02F3CF3FF0F4CF40F03F503B2672
:1021F00040503C22000E3D22000E3E222E502A026C
:10220000F3CF3FF0F4CF40F03F50306E4050316E8E
:10221000326A336A32C033F031C032F030C031F04C
:10222000306A30503B2631503C2232503D223350F0
:102230003E2235C030F036C031F037C032F038C001
:1022400033F0190E29EF11F0D89033323232313297
:102250003032E82E24EF11F030503B2631503C2232
:1022600032503D2233503E2237C038F036C037F06E
:1022700035C036F0356A39503AC030F0316A302610
:10228000000E3122820E30243F6EFF0E3120406E50
:102290005FEF11F0D8903B363C363D363E3638AED7
:1022A00054EF11F056EF11F057EF11F03B80D8903A
:1022B00035363636373638363F06D8A040063DAE7E
:1022C00064EF11F066EF11F04AEF11F0000E396E75
:1022D00038AE6DEF11F06FEF11F093EF11F0FF0ECC
:1022E0003514306EFF0E3614316EFF0E3714326E19
:1022F0007F0E3814336E3050311032103310D8B492
:1023000084EF11F086EF11F08AEF11F0010E396EB3
:1023100093EF11F03BA08FEF11F091EF11F093EFDD
:1023200011F086EF11F03950D8B499EF11F09BEF0E
:1023300011F0BFEF11F0010E3B26000E3C223D22B2
:102340003E223EA0A6EF11F0A8EF11F0BFEF11F072
:102350003BC030F03CC031F03DC032F03EC033F005
:102360003334333232323132303230C03BF031C06C
:102370003CF032C03DF033C03EF03F4A402A40BE00
:10238000CAEF11F0405008E13F28D8A0CAEF11F081
:10239000CCEF11F0D6EF11F0000E3B6E000E3C6E4C
:1023A000800E3D6E7F0E3E6E04EF12F040BEE3EFF6
:1023B00011F0405006E13F04D8B0E1EF11F0E3EF37
:1023C00011F0EFEF11F0000E3B6E000E3C6E000EB0
:1023D0003D6E000E3E6E000E346E04EF12F03FC0F4
:1023E0003AF0FF0E3B16FF0E3C167F0E3D16000E18
:1023F0003E163AA0FEEF11F000EF12F001EF12F0DE
:102400003D8ED8903A303E6E34503E123BC028F09C
:102410003CC029F03DC02AF03EC02BF0120050C154
:1024200053F051C154F052C155F053C156F041C060
:1024300053F042C054F043C055F044C056F053C06E
:1024400045F054C046F055C047F056C048F0180E4D
:102450002FEF12F0D8904832473246324532E82EFC
:102460002AEF12F045504D6E4E6A4EBE41EF12F00B
:102470004E5009E1960E4D5CD8A041EF12F043EFAB
:1024800012F04DEF12F041C041F042C042F043C0A3
:1024900043F044C044F0E5EF13F053C045F054C09E
:1024A00046F055C047F056C048F0200E5DEF12F0E0
:1024B000D8904832473246324532E82E58EF12F073
:1024C0004550461047104810D8B469EF12F06BEF32
:1024D00012F07DEF12F041C001F042C002F043C0A3
:1024E00003F044C004F0D4EC2BF001C041F002C072
:1024F00042F003C043F004C044F04EBE8BEF12F034
:102500004E5007E17E0E4D5CD8B089EF12F08BEF94
:1025100012F0A7EF12F053C028F054C029F055C0B4
:102520002AF056C02BF0000E2C6E000E2D6E000E01
:102530002E6E000E2F6EFAEC0FF028C041F029C06D
:1025400042F02AC043F02BC044F0E5EF13F0000E38
:10255000056E000E066E000E076E4B0E086E41C033
:1025600001F042C002F043C003F044C004F09AEC12
:102570000DF001C04FF002C050F003C051F004C094
:1025800052F0000E056E000E066E000E076ECB0EAA
:10259000086E4FC001F050C002F051C003F052C0AD
:1025A00004F09AEC0DF001C049F002C04AF003C0FB
:1025B0004BF004C04CF049C011F04AC012F04BC0BF
:1025C00013F04CC014F041C015F042C016F043C0E7
:1025D00017F044C018F0B1EC2AF011C057F012C047
:1025E00058F013C059F014C05AF0000E016E000EDE
:1025F000026E000E036E3F0E046E57C005F058C009
:1026000006F059C007F05AC008F062EC25F0D8B0C7
:102610000CEF13F00EEF13F044EF13F041C005F090
:1026200042C006F043C007F044C008F057C001F0B4
:1026300058C002F059C003F05AC004F09AEC0DF0F3
:1026400001C04FF002C050F003C051F004C052F07E
:102650004FC001F050C002F051C003F052C004F06E
:10266000000E056E000E066E800E076EBF0E086E21
:102670009AEC0DF001C057F002C058F003C059F0B9
:1026800004C05AF0ADEF13F0000E016E000E026EA2
:10269000000E036EBF0E046E57C005F058C006F062
:1026A00059C007F05AC008F062EC25F0D8A05BEFE3
:1026B00013F05DEF13F093EF13F041C005F042C04B
:1026C00006F043C007F044C008F057C001F058C0FE
:1026D00002F059C003F05AC004F09AEC0DF001C0AA
:1026E0004FF002C050F003C051F004C052F04FC090
:1026F00001F050C002F051C003F052C004F0000ECF
:10270000056E000E066E800E076E3F0E086E9AEC88
:102710000DF001C057F002C058F003C059F004C0DA
:102720005AF0ADEF13F057C001F058C002F059C095
:1027300003F05AC004F041C005F042C006F043C0A7
:1027400007F044C008F09AEC0DF001C057F002C049
:1027500058F003C059F004C05AF053C045F054C0BB
:1027600046F055C047F056C048F0200EBDEF13F0BC
:10277000D8904832473246324532E82EB8EF13F04F
:102780004550461047104810D8B4C9EF13F0CBEFAE
:1027900013F0DDEF13F057C001F058C002F059C03C
:1027A00003F05AC004F0D4EC2BF001C057F002C083
:1027B00058F003C059F004C05AF057C041F058C057
:1027C00042F059C043F05AC044F012001250800B3E
:1027D0001F6E12501224266E11AEF1EF13F0F3EFBC
:1027E00013F0F4EF13F026802650D8B4FAEF13F06C
:1027F000FCEF13F011EF14F02628D8A402EF14F028
:1028000004EF14F00CEF14F0000E0F6E000E106EBB
:10281000000E116E000E126E118E000E126E19EF68
:1028200014F0000E0F6E000E106E000E116E000EF2
:10283000126E1650800B1F1A16501624276E15AEF6
:1028400024EF14F026EF14F027EF14F02780275020
:10285000D8B42DEF14F02FEF14F044EF14F0272824
:10286000D8A435EF14F037EF14F03FEF14F0000E5A
:10287000136E000E146E000E156E000E166E158E81
:10288000000E166E4CEF14F0000E136E000E146E58
:10289000000E156E000E166E135014101510161043
:1028A000D8A455EF14F057EF14F06FEF14F0000EAA
:1028B0000F6E000E106E000E116E000E126E800E66
:1028C00011127F0E12121F5012120FC00FF010C003
:1028D00010F011C011F012C012F0B2EF15F0265036
:1028E000D8A475EF14F077EF14F081EF14F0000E18
:1028F0000F6E000E106E000E116E000E126EB2EF13
:1029000015F0275026C017F0186A175E000E185AE7
:102910007F0E1724206E000E1820216E0FC01BF0B2
:1029200010C01CF011C01DF012C01EF0000E0F6E82
:10293000000E106E000E116E000E126E000E226E52
:10294000000E236E000E246E000E256E000E276E04
:10295000E2EF14F02750D8B4B0EF14F0B2EF14F057
:10296000C9EF14F0D8901B361C361D361E36D89091
:102970000F3610361136123625AEC1EF14F0C3EF04
:1029800014F0C4EF14F00F80D8902236233624368A
:10299000253613501B5C14501C5815501D581650EA
:1029A0001E58D8A0D6EF14F0D8EF14F0E1EF14F0D1
:1029B000258C13501B5E14501C5A15501D5A16506E
:1029C0001E5A272A190E2764E8EF14F0EAEF14F0D4
:1029D000AAEF14F01B501C101D101E10D8B4F3EFFA
:1029E00014F0F5EF14F00DEF15F022800DEF15F057
:1029F000D8900F3610361136123625AE02EF15F08C
:102A000004EF15F005EF15F00F80D890223623362D
:102A1000243625362006D8A0210611AE12EF15F077
:102A200014EF15F0F8EF14F0000E276E25AE1BEF33
:102A300015F01DEF15F041EF15F0FF0E2214176E83
:102A4000FF0E2314186EFF0E2414196E7F0E25142A
:102A50001A6E1750181019101A10D8B432EF15F05A
:102A600034EF15F038EF15F0010E276E41EF15F039
:102A70000FA03DEF15F03FEF15F041EF15F034EFEB
:102A800015F02750D8B447EF15F049EF15F06DEF6A
:102A900015F0010E0F26000E10221122122212A094
:102AA00054EF15F056EF15F06DEF15F00FC017F05D
:102AB00010C018F011C019F012C01AF01A341A32EE
:102AC00019321832173217C00FF018C010F019C0A1
:102AD00011F01AC012F0204A212A21BE78EF15F019
:102AE000215008E12028D8A078EF15F07AEF15F0F2
:102AF00085EF15F0000E216E2068000E0F6E000E9F
:102B0000106E000E116E000E126E21BE92EF15F0C7
:102B1000215006E12004D8B090EF15F092EF15F0A7
:102B2000A0EF15F0000E216E000E206E000E0F6E4D
:102B3000000E106E000E116E000E126E000E1F6E53
:102B400020C026F026A0A7EF15F0A9EF15F0ACEFF6
:102B500015F0118EADEF15F0119ED8902630126E43
:102B600063EF14F012001EC036F01FC037F020C013
:102B700038F021C039F022C03AF023C03BF024C025
:102B80003CF025C03DF03DBEC8EF15F0CBEF15F091
:102B9000010ECCEF15F0000E346E356A345035104E
:102BA000D8B4D5EF15F0D7EF15F0E7EF15F03D1ECF
:102BB0003C1E3B1E3A1E391E381E371E366C000E58
:102BC0003722382239223A223B223C223D22000180
:102BD000F8BFEDEF15F0EFEF15F0F0EF15F0F9930A
:102BE000F8BFFDEF15F0F85106E1F705D8B0FBEF9F
:102BF00015F0FDEF15F003EF16F0000E316E010E2B
:102C0000306E07EF16F0F7C030F0F8C031F056C163
:102C100032F057C133F034503510D8A412EF16F00B
:102C200014EF16F01BEF16F0F9A519EF16F01BEFD5
:102C300016F01EEF16F03206D8A03306000E3F6ED7
:102C40001F0E3E6E000E01017F6FA3EF16F03E06D1
:102C5000D8A03F06600E3E24D96E010E3F20DA6EEA
:102C600036C001F037C002F038C003F039C004F0BC
:102C70003AC005F03BC006F03CC007F03DC008F08C
:102C80000A0E096E000E0A6E000E0B6E000E0C6E20
:102C9000000E0D6E000E0E6E000E0F6E000E106E0A
:102CA00098EC23F001C026F002C027F003C028F002
:102CB00004C029F005C02AF006C02BF007C02CF094
:102CC00008C02DF026C013F028C014F07AEC2BF0C9
:102CD0001350300FDF6E3006D8A031063206D8A070
:102CE000330636C001F037C002F038C003F039C0F7
:102CF00004F03AC005F03BC006F03CC007F03DC010
:102D000008F00A0E096E000E0A6E000E0B6E000E21
:102D10000C6E000E0D6E000E0E6E000E0F6E000E8D
:102D2000106E94EC20F001C036F002C037F003C002
:102D300038F004C039F005C03AF006C03BF007C0D7
:102D40003CF008C03DF03FBEAEEF16F03F5008E14A
:102D50003E04D8A0AEEF16F0B0EF16F0E1EF16F09B
:102D600036503710381039103A103B103C103D10D7
:102D7000D8A4BDEF16F0BFEF16F027EF16F031BE66
:102D8000CCEF16F0315006E13004D8B0CAEF16F09F
:102D9000CCEF16F027EF16F033BED7EF16F0335016
:102DA00008E13204D8A0D7EF16F0D9EF16F0E1EF22
:102DB00016F00001F9B3DFEF16F0E1EF16F027EFA0
:102DC00016F034503510D8A4E8EF16F0EAEF16F0FC
:102DD000F2EF16F00001F9A5F0EF16F0F2EF16F0A1
:102DE00010EF17F03E06D8A03F0634503510D8A497
:102DF000FCEF16F0FEEF16F004EF17F0000E2F6E4A
:102E00002B0E2E6E08EF17F0000E2F6E2D0E2E6E6D
:102E1000600E3E24D96E010E3F20DA6E2EC0DFFF19
:102E20001CC011F01DC012F0600E3E24136E010E86
:102E30003F20146E32C015F033C016F015EC27F0A9
:102E400011C01CF012C01DF0120058C020F059C073
:102E500021F05AC022F05BC023F0B40E246E18ECAF
:102E600022F001015F0758C01AF059C01BF05AC088
:102E70001CF05BC01DF098EC28F001015F513DECA7
:102E80002CF0C90E3DEC2CF0000E0001DF6F000E9F
:102E9000DE6F5AEF17F0520E5D6E2B0E5C6E000E59
:102EA000E82EFED75C2EFCD75D2EFAD700D00001AD
:102EB000DE4BDF2B01015F51020D000EF324D96EB2
:102EC000010EF420DA6EDE500001DE5DDE50DF59C7
:102ED000D8A06DEF17F06FEF17F04BEF17F058C059
:102EE0001AF059C01BF05AC01CF05BC01DF03AEC40
:102EF00028F001015F51D8A480EF17F082EF17F09E
:102F000084EF17F07FEF18F05F075F513DEC2CF076
:102F1000C90E3DEC2CF001015F51020D000EF324AF
:102F2000D96E010EF420DA6EDE04DE10D8A49BEF19
:102F300017F09DEF17F0ABEF17F058C020F059C015
:102F400021F05AC022F05BC023F05A0E246ED8EC58
:102F500022F001015F075F51020D000EF324D96ECC
:102F6000010EF420DA6E020EDE18DE10D8A4BBEFDC
:102F700017F0BDEF17F0CBEF17F058C020F059C095
:102F800021F05AC022F05BC023F05A0E246E18ECD8
:102F900022F001015F075F51020D000EF324D96E8C
:102FA000010EF420DA6E030EDE18DE10D8A4DBEF7B
:102FB00017F0DDEF17F0EBEF17F058C020F059C015
:102FC00021F05AC022F05BC023F0B40E246ED8EC7E
:102FD00022F001015F075F51020D000EF324D96E4C
:102FE000010EF420DA6E040EDE18DE10D8A4FBEF1A
:102FF00017F0FDEF17F015EF18F058C026F059C084
:1030000027F05AC028F05BC029F059EC2BF058C0CB
:1030100020F059C021F05AC022F05BC023F05A0EB4
:10302000246ED8EC22F001015F075F51020D000E03
:10303000F324D96E010EF420DA6E050EDE18DE10D0
:10304000D8A425EF18F027EF18F03FEF18F058C07C
:1030500026F059C027F05AC028F05BC029F059EC7F
:103060002BF058C020F059C021F05AC022F05BC0AC
:1030700023F05A0E246E18EC22F001015F075F5115
:10308000020D000EF324D96E010EF420DA6E060E46
:10309000DE18DE10D8A44FEF18F051EF18F05FEFF4
:1030A00018F058C020F059C021F05AC022F05BC07F
:1030B00023F0870E246ED8EC22F001015F075F51E8
:1030C000020D000EF324D96E010EF420DA6E070E05
:1030D000DE18DE10D8A46FEF18F071EF18F033EFA0
:1030E00017F058C020F059C021F05AC022F05BC040
:1030F00023F0790E246E18EC22F031EF17F058C04F
:103100001AF059C01BF05AC01CF05BC01DF03AEC1D
:1031100028F07FEF18F012005E6E5E50D8B493EF87
:1031200018F095EF18F0F1EF19F05E04D8A49BEFBA
:1031300018F09DEF18F0C1EF18F0E0C026F0E1C0E4
:1031400027F0E2C028F0E3C029F038EC2BF0E0C013
:1031500020F0E1C021F0E2C022F0E3C023F05A0EDB
:10316000246E18EC22F001015F51020D000EF324D1
:10317000D96E010EF420DA6E010EDE6E000EDD6EE9
:103180005F2B020E5E18D8A4C8EF18F0CAEF18F033
:10319000EEEF18F0E0C026F0E1C027F0E2C028F022
:1031A000E3C029F038EC2BF0E0C020F0E1C021F0C2
:1031B000E2C022F0E3C023F05A0E246ED8EC22F0D5
:1031C00001015F51020D000EF324D96E010EF420AF
:1031D000DA6E020EDE6E000EDD6E5F2B030E5E18E1
:1031E000D8A4F5EF18F0F7EF18F01BEF19F0E0C0D6
:1031F00026F0E1C027F0E2C028F0E3C029F038EC67
:103200002BF0E0C020F0E1C021F0E2C022F0E3C0EA
:1032100023F0B40E246ED8EC22F001015F51020DB0
:10322000000EF324D96E010EF420DA6E030EDE6E6A
:10323000000EDD6E5F2B040E5E18D8A422EF19F08D
:1032400024EF19F048EF19F0E0C026F0E1C027F0B4
:10325000E2C028F0E3C029F059EC2BF0E0C020F0E8
:10326000E1C021F0E2C022F0E3C023F05A0E246E48
:1032700018EC22F001015F51020D000EF324D96E0B
:10328000010EF420DA6E040EDE6E000EDD6E5F2B92
:10329000050E5E18D8A44FEF19F051EF19F075EF35
:1032A00019F0E0C026F0E1C027F0E2C028F0E3C04A
:1032B00029F059EC2BF0E0C020F0E1C021F0E2C091
:1032C00022F0E3C023F05A0E246ED8EC22F0010164
:1032D0005F51020D000EF324D96E010EF420DA6E58
:1032E000050EDE6E000EDD6E5F2B060E5E18D8A496
:1032F0007CEF19F07EEF19F0A2EF19F0E0C026F094
:10330000E1C027F0E2C028F0E3C029F038EC2BF050
:10331000E0C020F0E1C021F0E2C022F0E3C023F0E1
:10332000870E246E18EC22F001015F51020D000E91
:10333000F324D96E010EF420DA6E060EDE6E000E56
:10334000DD6E5F2B070E5E18D8A4A9EF19F0ABEF66
:1033500019F0CFEF19F0E0C026F0E1C027F0E2C08D
:1033600028F0E3C029F038EC2BF0E0C020F0E1C0F9
:1033700021F0E2C022F0E3C023F0870E246ED8ECE7
:1033800022F001015F51020D000EF324D96E010EEF
:10339000F420DA6E070EDE6E000EDD6E5F2B080E77
:1033A0005E18D8A4D6EF19F0D8EF19F0F1EF19F0A4
:1033B000010E016E020EF2EC19F0E0C026F0E1C041
:1033C00027F0E2C028F0E3C029F038EC2BF0E0C091
:1033D00058F0E1C059F0E2C05AF0E3C05BF025ECD0
:1033E00017F01200056E000E046E000E046E3EEF24
:1033F0001BF00504D8A4FFEF19F001EF1AF039EF24
:103400001AF080A206EF1AF00AEF1AF0026A022AF6
:103410000BEF1AF0026A024680500218FD0B0218E8
:10342000806E290E036E960E026E7F0EE82EFED77A
:10343000022EFCD7032EFAD700F080A222EF1AF05A
:1034400026EF1AF0026A022A27EF1AF0026A0246F1
:1034500080500218FD0B0218806E290E036E960E26
:10346000026E7F0EE82EFED7022EFCD7032EFAD76F
:1034700000F0020E0518D8A440EF1AF042EF1AF03F
:103480007AEF1AF07CA847EF1AF04BEF1AF0026AB5
:10349000022A4CEF1AF0026A023A7C500218EF0B33
:1034A00002187C6E290E036E960E026E7F0EE82EB9
:1034B000FED7022EFCD7032EFAD700F07CA863EFCC
:1034C0001AF067EF1AF0026A022A68EF1AF0026A2D
:1034D000023A7C500218EF0B02187C6E290E036E24
:1034E000960E026E7F0EE82EFED7022EFCD7032E1C
:1034F000FAD700F0030E0518D8A481EF1AF083EF75
:103500001AF0BFEF1AF07CA688EF1AF08CEF1AF0D1
:10351000026A022A8DEF1AF0026A02460246024649
:103520007C500218F70B02187C6E290E036E960E63
:10353000026E7F0EE82EFED7022EFCD7032EFAD79E
:1035400000F07CA6A6EF1AF0AAEF1AF0026A022A8F
:10355000ABEF1AF0026A0246024602467C5002189D
:10356000F70B02187C6E290E036E960E026E7F0E0C
:10357000E82EFED7022EFCD7032EFAD700F0040E59
:103580000518D8A4C6EF1AF0C8EF1AF0FEEF1AF02B
:103590007EA0CDEF1AF0D1EF1AF0026A022AD2EF24
:1035A0001AF0026A7E500218FE0B02187E6E290E77
:1035B000036E960E026E7F0EE82EFED7022EFCD70B
:1035C000032EFAD700F07EA0E8EF1AF0ECEF1AF025
:1035D000026A022AEDEF1AF0026A7E500218FE0B10
:1035E00002187E6E290E036E960E026E7F0EE82E76
:1035F000FED7022EFCD7032EFAD700F0030E0518D3
:10360000D8A405EF1BF007EF1BF03DEF1BF080A0E7
:103610000CEF1BF010EF1BF0026A022A11EF1BF0F7
:10362000026A80500218FE0B0218806E290E036E8B
:10363000960E026E7F0EE82EFED7022EFCD7032ECA
:10364000FAD700F080A027EF1BF02BEF1BF0026AE7
:10365000022A2CEF1BF0026A80500218FE0B02189F
:10366000806E290E036E960E026E7F0EE82EFED738
:10367000022EFCD7032EFAD700F0042A0150045C76
:10368000D8A045EF1BF047EF1BF0F9EF19F012003F
:10369000A0EC2CF0020E016E010EF2EC19F0290ED6
:1036A0000F6E960E0E6E7F0EE82EFED70E2EFCD7F6
:1036B0000F2EFAD700F090EC2CF011EC2AF00CC091
:1036C000D9FF0DC0DAFF05C0DEFF06C0DDFF39EC13
:1036D0002AF020EE02F00C50D9260D50DA2205C057
:1036E000DEFF06C0DDFF61EC2AF020EE04F00C5096
:1036F000D9260D50DA2205C0DEFF06C0DDFF090E17
:103700000F6E1E0E0E6EE40EE82EFED70E2EFCD7A8
:103710000F2EFAD700D0B0EC2CF011EC2AF020EEEE
:1037200006F00C50D9260D50DA2205C0DEFF06C087
:10373000DDFF39EC2AF020EE08F00C50D9260D50B0
:10374000DA2205C0DEFF06C0DDFF61EC2AF020EEC4
:103750000AF00C50D9260D50DA2205C0DEFF06C053
:10376000DDFF090E0F6E1E0E0E6EE40EE82EFED764
:103770000E2EFCD70F2EFAD700D0C0EC2CF011EC97
:103780002AF020EE0CF00C50D9260D50DA2205C09C
:10379000DEFF06C0DDFF39EC2AF020EE0EF00C5003
:1037A000D9260D50DA2205C0DEFF06C0DDFF61EC30
:1037B0002AF020EE10F00C50D9260D50DA2205C068
:1037C000DEFF06C0DDFF89EC2AF020EE1AF00C5077
:1037D000D9260D50DA2205C0DEFF06C0DDFF090E36
:1037E0000F6E1E0E0E6EE40EE82EFED70E2EFCD7C8
:1037F0000F2EFAD700D0D0EC2CF011EC2AF020EEEE
:1038000012F00C50D9260D50DA2205C0DEFF06C09A
:10381000DDFF39EC2AF020EE14F00C50D9260D50C3
:10382000DA2205C0DEFF06C0DDFF61EC2AF020EEE3
:1038300016F00C50D9260D50DA2205C0DEFF06C066
:10384000DDFF89EC2AF020EE18F00C50D9260D503F
:10385000DA2205C0DEFF06C0DDFF290E0F6E960ED0
:103860000E6E7F0EE82EFED70E2EFCD70F2EFAD747
:1038700000F0A0EC2CF0290E0F6E960E0E6E7F0E4F
:10388000E82EFED70E2EFCD70F2EFAD700F0020E30
:10389000016E010EF2EC19F0120020EE01F00F5053
:1038A000D9261050DA22DF50D8B459EF1CF05BEF64
:1038B0001CF08CEF1CF00FC0D9FF10C0DAFFDF50F6
:1038C000116E1150016E026A20EE07F00F50D926DA
:1038D0001050DA22DECF03F0DDCF04F07DEC2CF0C7
:1038E00001C007F002C008F0000E0A6E640E096EF7
:1038F00078EC27F020EE07F00F50D9261050DA228E
:10390000DECF12F0DDCF13F00750125C186E0850B6
:103910001358196EAFEF1CF00FC0D9FF10C0DAFFBB
:10392000DF50116E1150016E026A20EE07F00F5049
:10393000D9261050DA22DECF03F0DDCF04F07DEC83
:103940002CF001C007F002C008F0000E0A6E640EF1
:10395000096E78EC27F007C018F008C019F020EEC7
:1039600002F00F50D9261050DA22DECF11F0DDCF51
:1039700012F011C0D9FF12C0DAFF18C0DFFF20EE2D
:1039800001F00F50D9261050DA22DF50D8B4CBEF17
:103990001CF0CDEF1CF002EF1DF020EE04F00F50F4
:1039A000D9261050DA22DECF11F0DDCF12F011C08F
:1039B000D9FF12C0DAFF10EE04F00F50E1261050CC
:1039C000E222E6CF13F0E5CF14F013C0E1FF14C0FC
:1039D000E2FFE750156E10EE06F00F50E126105092
:1039E000E222E750166E010E176E162AFAEF1CF04F
:1039F000D8901736162EF8EF1CF017501510DF6E02
:103A000036EF1DF020EE04F00F50D9261050DA22C8
:103A1000DECF11F0DDCF12F011C0D9FF12C0DAFFF6
:103A200010EE04F00F50E1261050E222E6CF13F022
:103A3000E5CF14F013C0E1FF14C0E2FFE750156EAC
:103A400010EE06F00F50E1261050E222E750166EFD
:103A5000010E176E162A2FEF1DF0D8901736162E6E
:103A60002DEF1DF01750FF0A1514DF6E1200000E27
:103A70000001DF6F000EDE6F000EE36F000EE26FDD
:103A8000000EE56F000EE46F000EDF6F000EDE6FBC
:103A9000D0EC2CF05AC00CF05BC00DF0B9EC29F062
:103AA0005AC058F05BC059F020EC29F0090E5D6E49
:103AB0001E0E5C6EE40EE82EFED75C2EFCD75D2E4B
:103AC000FAD700D00001DE4BDF2BDFBF71EF1DF016
:103AD000DF5109E1050EDE5DD8A071EF1DF073EF37
:103AE0001DF048EF1DF0000E3DEC2CF0000E000123
:103AF000E16F000EE06F90EC2CF05AC00CF05BC050
:103B00000DF0B9EC29F05AC058F05BC059F020EC28
:103B100029F0090E5D6E1E0E5C6EE40EE82EFED7D7
:103B20005C2EFCD75D2EFAD700D00001E04BE12BD4
:103B3000E1BFA4EF1DF0E15109E1050EE05DD8A061
:103B4000A4EF1DF0A6EF1DF07BEF1DF0000E3DEC85
:103B50002CF0000E0001E36F000EE26FB0EC2CF0D1
:103B60005AC00CF05BC00DF0B9EC29F05AC058F007
:103B70005BC059F020EC29F0090E5D6E1E0E5C6EE4
:103B8000E40EE82EFED75C2EFCD75D2EFAD700D0CF
:103B90000001E24BE32BE3BFD7EF1DF0E35109E156
:103BA000050EE25DD8A0D7EF1DF0D9EF1DF0AEEF06
:103BB0001DF0000E3DEC2CF0000E0001E56F000E34
:103BC000E46FC0EC2CF05AC00CF05BC00DF0B9EC07
:103BD00029F05AC058F05BC059F020EC29F0090ECA
:103BE0005D6E1E0E5C6EE40EE82EFED75C2EFCD7DA
:103BF0005D2EFAD700D00001E44BE52BE5BF0AEFBC
:103C00001EF0E55109E1050EE45DD8A00AEF1EF0B3
:103C10000CEF1EF0E1EF1DF0010E3DEC2CF0D0ECAE
:103C20002CF0120042C0D9FF43C0DAFFDECFF6FF0E
:103C3000DDCFF7FF0800F550250AD8A422EF1EF0CB
:103C400024EF1EF0D1EF1EF042C0D9FF43C0DAFFCF
:103C5000DE2A000EDD22000E0101576F000E566FA6
:103C600056C1F9F057C1FAF00001F769F86942C08E
:103C7000D9FF43C0DAFFDECFF6FFDDCFF7FF080044
:103C8000F550640AD8B447EF1EF049EF1EF05BEF21
:103C90001EF042C0D9FF43C0DAFFDECFF6FFDDCF12
:103CA000F7FF0800F550690AD8A459EF1EF05BEF42
:103CB0001EF09BEF1EF042C0D9FF43C0DAFFDE2AA0
:103CC000000EDD2244C0D9FF45C0DAFFDFCF46F049
:103CD000020EDE26DFCF47F0000EDD2246C0D9FF00
:103CE00047C0DAFFDECF48F0DDCF49F0000E49BE15
:103CF000FF0E4A6E4B6E4C6E4D6E4E6E4F6E40C058
:103D00001CF041C01DF048C01EF049C01FF04AC061
:103D100020F04BC021F04CC022F04DC023F04EC02B
:103D200024F04FC025F0B3EC15F01CC040F01DC0CE
:103D300041F0ECEF1EF042C0D9FF43C0DAFFDECF06
:103D4000F6FFDDCFF7FF0800F550250AD8A4ABEF4A
:103D50001EF0ADEF1EF0C4EF1EF042C0D9FF43C00D
:103D6000DAFFDE2A000EDD22000E026E250E016E45
:103D700040C003F041C004F04DEC26F0000E416E4F
:103D8000010E406EECEF1EF042C0D9FF43C0DAFFD7
:103D9000DE2A000EDD22000E416E000E406EECEFBA
:103DA0001EF042C0D9FF43C0DAFFDECFF6FFDDCF01
:103DB000F7FF0800F550016E026A40C003F041C0F1
:103DC00004F04DEC26F042C0D9FF43C0DAFFDE2AF2
:103DD000000EDD22BEEF1EF01200096E0950D8B4AD
:103DE000F4EF1EF0F6EF1EF018EF1FF004BEFDEF2B
:103DF0001EF0FBEF1EF018EF1FF001C005F002C02F
:103E000006F003C007F004C008F0051E061E071EDA
:103E1000081E052A000E06220722082205C00BF004
:103E200006C00CF007C00DF008C00EF020EF1FF028
:103E300001C00BF002C00CF003C00DF004C00EF086
:103E40000150021003100410D8A429EF1FF02BEF2B
:103E50001FF035EF1FF0000E016E000E026E000E17
:103E6000036E000E046EC6EF1FF0960E0A6E3FEF53
:103E70001FF00A2AD8900E320D320C320B32000E8F
:103E80000B14056E000E0C14066E000E0D14076E5A
:103E9000FE0E0E14086E0550061007100810D8A468
:103EA00054EF1FF056EF1FF039EF1FF064EF1FF0D3
:103EB0000A2A010E0B26000E0C220D220E22D8908B
:103EC0000E320D320C320B32000E0B14056E000E4A
:103ED0000C14066E000E0D14076EFF0E0E14086E05
:103EE0000550061007100810D8A479EF1FF07BEFDB
:103EF0001FF058EF1FF083EF1FF00A06D8900B3623
:103F00000C360D360E360DBE88EF1FF08AEF1FF00F
:103F100092EF1FF0020E0A6090EF1FF092EF1FF079
:103F20007DEF1FF00AB097EF1FF099EF1FF09AEFA7
:103F30001FF00D9ED8900A320AC005F0066A076A83
:103F4000086A05C008F0076A066A056A05500B1280
:103F500006500C1207500D1208500E120950D8B41A
:103F6000B4EF1FF0B6EF1FF0BEEF1FF004BEBDEFC1
:103F70001FF0BBEF1FF0BEEF1FF00E8E0BC001F065
:103F80000CC002F00DC003F00EC004F0120054EC9F
:103F90002CF00BEC2CF0000E026EC70E016E17EC2D
:103FA0002BF02AEC2DF000EC2DF00FEC2DF03BEC7B
:103FB0002DF0E0EC2CF0AF0E016E010E026EB90E8A
:103FC000036E010E046EE4EC25F0000E01018A6F11
:103FD000930E0C6E010E0D6E48EC1BF0800E00016E
:103FE0006A6F010E6B6F4AEC24F06AC088F16BC0F7
:103FF00089F1D58E5CC15AF15DC15BF11BEF20F0F8
:10400000AF0E1A6E010E1B6EB90E1C6E010E1D6EE8
:1040100098EC28F0AF0E00016A6F010E6B6FB90EBD
:104020006C6F010E6D6F88C16EF089C16FF0B2ECDC
:1040300026F001018A6F01018A51D8B422EF20F0E5
:1040400024EF20F000EF20F0D59E5CC158F15DC157
:1040500059F15A51585D0001F56F01015B515959F1
:104060000001F66F01015F51020D000EF324D96EBD
:10407000010EF420DA6EF5C0DEFFF6C0DDFF5F2B27
:104080005A51585D3DEC2CF001015F513DEC2CF094
:10409000C80E3DEC2CF0AF0E1A6E010E1B6EB90E61
:1040A0001C6E010E1D6E3AEC28F0520E0001F66FE8
:1040B0002B0EF56F000EE82EFED7F52FFCD7F62F4E
:1040C000FAD700F08B0E0001716F010E726F930E24
:1040D000736F010E746F0AEC07F001015E6F8B0EB7
:1040E0000001926F010E936F930E946F010E956F06
:1040F00001015E51E2EC28F001015E6FAF0E00019C
:10410000E06F010EE16FB90EE26F010EE36F010186
:104110005E518CEC18F0000E01015E6F000E8A6F8C
:10412000F9EF1FF014EF00F0000E126E10BE9DEFBD
:1041300020F09BEF20F0AFEF20F0101E0F1E0E1EA0
:104140000D1E0C1E0B1E0A1E096C000E0A220B22ED
:104150000C220D220E220F221022010E126E08BE1A
:10416000B6EF20F0B4EF20F0C8EF20F0081E071ED5
:10417000061E051E041E031E021E016C000E0222F6
:10418000032204220522062207220822010E121A07
:1041900020EE13F0070EDE6AE806FDE209500A1071
:1041A0000B100C100D100E100F101010D8B4DBEF08
:1041B00020F0DDEF20F02FEF21F0010E116EEBEF7C
:1041C00020F0D89009360A360B360C360D360E36EE
:1041D0000F361036112A10AEF0EF20F0F2EF20F07B
:1041E000E1EF20F0D8901336143615361636173610
:1041F000183619361A360950015C0A5002580B500D
:1042000003580C5004580D5005580E5006580F50C6
:10421000075810500858D8A010EF21F012EF21F0E5
:1042200023EF21F00950015E0A50025A0B50035A45
:104230000C50045A0D50055A0E50065A0F50075A8A
:104240001050085A1380D89010320F320E320D32AF
:104250000C320B320A320932112EF2EF20F01250DA
:10426000D8B435EF21F037EF21F047EF21F01A1ED7
:10427000191E181E171E161E151E141E136C000E76
:104280001422152216221722182219221A2213C0CC
:1042900001F014C002F015C003F016C004F017C0FE
:1042A00005F018C006F019C007F01AC008F0120097
:1042B0000001F46F000E0001F26F000EF36F000EAC
:1042C000F16F000EF06F020EF419D8A46AEF21F01E
:1042D0006CEF21F072EF21F0E8C00CF0E9C00DF0B6
:1042E00048EC1BF0040E0001F419D8A47AEF21F079
:1042F0007CEF21F086EF21F0E6C06AF0E7C06BF0BA
:104300004AEC24F06AC0F0F06BC0F1F00001F40553
:10431000D8A48DEF21F08FEF21F09DEF21F0D0ECAC
:104320002CF0E6C00CF0E7C00DF0B9EC29F0E6C0C7
:1043300058F0E7C059F020EC29F0020E0001F41902
:10434000D8A4A5EF21F0A7EF21F0B1EF21F0E6C04E
:1043500071F0E7C072F0E8C073F0E9C074F00AECE5
:1043600007F0030E0001F419D8A4B9EF21F0BBEF58
:1043700021F0CEEF21F0C6EF21F0E6C05AF0E7C001
:104380005BF037EC1DF0010E0001F26FF251D8B472
:10439000CCEF21F0CEEF21F0BDEF21F0040EF419A7
:1043A000D8A4D5EF21F0D7EF21F086EF21F0F3EF7D
:1043B00021F0EAC01AF0EBC01BF0ECC01CF0EDC01D
:1043C0001DF098EC28F0EAC06AF0EBC06BF0ECC08E
:1043D0006CF0EDC06DF0F0C06EF0F1C06FF0B2ECBB
:1043E00026F00001F36FF351D8B4F9EF21F0FBEFA1
:1043F00021F0D9EF21F0EAC01AF0EBC01BF0ECC0BD
:104400001CF0EDC01DF03AEC28F0520E0001EF6FE9
:104410002B0EEE6F000EE82EFED7EE2FFCD7EF2FFF
:10442000FAD700F0000E0001F36F86EF21F01200C2
:1044300020EE01F02050D9262150DA22010EDF6E45
:1044400020EE01F02250D9262350DA22010EDF6E31
:1044500049EF22F020C0D9FF21C0DAFF050EDF2688
:1044600022C0D9FF23C0DAFF000EDF6E20C00FF09C
:1044700021C010F04DEC1CF022C00FF023C010F052
:104480004DEC1CF0D00E256ECA0EE82EFED7252E60
:10449000FCD720C0D9FF21C0DAFF180EDF6453EF2C
:1044A00022F055EF22F02AEF22F024500001FF0302
:1044B000F3CF30F0F4CF31F00A0E3024266E000E28
:1044C0003120276E140E3024286E000E3120296E04
:1044D000B40E2418D8A46FEF22F071EF22F08CEF05
:1044E00022F0000E2B6E000E2A6E81EF22F0150EC8
:1044F000256EC60EE82EFED7252EFCD700D02A4A00
:104500002B2A28502A5C29502B58D8A08AEF22F059
:104510008CEF22F077EF22F0870E2418D8A493EFC7
:1045200022F095EF22F0B2EF22F0000E2D6E000E79
:104530002C6EA5EF22F0150E256EC60EE82EFED7C6
:10454000252EFCD700D02C4A2D2A26502C5C275033
:104550002D58D8A0AEEF22F0B0EF22F09BEF22F062
:10456000CDEF22F0000E2F6E000E2E6EC2EF22F065
:10457000150E256EC60EE82EFED7252EFCD700D0D0
:104580002E4A2F2A30502E5C31502F58D8A0CBEF16
:1045900022F0CDEF22F0B8EF22F020C01AF021C0B7
:1045A0001BF022C01CF023C01DF03AEC28F01200D2
:1045B00020EE01F02050D9262150DA22010EDF6EC4
:1045C00020EE01F02250D9262350DA22010EDF6EB0
:1045D00009EF23F022C0D9FF23C0DAFF050EDF2642
:1045E00020C0D9FF21C0DAFF000EDF6E20C00FF01F
:1045F00021C010F04DEC1CF022C00FF023C010F0D1
:104600004DEC1CF0D00E256ECA0EE82EFED7252EDE
:10461000FCD722C0D9FF23C0DAFF180EDF6413EFE6
:1046200023F015EF23F0EAEF22F024500001FF03FE
:10463000F3CF30F0F4CF31F00A0E3024266E000EA6
:104640003120276E140E3024286E000E3120296E82
:10465000B40E2418D8A42FEF23F031EF23F04CEF41
:1046600023F0000E2B6E000E2A6E41EF23F0150E84
:10467000256EC60EE82EFED7252EFCD700D02A4A7E
:104680002B2A28502A5C29502B58D8A04AEF23F017
:104690004CEF23F037EF23F0870E2418D8A453EF04
:1046A00023F055EF23F072EF23F0000E2D6E000E75
:1046B0002C6E65EF23F0150E256EC60EE82EFED784
:1046C000252EFCD700D02C4A2D2A26502C5C2750B2
:1046D0002D58D8A06EEF23F070EF23F05BEF23F09E
:1046E0008DEF23F0000E2F6E000E2E6E82EF23F062
:1046F000150E256EC60EE82EFED7252EFCD700D04F
:104700002E4A2F2A30502E5C31502F58D8A08BEFD4
:1047100023F08DEF23F078EF23F020C01AF021C0B2
:104720001BF022C01CF023C01DF03AEC28F0120050
:10473000000E126E08BEA1EF23F09FEF23F0B3EF3F
:1047400023F0081E071E061E051E041E031E021E61
:10475000016C000E022203220422052206220722F7
:104760000822010E126E10BEBAEF23F0B8EF23F04C
:10477000CAEF23F0101E0F1E0E1E0D1E0C1E0B1E68
:104780000A1E096C000E0A220B220C220D220E2298
:104790000F22102209500A100B100C100D100E10D1
:1047A0000F101010D8B4D7EF23F0D9EF23F021EF7A
:1047B00024F0010E116EE7EF23F0D89009360A3687
:1047C0000B360C360D360E360F361036112A10AE5B
:1047D000ECEF23F0EEEF23F0DDEF23F00950015C66
:1047E0000A5002580B5003580C5004580D500558ED
:1047F0000E5006580F50075810500858D8A003EF15
:1048000024F005EF24F015EF24F00950015E0A5062
:10481000025A0B50035A0C50045A0D50055A0E50B0
:10482000065A0F50075A1050085AD89010320F32BB
:104830000E320D320C320B320A320932112EEEEFEB
:1048400023F01250D8B427EF24F029EF24F039EFE9
:1048500024F0081E071E061E051E041E031E021E4F
:10486000016C000E022203220422052206220722E6
:10487000082201C001F002C002F003C003F004C02E
:1048800004F005C005F006C006F007C007F008C038
:1048900008F01200000E0001756F000E746F000E1C
:1048A000776F000E766F000E6F6F000E6E6F020E48
:1048B000016E020EF2EC19F0D0EC2CF0290E000182
:1048C0006D6F960E6C6F7F0EE82EFED76C2FFCD7A7
:1048D0006D2FFAD789EC2AF005C072F006C073F08C
:1048E000110E00016D6F3C0E6C6FCB0EE82EFED7E3
:1048F0006C2FFCD76D2FFAD789EC2AF005C074F025
:1049000006C075F0110E00016D6F3C0E6C6FCB0E82
:10491000E82EFED76C2FFCD76D2FFAD789EC2AF042
:1049200005C076F006C077F0110E00016D6F3C0EE9
:104930006C6FCB0EE82EFED76C2FFCD76D2FFAD7FD
:104940000001745172256C6F755173216D6F765132
:104950006C2777516D236CC001F06DC002F0036AC3
:10496000046A000EEDEC1EF001C00FF002C010F062
:1049700003C011F004C012F0000E136E000E146E8E
:10498000400E156E400E166EE6EC13F00FC066F08A
:1049900010C067F011C068F012C069F0B7EC2BF0DE
:1049A00066C070F067C071F0020E016E020EF2EC8C
:1049B00019F070C06AF071C06BF012005D345E34A3
:1049C0000001656F6551D8A4E8EF24F0EAEF24F008
:1049D000F4EF24F0000E5B6E000E5C6E000E5D6E58
:1049E000000E5E6E61EF25F05BC060F05CC061F0B0
:1049F0005DC062F05EC063F0200E04EF25F0D89039
:104A00006333623361336033E82EFFEF24F060518B
:104A1000646F5D8EFF0E5B16FF0E5C16FF0E5D165B
:104A2000000E5E16960E655F65BF1BEF25F019EF51
:104A300025F031EF25F06551800A970FD8B023EFAC
:104A400025F025EF25F027EF25F0EAEF24F0D890A8
:104A50005E325D325C325B32653F27EF25F049EF15
:104A600025F01F0E656537EF25F039EF25F041EF92
:104A700025F0EAEF24F0D8905B365C365D365E3682
:104A800065076551D8A447EF25F049EF25F03BEFC6
:104A900025F06451D8B44FEF25F051EF25F059EFD0
:104AA00025F05E1E5D1E5C1E5B6C000E5C225D22AE
:104AB0005E225BC05BF05CC05CF05DC05DF05EC020
:104AC0005EF01200000E0114096E000E02140A6E50
:104AD000800E03140B6E7F0E04140C6E09500A1026
:104AE0000B100C10D8A477EF25F079EF25F081EFAB
:104AF00025F0000E016E000E026E000E036E000E19
:104B0000046E000E0514096E000E06140A6E800E67
:104B100007140B6E7F0E08140C6E09500A100B1050
:104B20000C10D8A496EF25F098EF25F0A0EF25F013
:104B3000000E056E000E066E000E076E000E086E6B
:104B400004AEA5EF25F0A7EF25F0B0EF25F0016C3E
:104B5000021ED8B0022A031ED8B0032A800E0456C3
:104B600008AEB5EF25F0B7EF25F0C0EF25F0056CE6
:104B7000061ED8B0062A071ED8B0072A800E08568F
:104B8000000E011A000E021A000E031A800E041AFB
:104B9000000E051A000E061A000E071A800E081ADB
:104BA0000550015C0650025807500358085004583D
:104BB000D8B0DDEF25F0DFEF25F0E2EF25F0D8905B
:104BC000E3EF25F0D880120001C0D9FF02C0DAFF60
:104BD000000EDF6E20EE01F00150D9260250DA22DD
:104BE000010EDF6E20EE02F00150D9260250DA22CB
:104BF000A30EDE6E0F0EDD6E20EE04F00150D926FE
:104C00000250DA227D0EDE6E0F0EDD6E20EE06F013
:104C10000150D9260250DA22040EDF6E20EE07F092
:104C20000150D9260250DA22C70EDE6E000EDD6E6C
:104C300003C0D9FF04C0DAFF000EDF6E20EE01F0E2
:104C40000350D9260450DA22010EDF6E20EE02F066
:104C50000350D9260450DA22A00EDE6E0F0EDD6E50
:104C600020EE04F00350D9260450DA227F0EDE6EC7
:104C70000F0EDD6E20EE06F00350D9260450DA2226
:104C8000060EDF6E20EE07F00350D9260450DA221C
:104C9000C70EDE6E000EDD6E120003500410D8B495
:104CA00054EF26F056EF26F05FEF26F00350041085
:104CB000D8A45DEF26F05FEF26F064EF26F00150F8
:104CC00051EC2DF0B1EF26F020EE09F00350D9267B
:104CD0000450DA22DE50DE10D8B471EF26F073EF04
:104CE00026F08EEF26F020EE09F00350D92604506E
:104CF000DA2210EE03F00350E1260450E222DE50E7
:104D0000E65CE650800A096EDE50800A0958D8B089
:104D10008CEF26F08EEF26F0B1EF26F020EE03F0B8
:104D20000350D9260450DA22DECF05F0DDCF06F09D
:104D300003C0D9FF04C0DAFFDECF07F0DDCF08F0F3
:104D400005500724D96E06500820DA6E01C0DFFF37
:104D500020EE03F00350D9260450DA22DE2A000E9A
:104D6000DD221200000E0001736F000E726F000E44
:104D70007C6F000E7B6F000E7A6FD0EC2CF0090E6A
:104D80000001716F1E0E706FE40EE82EFED7702FBB
:104D9000FCD7712FFAD700F089EC2AF005C078F023
:104DA00006C079F039EC2AF06EC001F06FC002F055
:104DB000036A046A000EEDEC1EF001C028F002C088
:104DC00029F003C02AF004C02BF0660E2C6E660E8C
:104DD0002D6E860E2E6E3F0E2F6EFAEC0FF028C051
:104DE00074F029C075F02AC076F02BC077F074C03B
:104DF00066F075C067F076C068F077C069F0B7EC10
:104E00002BF066C07AF067C07BF000017A51785DC4
:104E10007B517959D8A00FEF27F011EF27F013EF4E
:104E200027F0010E7C6F7C5112000001F9A11BEFED
:104E300027F01DEF27F027EF27F013C00AF014C06A
:104E40000BF011C00CF012C00DF0D4EC2AF016BE1D
:104E50002CEF27F02EEF27F034EF27F015C01AF0D3
:104E600016C01BF038EF27F0000E1B6E000E1A6EF6
:104E7000000E196E000E186E4AEF27F0000E026E3B
:104E8000200E016E11C003F012C004F04DEC26F0AC
:104E9000184A192A1A50185C1950800A176E1B50AC
:104EA000800A1758D8A057EF27F059EF27F03EEFA8
:104EB00027F00001F9B15FEF27F061EF27F06BEF0A
:104EC00027F013C00AF014C00BF011C00CF012C090
:104ED0000DF0D4EC2AF013C001F014C002F0F0EC95
:104EE0002BF01A500124116E1B500220126E12007A
:104EF000000E0C6E0ABE81EF27F07FEF27F087EFE0
:104F000027F0096C0A1ED8B00A2A010E0C6E08BEE2
:104F10008EEF27F08CEF27F094EF27F0076C081E38
:104F2000D8B0082A010E0C1A000E0E6E000E0D6E7F
:104F300009500A10D8B49FEF27F0A1EF27F0C9EF6E
:104F400027F0010E0B6EA9EF27F0D89009360A362C
:104F50000B2A0AAEAEEF27F0B0EF27F0A5EF27F04F
:104F6000D8900D360E360950075C0A500858D8A064
:104F7000BCEF27F0BEEF27F0C3EF27F00950075E24
:104F80000A50085A0D80D8900A3209320B2EB0EF21
:104F900027F00C50D8B4CFEF27F0D1EF27F0D5EFA2
:104FA00027F00D6C0E1ED8B00E2A0DC007F00EC0F3
:104FB00008F0120020EE01F02050D9262150DA220C
:104FC000000EDF6E20EE01F02250D9262350DA22A7
:104FD000000EDF6E0BEF28F020C0D9FF21C0DAFFF2
:104FE0000A0EDF2622C0D9FF23C0DAFF0A0EDF2611
:104FF00020C00FF021C010F04DEC1CF022C00FF0CB
:1050000023C010F04DEC1CF0D00E246ECA0EE82E1A
:10501000FED7242EFCD720C0D9FF21C0DAFF320EE4
:10502000DF6015EF28F017EF28F023EF28F022C0FB
:10503000D9FF23C0DAFF310EDF6421EF28F023EF20
:1050400028F0ECEF27F0290E256E960E246E7F0EC9
:10505000E82EFED7242EFCD7252EFAD700F020C04C
:105060001AF021C01BF022C01CF023C01DF03AEC46
:1050700028F0120073EF28F01AC0D9FF1BC0DAFF26
:10508000DF50D8B446EF28F048EF28F04EEF28F074
:105090001AC0D9FF1BC0DAFF050EDF5E1CC0D9FFA6
:1050A0001DC0DAFFDF50D8B458EF28F05AEF28F0CF
:1050B00060EF28F01CC0D9FF1DC0DAFF050EDF5ECF
:1050C0001AC00FF01BC010F04DEC1CF01CC00FF00C
:1050D0001DC010F04DEC1CF0D00E1E6ECA0EE82E56
:1050E000FED71E2EFCD71AC0D9FF1BC0DAFFDF5037
:1050F000D8A47DEF28F07FEF28F03CEF28F01CC00B
:10510000D9FF1DC0DAFFDF50D8A489EF28F08BEF5C
:1051100028F03CEF28F0090E1F6E1E0E1E6EE40EE6
:10512000E82EFED71E2EFCD71F2EFAD700D0120075
:1051300020EE01F01A50D9261B50DA22010EDF6E44
:1051400020EE01F01C50D9261D50DA22010EDF6E30
:10515000C9EF28F01AC0D9FF1BC0DAFF0A0EDF26FC
:105160001CC0D9FF1DC0DAFF0A0EDF261AC00FF0DF
:105170001BC010F04DEC1CF01CC00FF01DC010F057
:105180004DEC1CF0D00E1E6ECA0EE82EFED71E2E61
:10519000FCD71AC0D9FF1BC0DAFF140EDF60D3EFB3
:1051A00028F0D5EF28F0E1EF28F01CC0D9FF1DC092
:1051B000DAFF130EDF64DFEF28F0E1EF28F0AAEF4B
:1051C00028F0120000019A6F050E0001976F0F0E74
:1051D000966FF10EE82EFED7962FFCD7972FFAD7B1
:1051E00092C071F093C072F094C073F095C074F0E7
:1051F0000AEC07F00001966F9651986F996B050EB7
:105200000001976F0F0E966FF10EE82EFED7962FC6
:10521000FCD7972FFAD700019A51966F976B985148
:10522000961907E199519719D8A419EF29F01BEFA6
:1052300029F01EEF29F09A511FEF29F0000E1200FD
:10524000790E0001606F000E616F050E626F0E0E29
:10525000636F58C0D9FF59C0DAFFDECF64F0DDCFED
:1052600065F020EE02F05850D9265950DA22DECFF0
:1052700066F0DDCF67F020EE04F05850D926595083
:10528000DA22DECF68F0DDCF69F020EE06F058506C
:10529000D9265950DA22DECF6AF0DDCF6BF0E8EC88
:1052A00029F0790E026E000E036E25EC2CF0120030
:1052B00052C056F053C057F0000E0101556F000E5A
:1052C000546F76EF29F050C040F051C041F0560EB7
:1052D000426E000E436E54C044F055C045F012ECCF
:1052E0001EF04050010154274150552356C0F6FF8F
:1052F00057C0F7FF0800F5500009D8A482EF29F045
:1053000084EF29F063EF29F054C150F055C151F0FA
:105310001200A00EF66E5A0EF76E000EF86E09001F
:10532000F5CFC3F10900F5CFC4F1A40EF66E5A0E05
:10533000F76E000EF86E0900F5CFFFF002EE00F0F8
:105340003C0EEE6AE806FDE101EE00F0800EEE6A2A
:10535000E806FDE100EEF7F0080EEE6AE806FDE172
:105360005F905F92000EF86E0E0EF76E0001C7EFB1
:105370001FF011EC2AF00CC0D9FF0DC0DAFF05C0F8
:10538000DEFF06C0DDFF61EC2AF020EE04F00C50D9
:10539000D9260D50DA2205C0DEFF06C0DDFF39EC4C
:1053A0002AF020EE02F00C50D9260D50DA2205C06A
:1053B000DEFF06C0DDFF89EC2AF020EE06F00C507F
:1053C000D9260D50DA2205C0DEFF06C0DDFF12002F
:1053D000640E00016C6F000E6D6F60C06EF061C0F6
:1053E0006FF0000E726F000E716F000E786F000E7E
:1053F000776F6E0E506E000E516E62C052F063C039
:1054000053F06C0E546E000E556E58EC29F00001EE
:1054100071516025D96E72516121DA6E000EDF6E16
:1054200012004BEC2DF0520E35EC2DF0B60E35EC93
:105430002DF041EC2DF0530E35EC2DF0010EF6EC75
:105440002AF0076E07500A6E0B6A000EF6EC2AF07F
:10545000076E0750096E086A0A5008100A6E0B5052
:1054600009100B6E46EC2DF00AC005F00BC006F0DB
:1054700012004BEC2DF0520E35EC2DF0B80E35EC41
:105480002DF041EC2DF0530E35EC2DF0010EF6EC25
:105490002AF0076E07500A6E0B6A000EF6EC2AF02F
:1054A000076E0750096E086A0A5008100A6E0B5002
:1054B00009100B6E46EC2DF00AC005F00BC006F08B
:1054C00012004BEC2DF0520E35EC2DF0BA0E35ECEF
:1054D0002DF041EC2DF0530E35EC2DF0010EF6ECD5
:1054E0002AF0076E07500A6E0B6A000EF6EC2AF0DF
:1054F000076E0750096E086A0A5008100A6E0B50B2
:1055000009100B6E46EC2DF00AC005F00BC006F03A
:1055100012004BEC2DF0520E35EC2DF0B40E35ECA4
:105520002DF041EC2DF0530E35EC2DF0010EF6EC84
:105530002AF0076E07500A6E0B6A000EF6EC2AF08E
:10554000076E0750096E086A0A5008100A6E0B5061
:1055500009100B6E46EC2DF00AC005F00BC006F0EA
:105560001200000E151A000E161A000E171A800EE1
:10557000181A11C001F012C002F013C003F014C0D9
:1055800004F015C005F016C006F017C007F018C0EB
:1055900008F09AEC0DF001C011F002C012F003C047
:1055A00013F004C014F01200000E106E000E0F6E07
:1055B000E5EF2AF00EC001F0026A0CC003F00DC046
:1055C00004F04DEC26F00F4A102A0F500A24D96E31
:1055D00010500B20DA6EDF500E6E0E50D8A4F3EF91
:1055E0002AF0F5EF2AF0DAEF2AF01200036E69ECE8
:1055F0002CF00E01DA8769EC2CF0D5CE04F069ECC2
:105600002CF00350D8B407EF2BF00BEF2BF0026A0D
:10561000022A0CEF2BF0026A023A02460E01DA511E
:105620000218DF0B0218DA6FDA8904501200859431
:10563000839E879C85987D947B9E7F9C7D98BD50A2
:105640008F0B3009BD6EE00EBE16BF50F00B010986
:10565000BF6EC70EBC6EBD8E0A0E0E01746F0B0EB0
:10566000696F000EA36E000EA06EA48EA18E1200B4
:1056700026C020F027C021F028C022F029C023F046
:10568000DAEC27F0290E2B6E960E2A6E7F0EE82E8E
:10569000FED72A2EFCD72B2EFAD700F026C01AF000
:1056A00027C01BF028C01CF029C01DF03AEC28F0E0
:1056B000120026C020F027C021F028C022F029C007
:1056C00023F0DAEC27F0520E2B6E2B0E2A6E000E12
:1056D000E82EFED72A2EFCD72B2EFAD700D026C0D4
:1056E0001AF027C01BF028C01CF029C01DF03AECAE
:1056F00028F0120014BE87EF2BF0145006E11304BB
:10570000D8B085EF2BF087EF2BF095EF2BF013C07F
:1057100015F014C016F0151E161E154A162A15C0CF
:1057200013F016C014F099EF2BF013C013F014C04F
:1057300014F01200000E0001706F6C516A5D6D5123
:105740006B59D8B0A6EF2BF0A8EF2BF0B5EF2BF0EC
:105750006C516E5D6D516F59D8A0B1EF2BF0B3EF66
:105760002BF0B5EF2BF0010E706F7051120066C078
:1057700041F067C042F068C043F069C044F00FECEC
:1057800012F041C05BF042C05CF043C05DF044C029
:105790005EF0DEEC24F05BC066F05CC067F05DC0DC
:1057A00068F05EC069F0120001500210031004108E
:1057B000D8B4DDEF2BF0DFEF2BF0E7EF2BF0000E8E
:1057C000011A000E021A000E031A800E041A01C0FC
:1057D00001F002C002F003C003F004C004F01200A4
:1057E00001C003F002C004F0F8EF2BF0014A022AD6
:1057F00001C0D9FF02C0DAFFDF50D8A402EF2CF0BD
:1058000004EF2CF0F6EF2BF00350015C016E045016
:105810000258026E120054EC2CF0010E036E000EC2
:10582000F0EC2CF03F0E056E550EE82EFED7052E3F
:10583000FCD700F0030E036E000EF0EC2CF0D50E3A
:10584000036E010EF0EC2CF0120030EF2CF002C0D1
:10585000D9FF03C0DAFFDF501EEC2DF0024A032A05
:1058600002C0D9FF03C0DAFFDF50D8A43AEF2CF012
:105870003CEF2CF027EF2CF012000001DD6F790EC9
:105880000001606F000E616F0D0E626F0E0E636F90
:10589000DDC064F0656BE8EC29F0790E026E000E55
:1058A000036E25EC2CF012000E01D951F00B080903
:1058B000D96FD98B9F0ED66F848A848CA79BA79DA6
:1058C0001D0E1D6F1E0E1C6F1C0E6F6F1B0E706F5A
:1058D00012000E01D8B56FEF2CF071EF2CF069EFCC
:1058E0002CF0DACE01F01F0E0116D8A47AEF2CF0BE
:1058F0007CEF2CF069EF2CF0120001500302F3CF83
:1059000005F0F4CF06F001500402F35006260250D1
:105910000302F350062605C001F006C002F0120093
:105920007F827E9E7998110E026E3C0E016ECB0E28
:10593000E82EFED7012EFCD7022EFAD700F0120077
:105940007F927E9E7998110E026E3C0E016ECB0EF8
:10595000E82EFED7012EFCD7022EFAD700F0120057
:105960007F927E9E7988110E026E3C0E016ECB0EE8
:10597000E82EFED7012EFCD7022EFAD700F0120037
:105980007F927E8E7998110E026E3C0E016ECB0EC8
:10599000E82EFED7012EFCD7022EFAD700F0120017
:1059A0007F827E8E7988050E026E0F0E016EF10EDB
:1059B000E82EFED7012EFCD7022EFAD700F01200F7
:1059C00086840E01B4958686B4978792869E8198C8
:1059D0007F827E8E7988849E7C9E88968096120037
:1059E000046E4BEC2DF0520E35EC2DF00450800976
:1059F00035EC2DF0035035EC2DF046EC2DF0120077
:105A0000120E0E01626F110E156FE997E895330EB5
:105A1000E56F000EE66FE789E88BE78F1200D6503E
:105A20001F0B4009D66ED688D650F00B0809D66EEB
:105A3000D5880B0ED46EDB0ED36E1200016E0E01F4
:105A400037A525EF2DF027EF2DF01FEF2DF001C02A
:105A5000E4FE1200889284988496869088908092C2
:105A60007C987C967E9080901200026E69EC2CF0FF
:105A700002C0D5FE1200F28EF28AF28C0E01298B42
:105A8000120069EC2CF00E01DA83120069EC2CF0A4
:105A90000E01DA85120069EC2CF00E01DA81120099
:055AA000140A12000AC7
:020000040020DA
:10000000FF0FFF0FFF0FFF0FFF0FFF0FFF0FFF0F80
:020000040030CA
:0C000000AAFFFFFF9FFFFFFFFFFFFFFFB5
:00000001FF
