:040000000BEF0AF008
:100E0000000925640925640925640925640D0A0083
:010E100000E1
:100E120020EE01F00F50D9261050DA22DF50D8B45C
:100E220015EF07F017EF07F048EF07F00FC0D9FFF3
:100E320010C0DAFFDF50116E1150016E026A20EE0F
:100E420007F00F50D9261050DA22DECF03F0DDCFA3
:100E520004F01EEC0AF001C007F002C008F0000E18
:100E62000A6E640E096E5CEC08F020EE07F00F507B
:100E7200D9261050DA22DECF12F0DDCF13F0075060
:100E8200125C186E08501358196E6BEF07F00FC002
:100E9200D9FF10C0DAFFDF50116E1150016E026AE5
:100EA20020EE07F00F50D9261050DA22DECF03F0E1
:100EB200DDCF04F01EEC0AF001C007F002C008F01A
:100EC200000E0A6E640E096E5CEC08F007C018F0A2
:100ED20008C019F020EE02F00F50D9261050DA2285
:100EE200DECF11F0DDCF12F011C0D9FF12C0DAFF50
:100EF20018C0DFFF20EE01F00F50D9261050DA2281
:100F0200DF50D8B487EF07F089EF07F0BEEF07F0A4
:100F120020EE04F00F50D9261050DA22DECF11F065
:100F2200DDCF12F011C0D9FF12C0DAFF10EE04F0CB
:100F32000F50E1261050E222E6CF13F0E5CF14F075
:100F420013C0E1FF14C0E2FFE750156E10EE06F089
:100F52000F50E1261050E222E750166E010E176E76
:100F6200162AB6EF07F0D8901736162EB4EF07F010
:100F720017501510DF6EF2EF07F020EE04F00F505D
:100F8200D9261050DA22DECF11F0DDCF12F011C0D7
:100F9200D9FF12C0DAFF10EE04F00F50E126105014
:100FA200E222E6CF13F0E5CF14F013C0E1FF14C044
:100FB200E2FFE750156E10EE06F00F50E1261050DA
:100FC200E222E750166E010E176E162AEBEF07F0BB
:100FD200D8901736162EE9EF07F01750FF0A1514AE
:100FE200DF6E120001C0D9FF02C0DAFF000EDF6E11
:100FF20020EE01F00150D9260250DA22010EDF6EF6
:1010020020EE02F00150D9260250DA22A30EDE6E43
:101012000F0EDD6E20EE04F00150D9260250DA22C6
:101022007D0EDE6E0F0EDD6E20EE06F00150D9262B
:101032000250DA22040EDF6E20EE07F00150D926AC
:101042000250DA22C70EDE6E000EDD6E03C0D9FF3B
:1010520004C0DAFF000EDF6E20EE01F00350D92645
:101062000450DA22010EDF6E20EE02F00350D92680
:101072000450DA22A00EDE6E0F0EDD6E20EE04F0BA
:101082000350D9260450DA227F0EDE6E0F0EDD6E7B
:1010920020EE06F00350D9260450DA22060EDF6E47
:1010A20020EE07F00350D9260450DA22C70EDE6E76
:1010B200000EDD6E1200000E0C6E0ABE65EF08F027
:1010C20063EF08F06BEF08F0096C0A1ED8B00A2A29
:1010D200010E0C6E08BE72EF08F070EF08F078EFA8
:1010E20008F0076C081ED8B0082A010E0C1A000E70
:1010F2000E6E000E0D6E09500A10D8B483EF08F080
:1011020085EF08F0ADEF08F0010E0B6E8DEF08F0E1
:10111200D89009360A360B2A0AAE92EF08F094EFFD
:1011220008F089EF08F0D8900D360E360950075CAA
:101132000A500858D8A0A0EF08F0A2EF08F0A7EFD5
:1011420008F00950075E0A50085A0D80D8900A32FA
:1011520009320B2E94EF08F00C50D8B4B3EF08F01C
:10116200B5EF08F0B9EF08F00D6C0E1ED8B00E2ADC
:101172000DC007F00EC008F01200F7EF08F01AC019
:10118200D9FF1BC0DAFFDF50D8B4CAEF08F0CCEFAA
:1011920008F0D2EF08F01AC0D9FF1BC0DAFF050E23
:1011A200DF5E1CC0D9FF1DC0DAFFDF50D8B4DCEF10
:1011B20008F0DEEF08F0E4EF08F01CC0D9FF1DC014
:1011C200DAFF050EDF5E1AC00FF01BC010F009EC4B
:1011D20007F01CC00FF01DC010F009EC07F0D00E94
:1011E2001E6ECA0EE82EFED71E2EFCD71AC0D9FFDD
:1011F2001BC0DAFFDF50D8A401EF09F003EF09F0BA
:10120200C0EF08F01CC0D9FF1DC0DAFFDF50D8A420
:101212000DEF09F00FEF09F0C0EF08F0120020EE19
:1012220001F01A50D9261B50DA22010EDF6E20EE91
:1012320001F01C50D9261D50DA22010EDF6E41EF5B
:1012420009F01CC0D9FF1DC0DAFF050EDF261AC047
:10125200D9FF1BC0DAFF000EDF6E1CC00FF01DC0ED
:1012620010F009EC07F01AC00FF01BC010F009ECE7
:1012720007F0D00E1E6ECA0EE82EFED71E2EFCD729
:101282001CC0D9FF1DC0DAFF270EDF644BEF09F047
:101292004DEF09F022EF09F012001FC01AF020C032
:1012A2001BF021C01CF022C01DF010EC09F0290E29
:1012B200246E960E236E7F0EE82EFED7232EFCD7C9
:1012C200242EFAD700F01FC01AF020C01BF021C054
:1012D2001CF022C01DF0BEEC08F0290E246E960E02
:1012E200236E7F0EE82EFED7232EFCD7242EFAD7AC
:1012F20000F01200E2EC09F0C8EC09F0000E026EF8
:10130200C70E016EA7EC09F041EC0AF0250E016E42
:10131200000E026E2F0E036E000E046EF3EC07F049
:10132200869C7E9C8792869E81987F827E8E79881B
:10133200250E1F6E000E206E2F0E216E000E226EE5
:101342004EEC09F099EF09F000EF00F08594839ECE
:10135200879C85987D947B9E7F9C7D98BD508F0B4A
:101362003009BD6EE00EBE16BF50F00B0109BF6E14
:10137200C70EBC6EBD8E0A0E0E01746F0B0E696F26
:10138200000EA36E000EA06EA48EA18E1200E2ECDF
:1013920009F0010E036E000E31EC0AF03F0E056EED
:1013A200550EE82EFED7052EFCD700F0030E036E75
:1013B200000E31EC0AF0D50E036E010E31EC0AF08C
:1013C20012000E01D951F00B0809D96FD98B9F0E6B
:1013D200D66F848A848CA79BA79D1D0E1D6F1E0E3F
:1013E2001C6F1C0E6F6F1B0E706F12000E01D8B5B2
:1013F200FDEF09F0FFEF09F0F7EF09F0DACE01F0A7
:101402001F0E0116D8A408EF0AF00AEF0AF0F7EF50
:1014120009F0120000EE60F03C0EEE6AE806FDE113
:1014220000EE39F0180EEE6AE806FDE1000EF86EE5
:101432000E0EF76E00017BEF09F001500302F3CFAD
:1014420005F0F4CF06F001500402F35006260250D4
:101452000302F350062605C001F006C002F0120096
:10146200046E5BEC0AF0520E50EC0AF00450800954
:1014720050EC0AF0035050EC0AF056EC0AF012005D
:10148200120E0E01626F110E156FE997E895330E79
:10149200E56F000EE66FE789E88BE78F1200026EB8
:1014A200F7EC09F002C0D5FE1200F7EC09F00E01CC
:0E14B200DA851200F7EC09F00E01DA81120063
:020000040020DA
:10000000FF0FFF0FFF0FFF0FFF0FFF0FFF0FFF0F80
:020000040030CA
:0C000000AAFFFFFF9FFFFFFFFFFFFFFFB5
:00000001FF
