:0400000018EF00F005
:100008005F820E0133AB0BEF00F00DEF00F016EF3F
:1000180000F03C0ED46EAF0ED36E0101464B472B59
:0C0028000E01339B5F921100A2EF2EF03E
:100E0000000000004B256409256409256409256458
:100E10000D0A0000000E0001E86F000EE76F000EE3
:100E2000EE6F000EED6F000EEC6F000EEB6F000E1C
:100E3000F46F000EF36F000EF26F000EF16F000EF4
:100E4000EA6F000EE96F000EF76F000EF66F000EEE
:100E5000F06F000EEF6F000EE66F000EE56F000EF4
:100E6000F56F77EC2FF0090E00017E6F1E0E7D6F7F
:100E7000E40EE82EFED77D2FFCD77E2FFAD700F0A8
:100E800079C00CF07AC00DF08CEC2CF07BC0D9FF4F
:100E90007CC0DAFFDECF7DF0DDCF7EF07DC001F0DB
:100EA0007EC002F0036A046A000E5EEC20F001C00E
:100EB00013F002C014F003C015F004C016F079C09E
:100EC000D9FF7AC0DAFFDECF7FF0DDCF80F07FC0C0
:100ED00001F080C002F0036A046A000E5EEC20F0AC
:100EE00001C00FF002C010F003C011F004C012F0F6
:100EF00084EC16F00FC028F010C029F011C02AF0C1
:100F000012C02BF0000E2C6E000E2D6EC80E2E6E31
:100F1000420E2F6EC6EC10F028C0FAF029C0FBF08C
:100F20002AC0FCF02BC0FDF0FAC066F0FBC067F0F1
:100F3000FCC068F0FDC069F069EC2EF066C0F8F006
:100F400067C0F9F0000120EE02F07B51D9267C51F8
:100F5000DA22DECF7DF0DDCF7EF07DC001F07EC0F5
:100F600002F0036A046A000E5EEC20F001C013F088
:100F700002C014F003C015F004C016F0000120EE0A
:100F800002F07951D9267A51DA22DECF7FF0DDCF17
:100F900080F07FC001F080C002F0036A046A000E96
:100FA0005EEC20F001C00FF002C010F003C011F0A1
:100FB00004C012F084EC16F00FC028F010C029F025
:100FC00011C02AF012C02BF0000E2C6E000E2D6EF8
:100FD000C80E2E6E420E2F6EC6EC10F028C0FAF02E
:100FE00029C0FBF02AC0FCF02BC0FDF0FAC066F06F
:100FF000FBC067F0FCC068F0FDC069F069EC2EF042
:1010000066C0E7F067C0E8F0000120EE04F07B5115
:10101000D9267C51DA22DECF7DF0DDCF7EF07DC097
:1010200001F07EC002F0036A046A000E5EEC20F05C
:1010300001C013F002C014F003C015F004C016F094
:10104000000120EE04F07951D9267A51DA22DECF60
:101050007FF0DDCF80F07FC001F080C002F0036A36
:10106000046A000E5EEC20F001C00FF002C010F028
:1010700003C011F004C012F084EC16F00FC028F089
:1010800010C029F011C02AF012C02BF0000E2C6EF7
:10109000000E2D6EC80E2E6E420E2F6EC6EC10F096
:1010A00028C0FAF029C0FBF02AC0FCF02BC0FDF0EC
:1010B000FAC066F0FBC067F0FCC068F0FDC069F0E4
:1010C00069EC2EF066C0EDF067C0EEF0050E000191
:1010D0007E6F0F0E7D6FF10EE82EFED77D2FFCD7B1
:1010E0007E2FFAD7810E0001606F000E616F080E2F
:1010F000626F0E0E636FF8C064F0F9C065F0E7C070
:1011000066F0E8C067F0EDC068F0EEC069F0BBECD7
:101110002CF0810E026E000E036E0CEC2FF097EC9B
:101120002FF0090E00017E6F1E0E7D6FE40EE82E7B
:10113000FED77D2FFCD77E2FFAD700F079C00CF0B8
:101140007AC00DF08CEC2CF0000E2C6E000E2D6E83
:10115000C80E2E6E420E2F6E000120EE06F07B515F
:10116000D9267C51DA22DECF7DF0DDCF7EF07DC046
:1011700001F07EC002F0036A046A000E5EEC20F00B
:1011800001C013F002C014F003C015F004C016F043
:1011900079C0D9FF7AC0DAFFDECF7FF0DDCF80F0F3
:1011A0007FC001F080C002F0036A046A000E5EECAA
:1011B00020F001C00FF002C010F003C011F004C015
:1011C00012F084EC16F00FC028F010C029F011C006
:1011D0002AF012C02BF0C6EC10F028C05BF029C03A
:1011E0005CF02AC05DF02BC05EF0AAEC27F0000E88
:1011F0002C6E000E2D6EC80E2E6E420E2F6E00014C
:1012000020EE08F07B51D9267C51DA22DECF7DF02A
:10121000DDCF7EF07DC001F07EC002F0036A046A7B
:10122000000E5EEC20F001C013F002C014F003C009
:1012300015F004C016F0000120EE02F07951D92615
:101240007A51DA22DECF7FF0DDCF80F07FC001F06F
:1012500080C002F0036A046A000E5EEC20F001C058
:101260000FF002C010F003C011F004C012F084ECC3
:1012700016F00FC028F010C029F011C02AF012C0DB
:101280002BF0C6EC10F028C05BF029C05CF02AC03F
:101290005DF02BC05EF0AAEC27F0000E2C6E000E65
:1012A0002D6EC80E2E6E420E2F6E000120EE0AF03B
:1012B0007B51D9267C51DA22DECF7DF0DDCF7EF066
:1012C0007DC001F07EC002F0036A046A000E5EEC8D
:1012D00020F001C013F002C014F003C015F004C0E8
:1012E00016F0000120EE04F07951D9267A51DA2265
:1012F000DECF7FF0DDCF80F07FC001F080C002F054
:10130000036A046A000E5EEC20F001C00FF002C018
:1013100010F003C011F004C012F084EC16F00FC0FE
:1013200028F010C029F011C02AF012C02BF0C6EC32
:1013300010F028C05BF029C05CF02AC05DF02BC023
:101340005EF0AAEC27F0000120EE06F07B51D926D2
:101350007C51DA22DECF7DF0DDCF7EF07DC001F062
:101360007EC002F0036A046A000E5EEC20F001C049
:1013700013F002C014F003C015F004C016F079C0D9
:10138000D9FF7AC0DAFFDECF7FF0DDCF80F07FC0FB
:1013900001F080C002F0036A046A000E5EEC20F0E7
:1013A00001C00FF002C010F003C011F004C012F031
:1013B00084EC16F00FC028F010C029F011C02AF0FC
:1013C00012C02BF0000E2C6E000E2D6EC80E2E6E6D
:1013D000420E2F6EC6EC10F028C0FAF029C0FBF0C8
:1013E0002AC0FCF02BC0FDF0FAC066F0FBC067F02D
:1013F000FCC068F0FDC069F069EC2EF066C0EBF04F
:1014000067C0ECF0000120EE08F07B51D9267C513A
:10141000DA22DECF7DF0DDCF7EF07DC001F07EC030
:1014200002F0036A046A000E5EEC20F001C013F0C3
:1014300002C014F003C015F004C016F0000120EE45
:1014400002F07951D9267A51DA22DECF7FF0DDCF52
:1014500080F07FC001F080C002F0036A046A000ED1
:101460005EEC20F001C00FF002C010F003C011F0DC
:1014700004C012F084EC16F00FC028F010C029F060
:1014800011C02AF012C02BF0000E2C6E000E2D6E33
:10149000C80E2E6E420E2F6EC6EC10F028C0FAF069
:1014A00029C0FBF02AC0FCF02BC0FDF0FAC066F0AA
:1014B000FBC067F0FCC068F0FDC069F069EC2EF07D
:1014C00066C0F3F067C0F4F0000120EE0AF07B5133
:1014D000D9267C51DA22DECF7DF0DDCF7EF07DC0D3
:1014E00001F07EC002F0036A046A000E5EEC20F098
:1014F00001C013F002C014F003C015F004C016F0D0
:10150000000120EE04F07951D9267A51DA22DECF9B
:101510007FF0DDCF80F07FC001F080C002F0036A71
:10152000046A000E5EEC20F001C00FF002C010F063
:1015300003C011F004C012F084EC16F00FC028F0C4
:1015400010C029F011C02AF012C02BF0000E2C6E32
:10155000000E2D6EC80E2E6E420E2F6EC6EC10F0D1
:1015600028C0FAF029C0FBF02AC0FCF02BC0FDF027
:10157000FAC066F0FBC067F0FCC068F0FDC069F01F
:1015800069EC2EF066C0F1F067C0F2F0810E000148
:10159000606F000E616F080E626F0E0E636FEBC01E
:1015A00064F0ECC065F0F3C066F0F4C067F0F1C021
:1015B00068F0F2C069F0BBEC2CF0810E026E000EF8
:1015C000036E0CEC2FF0A7EC2FF0090E00017E6FDC
:1015D0001E0E7D6FE40EE82EFED77D2FFCD77E2FEA
:1015E000FAD700F079C00CF07AC00DF08CEC2CF03A
:1015F000000120EE0CF07B51D9267C51DA22DECF9F
:101600007DF0DDCF7EF07DC001F07EC002F0036A88
:10161000046A000E5EEC20F001C013F002C014F06A
:1016200003C015F004C016F079C0D9FF7AC0DAFF04
:10163000DECF7FF0DDCF80F07FC001F080C002F010
:10164000036A046A000E5EEC20F001C00FF002C0D5
:1016500010F003C011F004C012F084EC16F00FC0BB
:1016600028F010C029F011C02AF012C02BF0000E93
:101670002C6E000E2D6EC80E2E6E420E2F6EC6EC16
:1016800010F028C0FAF029C0FBF02AC0FCF02BC0F3
:10169000FDF0FAC066F0FBC067F0FCC068F0FDC06A
:1016A00069F069EC2EF066C0E9F067C0EAF000016D
:1016B00020EE0EF07B51D9267C51DA22DECF7DF070
:1016C000DDCF7EF07DC001F07EC002F0036A046AC7
:1016D000000E5EEC20F001C013F002C014F003C055
:1016E00015F004C016F0000120EE02F07951D92661
:1016F0007A51DA22DECF7FF0DDCF80F07FC001F0BB
:1017000080C002F0036A046A000E5EEC20F001C0A3
:101710000FF002C010F003C011F004C012F084EC0E
:1017200016F00FC028F010C029F011C02AF012C026
:101730002BF0000E2C6E000E2D6EC80E2E6E420E7B
:101740002F6EC6EC10F028C0FAF029C0FBF02AC0BA
:10175000FCF02BC0FDF0FAC066F0FBC067F0FCC0E7
:1017600068F0FDC069F069EC2EF066C0F6F067C065
:10177000F7F0000120EE10F07B51D9267C51DA22DF
:10178000DECF7DF0DDCF7EF07DC001F07EC002F0C7
:10179000036A046A000E5EEC20F001C013F002C080
:1017A00014F003C015F004C016F0000120EE04F0A0
:1017B0007951D9267A51DA22DECF7FF0DDCF80F061
:1017C0007FC001F080C002F0036A046A000E5EEC84
:1017D00020F001C00FF002C010F003C011F004C0EF
:1017E00012F084EC16F00FC028F010C029F011C0E0
:1017F0002AF012C02BF0000E2C6E000E2D6EC80EBB
:101800002E6E420E2F6EC6EC10F028C0FAF029C0E2
:10181000FBF02AC0FCF02BC0FDF0FAC066F0FBC064
:1018200067F0FCC068F0FDC069F069EC2EF066C09E
:10183000EFF067C0F0F0000120EE1AF07B51D926DE
:101840007C51DA22DECF7DF0DDCF7EF07DC001F06D
:101850007EC002F0036A046A000E5EEC20F001C054
:1018600013F002C014F003C015F004C016F000011C
:1018700020EE06F07951D9267A51DA22DECF7FF0B8
:10188000DDCF80F07FC001F080C002F0036A046AFF
:10189000000E5EEC20F001C00FF002C010F003C09B
:1018A00011F004C012F084EC16F00FC028F010C044
:1018B00029F011C02AF012C02BF0000E2C6E000E81
:1018C0002D6EC80E2E6E420E2F6EC6EC10F028C084
:1018D000FAF029C0FBF02AC0FCF02BC0FDF0FAC0E2
:1018E00066F0FBC067F0FCC068F0FDC069F069EC11
:1018F0002EF0810E0001606F000E616F080E626FA6
:101900000E0E636FE9C064F0EAC065F0F6C066F0E1
:10191000F7C067F0EFC068F0F0C069F0BBEC2CF0E6
:10192000810E026E000E036E0CEC2FF0000E000113
:101930006B6F000E6A6FF8C06CF0F9C06DF0000EAE
:101940006F6F2D0E6E6F4CEC2EF00009D8B4ABEF1C
:101950000CF0ADEF0CF01EEF0DF0EFC001F0F0C099
:1019600002F0036A046A000E5EEC20F001C013F07E
:1019700002C014F003C015F004C016F00001F651C7
:10198000F3257D6FF751F4217E6F7DC001F07EC09D
:1019900002F0036A046A000E5EEC20F001C00FF052
:1019A00002C010F003C011F004C012F084EC16F075
:1019B0000FC028F010C029F011C02AF012C02BF07F
:1019C000000E2C6E000E2D6E480E2E6E430E2F6EE6
:1019D000C6EC10F028C0FAF029C0FBF02AC0FCF0D9
:1019E0002BC0FDF0000E00016B6F000E6A6FFAC095
:1019F00066F0FBC067F0FCC068F0FDC069F069EC00
:101A00002EF066C06CF067C06DF0010E00016F6FC4
:101A1000D30E6E6F4CEC2EF00009D8B412EF0DF01F
:101A200014EF0DF019EF0DF0030E0001F56FD9EF73
:101A30000DF0020E0001F56FD9EF0DF00001F45129
:101A400007E11F0EF35DD8B028EF0DF02AEF0DF07F
:101A50009FEF0DF0F25107E11F0EF15DD8B033EFAB
:101A60000DF035EF0DF09FEF0DF0F8C001F0F9C06B
:101A700002F0036A046A000E5EEC20F001C013F06D
:101A800002C014F003C015F004C016F0EBC001F062
:101A9000ECC002F0036A046A000E5EEC20F001C0A4
:101AA0000FF002C010F003C011F004C012F084EC7B
:101AB00016F00FC028F010C029F011C02AF012C093
:101AC0002BF0000E2C6E000E2D6EFA0E2E6E430EB5
:101AD0002F6EC6EC10F028C0FAF029C0FBF02AC027
:101AE000FCF02BC0FDF0000E00016B6F000E6A6F62
:101AF000FAC066F0FBC067F0FCC068F0FDC069F09A
:101B000069EC2EF066C06CF067C06DF0000E00014D
:101B10006F6F960E6E6F4CEC2EF00009D8B493EFF9
:101B20000DF095EF0DF09AEF0DF0010E0001F56F3D
:101B3000D9EF0DF0060E0001F56FD9EF0DF0F4515D
:101B400009E11F0EF35DD8A0A8EF0DF0AAEF0DF08C
:101B5000D7EF0DF0F25109E11F0EF15DD8A0B3EF00
:101B60000DF0B5EF0DF0D7EF0DF0F05109E1500E8B
:101B7000EF5DD8A0BEEF0DF0C0EF0DF0C4EF0DF09B
:101B8000070EF56FD9EF0DF0F75107E1300EF65D56
:101B9000D8B0CDEF0DF0CFEF0DF0D3EF0DF0040E78
:101BA000F56FD9EF0DF0050EF56FD9EF0DF0000EC2
:101BB000F56F000E6B6F5A0E6A6FF8C06CF0F9C0CB
:101BC0006DF0D890F8356E6FF9356F6F4CEC2EF0E4
:101BD0000009D8B4EEEF0DF0F0EF0DF023EF0EF0AA
:101BE000000E00016B6F5A0E6A6FEDC06CF0EEC014
:101BF0006DF0D890ED356E6FEE356F6F4CEC2EF0CA
:101C00000009D8B406EF0EF008EF0EF023EF0EF047
:101C1000000E00016B6F5A0E6A6FF6C06CF0F7C0D1
:101C20006DF0D890F6356E6FF7356F6F4CEC2EF087
:101C30000009D8B41EEF0EF020EF0EF023EF0EF0E7
:101C4000080E0001F56F000E00016B6F000E6A6F49
:101C5000E9C06CF0EAC06DF0000E6F6F190E6E6F88
:101C60004CEC2EF00009D8B438EF0EF03AEF0EF03D
:101C700054EF0EF0000E00016B6F000E6A6FF8C09B
:101C80006CF0F9C06DF0000E6F6F1E0E6E6F4CECB5
:101C90002EF00009D8B44FEF0EF051EF0EF054EFD4
:101CA0000EF0000E0001F56F080E0001F519D8A422
:101CB0005CEF0EF05EEF0EF063EF0EF0010E016EC2
:101CC000020E3AEC1BF00001F55112000450800B9B
:101CD0000D6E045004240F6E03AE71EF0EF073EF1F
:101CE0000EF074EF0EF00F800F50D8B47AEF0EF0B4
:101CF0007CEF0EF091EF0EF00F28D8A482EF0EF0DB
:101D000084EF0EF08CEF0EF0000E016E000E026EEE
:101D1000000E036E000E046E038E000E046E99EF2B
:101D20000EF0000E016E000E026E000E036E000E2D
:101D3000046E0850800B0E6E0D500E18D8B4A3EF31
:101D40000EF0A5EF0EF0A6EF0EF00D8C0850082453
:101D50000E6E07AEAEEF0EF0B0EF0EF0B1EF0EF07C
:101D60000E800E50D8B4B7EF0EF0B9EF0EF0CEEFF4
:101D70000EF00E28D8A4BFEF0EF0C1EF0EF0C9EFA1
:101D80000EF0000E056E000E066E000E076E000EC1
:101D9000086E078E000E086ED6EF0EF0000E056E70
:101DA000000E066E000E076E000E086E0F500E5CE1
:101DB000D8B0DDEF0EF0DFEF0EF006EF0FF00DAC58
:101DC000E4EF0EF0E6EF0EF0E8EF0EF0800E0D1AE5
:101DD0000FC010F00EC00FF010C00EF001C010F0D8
:101DE00005C001F010C005F002C010F006C002F0FE
:101DF00010C006F003C010F007C003F010C007F0D9
:101E000004C010F008C004F010C008F0000E106EFE
:101E10000F500EC009F00A6A095E000E0A5A0ABE87
:101E20001BEF0FF00A5009E11A0E095CD8A01BEF56
:101E30000FF01DEF0FF054EF0FF0015002100310E0
:101E40000410D8A426EF0FF029EF0FF0010E2AEFAF
:101E50000FF0000E106E000E016E000E026E000EEE
:101E6000036E000E046E0EC00FF05DEF0FF010A0B9
:101E70003CEF0FF03EEF0FF044EF0FF0D890103032
:101E80000109106E46EF0FF0D890103201A04BEF11
:101E90000FF04DEF0FF04EEF0FF0108E04340432C0
:101EA0000332023201320F2A0E500F5CD8A05BEFD2
:101EB0000FF05DEF0FF037EF0FF00DBC62EF0FF09A
:101EC00064EF0FF0A4EF0FF00F50D8A46AEF0FF0FB
:101ED0006CEF0FF076EF0FF0000E016E000E026E49
:101EE000000E036E000E046EC5EF10F005500126C3
:101EF00006500222075003220850042204A083EF58
:101F00000FF085EF0FF031EF10F010A08AEF0FF017
:101F10008CEF0FF092EF0FF0D89010300109106E97
:101F200094EF0FF0D890103201A099EF0FF09BEFD3
:101F30000FF09CEF0FF0108E0434043203320232A3
:101F400001320F2A31EF10F00550015C06500258A3
:101F5000075003580450800A096E0850800A095837
:101F6000D8B0B5EF0FF0B7EF0FF0E2EF0FF0015080
:101F7000055C096E025006580A6E035007580B6E36
:101F8000045008580C6EFF0E0924016EFF0E0A2043
:101F9000026EFF0E0B20036EFF0E0C20046E800EEF
:101FA0000D1A106C1050D8A4D8EF0FF0DAEF0FF024
:101FB000EAEF0FF0010E0126000E02220322042296
:101FC000EAEF0FF00550015E0650025A0750035A1F
:101FD0000850045A0150021003100410D8A4F3EF63
:101FE0000FF0F5EF0FF02AEF10F01050D8A4FBEF30
:101FF0000FF0FDEF0FF02AEF10F0000E016E000E53
:10200000026E000E036E000E046EC5EF10F0D89045
:10201000013602360336043610AE11EF10F013EF1E
:1020200010F014EF10F0018010A019EF10F01BEF6A
:1020300010F01FEF10F0D880103621EF10F0D8907C
:1020400010360F50D8B427EF10F029EF10F02AEF18
:1020500010F00F0603AE2FEF10F031EF10F007EF86
:1020600010F0000E0E6E10AE38EF10F03AEF10F0D8
:1020700052EF10F010C009F07F0E0916D8B443EFEC
:1020800010F045EF10F049EF10F0010E0E6E52EF18
:1020900010F001A04EEF10F050EF10F052EF10F0E2
:1020A00045EF10F00E50D8B458EF10F05AEF10F082
:1020B00085EF10F0010E0126000E022203220422F9
:1020C00004A065EF10F067EF10F085EF10F001C08D
:1020D00009F002C00AF003C00BF004C00CF00C348D
:1020E0000C320B320A32093209C001F00AC002F088
:1020F0000BC003F00CC004F00F28D8B482EF10F02E
:1021000084EF10F085EF10F00F2A0F28D8B48BEF72
:1021100010F08DEF10F095EF10F00F50D8A493EF62
:1021200010F095EF10F0A7EF10F0000E016E000E0A
:10213000026E000E036E000E046E0F50D8A4A3EFC3
:1021400010F0A5EF10F0A7EF10F0000E0D6E0FA02D
:10215000ACEF10F0AEEF10F0B1EF10F0038EB2EF75
:1021600010F0039ED8900F30046E0DAEBAEF10F051
:10217000BCEF10F0BDEF10F0048E01C001F002C002
:1021800002F003C003F004C004F012002B50800BD7
:10219000346E2B502B243A6E2AAED1EF10F0D3EFD1
:1021A00010F0D4EF10F03A803A50D8B4DAEF10F0D3
:1021B000DCEF10F0EFEF10F03A28D8A4E2EF10F0C7
:1021C000E4EF10F0ECEF10F0000E286E000E296E18
:1021D000000E2A6E000E2B6E2A8EF7EF10F0000E06
:1021E000286E000E296E000E2A6E000E2B6E2F50E8
:1021F000800B341A2F502F24396E2EAE02EF11F0BF
:1022000004EF11F005EF11F039803950D8B40BEF1D
:1022100011F00DEF11F020EF11F03928D8A413EFD1
:1022200011F015EF11F01DEF11F0000E2C6E000EE5
:102230002D6E000E2E6E000E2F6E2E8E28EF11F0DA
:10224000000E2C6E000E2D6E000E2E6E000E2F6EE8
:102250003950D8B42EEF11F030EF11F038EF11F003
:102260003A50D8A436EF11F038EF11F042EF11F0E8
:10227000000E286E000E296E000E2A6E000E2B6EC8
:10228000DAEF12F02E502802F3CF3FF0F4CF40F0F7
:102290003F50356E366A376A386A40503B6E3C6A4A
:1022A0003D6A3E6A2D502902F3CF3FF0F4CF40F053
:1022B0003F503526000E36223722382240503B262A
:1022C000000E3C223D223E222C502A02F3CF3FF04A
:1022D000F4CF40F03F503526000E36223722382208
:1022E00040503B26000E3C223D223E2237C038F0B3
:1022F00036C037F035C036F0356A2C502902F3CF9E
:102300003FF0F4CF40F03F50352640503622000ECB
:102310003722000E38222D502802F3CF3FF0F4CFA1
:1023200040F03F50352640503622000E3722000E36
:10233000382237C038F036C037F035C036F0356A4D
:102340002C502802F3CF3FF0F4CF40F03F50352619
:1023500040503622000E3722000E38222E5029021D
:10236000F3CF3FF0F4CF40F03F503B2640503C22AB
:10237000000E3D22000E3E222D502A02F3CF3FF0E8
:10238000F4CF40F03F503B2640503C22000E3D220F
:10239000000E3E222E502A02F3CF3FF0F4CF40F041
:1023A0003F50306E4050316E326A336A32C033F083
:1023B00031C032F030C031F0306A30503B263150FD
:1023C0003C2232503D2233503E2235C030F036C0E0
:1023D00031F037C032F038C033F0190EF5EF11F09C
:1023E000D8903332323231323032E82EF0EF11F001
:1023F00030503B2631503C2232503D2233503E2259
:1024000037C038F036C037F035C036F0356A39504D
:102410003AC030F0316A3026000E3122820E30246C
:102420003F6EFF0E3120406E2BEF12F0D8903B36FE
:102430003C363D363E3638AE20EF12F022EF12F039
:1024400023EF12F03B80D8903536363637363836A3
:102450003F06D8A040063DAE30EF12F032EF12F04A
:1024600016EF12F0000E396E38AE39EF12F03BEF76
:1024700012F05FEF12F0FF0E3514306EFF0E3614BF
:10248000316EFF0E3714326E7F0E3814336E3050BB
:10249000311032103310D8B450EF12F052EF12F066
:1024A00056EF12F0010E396E5FEF12F03BA05BEFBA
:1024B00012F05DEF12F05FEF12F052EF12F03950B0
:1024C000D8B465EF12F067EF12F08BEF12F0010E47
:1024D0003B26000E3C223D223E223EA072EF12F02F
:1024E00074EF12F08BEF12F03BC030F03CC031F0D3
:1024F0003DC032F03EC033F0333433323232313209
:10250000303230C03BF031C03CF032C03DF033C01F
:102510003EF03F4A402A40BE96EF12F0405008E19C
:102520003F28D8A096EF12F098EF12F0A2EF12F029
:10253000000E3B6E000E3C6E800E3D6E7F0E3E6EBA
:10254000D0EF12F040BEAFEF12F0405006E13F0472
:10255000D8B0ADEF12F0AFEF12F0BBEF12F0000EFB
:102560003B6E000E3C6E000E3D6E000E3E6E000E89
:10257000346ED0EF12F03FC03AF0FF0E3B16FF0E64
:102580003C167F0E3D16000E3E163AA0CAEF12F022
:10259000CCEF12F0CDEF12F03D8ED8903A303E6E77
:1025A00034503E123BC028F03CC029F03DC02AF018
:1025B0003EC02BF012003AC153F03BC154F03CC175
:1025C00055F03DC156F041C053F042C054F043C0F5
:1025D00055F044C056F053C045F054C046F055C0C5
:1025E00047F056C048F0180EFBEF12F0D890483272
:1025F000473246324532E82EF6EF12F045504D6E26
:102600004E6A4EBE0DEF13F04E5009E1960E4D5C32
:10261000D8A00DEF13F00FEF13F019EF13F041C036
:1026200041F042C042F043C043F044C044F0B1EF37
:1026300014F053C045F054C046F055C047F056C0A2
:1026400048F0200E29EF13F0D89048324732463236
:102650004532E82E24EF13F045504610471048103D
:10266000D8B435EF13F037EF13F049EF13F041C052
:1026700001F042C002F043C003F044C004F086EC15
:102680002EF001C041F002C042F003C043F004C08C
:1026900044F04EBE57EF13F04E5007E17E0E4D5CF6
:1026A000D8B055EF13F057EF13F073EF13F053C09A
:1026B00028F054C029F055C02AF056C02BF0000E67
:1026C0002C6E000E2D6E000E2E6E000E2F6EC6ECC0
:1026D00010F028C041F029C042F02AC043F02BC0BE
:1026E00044F0B1EF14F0000E056E000E066E000E01
:1026F000076E4B0E086E41C001F042C002F043C0AD
:1027000003F044C004F066EC0EF001C04FF002C0CC
:1027100050F003C051F004C052F0000E056E000EE0
:10272000066E000E076ECB0E086E4FC001F050C053
:1027300002F051C003F052C004F066EC0EF001C08C
:1027400049F002C04AF003C04BF004C04CF049C04D
:1027500011F04AC012F04BC013F04CC014F041C04D
:1027600015F042C016F043C017F044C018F084ECD6
:102770002DF011C057F012C058F013C059F014C01A
:102780005AF0000E016E000E026E000E036E3F0E38
:10279000046E57C005F058C006F059C007F05AC083
:1027A00008F02EEC28F0D8B0D8EF13F0DAEF13F0E1
:1027B00010EF14F041C005F042C006F043C007F02E
:1027C00044C008F057C001F058C002F059C003F0EF
:1027D0005AC004F066EC0EF001C04FF002C050F099
:1027E00003C051F004C052F04FC001F050C002F0DD
:1027F00051C003F052C004F0000E056E000E066ECC
:10280000800E076EBF0E086E66EC0EF001C057F02A
:1028100002C058F003C059F004C05AF079EF14F028
:10282000000E016E000E026E000E036EBF0E046EEF
:1028300057C005F058C006F059C007F05AC008F05C
:102840002EEC28F0D8A027EF14F029EF14F05FEF5A
:1028500014F041C005F042C006F043C007F044C088
:1028600008F057C001F058C002F059C003F05AC038
:1028700004F066EC0EF001C04FF002C050F003C04F
:1028800051F004C052F04FC001F050C002F051C0EE
:1028900003F052C004F0000E056E000E066E800EAE
:1028A000076E3F0E086E66EC0EF001C057F002C0D6
:1028B00058F003C059F004C05AF079EF14F057C033
:1028C00001F058C002F059C003F05AC004F041C0F2
:1028D00005F042C006F043C007F044C008F066ECC3
:1028E0000EF001C057F002C058F003C059F004C008
:1028F0005AF053C045F054C046F055C047F056C09A
:1029000048F0200E89EF14F0D89048324732463212
:102910004532E82E84EF14F0455046104710481019
:10292000D8B495EF14F097EF14F0A9EF14F057C056
:1029300001F058C002F059C003F05AC004F086EC10
:102940002EF001C057F002C058F003C059F004C087
:102950005AF057C041F058C042F059C043F05AC035
:1029600044F012002DC020F02EC021F02FC022F024
:1029700030C023F0010E246ED5EC25F02DC020F0E0
:102980002EC021F02FC022F030C023F0040E246EA0
:10299000010E256E10EC22F02DC020F02EC021F08B
:1029A0002FC022F030C023F0020E246ED5EC25F0AB
:1029B000010149072DC01AF02EC01BF02FC01CF0DA
:1029C00030C01DF0BBEC2AF0000E346E000E336EEA
:1029D000F8EF14F0090E326E1E0E316EE40EE82E82
:1029E000FED7312EFCD7322EFAD700D0334A342A04
:1029F00001014951020D000EF324D96E010EF4209D
:102A0000DA6EDE50335CDE503458D8A00AEF15F091
:102A10000CEF15F0EAEF14F02DC01AF02EC01BF0E9
:102A20002FC01CF030C01DF07FEC2BF0010149518C
:102A3000D8A41DEF15F01FEF15F021EF15F065EF8D
:102A400016F049074951020D000EF324D96E010E0C
:102A5000F420DA6EDE04DE10D8A431EF15F033EF87
:102A600015F04FEF15F02DC020F02EC021F02FC033
:102A700022F030C023F0020E246E010E256E10EC01
:102A800022F02DC020F02EC021F02FC022F030C047
:102A900023F0020E246ED5EC25F0D8EF14F0495146
:102AA000020D000EF324D96E010EF420DA6E020E30
:102AB000DE18DE10D8A45FEF15F061EF15F07DEFA2
:102AC00015F02DC020F02EC021F02FC022F030C014
:102AD00023F0020E246E020E256E10EC22F02DC0A3
:102AE00020F02EC021F02FC022F030C023F0020EC3
:102AF000246ED5EC25F0D8EF14F04951020D000EEC
:102B0000F324D96E010EF420DA6E030EDE18DE1007
:102B1000D8A48DEF15F08FEF15F0ABEF15F02DC0A9
:102B200020F02EC021F02FC022F030C023F0040E80
:102B3000246E020E256E10EC22F02DC020F02EC067
:102B400021F02FC022F030C023F0020E246ED5EC0D
:102B500025F0D8EF14F04951020D000EF324D96E80
:102B6000010EF420DA6E040EDE18DE10D8A4BBEFDE
:102B700015F0BDEF15F0D9EF15F02DC020F02EC0E7
:102B800021F02FC022F030C023F0020E246E010E7F
:102B9000256E10EC22F02DC020F02EC021F02FC0A9
:102BA00022F030C023F0030E246ED5EC25F0D8EFD0
:102BB00014F04951020D000EF324D96E010EF420D9
:102BC000DA6E050EDE18DE10D8A4E9EF15F0EBEF93
:102BD00015F007EF16F02DC020F02EC021F02FC009
:102BE00022F030C023F0020E246E020E256E10EC8F
:102BF00022F02DC020F02EC021F02FC022F030C0D6
:102C000023F0030E246ED5EC25F0D8EF14F04951D3
:102C1000020D000EF324D96E010EF420DA6E060EBA
:102C2000DE18DE10D8A417EF16F019EF16F035EF06
:102C300016F02DC020F02EC021F02FC022F030C0A1
:102C400023F0030E246E010E256E10EC22F02DC031
:102C500020F02EC021F02FC022F030C023F0020E51
:102C6000246ED5EC25F0D8EF14F04951020D000E7A
:102C7000F324D96E010EF420DA6E070EDE18DE1092
:102C8000D8A445EF16F047EF16F063EF16F02DC00D
:102C900020F02EC021F02FC022F030C023F0030E10
:102CA000246E020E256E10EC22F02DC020F02EC0F6
:102CB00021F02FC022F030C023F0020E246ED5EC9C
:102CC00025F0D8EF14F0DAEF14F07C8E7CEF16F0DC
:102CD0002DC01AF02EC01BF02FC01CF030C01DF00C
:102CE0007FEC2BF08EB477EF16F079EF16F07CEFD7
:102CF00016F07C9E83EF16F08EB481EF16F083EF12
:102D000016F068EF16F012001250800B1F6E125072
:102D10001224266E11AE8FEF16F091EF16F092EF9F
:102D200016F026802650D8B498EF16F09AEF16F0D9
:102D3000AFEF16F02628D8A4A0EF16F0A2EF16F0F9
:102D4000AAEF16F0000E0F6E000E106E000E116E40
:102D5000000E126E118E000E126EB7EF16F0000EFE
:102D60000F6E000E106E000E116E000E126E1650D9
:102D7000800B1F1A16501624276E15AEC2EF16F0E0
:102D8000C4EF16F0C5EF16F027802750D8B4CBEF6C
:102D900016F0CDEF16F0E2EF16F02728D8A4D3EF07
:102DA00016F0D5EF16F0DDEF16F0000E136E000EE4
:102DB000146E000E156E000E166E158E000E166E39
:102DC000EAEF16F0000E136E000E146E000E156E74
:102DD000000E166E1350141015101610D8A4F3EF31
:102DE00016F0F5EF16F00DEF17F0000E0F6E000E57
:102DF000106E000E116E000E126E800E11127F0EFC
:102E000012121F5012120FC00FF010C010F011C09C
:102E100011F012C012F050EF18F02650D8A413EFA2
:102E200017F015EF17F01FEF17F0000E0F6E000EE2
:102E3000106E000E116E000E126E50EF18F027503B
:102E400026C017F0186A175E000E185A7F0E172456
:102E5000206E000E1820216E0FC01BF010C01CF059
:102E600011C01DF012C01EF0000E0F6E000E106E8D
:102E7000000E116E000E126E000E226E000E236EFA
:102E8000000E246E000E256E000E276E80EF17F0E8
:102E90002750D8B44EEF17F050EF17F067EF17F048
:102EA000D8901B361C361D361E36D8900F3610367D
:102EB0001136123625AE5FEF17F061EF17F062EFB3
:102EC00017F00F80D890223623362436253613503B
:102ED0001B5C14501C5815501D5816501E58D8A075
:102EE00074EF17F076EF17F07FEF17F0258C135083
:102EF0001B5E14501C5A15501D5A16501E5A272A74
:102F0000190E276486EF17F088EF17F048EF17F0D7
:102F10001B501C101D101E10D8B491EF17F093EF2A
:102F200017F0ABEF17F02280ABEF17F0D8900F3609
:102F300010361136123625AEA0EF17F0A2EF17F0BB
:102F4000A3EF17F00F80D89022362336243625368B
:102F50002006D8A0210611AEB0EF17F0B2EF17F09F
:102F600096EF17F0000E276E25AEB9EF17F0BBEF06
:102F700017F0DFEF17F0FF0E2214176EFF0E231469
:102F8000186EFF0E2414196E7F0E25141A6E17503A
:102F9000181019101A10D8B4D0EF17F0D2EF17F09C
:102FA000D6EF17F0010E276EDFEF17F00FA0DBEF63
:102FB00017F0DDEF17F0DFEF17F0D2EF17F0275023
:102FC000D8B4E5EF17F0E7EF17F00BEF18F0010EAC
:102FD0000F26000E10221122122212A0F2EF17F07B
:102FE000F4EF17F00BEF18F00FC017F010C018F047
:102FF00011C019F012C01AF01A341A3219321832EC
:10300000173217C00FF018C010F019C011F01AC015
:1030100012F0204A212A21BE16EF18F0215008E1B3
:103020002028D8A016EF18F018EF18F023EF18F0AA
:10303000000E216E2068000E0F6E000E106E000E46
:10304000116E000E126E21BE30EF18F0215006E115
:103050002004D8B02EEF18F030EF18F03EEF18F043
:10306000000E216E000E206E000E0F6E000E106E10
:10307000000E116E000E126E000E1F6E20C026F0A4
:1030800026A045EF18F047EF18F04AEF18F0118E20
:103090004BEF18F0119ED8902630126E01EF17F00A
:1030A0001200396E3950D8B458EF18F05AEF18F0B2
:1030B000C8EF19F03904D8A460EF18F062EF18F0E7
:1030C0008AEF18F035C020F036C021F037C022F06A
:1030D00038C023F0010E246ED5EC25F035C020F069
:1030E00036C021F037C022F038C023F0020E246E23
:1030F000020E256E10EC22F001014951020D000E66
:10310000F324D96E010EF420DA6E010EDE6E000E8D
:10311000DD6E492B020E3918D8A491EF18F093EF09
:1031200018F0BBEF18F035C020F036C021F037C0E2
:1031300022F038C023F0010E246ED5EC25F035C006
:1031400020F036C021F037C022F038C023F0020E44
:10315000246E010E256E10EC22F001014951020D82
:10316000000EF324D96E010EF420DA6E020EDE6E2C
:10317000000EDD6E492B030E3918D8A4C2EF18F0EB
:10318000C4EF18F0ECEF18F035C020F036C021F095
:1031900037C022F038C023F0010E246ED5EC25F0A4
:1031A00035C020F036C021F037C022F038C023F0FF
:1031B000040E246E010E256E10EC22F0010149511F
:1031C000020D000EF324D96E010EF420DA6E030E08
:1031D000DE6E000EDD6E492B040E3918D8A4F3EF15
:1031E00018F0F5EF18F01DEF19F035C020F036C0DB
:1031F00021F037C022F038C023F0030E246ED5EC46
:1032000025F035C020F036C021F037C022F038C09C
:1032100023F0020E246E020E256E10EC22F0010146
:103220004951020D000EF324D96E010EF420DA6E1E
:10323000040EDE6E000EDD6E492B050E3918D8A483
:1032400024EF19F026EF19F04EEF19F035C020F0F9
:1032500036C021F037C022F038C023F0030E246EB0
:10326000D5EC25F035C020F036C021F037C022F073
:1032700038C023F0020E246E010E256E10EC22F0F1
:1032800001014951020D000EF324D96E010EF42004
:10329000DA6E050EDE6E000EDD6E492B060E391855
:1032A000D8A455EF19F057EF19F07FEF19F035C09A
:1032B00020F036C021F037C022F038C023F0010ED4
:1032C000246ED5EC25F035C020F036C021F037C093
:1032D00022F038C023F0030E246E020E256E10EC8F
:1032E00022F001014951020D000EF324D96E010EA6
:1032F000F420DA6E060EDE6E000EDD6E492B070E30
:103300003918D8A486EF19F088EF19F0B0EF19F04A
:1033100035C020F036C021F037C022F038C023F08D
:10332000010E246ED5EC25F035C020F036C021F01A
:1033300037C022F038C023F0030E246E010E256E34
:1033400010EC22F001014951020D000EF324D96E58
:10335000010EF420DA6E070EDE6E000EDD6E492BD4
:10336000080E3918D8A4B7EF19F0B9EF19F0C8EF63
:1033700019F0010E016E020E3AEC1BF035C02DF073
:1033800036C02EF037C02FF038C030F0B2EC14F059
:1033900012001EC036F01FC037F020C038F021C028
:1033A00039F022C03AF023C03BF024C03CF025C0E5
:1033B0003DF03DBEDEEF19F0E1EF19F0010EE2EF56
:1033C00019F0000E346E356A34503510D8B4EBEF76
:1033D00019F0EDEF19F0FDEF19F03D1E3C1E3B1EFC
:1033E0003A1E391E381E371E366C000E3722382220
:1033F00039223A223B223C223D22010143BF03EF06
:103400001AF005EF1AF006EF1AF0449343BF13EFDA
:103410001AF0435106E14205D8B011EF1AF013EF4C
:103420001AF019EF1AF0000E316E010E306E1DEF1A
:103430001AF042C130F043C131F040C132F041C115
:1034400033F034503510D8A428EF1AF02AEF1AF0D0
:1034500031EF1AF044A52FEF1AF031EF1AF034EFE4
:103460001AF03206D8A03306000E3F6E1F0E3E6ED5
:10347000000E696FB8EF1AF03E06D8A03F064A0E5C
:103480003E24D96E010E3F20DA6E36C001F037C0FF
:1034900002F038C003F039C004F03AC005F03BC078
:1034A00006F03CC007F03DC008F00A0E096E000EA1
:1034B0000A6E000E0B6E000E0C6E000E0D6E000EEE
:1034C0000E6E000E0F6E000E106E77EC24F001C031
:1034D00026F002C027F003C028F004C029F005C080
:1034E0002AF006C02BF007C02CF008C02DF026C033
:1034F00013F028C014F02CEC2EF01350300FDF6EB8
:103500003006D8A031063206D8A0330636C001F006
:1035100037C002F038C003F039C004F03AC005F0FB
:103520003BC006F03CC007F03DC008F00A0E096E33
:10353000000E0A6E000E0B6E000E0C6E000E0D6E6D
:10354000000E0E6E000E0F6E000E106EB3EC23F028
:1035500001C036F002C037F003C038F004C039F0C3
:1035600005C03AF006C03BF007C03CF008C03DF093
:103570003FBEC3EF1AF03F5008E13E04D8A0C3EFAE
:103580001AF0C5EF1AF0F6EF1AF03650371038106F
:1035900039103A103B103C103D10D8A4D2EF1AF06D
:1035A000D4EF1AF03CEF1AF031BEE1EF1AF03150CF
:1035B00006E13004D8B0DFEF1AF0E1EF1AF03CEF8B
:1035C0001AF033BEECEF1AF0335008E13204D8A001
:1035D000ECEF1AF0EEEF1AF0F6EF1AF0010144B337
:1035E000F4EF1AF0F6EF1AF03CEF1AF03450351001
:1035F000D8A4FDEF1AF0FFEF1AF007EF1BF001015E
:1036000044A505EF1BF007EF1BF025EF1BF03E066E
:10361000D8A03F0634503510D8A411EF1BF013EF9B
:103620001BF019EF1BF0000E2F6E2B0E2E6E1DEFF0
:103630001BF0000E2F6E2D0E2E6E4A0E3E24D96EFC
:10364000010E3F20DA6E2EC0DFFF1CC011F01DC03E
:1036500012F04A0E3E24136E010E3F20146E32C04B
:1036600015F033C016F058EC2AF011C01CF012C04F
:103670001DF01200056E000E046E000E046E86EF43
:103680001CF00504D8A447EF1BF049EF1BF081EFB5
:103690001BF080A24EEF1BF052EF1BF0026A022AD1
:1036A00053EF1BF0026A024680500218FD0B02180D
:1036B000806E290E036E960E026E7F0EE82EFED7E8
:1036C000022EFCD7032EFAD700F080A26AEF1BF07F
:1036D0006EEF1BF0026A022A6FEF1BF0026A0246CD
:1036E00080500218FD0B0218806E290E036E960E94
:1036F000026E7F0EE82EFED7022EFCD7032EFAD7DD
:1037000000F0020E0518D8A488EF1BF08AEF1BF01A
:10371000C2EF1BF07CA88FEF1BF093EF1BF0026A47
:10372000022A94EF1BF0026A023A7C500218EF0B57
:1037300002187C6E290E036E960E026E7F0EE82E26
:10374000FED7022EFCD7032EFAD700F07CA8ABEFF1
:103750001BF0AFEF1BF0026A022AB0EF1BF0026A07
:10376000023A7C500218EF0B02187C6E290E036E91
:10377000960E026E7F0EE82EFED7022EFCD7032E89
:10378000FAD700F0030E0518D8A4C9EF1BF0CBEF51
:103790001BF007EF1CF07CA6D0EF1BF0D4EF1BF062
:1037A000026A022AD5EF1BF0026A0246024602466E
:1037B0007C500218F70B02187C6E290E036E960ED1
:1037C000026E7F0EE82EFED7022EFCD7032EFAD70C
:1037D00000F07CA6EEEF1BF0F2EF1BF0026A022A6B
:1037E000F3EF1BF0026A0246024602467C500218C2
:1037F000F70B02187C6E290E036E960E026E7F0E7A
:10380000E82EFED7022EFCD7032EFAD700F0040EC6
:103810000518D8A40EEF1CF010EF1CF046EF1CF0BA
:103820007EA015EF1CF019EF1CF0026A022A1AEFB5
:103830001CF0026A7E500218FE0B02187E6E290EE2
:10384000036E960E026E7F0EE82EFED7022EFCD778
:10385000032EFAD700F07EA030EF1CF034EF1CF0FE
:10386000026A022A35EF1CF0026A7E500218FE0B33
:1038700002187E6E290E036E960E026E7F0EE82EE3
:10388000FED7022EFCD7032EFAD700F0030E051840
:10389000D8A44DEF1CF04FEF1CF085EF1CF080A07A
:1038A00054EF1CF058EF1CF0026A022A59EF1CF08A
:1038B000026A80500218FE0B0218806E290E036EF9
:1038C000960E026E7F0EE82EFED7022EFCD7032E38
:1038D000FAD700F080A06FEF1CF073EF1CF0026AC3
:1038E000022A74EF1CF0026A80500218FE0B0218C4
:1038F000806E290E036E960E026E7F0EE82EFED7A6
:10390000022EFCD7032EFAD700F0042A0150045CE3
:10391000D8A08DEF1CF08FEF1CF041EF1BF01200D0
:10392000F2EC2EF0D8EC2EF0000E026EC70E016EF7
:103930000BEC2EF0B00E016E010E026EB90E036E8E
:10394000010E046E27EC29F0D7EC2FF0E6EC2FF0F7
:1039500007EC30F0000E0101866F000E8B6F940EA5
:103960000001786F010E796F7C0E7A6F010E7B6F0C
:10397000B00E7C6F010E7D6FB90E7E6F010E7F6FF2
:1039800029EC25F078C084F179C085F1D58E46C147
:1039900087F147C188F1E8EF1CF0B00E1A6E010EF6
:1039A0001B6EB90E1C6E010E1D6EBBEC2AF0B00E24
:1039B00000016A6F010E6B6FB90E6C6F010E6D6FB7
:1039C00084C16EF085C16FF0F5EC29F00101866FBE
:1039D00001018651D8B4EFEF1CF0F1EF1CF0CDEFF0
:1039E0001CF0D59E46C189F147C18AF18751895D96
:1039F000786F88518A59796F795109E10B0E785D9A
:103A0000D8A005EF1DF007EF1DF024EF1DF0FD0E0F
:103A1000786FFF0E796F8751895D7A6F88518A5967
:103A20007B6F78517A2779517B234951020D000E23
:103A3000F324D96E010EF420DA6E7AC1DEFF7BC169
:103A4000DDFF492B3EEF1DF08B2B8B5124EC2FF02B
:103A5000040E01018B652FEF1DF031EF1DF03EEFDD
:103A60001DF0B00E2D6E010E2E6EB90E2F6E010ED2
:103A7000306EB2EC14F0000E01018B6FB00E1A6EB6
:103A8000010E1B6EB90E1C6E010E1D6E7FEC2BF02D
:103A9000520E0101796F2B0E786F000EE82EFED7C3
:103AA000782FFCD7792FFAD700F0B00E206E010ED8
:103AB000216EB90E226E010E236EC9EC2DF08C0E14
:103AC0000001796F010E7A6F940E7B6F010E7C6F8F
:103AD0000AEC07F00101486F8C0E6A6F010E6B6FE4
:103AE000940E6C6F010E6D6F4851DEEC2BF00101EE
:103AF000486F4851D8B47FEF1DF081EF1DF08FEF74
:103B00001DF0B00E356E010E366EB90E376E010E19
:103B1000386E485151EC18F0000E0101486F000E4C
:103B2000866FC6EF1CF018EF00F087EC2FF0020E46
:103B3000016E010E3AEC1BF0290E0F6E960E0E6E02
:103B40007F0EE82EFED70E2EFCD70F2EFAD700F0F0
:103B500077EC2FF0090E0F6E1E0E0E6EE40EE82E9F
:103B6000FED70E2EFCD70F2EFAD700D0E4EC2CF0A7
:103B70000CC0D9FF0DC0DAFF05C0DEFF06C0DDFFB7
:103B80000CEC2DF020EE02F00C50D9260D50DA226C
:103B900005C0DEFF06C0DDFF34EC2DF020EE04F0A2
:103BA0000C50D9260D50DA2205C0DEFF06C0DDFF1D
:103BB00097EC2FF0090E0F6E1E0E0E6EE40EE82E1F
:103BC000FED70E2EFCD70F2EFAD700D0E4EC2CF047
:103BD00020EE06F00C50D9260D50DA2205C0DEFF8B
:103BE00006C0DDFF0CEC2DF020EE08F00C50D926BD
:103BF0000D50DA2205C0DEFF06C0DDFF34EC2DF0EB
:103C000020EE0AF00C50D9260D50DA2205C0DEFF56
:103C100006C0DDFFA7EC2FF0090E0F6E1E0E0E6E14
:103C2000E40EE82EFED70E2EFCD70F2EFAD700D0CA
:103C3000E4EC2CF020EE0CF00C50D9260D50DA22DA
:103C400005C0DEFF06C0DDFF0CEC2DF020EE0EF00F
:103C50000C50D9260D50DA2205C0DEFF06C0DDFF6C
:103C600034EC2DF020EE10F00C50D9260D50DA2255
:103C700005C0DEFF06C0DDFF5CEC2DF020EE1AF083
:103C80000C50D9260D50DA2205C0DEFF06C0DDFF3C
:103C9000B7EC2FF0090E0F6E1E0E0E6EE40EE82E1E
:103CA000FED70E2EFCD70F2EFAD700D0E4EC2CF066
:103CB00020EE12F00C50D9260D50DA2205C0DEFF9E
:103CC00006C0DDFF0CEC2DF020EE14F00C50D926D0
:103CD0000D50DA2205C0DEFF06C0DDFF34EC2DF00A
:103CE00020EE16F00C50D9260D50DA2205C0DEFF6A
:103CF00006C0DDFF5CEC2DF020EE18F00C50D9264C
:103D00000D50DA2205C0DEFF06C0DDFF87EC2FF084
:103D1000290E0F6E960E0E6E7F0EE82EFED70E2E1B
:103D2000FCD70F2EFAD700F0020E016E010E3AEC0E
:103D30001BF0120020EE01F00F50D9261050DA22AD
:103D4000DF50D8B4A6EF1EF0A8EF1EF0D9EF1EF09A
:103D50000FC0D9FF10C0DAFFDF50116E1150016E95
:103D6000026A20EE07F00F50D9261050DA22DECF7B
:103D700003F0DDCF04F064EC2FF001C007F002C0C7
:103D800008F0000E0A6E640E096E1DEC2BF020EE9A
:103D900007F00F50D9261050DA22DECF12F0DDCF17
:103DA00013F00750125C186E08501358196EFCEF90
:103DB0001EF00FC0D9FF10C0DAFFDF50116E115096
:103DC000016E026A20EE07F00F50D9261050DA2259
:103DD000DECF03F0DDCF04F064EC2FF001C007F07C
:103DE00002C008F0000E0A6E640E096E1DEC2BF086
:103DF00007C018F008C019F020EE02F00F50D926C5
:103E00001050DA22DECF11F0DDCF12F011C0D9FF51
:103E100012C0DAFF18C0DFFF20EE01F00F50D926E4
:103E20001050DA22DF50D8B418EF1FF01AEF1FF04D
:103E30004FEF1FF020EE04F00F50D9261050DA2279
:103E4000DECF11F0DDCF12F011C0D9FF12C0DAFFC2
:103E500010EE04F00F50E1261050E222E6CF13F0EE
:103E6000E5CF14F013C0E1FF14C0E2FFE750156E78
:103E700010EE06F00F50E1261050E222E750166EC9
:103E8000010E176E162A47EF1FF0D8901736162E20
:103E900045EF1FF017501510DF6E83EF1FF020EE77
:103EA00004F00F50D9261050DA22DECF11F0DDCF0A
:103EB00012F011C0D9FF12C0DAFF10EE04F00F505B
:103EC000E1261050E222E6CF13F0E5CF14F013C044
:103ED000E1FF14C0E2FFE750156E10EE06F00F5040
:103EE000E1261050E222E750166E010E176E162AD8
:103EF0007CEF1FF0D8901736162E7AEF1FF0175070
:103F0000FF0A1514DF6E120042C0D9FF43C0DAFF6A
:103F1000DECFF6FFDDCFF7FF0800F550250AD8A465
:103F200094EF1FF096EF1FF042EF20F042C0D9FF50
:103F300043C0DAFFDE2A000EDD22000E0101416FD0
:103F4000000E406F40C144F141C145F142694369EF
:103F500042C0D9FF43C0DAFFDECFF6FFDDCFF7FF67
:103F60000800F550640AD8B4B8EF1FF0BAEF1FF09C
:103F7000CCEF1FF042C0D9FF43C0DAFFDECFF6FF1F
:103F8000DDCFF7FF0800F550690AD8A4CAEF1FF08B
:103F9000CCEF1FF00CEF20F042C0D9FF43C0DAFF96
:103FA000DE2A000EDD2244C0D9FF45C0DAFFDFCF94
:103FB00046F0020EDE26DFCF47F0000EDD2246C0BF
:103FC000D9FF47C0DAFFDECF48F0DDCF49F0000E61
:103FD00049BEFF0E4A6E4B6E4C6E4D6E4E6E4F6E6E
:103FE00040C01CF041C01DF048C01EF049C01FF089
:103FF0004AC020F04BC021F04CC022F04DC023F04D
:104000004EC024F04FC025F0C9EC19F01CC040F0A0
:104010001DC041F05DEF20F042C0D9FF43C0DAFF80
:10402000DECFF6FFDDCFF7FF0800F550250AD8A454
:104030001CEF20F01EEF20F035EF20F042C0D9FF3A
:1040400043C0DAFFDE2A000EDD22000E026E250ECE
:10405000016E40C003F041C004F090EC29F0000E66
:10406000416E010E406E5DEF20F042C0D9FF43C0AB
:10407000DAFFDE2A000EDD22000E416E000E406ED9
:104080005DEF20F042C0D9FF43C0DAFFDECFF6FF7C
:10409000DDCFF7FF0800F550016E026A40C003F063
:1040A00041C004F090EC29F042C0D9FF43C0DAFFD0
:1040B000DE2A000EDD222FEF20F01200096E0950DB
:1040C000D8B465EF20F067EF20F089EF20F004BE50
:1040D0006EEF20F06CEF20F089EF20F001C005F0CA
:1040E00002C006F003C007F004C008F0051E061E5B
:1040F000071E081E052A000E06220722082205C0F8
:104100000BF006C00CF007C00DF008C00EF091EFE8
:1041100020F001C00BF002C00CF003C00DF004C091
:104120000EF00150021003100410D8A49AEF20F0F2
:104130009CEF20F0A6EF20F0000E016E000E026E44
:10414000000E036E000E046E37EF21F0960E0A6E1D
:10415000B0EF20F00A2AD8900E320D320C320B321A
:10416000000E0B14056E000E0C14066E000E0D14DE
:10417000076EFE0E0E14086E05500610071008108C
:10418000D8A4C5EF20F0C7EF20F0AAEF20F0D5EFBC
:1041900020F00A2A010E0B26000E0C220D220E2200
:1041A000D8900E320D320C320B32000E0B14056E0D
:1041B000000E0C14066E000E0D14076EFF0E0E148A
:1041C000086E0550061007100810D8A4EAEF20F07A
:1041D000ECEF20F0C9EF20F0F4EF20F00A06D890C1
:1041E0000B360C360D360E360DBEF9EF20F0FBEF18
:1041F00020F003EF21F0020E0A6001EF21F003EF3F
:1042000021F0EEEF20F00AB008EF21F00AEF21F0E4
:104210000BEF21F00D9ED8900A320AC005F0066A15
:10422000076A086A05C008F0076A066A056A055049
:104230000B1206500C1207500D1208500E120950A6
:10424000D8B425EF21F027EF21F02FEF21F004BEA5
:104250002EEF21F02CEF21F02FEF21F00E8E0BC06E
:1042600001F00CC002F00DC003F00EC004F012000B
:104270000101776F000E0101746F000E766F000E62
:10428000736F000E726F020E7719D8A44AEF21F0F7
:104290004CEF21F052EF21F06CC10CF06DC10DF02C
:1042A00095EC1DF0040E01017719D8A45AEF21F006
:1042B0005CEF21F066EF21F06AC16AF06BC16BF030
:1042C00016EC27F06AC072F16BC073F1010177053B
:1042D000D8A46DEF21F06FEF21F07DEF21F0B7EC66
:1042E0002FF06AC10CF06BC10DF08CEC2CF06AC1A0
:1042F00058F06BC159F023EC2CF0020E0101771934
:10430000D8A485EF21F087EF21F096EF21F06AC164
:1043100079F06BC17AF06CC17BF06DC17CF00AEC76
:1043200007F00101756F755124EC2FF0030E0101A8
:104330007719D8A49EEF21F0A0EF21F0B3EF21F080
:10434000ABEF21F06AC15AF06BC15BF0E8EC22F0F0
:10435000010E0101746F7451D8B4B1EF21F0B3EFC5
:1043600021F0A2EF21F0040E7719D8A4BAEF21F0C2
:10437000BCEF21F0FAEF21F0D8EF21F06EC11AF076
:104380006FC11BF070C11CF071C11DF0BBEC2AF0B5
:104390006EC16AF06FC16BF070C16CF071C16DF0ED
:1043A00072C16EF073C16FF0F5EC29F00101766F08
:1043B0007651D8B4DEEF21F0E0EF21F0BEEF21F02E
:1043C0006EC11AF06FC11BF070C11CF071C11DF0FD
:1043D0007FEC2BF0520E0001FF6F2B0EFE6F000ED4
:1043E000E82EFED7FE2FFCD7FF2FFAD700F0000EE5
:1043F0000101766F050E7719D8A401EF22F003EFC3
:1044000022F066EF21F06EC12DF06FC12EF070C169
:104410002FF071C130F07FEC26F066EF21F0120032
:10442000000E2C6E000E2C6EDEEF22F020EE01F05E
:104430002050D9262150DA22010EDF6E20EE01F045
:104440002250D9262350DA22010EDF6E2504D8A48B
:104450002CEF22F02EEF22F089EF22F04FEF22F026
:1044600022C0D9FF23C0DAFF050EDF2620C0D9FF06
:1044700021C0DAFF000EDF6E20C00FF021C010F067
:104480009AEC1EF022C00FF023C010F09AEC1EF040
:10449000D00E266ECA0EE82EFED7262EFCD722C0DE
:1044A000D9FF23C0DAFF310EDF6459EF22F05BEF52
:1044B00022F030EF22F0000E296E000E286E6BEF16
:1044C00022F0150E266EC60EE82EFED7262EFCD73D
:1044D00000D0284A292A0F0E0101C225266E000E9F
:1044E000C321276E2650285C27502958D8A07BEF7F
:1044F00022F07DEF22F061EF22F020C01AF021C0FF
:104500001BF022C01CF023C01DF07FEC2BF0DDEF70
:1045100022F0020E2518D8A490EF22F092EF22F09C
:10452000DDEF22F0B3EF22F020C0D9FF21C0DAFF87
:10453000050EDF2622C0D9FF23C0DAFF000EDF6E92
:1045400020C00FF021C010F09AEC1EF022C00FF036
:1045500023C010F09AEC1EF0D00E266ECA0EE82E84
:10456000FED7262EFCD720C0D9FF21C0DAFF310E9E
:10457000DF64BDEF22F0BFEF22F094EF22F0000ED7
:104580002B6E000E2A6ECFEF22F0150E266EC60E91
:10459000E82EFED7262EFCD700D02A4A2B2A01016E
:1045A000C2512A5CC3512B58D8A0D9EF22F0DBEFBF
:1045B00022F0C5EF22F07DEF22F02C2A24502C5C53
:1045C000D8A0E5EF22F0E7EF22F016EF22F012007C
:1045D000000E0001DF6F000EDE6F000EE36F000EB5
:1045E000E26F000EE56F000EE46F000EDF6F000E4D
:1045F000DE6FB7EC2FF0090E5D6E1E0E5C6EE40EE2
:10460000E82EFED75C2EFCD75D2EFAD700D05AC01C
:104610000CF05BC00DF08CEC2CF05AC058F05BC075
:1046200059F023EC2CF00001DE4BDF2BDFBF21EF34
:1046300023F0DF5108E1DE05D8A021EF23F023EFBE
:1046400023F0F9EF22F0000EE16F000EE06F77EC3F
:104650002FF0090E5D6E1E0E5C6EE40EE82EFED786
:104660005C2EFCD75D2EFAD700D05AC00CF05BC090
:104670000DF08CEC2CF05AC058F05BC059F023ECD4
:104680002CF00001E04BE12BE1BF4FEF23F0E151B3
:1046900008E1E005D8A04FEF23F051EF23F027EF1A
:1046A00023F0000EE36F000EE26F97EC2FF0090E7F
:1046B0005D6E1E0E5C6EE40EE82EFED75C2EFCD7FF
:1046C0005D2EFAD700D05AC00CF05BC00DF08CEC18
:1046D0002CF05AC058F05BC059F023EC2CF00001CC
:1046E000E24BE32BE3BF7DEF23F0E35108E1E2056A
:1046F000D8A07DEF23F07FEF23F055EF23F0000EDD
:10470000E56F000EE46FA7EC2FF0090E5D6E1E0E34
:104710005C6EE40EE82EFED75C2EFCD75D2EFAD739
:1047200000D05AC00CF05BC00DF08CEC2CF05AC0DD
:1047300058F05BC059F023EC2CF00001E44BE52B62
:10474000E5BFABEF23F0E55108E1E405D8A0ABEFFE
:1047500023F0ADEF23F083EF23F0010E24EC2FF0D4
:10476000B7EC2FF01200000E126E10BEBCEF23F05B
:10477000BAEF23F0CEEF23F0101E0F1E0E1E0D1EFB
:104780000C1E0B1E0A1E096C000E0A220B220C22A4
:104790000D220E220F221022010E126E08BED5EF3E
:1047A00023F0D3EF23F0E7EF23F0081E071E061EC9
:1047B000051E041E031E021E016C000E02220322AF
:1047C00004220522062207220822010E121A20EED8
:1047D00013F0070EDE6AE806FDE209500A100B101E
:1047E0000C100D100E100F101010D8B4FAEF23F0AB
:1047F000FCEF23F04EEF24F0010E116E0AEF24F0CF
:10480000D89009360A360B360C360D360E360F3672
:104810001036112A10AE0FEF24F011EF24F000EF44
:1048200024F0D89013361436153616361736183647
:1048300019361A360950015C0A5002580B500358B9
:104840000C5004580D5005580E5006580F5007587C
:1048500010500858D8A02FEF24F031EF24F042EF89
:1048600024F00950015E0A50025A0B50035A0C50B2
:10487000045A0D50055A0E50065A0F50075A105040
:10488000085A1380D89010320F320E320D320C328B
:104890000B320A320932112E11EF24F01250D8B423
:1048A00054EF24F056EF24F066EF24F01A1E191E80
:1048B000181E171E161E151E141E136C000E142231
:1048C000152216221722182219221A2213C001F0CB
:1048D00014C002F015C003F016C004F017C005F0B4
:1048E00018C006F019C007F01AC008F01200000E38
:1048F000126E08BE80EF24F07EEF24F092EF24F0D9
:10490000081E071E061E051E041E031E021E016C45
:10491000000E022203220422052206220722082278
:10492000010E126E10BE99EF24F097EF24F0A9EF5C
:1049300024F0101E0F1E0E1E0D1E0C1E0B1E0A1E36
:10494000096C000E0A220B220C220D220E220F22CD
:10495000102209500A100B100C100D100E100F1021
:104960001010D8B4B6EF24F0B8EF24F000EF25F023
:10497000010E116EC6EF24F0D89009360A360B36B8
:104980000C360D360E360F361036112A10AECBEF20
:1049900024F0CDEF24F0BCEF24F00950015C0A5064
:1049A00002580B5003580C5004580D5005580E5027
:1049B00006580F50075810500858D8A0E2EF24F0BE
:1049C000E4EF24F0F4EF24F00950015E0A50025A9B
:1049D0000B50035A0C50045A0D50055A0E50065AEB
:1049E0000F50075A1050085AD89010320F320E321A
:1049F0000D320C320B320A320932112ECDEF24F077
:104A00001250D8B406EF25F008EF25F018EF25F086
:104A1000081E071E061E051E041E031E021E016C34
:104A2000000E022203220422052206220722082267
:104A300001C001F002C002F003C003F004C004F0A2
:104A400005C005F006C006F007C007F008C008F072
:104A50001200000E0001836F000E826F87EC2FF0B2
:104A60007C8E80868EB437EF25F039EF25F032EF5B
:104A700025F08EB43EEF25F040EF25F053EF25F002
:104A800078C00CF079C00DF095EC1DF07C9E290EDD
:104A90000001816F960E806F7F0EE82EFED7802F6B
:104AA000FCD7812FFAD78EB658EF25F05AEF25F0B4
:104AB00053EF25F08EB65FEF25F061EF25F09BEF09
:104AC00025F07AC06AF07BC06BF016EC27F06AC064
:104AD00082F06BC083F08096290E0001816F960EE4
:104AE000806F7F0EE82EFED7802FFCD7812FFAD75C
:104AF0009BEF25F07C8E80A680EF25F085EF25F0DA
:104B00000001806B802B87EF25F00001806B8047D0
:104B10008047804780508019F70B8019806E110EF6
:104B20000001816F3C0E806FCB0EE82EFED7802FE8
:104B3000FCD7812FFAD78EA6A0EF25F0A2EF25F0A3
:104B4000A9EF25F08EB4A7EF25F0A9EF25F07AEFB5
:104B500025F08EB6AEEF25F0B0EF25F0BBEF25F0D7
:104B60007CC033F07DC034F07EC035F07FC036F0BD
:104B7000B0EC28F07C9E8EB4C0EF25F0C2EF25F09B
:104B80009BEF25F07C9E8096290E0001816F960E8A
:104B9000806F7F0EE82EFED7802FFCD7812FFAD7AB
:104BA00082C078F083C079F0120020EE01F020502E
:104BB000D9262150DA22000EDF6E20EE01F02250BD
:104BC000D9262350DA22000EDF6E1FEF26F020C018
:104BD000D9FF21C0DAFF2C0EDF60F1EF25F0F3EFF3
:104BE00025F0F9EF25F020C0D9FF21C0DAFF020E31
:104BF000DF2622C0D9FF23C0DAFF2C0EDF6003EFCF
:104C000026F005EF26F00BEF26F022C0D9FF23C0D7
:104C1000DAFF020EDF2620C00FF021C010F09AEC60
:104C20001EF022C00FF023C010F09AEC1EF0680EA8
:104C3000256EE40EE82EFED7252EFCD700D020C02E
:104C4000D9FF21C0DAFF2B0EDF6429EF26F02BEF0E
:104C500026F0E7EF25F022C0D9FF23C0DAFF2B0EA4
:104C6000DF6435EF26F037EF26F0E7EF25F0240478
:104C7000D8A43DEF26F03FEF26F04AEF26F0310EA4
:104C8000266EB40E256E660EE82EFED7252EFCD7B6
:104C9000262EFAD7020E2418D8A451EF26F053EF8F
:104CA00026F05FEF26F0520E266E2B0E256E000EBC
:104CB000E82EFED7252EFCD7262EFAD700D0030EDD
:104CC0002418D8A466EF26F068EF26F074EF26F0DB
:104CD000A30E266E570E256E020EE82EFED7252E49
:104CE000FCD7262EFAD700D020C01AF021C01BF026
:104CF00022C01CF023C01DF07FEC2BF012002DC051
:104D00001AF02EC01BF02FC01CF030C01DF07FEC3D
:104D10002BF0A30E326E570E316E020EE82EFED728
:104D2000312EFCD7322EFAD700D02DC020F02EC065
:104D300021F02FC022F030C023F0080E246E010EA7
:104D4000256E10EC22F02DC01AF02EC01BF02FC0E3
:104D50001CF030C01DF07FEC2BF0A30E326E570E0E
:104D6000316E020EE82EFED7312EFCD7322EFAD746
:104D700000D02DC020F02EC021F02FC022F030C076
:104D800023F0080E246E020E256E10EC22F02DC0CA
:104D90001AF02EC01BF02FC01CF030C01DF0BBEC71
:104DA0002AF0F40E326E820E316E050EE82EFED71A
:104DB000312EFCD7322EFAD700F02DC01AF02EC0BB
:104DC0001BF02FC01CF030C01DF07FEC2BF02DC06D
:104DD00020F02EC021F02FC022F030C023F0040EAE
:104DE000246E010E256E10EC22F02DC01AF02EC09C
:104DF0001BF02FC01CF030C01DF0BBEC2AF0F40EED
:104E0000326E820E316E050EE82EFED7312EFCD7A3
:104E1000322EFAD700F02DC01AF02EC01BF02FC092
:104E20001CF030C01DF07FEC2BF01200000E0001D2
:104E3000756F000E746F000E776F000E766F000EA8
:104E40006F6F000E6E6F020E016E020E3AEC1BF0D9
:104E5000B7EC2FF0290E00016D6F960E6C6F7F0E70
:104E6000E82EFED76C2FFCD76D2FFAD75CEC2DF017
:104E700005C072F006C073F0110E00016D6F3C0E9C
:104E80006C6FCB0EE82EFED76C2FFCD76D2FFAD7A8
:104E90005CEC2DF005C074F006C075F0110E000139
:104EA0006D6F3C0E6C6FCB0EE82EFED76C2FFCD7CF
:104EB0006D2FFAD75CEC2DF005C076F006C077F0C8
:104EC000110E00016D6F3C0E6C6FCB0EE82EFED7FD
:104ED0006C2FFCD76D2FFAD70001745172256C6FBF
:104EE000755173216D6F76516C2777516D236CC0AE
:104EF00001F06DC002F0036A046A000E5EEC20F05F
:104F000001C00FF002C010F003C011F004C012F095
:104F1000000E136E000E146E400E156E400E166ECF
:104F200084EC16F00FC066F010C067F011C068F096
:104F300012C069F069EC2EF066C070F067C071F0C5
:104F4000020E016E020E3AEC1BF070C06AF071C0E6
:104F50006BF012005D345E340001656F6551D8A4BA
:104F6000B4EF27F0B6EF27F0C0EF27F0000E5B6E2E
:104F7000000E5C6E000E5D6E000E5E6E2DEF28F072
:104F80005BC060F05CC061F05DC062F05EC063F069
:104F9000200ED0EF27F0D890633362336133603353
:104FA000E82ECBEF27F06051646F5D8EFF0E5B162D
:104FB000FF0E5C16FF0E5D16000E5E16960E655F08
:104FC00065BFE7EF27F0E5EF27F0FDEF27F065512C
:104FD000800A970FD8B0EFEF27F0F1EF27F0F3EF4B
:104FE00027F0B6EF27F0D8905E325D325C325B324C
:104FF000653FF3EF27F015EF28F01F0E656503EF0F
:1050000028F005EF28F00DEF28F0B6EF27F0D89044
:105010005B365C365D365E3665076551D8A413EFA6
:1050200028F015EF28F007EF28F06451D8B41BEFF3
:1050300028F01DEF28F025EF28F05E1E5D1E5C1E97
:105040005B6C000E5C225D225E225BC05BF05CC08C
:105050005CF05DC05DF05EC05EF01200000E0114F9
:10506000096E000E02140A6E800E03140B6E7F0E82
:1050700004140C6E09500A100B100C10D8A443EF46
:1050800028F045EF28F04DEF28F0000E016E000EDD
:10509000026E000E036E000E046E000E0514096E03
:1050A000000E06140A6E800E07140B6E7F0E081495
:1050B0000C6E09500A100B100C10D8A462EF28F0E7
:1050C00064EF28F06CEF28F0000E056E000E066EFF
:1050D000000E076E000E086E04AE71EF28F073EF3D
:1050E00028F07CEF28F0016C021ED8B0022A031EC3
:1050F000D8B0032A800E045608AE81EF28F083EF63
:1051000028F08CEF28F0056C061ED8B0062A071E82
:10511000D8B0072A800E0856000E011A000E021A97
:10512000000E031A800E041A000E051A000E061A4D
:10513000000E071A800E081A0550015C065002582E
:105140000750035808500458D8B0A9EF28F0ABEF27
:1051500028F0AEEF28F0D890AFEF28F0D8801200FA
:105160007C8E80868EB4B7EF28F0B9EF28F0E5EF9B
:1051700028F0190E386E5A0E376EB20EE82EFED792
:10518000372EFCD7382EFAD78EB4C9EF28F0CBEFE4
:1051900028F0DCEF28F07C9E190E386E5A0E376E20
:1051A000B20EE82EFED7372EFCD7382EFAD7050ED2
:1051B0000101C227000EC3238EB6E1EF28F0E3EF12
:1051C00028F0E5EF28F01AEF29F08EB6EAEF28F084
:1051D000ECEF28F0B0EF28F0190E386E5A0E376E4B
:1051E000B20EE82EFED7372EFCD7382EFAD78EB463
:1051F000FCEF28F0FEEF28F000EF29F01AEF29F07D
:105200008EB605EF29F007EF29F0B0EF28F0809671
:10521000190E386E5A0E376EB20EE82EFED7372EA4
:10522000FCD7382EFAD7050E0101C25F000EC35B12
:10523000B0EF28F07C9E809633C02DF034C02EF065
:1052400035C02FF036C030F07FEC26F0120001C0E0
:10525000D9FF02C0DAFF000EDF6E20EE01F0015030
:10526000D9260250DA22010EDF6E20EE02F0015044
:10527000D9260250DA22A30EDE6E0F0EDD6E20EE6E
:1052800004F00150D9260250DA227D0EDE6E0F0E98
:10529000DD6E20EE06F00150D9260250DA22040E0F
:1052A000DF6E20EE07F00150D9260250DA22C70E39
:1052B000DE6E000EDD6E03C0D9FF04C0DAFF000E03
:1052C000DF6E20EE01F00350D9260450DA22010EE1
:1052D000DF6E20EE02F00350D9260450DA22A00E31
:1052E000DE6E0F0EDD6E20EE04F00350D926045062
:1052F000DA227F0EDE6E0F0EDD6E20EE06F003501A
:10530000D9260450DA22060EDF6E20EE07F0035095
:10531000D9260450DA22C70EDE6E000EDD6E1200B2
:1053200003500410D8B497EF29F099EF29F0A2EFB9
:1053300029F003500410D8A4A0EF29F0A2EF29F01F
:10534000A7EF29F001501DEC30F0F4EF29F020EE2A
:1053500009F00350D9260450DA22DE50DE10D8B40A
:10536000B4EF29F0B6EF29F0D1EF29F020EE09F0E3
:105370000350D9260450DA2210EE03F00350E12640
:105380000450E222DE50E65CE650800A096EDE50F0
:10539000800A0958D8B0CFEF29F0D1EF29F0F4EF07
:1053A00029F020EE03F00350D9260450DA22DECF94
:1053B00005F0DDCF06F003C0D9FF04C0DAFFDECF71
:1053C00007F0DDCF08F005500724D96E06500820FD
:1053D000DA6E01C0DFFF20EE03F00350D92604503F
:1053E000DA22DE2A000EDD221200000E0001736FA9
:1053F000000E726F000E7C6F000E7B6F000E7A6FD6
:10540000B7EC2FF0090E0001716F1E0E706FE40EE5
:10541000E82EFED7702FFCD7712FFAD700F05CEC86
:105420002DF005C078F006C079F00CEC2DF06EC0C0
:1054300001F06FC002F0036A046A000E5EEC20F017
:1054400001C028F002C029F003C02AF004C02BF0EC
:10545000CD0E2C6ECC0E2D6E8C0E2E6E3F0E2F6E42
:10546000C6EC10F028C074F029C075F02AC076F0A0
:105470002BC077F074C066F075C067F076C068F036
:1054800077C069F069EC2EF066C07AF067C07BF0F7
:1054900000017A51785D7B517959D8A052EF2AF0FA
:1054A00054EF2AF056EF2AF0010E7C6F7C51120067
:1054B000010144A15EEF2AF060EF2AF06AEF2AF0C2
:1054C00013C00AF014C00BF011C00CF012C00DF0A4
:1054D000A7EC2DF016BE6FEF2AF071EF2AF077EFF0
:1054E0002AF015C01AF016C01BF07BEF2AF0000E50
:1054F0001B6E000E1A6E000E196E000E186E8DEFE8
:105500002AF0000E026E200E016E11C003F012C0D0
:1055100004F090EC29F0184A192A1A50185C195016
:10552000800A176E1B50800A1758D8A09AEF2AF0ED
:105530009CEF2AF081EF2AF0010144B1A2EF2AF09A
:10554000A4EF2AF0AEEF2AF013C00AF014C00BF05B
:1055500011C00CF012C00DF0A7EC2DF013C001F03B
:1055600014C002F0BDEC2EF01A500124116E1B5035
:105570000220126E120020EE01F01A50D9261B50A4
:10558000DA22010EDF6E20EE01F01C50D9261D50EC
:10559000DA22010EDF6E04EF2BF01AC0D9FF1BC018
:1055A000DAFF1E0EDF60D7EF2AF0D9EF2AF0DFEF27
:1055B0002AF01AC0D9FF1BC0DAFF020EDF261CC07A
:1055C000D9FF1DC0DAFF1E0EDF60E9EF2AF0EBEF16
:1055D0002AF0F1EF2AF01CC0D9FF1DC0DAFF020E3D
:1055E000DF261AC00FF01BC010F09AEC1EF01CC092
:1055F0000FF01DC010F09AEC1EF0D00E1E6ECA0EF9
:10560000E82EFED71E2EFCD71AC0D9FF1BC0DAFF2A
:105610001D0EDF640EEF2BF010EF2BF0CDEF2AF014
:105620001CC0D9FF1DC0DAFF1D0EDF641AEF2BF07E
:105630001CEF2BF0CDEF2AF01200000E0C6E0ABE0C
:1056400026EF2BF024EF2BF02CEF2BF0096C0A1E29
:10565000D8B00A2A010E0C6E08BE33EF2BF031EFE2
:105660002BF039EF2BF0076C081ED8B0082A010E7A
:105670000C1A000E0E6E000E0D6E09500A10D8B4F2
:1056800044EF2BF046EF2BF06EEF2BF0010E0B6E7C
:105690004EEF2BF0D89009360A360B2A0AAE53EF9C
:1056A0002BF055EF2BF04AEF2BF0D8900D360E363D
:1056B0000950075C0A500858D8A061EF2BF063EF3F
:1056C0002BF068EF2BF00950075E0A50085A0D8046
:1056D000D8900A3209320B2E55EF2BF00C50D8B46B
:1056E00074EF2BF076EF2BF07AEF2BF00D6C0E1E93
:1056F000D8B00E2A0DC007F00EC008F01200B9EFA6
:105700002BF01AC0D9FF1BC0DAFFDF50D8B48BEFE3
:105710002BF08DEF2BF093EF2BF01AC0D9FF1BC0AD
:10572000DAFF020EDF5E1CC0D9FF1DC0DAFFDF50BA
:10573000D8B49DEF2BF09FEF2BF0A5EF2BF01CC002
:10574000D9FF1DC0DAFF020EDF5E1AC00FF01BC0CA
:1057500010F09AEC1EF01CC00FF01DC010F09AEC77
:105760001EF0680E1E6EE40EE82EFED71E2EFCD72D
:1057700000D01AC0D9FF1BC0DAFFDF50D8A4C3EF96
:105780002BF0C5EF2BF081EF2BF01CC0D9FF1DC013
:10579000DAFFDF50D8A4CFEF2BF0D1EF2BF081EF61
:1057A0002BF0290E1F6E960E1E6E7F0EE82EFED772
:1057B0001E2EFCD71F2EFAD700F012000101706FC9
:1057C000050E0001FF6F0F0EFE6FF10EE82EFED7E3
:1057D000FE2FFCD7FF2FFAD76AC179F06BC17AF0A0
:1057E0006CC17BF06DC17CF00AEC07F00001FE6F2C
:1057F000FE5101016E6F6F6B050E0001FF6F0F0E02
:10580000FE6FF10EE82EFED7FE2FFCD7FF2FFAD742
:10581000010170510001FE6FFF6B01016E5100012B
:10582000FE1909E101016F510001FF19D8A41BEF16
:105830002CF01DEF2CF021EF2CF00101705122EF24
:105840002CF0000E1200790E0001606F000E616FE7
:10585000050E626F0E0E636F58C0D9FF59C0DAFF94
:10586000DECF64F0DDCF65F020EE02F05850D9268F
:105870005950DA22DECF66F0DDCF67F020EE04F07B
:105880005850D9265950DA22DECF68F0DDCF69F0C2
:1058900020EE06F05850D9265950DA22DECF6AF0B1
:1058A000DDCF6BF0BBEC2CF0790E026E000E036EB8
:1058B0000CEC2FF0120052C056F053C057F0000EFF
:1058C00001013F6F000E3E6F79EF2CF050C040F0A9
:1058D00051C041F0560E426E000E436E54C044F06B
:1058E00055C045F084EC1FF0405001013E27415067
:1058F0003F2356C0F6FF57C0F7FF0800F5500009D8
:10590000D8A485EF2CF087EF2CF066EF2CF03EC189
:1059100050F03FC151F01200E4EC2CF00CC0D9FF64
:105920000DC0DAFF05C0DEFF06C0DDFF34EC2DF050
:1059300020EE04F00C50D9260D50DA2205C0DEFF0F
:1059400006C0DDFF0CEC2DF020EE02F00C50D92645
:105950000D50DA2205C0DEFF06C0DDFF5CEC2DF045
:1059600020EE06F00C50D9260D50DA2205C0DEFFDD
:1059700006C0DDFF1200640E00016C6F000E6D6F3B
:1059800060C06EF061C06FF0000E726F000E716F3C
:10599000000E786F000E776F6E0E506E000E516E17
:1059A00062C052F063C053F06C0E546E000E556E20
:1059B0005BEC2CF0000171516025D96E72516121B0
:1059C000DA6E000EDF6E120017EC30F0520E01ECB2
:1059D00030F0B60E01EC30F00DEC30F0530E01EC6F
:1059E00030F0010EEAEC2DF0076E07500A6E0B6ADC
:1059F000000EEAEC2DF0076E0750096E086A0A5097
:105A000008100A6E0B5009100B6E12EC30F00AC031
:105A100005F00BC006F0120017EC30F0520E01EC4E
:105A200030F0B80E01EC30F00DEC30F0530E01EC1C
:105A300030F0010EEAEC2DF0076E07500A6E0B6A8B
:105A4000000EEAEC2DF0076E0750096E086A0A5046
:105A500008100A6E0B5009100B6E12EC30F00AC0E1
:105A600005F00BC006F0120017EC30F0520E01ECFE
:105A700030F0BA0E01EC30F00DEC30F0530E01ECCA
:105A800030F0010EEAEC2DF0076E07500A6E0B6A3B
:105A9000000EEAEC2DF0076E0750096E086A0A50F6
:105AA00008100A6E0B5009100B6E12EC30F00AC091
:105AB00005F00BC006F0120017EC30F0520E01ECAE
:105AC00030F0B40E01EC30F00DEC30F0530E01EC80
:105AD00030F0010EEAEC2DF0076E07500A6E0B6AEB
:105AE000000EEAEC2DF0076E0750096E086A0A50A6
:105AF00008100A6E0B5009100B6E12EC30F00AC041
:105B000005F00BC006F01200000E151A000E161A52
:105B1000000E171A800E181A11C001F012C002F000
:105B200013C003F014C004F015C005F016C006F051
:105B300017C007F018C008F066EC0EF001C011F0B5
:105B400002C012F003C013F004C014F01200000EE3
:105B5000106E000E0F6EB8EF2DF00EC001F0026A4D
:105B60000CC003F00DC004F090EC29F00F4A102A8D
:105B70000F500A24D96E10500B20DA6EDF500E6ED3
:105B80000E50D8A4C6EF2DF0C8EF2DF0ADEF2DF0DC
:105B9000120020C01AF021C01BF022C01CF023C04C
:105BA0001DF0BBEC2AF0210E256E780E246E980EA7
:105BB000E82EFED7242EFCD7252EFAD700D020C001
:105BC0001AF021C01BF022C01CF023C01DF07FEC96
:105BD0002BF01200036E50EC2FF00E01DA8750EC20
:105BE0002FF0D5CE04F050EC2FF00350D8B4FBEFDB
:105BF0002DF0FFEF2DF0026A022A00EF2EF0026A6C
:105C0000023A02460E01DA510218DF0B0218DA6F6F
:105C1000DA89045012008594839E879C85987D9430
:105C20007B9E7F9C7D98BD508F0B3009BD6EE00E32
:105C3000BE16BF50F00B0109BF6EC70EBC6EBD8E05
:105C40000A0E0E01746F0B0E696F000EA36E000E2C
:105C5000A06EA48EA18E120014BE39EF2EF0145047
:105C600006E11304D8B037EF2EF039EF2EF047EFEE
:105C70002EF013C015F014C016F0151E161E154A8E
:105C8000162A15C013F016C014F04BEF2EF013C0F7
:105C900013F014C014F01200000E0001706F6C516C
:105CA0006A5D6D516B59D8B058EF2EF05AEF2EF057
:105CB00067EF2EF06C516E5D6D516F59D8A063EF98
:105CC0002EF065EF2EF067EF2EF0010E706F705121
:105CD000120066C041F067C042F068C043F069C07E
:105CE00044F0DBEC12F041C05BF042C05CF043C01A
:105CF0005DF044C05EF0AAEC27F05BC066F05CC0CB
:105D000067F05DC068F05EC069F0120001500210DB
:105D100003100410D8B48FEF2EF091EF2EF099EF0E
:105D20002EF0000E011A000E021A000E031A800E49
:105D3000041A01C001F002C002F003C003F004C065
:105D400004F01200380EF66E600EF76E000EF86E5C
:105D50000900F5CFC2F10900F5CFC3F101EE00F063
:105D60006A0EEE6AE806FDE15F905F92000EF86E43
:105D70000E0EF76E000190EF1CF001C003F002C0A0
:105D800004F0C5EF2EF0014A022A01C0D9FF02C07B
:105D9000DAFFDF50D8A4CFEF2EF0D1EF2EF0C3EF13
:105DA0002EF00350015C016E04500258026E120086
:105DB00086840E01B4958686B4978792869E8198D4
:105DC0007F827E8E7988849E7C9E8896809688923B
:105DD000849884968690889080927C987C967E9019
:105DE000809012003BEC2FF0010E036E000EC7EC0A
:105DF0002FF03F0E056E550EE82EFED7052EFCD770
:105E000000F0030E036E000EC7EC2FF0D50E036EEC
:105E1000010EC7EC2FF0120017EF2FF002C0D9FFD0
:105E200003C0DAFFDF50F5EC2FF0024A032A02C06C
:105E3000D9FF03C0DAFFDF50D8A421EF2FF023EF02
:105E40002FF00EEF2FF012000001DD6F790E000130
:105E5000606F000E616F0D0E626F0E0E636FDDC01E
:105E600064F0656BBBEC2CF0790E026E000E036ED5
:105E70000CEC2FF012000E01D951F00B0809D96F6C
:105E8000D98B9F0ED66F848A848CA79BA79D1D0EED
:105E90001D6F1E0E1C6F1C0E6F6F1B0E706F12009D
:105EA0000E01D8B556EF2FF058EF2FF050EF2FF02E
:105EB000DACE01F01F0E0116D8A461EF2FF063EFC8
:105EC0002FF050EF2FF0120001500302F3CF05F036
:105ED000F4CF06F001500402F350062602500302EC
:105EE000F350062605C001F006C002F012007F82C2
:105EF0007E9E7998110E026E3C0E016ECB0EE82E3E
:105F0000FED7012EFCD7022EFAD700F012007F92A6
:105F10007E9E7998110E026E3C0E016ECB0EE82E1D
:105F2000FED7012EFCD7022EFAD700F012007F9286
:105F30007E9E7988110E026E3C0E016ECB0EE82E0D
:105F4000FED7012EFCD7022EFAD700F012007F9266
:105F50007E8E7998110E026E3C0E016ECB0EE82EED
:105F6000FED7012EFCD7022EFAD700F012007F8256
:105F70007E8E7988110E026E3C0E016ECB0EE82EDD
:105F8000FED7012EFCD7022EFAD700F01200046EC5
:105F900017EC30F0520E01EC30F00450800901ECA7
:105FA00030F0035001EC30F012EC30F01200120E21
:105FB0000E01626F110E156FE997E895330EE56FCC
:105FC000000EE66FE789E88BE78F1200D6501F0BB3
:105FD0004009D66ED688D650F00B0509D66ED58806
:105FE0003C0ED46EAF0ED36E1200016E0E0137A5BB
:105FF000FCEF2FF0FEEF2FF0F6EF2FF001C0E4FEE4
:106000001200026E50EC2FF002C0D5FE1200F28E8C
:10601000F28AF28C0E01298B120050EC2FF00E0147
:10602000DA83120050EC2FF00E01DA85120050ECEA
:0C6030002FF00E01DA8112009600120021
:020000040020DA
:10000000FF0FFF0FFF0FFF0FFF0FFF0FFF0FFF0F80
:020000040030CA
:0C000000AAFFFFFF9FFFFFFFFFFFFFFFB5
:00000001FF
