:0400000014EF00F009
:100008005F820E0133AB0BEF00F00DEF00F012EF43
:1000180000F00301684B692B0E01339B5F921100BE
:040028000DEF2AF0BE
:100E0000000000004B676F206261636B2066696EB3
:100E10006973680D0A00256409256409256409259C
:100E2000640D0A00726573756C743A2025640D0AAE
:100E300000676F206261636B0D0A00726570656107
:050E4000740D0A000022
:100E4600000E00017A6F000E796F000E7C6F000EA7
:100E56007B6F000E826F000E816F000E886F000E92
:100E6600876F000E7E6F000E7D6F000E8D6F000E79
:100E76008C6F000E8A6F000E896F000E866F000E53
:100E8600856F000E806F000E7F6F000E8B6F75EC06
:100E96002DF071C00CF072C00DF075EC2AF073C025
:100EA600D9FF74C0DAFFDECF75F0DDCF76F075C0FE
:100EB60001F076C002F0036A046A000E22EC1FF00D
:100EC60001C013F002C014F003C015F004C016F000
:100ED60071C0D9FF72C0DAFFDECF77F0DDCF78F0D0
:100EE60077C001F078C002F0036A046A000E22ECB3
:100EF6001FF001C00FF002C010F003C011F004C0D3
:100F060012F092EC13F00FC028F010C029F011C0B7
:100F16002AF012C02BF0000E2C6E000E2D6EC80E9D
:100F26002E6E420E2F6EA6EC0FF028C08EF029C052
:100F36008FF02AC090F02BC091F08EC066F08FC063
:100F460067F090C068F091C069F09CEC2CF066C028
:100F560083F067C084F0000120EE02F07351D926B9
:100F66007451DA22DECF75F0DDCF76F075C001F070
:100F760076C002F0036A046A000E22EC1FF001C07C
:100F860013F002C014F003C015F004C016F00001FF
:100F960020EE02F07151D9267251DA22DECF77F0B7
:100FA600DDCF78F077C001F078C002F0036A046AFA
:100FB600000E22EC1FF001C00FF002C010F003C0BB
:100FC60011F004C012F092EC13F00FC028F010C01C
:100FD60029F011C02AF012C02BF0000E2C6E000E64
:100FE6002D6EC80E2E6E420E2F6EA6EC0FF028C088
:100FF6008EF029C08FF02AC090F02BC091F08EC0E1
:1010060066F08FC067F090C068F091C069F09CEC04
:101016002CF0000120EE04F07351D9267451DA2227
:10102600DECF75F0DDCF76F075C001F076C002F048
:10103600036A046A000E22EC1FF001C013F002C01E
:1010460014F003C015F004C016F0000120EE04F001
:101056007151D9267251DA22DECF77F0DDCF78F0E2
:1010660077C001F078C002F0036A046A000E22EC31
:101076001FF001C00FF002C010F003C011F004C051
:1010860012F092EC13F00FC028F010C029F011C036
:101096002AF012C02BF0000E2C6E000E2D6EC80E1C
:1010A6002E6E420E2F6EA6EC0FF028C08EF029C0D1
:1010B6008FF02AC090F02BC091F08EC066F08FC0E2
:1010C60067F090C068F091C069F09CEC2CF0050EBA
:1010D6000001766F0F0E756FF10EE82EFED7752F95
:1010E600FCD7762FFAD795EC2DF071C00CF072C0B4
:1010F6000DF075EC2AF0000120EE06F07351D926AA
:101106007451DA22DECF75F0DDCF76F075C001F0CE
:1011160076C002F0036A046A000E22EC1FF001C0DA
:1011260013F002C014F003C015F004C016F071C02D
:10113600D9FF72C0DAFFDECF77F0DDCF78F077C067
:1011460001F078C002F0036A046A000E22EC1FF078
:1011560001C00FF002C010F003C011F004C012F07D
:1011660092EC13F00FC028F010C029F011C02AF03D
:1011760012C02BF0000E2C6E000E2D6EC80E2E6EB9
:10118600420E2F6EA6EC0FF028C08EF029C08FF00D
:101196002AC090F02BC091F08EC066F08FC067F029
:1011A60090C068F091C069F09CEC2CF066C081F0AC
:1011B60067C082F0000120EE08F07351D926745101
:1011C600DA22DECF75F0DDCF76F075C001F076C09D
:1011D60002F0036A046A000E22EC1FF001C013F04D
:1011E60002C014F003C015F004C016F0000120EE92
:1011F60002F07151D9267251DA22DECF77F0DDCFB7
:1012060078F077C001F078C002F0036A046A000E35
:1012160022EC1FF001C00FF002C010F003C011F065
:1012260004C012F092EC13F00FC028F010C029F0A1
:1012360011C02AF012C02BF0000E2C6E000E2D6E7F
:10124600C80E2E6E420E2F6EA6EC0FF028C08EF042
:1012560029C08FF02AC090F02BC091F08EC066F0A6
:101266008FC067F090C068F091C069F09CEC2CF0DC
:1012760066C087F067C088F0000120EE0AF073515F
:10128600D9267451DA22DECF75F0DDCF76F075C03F
:1012960001F076C002F0036A046A000E22EC1FF029
:1012A60001C013F002C014F003C015F004C016F01C
:1012B600000120EE04F07151D9267251DA22DECFF8
:1012C60077F0DDCF78F077C001F078C002F0036ADE
:1012D600046A000E22EC1FF001C00FF002C010F0ED
:1012E60003C011F004C012F092EC13F00FC028F006
:1012F60010C029F011C02AF012C02BF0000E2C6E7F
:10130600000E2D6EC80E2E6E420E2F6EA6EC0FF03E
:1013160028C08EF029C08FF02AC090F02BC091F023
:101326008EC066F08FC067F090C068F091C069F01B
:101336009CEC2CF0050E0001766F0F0E756FF10E0A
:10134600E82EFED7752FFCD7762FFAD7A5EC2DF011
:1013560071C00CF072C00DF075EC2AF0000120EEA1
:101366000CF07351D9267451DA22DECF75F0DDCF39
:1013760076F075C001F076C002F0036A046A000ECA
:1013860022EC1FF001C013F002C014F003C015F0E8
:1013960004C016F071C0D9FF72C0DAFFDECF77F055
:1013A600DDCF78F077C001F078C002F0036A046AF6
:1013B600000E22EC1FF001C00FF002C010F003C0B7
:1013C60011F004C012F092EC13F00FC028F010C018
:1013D60029F011C02AF012C02BF0000E2C6E000E60
:1013E6002D6EC80E2E6E420E2F6EA6EC0FF028C084
:1013F6008EF029C08FF02AC090F02BC091F08EC0DD
:1014060066F08FC067F090C068F091C069F09CEC00
:101416002CF066C08CF067C08DF0000120EE0EF057
:101426007351D9267451DA22DECF75F0DDCF76F00E
:1014360075C001F076C002F0036A046A000E22EC61
:101446001FF001C013F002C014F003C015F004C071
:1014560016F0000120EE02F07151D9267251DA22FF
:10146600DECF77F0DDCF78F077C001F078C002F0FC
:10147600036A046A000E22EC1FF001C00FF002C0DE
:1014860010F003C011F004C012F092EC13F00FC07C
:1014960028F010C029F011C02AF012C02BF0000E5F
:1014A6002C6E000E2D6EC80E2E6E420E2F6EA6EC02
:1014B6000FF028C08EF029C08FF02AC090F02BC004
:1014C60091F08EC066F08FC067F090C068F091C052
:1014D60069F09CEC2CF066C089F067C08AF00001C8
:1014E60020EE10F07351D9267451DA22DECF75F052
:1014F600DDCF76F075C001F076C002F0036A046AAB
:10150600000E22EC1FF001C013F002C014F003C05D
:1015160015F004C016F0000120EE04F07151D92632
:101526007251DA22DECF77F0DDCF78F077C001F0A6
:1015360078C002F0036A046A000E22EC1FF001C0B4
:101546000FF002C010F003C011F004C012F092ECCC
:1015560013F00FC028F010C029F011C02AF012C0F5
:101566002BF0000E2C6E000E2D6EC80E2E6E420E47
:101576002F6EA6EC0FF028C08EF029C08FF02AC07F
:1015860090F02BC091F08EC066F08FC067F090C0CF
:1015960068F091C069F09CEC2CF066C085F067C0DD
:1015A60086F0000120EE1AF07351D9267451DA2222
:1015B600DECF75F0DDCF76F075C001F076C002F0B3
:1015C600036A046A000E22EC1FF001C013F002C089
:1015D60014F003C015F004C016F0000120EE06F06A
:1015E6007151D9267251DA22DECF77F0DDCF78F04D
:1015F60077C001F078C002F0036A046A000E22EC9C
:101606001FF001C00FF002C010F003C011F004C0BB
:1016160012F092EC13F00FC028F010C029F011C0A0
:101626002AF012C02BF0000E2C6E000E2D6EC80E86
:101636002E6E420E2F6EA6EC0FF028C08EF029C03B
:101646008FF02AC090F02BC091F08EC066F08FC04C
:1016560067F090C068F091C069F09CEC2CF0050E24
:101666000001766F0F0E756FF10EE82EFED7752FFF
:10167600FCD7762FFAD7000E00016B6F000E6A6F4B
:101686008CC06CF08DC06DF0000E6F6F460E6E6FE5
:101696007FEC2CF00009D8B453EF0BF055EF0BF0AC
:1016A600C6EF0BF085C001F086C002F0036A046A3B
:1016B600000E22EC1FF001C013F002C014F003C0AC
:1016C60015F004C016F0000189518725756F8A51FF
:1016D6008821766F75C001F076C002F0036A046A4D
:1016E600000E22EC1FF001C00FF002C010F003C084
:1016F60011F004C012F092EC13F00FC028F010C0E5
:1017060029F011C02AF012C02BF0000E2C6E000E2C
:101716002D6E480E2E6E430E2F6EA6EC0FF028C0CF
:101726008EF029C08FF02AC090F02BC091F0000EE9
:1017360000016B6F000E6A6F8EC066F08FC067F097
:1017460090C068F091C069F09CEC2CF066C06CF01B
:1017560067C06DF0010E00016F6F9B0E6E6F7FEC20
:101766002CF00009D8B4BAEF0BF0BCEF0BF0C1EFC8
:101776000BF0030E00018B6FBFEF0CF0020E0001A1
:101786008B6FBFEF0CF0000E00016B6F000E6A6FDF
:1017960089C06CF08AC06DF0000E6F6F4B0E6E6FD5
:1017A6007FEC2CF00009D8B4DBEF0BF0DDEF0BF08B
:1017B60047EF0CF083C001F084C002F0036A046AAC
:1017C600000E22EC1FF001C013F002C014F003C09B
:1017D60015F004C016F081C001F082C002F0036A61
:1017E600046A000E22EC1FF001C00FF002C010F0D8
:1017F60003C011F004C012F092EC13F00FC028F0F1
:1018060010C029F011C02AF012C02BF0000E2C6E69
:10181600000E2D6EFA0E2E6E430E2F6EA6EC0FF0F6
:1018260028C08EF029C08FF02AC090F02BC091F00E
:10183600010E00016B6FE00E6A6F8EC066F08FC0FE
:1018460067F090C068F091C069F09CEC2CF066C01F
:101856006CF067C06DF0020E00016F6F080E6E6FC0
:101866007FEC2CF00009D8B43BEF0CF03DEF0CF008
:1018760042EF0CF0060E00018B6FBFEF0CF0010E6D
:1018860000018B6FBFEF0CF0000189518C5D8A510E
:101896008D59D8B051EF0CF053EF0CF057EF0CF018
:1018A600070E8B6FBFEF0CF085C001F086C002F00B
:1018B600036A046A000E22EC1FF001C013F002C096
:1018C60014F003C015F004C016F089C001F08AC0F8
:1018D60002F0036A046A000E22EC1FF001C00FF04A
:1018E60002C010F003C011F004C012F092EC13F025
:1018F6000FC028F010C029F011C02AF012C02BF03A
:10190600000E2C6E000E2D6EFA0E2E6E430E2F6EEE
:10191600A6EC0FF028C08EF029C08FF02AC090F0F8
:101926002BC091F0000E00016B6F000E6A6F8EC027
:1019360066F08FC067F090C068F091C069F09CECCB
:101946002CF066C06CF067C06DF0020E00016F6F80
:10195600260E6E6F7FEC2CF00009D8B4B5EF0CF0B4
:10196600B7EF0CF0BCEF0CF0050E00018B6FBFEF6C
:101976000CF0040E00018B6F000E6B6F5A0E6A6F2F
:101986008CC06CF08DC06DF08CC001F08DC002F083
:10199600000E046E1E0E036E62EC2DF001C06EF09A
:1019A60002C06FF07FEC2CF00009D8B4DDEF0CF02C
:1019B600DFEF0CF003EF0DF0000E00016B6F5A0E17
:1019C6006A6F87C06CF088C06DF087C001F088C070
:1019D60002F0000E046E1E0E036E62EC2DF001C0C6
:1019E6006EF002C06FF07FEC2CF00009D8B4FEEF69
:1019F6000CF000EF0DF003EF0DF0080E00018B6FF9
:101A0600000E00016B6F000E6A6F8CC06CF08DC00B
:101A16006DF0000E6F6F190E6E6F7FEC2CF00009E3
:101A2600D8B418EF0DF01AEF0DF034EF0DF0000EEC
:101A360000016B6F000E6A6F83C06CF084C06DF09E
:101A4600000E6F6F5A0E6E6F7FEC2CF00009D8B443
:101A56002FEF0DF031EF0DF034EF0DF0000E000119
:101A66008B6F080E00018B19D8A43CEF0DF03EEFEA
:101A76000DF043EF0DF0010E016E020E0EEC1AF0A2
:101A860000018B5112000450800B0D6E045004248B
:101A96000F6E03AE51EF0DF053EF0DF054EF0DF056
:101AA6000F800F50D8B45AEF0DF05CEF0DF071EFC8
:101AB6000DF00F28D8A462EF0DF064EF0DF06CEF77
:101AC6000DF0000E016E000E026E000E036E000E8B
:101AD600046E038E000E046E79EF0DF0000E016E9B
:101AE600000E026E000E036E000E046E0850800B90
:101AF6000E6E0D500E18D8B483EF0DF085EF0DF075
:101B060086EF0DF00D8C085008240E6E07AE8EEF92
:101B16000DF090EF0DF091EF0DF00E800E50D8B451
:101B260097EF0DF099EF0DF0AEEF0DF00E28D8A45B
:101B36009FEF0DF0A1EF0DF0A9EF0DF0000E056E71
:101B4600000E066E000E076E000E086E078E000E63
:101B5600086EB6EF0DF0000E056E000E066E000E56
:101B6600076E000E086E0F500E5CD8B0BDEF0DF07C
:101B7600BFEF0DF0E6EF0DF00DACC4EF0DF0C6EFC4
:101B86000DF0C8EF0DF0800E0D1A0FC010F00EC04C
:101B96000FF010C00EF001C010F005C001F010C02B
:101BA60005F002C010F006C002F010C006F003C037
:101BB60010F007C003F010C007F004C010F008C012
:101BC60004F010C008F0000E106E0F500EC009F0A1
:101BD6000A6A095E000E0A5A0ABEFBEF0DF00A50A9
:101BE60009E11A0E095CD8A0FBEF0DF0FDEF0DF030
:101BF60034EF0EF00150021003100410D8A406EFC3
:101C06000EF009EF0EF0010E0AEF0EF0000E106E48
:101C1600000E016E000E026E000E036E000E046EC4
:101C26000EC00FF03DEF0EF010A01CEF0EF01EEFF1
:101C36000EF024EF0EF0D89010300109106E26EF4A
:101C46000EF0D890103201A02BEF0EF02DEF0EF013
:101C56002EEF0EF0108E04340432033202320132BB
:101C66000F2A0E500F5CD8A03BEF0EF03DEF0EF0A2
:101C760017EF0EF00DBC42EF0EF044EF0EF084EFBE
:101C86000EF00F50D8A44AEF0EF04CEF0EF056EFC0
:101C96000EF0000E016E000E026E000E036E000EB8
:101CA600046EA5EF0FF005500126065002220750DC
:101CB60003220850042204A063EF0EF065EF0EF035
:101CC60011EF0FF010A06AEF0EF06CEF0EF072EF4E
:101CD6000EF0D89010300109106E74EF0EF0D89007
:101CE600103201A079EF0EF07BEF0EF07CEF0EF0D4
:101CF600108E043404320332023201320F2A11EFFD
:101D06000FF00550015C0650025807500358045066
:101D1600800A096E0850800A0958D8B095EF0EF06F
:101D260097EF0EF0C2EF0EF00150055C096E0250FF
:101D360006580A6E035007580B6E045008580C6E6E
:101D4600FF0E0924016EFF0E0A20026EFF0E0B2005
:101D5600036EFF0E0C20046E800E0D1A106C1050D0
:101D6600D8A4B8EF0EF0BAEF0EF0CAEF0EF0010EDF
:101D76000126000E022203220422CAEF0EF00550AD
:101D8600015E0650025A0750035A0850045A015081
:101D9600021003100410D8A4D3EF0EF0D5EF0EF006
:101DA6000AEF0FF01050D8A4DBEF0EF0DDEF0EF0C7
:101DB6000AEF0FF0000E016E000E026E000E036EAB
:101DC600000E046EA5EF0FF0D890013602360336EA
:101DD600043610AEF1EF0EF0F3EF0EF0F4EF0EF066
:101DE600018010A0F9EF0EF0FBEF0EF0FFEF0EF002
:101DF600D880103601EF0FF0D89010360F50D8B4B7
:101E060007EF0FF009EF0FF00AEF0FF00F0603AE22
:101E16000FEF0FF011EF0FF0E7EF0EF0000E0E6E62
:101E260010AE18EF0FF01AEF0FF032EF0FF010C0F0
:101E360009F07F0E0916D8B423EF0FF025EF0FF047
:101E460029EF0FF0010E0E6E32EF0FF001A02EEF0C
:101E56000FF030EF0FF032EF0FF025EF0FF00E50CE
:101E6600D8B438EF0FF03AEF0FF065EF0FF0010E30
:101E76000126000E02220322042204A045EF0FF0E1
:101E860047EF0FF065EF0FF001C009F002C00AF04E
:101E960003C00BF004C00CF00C340C320B320A32C7
:101EA600093209C001F00AC002F00BC003F00CC0F1
:101EB60004F00F28D8B462EF0FF064EF0FF065EF6F
:101EC6000FF00F2A0F28D8B46BEF0FF06DEF0FF05D
:101ED60075EF0FF00F50D8A473EF0FF075EF0FF0FA
:101EE60087EF0FF0000E016E000E026E000E036EFD
:101EF600000E046E0F50D8A483EF0FF085EF0FF09D
:101F060087EF0FF0000E0D6E0FA08CEF0FF08EEF27
:101F16000FF091EF0FF0038E92EF0FF0039ED89023
:101F26000F30046E0DAE9AEF0FF09CEF0FF09DEFA1
:101F36000FF0048E01C001F002C002F003C003F0EE
:101F460004C004F012002B50800B346E2B502B244F
:101F56003A6E2AAEB1EF0FF0B3EF0FF0B4EF0FF019
:101F66003A803A50D8B4BAEF0FF0BCEF0FF0CFEF8B
:101F76000FF03A28D8A4C2EF0FF0C4EF0FF0CCEF61
:101F86000FF0000E286E000E296E000E2A6E000E4F
:101F96002B6E2A8ED7EF0FF0000E286E000E296EDC
:101FA600000E2A6E000E2B6E2F50800B341A2F5007
:101FB6002F24396E2EAEE2EF0FF0E4EF0FF0E5EFCF
:101FC6000FF039803950D8B4EBEF0FF0EDEF0FF08A
:101FD60000EF10F03928D8A4F3EF0FF0F5EF0FF06B
:101FE600FDEF0FF0000E2C6E000E2D6E000E2E6E05
:101FF600000E2F6E2E8E08EF10F0000E2C6E000EC7
:102006002D6E000E2E6E000E2F6E3950D8B40EEFC8
:1020160010F010EF10F018EF10F03A50D8A416EFA9
:1020260010F018EF10F022EF10F0000E286E000EE0
:10203600296E000E2A6E000E2B6EBAEF11F02E508E
:102046002802F3CF3FF0F4CF40F03F50356E366AAA
:10205600376A386A40503B6E3C6A3D6A3E6A2D508C
:102066002902F3CF3FF0F4CF40F03F503526000E63
:1020760036223722382240503B26000E3C223D2293
:102086003E222C502A02F3CF3FF0F4CF40F03F50CF
:102096003526000E36223722382240503B26000EC7
:1020A6003C223D223E2237C038F036C037F035C0DC
:1020B60036F0356A2C502902F3CF3FF0F4CF40F0CA
:1020C6003F50352640503622000E3722000E382269
:1020D6002D502802F3CF3FF0F4CF40F03F50352685
:1020E60040503622000E3722000E382237C038F014
:1020F60036C037F035C036F0356A2C502802F3CF9B
:102106003FF0F4CF40F03F50352640503622000EC7
:102116003722000E38222E502902F3CF3FF0F4CF9B
:1021260040F03F503B2640503C22000E3D22000E20
:102136003E222D502A02F3CF3FF0F4CF40F03F501D
:102146003B2640503C22000E3D22000E3E222E50E1
:102156002A02F3CF3FF0F4CF40F03F50306E4050AC
:10216600316E326A336A32C033F031C032F030C079
:1021760031F0306A30503B2631503C2232503D22FD
:1021860033503E2235C030F036C031F037C032F021
:1021960038C033F0190ED5EF10F0D8903332323202
:1021A60031323032E82ED0EF10F030503B2631502D
:1021B6003C2232503D2233503E2237C038F036C0E2
:1021C60037F035C036F0356A39503AC030F0316AEA
:1021D6003026000E3122820E30243F6EFF0E312053
:1021E600406E0BEF11F0D8903B363C363D363E360E
:1021F60038AE00EF11F002EF11F003EF11F03B8063
:10220600D89035363636373638363F06D8A04006AB
:102216003DAE10EF11F012EF11F0F6EF10F0000ED8
:10222600396E38AE19EF11F01BEF11F03FEF11F0D8
:10223600FF0E3514306EFF0E3614316EFF0E371456
:10224600326E7F0E3814336E305031103210331028
:10225600D8B430EF11F032EF11F036EF11F0010E75
:10226600396E3FEF11F03BA03BEF11F03DEF11F05F
:102276003FEF11F032EF11F03950D8B445EF11F0BD
:1022860047EF11F06BEF11F0010E3B26000E3C22DA
:102296003D223E223EA052EF11F054EF11F06BEFBB
:1022A60011F03BC030F03CC031F03DC032F03EC0D2
:1022B60033F03334333232323132303230C03BF0E5
:1022C60031C03CF032C03DF033C03EF03F4A402AB8
:1022D60040BE76EF11F0405008E13F28D8A076EFD7
:1022E60011F078EF11F082EF11F0000E3B6E000E48
:1022F6003C6E800E3D6E7F0E3E6EB0EF11F040BE1E
:102306008FEF11F0405006E13F04D8B08DEF11F089
:102316008FEF11F09BEF11F0000E3B6E000E3C6E3E
:10232600000E3D6E000E3E6E000E346EB0EF11F0E4
:102336003FC03AF0FF0E3B16FF0E3C167F0E3D16D1
:10234600000E3E163AA0AAEF11F0ACEF11F0ADEF79
:1023560011F03D8ED8903A303E6E34503E123BC05E
:1023660028F03CC029F03DC02AF03EC02BF01200F8
:10237600F0C153F0F1C154F0F2C155F0F3C156F07B
:1023860041C053F042C054F043C055F044C056F02B
:1023960053C045F054C046F055C047F056C048F00B
:1023A600180EDBEF11F0D8904832473246324532EC
:1023B600E82ED6EF11F045504D6E4E6A4EBEEDEF4B
:1023C60011F04E5009E1960E4D5CD8A0EDEF11F0DC
:1023D600EFEF11F0F9EF11F041C041F042C042F0C9
:1023E60043C043F044C044F091EF13F053C045F0AE
:1023F60054C046F055C047F056C048F0200E09EFCD
:1024060012F0D8904832473246324532E82E04EF71
:1024160012F04550461047104810D8B415EF12F088
:1024260017EF12F029EF12F041C001F042C002F09E
:1024360043C003F044C004F0B9EC2CF001C041F0F5
:1024460002C042F003C043F004C044F04EBE37EF72
:1024560012F04E5007E17E0E4D5CD8B035EF12F00B
:1024660037EF12F053EF12F053C028F054C029F0A2
:1024760055C02AF056C02BF0000E2C6E000E2D6EA5
:10248600000E2E6E000E2F6EA6EC0FF028C041F047
:1024960029C042F02AC043F02BC044F091EF13F05C
:1024A600000E056E000E066E000E076E4B0E086ED1
:1024B60041C001F042C002F043C003F044C004F042
:1024C60046EC0DF001C04FF002C050F003C051F0D1
:1024D60004C052F0000E056E000E066E000E076E6A
:1024E600CB0E086E4FC001F050C002F051C003F091
:1024F60052C004F046EC0DF001C049F002C04AF0AB
:1025060003C04BF004C04CF049C011F04AC012F0B1
:102516004BC013F04CC014F041C015F042C016F089
:1025260043C017F044C018F098EC2BF011C057F0D8
:1025360012C058F013C059F014C05AF0000E016EC4
:10254600000E026E000E036E3F0E046E57C005F0BD
:1025560058C006F059C007F05AC008F0B7EC25F08D
:10256600D8B0B8EF12F0BAEF12F0F0EF12F041C0A7
:1025760005F042C006F043C007F044C008F057C05B
:1025860001F058C002F059C003F05AC004F046ECFE
:102596000DF001C04FF002C050F003C051F004C06E
:1025A60052F04FC001F050C002F051C003F052C0CB
:1025B60004F0000E056E000E066E800E076EBF0E4E
:1025C600086E46EC0DF001C057F002C058F003C08B
:1025D60059F004C05AF059EF13F0000E016E000EC8
:1025E600026E000E036EBF0E046E57C005F058C093
:1025F60006F059C007F05AC008F0B7EC25F0D8A08D
:1026060007EF13F009EF13F03FEF13F041C005F0A9
:1026160042C006F043C007F044C008F057C001F0BE
:1026260058C002F059C003F05AC004F046EC0DF051
:1026360001C04FF002C050F003C051F004C052F088
:102646004FC001F050C002F051C003F052C004F078
:10265600000E056E000E066E800E076E3F0E086EAB
:1026660046EC0DF001C057F002C058F003C059F017
:1026760004C05AF059EF13F057C001F058C002F0E9
:1026860059C003F05AC004F041C005F042C006F03C
:1026960043C007F044C008F046EC0DF001C057F007
:1026A60002C058F003C059F004C05AF053C045F0B8
:1026B60054C046F055C047F056C048F0200E69EFAA
:1026C60013F0D8904832473246324532E82E64EF4E
:1026D60013F04550461047104810D8B475EF13F064
:1026E60077EF13F089EF13F057C001F058C002F0EE
:1026F60059C003F05AC004F0B9EC2CF001C057F0F1
:1027060002C058F003C059F004C05AF057C041F057
:1027160058C042F059C043F05AC044F0120012505B
:10272600800B1F6E12501224266E11AE9DEF13F011
:102736009FEF13F0A0EF13F026802650D8B4A6EF33
:1027460013F0A8EF13F0BDEF13F02628D8A4AEEFD0
:1027560013F0B0EF13F0B8EF13F0000E0F6E000E8B
:10276600106E000E116E000E126E118E000E126E9D
:10277600C5EF13F0000E0F6E000E106E000E116EF8
:10278600000E126E1650800B1F1A16501624276E56
:1027960015AED0EF13F0D2EF13F0D3EF13F027807E
:1027A6002750D8B4D9EF13F0DBEF13F0F0EF13F0A6
:1027B6002728D8A4E1EF13F0E3EF13F0EBEF13F0C3
:1027C600000E136E000E146E000E156E000E166EC1
:1027D600158E000E166EF8EF13F0000E136E000E37
:1027E600146E000E156E000E166E13501410151092
:1027F6001610D8A401EF14F003EF14F01BEF14F039
:10280600000E0F6E000E106E000E116E000E126E90
:10281600800E11127F0E12121F5012120FC00FF0EF
:1028260010C010F011C011F012C012F05EEF15F0DA
:102836002650D8A421EF14F023EF14F02DEF14F056
:10284600000E0F6E000E106E000E116E000E126E50
:102856005EEF15F0275026C017F0186A175E000EB7
:10286600185A7F0E1724206E000E1820216E0FC0F6
:102876001BF010C01CF011C01DF012C01EF0000E9F
:102886000F6E000E106E000E116E000E126E000E10
:10289600226E000E236E000E246E000E256E000EB4
:1028A600276E8EEF14F02750D8B45CEF14F05EEF6D
:1028B60014F075EF14F0D8901B361C361D361E36F4
:1028C600D8900F3610361136123625AE6DEF14F04D
:1028D6006FEF14F070EF14F00F80D8902236233685
:1028E6002436253613501B5C14501C5815501D58A1
:1028F60016501E58D8A082EF14F084EF14F08DEF16
:1029060014F0258C13501B5E14501C5A15501D5A7A
:1029160016501E5A272A190E276494EF14F096EFC4
:1029260014F056EF14F01B501C101D101E10D8B4D6
:102936009FEF14F0A1EF14F0B9EF14F02280B9EF75
:1029460014F0D8900F3610361136123625AEAEEF8B
:1029560014F0B0EF14F0B1EF14F00F80D8902236D7
:102966002336243625362006D8A0210611AEBEEF22
:1029760014F0C0EF14F0A4EF14F0000E276E25AE8D
:10298600C7EF14F0C9EF14F0EDEF14F0FF0E2214A8
:10299600176EFF0E2314186EFF0E2414196E7F0E89
:1029A60025141A6E1750181019101A10D8B4DEEF25
:1029B60014F0E0EF14F0E4EF14F0010E276EEDEFE3
:1029C60014F00FA0E9EF14F0EBEF14F0EDEF14F0B4
:1029D600E0EF14F02750D8B4F3EF14F0F5EF14F04D
:1029E60019EF15F0010E0F26000E102211221222E9
:1029F60012A000EF15F002EF15F019EF15F00FC059
:102A060017F010C018F011C019F012C01AF01A34DD
:102A16001A3219321832173217C00FF018C010F0D8
:102A260019C011F01AC012F0204A212A21BE24EF43
:102A360015F0215008E12028D8A024EF15F026EF44
:102A460015F031EF15F0000E216E2068000E0F6EA6
:102A5600000E106E000E116E000E126E21BE3EEFBD
:102A660015F0215006E12004D8B03CEF15F03EEFFA
:102A760015F04CEF15F0000E216E000E206E000EC4
:102A86000F6E000E106E000E116E000E126E000E0E
:102A96001F6E20C026F026A053EF15F055EF15F057
:102AA60058EF15F0118E59EF15F0119ED89026307B
:102AB600126E0FEF14F0120058C020F059C021F02A
:102AC6005AC022F05BC023F0B40E246ED6EC20F080
:102AD60003016B07000E0001606F010E616F310E7E
:102AE600626F0E0E636FCFEC2AF0000E026E010EBF
:102AF600036E0AEC2DF0640E0001606F010E616F2B
:102B06003B0E626F0E0E636FCFEC2AF0640E026E00
:102B1600010E036E0AEC2DF003016B5122EC2DF031
:102B260003016B51020D3C0EF324D96E030EF42003
:102B3600DA6EDF5022EC2DF0C80E22EC2DF058C0D4
:102B46001AF059C01BF05AC01CF05BC01DF04DECCA
:102B560029F0000E0001DF6F000EDE6FC2EF15F0E8
:102B6600520E5D6E2B0E5C6E000EE82EFED75C2EAE
:102B7600FCD75D2EFAD700D00001DE4BDF2B030118
:102B86006B51020D3C0EF324D96E030EF420DA6E5F
:102B9600DE500001DE5DDE50DF59D8A0D5EF15F01E
:102BA600D7EF15F0B3EF15F058C01AF059C01BF067
:102BB6005AC01CF05BC01DF0EFEC28F003016B510E
:102BC600D8A4E8EF15F0EAEF15F0ECEF15F0F7EF03
:102BD60016F06B076B5122EC2DF003016B51020DC1
:102BE6003C0EF324D96E030EF420DA6EDF5022EC8D
:102BF6002DF0C80E22EC2DF003016B51020D3C0E98
:102C0600F324D96E030EF420DA6EDE04DE10D8A4A7
:102C16000FEF16F011EF16F021EF16F058C020F066
:102C260059C021F05AC022F05BC023F05A0E246E20
:102C36009DEC21F003016B077EEF15F06B51020D41
:102C46003C0EF324D96E030EF420DA6E020EDE1863
:102C5600DE10D8A431EF16F033EF16F041EF16F080
:102C660058C020F059C021F05AC022F05BC023F0B2
:102C76005A0E246ED6EC20F01DEF16F06B51020DA5
:102C86003C0EF324D96E030EF420DA6E030EDE1822
:102C9600DE10D8A451EF16F053EF16F061EF16F0E0
:102CA60058C020F059C021F05AC022F05BC023F072
:102CB600B40E246E9DEC21F01DEF16F06B51020D43
:102CC6003C0EF324D96E030EF420DA6E040EDE18E1
:102CD600DE10D8A471EF16F073EF16F08BEF16F036
:102CE60058C026F059C027F05AC028F05BC029F01A
:102CF6003FEC2CF058C020F059C021F05AC022F009
:102D06005BC023F05A0E246E9DEC21F01DEF16F0E9
:102D16006B51020D3C0EF324D96E030EF420DA6ECD
:102D2600050EDE18DE10D8A49BEF16F09DEF16F008
:102D3600B5EF16F058C026F059C027F05AC028F053
:102D46005BC029F03FEC2CF058C020F059C021F0B0
:102D56005AC022F05BC023F05A0E246ED6EC20F047
:102D66001DEF16F06B51020D3C0EF324D96E030EC7
:102D7600F420DA6E060EDE18DE10D8A4C5EF16F0C3
:102D8600C7EF16F0D5EF16F058C020F059C021F065
:102D96005AC022F05BC023F0870E246E9DEC21F012
:102DA6001DEF16F06B51020D3C0EF324D96E030E87
:102DB600F420DA6E070EDE18DE10D8A4E5EF16F062
:102DC600E7EF16F0F5EF16F058C020F059C021F0E5
:102DD6005AC022F05BC023F0870E246ED6EC20F09A
:102DE6001DEF16F07EEF15F0000E0001606F020E6B
:102DF600616F050E626F0E0E636FCFEC2AF0000E48
:102E0600026E020E036E0AEC2DF058C01AF059C07D
:102E16001BF05AC01CF05BC01DF0EFEC28F008EF69
:102E260017F012000201C86F0201C851D8B41EEF94
:102E360017F020EF17F098EF18F0640E0001606F9E
:102E4600020E616F240E626F0E0E636FC8C264F0CD
:102E5600656BCFEC2AF0640E026E020E036E0AEC6E
:102E66002DF00201C805D8A43BEF17F03DEF17F08F
:102E760061EF17F0E0C026F0E1C027F0E2C028F0CD
:102E8600E3C029F01FEC2CF0E0C020F0E1C021F0F7
:102E9600E2C022F0E3C023F05A0E246ED6EC20F0F6
:102EA60003016B51020D3C0EF324D96E030EF42080
:102EB600DA6E010EDE6E000EDD6E6B2B020E020167
:102EC600C819D8A469EF17F06BEF17F08FEF17F05A
:102ED600E0C026F0E1C027F0E2C028F0E3C029F008
:102EE6001FEC2CF0E0C020F0E1C021F0E2C022F09F
:102EF600E3C023F05A0E246E9DEC21F003016B51C2
:102F0600020D3C0EF324D96E030EF420DA6E020E87
:102F1600DE6E000EDD6E6B2B030E0201C819D8A4FF
:102F260097EF17F099EF17F0BDEF17F0E0C026F016
:102F3600E1C027F0E2C028F0E3C029F01FEC2CF036
:102F4600E0C020F0E1C021F0E2C022F0E3C023F0AF
:102F5600B40E246E9DEC21F003016B51020D3C0E64
:102F6600F324D96E030EF420DA6E030EDE6E000E25
:102F7600DD6E6B2B040E0201C819D8A4C5EF17F03D
:102F8600C7EF17F0EBEF17F0E0C026F0E1C027F02F
:102F9600E2C028F0E3C029F03FEC2CF0E0C020F0BE
:102FA600E1C021F0E2C022F0E3C023F05A0E246E05
:102FB600D6EC20F003016B51020D3C0EF324D96EC2
:102FC600030EF420DA6E040EDE6E000EDD6E6B2B41
:102FD600050E0201C819D8A4F3EF17F0F5EF17F0A4
:102FE60019EF18F0E0C026F0E1C027F0E2C028F0A3
:102FF600E3C029F03FEC2CF0E0C020F0E1C021F066
:10300600E2C022F0E3C023F05A0E246E9DEC21F0BC
:1030160003016B51020D3C0EF324D96E030EF4200E
:10302600DA6E050EDE6E000EDD6E6B2B060E0201ED
:10303600C819D8A421EF18F023EF18F047EF18F0BD
:10304600E0C026F0E1C027F0E2C028F0E3C029F096
:103056001FEC2CF0E0C020F0E1C021F0E2C022F02D
:10306600E3C023F0870E246ED6EC20F003016B51EB
:10307600020D3C0EF324D96E030EF420DA6E060E12
:10308600DE6E000EDD6E6B2B070E0201C819D8A48A
:103096004FEF18F051EF18F075EF18F0E0C026F07A
:1030A600E1C027F0E2C028F0E3C029F01FEC2CF0C5
:1030B600E0C020F0E1C021F0E2C022F0E3C023F03E
:1030C600870E246E9DEC21F003016B51020D3C0E20
:1030D600F324D96E030EF420DA6E070EDE6E000EB0
:1030E600DD6E6B2B080E0201C819D8A47DEF18F00F
:1030F6007FEF18F098EF18F0010E016E020E0EEC3D
:103106001AF0E0C026F0E1C027F0E2C028F0E3C0E4
:1031160029F01FEC2CF0E0C058F0E1C059F0E2C0F5
:103126005AF0E3C05BF05FEC15F012001EC036F0FB
:103136001FC037F020C038F021C039F022C03AF065
:1031460023C03BF024C03CF025C03DF03DBEAEEFB1
:1031560018F0B1EF18F0010EB2EF18F0000E346E51
:10316600356A34503510D8B4BBEF18F0BDEF18F0FF
:10317600CDEF18F03D1E3C1E3B1E3A1E391E381E72
:10318600371E366C000E3722382239223A223B226D
:103196003C223D220101F9BFD3EF18F0D5EF18F01C
:1031A600D7EF18F00001F8930101F9BFE5EF18F029
:1031B600F95106E1F805D8B0E3EF18F0E5EF18F09D
:1031C600EBEF18F0000E316E010E306EEFEF18F0D7
:1031D600F8C130F0F9C131F0F6C132F0F7C133F081
:1031E60034503510D8A4FAEF18F0FCEF18F004EFBD
:1031F60019F00001F8A502EF19F004EF19F007EF36
:1032060019F03206D8A03306000E3F6E1F0E3E6E32
:10321600000E0201E86F8CEF19F03E06D8A03F06BB
:10322600C90E3E24D96E020E3F20DA6E36C001F07A
:1032360037C002F038C003F039C004F03AC005F0D8
:103246003BC006F03CC007F03DC008F00A0E096E10
:10325600000E0A6E000E0B6E000E0C6E000E0D6E4A
:10326600000E0E6E000E0F6E000E106EEDEC23F0CB
:1032760001C026F002C027F003C028F004C029F0E0
:1032860005C02AF006C02BF007C02CF008C02DF0B0
:1032960026C013F028C014F05FEC2CF01350300F4A
:1032A600DF6E3006D8A031063206D8A0330636C007
:1032B60001F037C002F038C003F039C004F03AC05C
:1032C60005F03BC006F03CC007F03DC008F00A0E12
:1032D600096E000E0A6E000E0B6E000E0C6E000ECE
:1032E6000D6E000E0E6E000E0F6E000E106E29ECA7
:1032F60023F001C036F002C037F003C038F004C036
:1033060039F005C03AF006C03BF007C03CF008C0F3
:103316003DF03FBE97EF19F03F5008E13E04D8A0BC
:1033260097EF19F099EF19F0CAEF19F036503710E8
:10333600381039103A103B103C103D10D8A4A6EFB7
:1033460019F0A8EF19F010EF19F031BEB5EF19F02A
:10335600315006E13004D8B0B3EF19F0B5EF19F0EB
:1033660010EF19F033BEC0EF19F0335008E1320404
:10337600D8A0C0EF19F0C2EF19F0CAEF19F000019A
:10338600F8B3C8EF19F0CAEF19F010EF19F034507E
:103396003510D8A4D1EF19F0D3EF19F0DBEF19F0FF
:1033A6000001F8A5D9EF19F0DBEF19F0F9EF19F0E4
:1033B6003E06D8A03F0634503510D8A4E5EF19F0E4
:1033C600E7EF19F0EDEF19F0000E2F6E2B0E2E6EB3
:1033D600F1EF19F0000E2F6E2D0E2E6EC90E3E2443
:1033E600D96E020E3F20DA6E2EC0DFFF1CC011F030
:1033F6001DC012F0C90E3E24136E020E3F20146E3D
:1034060032C015F033C016F06AEC27F011C01CF07C
:1034160012C01DF01200056E000E046E000E046E42
:103426005AEF1BF00504D8A41BEF1AF01DEF1AF093
:1034360055EF1AF080A222EF1AF026EF1AF0026A70
:10344600022A27EF1AF0026A024680500218FD0B84
:103456000218806E290E036E960E026E7F0EE82EFF
:10346600FED7022EFCD7032EFAD700F080A23EEF3D
:103476001AF042EF1AF0026A022A43EF1AF0026AC1
:10348600024680500218FD0B0218806E290E036E4C
:10349600960E026E7F0EE82EFED7022EFCD7032E66
:1034A600FAD700F0020E0518D8A45CEF1AF05EEF0A
:1034B6001AF096EF1AF07CA863EF1AF067EF1AF08D
:1034C600026A022A68EF1AF0026A023A7C5002186F
:1034D600EF0B02187C6E290E036E960E026E7F0E9F
:1034E600E82EFED7022EFCD7032EFAD700F07CA8D2
:1034F6007FEF1AF083EF1AF0026A022A84EF1AF0BD
:10350600026A023A7C500218EF0B02187C6E290EF2
:10351600036E960E026E7F0EE82EFED7022EFCD7A5
:10352600032EFAD700F0030E0518D8A49DEF1AF063
:103536009FEF1AF0DBEF1AF07CA6A4EF1AF0A8EFC3
:103546001AF0026A022AA9EF1AF0026A0246024635
:1035560002467C500218F70B02187C6E290E036E89
:10356600960E026E7F0EE82EFED7022EFCD7032E95
:10357600FAD700F07CA6C2EF1AF0C6EF1AF0026A7C
:10358600022AC7EF1AF0026A0246024602467C5039
:103596000218F70B02187C6E290E036E960E026E49
:1035A6007F0EE82EFED7022EFCD7032EFAD700F0A8
:1035B600040E0518D8A4E2EF1AF0E4EF1AF01AEF99
:1035C6001BF07EA0E9EF1AF0EDEF1AF0026A022A6C
:1035D600EEEF1AF0026A7E500218FE0B02187E6E9B
:1035E600290E036E960E026E7F0EE82EFED7022E71
:1035F600FCD7032EFAD700F07EA004EF1BF008EFED
:103606001BF0026A022A09EF1BF0026A7E500218BA
:10361600FE0B02187E6E290E036E960E026E7F0E4C
:10362600E82EFED7022EFCD7032EFAD700F0030EA3
:103636000518D8A421EF1BF023EF1BF059EF1BF060
:1036460080A028EF1BF02CEF1BF0026A022A2DEF58
:103656001BF0026A80500218FE0B0218806E290EBB
:10366600036E960E026E7F0EE82EFED7022EFCD754
:10367600032EFAD700F080A043EF1BF047EF1BF0B4
:10368600026A022A48EF1BF0026A80500218FE0BFB
:103696000218806E290E036E960E026E7F0EE82EBD
:1036A600FED7022EFCD7032EFAD700F0042A0150CB
:1036B600045CD8A061EF1BF063EF1BF015EF1AF066
:1036C600120085EC2DF0020E016E010E0EEC1AF0C2
:1036D600290E0F6E960E0E6E7F0EE82EFED70E2E5C
:1036E600FCD70F2EFAD700F075EC2DF0F8EC2AF087
:1036F6000CC0D9FF0DC0DAFF05C0DEFF06C0DDFF36
:1037060020EC2BF020EE02F00C50D9260D50DA22D8
:1037160005C0DEFF06C0DDFF48EC2BF020EE04F00E
:103726000C50D9260D50DA2205C0DEFF06C0DDFF9B
:10373600090E0F6E1E0E0E6EE40EE82EFED70E2E2E
:10374600FCD70F2EFAD700D095EC2DF0F8EC2AF026
:1037560020EE06F00C50D9260D50DA2205C0DEFF09
:1037660006C0DDFF20EC2BF020EE08F00C50D92629
:103776000D50DA2205C0DEFF06C0DDFF48EC2BF057
:1037860020EE0AF00C50D9260D50DA2205C0DEFFD5
:1037960006C0DDFF090E0F6E1E0E0E6EE40EE82E3D
:1037A600FED70E2EFCD70F2EFAD700D0A5EC2DF0A3
:1037B600F8EC2AF020EE0CF00C50D9260D50DA2247
:1037C60005C0DEFF06C0DDFF20EC2BF020EE0EF07C
:1037D6000C50D9260D50DA2205C0DEFF06C0DDFFEB
:1037E60048EC2BF020EE10F00C50D9260D50DA22C2
:1037F60005C0DEFF06C0DDFF70EC2BF020EE1AF0F0
:103806000C50D9260D50DA2205C0DEFF06C0DDFFBA
:10381600090E0F6E1E0E0E6EE40EE82EFED70E2E4D
:10382600FCD70F2EFAD700D0B5EC2DF0F8EC2AF025
:1038360020EE12F00C50D9260D50DA2205C0DEFF1C
:1038460006C0DDFF20EC2BF020EE14F00C50D9263C
:103856000D50DA2205C0DEFF06C0DDFF48EC2BF076
:1038660020EE16F00C50D9260D50DA2205C0DEFFE8
:1038760006C0DDFF70EC2BF020EE18F00C50D926B8
:103886000D50DA2205C0DEFF06C0DDFF290E0F6EE1
:10389600960E0E6E7F0EE82EFED70E2EFCD70F2E3E
:1038A600FAD700F085EC2DF0290E0F6E960E0E6EEF
:1038B6007F0EE82EFED70E2EFCD70F2EFAD700F07D
:1038C600020E016E010E0EEC1AF0120039EC2DF00C
:1038D600F0EC2CF0000E026EC70E016EFEEC2BF023
:1038E6000FEC2EF0E5EC2DF0F4EC2DF020EC2EF0A4
:1038F600C5EC2DF09B0E016E030E026EA50E036E37
:10390600030E046E39EC26F0000E0301766F7F0E6F
:103916000C6E030E0D6E64EC1BF06C0E00016A6FEC
:10392600030E6B6F9FEC24F06AC074F36BC075F3E3
:10393600D58E68C366F369C367F3BDEF1CF09B0EB3
:103946001A6E030E1B6EA50E1C6E030E1D6E4DEC3D
:1039560029F09B0E00016A6F030E6B6FA50E6C6F4C
:10396600030E6D6F74C36EF075C36FF007EC27F02E
:103976000301766F03017651D8B4C4EF1CF0C6EF8D
:103986001CF0A2EF1CF0D59E68C364F369C365F30F
:103996006651645D0001F66F0301675165590001C8
:1039A600F76FF75109E1020EF65DD8A0DDEF1CF0C6
:1039B600DFEF1CF00AEF1DF003016651645D0001A4
:1039C600F66F0301675165590001F76F03016B51EB
:1039D600020D3C0EF324D96E030EF420DA6EF6C007
:1039E600DEFFF7C0DDFF6B5122EC2DF003016B51BA
:1039F600020D3C0EF324D96E030EF420DA6EDF506E
:103A060022EC2DF0C80E22EC2DF003016B2B9B0E41
:103A16001A6E030E1B6EA50E1C6E030E1D6EEFECCA
:103A260028F0520E0001F76F2B0EF66F000EE82EEF
:103A3600FED7F62FFCD7F72FFAD700F09B0E266E8F
:103A4600030E276EA50E286E030E296EA4EC2AF02F
:103A5600770E0001716F030E726F7F0E736F030E88
:103A6600746F23EC07F003016A6F770E0001926F03
:103A7600030E936F7F0E946F030E956F03016A51C9
:103A860097EC29F003016A6F9B0E0001E06F030EAD
:103A9600E16FA50EE26F030EE36F03016A5115ECA9
:103AA60017F0000E03016A6F000E766F9BEF1CF095
:103AB60014EF00F020EE01F00F50D9261050DA2254
:103AC600DF50D8B469EF1DF06BEF1DF09CEF1DF0D1
:103AD6000FC0D9FF10C0DAFFDF50116E1150016E12
:103AE600026A20EE07F00F50D9261050DA22DECFF8
:103AF60003F0DDCF04F062EC2DF001C007F002C048
:103B060008F0000E0A6E640E096ECDEC27F020EE6A
:103B160007F00F50D9261050DA22DECF12F0DDCF93
:103B260013F00750125C186E08501358196EBFEF49
:103B36001DF00FC0D9FF10C0DAFFDF50116E115013
:103B4600016E026A20EE07F00F50D9261050DA22D5
:103B5600DECF03F0DDCF04F062EC2DF001C007F0FC
:103B660002C008F0000E0A6E640E096ECDEC27F056
:103B760007C018F008C019F020EE02F00F50D92641
:103B86001050DA22DECF11F0DDCF12F011C0D9FFCE
:103B960012C0DAFF18C0DFFF20EE01F00F50D92661
:103BA6001050DA22DF50D8B4DBEF1DF0DDEF1DF048
:103BB60012EF1EF020EE04F00F50D9261050DA2234
:103BC600DECF11F0DDCF12F011C0D9FF12C0DAFF3F
:103BD60010EE04F00F50E1261050E222E6CF13F06B
:103BE600E5CF14F013C0E1FF14C0E2FFE750156EF5
:103BF60010EE06F00F50E1261050E222E750166E46
:103C0600010E176E162A0AEF1EF0D8901736162EDA
:103C160008EF1EF017501510DF6E46EF1EF020EE6F
:103C260004F00F50D9261050DA22DECF11F0DDCF86
:103C360012F011C0D9FF12C0DAFF10EE04F00F50D7
:103C4600E1261050E222E6CF13F0E5CF14F013C0C0
:103C5600E1FF14C0E2FFE750156E10EE06F00F50BC
:103C6600E1261050E222E750166E010E176E162A54
:103C76003FEF1EF0D8901736162E3DEF1EF0175068
:103C8600FF0A1514DF6E1200000E0001DF6F000E32
:103C9600DE6F000EE36F000EE26F000EE56F000EA2
:103CA600E46F000EDF6F000EDE6FB5EC2DF05AC02C
:103CB6000CF05BC00DF075EC2AF05AC058F05BC0F2
:103CC60059F0D5EC29F0090E5D6E1E0E5C6EE40E01
:103CD600E82EFED75C2EFCD75D2EFAD700D0000169
:103CE600DE4BDF2BDFBF81EF1EF0DF5109E1050E52
:103CF600DE5DD8A081EF1EF083EF1EF058EF1EF0B8
:103D0600000E22EC2DF0000E0001E16F000EE06FB8
:103D160075EC2DF05AC00CF05BC00DF075EC2AF076
:103D26005AC058F05BC059F0D5EC29F0090E5D6E0B
:103D36001E0E5C6EE40EE82EFED75C2EFCD75D2EC2
:103D4600FAD700D00001E04BE12BE1BFB4EF1EF043
:103D5600E15109E1050EE05DD8A0B4EF1EF0B6EF23
:103D66001EF08BEF1EF0000E22EC2DF0000E00016F
:103D7600E36F000EE26F95EC2DF05AC00CF05BC0BD
:103D86000DF075EC2AF05AC058F05BC059F0D5EC2E
:103D960029F0090E5D6E1E0E5C6EE40EE82EFED74F
:103DA6005C2EFCD75D2EFAD700D00001E24BE32B48
:103DB600E3BFE7EF1EF0E35109E1050EE25DD8A08F
:103DC600E7EF1EF0E9EF1EF0BEEF1EF0000E22EC4C
:103DD6002DF0000E0001E56F000EE46FA5EC2DF04E
:103DE6005AC00CF05BC00DF075EC2AF05AC058F0C2
:103DF6005BC059F0D5EC29F0090E5D6E1E0E5C6EA7
:103E0600E40EE82EFED75C2EFCD75D2EFAD700D046
:103E16000001E44BE52BE5BF1AEF1FF0E55109E180
:103E2600050EE45DD8A01AEF1FF01CEF1FF0F1EFAE
:103E36001EF0010E22EC2DF0B5EC2DF01200096EED
:103E46000950D8B429EF1FF02BEF1FF04DEF1FF0EC
:103E560004BE32EF1FF030EF1FF04DEF1FF001C030
:103E660005F002C006F003C007F004C008F0051E06
:103E7600061E071E081E052A000E06220722082215
:103E860005C00BF006C00CF007C00DF008C00EF020
:103E960055EF1FF001C00BF002C00CF003C00DF08F
:103EA60004C00EF00150021003100410D8A45EEFF7
:103EB6001FF060EF1FF06AEF1FF0000E016E000E9C
:103EC600026E000E036E000E046EFBEF1FF0960EE0
:103ED6000A6E74EF1FF00A2AD8900E320D320C3299
:103EE6000B32000E0B14056E000E0C14066E000E3F
:103EF6000D14076EFE0E0E14086E05500610071000
:103F06000810D8A489EF1FF08BEF1FF06EEF1FF09B
:103F160099EF1FF00A2A010E0B26000E0C220D2225
:103F26000E22D8900E320D320C320B32000E0B14CC
:103F3600056E000E0C14066E000E0D14076EFF0EB5
:103F46000E14086E0550061007100810D8A4AEEF20
:103F56001FF0B0EF1FF08DEF1FF0B8EF1FF00A064D
:103F6600D8900B360C360D360E360DBEBDEF1FF053
:103F7600BFEF1FF0C7EF1FF0020E0A60C5EF1FF07C
:103F8600C7EF1FF0B2EF1FF00AB0CCEF1FF0CEEF75
:103F96001FF0CFEF1FF00D9ED8900A320AC005F031
:103FA600066A076A086A05C008F0076A066A056AAB
:103FB60005500B1206500C1207500D1208500E1227
:103FC6000950D8B4E9EF1FF0EBEF1FF0F3EF1FF045
:103FD60004BEF2EF1FF0F0EF1FF0F3EF1FF00E8EAE
:103FE6000BC001F00CC002F00DC003F00EC004F0CF
:103FF600120042C0D9FF43C0DAFFDECFF6FFDDCFA5
:10400600F7FF0800F550250AD8A40CEF20F00EEFB4
:1040160020F0BAEF20F042C0D9FF43C0DAFFDE2A13
:10402600000EDD22000E0101F76F000EF66FF6C1DD
:10403600F8F0F7C1F9F0F869F96942C0D9FF43C051
:10404600DAFFDECFF6FFDDCFF7FF0800F550640A92
:10405600D8B430EF20F032EF20F044EF20F042C029
:10406600D9FF43C0DAFFDECFF6FFDDCFF7FF08004A
:10407600F550690AD8A442EF20F044EF20F084EF0F
:1040860020F042C0D9FF43C0DAFFDE2A000EDD224F
:1040960044C0D9FF45C0DAFFDFCF46F0020EDE2668
:1040A600DFCF47F0000EDD2246C0D9FF47C0DAFF5A
:1040B600DECF48F0DDCF49F0000E49BEFF0E4A6E56
:1040C6004B6E4C6E4D6E4E6E4F6E40C01CF041C036
:1040D6001DF048C01EF049C01FF04AC020F04BC07A
:1040E60021F04CC022F04DC023F04EC024F04FC04A
:1040F60025F099EC18F01CC040F01DC041F0D5EF3A
:1041060020F042C0D9FF43C0DAFFDECFF6FFDDCF95
:10411600F7FF0800F550250AD8A494EF20F096EF93
:1041260020F0ADEF20F042C0D9FF43C0DAFFDE2A0F
:10413600000EDD22000E026E250E016E40C003F059
:1041460041C004F0A2EC26F0000E416E010E406E56
:10415600D5EF20F042C0D9FF43C0DAFFDE2A000EB9
:10416600DD22000E416E000E406ED5EF20F042C0FB
:10417600D9FF43C0DAFFDECFF6FFDDCFF7FF080039
:10418600F550016E026A40C003F041C004F0A2EC93
:1041960026F042C0D9FF43C0DAFFDE2A000EDD2238
:1041A600A7EF20F0120020EE01F02050D926215072
:1041B600DA22010EDF6E20EE01F02250D9262350BE
:1041C600DA22010EDF6E07EF21F020C0D9FF21C0F1
:1041D600DAFF050EDF2622C0D9FF23C0DAFF000E64
:1041E600DF6E20C00FF021C010F05DEC1DF022C084
:1041F6000FF023C010F05DEC1DF0D00E256ECA0E38
:10420600E82EFED7252EFCD720C0D9FF21C0DAFF25
:10421600180EDF6411EF21F013EF21F0E8EF20F024
:1042260024500001FE03F3CF30F0F4CF31F00F0E2F
:104236003024266E000E3120276E0A0E3024286E9A
:10424600000E3120296EB40E2418D8A42DEF21F0CB
:104256002FEF21F04AEF21F0000E2B6E000E2A6E92
:104266003FEF21F0150E256EC60EE82EFED7252E41
:10427600FCD700D02A4A2B2A28502A5C29502B58D2
:10428600D8A048EF21F04AEF21F035EF21F0870E54
:104296002418D8A451EF21F053EF21F06EEF21F04E
:1042A600000E2D6E000E2C6E63EF21F0150E256E9E
:1042B600C60EE82EFED7252EFCD700D02C4A2D2A76
:1042C60026502C5C27502D58D8A06CEF21F06EEFAD
:1042D60021F059EF21F05A0E2418D8A475EF21F0D9
:1042E60077EF21F092EF21F0000E2F6E000E2E6E6A
:1042F60087EF21F0150E256EC60EE82EFED7252E69
:10430600FCD700D02E4A2F2A30502E5C31502F5821
:10431600D8A090EF21F092EF21F07DEF21F020C0A0
:104326001AF021C01BF022C01CF023C01DF0EFECD8
:1043360028F0120020EE01F02050D9262150DA2272
:10434600010EDF6E20EE01F02250D9262350DA222C
:10435600010EDF6ECEEF21F022C0D9FF23C0DAFFB7
:10436600050EDF2620C0D9FF21C0DAFF000EDF6E62
:1043760020C00FF021C010F05DEC1DF022C00FF040
:1043860023C010F05DEC1DF0D00E256ECA0EE82E8F
:10439600FED7252EFCD722C0D9FF23C0DAFF180E80
:1043A600DF64D8EF21F0DAEF21F0AFEF21F02450EF
:1043B6000001FE03F3CF30F0F4CF31F00F0E3024BE
:1043C600266E000E3120276E0A0E3024286E000E4F
:1043D6003120296EB40E2418D8A4F4EF21F0F6EF9C
:1043E60021F011EF22F0000E2B6E000E2A6E06EF62
:1043F60022F0150E256EC60EE82EFED7252EFCD70A
:1044060000D02A4A2B2A28502A5C29502B58D8A09B
:104416000FEF22F011EF22F0FCEF21F0870E2418A7
:10442600D8A418EF22F01AEF22F035EF22F0000E92
:104436002D6E000E2C6E2AEF22F0150E256EC60E7E
:10444600E82EFED7252EFCD700D02C4A2D2A265042
:104456002C5C27502D58D8A033EF22F035EF22F0F0
:1044660020EF22F05A0E2418D8A43CEF22F03EEF9B
:1044760022F059EF22F0000E2F6E000E2E6E4EEF38
:1044860022F0150E256EC60EE82EFED7252EFCD779
:1044960000D02E4A2F2A30502E5C31502F58D8A0EB
:1044A60057EF22F059EF22F044EF22F020C01AF025
:1044B60021C01BF022C01CF023C01DF0EFEC28F039
:1044C60012000001F56F000E0001F26F000EF46F8E
:1044D600000EF16F000EF06F020EF519D8A476EFFC
:1044E60022F078EF22F07EEF22F0E8C00CF0E9C06F
:1044F6000DF064EC1BF0040E0001F519D8A486EF4C
:1045060022F088EF22F092EF22F0E6C06AF0E7C0D0
:104516006BF09FEC24F06AC0F0F06BC0F1F0000184
:10452600F505D8A499EF22F09BEF22F0A9EF22F02F
:10453600B5EC2DF0E6C00CF0E7C00DF075EC2AF0F6
:10454600E6C058F0E7C059F0D5EC29F0020E00019C
:10455600F519D8A4B1EF22F0B3EF22F0C2EF22F0A2
:10456600E6C071F0E7C072F0E8C073F0E9C074F01D
:1045760023EC07F00001F36FF35122EC2DF0030E4C
:104586000001F519D8A4CAEF22F0CCEF22F0DFEF34
:1045960022F0D7EF22F0E6C05AF0E7C05BF047EC16
:1045A6001EF0010E0001F26FF251D8B4DDEF22F0D9
:1045B600DFEF22F0CEEF22F0040EF519D8A4E6EFD5
:1045C60022F0E8EF22F092EF22F004EF23F0EAC0A7
:1045D6001AF0EBC01BF0ECC01CF0EDC01DF04DEC6A
:1045E60029F0EAC06AF0EBC06BF0ECC06CF0EDC0ED
:1045F6006DF0F0C06EF0F1C06FF007EC27F000012F
:10460600F46FF451D8B40AEF23F00CEF23F0EAEF7D
:1046160022F0EAC01AF0EBC01BF0ECC01CF0EDC0B3
:104626001DF0EFEC28F0520E0001EF6F2B0EEE6F2F
:10463600000EE82EFED7EE2FFCD7EF2FFAD700F0AC
:10464600000E0001F46F92EF22F01200000E126EBF
:1046560010BE32EF23F030EF23F044EF23F0101EAC
:104666000F1E0E1E0D1E0C1E0B1E0A1E096C000EC2
:104676000A220B220C220D220E220F221022010EDC
:10468600126E08BE4BEF23F049EF23F05DEF23F0E7
:10469600081E071E061E051E041E031E021E016CB2
:1046A600000E0222032204220522062207220822E5
:1046B600010E121A20EE13F0070EDE6AE806FDE27E
:1046C60009500A100B100C100D100E100F101010C0
:1046D600D8B470EF23F072EF23F0C4EF23F0010E8D
:1046E600116E80EF23F0D89009360A360B360C3659
:1046F6000D360E360F361036112A10AE85EF23F022
:1047060087EF23F076EF23F0D8901336143615365C
:1047160016361736183619361A360950015C0A50FD
:1047260002580B5003580C5004580D5005580E50A3
:1047360006580F50075810500858D8A0A5EF23F078
:10474600A7EF23F0B8EF23F00950015E0A50025A92
:104756000B50035A0C50045A0D50055A0E50065A67
:104766000F50075A1050085A1380D89010320F3243
:104776000E320D320C320B320A320932112E87EF0D
:1047860023F01250D8B4CAEF23F0CCEF23F0DCEFBD
:1047960023F01A1E191E181E171E161E151E141E8D
:1047A600136C000E14221522162217221822192223
:1047B6001A2213C001F014C002F015C003F016C08F
:1047C60004F017C005F018C006F019C007F01AC0AB
:1047D60008F01200000E126E08BEF6EF23F0F4EF9A
:1047E60023F008EF24F0081E071E061E051E041EF1
:1047F600031E021E016C000E022203220422052261
:10480600062207220822010E126E10BE0FEF24F0B8
:104816000DEF24F01FEF24F0101E0F1E0E1E0D1EAE
:104826000C1E0B1E0A1E096C000E0A220B220C22FD
:104836000D220E220F22102209500A100B100C1006
:104846000D100E100F101010D8B42CEF24F02EEF10
:1048560024F076EF24F0010E116E3CEF24F0D89090
:1048660009360A360B360C360D360E360F3610362E
:10487600112A10AE41EF24F043EF24F032EF24F07A
:104886000950015C0A5002580B5003580C5004584A
:104896000D5005580E5006580F500758105008581E
:1048A600D8A058EF24F05AEF24F06AEF24F009500C
:1048B600015E0A50025A0B50035A0C50045A0D500E
:1048C600055A0E50065A0F50075A1050085AD890DB
:1048D60010320F320E320D320C320B320A320932DE
:1048E600112E43EF24F01250D8B47CEF24F07EEF63
:1048F60024F08EEF24F0081E071E061E051E041E59
:10490600031E021E016C000E02220322042205224F
:1049160006220722082201C001F002C002F003C0ED
:1049260003F004C004F005C005F006C006F007C099
:1049360007F008C008F01200000E0001756F000EA7
:10494600746F000E776F000E766F000E6F6F000E9D
:104956006E6F020E016E020E0EEC1AF0B5EC2DF023
:10496600290E00016D6F960E6C6F7F0EE82EFED736
:104976006C2FFCD76D2FFAD770EC2BF005C072F0B8
:1049860006C073F0110E00016D6F3C0E6C6FCB0EFE
:10499600E82EFED76C2FFCD76D2FFAD770EC2BF0D4
:1049A60005C074F006C075F0110E00016D6F3C0E67
:1049B6006C6FCB0EE82EFED76C2FFCD76D2FFAD777
:1049C60070EC2BF005C076F006C077F0110E0001F2
:1049D6006D6F3C0E6C6FCB0EE82EFED76C2FFCD79E
:1049E6006D2FFAD70001745172256C6F75517321C2
:1049F6006D6F76516C2777516D236CC001F06DC0D9
:104A060002F0036A046A000E22EC1FF001C00FF0E8
:104A160002C010F003C011F004C012F0000E136EB5
:104A2600000E146E400E156E400E166E92EC13F0CC
:104A36000FC066F010C067F011C068F012C069F0D0
:104A46009CEC2CF066C070F067C071F0020E016E2F
:104A5600020E0EEC1AF070C06AF071C06BF0120014
:104A66005D345E340001656F6551D8A43DEF25F0D5
:104A76003FEF25F049EF25F0000E5B6E000E5C6EF1
:104A8600000E5D6E000E5E6EB6EF25F05BC060F048
:104A96005CC061F05DC062F05EC063F0200E59EF4D
:104AA60025F0D8906333623361336033E82E54EFD8
:104AB60025F06051646F5D8EFF0E5B16FF0E5C166F
:104AC600FF0E5D16000E5E16960E655F65BF70EFF3
:104AD60025F06EEF25F086EF25F06551800A970FD9
:104AE600D8B078EF25F07AEF25F07CEF25F03FEF90
:104AF60025F0D8905E325D325C325B32653F7CEFEA
:104B060025F09EEF25F01F0E65658CEF25F08EEFE4
:104B160025F096EF25F03FEF25F0D8905B365C3612
:104B26005D365E3665076551D8A49CEF25F09EEF8D
:104B360025F090EF25F06451D8B4A4EF25F0A6EF48
:104B460025F0AEEF25F05E1E5D1E5C1E5B6C000E52
:104B56005C225D225E225BC05BF05CC05CF05DC0E7
:104B66005DF05EC05EF01200000E0114096E000ECC
:104B760002140A6E800E03140B6E7F0E04140C6E64
:104B860009500A100B100C10D8A4CCEF25F0CEEF6C
:104B960025F0D6EF25F0000E016E000E026E000E17
:104BA600036E000E046E000E0514096E000E061448
:104BB6000A6E800E07140B6E7F0E08140C6E0950D9
:104BC6000A100B100C10D8A4EBEF25F0EDEF25F032
:104BD600F5EF25F0000E056E000E066E000E076E50
:104BE600000E086E04AEFAEF25F0FCEF25F005EF97
:104BF60026F0016C021ED8B0022A031ED8B0032A82
:104C0600800E045608AE0AEF26F00CEF26F015EFDC
:104C160026F0056C061ED8B0062A071ED8B0072A4D
:104C2600800E0856000E011A000E021A000E031A14
:104C3600800E041A000E051A000E061A000E071A38
:104C4600800E081A0550015C06500258075003589A
:104C560008500458D8B032EF26F034EF26F037EF7C
:104C660026F0D89038EF26F0D880120001C0D9FF80
:104C760002C0DAFF000EDF6E20EE01F00150D926E9
:104C86000250DA22010EDF6E20EE02F00150D92624
:104C96000250DA22A30EDE6E0F0EDD6E20EE04F059
:104CA6000150D9260250DA227D0EDE6E0F0EDD6E21
:104CB60020EE06F00150D9260250DA22040EDF6EED
:104CC60020EE07F00150D9260250DA22C70EDE6E1A
:104CD600000EDD6E03C0D9FF04C0DAFF000EDF6EE2
:104CE60020EE01F00350D9260450DA22010EDF6EC1
:104CF60020EE02F00350D9260450DA22A00EDE6E12
:104D06000F0EDD6E20EE04F00350D9260450DA2291
:104D16007F0EDE6E0F0EDD6E20EE06F00350D926F6
:104D26000450DA22060EDF6E20EE07F00350D92675
:104D36000450DA22C70EDE6E000EDD6E120003503E
:104D46000410D8B4A9EF26F0ABEF26F0B4EF26F0A6
:104D560003500410D8A4B2EF26F0B4EF26F0B9EF52
:104D660026F0015036EC2EF006EF27F020EE09F083
:104D76000350D9260450DA22DE50DE10D8B4C6EF2E
:104D860026F0C8EF26F0E3EF26F020EE09F00350F8
:104D9600D9260450DA2210EE03F00350E12604501F
:104DA600E222DE50E65CE650800A096EDE50800A9A
:104DB6000958D8B0E1EF26F0E3EF26F006EF27F02A
:104DC60020EE03F00350D9260450DA22DECF05F098
:104DD600DDCF06F003C0D9FF04C0DAFFDECF07F04F
:104DE600DDCF08F005500724D96E06500820DA6E8C
:104DF60001C0DFFF20EE03F00350D9260450DA226B
:104E0600DE2A000EDD221200000E0001736F000E76
:104E1600726F000E7C6F000E7B6F000E7A6FB5EC22
:104E26002DF0090E0001716F1E0E706FE40EE82E54
:104E3600FED7702FFCD7712FFAD700F070EC2BF04D
:104E460005C078F006C079F020EC2BF06EC001F0BA
:104E56006FC002F0036A046A000E22EC1FF001C064
:104E660028F002C029F003C02AF004C02BF0660E19
:104E76002C6E660E2D6E860E2E6E3F0E2F6EA6ECD7
:104E86000FF028C074F029C075F02AC076F02BC048
:104E960077F074C066F075C067F076C068F077C0CA
:104EA60069F09CEC2CF066C07AF067C07BF00001DC
:104EB6007A51785D7B517959D8A064EF27F066EF77
:104EC60027F068EF27F0010E7C6F7C51120000017D
:104ED600F8A170EF27F072EF27F07CEF27F013C0F0
:104EE6000AF014C00BF011C00CF012C00DF0BBECB0
:104EF6002BF016BE81EF27F083EF27F089EF27F01E
:104F060015C01AF016C01BF08DEF27F0000E1B6EB1
:104F1600000E1A6E000E196E000E186E9FEF27F027
:104F2600000E026E200E016E11C003F012C004F0D6
:104F3600A2EC26F0184A192A1A50185C1950800A51
:104F4600176E1B50800A1758D8A0ACEF27F0AEEFAB
:104F560027F093EF27F00001F8B1B4EF27F0B6EF92
:104F660027F0C0EF27F013C00AF014C00BF011C0F1
:104F76000CF012C00DF0BBEC2BF013C001F014C006
:104F860002F0D5EC2CF01A500124116E1B500220B1
:104F9600126E1200000E0C6E0ABED6EF27F0D4EF8A
:104FA60027F0DCEF27F0096C0A1ED8B00A2A010E9A
:104FB6000C6E08BEE3EF27F0E1EF27F0E9EF27F0EC
:104FC600076C081ED8B0082A010E0C1A000E0E6EC9
:104FD600000E0D6E09500A10D8B4F4EF27F0F6EF64
:104FE60027F01EEF28F0010E0B6EFEEF27F0D8908B
:104FF60009360A360B2A0AAE03EF28F005EF28F029
:10500600FAEF27F0D8900D360E360950075C0A5095
:105016000858D8A011EF28F013EF28F018EF28F061
:105026000950075E0A50085A0D80D8900A32093294
:105036000B2E05EF28F00C50D8B424EF28F026EFFD
:1050460028F02AEF28F00D6C0E1ED8B00E2A0DC0DF
:1050560007F00EC008F0120020EE01F02050D9260D
:105066002150DA22000EDF6E20EE01F02250D92602
:105076002350DA22000EDF6E60EF28F020C0D9FF41
:1050860021C0DAFF0A0EDF2622C0D9FF23C0DAFFCD
:105096000A0EDF2620C00FF021C010F05DEC1DF0D7
:1050A60022C00FF023C010F05DEC1DF0D00E246E70
:1050B600CA0EE82EFED7242EFCD720C0D9FF21C069
:1050C600DAFF280EDF606AEF28F06CEF28F078EF41
:1050D60028F022C0D9FF23C0DAFF270EDF6476EF5F
:1050E60028F078EF28F041EF28F0090E256E1E0E05
:1050F600246EE40EE82EFED7242EFCD7252EFAD7F2
:1051060000D020C01AF021C01BF022C01CF023C022
:105116001DF0EFEC28F0120020EE01F02050D92609
:105126002150DA22000EDF6E20EE01F02250D92641
:105136002350DA22000EDF6EC0EF28F020C0D9FF20
:1051460021C0DAFF0A0EDF2622C0D9FF23C0DAFF0C
:105156000A0EDF2620C00FF021C010F05DEC1DF016
:1051660022C00FF023C010F05DEC1DF0D00E246EAF
:10517600CA0EE82EFED7242EFCD720C0D9FF21C0A8
:10518600DAFF320EDF60CAEF28F0CCEF28F0D8EF56
:1051960028F022C0D9FF23C0DAFF310EDF64D6EF34
:1051A60028F0D8EF28F0A1EF28F0290E256E960EEC
:1051B600246E7F0EE82EFED7242EFCD7252EFAD796
:1051C60000F020C01AF021C01BF022C01CF023C042
:1051D6001DF0EFEC28F0120028EF29F01AC0D9FFD5
:1051E6001BC0DAFFDF50D8B4FBEF28F0FDEF28F044
:1051F60003EF29F01AC0D9FF1BC0DAFF050EDF5EE8
:105206001CC0D9FF1DC0DAFFDF50D8B40DEF29F05E
:105216000FEF29F015EF29F01CC0D9FF1DC0DAFFEA
:10522600050EDF5E1AC00FF01BC010F05DEC1DF01E
:105236001CC00FF01DC010F05DEC1DF0D00E1E6EF0
:10524600CA0EE82EFED71E2EFCD71AC0D9FF1BC0E9
:10525600DAFFDF50D8A432EF29F034EF29F0F1EF6E
:1052660028F01CC0D9FF1DC0DAFFDF50D8A43EEFDE
:1052760029F040EF29F0F1EF28F0290E1F6E960E67
:105286001E6E7F0EE82EFED71E2EFCD71F2EFAD7D7
:1052960000F0120020EE01F01A50D9261B50DA2237
:1052A600010EDF6E20EE01F01C50D9261D50DA22C9
:1052B600010EDF6E7EEF29F01AC0D9FF1BC0DAFFA0
:1052C6000A0EDF261CC0D9FF1DC0DAFF0A0EDF2634
:1052D6001AC00FF01BC010F05DEC1DF01CC00FF0E3
:1052E6001DC010F05DEC1DF0D00E1E6ECA0EE82E2D
:1052F600FED71E2EFCD71AC0D9FF1BC0DAFF140E2C
:10530600DF6088EF29F08AEF29F096EF29F01CC0BC
:10531600D9FF1DC0DAFF130EDF6494EF29F096EF74
:1053260029F05FEF29F0120000019A6F050E0001C7
:10533600976F0F0E966FF10EE82EFED7962FFCD7BD
:10534600972FFAD792C071F093C072F094C073F0A1
:1053560095C074F023EC07F00001966F9651986F94
:10536600996B050E0001976F0F0E966FF10EE82EE2
:10537600FED7962FFCD7972FFAD700019A51966F32
:10538600976B9851961907E199519719D8A4CEEFC2
:1053960029F0D0EF29F0D3EF29F09A51D4EF29F074
:1053A600000E1200790E0001606F000E616F160E7E
:1053B600626F0E0E636F58C0D9FF59C0DAFFDECF99
:1053C60064F0DDCF65F020EE02F05850D926595032
:1053D600DA22DECF66F0DDCF67F020EE04F058501B
:1053E600D9265950DA22DECF68F0DDCF69F020EEFB
:1053F60006F05850D9265950DA22DECF6AF0DDCFB2
:105406006BF0CFEC2AF0790E026E000E036E0AECFA
:105416002DF012006E0EF66E5C0EF76E000EF86E34
:105426000900F5CFFAF16A0EF66E5C0EF76E000E05
:10543600F86E0900F5CFFEF00900F5CFFFF003EE98
:1054460000F06C0EEE6AE806FDE102EEC9F0200EF1
:10545600EE6AE806FDE101EEC8F0320EEE6AE806F5
:10546600FDE10001FD6BFC6BFB6BFA6BF96BF86BF6
:105476005F905F92000EF86E0E0EF76E000169EFF8
:105486001CF052C056F053C057F0000E0101F56FE4
:10549600000EF46F62EF2AF050C040F051C041F0A8
:1054A600560E426E000E436E54C044F055C045F091
:1054B600FCEC1FF040500101F4274150F52356C083
:1054C600F6FF57C0F7FF0800F5500009D8A46EEFA5
:1054D6002AF070EF2AF04FEF2AF0F4C150F0F5C130
:1054E60051F01200F8EC2AF00CC0D9FF0DC0DAFF1B
:1054F60005C0DEFF06C0DDFF48EC2BF020EE04F011
:105506000C50D9260D50DA2205C0DEFF06C0DDFF9D
:1055160020EC2BF020EE02F00C50D9260D50DA22AA
:1055260005C0DEFF06C0DDFF70EC2BF020EE06F0B6
:105536000C50D9260D50DA2205C0DEFF06C0DDFF6D
:10554600120026C01AF027C01BF028C01CF029C084
:105556001DF04DEC29F0290E2B6E960E2A6E7F0E4D
:10556600E82EFED72A2EFCD72B2EFAD700F026C01F
:1055760020F027C021F028C022F029C023F02FEC0C
:1055860028F026C01AF027C01BF028C01CF029C03E
:105596001DF0EFEC28F01200640E00016C6F000E97
:1055A6006D6F60C06EF061C06FF0000E726F000E1E
:1055B600716F000E786F000E776F6E0E506E000ED4
:1055C600516E62C052F063C053F06C0E546E000E02
:1055D600556E44EC2AF0000171516025D96E725166
:1055E6006121DA6E000EDF6E120030EC2EF0520EE4
:1055F6001AEC2EF0B60E1AEC2EF026EC2EF0530E08
:105606001AEC2EF0010EDDEC2BF0076E07500A6E39
:105616000B6A000EDDEC2BF0076E0750096E086A68
:105626000A5008100A6E0B5009100B6E2BEC2EF068
:105636000AC005F00BC006F0120030EC2EF0520E38
:105646001AEC2EF0B80E1AEC2EF026EC2EF0530EB5
:105656001AEC2EF0010EDDEC2BF0076E07500A6EE9
:105666000B6A000EDDEC2BF0076E0750096E086A18
:105676000A5008100A6E0B5009100B6E2BEC2EF018
:105686000AC005F00BC006F0120030EC2EF0520EE8
:105696001AEC2EF0BA0E1AEC2EF026EC2EF0530E63
:1056A6001AEC2EF0010EDDEC2BF0076E07500A6E99
:1056B6000B6A000EDDEC2BF0076E0750096E086AC8
:1056C6000A5008100A6E0B5009100B6E2BEC2EF0C8
:1056D6000AC005F00BC006F0120030EC2EF0520E98
:1056E6001AEC2EF0B40E1AEC2EF026EC2EF0530E19
:1056F6001AEC2EF0010EDDEC2BF0076E07500A6E49
:105706000B6A000EDDEC2BF0076E0750096E086A77
:105716000A5008100A6E0B5009100B6E2BEC2EF077
:105726000AC005F00BC006F01200000E151A000E96
:10573600161A000E171A800E181A11C001F012C0A0
:1057460002F013C003F014C004F015C005F016C033
:1057560006F017C007F018C008F046EC0DF001C0BF
:1057660011F002C012F003C013F004C014F01200CE
:10577600000E106E000E0F6ECCEF2BF00EC001F077
:10578600026A0CC003F00DC004F0A2EC26F00F4A2A
:10579600102A0F500A24D96E10500B20DA6EDF50F3
:1057A6000E6E0E50D8A4DAEF2BF0DCEF2BF0C1EF23
:1057B6002BF01200036E4EEC2DF00E01DA874EEC44
:1057C6002DF0D5CE04F04EEC2DF00350D8B4EEEF0C
:1057D6002BF0F2EF2BF0026A022AF3EF2BF0026AAB
:1057E600023A02460E01DA510218DF0B0218DA6F8E
:1057F600DA89045012008594839E879C85987D944F
:105806007B9E7F9C7D98BD508F0B3009BD6EE00E50
:10581600BE16BF50F00B0109BF6EC70EBC6EBD8E23
:105826000A0E0E01746F0B0E696F000EA36E000E4A
:10583600A06EA48EA18E120026C020F027C021F0F3
:1058460028C022F029C023F08FEC28F0190E2B6E09
:105856005A0E2A6EB20EE82EFED72A2EFCD72B2E13
:10586600FAD726C01AF027C01BF028C01CF029C0A2
:105876001DF0EFEC28F0120026C020F027C021F022
:1058860028C022F029C023F08FEC28F07A0E2B6E68
:10589600C10E2A6E820EE82EFED72A2EFCD72B2E9C
:1058A600FAD726C01AF027C01BF028C01CF029C062
:1058B6001DF0EFEC28F0120014BE6CEF2CF0145023
:1058C60006E11304D8B06AEF2CF06CEF2CF07AEFF7
:1058D6002CF013C015F014C016F0151E161E154A2E
:1058E600162A15C013F016C014F07EEF2CF013C064
:1058F60013F014C014F01200000E0001706F6C510A
:105906006A5D6D516B59D8B08BEF2CF08DEF2CF092
:105916009AEF2CF06C516E5D6D516F59D8A096EFD1
:105926002CF098EF2CF09AEF2CF0010E706F70515E
:10593600120066C041F067C042F068C043F069C01B
:1059460044F0BBEC11F041C05BF042C05CF043C0D8
:105956005DF044C05EF033EC25F05BC066F05CC0E1
:1059660067F05DC068F05EC069F012000150021079
:1059760003100410D8B4C2EF2CF0C4EF2CF0CCEF17
:105986002CF0000E011A000E021A000E031A800EE9
:10599600041A01C001F002C002F003C003F004C003
:1059A60004F0120001C003F002C004F0DDEF2CF099
:1059B600014A022A01C0D9FF02C0DAFFDF50D8A48B
:1059C600E7EF2CF0E9EF2CF0DBEF2CF00350015C55
:1059D600016E04500258026E120039EC2DF0010ED1
:1059E600036E000ED5EC2DF03F0E056E550EE82E1B
:1059F600FED7052EFCD700F0030E036E000ED5EC85
:105A06002DF0D50E036E010ED5EC2DF0120015EF1C
:105A16002DF002C0D9FF03C0DAFFDF5003EC2EF0F1
:105A2600024A032A02C0D9FF03C0DAFFDF50D8A416
:105A36001FEF2DF021EF2DF00CEF2DF012000001DD
:105A4600DD6F790E0001606F000E616F1E0E626FD2
:105A56000E0E636FDDC064F0656BCFEC2AF0790E35
:105A6600026E000E036E0AEC2DF012000E01D951E3
:105A7600F00B0809D96FD98B9F0ED66F848A848C58
:105A8600A79BA79D1D0E1D6F1E0E1C6F1C0E6F6F14
:105A96001B0E706F12000E01D8B554EF2DF056EFA5
:105AA6002DF04EEF2DF0DACE01F01F0E0116D8A420
:105AB6005FEF2DF061EF2DF04EEF2DF0120001504B
:105AC6000302F3CF05F0F4CF06F001500402F350C1
:105AD600062602500302F350062605C001F006C052
:105AE60002F012007F827E9E7998110E026E3C0EA5
:105AF600016ECB0EE82EFED7012EFCD7022EFAD76A
:105B060000F012007F927E9E7998110E026E3C0E76
:105B1600016ECB0EE82EFED7012EFCD7022EFAD749
:105B260000F012007F927E9E7988110E026E3C0E66
:105B3600016ECB0EE82EFED7012EFCD7022EFAD729
:105B460000F012007F927E8E7998110E026E3C0E46
:105B5600016ECB0EE82EFED7012EFCD7022EFAD709
:105B660000F012007F827E8E7988050E026E0F0E7F
:105B7600016EF10EE82EFED7012EFCD7022EFAD7C3
:105B860000F0120086840E01B4958686B49787923B
:105B9600869E81987F827E8E7988849E7C9E88965A
:105BA60080961200046E30EC2EF0520E1AEC2EF097
:105BB600045080091AEC2EF003501AEC2EF02BEC50
:105BC6002EF01200120E0E01626F110E156FE9977C
:105BD600E895330EE56F000EE66FE789E88BE78FF1
:105BE6001200D6501F0B4009D66ED688D650F00B41
:105BF6000809D66ED5880B0ED46EDB0ED36E120056
:105C0600016E0E0137A50AEF2EF00CEF2EF004EF11
:105C16002EF001C0E4FE1200889284988496869045
:105C2600889080927C987C967E9080901200026E7E
:105C36004EEC2DF002C0D5FE1200F28EF28AF28CE6
:105C46000E01298B12004EEC2DF00E01DA831200A4
:105C56004EEC2DF00E01DA8512004EEC2DF00E0101
:095C6600DA8112000A0F12000A93
:020000040020DA
:10000000FF0FFF0FFF0FFF0FFF0FFF0FFF0FFF0F80
:020000040030CA
:0C000000AAFFFFFF9FFFFFFFFFFFFFFFB5
:00000001FF
