:0400000014EF00F009
:100008005F820E0133AB0BEF00F00DEF00F012EF43
:1000180000F00001F44BF52B0E01339B5F921100A9
:040028006DEF27F061
:100E0000000000004B256409256409256409256458
:100E10000D0A004C6967687420626C7565004F723A
:100E2000616E67650059656C6C6F7700576869740F
:100E30006500426C61636B00477265656E004572C8
:100E4000726F7200426C75650050696E6B0052657E
:030E50006400003B
:100E5400000E0001806F000E7F6F000E7A6F000E8F
:100E6400796F000E8A6F000E896F000E826F000E7C
:100E7400816F000E7C6F000E7B6F000E886F000E7A
:100E8400876F000E8C6F000E8B6F000E866F000E46
:100E9400856F000E7E6F000E7D6F000E8D6F31EC3E
:100EA40029F071C00CF072C00DF0DFEC25F073C0B6
:100EB400D9FF74C0DAFFDECF75F0DDCF76F075C0F0
:100EC40001F076C002F0036A046A000EC4EC1BF061
:100ED40001C013F002C014F003C015F004C016F0F2
:100EE40071C0D9FF72C0DAFFDECF77F0DDCF78F0C2
:100EF40077C001F078C002F0036A046A000EC4EC03
:100F04001BF001C00FF002C010F003C011F004C0C8
:100F140012F0DAEC13F00FC028F010C029F011C061
:100F24002AF012C02BF0000E2C6E000E2D6EC80E8F
:100F34002E6E420E2F6EEEEC0FF028C08EF029C0FC
:100F44008FF02AC090F02BC091F08EC066F08FC055
:100F540067F090C068F091C069F032EC28F066C088
:100F640083F067C084F0000120EE02F07351D926AB
:100F74007451DA22DECF75F0DDCF76F075C001F062
:100F840076C002F0036A046A000EC4EC1BF001C0D0
:100F940013F002C014F003C015F004C016F00001F1
:100FA40020EE02F07151D9267251DA22DECF77F0A9
:100FB400DDCF78F077C001F078C002F0036A046AEC
:100FC400000EC4EC1BF001C00FF002C010F003C00F
:100FD40011F004C012F0DAEC13F00FC028F010C0C6
:100FE40029F011C02AF012C02BF0000E2C6E000E56
:100FF4002D6EC80E2E6E420E2F6EEEEC0FF028C032
:101004008EF029C08FF02AC090F02BC091F08EC0D2
:1010140066F08FC067F090C068F091C069F032EC60
:1010240028F066C07FF067C080F0000120EE04F075
:101034007351D9267451DA22DECF75F0DDCF76F004
:1010440075C001F076C002F0036A046A000EC4ECB5
:101054001BF001C013F002C014F003C015F004C06B
:1010640016F0000120EE04F07151D9267251DA22F3
:10107400DECF77F0DDCF78F077C001F078C002F0F2
:10108400036A046A000EC4EC1BF001C00FF002C036
:1010940010F003C011F004C012F0DAEC13F00FC02A
:1010A40028F010C029F011C02AF012C02BF0000E55
:1010B4002C6E000E2D6EC80E2E6E420E2F6EEEECB0
:1010C4000FF028C08EF029C08FF02AC090F02BC0FA
:1010D40091F08EC066F08FC067F090C068F091C048
:1010E40069F032EC28F0050E0001766F0F0E756F73
:1010F400F10EE82EFED7752FFCD7762FFAD741ECE8
:1011040029F071C00CF072C00DF0DFEC25F0000185
:1011140020EE06F07351D9267451DA22DECF75F031
:10112400DDCF76F075C001F076C002F0036A046A80
:10113400000EC4EC1BF001C013F002C014F003C095
:1011440015F004C016F071C0D9FF72C0DAFFDECF0B
:1011540077F0DDCF78F077C001F078C002F0036A51
:10116400046A000EC4EC1BF001C00FF002C010F0C2
:1011740003C011F004C012F0DAEC13F00FC028F031
:1011840010C029F011C02AF012C02BF0000E2C6EF2
:10119400000E2D6EC80E2E6E420E2F6EEEEC0FF06A
:1011A40028C08EF029C08FF02AC090F02BC091F097
:1011B4008EC066F08FC067F090C068F091C069F08F
:1011C40032EC28F066C089F067C08AF0000120EE96
:1011D40008F07351D9267451DA22DECF75F0DDCFD1
:1011E40076F075C001F076C002F0036A046A000E5E
:1011F400C4EC1BF001C013F002C014F003C015F0DE
:1012040004C016F0000120EE02F07151D92672518B
:10121400DA22DECF77F0DDCF78F077C001F078C046
:1012240002F0036A046A000EC4EC1BF001C00FF064
:1012340002C010F003C011F004C012F0DAEC13F095
:101244000FC028F010C029F011C02AF012C02BF0F2
:10125400000E2C6E000E2D6EC80E2E6E420E2F6EDA
:10126400EEEC0FF028C08EF029C08FF02AC090F069
:101274002BC091F08EC066F08FC067F090C068F00C
:1012840091C069F032EC28F066C081F067C082F04A
:10129400000120EE0AF07351D9267451DA22DECF10
:1012A40075F0DDCF76F075C001F076C002F0036A08
:1012B400046A000EC4EC1BF001C013F002C014F069
:1012C40003C015F004C016F0000120EE04F07151C3
:1012D400D9267251DA22DECF77F0DDCF78F077C0ED
:1012E40001F078C002F0036A046A000EC4EC1BF03B
:1012F40001C00FF002C010F003C011F004C012F0DE
:10130400DAEC13F00FC028F010C029F011C02AF055
:1013140012C02BF0000E2C6E000E2D6EC80E2E6E19
:10132400420E2F6EEEEC0FF028C08EF029C08FF025
:101334002AC090F02BC091F08EC066F08FC067F089
:1013440090C068F091C069F032EC28F0000120EE02
:1013540006F07351D9267451DA22DECF75F0DDCF51
:1013640076F075C001F076C002F0036A046A000EDC
:10137400C4EC1BF001C013F002C014F003C015F05C
:1013840004C016F071C0D9FF72C0DAFFDECF77F067
:10139400DDCF78F077C001F078C002F0036A046A08
:1013A400000EC4EC1BF001C00FF002C010F003C02B
:1013B40011F004C012F0DAEC13F00FC028F010C0E2
:1013C40029F011C02AF012C02BF0000E2C6E000E72
:1013D4002D6EC80E2E6E420E2F6EEEEC0FF028C04E
:1013E4008EF029C08FF02AC090F02BC091F08EC0EF
:1013F40066F08FC067F090C068F091C069F032EC7D
:1014040028F0050E0001766F0F0E756FF10EE82EB1
:10141400FED7752FFCD7762FFAD751EC29F071C07F
:101424000CF072C00DF0DFEC25F0000120EE0CF0A2
:101434007351D9267451DA22DECF75F0DDCF76F000
:1014440075C001F076C002F0036A046A000EC4ECB1
:101454001BF001C013F002C014F003C015F004C067
:1014640016F071C0D9FF72C0DAFFDECF77F0DDCF9E
:1014740078F077C001F078C002F0036A046A000EC5
:10148400C4EC1BF001C00FF002C010F003C011F057
:1014940004C012F0DAEC13F00FC028F010C029F0E9
:1014A40011C02AF012C02BF0000E2C6E000E2D6E0F
:1014B400C80E2E6E420E2F6EEEEC0FF028C08EF08A
:1014C40029C08FF02AC090F02BC091F08EC066F036
:1014D4008FC067F090C068F091C069F032EC28F0DA
:1014E40066C087F067C088F0000120EE0EF07351EB
:1014F400D9267451DA22DECF75F0DDCF76F075C0CF
:1015040001F076C002F0036A046A000EC4EC1BF01A
:1015140001C013F002C014F003C015F004C016F0AB
:10152400000120EE02F07151D9267251DA22DECF89
:1015340077F0DDCF78F077C001F078C002F0036A6D
:10154400046A000EC4EC1BF001C00FF002C010F0DE
:1015540003C011F004C012F0DAEC13F00FC028F04D
:1015640010C029F011C02AF012C02BF0000E2C6E0E
:10157400000E2D6EC80E2E6E420E2F6EEEEC0FF086
:1015840028C08EF029C08FF02AC090F02BC091F0B3
:101594008EC066F08FC067F090C068F091C069F0AB
:1015A40032EC28F066C08BF067C08CF0000120EEAE
:1015B40010F07351D9267451DA22DECF75F0DDCFE5
:1015C40076F075C001F076C002F0036A046A000E7A
:1015D400C4EC1BF001C013F002C014F003C015F0FA
:1015E40004C016F0000120EE04F07151D9267251A6
:1015F400DA22DECF77F0DDCF78F077C001F078C063
:1016040002F0036A046A000EC4EC1BF001C00FF080
:1016140002C010F003C011F004C012F0DAEC13F0B1
:101624000FC028F010C029F011C02AF012C02BF00E
:10163400000E2C6E000E2D6EC80E2E6E420E2F6EF6
:10164400EEEC0FF028C08EF029C08FF02AC090F085
:101654002BC091F08EC066F08FC067F090C068F028
:1016640091C069F032EC28F066C085F067C086F05E
:10167400050E0001766F0F0E756FF10EE82EFED782
:10168400752FFCD7762FFAD7000E00016B6F000E72
:101694006A6F87C06CF088C06DF0000E6F6F460EE5
:1016A4006E6F4FEC28F00009D8B45BEF0BF05DEFE0
:1016B4000BF0CEEF0BF085C001F086C002F0036A98
:1016C400046A000EC4EC1BF001C013F002C014F055
:1016D40003C015F004C016F000018B518125756F0D
:1016E4008C518221766F75C001F076C002F0036AD6
:1016F400046A000EC4EC1BF001C00FF002C010F02D
:1017040003C011F004C012F0DAEC13F00FC028F09B
:1017140010C029F011C02AF012C02BF0000E2C6E5C
:10172400000E2D6E480E2E6E430E2F6EEEEC0FF053
:1017340028C08EF029C08FF02AC090F02BC091F001
:10174400000E00016B6F000E6A6F8EC066F08FC0D2
:1017540067F090C068F091C069F032EC28F066C080
:101764006CF067C06DF0010E00016F6F9E0E6E6F1E
:101774004FEC28F00009D8B4C2EF0BF0C4EF0BF023
:10178400C9EF0BF0030E00018D6FAFEF0CF0020EEA
:1017940000018D6FAFEF0CF0000E00016B6F000EB7
:1017A4006A6F8BC06CF08CC06DF0000E6F6F4B0EC7
:1017B4006E6F4FEC28F00009D8B4E3EF0BF0E5EFBF
:1017C4000BF05FEF0CF07FC001F080C002F0036A01
:1017D400046A000EC4EC1BF001C013F002C014F044
:1017E40003C015F004C016F083C001F084C002F0F9
:1017F400036A046A000EC4EC1BF001C00FF002C0BF
:1018040010F003C011F004C012F0DAEC13F00FC0B2
:1018140028F010C029F011C02AF012C02BF0000EDD
:101824002C6E000E2D6EFA0E2E6E430E2F6EEEEC05
:101834000FF028C08EF029C08FF02AC090F02BC082
:1018440091F0000E00016B6F000E6A6F8EC066F09F
:101854008FC067F090C068F091C069F032EC28F056
:1018640066C06CF067C06DF0020E00016F6F9E0ED3
:101874006E6F4FEC28F00009D8B443EF0CF045EF3D
:101884000CF05AEF0CF000018A5109E15B0E895DFE
:10189400D8A04FEF0CF051EF0CF055EF0CF0060E02
:1018A4008D6FAFEF0CF0000E00018D6FAFEF0CF0F9
:1018B400010E00018D6FAFEF0CF0000E00016B6F95
:1018C400000E6A6F87C06CF088C06DF0000E6F6FF9
:1018D4005A0E6E6F4FEC28F00009D8B474EF0CF078
:1018E40076EF0CF086EF0CF000018C5109E15B0EF1
:1018F4008B5DD8A080EF0CF082EF0CF055EF0CF06C
:10190400070E8D6FAFEF0CF0000185518B5D865192
:101914008C59D8B090EF0CF092EF0CF096EF0CF0DD
:10192400050E8D6FAFEF0CF0000E6B6F000E6A6F3B
:1019340085C06CF086C06DF0000E6F6F5A0E6E6F2E
:101944004FEC28F00009D8B4AAEF0CF0ACEF0CF07F
:1019540055EF0CF0040E00018D6F000E6B6F5F0EDF
:101964006A6F87C06CF088C06DF0000E6F6F690EEF
:101974006E6F4FEC28F00009D8B4C3EF0CF0C5EF3C
:101984000CF0DFEF0CF0000E00016B6F5F0E6A6F5E
:101994008BC06CF08CC06DF0000E6F6F690E6E6FB3
:1019A4004FEC28F00009D8B4DAEF0CF0DCEF0CF0BF
:1019B400DFEF0CF0080E00018D6F000E00016B6F5D
:1019C400000E6A6F87C06CF088C06DF0000E6F6FF8
:1019D400190E6E6F4FEC28F00009D8B4F4EF0CF038
:1019E400F6EF0CF010EF0DF0000E00016B6F000E1F
:1019F4006A6F83C06CF084C06DF0000E6F6F5A0E76
:101A04006E6F4FEC28F00009D8B40BEF0DF00DEF1A
:101A14000DF010EF0DF0000E00018D6F020E0001AD
:101A24008D19D8B418EF0DF01AEF0DF023EF0DF067
:101A3400030E8D19D8A421EF0DF023EF0DF030EF34
:101A44000DF08A5107E1320E895DD8B02CEF0DF00C
:101A54002EEF0DF030EF0DF0000E8D6F8D05D8B424
:101A640036EF0DF038EF0DF041EF0DF0060E8D1945
:101A7400D8A43FEF0DF041EF0DF04EEF0DF08A5179
:101A840007E15A0E895DD8B04AEF0DF04CEF0DF026
:101A94004EEF0DF0000E8D6F040E8D19D8B455EF76
:101AA4000DF057EF0DF060EF0DF0050E8D19D8A471
:101AB4005EEF0DF060EF0DF06DEF0DF08A5107E170
:101AC400640E895DD8B069EF0DF06BEF0DF06DEF2A
:101AD4000DF0000E8D6F070E8D19D8B474EF0DF054
:101AE40076EF0DF07FEF0DF0080E8D19D8A47DEF81
:101AF4000DF07FEF0DF08CEF0DF08A5107E1500EE1
:101B0400895DD8B088EF0DF08AEF0DF08CEF0DF001
:101B1400000E8D6F8D5112000450800B0D6E045019
:101B240004240F6E03AE99EF0DF09BEF0DF09CEFC4
:101B34000DF00F800F50D8B4A2EF0DF0A4EF0DF00C
:101B4400B9EF0DF00F28D8A4AAEF0DF0ACEF0DF00B
:101B5400B4EF0DF0000E016E000E026E000E036E67
:101B6400000E046E038E000E046EC1EF0DF0000E25
:101B7400016E000E026E000E036E000E046E08501D
:101B8400800B0E6E0D500E18D8B4CBEF0DF0CDEFC8
:101B94000DF0CEEF0DF00D8C085008240E6E07AE3C
:101BA400D6EF0DF0D8EF0DF0D9EF0DF00E800E50FA
:101BB400D8B4DFEF0DF0E1EF0DF0F6EF0DF00E28E5
:101BC400D8A4E7EF0DF0E9EF0DF0F1EF0DF0000E02
:101BD400056E000E066E000E076E000E086E078E70
:101BE400000E086EFEEF0DF0000E056E000E066E80
:101BF400000E076E000E086E0F500E5CD8B005EF95
:101C04000EF007EF0EF02EEF0EF00DAC0CEF0EF011
:101C14000EEF0EF010EF0EF0800E0D1A0FC010F044
:101C24000EC00FF010C00EF001C010F005C001F09E
:101C340010C005F002C010F006C002F010C006F09B
:101C440003C010F007C003F010C007F004C010F088
:101C540008C004F010C008F0000E106E0F500EC043
:101C640009F00A6A095E000E0A5A0ABE43EF0EF032
:101C74000A5009E11A0E095CD8A043EF0EF045EFB3
:101C84000EF07CEF0EF00150021003100410D8A4E3
:101C94004EEF0EF051EF0EF0010E52EF0EF0000E6B
:101CA400106E000E016E000E026E000E036E000E2A
:101CB400046E0EC00FF085EF0EF010A064EF0EF06E
:101CC40066EF0EF06CEF0EF0D89010300109106E34
:101CD4006EEF0EF0D890103201A073EF0EF075EF96
:101CE4000EF076EF0EF0108E04340432033202321A
:101CF40001320F2A0E500F5CD8A083EF0EF085EF4F
:101D04000EF05FEF0EF00DBC8AEF0EF08CEF0EF0CC
:101D1400CCEF0EF00F50D8A492EF0EF094EF0EF02B
:101D24009EEF0EF0000E016E000E026E000E036EAA
:101D3400000E046EEDEF0FF005500126065002224E
:101D4400075003220850042204A0ABEF0EF0ADEFBD
:101D54000EF059EF0FF010A0B2EF0EF0B4EF0EF04A
:101D6400BAEF0EF0D89010300109106EBCEF0EF0EF
:101D7400D890103201A0C1EF0EF0C3EF0EF0C4EF03
:101D84000EF0108E043404320332023201320F2A70
:101D940059EF0FF00550015C0650025807500358E4
:101DA4000450800A096E0850800A0958D8B0DDEF43
:101DB4000EF0DFEF0EF00AEF0FF00150055C096E34
:101DC400025006580A6E035007580B6E0450085808
:101DD4000C6EFF0E0924016EFF0E0A20026EFF0E28
:101DE4000B20036EFF0E0C20046E800E0D1A106C77
:101DF4001050D8A400EF0FF002EF0FF012EF0FF025
:101E0400010E0126000E02220322042212EF0FF01B
:101E14000550015E0650025A0750035A0850045AEE
:101E24000150021003100410D8A41BEF0FF01DEF93
:101E34000FF052EF0FF01050D8A423EF0FF025EF5E
:101E44000FF052EF0FF0000E016E000E026E000E46
:101E5400036E000E046EEDEF0FF0D89001360236DB
:101E64000336043610AE39EF0FF03BEF0FF03CEFC2
:101E74000FF0018010A041EF0FF043EF0FF047EF98
:101E84000FF0D880103649EF0FF0D89010360F506D
:101E9400D8B44FEF0FF051EF0FF052EF0FF00F06E1
:101EA40003AE57EF0FF059EF0FF02FEF0FF0000EC6
:101EB4000E6E10AE60EF0FF062EF0FF07AEF0FF0DE
:101EC40010C009F07F0E0916D8B46BEF0FF06DEF58
:101ED4000FF071EF0FF0010E0E6E7AEF0FF001A00C
:101EE40076EF0FF078EF0FF07AEF0FF06DEF0FF061
:101EF4000E50D8B480EF0FF082EF0FF0ADEF0FF07B
:101F0400010E0126000E02220322042204A08DEFFA
:101F14000FF08FEF0FF0ADEF0FF001C009F002C02A
:101F24000AF003C00BF004C00CF00C340C320B327A
:101F34000A32093209C001F00AC002F00BC003F0F2
:101F44000CC004F00F28D8B4AAEF0FF0ACEF0FF0D8
:101F5400ADEF0FF00F2A0F28D8B4B3EF0FF0B5EFA1
:101F64000FF0BDEF0FF00F50D8A4BBEF0FF0BDEF93
:101F74000FF0CFEF0FF0000E016E000E026E000E98
:101F8400036E000E046E0F50D8A4CBEF0FF0CDEF0C
:101F94000FF0CFEF0FF0000E0D6E0FA0D4EF0FF087
:101FA400D6EF0FF0D9EF0FF0038EDAEF0FF0039EA8
:101FB400D8900F30046E0DAEE2EF0FF0E4EF0FF0A7
:101FC400E5EF0FF0048E01C001F002C002F003C07F
:101FD40003F004C004F012002B50800B346E2B501D
:101FE4002B243A6E2AAEF9EF0FF0FBEF0FF0FCEF63
:101FF4000FF03A803A50D8B402EF10F004EF10F02A
:1020040017EF10F03A28D8A40AEF10F00CEF10F0F4
:1020140014EF10F0000E286E000E296E000E2A6ECA
:10202400000E2B6E2A8E1FEF10F0000E286E000E8D
:10203400296E000E2A6E000E2B6E2F50800B341A60
:102044002F502F24396E2EAE2AEF10F02CEF10F003
:102054002DEF10F039803950D8B433EF10F035EF4C
:1020640010F048EF10F03928D8A43BEF10F03DEF02
:1020740010F045EF10F0000E2C6E000E2D6E000EC9
:102084002E6E000E2F6E2E8E50EF10F0000E2C6E62
:10209400000E2D6E000E2E6E000E2F6E3950D8B429
:1020A40056EF10F058EF10F060EF10F03A50D8A44B
:1020B4005EEF10F060EF10F06AEF10F0000E286E83
:1020C400000E296E000E2A6E000E2B6E02EF12F027
:1020D4002E502802F3CF3FF0F4CF40F03F50356E3E
:1020E400366A376A386A40503B6E3C6A3D6A3E6ADB
:1020F4002D502902F3CF3FF0F4CF40F03F50352666
:10210400000E36223722382240503B26000E3C2255
:102114003D223E222C502A02F3CF3FF0F4CF40F070
:102124003F503526000E36223722382240503B26B7
:10213400000E3C223D223E2237C038F036C037F034
:1021440035C036F0356A2C502902F3CF3FF0F4CF76
:1021540040F03F50352640503622000E3722000E04
:1021640038222D502802F3CF3FF0F4CF40F03F50F7
:10217400352640503622000E3722000E382237C052
:1021840038F036C037F035C036F0356A2C502802A6
:10219400F3CF3FF0F4CF40F03F5035264050362285
:1021A400000E3722000E38222E502902F3CF3FF0C2
:1021B400F4CF40F03F503B2640503C22000E3D22DD
:1021C400000E3E222D502A02F3CF3FF0F4CF40F010
:1021D4003F503B2640503C22000E3D22000E3E2242
:1021E4002E502A02F3CF3FF0F4CF40F03F50306E30
:1021F4004050316E326A336A32C033F031C032F04B
:1022040030C031F0306A30503B2631503C223250DD
:102214003D2233503E2235C030F036C031F037C055
:1022240032F038C033F0190E1DEF11F0D89033326C
:10223400323231323032E82E18EF11F030503B2672
:1022440031503C2232503D2233503E2237C038F0C8
:1022540036C037F035C036F0356A39503AC030F000
:10226400316A3026000E3122820E30243F6EFF0E7A
:102274003120406E53EF11F0D8903B363C363D365A
:102284003E3638AE48EF11F04AEF11F04BEF11F043
:102294003B80D89035363636373638363F06D8A0A8
:1022A40040063DAE58EF11F05AEF11F03EEF11F039
:1022B400000E396E38AE61EF11F063EF11F087EF65
:1022C40011F0FF0E3514306EFF0E3614316EFF0E12
:1022D4003714326E7F0E3814336E30503110321092
:1022E4003310D8B478EF11F07AEF11F07EEF11F0DB
:1022F400010E396E87EF11F03BA083EF11F085EFEB
:1023040011F087EF11F07AEF11F03950D8B48DEF56
:1023140011F08FEF11F0B3EF11F0010E3B26000E18
:102324003C223D223E223EA09AEF11F09CEF11F098
:10233400B3EF11F03BC030F03CC031F03DC032F09F
:102344003EC033F03334333232323132303230C083
:102354003BF031C03CF032C03DF033C03EF03F4A68
:10236400402A40BEBEEF11F0405008E13F28D8A0FB
:10237400BEEF11F0C0EF11F0CAEF11F0000E3B6E8A
:10238400000E3C6E800E3D6E7F0E3E6EF8EF11F037
:1023940040BED7EF11F0405006E13F04D8B0D5EF6E
:1023A40011F0D7EF11F0E3EF11F0000E3B6E000EC9
:1023B4003C6E000E3D6E000E3E6E000E346EF8EF65
:1023C40011F03FC03AF0FF0E3B16FF0E3C167F0E95
:1023D4003D16000E3E163AA0F2EF11F0F4EF11F0A4
:1023E400F5EF11F03D8ED8903A303E6E34503E12E7
:1023F4003BC028F03CC029F03DC02AF03EC02BF081
:1024040012008CC153F08DC154F08EC155F08FC1B0
:1024140056F041C053F042C054F043C055F044C09C
:1024240056F053C045F054C046F055C047F056C06E
:1024340048F0180E23EF12F0D89048324732463253
:102444004532E82E1EEF12F045504D6E4E6A4EBED8
:1024540035EF12F04E5009E1960E4D5CD8A035EFE1
:1024640012F037EF12F041EF12F041C041F042C0D8
:1024740042F043C043F044C044F0D9EF13F053C0DA
:1024840045F054C046F055C047F056C048F0200E01
:1024940051EF12F0D8904832473246324532E82E96
:1024A4004CEF12F04550461047104810D8B45DEF79
:1024B40012F05FEF12F071EF12F041C001F042C070
:1024C40002F043C003F044C004F06CEC28F001C0F7
:1024D40041F002C042F003C043F004C044F04EBED9
:1024E4007FEF12F04E5007E17E0E4D5CD8B07DEFC9
:1024F40012F07FEF12F09BEF12F053C028F054C09B
:1025040029F055C02AF056C02BF0000E2C6E000E98
:102514002D6E000E2E6E000E2F6EEEEC0FF028C006
:1025240041F029C042F02AC043F02BC044F0D9EF57
:1025340013F0000E056E000E066E000E076E4B0EB5
:10254400086E41C001F042C002F043C003F044C031
:1025540004F08EEC0DF001C04FF002C050F003C047
:1025640051F004C052F0000E056E000E066E000E0F
:10257400076ECB0E086E4FC001F050C002F051C080
:1025840003F052C004F08EEC0DF001C049F002C01B
:102594004AF003C04BF004C04CF049C011F04AC0EB
:1025A40012F04BC013F04CC014F041C015F042C0FF
:1025B40016F043C017F044C018F028EC27F011C0FF
:1025C40057F012C058F013C059F014C05AF0000E5E
:1025D400016E000E026E000E036E3F0E046E57C0B5
:1025E40005F058C006F059C007F05AC008F03FEC97
:1025F40021F0D8B000EF13F002EF13F038EF13F02E
:1026040041C005F042C006F043C007F044C008F0E2
:1026140057C001F058C002F059C003F05AC004F08A
:102624008EEC0DF001C04FF002C050F003C051F029
:1026340004C052F04FC001F050C002F051C003F08A
:1026440052C004F0000E056E000E066E800E076E7A
:10265400BF0E086E8EEC0DF001C057F002C058F0AA
:1026640003C059F004C05AF0A1EF13F0000E016E3C
:10267400000E026E000E036EBF0E046E57C005F00E
:1026840058C006F059C007F05AC008F03FEC21F0DA
:10269400D8A04FEF13F051EF13F087EF13F041C0C0
:1026A40005F042C006F043C007F044C008F057C02C
:1026B40001F058C002F059C003F05AC004F08EEC87
:1026C4000DF001C04FF002C050F003C051F004C03F
:1026D40052F04FC001F050C002F051C003F052C09C
:1026E40004F0000E056E000E066E800E076E3F0E9F
:1026F400086E8EEC0DF001C057F002C058F003C014
:1027040059F004C05AF0A1EF13F057C001F058C0BB
:1027140002F059C003F05AC004F041C005F042C0B1
:1027240006F043C007F044C008F08EEC0DF001C081
:1027340057F002C058F003C059F004C05AF053C017
:1027440045F054C046F055C047F056C048F0200E3E
:10275400B1EF13F0D8904832473246324532E82E72
:10276400ACEF13F04550461047104810D8B4BDEFF5
:1027740013F0BFEF13F0D1EF13F057C001F058C0BE
:1027840002F059C003F05AC004F06CEC28F001C008
:1027940057F002C058F003C059F004C05AF057C0B3
:1027A40041F058C042F059C043F05AC044F01200FE
:1027B4001250800B1F6E12501224266E11AEE5EFDC
:1027C40013F0E7EF13F0E8EF13F026802650D8B4A7
:1027D400EEEF13F0F0EF13F005EF14F02628D8A471
:1027E400F6EF13F0F8EF13F000EF14F0000E0F6E95
:1027F400000E106E000E116E000E126E118E000E81
:10280400126E0DEF14F0000E0F6E000E106E000E1F
:10281400116E000E126E1650800B1F1A16501624DD
:10282400276E15AE18EF14F01AEF14F01BEF14F026
:1028340027802750D8B421EF14F023EF14F038EF99
:1028440014F02728D8A429EF14F02BEF14F033EF59
:1028540014F0000E136E000E146E000E156E000EB2
:10286400166E158E000E166E40EF14F0000E136EE9
:10287400000E146E000E156E000E166E135014101A
:1028840015101610D8A449EF14F04BEF14F063EFB1
:1028940014F0000E0F6E000E106E000E116E000E7E
:1028A400126E800E11127F0E12121F5012120FC0E0
:1028B4000FF010C010F011C011F012C012F0A6EF0A
:1028C40015F02650D8A469EF14F06BEF14F075EFEF
:1028D40014F0000E0F6E000E106E000E116E000E3E
:1028E400126EA6EF15F0275026C017F0186A175E6F
:1028F400000E185A7F0E1724206E000E1820216E29
:102904000FC01BF010C01CF011C01DF012C01EF04F
:10291400000E0F6E000E106E000E116E000E126E81
:10292400000E226E000E236E000E246E000E256E25
:10293400000E276ED6EF14F02750D8B4A4EF14F08D
:10294400A6EF14F0BDEF14F0D8901B361C361D36DC
:102954001E36D8900F3610361136123625AEB5EF26
:1029640014F0B7EF14F0B8EF14F00F80D8902236BB
:1029740023362436253613501B5C14501C5815502E
:102984001D5816501E58D8A0CAEF14F0CCEF14F0FE
:10299400D5EF14F0258C13501B5E14501C5A15509F
:1029A4001D5A16501E5A272A190E2764DCEF14F0FC
:1029B400DEEF14F09EEF14F01B501C101D101E10BF
:1029C400D8B4E7EF14F0E9EF14F001EF15F022802A
:1029D40001EF15F0D8900F3610361136123625AEA9
:1029E400F6EF14F0F8EF14F0F9EF14F00F80D8902C
:1029F40022362336243625362006D8A0210611AEE9
:102A040006EF15F008EF15F0ECEF14F0000E276E4A
:102A140025AE0FEF15F011EF15F035EF15F0FF0EA1
:102A24002214176EFF0E2314186EFF0E2414196E51
:102A34007F0E25141A6E1750181019101A10D8B4D6
:102A440026EF15F028EF15F02CEF15F0010E276E88
:102A540035EF15F00FA031EF15F033EF15F035EF2A
:102A640015F028EF15F02750D8B43BEF15F03DEFE3
:102A740015F061EF15F0010E0F26000E1022112241
:102A8400122212A048EF15F04AEF15F061EF15F08D
:102A94000FC017F010C018F011C019F012C01AF0CE
:102AA4001A341A3219321832173217C00FF018C0FC
:102AB40010F019C011F01AC012F0204A212A21BEC8
:102AC4006CEF15F0215008E12028D8A06CEF15F028
:102AD4006EEF15F079EF15F0000E216E2068000EF0
:102AE4000F6E000E106E000E116E000E126E21BEDF
:102AF40086EF15F0215006E12004D8B084EF15F0DC
:102B040086EF15F094EF15F0000E216E000E206E86
:102B1400000E0F6E000E106E000E116E000E126E7F
:102B2400000E1F6E20C026F026A09BEF15F09DEF2F
:102B340015F0A0EF15F0118EA1EF15F0119ED890AD
:102B44002630126E57EF14F012003C6ED58EF4C08E
:102B5400F2F0F5C0F3F036C01AF037C01BF038C0FD
:102B64001CF039C01DF0FDEC24F03C50D8B4BDEF8E
:102B740015F0BFEF15F039EF17F0D59EF4C0F0F063
:102B8400F5C0F1F00001F051F25D3A6EF151F359E4
:102B94003B6EF651020D3C0EF324D96E010EF42067
:102BA400DA6E3AC0DEFF3BC0DDFFF62B36C01AF00A
:102BB40037C01BF038C01CF039C01DF09FEC24F066
:102BC4003C04D8A4E8EF15F0EAEF15F00EEF16F088
:102BD40036C026F037C027F038C028F039C029F0B5
:102BE400D0EC27F036C020F037C021F038C022F0F6
:102BF40039C023F05A0E246E8FEC1FF00001F651F9
:102C0400020D3C0EF324D96E010EF420DA6E010E8F
:102C1400DE6E000EDD6EF62B020E3C18D8A415EF06
:102C240016F017EF16F03BEF16F036C026F037C05B
:102C340027F038C028F039C029F0D0EC27F036C08E
:102C440020F037C021F038C022F039C023F05A0EEA
:102C5400246E25EC20F00001F651020D3C0EF32405
:102C6400D96E010EF420DA6E020EDE6E000EDD6EF9
:102C7400F62B030E3C18D8A442EF16F044EF16F0DE
:102C840068EF16F036C026F037C027F038C028F0B9
:102C940039C029F0D0EC27F036C020F037C021F03D
:102CA40038C022F039C023F0B40E246E25EC20F095
:102CB4000001F651020D3C0EF324D96E010EF420EE
:102CC400DA6E030EDE6E000EDD6EF62B040E3C187B
:102CD400D8A46FEF16F071EF16F095EF16F036C02A
:102CE40026F037C027F038C028F039C029F0F1ECBD
:102CF40027F036C020F037C021F038C022F039C0A8
:102D040023F05A0E246E8FEC1FF00001F651020DD1
:102D14003C0EF324D96E010EF420DA6E040EDE6E3E
:102D2400000EDD6EF62B050E3C18D8A49CEF16F0B1
:102D34009EEF16F0C2EF16F036C026F037C027F02B
:102D440038C028F039C029F0F1EC27F036C020F063
:102D540037C021F038C022F039C023F05A0E246E57
:102D640025EC20F00001F651020D3C0EF324D96E3F
:102D7400010EF420DA6E050EDE6E000EDD6EF62B0B
:102D8400060E3C18D8A4C9EF16F0CBEF16F0EFEFFF
:102D940016F036C026F037C027F038C028F039C006
:102DA40029F0D0EC27F036C020F037C021F038C02D
:102DB40022F039C023F0870E246E8FEC1FF000013F
:102DC400F651020D3C0EF324D96E010EF420DA6E96
:102DD400060EDE6E000EDD6EF62B070E3C18D8A430
:102DE400F6EF16F0F8EF16F01CEF17F036C026F0E9
:102DF40037C027F038C028F039C029F0D0EC27F0CC
:102E040036C020F037C021F038C022F039C023F09A
:102E1400870E246E25EC20F00001F651020D3C0EC5
:102E2400F324D96E010EF420DA6E070EDE6E000E66
:102E3400DD6EF62B080E3C18D8A423EF17F025EF0F
:102E440017F039EF17F036C026F037C027F038C036
:102E540028F039C029F0D0EC27F036C02EF037C066
:102E64002FF038C030F039C031F0ACEC18F012005B
:102E74001EC036F01FC037F020C038F021C039F032
:102E840022C03AF023C03BF024C03CF025C03DF002
:102E94003DBE4FEF17F052EF17F0010E53EF17F04E
:102EA400000E346E356A34503510D8B45CEF17F028
:102EB4005EEF17F06EEF17F03D1E3C1E3B1E3A1EF0
:102EC400391E381E371E366C000E3722382239223E
:102ED4003A223B223C223D220001EDBF74EF17F061
:102EE40076EF17F077EF17F0EE93EDBF84EF17F05E
:102EF400ED5106E1EC05D8B082EF17F084EF17F03E
:102F04008AEF17F0000E316E010E306E8EEF17F05F
:102F1400ECC030F0EDC031F0EAC032F0EBC033F079
:102F240034503510D8A499EF17F09BEF17F0A2EFA7
:102F340017F0EEA5A0EF17F0A2EF17F0A5EF17F02A
:102F44003206D8A03306000E3F6E1F0E3E6E000EF2
:102F54000101B06F2AEF18F03E06D8A03F06910E8B
:102F64003E24D96E010E3F20DA6E36C001F037C020
:102F740002F038C003F039C004F03AC005F03BC099
:102F840006F03CC007F03DC008F00A0E096E000EC2
:102F94000A6E000E0B6E000E0C6E000E0D6E000E0F
:102FA4000E6E000E0F6E000E106E3CEC1EF001C093
:102FB40026F002C027F003C028F004C029F005C0A1
:102FC4002AF006C02BF007C02CF008C02DF026C054
:102FD40013F028C014F012EC28F01350300FDF6EF9
:102FE4003006D8A031063206D8A0330636C001F028
:102FF40037C002F038C003F039C004F03AC005F01D
:103004003BC006F03CC007F03DC008F00A0E096E54
:10301400000E0A6E000E0B6E000E0C6E000E0D6E8E
:10302400000E0E6E000E0F6E000E106E78EC1DF08A
:1030340001C036F002C037F003C038F004C039F0E4
:1030440005C03AF006C03BF007C03CF008C03DF0B4
:103054003FBE35EF18F03F5008E13E04D8A035EFED
:1030640018F037EF18F068EF18F0365037103810B2
:1030740039103A103B103C103D10D8A444EF18F01E
:1030840046EF18F0AEEF17F031BE53EF18F03150A1
:1030940006E13004D8B051EF18F053EF18F0AEEF5A
:1030A40017F033BE5EEF18F0335008E13204D8A0B5
:1030B4005EEF18F060EF18F068EF18F00001EEB35F
:1030C40066EF18F068EF18F0AEEF17F034503510D3
:1030D400D8A46FEF18F071EF18F079EF18F0000131
:1030E400EEA577EF18F079EF18F097EF18F03E0699
:1030F400D8A03F0634503510D8A483EF18F085EFDC
:1031040018F08BEF18F0000E2F6E2B0E2E6E8FEF33
:1031140018F0000E2F6E2D0E2E6E910E3E24D96ED9
:10312400010E3F20DA6E2EC0DFFF1CC011F01DC05F
:1031340012F0910E3E24136E010E3F20146E32C025
:1031440015F033C016F07AEC23F011C01CF012C055
:103154001DF012002EC020F02FC021F030C022F04C
:1031640031C023F0B40E246E25EC20F0F5EF19F0F5
:103174002EC01AF02FC01BF030C01CF031C01DF05F
:10318400FDEC24F0000E356E000E346ED8EF18F00E
:10319400520E336E2B0E326E000EE82EFED7322EF8
:1031A400FCD7332EFAD700D0344A352A0001F65121
:1031B400020D3C0EF324D96E010EF420DA6EDE50BB
:1031C400345CDE503558D8A0EAEF18F0ECEF18F074
:1031D400CAEF18F02EC01AF02FC01BF030C01CF03C
:1031E40031C01DF09FEC24F00001F651D8A4FDEF8E
:1031F40018F0FFEF18F001EF19F0FEEF19F0F607E1
:10320400F651020D3C0EF324D96E010EF420DA6E51
:10321400DE04DE10D8A411EF19F013EF19F021EF3A
:1032240019F02EC020F02FC021F030C022F031C0A0
:1032340023F05A0E246E25EC20F00001F607F65117
:10324400020D3C0EF324D96E010EF420DA6E020E48
:10325400DE18DE10D8A431EF19F033EF19F041EF86
:1032640019F02EC020F02FC021F030C022F031C060
:1032740023F05A0E246E8FEC1FF00001F607F6516E
:10328400020D3C0EF324D96E010EF420DA6E030E07
:10329400DE18DE10D8A451EF19F053EF19F061EFE6
:1032A40019F02EC020F02FC021F030C022F031C020
:1032B40023F0B40E246E25EC20F00001F607F6513D
:1032C400020D3C0EF324D96E010EF420DA6E040EC6
:1032D400DE18DE10D8A471EF19F073EF19F08BEF3C
:1032E40019F02EC026F02FC027F030C028F031C0CE
:1032F40029F0F1EC27F02EC020F02FC021F030C0CF
:1033040022F031C023F05A0E246E25EC20F0000187
:10331400F607F651020D3C0EF324D96E010EF4208B
:10332400DA6E050EDE18DE10D8A49BEF19F09DEFBF
:1033340019F0B5EF19F02EC026F02FC027F030C0D9
:1033440028F031C029F0F1EC27F02EC020F02FC076
:1033540021F030C022F031C023F05A0E246E8FECDD
:103364001FF00001F607F651020D3C0EF324D96E4E
:10337400010EF420DA6E060EDE18DE10D8A4C5EFB6
:1033840019F0C7EF19F0D5EF19F02EC020F02FC0B7
:1033940021F030C022F031C023F0870E246E25ECDA
:1033A40020F00001F607F651020D3C0EF324D96E0D
:1033B400010EF420DA6E070EDE18DE10D8A4E5EF55
:1033C40019F0E7EF19F0F5EF19F02EC020F02FC037
:1033D40021F030C022F031C023F0790E246E8FEC3E
:1033E4001FF00001F6070001F651D8A4FCEF19F014
:1033F400FEEF19F0BAEF18F0120020EE01F00F50B2
:10340400D9261050DA22DF50D8B40BEF1AF00DEFA2
:103414001AF03EEF1AF00FC0D9FF10C0DAFFDF50E8
:10342400116E1150016E026A20EE07F00F50D9267A
:103434001050DA22DECF03F0DDCF04F0FEEC28F0EA
:1034440001C007F002C008F0000E0A6E640E096E97
:10345400DDEC23F020EE07F00F50D9261050DA22CD
:10346400DECF12F0DDCF13F00750125C186E085057
:103474001358196E61EF1AF00FC0D9FF10C0DAFFAC
:10348400DF50116E1150016E026A20EE07F00F50EA
:10349400D9261050DA22DECF03F0DDCF04F0FEECA3
:1034A40028F001C007F002C008F0000E0A6E640E96
:1034B400096EDDEC23F007C018F008C019F020EE07
:1034C40002F00F50D9261050DA22DECF11F0DDCFF2
:1034D40012F011C0D9FF12C0DAFF18C0DFFF20EECE
:1034E40001F00F50D9261050DA22DF50D8B47DEF06
:1034F4001AF07FEF1AF0B4EF1AF020EE04F00F5038
:10350400D9261050DA22DECF11F0DDCF12F011C02F
:10351400D9FF12C0DAFF10EE04F00F50E12610506C
:10352400E222E6CF13F0E5CF14F013C0E1FF14C09C
:10353400E2FFE750156E10EE06F00F50E126105032
:10354400E222E750166E010E176E162AACEF1AF03F
:10355400D8901736162EAAEF1AF017501510DF6EF2
:10356400E8EF1AF020EE04F00F50D9261050DA22BA
:10357400DECF11F0DDCF12F011C0D9FF12C0DAFF97
:1035840010EE04F00F50E1261050E222E6CF13F0C3
:10359400E5CF14F013C0E1FF14C0E2FFE750156E4D
:1035A40010EE06F00F50E1261050E222E750166E9E
:1035B400010E176E162AE1EF1AF0D8901736162E60
:1035C400DFEF1AF01750FF0A1514DF6E1200000E19
:1035D4000001DF6F000EDE6F000EE36F000EE26F7E
:1035E400000EE56F000EE46F000EDF6F000EDE6F5D
:1035F40011EC29F05AC00CF05BC00DF0DFEC25F0A3
:103604005AC058F05BC059F047EC25F0090E5D6EC6
:103614001E0E5C6EE40EE82EFED75C2EFCD75D2EEB
:10362400FAD700D00001DE4BDF2BDFBF23EF1BF006
:10363400DF5109E1050EDE5DD8A023EF1BF025EF75
:103644001BF0FAEF1AF0000E3DEC22F0000E000120
:10365400E16F000EE06F31EC29F05AC00CF05BC052
:103664000DF0DFEC25F05AC058F05BC059F047EC80
:1036740025F0090E5D6E1E0E5C6EE40EE82EFED77C
:103684005C2EFCD75D2EFAD700D00001E04BE12B75
:10369400E1BF56EF1BF0E15109E1050EE05DD8A052
:1036A40056EF1BF058EF1BF02DEF1BF0000E3DEC16
:1036B40022F0000E0001E36F000EE26F41EC29F0EE
:1036C4005AC00CF05BC00DF0DFEC25F05AC058F086
:1036D4005BC059F047EC25F0090E5D6E1E0E5C6E62
:1036E400E40EE82EFED75C2EFCD75D2EFAD700D070
:1036F4000001E24BE32BE3BF89EF1BF0E35109E147
:10370400050EE25DD8A089EF1BF08BEF1BF060EF94
:103714001BF0000E3DEC22F0000E0001E56F000EE0
:10372400E46F51EC29F05AC00CF05BC00DF0DFECF3
:1037340025F05AC058F05BC059F047EC25F0090E4B
:103744005D6E1E0E5C6EE40EE82EFED75C2EFCD77A
:103754005D2EFAD700D00001E44BE52BE5BFBCEFAA
:103764001BF0E55109E1050EE45DD8A0BCEF1BF0A8
:10377400BEEF1BF093EF1BF0010E3DEC22F011ECB9
:1037840029F01200096E0950D8B4CBEF1BF0CDEF2D
:103794001BF0EFEF1BF004BED4EF1BF0D2EF1BF0D5
:1037A400EFEF1BF001C005F002C006F003C007F004
:1037B40004C008F0051E061E071E081E052A000E7A
:1037C40006220722082205C00BF006C00CF007C031
:1037D4000DF008C00EF0F7EF1BF001C00BF002C0B3
:1037E4000CF003C00DF004C00EF0015002100310E1
:1037F4000410D8A400EF1CF002EF1CF00CEF1CF036
:10380400000E016E000E026E000E036E000E046EBA
:103814009DEF1CF0960E0A6E16EF1CF00A2AD89043
:103824000E320D320C320B32000E0B14056E000EEC
:103834000C14066E000E0D14076EFE0E0E14086EA8
:103844000550061007100810D8A42BEF1CF02DEF1C
:103854001CF010EF1CF03BEF1CF00A2A010E0B26A3
:10386400000E0C220D220E22D8900E320D320C3294
:103874000B32000E0B14056E000E0C14066E000EB7
:103884000D14076EFF0E0E14086E05500610071077
:103894000810D8A450EF1CF052EF1CF02FEF1CF0CE
:1038A4005AEF1CF00A06D8900B360C360D360E363D
:1038B4000DBE5FEF1CF061EF1CF069EF1CF0020E0F
:1038C4000A6067EF1CF069EF1CF054EF1CF00AB0BB
:1038D4006EEF1CF070EF1CF071EF1CF00D9ED89091
:1038E4000A320AC005F0066A076A086A05C008F0C9
:1038F400076A066A056A05500B1206500C12075037
:103904000D1208500E120950D8B48BEF1CF08DEF35
:103914001CF095EF1CF004BE94EF1CF092EF1CF029
:1039240095EF1CF00E8E0BC001F00CC002F00DC020
:1039340003F00EC004F0120042C0D9FF43C0DAFF06
:10394400DECFF6FFDDCFF7FF0800F550250AD8A437
:10395400AEEF1CF0B0EF1CF05CEF1DF042C0D9FFDD
:1039640043C0DAFFDE2A000EDD22000E0001EB6FF9
:10397400000EEA6FEAC0EEF0EBC0EFF0EC69ED691F
:1039840042C0D9FF43C0DAFFDECFF6FFDDCFF7FF39
:103994000800F550640AD8B4D2EF1CF0D4EF1CF040
:1039A400E6EF1CF042C0D9FF43C0DAFFDECFF6FFDA
:1039B400DDCFF7FF0800F550690AD8A4E4EF1CF046
:1039C400E6EF1CF026EF1DF042C0D9FF43C0DAFF3A
:1039D400DE2A000EDD2244C0D9FF45C0DAFFDFCF66
:1039E40046F0020EDE26DFCF47F0000EDD2246C091
:1039F400D9FF47C0DAFFDECF48F0DDCF49F0000E33
:103A040049BEFF0E4A6E4B6E4C6E4D6E4E6E4F6E3F
:103A140040C01CF041C01DF048C01EF049C01FF05A
:103A24004AC020F04BC021F04CC022F04DC023F01E
:103A34004EC024F04FC025F03AEC17F01CC040F003
:103A44001DC041F077EF1DF042C0D9FF43C0DAFF3B
:103A5400DECFF6FFDDCFF7FF0800F550250AD8A426
:103A640036EF1DF038EF1DF04FEF1DF042C0D9FFC7
:103A740043C0DAFFDE2A000EDD22000E026E250EA0
:103A8400016E40C003F041C004F015EC23F0000EB9
:103A9400416E010E406E77EF1DF042C0D9FF43C066
:103AA400DAFFDE2A000EDD22000E416E000E406EAB
:103AB40077EF1DF042C0D9FF43C0DAFFDECFF6FF37
:103AC400DDCFF7FF0800F550016E026A40C003F035
:103AD40041C004F015EC23F042C0D9FF43C0DAFF23
:103AE400DE2A000EDD2249EF1DF01200000E126ED8
:103AF40010BE81EF1DF07FEF1DF093EF1DF0101E3F
:103B04000F1E0E1E0D1E0C1E0B1E0A1E096C000E2F
:103B14000A220B220C220D220E220F221022010E49
:103B2400126E08BE9AEF1DF098EF1DF0ACEF1DF079
:103B3400081E071E061E051E041E031E021E016C1F
:103B4400000E022203220422052206220722082252
:103B5400010E121A20EE13F0070EDE6AE806FDE2EB
:103B640009500A100B100C100D100E100F1010102D
:103B7400D8B4BFEF1DF0C1EF1DF013EF1EF0010E1E
:103B8400116ECFEF1DF0D89009360A360B360C367D
:103B94000D360E360F361036112A10AED4EF1DF046
:103BA400D6EF1DF0C5EF1DF0D89013361436153638
:103BB40016361736183619361A360950015C0A506B
:103BC40002580B5003580C5004580D5005580E5011
:103BD40006580F50075810500858D8A0F4EF1DF09D
:103BE400F6EF1DF007EF1EF00950015E0A50025A6D
:103BF4000B50035A0C50045A0D50055A0E50065AD5
:103C04000F50075A1050085A1380D89010320F32B0
:103C14000E320D320C320B320A320932112ED6EF2B
:103C24001DF01250D8B419EF1EF01BEF1EF02BEF4D
:103C34001EF01A1E191E181E171E161E151E141EFF
:103C4400136C000E14221522162217221822192290
:103C54001A2213C001F014C002F015C003F016C0FC
:103C640004F017C005F018C006F019C007F01AC018
:103C740008F01200000E126E08BE45EF1EF043EF6E
:103C84001EF057EF1EF0081E071E061E051E041E1A
:103C9400031E021E016C000E0222032204220522CE
:103CA400062207220822010E126E10BE5EEF1EF0DD
:103CB4005CEF1EF06EEF1EF0101E0F1E0E1E0D1E8A
:103CC4000C1E0B1E0A1E096C000E0A220B220C226B
:103CD4000D220E220F22102209500A100B100C1074
:103CE4000D100E100F101010D8B47BEF1EF07DEFE6
:103CF4001EF0C5EF1EF0010E116E8BEF1EF0D89072
:103D040009360A360B360C360D360E360F3610369B
:103D1400112A10AE90EF1EF092EF1EF081EF1EF00C
:103D24000950015C0A5002580B5003580C500458B7
:103D34000D5005580E5006580F500758105008588B
:103D4400D8A0A7EF1EF0A9EF1EF0B9EF1EF009509E
:103D5400015E0A50025A0B50035A0C50045A0D507B
:103D6400055A0E50065A0F50075A1050085AD89048
:103D740010320F320E320D320C320B320A3209324B
:103D8400112E92EF1EF01250D8B4CBEF1EF0CDEFEF
:103D94001EF0DDEF1EF0081E071E061E051E041E83
:103DA400031E021E016C000E0222032204220522BD
:103DB40006220722082201C001F002C002F003C05B
:103DC40003F004C004F005C005F006C006F007C007
:103DD40007F008C008F0120031EC29F063EC26F07B
:103DE4000CC0D9FF0DC0DAFF05C0DEFF06C0DDFF41
:103DF4008BEC26F020EE02F00C50D9260D50DA227E
:103E040005C0DEFF06C0DDFFDBEC26F020EE04F08B
:103E14000C50D9260D50DA2205C0DEFF06C0DDFFA6
:103E2400090E0F6E1E0E0E6EE40EE82EFED70E2E39
:103E3400FCD70F2EFAD700D041EC29F063EC26F022
:103E440020EE06F00C50D9260D50DA2205C0DEFF14
:103E540006C0DDFF8BEC26F020EE08F00C50D926CE
:103E64000D50DA2205C0DEFF06C0DDFFDBEC26F0D4
:103E740020EE0AF00C50D9260D50DA2205C0DEFFE0
:103E840006C0DDFFB3EC26F020EE12F00C50D9266C
:103E94000D50DA2205C0DEFF06C0DDFF090E0F6EED
:103EA4001E0E0E6EE40EE82EFED70E2EFCD70F2E3D
:103EB400FAD700D051EC29F063EC26F020EE0CF098
:103EC4000C50D9260D50DA2205C0DEFF06C0DDFFF6
:103ED4008BEC26F020EE0EF00C50D9260D50DA2291
:103EE40005C0DEFF06C0DDFFDBEC26F020EE10F09F
:103EF4000C50D9260D50DA2205C0DEFF06C0DDFFC6
:103F0400090E0F6E1E0E0E6EE40EE82EFED70E2E58
:103F1400FCD70F2EFAD700D0120020EE01F020506B
:103F2400D9262150DA22010EDF6E20EE01F0225054
:103F3400D9262350DA22010EDF6EC0EF1FF020C015
:103F4400D9FF21C0DAFF050EDF2622C0D9FF23C026
:103F5400DAFF000EDF6E20C00FF021C010F0FFEC7E
:103F640019F022C00FF023C010F0FFEC19F0D00EAE
:103F7400256ECA0EE82EFED7252EFCD720C0D9FF09
:103F840021C0DAFF180EDF64CAEF1FF0CCEF1FF078
:103F9400A1EF1FF024500001FC03F3CF2CF0F4CF69
:103FA4002DF0140E2C24266E000E2D20276EB40E38
:103FB4002418D8A4E0EF1FF0E2EF1FF0FFEF1FF08A
:103FC400000E296E000E286EF2EF1FF0150E256EFE
:103FD400C60EE82EFED7252EFCD700D0284A292A63
:103FE4002650285C27502958D8A0FBEF1FF0FDEF7E
:103FF4001FF0E8EF1FF01AEF20F0000E2B6E000EFA
:104004002A6E0FEF20F0150E256EC60EE82EFED791
:10401400252EFCD700D02A4A2B2A2C502A5C2D505E
:104024002B58D8A018EF20F01AEF20F005EF20F05D
:1040340020C01AF021C01BF022C01CF023C01DF0C8
:104044009FEC24F0120020EE01F02050D9262150DC
:10405400DA22010EDF6E20EE01F02250D926235021
:10406400DA22010EDF6E56EF20F022C0D9FF23C002
:10407400DAFF050EDF2620C0D9FF21C0DAFF000ECB
:10408400DF6E20C00FF021C010F0FFEC19F022C049
:104094000FF023C010F0FFEC19F0D00E256ECA0EFD
:1040A400E82EFED7252EFCD722C0D9FF23C0DAFF85
:1040B400180EDF6460EF20F062EF20F037EF20F09D
:1040C40024500001FC03F3CF2CF0F4CF2DF0140E98
:1040D4002C24266E000E2D20276EB40E2418D8A48E
:1040E40076EF20F078EF20F095EF20F0000E296EA7
:1040F400000E286E88EF20F0150E256EC60EE82EF1
:10410400FED7252EFCD700D0284A292A2650285C21
:1041140027502958D8A091EF20F093EF20F07EEF9C
:1041240020F0B0EF20F0000E2B6E000E2A6EA5EFEB
:1041340020F0150E256EC60EE82EFED7252EFCD7D0
:1041440000D02A4A2B2A2C502A5C2D502B58D8A058
:10415400AEEF20F0B0EF20F09BEF20F020C01AF07B
:1041640021C01BF022C01CF023C01DF09FEC24F0E2
:1041740012005D345E340001656F6551D8A4C5EF4B
:1041840020F0C7EF20F0D1EF20F0000E5B6E000EA0
:104194005C6E000E5D6E000E5E6E3EEF21F05BC045
:1041A40060F05CC061F05DC062F05EC063F0200E40
:1041B400E1EF20F0D8906333623361336033E82E4B
:1041C400DCEF20F06051646F5D8EFF0E5B16FF0E16
:1041D4005C16FF0E5D16000E5E16960E655F65BFDB
:1041E400F8EF20F0F6EF20F00EEF21F06551800A91
:1041F400970FD8B000EF21F002EF21F004EF21F087
:10420400C7EF20F0D8905E325D325C325B32653F9E
:1042140004EF21F026EF21F01F0E656514EF21F065
:1042240016EF21F01EEF21F0C7EF20F0D8905B3697
:104234005C365D365E3665076551D8A424EF21F0FF
:1042440026EF21F018EF21F06451D8B42CEF21F0BF
:104254002EEF21F036EF21F05E1E5D1E5C1E5B6CBE
:10426400000E5C225D225E225BC05BF05CC05CF0F1
:104274005DC05DF05EC05EF01200000E0114096EB8
:10428400000E02140A6E800E03140B6E7F0E0414CB
:104294000C6E09500A100B100C10D8A454EF21F026
:1042A40056EF21F05EEF21F0000E016E000E026E5B
:1042B400000E036E000E046E000E0514096E000E4F
:1042C40006140A6E800E07140B6E7F0E08140C6E13
:1042D40009500A100B100C10D8A473EF21F075EFDD
:1042E40021F07DEF21F0000E056E000E066E000E2B
:1042F400076E000E086E04AE82EF21F084EF21F009
:104304008DEF21F0016C021ED8B0022A031ED8B032
:10431400032A800E045608AE92EF21F094EF21F0A8
:104324009DEF21F0056C061ED8B0062A071ED8B0F2
:10433400072A800E0856000E011A000E021A000EFB
:10434400031A800E041A000E051A000E061A000E37
:10435400071A800E081A0550015C065002580750CF
:10436400035808500458D8B0BAEF21F0BCEF21F03C
:10437400BFEF21F0D890C0EF21F0D88012009FEC5D
:1043840029F070EC29F0D5EC28F0A3EC28F0000E0D
:10439400026EC70E016E8EEC27F061EC29F0CD0E93
:1043A400016E010E026ED70E036E010E046EACECAC
:1043B40022F07FEC29F0F40E0001E76F820EE66F25
:1043C400050EE82EFED7E62FFCD7E72FFAD7B10E5D
:1043D4000C6E010E0D6EEEEC1EF0F40E0001E76F94
:1043E400820EE66F050EE82EFED7E62FFCD7E72FE8
:1043F400FAD714EF22F0CD0E206E010E216ED70EE7
:10440400226E010E236E0EEC26F0C50E0001716FB4
:10441400010E726FB10E736F010E746F2AEC07F008
:104424000101906F01019051D8B41BEF22F01DEFF0
:1044340022F0FDEF21F0C50E0001926F010E936F83
:10444400B10E946F010E956F01019051B0EC25F0FF
:10445400CD0E366E010E376ED70E386E010E396EE4
:1044640001019051A7EC15F0000E0101906F14EFBB
:1044740022F014EF00F00001DD6F0001DD51D8A43B
:1044840046EF22F048EF22F048EF22F0DD05D8A4F1
:104494004EEF22F050EF22F050EF22F0020EDD1921
:1044A400D8A457EF22F059EF22F059EF22F0030E6F
:1044B400DD19D8A460EF22F062EF22F062EF22F05F
:1044C400040EDD19D8A469EF22F06BEF22F06BEF34
:1044D40022F0050EDD19D8A472EF22F074EF22F059
:1044E40074EF22F0060EDD19D8A47BEF22F07DEFE5
:1044F40022F07DEF22F0070EDD19D8A484EF22F01C
:1045040086EF22F086EF22F0080EDD19D8A48DEF95
:1045140022F08FEF22F08FEF22F0090EDD19D8A4DC
:1045240096EF22F098EF22F098EF22F0790E606F68
:10453400000E616F0D0E626F0E0E636FDDC064F0CE
:10454400656B3AEC26F0790E026E000E036EBDEC3C
:1045540028F0120001C0D9FF02C0DAFF000EDF6E9E
:1045640020EE01F00150D9260250DA22010EDF6E4E
:1045740020EE02F00150D9260250DA22A30EDE6E9C
:104584000F0EDD6E20EE04F00150D9260250DA221F
:104594007D0EDE6E0F0EDD6E20EE06F00150D92684
:1045A4000250DA22040EDF6E20EE07F00150D92605
:1045B4000250DA22C70EDE6E000EDD6E03C0D9FF94
:1045C40004C0DAFF000EDF6E20EE01F00350D9269E
:1045D4000450DA22010EDF6E20EE02F00350D926D9
:1045E4000450DA22A00EDE6E0F0EDD6E20EE04F013
:1045F4000350D9260450DA227F0EDE6E0F0EDD6ED4
:1046040020EE06F00350D9260450DA22060EDF6E9F
:1046140020EE07F00350D9260450DA22C70EDE6ECE
:10462400000EDD6E120003500410D8B41CEF23F00A
:104634001EEF23F027EF23F003500410D8A425EF36
:1046440023F027EF23F02CEF23F00150B5EC29F0F1
:1046540079EF23F020EE09F00350D9260450DA2232
:10466400DE50DE10D8B439EF23F03BEF23F056EFE1
:1046740023F020EE09F00350D9260450DA2210EE7C
:1046840003F00350E1260450E222DE50E65CE650DB
:10469400800A096EDE50800A0958D8B054EF23F01E
:1046A40056EF23F079EF23F020EE03F00350D926E0
:1046B4000450DA22DECF05F0DDCF06F003C0D9FFC7
:1046C40004C0DAFFDECF07F0DDCF08F00550072481
:1046D400D96E06500820DA6E01C0DFFF20EE03F029
:1046E4000350D9260450DA22DE2A000EDD221200FD
:1046F4000001EEA180EF23F082EF23F08CEF23F092
:1047040013C00AF014C00BF011C00CF012C00DF06D
:104714004BEC27F016BE91EF23F093EF23F099EFC3
:1047240023F015C01AF016C01BF09DEF23F0000E05
:104734001B6E000E1A6E000E196E000E186EAFEF8F
:1047440023F0000E026E200E016E11C003F012C0A1
:1047540004F015EC23F0184A192A1A50185C195061
:10476400800A176E1B50800A1758D8A0BCEF23F09C
:10477400BEEF23F0A3EF23F00001EEB1C4EF23F06A
:10478400C6EF23F0D0EF23F013C00AF014C00BF0EF
:1047940011C00CF012C00DF04BEC27F013C001F067
:1047A40014C002F088EC28F01A500124116E1B503A
:1047B4000220126E1200000E0C6E0ABEE6EF23F009
:1047C400E4EF23F0ECEF23F0096C0A1ED8B00A2AB8
:1047D400010E0C6E08BEF3EF23F0F1EF23F0F9EFB6
:1047E40023F0076C081ED8B0082A010E0C1A000E1C
:1047F4000E6E000E0D6E09500A10D8B404EF24F0AA
:1048040006EF24F02EEF24F0010E0B6E0EEF24F0D1
:10481400D89009360A360B2A0AAE13EF24F015EFA6
:1048240024F00AEF24F0D8900D360E360950075CB8
:104834000A500858D8A021EF24F023EF24F028EFE1
:1048440024F00950075E0A50085A0D80D8900A32A5
:1048540009320B2E15EF24F00C50D8B434EF24F0A9
:1048640036EF24F03AEF24F00D6C0E1ED8B00E2A69
:104874000DC007F00EC008F0120020EE01F0205029
:10488400D9262150DA22000EDF6E20EE01F02250EC
:10489400D9262350DA22000EDF6E70EF24F020C0F8
:1048A400D9FF21C0DAFF0A0EDF2622C0D9FF23C0B8
:1048B400DAFF0A0EDF2620C00FF021C010F0FFEC53
:1048C40019F022C00FF023C010F0FFEC19F0D00E45
:1048D400246ECA0EE82EFED7242EFCD720C0D9FFA2
:1048E40021C0DAFF320EDF607AEF24F07CEF24F08F
:1048F40088EF24F022C0D9FF23C0DAFF310EDF6431
:1049040086EF24F088EF24F051EF24F0290E256E71
:10491400960E246E7F0EE82EFED7242EFCD7252E6D
:10492400FAD700F020C01AF021C01BF022C01CF0FE
:1049340023C01DF09FEC24F01200D8EF24F01AC01D
:10494400D9FF1BC0DAFFDF50D8B4ABEF24F0ADEFD2
:1049540024F0B3EF24F01AC0D9FF1BC0DAFF050E10
:10496400DF5E1CC0D9FF1DC0DAFFDF50D8B4BDEF35
:1049740024F0BFEF24F0C5EF24F01CC0D9FF1DC004
:10498400DAFF050EDF5E1AC00FF01BC010F0FFEC5B
:1049940019F01CC00FF01DC010F0FFEC19F0D00E80
:1049A4001E6ECA0EE82EFED71E2EFCD71AC0D9FFE3
:1049B4001BC0DAFFDF50D8A4E2EF24F0E4EF24F0C8
:1049C400A1EF24F01CC0D9FF1DC0DAFFDF50D8A42A
:1049D400EEEF24F0F0EF24F0A1EF24F0090E1F6EA7
:1049E4001E0E1E6EE40EE82EFED71E2EFCD71F2EC2
:1049F400FAD700D0120020EE01F01A50D9261B502D
:104A0400DA22010EDF6E20EE01F01C50D9261D5073
:104A1400DA22010EDF6E2EEF25F01AC0D9FF1BC07B
:104A2400DAFF0A0EDF261CC0D9FF1DC0DAFF0A0E0A
:104A3400DF261AC00FF01BC010F0FFEC19F01CC0E9
:104A44000FF01DC010F0FFEC19F0D00E1E6ECA0E50
:104A5400E82EFED71E2EFCD71AC0D9FF1BC0DAFFE2
:104A6400140EDF6038EF25F03AEF25F046EF25F01D
:104A74001CC0D9FF1DC0DAFF130EDF6444EF25F01C
:104A840046EF25F00FEF25F01200790E0001606F5C
:104A9400000E616F050E626F0E0E636F58C0D9FF72
:104AA40059C0DAFFDECF64F0DDCF65F020EE02F00E
:104AB4005850D9265950DA22DECF66F0DDCF67F0A0
:104AC40020EE04F05850D9265950DA22DECF68F08F
:104AD400DDCF69F020EE06F05850D9265950DA227D
:104AE400DECF6AF0DDCF6BF03AEC26F0790E026E81
:104AF400000E036EBDEC28F0120052C056F053C0F5
:104B040057F0000E0001E96F000EE86F9DEF25F0ED
:104B140050C040F051C041F0560E426E000E436E3C
:104B240054C044F055C045F09EEC1CF040500001C8
:104B3400E8274150E92356C0F6FF57C0F7FF0800A5
:104B4400F5500009D8A4A9EF25F0ABEF25F08AEFC2
:104B540025F0E8C050F0E9C051F0120000019A6F4E
:104B6400050E0001976F0F0E966FF10EE82EFED71B
:104B7400962FFCD7972FFAD792C071F093C072F09A
:104B840094C073F095C074F02AEC07F00001966F9E
:104B94009651986F996B9A51966F976B9851961995
:104BA40007E199519719D8A4DAEF25F0DCEF25F045
:104BB400DEEF25F0DEEF25F0120063EC26F00CC0EA
:104BC400D9FF0DC0DAFF05C0DEFF06C0DDFFDBEC58
:104BD40026F020EE04F00C50D9260D50DA2205C040
:104BE400DEFF06C0DDFF8BEC26F020EE02F00C5059
:104BF400D9260D50DA2205C0DEFF06C0DDFFB3EC76
:104C040026F020EE06F00C50D9260D50DA2205C00D
:104C1400DEFF06C0DDFF120020C01AF021C01BF029
:104C240022C01CF023C01DF0FDEC24F0190E256EEB
:104C34005A0E246EB20EE82EFED7242EFCD7252E53
:104C4400FAD720C01AF021C01BF022C01CF023C0E8
:104C54001DF09FEC24F0290E256E960E246E7F0E17
:104C6400E82EFED7242EFCD7252EFAD700F012000A
:104C7400640E00016C6F000E6D6F60C06EF061C059
:104C84006FF0000E726F000E716F000E786F000EE1
:104C9400776F6E0E506E000E516E62C052F063C09C
:104CA40053F06C0E546E000E556E7FEC25F000012F
:104CB40071516025D96E72516121DA6E000EDF6E7A
:104CC4001200AAEC29F0520E99EC29F0B60E99ECD8
:104CD40029F0AFEC29F0530E99EC29F0010EAFEC5A
:104CE40027F0076E07500A6E0B6A000EAFEC27F030
:104CF400076E0750096E086A0A5008100A6E0B50B6
:104D040009100B6EA5EC29F00AC005F00BC006F0E3
:104D14001200AAEC29F0520E99EC29F0B80E99EC85
:104D240029F0AFEC29F0530E99EC29F0010EAFEC09
:104D340027F0076E07500A6E0B6A000EAFEC27F0DF
:104D4400076E0750096E086A0A5008100A6E0B5065
:104D540009100B6EA5EC29F00AC005F00BC006F093
:104D64001200AAEC29F0520E99EC29F0B40E99EC39
:104D740029F0AFEC29F0530E99EC29F0010EAFECB9
:104D840027F0076E07500A6E0B6A000EAFEC27F08F
:104D9400076E0750096E086A0A5008100A6E0B5015
:104DA40009100B6EA5EC29F00AC005F00BC006F043
:104DB4001200AAEC29F0520E99EC29F0BA0E99ECE3
:104DC40029F0AFEC29F0530E99EC29F0010EAFEC69
:104DD40027F0076E07500A6E0B6A000EAFEC27F03F
:104DE400076E0750096E086A0A5008100A6E0B50C5
:104DF40009100B6EA5EC29F00AC005F00BC006F0F3
:104E04001200000E116E000E106E000E136E000ED6
:104E1400126E000E156E000E146E000E186E11EC5C
:104E240029F0B3EC26F005C016F006C017F0DC0E2E
:104E3400165C050E1758D8A022EF27F024EF27F0B0
:104E440026EF27F0010E186E18501200000E151AE6
:104E5400000E161A000E171A800E181A11C001F04F
:104E640012C002F013C003F014C004F015C005F022
:104E740016C006F017C007F018C008F08EEC0DF04D
:104E840001C011F002C012F003C013F004C014F00A
:104E94001200000E106E000E0F6E5CEF27F00EC0B5
:104EA40001F0026A0CC003F00DC004F015EC23F00D
:104EB4000F4A102A0F500A24D96E10500B20DA6EB4
:104EC400DF500E6E0E50D8A46AEF27F06CEF27F077
:104ED40051EF27F01200680EF66E530EF76E000EB7
:104EE400F86E0900F5CFFBF00900F5CFFCF001EEF8
:104EF40000F0B10EEE6AE806FDE100EEE8F0130EF4
:104F0400EE6AE806FDE15F905F92000EF86E0E0E09
:104F1400F76E0001C1EF21F08594839E879C8598EC
:104F24007D947B9E7F9C7D98BD508F0B3009BD6E18
:104F3400E00EBE16BF50F00B0109BF6EC70EBC6E6B
:104F4400BD8E0A0E0E01746F0B0E696F000EA36EF8
:104F5400000EA06EA48EA18E1200036EEAEC28F05F
:104F64000E01DA87EAEC28F0D5CE04F0EAEC28F05A
:104F74000350D8B4C0EF27F0C4EF27F0026A022A26
:104F8400C5EF27F0026A023A02460E01DA5102180E
:104F9400DF0B0218DA6FDA890450120026C020F001
:104FA40027C021F028C022F029C023F03FEC24F0D0
:104FB400290E2B6E960E2A6E7F0EE82EFED72A2E11
:104FC400FCD72B2EFAD700F026C01AF027C01BF00E
:104FD40028C01CF029C01DF09FEC24F0120026C04C
:104FE40020F027C021F028C022F029C023F03FEC94
:104FF40024F0520E2B6E2B0E2A6E000EE82EFED7D6
:105004002A2EFCD72B2EFAD700D026C01AF027C0A0
:105014001BF028C01CF029C01DF09FEC24F01200E6
:1050240014BE1FEF28F0145006E11304D8B01DEF8E
:1050340028F01FEF28F02DEF28F013C015F014C04E
:1050440016F0151E161E154A162A15C013F016C0A2
:1050540014F031EF28F013C013F014C014F0120050
:1050640066C041F067C042F068C043F069C044F0D4
:1050740003EC12F041C05BF042C05CF043C05DF051
:1050840044C05EF0BBEC20F05BC066F05CC067F02F
:105094005DC068F05EC069F01200000E0001706F20
:1050A4006C516A5D6D516B59D8B05BEF28F05DEFC0
:1050B40028F06AEF28F06C516E5D6D516F59D8A0DD
:1050C40066EF28F068EF28F06AEF28F0010E706FA1
:1050D400705112000150021003100410D8B475EF7F
:1050E40028F077EF28F07FEF28F0000E011A000E69
:1050F400021A000E031A800E041A01C001F002C045
:1051040002F003C003F004C004F0120001C003F075
:1051140002C004F090EF28F0014A022A01C0D9FF2E
:1051240002C0DAFFDF50D8A49AEF28F09CEF28F0F1
:105134008EEF28F00350015C016E04500258026E99
:105144001200D5EC28F0010E036E000E21EC29F0BC
:105154003F0E056E550EE82EFED7052EFCD700F047
:10516400030E036E000E21EC29F0D50E036E010E22
:1051740021EC29F01200C8EF28F002C0D9FF03C0C7
:10518400DAFFDF508DEC29F0024A032A02C0D9FF6E
:1051940003C0DAFFDF50D8A4D2EF28F0D4EF28F010
:1051A400BFEF28F012000E01D951F00B0809D96F96
:1051B400D98B9F0ED66F848A848CA79BA79D1D0EC6
:1051C4001D6F1E0E1C6F1C0E6F6F1B0E706F120076
:1051D4000E01D8B5F0EF28F0F2EF28F0EAEF28F04E
:1051E400DACE01F01F0E0116D8A4FBEF28F0FDEF74
:1051F40028F0EAEF28F0120001500302F3CF05F083
:10520400F4CF06F001500402F350062602500302C4
:10521400F350062605C001F006C002F012007F829A
:105224007E8E7988050E026E0F0E016EF10EE82E49
:10523400FED7012EFCD7022EFAD700F01200046E1E
:10524400AAEC29F0520E99EC29F00450800999EC4B
:1052540029F0035099EC29F0A5EC29F012007F8283
:105264007E9E7998110E026E3C0E016ECB0EE82ED6
:10527400FED7012EFCD7022EFAD700F012007F923F
:105284007E9E7988110E026E3C0E016ECB0EE82EC6
:10529400FED7012EFCD7022EFAD700F012007F921F
:1052A4007E8E7998110E026E3C0E016ECB0EE82EA6
:1052B400FED7012EFCD7022EFAD700F01200120EF0
:1052C4000E01626F110E156FE997E895330EE56FC5
:1052D400000EE66FE789E88BE78F1200D6501F0BAC
:1052E4004009D66ED688D650F00B0809D66ED588FC
:1052F4000B0ED46EDB0ED36E120086840E01B495B1
:105304008686B497869C7E9C8792869E81987F82AF
:105314007E8E79881200016E0E0137A594EF29F074
:1053240096EF29F08EEF29F001C0E4FE1200026E20
:10533400EAEC28F002C0D5FE1200F28EF28AF28C5A
:105344000E01298B1200EAEC28F00E01DA85120016
:10535400EAEC28F00E01DA811200EAEC28F00E01E2
:08536400DA831200140A1200A2
:020000040020DA
:10000000FF0FFF0FFF0FFF0FFF0FFF0FFF0FFF0F80
:020000040030CA
:0C000000AAFFFFFF9FFFFFFFFFFFFFFFB5
:00000001FF
