:0400000024EF00F0F9
:060008005C826DEF2CF09C
:100018005C80D8CF01F0E0CF02F00E0133AB17EFD0
:1000280000F019EF00F01EEF00F00001F74BF82B7D
:100038000E01339B02C0E0FF01C0D8FF5C901000A6
:0400480087EF29F025
:100E0000000000004B256409256409256409256458
:100E10000D0A0000000E00018B6F000E8A6F000E9D
:100E2000856F000E846F000E8D6F000E8C6F000EAC
:100E30008F6F000E8E6F000E876F000E866F000E94
:100E4000936F000E926F000E986F000E976F000E5A
:100E5000956F000E946F000E896F000E886F000E64
:100E6000966FCDEC2BF080C00EF081C00FF063ECDC
:100E700028F082C0D9FF83C0DAFFDECF52F0DDCF89
:100E800053F052C003F053C004F0056A066A000E26
:100E900081EC1CF003C015F004C016F005C017F07B
:100EA00006C018F080C0D9FF81C0DAFFDECF54F051
:100EB000DDCF55F054C003F055C004F0056A066A52
:100EC000000E81EC1CF003C011F004C012F005C04C
:100ED00013F006C014F058EC13F011C02AF012C041
:100EE0002BF013C02CF014C02DF0000E2E6E000E4F
:100EF0002F6EC80E306E420E316E6AEC0FF02AC0B3
:100F000099F02BC09AF02CC09BF02DC09CF099C09A
:100F100076F09AC077F09BC078F09CC079F0D4EC62
:100F20002AF076C090F077C091F0000120EE02F038
:100F30008251D9268351DA22DECF52F0DDCF53F031
:100F400052C003F053C004F0056A066A000E81EC3B
:100F50001CF003C015F004C016F005C017F006C061
:100F600018F0000120EE02F08051D9268151DA22DA
:100F7000DECF54F0DDCF55F054C003F055C004F07F
:100F8000056A066A000E81EC1CF003C011F004C073
:100F900012F005C013F006C014F058EC13F011C0A5
:100FA0002AF012C02BF013C02CF014C02DF0000E4C
:100FB0002E6E000E2F6EC80E306E420E316E6AEC31
:100FC0000FF02AC099F02BC09AF02CC09BF02DC0D6
:100FD0009CF099C076F09AC077F09BC078F09CC0E6
:100FE00079F0D4EC2AF076C08AF077C08BF000015B
:100FF00020EE04F08251D9268351DA22DECF52F05E
:10100000DDCF53F052C003F053C004F0056A066A06
:10101000000E81EC1CF003C015F004C016F005C0F2
:1010200017F006C018F0000120EE04F08051D92618
:101030008151DA22DECF54F0DDCF55F054C003F0F9
:1010400055C004F0056A066A000E81EC1CF003C06E
:1010500011F004C012F005C013F006C014F058ECF3
:1010600013F011C02AF012C02BF013C02CF014C0E2
:101070002DF0000E2E6E000E2F6EC80E306E420E3A
:10108000316E6AEC0FF02AC099F02BC09AF02CC098
:101090009BF02DC09CF099C076F09AC077F09BC071
:1010A00078F09CC079F0D4EC2AF0050E536E0F0E48
:1010B000526EF10EE82EFED7522EFCD7532EFAD7E1
:1010C00000F0DDEC2BF080C00EF081C00FF063EC7F
:1010D00028F0000120EE06F08251D9268351DA2251
:1010E000DECF52F0DDCF53F052C003F053C004F016
:1010F000056A066A000E81EC1CF003C015F004C0FE
:1011000016F005C017F006C018F080C0D9FF81C0E6
:10111000DAFFDECF54F0DDCF55F054C003F055C0F8
:1011200004F0056A066A000E81EC1CF003C011F0A1
:1011300004C012F005C013F006C014F058EC13F010
:1011400011C02AF012C02BF013C02CF014C02DF0E7
:10115000000E2E6E000E2F6EC80E306E420E316ED7
:101160006AEC0FF02AC099F02BC09AF02CC09BF0CB
:101170002DC09CF099C076F09AC077F09BC078F0B3
:101180009CC079F0D4EC2AF076C08CF077C08DF05A
:10119000000120EE08F08251D9268351DA22DECFF9
:1011A00052F0DDCF53F052C003F053C004F0056A93
:1011B000066A000E81EC1CF003C015F004C016F0A6
:1011C00005C017F006C018F0000120EE02F08051B3
:1011D000D9268151DA22DECF54F0DDCF55F054C04C
:1011E00003F055C004F0056A066A000E81EC1CF09D
:1011F00003C011F004C012F005C013F006C014F0D3
:1012000058EC13F011C02AF012C02BF013C02CF0D0
:1012100014C02DF0000E2E6E000E2F6EC80E306E14
:10122000420E316E6AEC0FF02AC099F02BC09AF092
:101230002CC09BF02DC09CF099C076F09AC077F03E
:101240009BC078F09CC079F0D4EC2AF076C08EF088
:1012500077C08FF0000120EE0AF08251D926835129
:10126000DA22DECF52F0DDCF53F052C003F053C08C
:1012700004F0056A066A000E81EC1CF003C015F04C
:1012800004C016F005C017F006C018F0000120EEEB
:1012900004F08051D9268151DA22DECF54F0DDCF1F
:1012A00055F054C003F055C004F0056A066A000EFC
:1012B00081EC1CF003C011F004C012F005C013F063
:1012C00006C014F058EC13F011C02AF012C02BF035
:1012D00013C02CF014C02DF0000E2E6E000E2F6ED9
:1012E000C80E306E420E316E6AEC0FF02AC099F0D3
:1012F0002BC09AF02CC09BF02DC09CF099C076F0CA
:101300009AC077F09BC078F09CC079F0D4EC2AF0BA
:10131000000120EE06F08251D9268351DA22DECF79
:1013200052F0DDCF53F052C003F053C004F0056A11
:10133000066A000E81EC1CF003C015F004C016F024
:1013400005C017F006C018F080C0D9FF81C0DAFFD1
:10135000DECF54F0DDCF55F054C003F055C004F09B
:10136000056A066A000E81EC1CF003C011F004C08F
:1013700012F005C013F006C014F058EC13F011C0C1
:101380002AF012C02BF013C02CF014C02DF0000E68
:101390002E6E000E2F6EC80E306E420E316E6AEC4D
:1013A0000FF02AC099F02BC09AF02CC09BF02DC0F2
:1013B0009CF099C076F09AC077F09BC078F09CC002
:1013C00079F0D4EC2AF0050E536E0F0E526EF10E2A
:1013D000E82EFED7522EFCD7532EFAD700F0FDECA4
:1013E0002BF080C00EF081C00FF063EC28F00001FC
:1013F00020EE0CF08251D9268351DA22DECF52F052
:10140000DDCF53F052C003F053C004F0056A066A02
:10141000000E81EC1CF003C015F004C016F005C0EE
:1014200017F006C018F080C0D9FF81C0DAFFDECF08
:1014300054F0DDCF55F054C003F055C004F0056AF8
:10144000066A000E81EC1CF003C011F004C012F01B
:1014500005C013F006C014F058EC13F011C02AF0C8
:1014600012C02BF013C02CF014C02DF0000E2E6E05
:10147000000E2F6EC80E306E420E316E6AEC0FF009
:101480002AC099F02BC09AF02CC09BF02DC09CF084
:1014900099C076F09AC077F09BC078F09CC079F044
:1014A000D4EC2AF076C092F077C093F0000120EEE1
:1014B0000EF08251D9268351DA22DECF52F0DDCFF1
:1014C00053F052C003F053C004F0056A066A000EE0
:1014D00081EC1CF003C015F004C016F005C017F035
:1014E00006C018F0000120EE02F08051D92681518B
:1014F000DA22DECF54F0DDCF55F054C003F055C0F2
:1015000004F0056A066A000E81EC1CF003C011F0BD
:1015100004C012F005C013F006C014F058EC13F02C
:1015200011C02AF012C02BF013C02CF014C02DF003
:10153000000E2E6E000E2F6EC80E306E420E316EF3
:101540006AEC0FF02AC099F02BC09AF02CC09BF0E7
:101550002DC09CF099C076F09AC077F09BC078F0CF
:101560009CC079F0D4EC2AF076C097F077C098F060
:10157000000120EE10F08251D9268351DA22DECF0D
:1015800052F0DDCF53F052C003F053C004F0056AAF
:10159000066A000E81EC1CF003C015F004C016F0C2
:1015A00005C017F006C018F0000120EE04F08051CD
:1015B000D9268151DA22DECF54F0DDCF55F054C068
:1015C00003F055C004F0056A066A000E81EC1CF0B9
:1015D00003C011F004C012F005C013F006C014F0EF
:1015E00058EC13F011C02AF012C02BF013C02CF0ED
:1015F00014C02DF0000E2E6E000E2F6EC80E306E31
:10160000420E316E6AEC0FF02AC099F02BC09AF0AE
:101610002CC09BF02DC09CF099C076F09AC077F05A
:101620009BC078F09CC079F0D4EC2AF076C094F09E
:1016300077C095F0050E536E0F0E526EF10EE82E28
:10164000FED7522EFCD7532EFAD700F0000E000121
:101650007B6F000E7A6F92C07CF093C07DF0000E1D
:101660007F6F460E7E6FB7EC2AF00009D8B43BEFCF
:101670000BF03DEF0BF0AEEF0BF094C003F095C014
:1016800004F0056A066A000E81EC1CF003C015F038
:1016900004C016F005C017F006C018F000019751FD
:1016A0008E25526E98518F21536E52C003F053C055
:1016B00004F0056A066A000E81EC1CF003C011F00C
:1016C00004C012F005C013F006C014F058EC13F07B
:1016D00011C02AF012C02BF013C02CF014C02DF052
:1016E000000E2E6E000E2F6E480E306E430E316EC1
:1016F0006AEC0FF02AC099F02BC09AF02CC09BF036
:101700002DC09CF0000E00017B6F000E7A6F99C017
:1017100076F09AC077F09BC078F09CC079F0D4EC5A
:101720002AF076C07CF077C07DF0010E00017F6F5B
:101730009E0E7E6FB7EC2AF00009D8B4A2EF0BF032
:10174000A4EF0BF0A9EF0BF0030E0001966F8FEFE3
:101750000CF0020E0001966F8FEF0CF0000E0001EE
:101760007B6F000E7A6F97C07CF098C07DF0000E02
:101770007F6F4B0E7E6FB7EC2AF00009D8B4C3EF31
:101780000BF0C5EF0BF03FEF0CF08AC003F08BC0FD
:1017900004F0056A066A000E81EC1CF003C015F027
:1017A00004C016F005C017F006C018F090C003F092
:1017B00091C004F0056A066A000E81EC1CF003C0BB
:1017C00011F004C012F005C013F006C014F058EC7C
:1017D00013F011C02AF012C02BF013C02CF014C06B
:1017E0002DF0000E2E6E000E2F6EFA0E306E430E90
:1017F000316E6AEC0FF02AC099F02BC09AF02CC021
:101800009BF02DC09CF0000E00017B6F000E7A6FE4
:1018100099C076F09AC077F09BC078F09CC079F0C0
:10182000D4EC2AF076C07CF077C07DF0020E000187
:101830007F6F9E0E7E6FB7EC2AF00009D8B423EFBD
:101840000CF025EF0CF03AEF0CF000018D5109E19E
:101850005B0E8C5DD8A02FEF0CF031EF0CF035EF64
:101860000CF0060E966F8FEF0CF0000E0001966FD5
:101870008FEF0CF0010E0001966F8FEF0CF0000E51
:1018800000017B6F000E7A6F92C07CF093C07DF0F8
:10189000000E7F6F5A0E7E6FB7EC2AF00009D8B4A5
:1018A00054EF0CF056EF0CF066EF0CF0000198517D
:1018B00009E15B0E975DD8A060EF0CF062EF0CF0D1
:1018C00035EF0CF0070E966F8FEF0CF0000194517E
:1018D000975D95519859D8B070EF0CF072EF0CF0FD
:1018E00076EF0CF0050E966F8FEF0CF0000E7B6F0D
:1018F000000E7A6F94C07CF095C07DF0000E7F6F73
:101900005A0E7E6FB7EC2AF00009D8B48AEF0CF0BB
:101910008CEF0CF035EF0CF0040E0001966F000E0A
:101920007B6F5F0E7A6F92C07CF093C07DF0000EEB
:101930007F6F690E7E6FB7EC2AF00009D8B4A3EF71
:101940000CF0A5EF0CF0D6EF0CF0000E00017B6F51
:101950005F0E7A6F97C07CF098C07DF0000E7F6FAD
:10196000690E7E6FB7EC2AF00009D8B4BAEF0CF01C
:10197000BCEF0CF0D6EF0CF0000E00017B6F5F0E99
:101980007A6F94C07CF095C07DF0000E7F6F690E79
:101990007E6FB7EC2AF00009D8B4D1EF0CF0D3EF8A
:1019A0000CF0D6EF0CF0080E0001966F000E00014F
:1019B0007B6F000E7A6F92C07CF093C07DF0000EBA
:1019C0007F6F190E7E6FB7EC2AF00009D8B4EBEFE9
:1019D0000CF0EDEF0CF007EF0DF0000E00017B6F47
:1019E000000E7A6F90C07CF091C07DF0000E7F6F8A
:1019F0005A0E7E6FB7EC2AF00009D8B402EF0DF052
:101A000004EF0DF007EF0DF0000E0001966F0001DE
:101A1000965112000650800B0F6E06500624116E70
:101A200005AE15EF0DF017EF0DF018EF0DF011806A
:101A30001150D8B41EEF0DF020EF0DF035EF0DF082
:101A40001128D8A426EF0DF028EF0DF030EF0DF09F
:101A5000000E036E000E046E000E056E000E066E84
:101A6000058E000E066E3DEF0DF0000E036E000EAB
:101A7000046E000E056E000E066E0A50800B106E8E
:101A80000F501018D8B447EF0DF049EF0DF04AEFA2
:101A90000DF00F8C0A500A24106E09AE52EF0DF0B3
:101AA00054EF0DF055EF0DF010801050D8B45BEFEF
:101AB0000DF05DEF0DF072EF0DF01028D8A463EF7C
:101AC0000DF065EF0DF06DEF0DF0000E076E000EDE
:101AD000086E000E096E000E0A6E098E000E0A6E68
:101AE0007AEF0DF0000E076E000E086E000E096E04
:101AF000000E0A6E1150105CD8B081EF0DF083EF2C
:101B00000DF0AAEF0DF00FAC88EF0DF08AEF0DF09D
:101B10008CEF0DF0800E0F1A11C012F010C011F0F2
:101B200012C010F003C012F007C003F012C007F09B
:101B300004C012F008C004F012C008F005C012F092
:101B400009C005F012C009F006C012F00AC006F084
:101B500012C00AF0000E126E115010C00BF00C6A89
:101B60000B5E000E0C5A0CBEBFEF0DF00C5009E1DD
:101B70001A0E0B5CD8A0BFEF0DF0C1EF0DF0F8EF1F
:101B80000DF00350041005100610D8A4CAEF0DF094
:101B9000CDEF0DF0010ECEEF0DF0000E126E000E27
:101BA000036E000E046E000E056E000E066E10C071
:101BB00011F001EF0EF012A0E0EF0DF0E2EF0DF0EA
:101BC000E8EF0DF0D89012300109126EEAEF0DF037
:101BD000D890123203A0EFEF0DF0F1EF0DF0F2EF1D
:101BE0000DF0128E06340632053204320332112A09
:101BF0001050115CD8A0FFEF0DF001EF0EF0DBEFFD
:101C00000DF00FBC06EF0EF008EF0EF048EF0EF0EF
:101C10001150D8A40EEF0EF010EF0EF01AEF0EF0E8
:101C2000000E036E000E046E000E056E000E066EB2
:101C300069EF0FF0075003260850042209500522CF
:101C40000A50062206A027EF0EF029EF0EF0D5EF7E
:101C50000EF012A02EEF0EF030EF0EF036EF0EF079
:101C6000D89012300109126E38EF0EF0D89012326F
:101C700003A03DEF0EF03FEF0EF040EF0EF0128E9E
:101C800006340632053204320332112AD5EF0EF043
:101C90000750035C08500458095005580650800A44
:101CA0000B6E0A50800A0B58D8B059EF0EF05BEF5C
:101CB0000EF086EF0EF00350075C0B6E04500858D0
:101CC0000C6E055009580D6E06500A580E6EFF0E28
:101CD0000B24036EFF0E0C20046EFF0E0D20056E0C
:101CE000FF0E0E20066E800E0F1A126C1250D8A432
:101CF0007CEF0EF07EEF0EF08EEF0EF0010E03265D
:101D0000000E0422052206228EEF0EF00750035E1D
:101D10000850045A0950055A0A50065A0350041034
:101D200005100610D8A497EF0EF099EF0EF0CEEF45
:101D30000EF01250D8A49FEF0EF0A1EF0EF0CEEFF0
:101D40000EF0000E036E000E046E000E056E000E07
:101D5000066E69EF0FF0D890033604360536063666
:101D600012AEB5EF0EF0B7EF0EF0B8EF0EF0038045
:101D700012A0BDEF0EF0BFEF0EF0C3EF0EF0D88053
:101D80001236C5EF0EF0D89012361150D8B4CBEF02
:101D90000EF0CDEF0EF0CEEF0EF0110605AED3EF44
:101DA0000EF0D5EF0EF0ABEF0EF0000E106E12AE8F
:101DB000DCEF0EF0DEEF0EF0F6EF0EF012C00BF0DF
:101DC0007F0E0B16D8B4E7EF0EF0E9EF0EF0EDEF53
:101DD0000EF0010E106EF6EF0EF003A0F2EF0EF013
:101DE000F4EF0EF0F6EF0EF0E9EF0EF01050D8B46D
:101DF000FCEF0EF0FEEF0EF029EF0FF0010E0326C0
:101E0000000E04220522062206A009EF0FF00BEFB8
:101E10000FF029EF0FF003C00BF004C00CF005C069
:101E20000DF006C00EF00E340E320D320C320B32B5
:101E30000BC003F00CC004F00DC005F00EC006F09E
:101E40001128D8B426EF0FF028EF0FF029EF0FF08C
:101E5000112A1128D8B42FEF0FF031EF0FF039EF1E
:101E60000FF01150D8A437EF0FF039EF0FF04BEF10
:101E70000FF0000E036E000E046E000E056E000ED5
:101E8000066E1150D8A447EF0FF049EF0FF04BEF5B
:101E90000FF0000E0F6E11A050EF0FF052EF0FF089
:101EA00055EF0FF0058E56EF0FF0059ED8901130CC
:101EB000066E0FAE5EEF0FF060EF0FF061EF0FF008
:101EC000068E03C003F004C004F005C005F006C090
:101ED00006F012002D50800B366E2D502D243C6ED6
:101EE0002CAE75EF0FF077EF0FF078EF0FF03C802E
:101EF0003C50D8B47EEF0FF080EF0FF093EF0FF06F
:101F00003C28D8A486EF0FF088EF0FF090EF0FF089
:101F1000000E2A6E000E2B6E000E2C6E000E2D6E23
:101F20002C8E9BEF0FF0000E2A6E000E2B6E000E13
:101F30002C6E000E2D6E3150800B361A315031242C
:101F4000376E30AEA6EF0FF0A8EF0FF0A9EF0FF04D
:101F500037803750D8B4AFEF0FF0B1EF0FF0C4EFC8
:101F60000FF03728D8A4B7EF0FF0B9EF0FF0C1EF9B
:101F70000FF0000E2E6E000E2F6E000E306E000E53
:101F8000316E308ECCEF0FF0000E2E6E000E2F6EE5
:101F9000000E306E000E316E3750D8B4D2EF0FF015
:101FA000D4EF0FF0DCEF0FF03C50D8A4DAEF0FF0D5
:101FB000DCEF0FF0E6EF0FF0000E2A6E000E2B6E36
:101FC000000E2C6E000E2D6E7EEF11F030502A02A6
:101FD000F3CF41F0F4CF42F04150386E396A3A6A9B
:101FE0003B6A42503D6E3E6A3F6A406A2F502B0268
:101FF000F3CF41F0F4CF42F041503826000E3922A1
:102000003A223B2242503D26000E3E223F224022F1
:102010002E502C02F3CF41F0F4CF42F0415038263D
:10202000000E39223A223B2242503D26000E3E222B
:102030003F2240223AC03BF039C03AF038C039F074
:10204000386A2E502B02F3CF41F0F4CF42F04150CA
:10205000382642503922000E3A22000E3B222F50E1
:102060002A02F3CF41F0F4CF42F0415038264250DB
:102070003922000E3A22000E3B223AC03BF039C012
:102080003AF038C039F0386A2E502A02F3CF41F0C6
:10209000F4CF42F04150382642503922000E3A2205
:1020A000000E3B2230502B02F3CF41F0F4CF42F030
:1020B00041503D2642503E22000E3F22000E40225B
:1020C0002F502C02F3CF41F0F4CF42F041503D2687
:1020D00042503E22000E3F22000E402230502C0281
:1020E000F3CF41F0F4CF42F04150326E4250336EA4
:1020F000346A356A34C035F033C034F032C033F05E
:10210000326A32503D2633503E2234503F22355001
:10211000402238C032F039C033F03AC034F03BC00E
:1021200035F0190E99EF10F0D89035323432333241
:102130003232E82E94EF10F032503D2633503E22DA
:1021400034503F22355040223AC03BF039C03AF07B
:1021500038C039F0386A37503CC032F0336A322622
:10216000000E3322820E3224416EFF0E3320426E67
:10217000CFEF10F0D8903D363E363F3640363BAE7E
:10218000C4EF10F0C6EF10F0C7EF10F03D80D8900C
:10219000383639363A363B364106D8A042063FAE8D
:1021A000D4EF10F0D6EF10F0BAEF10F0000E376E4B
:1021B0003BAEDDEF10F0DFEF10F003EF11F0FF0E9C
:1021C0003814326EFF0E3914336EFF0E3A14346E2B
:1021D0007F0E3B14356E3250331034103510D8B4A6
:1021E000F4EF10F0F6EF10F0FAEF10F0010E376E8A
:1021F00003EF11F03DA0FFEF10F001EF11F003EF3E
:1022000011F0F6EF10F03750D8B409EF11F00BEFE2
:1022100011F02FEF11F0010E3D26000E3E223F225D
:10222000402240A016EF11F018EF11F02FEF11F03F
:102230003DC032F03EC033F03FC034F040C035F016
:102240003534353234323332323232C03DF033C07D
:102250003EF034C03FF035C040F0414A422A42BE11
:102260003AEF11F0425008E14128D8A03AEF11F0BE
:102270003CEF11F046EF11F0000E3D6E000E3E6E89
:10228000800E3F6E7F0E406E74EF11F042BE53EF32
:1022900011F0425006E14104D8B051EF11F053EF74
:1022A00011F05FEF11F0000E3D6E000E3E6E000E5D
:1022B0003F6E000E406E000E366E74EF11F041C09E
:1022C0003CF0FF0E3D16FF0E3E167F0E3F16000E31
:1022D00040163CA06EEF11F070EF11F071EF11F0AD
:1022E0003F8ED8903C30406E365040123DC02AF0B0
:1022F0003EC02BF03FC02CF040C02DF012008CC12E
:102300006AF08DC16BF08EC16CF08FC16DF043C06F
:102310006AF044C06BF045C06CF046C06DF06AC016
:1023200047F06BC048F06CC049F06DC04AF0180E21
:102330009FEF11F0D8904A32493248324732E82EA6
:102340009AEF11F047500001646F656B65BFB2EF03
:1023500011F0655109E1960E645DD8A0B2EF11F05D
:10236000B4EF11F0BEEF11F043C043F044C044F0AD
:1023700045C045F046C046F057EF13F06AC047F03D
:102380006BC048F06CC049F06DC04AF0200ECEEF33
:1023900011F0D8904A32493248324732E82EC9EF1C
:1023A00011F04750481049104A10D8B4DAEF11F034
:1023B000DCEF11F0EEEF11F043C003F044C004F085
:1023C00045C005F046C006F0F1EC2AF003C043F02A
:1023D00004C044F005C045F006C046F0000165BFEA
:1023E000FDEF11F0655107E17E0E645DD8B0FBEFA3
:1023F00011F0FDEF11F019EF12F06AC02AF06BC076
:102400002BF06CC02CF06DC02DF0000E2E6E000E67
:102410002F6E000E306E000E316E6AEC0FF02AC087
:1024200043F02BC044F02CC045F02DC046F057EFD0
:1024300013F0000E076E000E086E000E096E4B0EB4
:102440000A6E43C003F044C004F045C005F046C026
:1024500006F00AEC0DF003C066F004C067F005C09A
:1024600068F006C069F0000E076E000E086E000EE0
:10247000096ECB0E0A6E66C003F067C004F068C038
:1024800005F069C006F00AEC0DF003C060F004C06E
:1024900061F005C062F006C063F060C013F061C077
:1024A00014F062C015F063C016F043C017F044C0CA
:1024B00018F045C019F046C01AF0ADEC29F013C071
:1024C0006EF014C06FF015C070F016C071F0000E01
:1024D000036E000E046E000E056E3F0E066E6EC09B
:1024E00007F06FC008F070C009F071C00AF02CEC62
:1024F00023F0D8B07EEF12F080EF12F0B6EF12F0BA
:1025000043C007F044C008F045C009F046C00AF0D7
:102510006EC003F06FC004F070C005F071C006F02B
:102520000AEC0DF003C066F004C067F005C068F067
:1025300006C069F066C003F067C004F068C005F02B
:1025400069C006F0000E076E000E086E800E096E60
:10255000BF0E0A6E0AEC0DF003C06EF004C06FF0FF
:1025600005C070F006C071F01FEF13F0000E036E8F
:10257000000E046E000E056EBF0E066E6EC007F0F4
:102580006FC008F070C009F071C00AF02CEC23F0A5
:10259000D8A0CDEF12F0CFEF12F005EF13F043C04B
:1025A00007F044C008F045C009F046C00AF06EC00C
:1025B00003F06FC004F070C005F071C006F00AECC3
:1025C0000DF003C066F004C067F005C068F006C0F7
:1025D00069F066C003F067C004F068C005F069C028
:1025E00006F0000E076E000E086E800E096E3F0E9C
:1025F0000A6E0AEC0DF003C06EF004C06FF005C067
:1026000070F006C071F01FEF13F06EC003F06FC0E2
:1026100004F070C005F071C006F043C007F044C07C
:1026200008F045C009F046C00AF00AEC0DF003C0FE
:102630006EF004C06FF005C070F006C071F06AC0A3
:1026400047F06BC048F06CC049F06DC04AF0200EF6
:102650002FEF13F0D8904A32493248324732E82EF1
:102660002AEF13F04750481049104A10D8B43BEFF6
:1026700013F03DEF13F04FEF13F06EC003F06FC097
:1026800004F070C005F071C006F0F1EC2AF003C050
:102690006EF004C06FF005C070F006C071F06EC03F
:1026A00043F06FC044F070C045F071C046F01200B6
:1026B0001450800B216E14501424286E13AE63EF57
:1026C00013F065EF13F066EF13F028802850D8B4AC
:1026D0006CEF13F06EEF13F083EF13F02828D8A4FB
:1026E00074EF13F076EF13F07EEF13F0000E116E1F
:1026F000000E126E000E136E000E146E138E000E7E
:10270000146E8BEF13F0000E116E000E126E000EA1
:10271000136E000E146E1850800B211A18501824D6
:10272000296E17AE96EF13F098EF13F099EF13F0B0
:1027300029802950D8B49FEF13F0A1EF13F0B6EF22
:1027400013F02928D8A4A7EF13F0A9EF13F0B1EFE5
:1027500013F0000E156E000E166E000E176E000EB2
:10276000186E178E000E186EBEEF13F0000E156E69
:10277000000E166E000E176E000E186E1550161015
:1027800017101810D8A4C7EF13F0C9EF13F0E1EF3A
:1027900013F0000E116E000E126E000E136E000E7E
:1027A000146E800E13127F0E14122150141211C0D9
:1027B00011F012C012F013C013F014C014F024EF83
:1027C00015F02850D8A4E7EF13F0E9EF13F0F3EF7A
:1027D00013F0000E116E000E126E000E136E000E3E
:1027E000146E24EF15F0295028C019F01A6A195EEA
:1027F000000E1A5A7F0E1924226E000E1A20236E24
:1028000011C01DF012C01EF013C01FF014C020F044
:10281000000E116E000E126E000E136E000E146E7E
:10282000000E246E000E256E000E266E000E276E22
:10283000000E296E54EF14F02950D8B422EF14F092
:1028400024EF14F03BEF14F0D8901D361E361F36DF
:102850002036D890113612361336143627AE33EFA1
:1028600014F035EF14F036EF14F01180D8902436C0
:1028700025362636273615501D5C16501E58175023
:102880001F5818502058D8A048EF14F04AEF14F001
:1028900053EF14F0278C15501D5E16501E5A17501A
:1028A0001F5A1850205A292A190E29645AEF14F079
:1028B0005CEF14F01CEF14F01D501E101F102010C0
:1028C000D8B465EF14F067EF14F07FEF14F02480B4
:1028D0007FEF14F0D890113612361336143627AE27
:1028E00074EF14F076EF14F077EF14F01180D890B5
:1028F00024362536263627362206D8A0230613AEE0
:1029000084EF14F086EF14F06AEF14F0000E296ED5
:1029100027AE8DEF14F08FEF14F0B3EF14F0FF0E2D
:102920002414196EFF0E25141A6EFF0E26141B6E4A
:102930007F0E27141C6E19501A101B101C10D8B4CF
:10294000A4EF14F0A6EF14F0AAEF14F0010E296E14
:10295000B3EF14F011A0AFEF14F0B1EF14F0B3EF38
:1029600014F0A6EF14F02950D8B4B9EF14F0BBEF6F
:1029700014F0DFEF14F0010E1126000E12221322C4
:10298000142214A0C6EF14F0C8EF14F0DFEF14F017
:1029900011C019F012C01AF013C01BF014C01CF0C3
:1029A0001C341C321B321A32193219C011F01AC0F1
:1029B00012F01BC013F01CC014F0224A232A23BEBD
:1029C000EAEF14F0235008E12228D8A0EAEF14F02F
:1029D000ECEF14F0F7EF14F0000E236E2268000EF7
:1029E000116E000E126E000E136E000E146E23BEDA
:1029F00004EF15F0235006E12204D8B002EF15F0E1
:102A000004EF15F012EF15F0000E236E000E226E8B
:102A1000000E116E000E126E000E136E000E146E7C
:102A2000000E216E22C028F028A019EF15F01BEF30
:102A300015F01EEF15F0138E1FEF15F0139ED890B2
:102A40002830146ED5EF13F01200426ED58EF7C009
:102A5000F5F0F8C0F6F04250D8B431EF15F033EF8E
:102A600015F0A6EF16F0D59EF7C0F3F0F8C0F4F01D
:102A70000001F351F55D406EF451F659416E5A5024
:102A8000020D3C0EF324D96E010EF420DA6E40C024
:102A9000DEFF41C0DDFF5A2A3CC01CF03DC01DF0E6
:102AA0003EC01EF03FC01FF0FCEC26F04204D8A44C
:102AB0005CEF15F05EEF15F081EF15F03CC028F0EB
:102AC0003DC029F03EC02AF03FC02BF055EC2AF063
:102AD0003CC022F03DC023F03EC024F03FC025F0B2
:102AE0005A0E266ECCEC1FF05A50020D3C0EF32409
:102AF000D96E010EF420DA6E010EDE6E000EDD6E70
:102B00005A2A020E4218D8A488EF15F08AEF15F061
:102B1000ADEF15F03CC028F03DC029F03EC02AF0D2
:102B20003FC02BF055EC2AF03CC022F03DC023F012
:102B30003EC024F03FC025F05A0E266E8CEC20F0EB
:102B40005A50020D3C0EF324D96E010EF420DA6EB9
:102B5000020EDE6E000EDD6E5A2A030E4218D8A455
:102B6000B4EF15F0B6EF15F0D9EF15F03CC028F032
:102B70003DC029F03EC02AF03FC02BF055EC2AF0B2
:102B80003CC022F03DC023F03EC024F03FC025F001
:102B9000B40E266E8CEC20F05A50020D3C0EF3243D
:102BA000D96E010EF420DA6E030EDE6E000EDD6EBD
:102BB0005A2A040E4218D8A4E0EF15F0E2EF15F0FF
:102BC00005EF16F03CC028F03DC029F03EC02AF0C9
:102BD0003FC02BF076EC2AF03CC022F03DC023F041
:102BE0003EC024F03FC025F05A0E266ECCEC1FF0FC
:102BF0005A50020D3C0EF324D96E010EF420DA6E09
:102C0000040EDE6E000EDD6E5A2A050E4218D8A4A0
:102C10000CEF16F00EEF16F031EF16F03CC028F076
:102C20003DC029F03EC02AF03FC02BF076EC2AF0E0
:102C30003CC022F03DC023F03EC024F03FC025F050
:102C40005A0E266E8CEC20F05A50020D3C0EF324E6
:102C5000D96E010EF420DA6E050EDE6E000EDD6E0A
:102C60005A2A060E4218D8A438EF16F03AEF16F09A
:102C70005DEF16F03CC028F03DC029F03EC02AF0C0
:102C80003FC02BF055EC2AF03CC022F03DC023F0B1
:102C90003EC024F03FC025F0870E266ECCEC1FF01E
:102CA0005A50020D3C0EF324D96E010EF420DA6E58
:102CB000060EDE6E000EDD6E5A2A070E4218D8A4EC
:102CC00064EF16F066EF16F089EF16F03CC028F0BE
:102CD0003DC029F03EC02AF03FC02BF055EC2AF051
:102CE0003CC022F03DC023F03EC024F03FC025F0A0
:102CF000870E266E8CEC20F05A50020D3C0EF32409
:102D0000D96E010EF420DA6E070EDE6E000EDD6E57
:102D10005A2A080E4218D8A490EF16F092EF16F037
:102D2000A6EF16F03CC028F03DC029F03EC02AF0C6
:102D30003FC02BF055EC2AF03CC034F03DC035F0DC
:102D40003EC036F03FC037F06FEC19F0120020C0E3
:102D500038F021C039F022C03AF023C03BF024C043
:102D60003CF025C03DF026C03EF027C03FF03FBEFE
:102D7000BCEF16F0BFEF16F0010EC0EF16F0000E1C
:102D8000366E376A36503710D8B4C9EF16F0CBEF2D
:102D900016F0DBEF16F03F1E3E1E3D1E3C1E3B1E96
:102DA0003A1E391E386C000E39223A223B223C2250
:102DB0003D223E223F220001F0BFE1EF16F0E3EF9B
:102DC00016F0E4EF16F0F193F0BFF1EF16F0F051CA
:102DD00006E1EF05D8B0EFEF16F0F1EF16F0F7EFE0
:102DE00016F0000E336E010E326EFBEF16F0EFC0E0
:102DF00032F0F0C033F0EDC034F0EEC035F03650B4
:102E00003710D8A406EF17F008EF17F00FEF17F000
:102E1000F1A50DEF17F00FEF17F012EF17F03406D2
:102E2000D8A03506000E416E1F0E406E000E010147
:102E3000B06F97EF17F04006D8A04106910E4024DE
:102E4000D96E010E4120DA6E38C003F039C004F0AB
:102E50003AC005F03BC006F03CC007F03DC008F0AA
:102E60003EC009F03FC00AF00A0E0B6E000E0C6E59
:102E7000000E0D6E000E0E6E000E0F6E000E106E28
:102E8000000E116E000E126E4CEC21F003C028F003
:102E900004C029F005C02AF006C02BF007C02CF0B2
:102EA00008C02DF009C02EF00AC02FF028C015F080
:102EB0002AC016F097EC2AF01550300FDF6E32065C
:102EC000D8A033063406D8A0350638C003F039C080
:102ED00004F03AC005F03BC006F03CC007F03DC02E
:102EE00008F03EC009F03FC00AF00A0E0B6E000E5B
:102EF0000C6E000E0D6E000E0E6E000E0F6E000EAC
:102F0000106E000E116E000E126E08EC1FF003C062
:102F100038F004C039F005C03AF006C03BF007C0F5
:102F20003CF008C03DF009C03EF00AC03FF041BE91
:102F3000A2EF17F0415008E14004D8A0A2EF17F02B
:102F4000A4EF17F0D5EF17F0385039103A103B10B6
:102F50003C103D103E103F10D8A4B1EF17F0B3EF76
:102F600017F01BEF17F033BEC0EF17F0335006E138
:102F70003204D8B0BEEF17F0C0EF17F01BEF17F018
:102F800035BECBEF17F0355008E13404D8A0CBEFB5
:102F900017F0CDEF17F0D5EF17F00001F1B3D3EF35
:102FA00017F0D5EF17F01BEF17F036503710D8A4F5
:102FB000DCEF17F0DEEF17F0E6EF17F00001F1A5F8
:102FC000E4EF17F0E6EF17F004EF18F04006D8A092
:102FD000410636503710D8A4F0EF17F0F2EF17F093
:102FE000F8EF17F0000E316E2B0E306EFCEF17F07D
:102FF000000E316E2D0E306E910E4024D96E010EF2
:103000004120DA6E30C0DFFF1EC013F01FC014F085
:10301000910E4024156E010E4120166E34C017F03B
:1030200035C018F0D7EC25F013C01EF014C01FF007
:103030001200076E000E066E000E066E65EF19F0A8
:103040000704D8A426EF18F028EF18F060EF18F066
:1030500080A22DEF18F031EF18F0046A042A32EF45
:1030600018F0046A044680500418FD0B0418806EA2
:10307000290E056E960E046E7F0EE82EFED7042EE6
:10308000FCD7052EFAD700F080A249EF18F04DEFDB
:1030900018F0046A042A4EEF18F0046A04468050BF
:1030A0000418FD0B0418806E290E056E960E046E32
:1030B0007F0EE82EFED7042EFCD7052EFAD700F09F
:1030C000020E0718D8A467EF18F069EF18F0A1EF07
:1030D00018F07CA86EEF18F072EF18F0046A042A5A
:1030E00073EF18F0046A043A7C500418EF0B0418CC
:1030F0007C6E290E056E960E046E7F0EE82EFED7AE
:10310000042EFCD7052EFAD700F07CA88AEF18F021
:103110008EEF18F0046A042A8FEF18F0046A043A5C
:103120007C500418EF0B04187C6E290E056E960E69
:10313000046E7F0EE82EFED7042EFCD7052EFAD79C
:1031400000F0030E0718D8A4A8EF18F0AAEF18F0A3
:10315000E6EF18F07CA6AFEF18F0B3EF18F0046AB2
:10316000042AB4EF18F0046A0446044604467C506E
:103170000418F70B04187C6E290E056E960E046E6B
:103180007F0EE82EFED7042EFCD7052EFAD700F0CE
:103190007CA6CDEF18F0D1EF18F0046A042AD2EF24
:1031A00018F0046A0446044604467C500418F70BE1
:1031B00004187C6E290E056E960E046E7F0EE82EA6
:1031C000FED7042EFCD7052EFAD700F0040E071800
:1031D000D8A4EDEF18F0EFEF18F025EF19F07EA06E
:1031E000F4EF18F0F8EF18F0046A042AF9EF18F079
:1031F000046A7E500418FE0B04187E6E290E056EBC
:10320000960E046E7F0EE82EFED7042EFCD7052EF8
:10321000FAD700F07EA00FEF19F013EF19F0046A4F
:10322000042A14EF19F0046A7E500418FE0B0418E7
:103230007E6E290E056E960E046E7F0EE82EFED76A
:10324000042EFCD7052EFAD700F0030E0718D8A4D9
:103250002CEF19F02EEF19F064EF19F080A033EF86
:1032600019F037EF19F0046A042A38EF19F0046AEC
:1032700080500418FE0B0418806E290E056E960E01
:10328000046E7F0EE82EFED7042EFCD7052EFAD74B
:1032900000F080A04EEF19F052EF19F0046A042AF2
:1032A00053EF19F0046A80500418FE0B0418806E66
:1032B000290E056E960E046E7F0EE82EFED7042EA4
:1032C000FCD7052EFAD700F0062A0350065CD8A0DA
:1032D0006CEF19F06EEF19F020EF18F0120034C007
:1032E00022F035C023F036C024F037C025F0B40EEC
:1032F000266E8CEC20F0AFEF1AF034C01CF035C015
:103300001DF036C01EF037C01FF0B0EC27F0000EE5
:103310003B6E000E3A6E9BEF19F0520E396E2B0E7B
:10332000386E000EE82EFED7382EFCD7392EFAD78D
:1033300000D03A4A3B2A5A50020D3C0EF324D96E73
:10334000010EF420DA6EDE503A5CDE503B58D8A015
:10335000ACEF19F0AEEF19F08DEF19F034C01CF09E
:1033600035C01DF036C01EF037C01FF0FCEC26F053
:103370005A50D8A4BEEF19F0C0EF19F0C2EF19F0FF
:10338000B7EF1AF05A065A50020D3C0EF324D96ECC
:10339000010EF420DA6EDE04DE10D8A4D2EF19F0AC
:1033A000D4EF19F0E1EF19F034C022F035C023F06A
:1033B00036C024F037C025F05A0E266E8CEC20F073
:1033C0005A065A50020D3C0EF324D96E010EF42019
:1033D000DA6E020EDE18DE10D8A4F1EF19F0F3EF6A
:1033E00019F000EF1AF034C022F035C023F036C0D7
:1033F00024F037C025F05A0E266ECCEC1FF05A068A
:103400005A50020D3C0EF324D96E010EF420DA6EF0
:10341000030EDE18DE10D8A410EF1AF012EF1AF027
:103420001FEF1AF034C022F035C023F036C024F06C
:1034300037C025F0B40E266E8CEC20F05A065A5098
:10344000020D3C0EF324D96E010EF420DA6E040E48
:10345000DE18DE10D8A42FEF1AF031EF1AF048EF83
:103460001AF034C028F035C029F036C02AF037C031
:103470002BF076EC2AF034C022F035C023F036C0B1
:1034800024F037C025F05A0E266E8CEC20F05A0638
:103490005A50020D3C0EF324D96E010EF420DA6E60
:1034A000050EDE18DE10D8A458EF1AF05AEF1AF005
:1034B00071EF1AF034C028F035C029F036C02AF078
:1034C00037C02BF076EC2AF034C022F035C023F060
:1034D00036C024F037C025F05A0E266ECCEC1FF013
:1034E0005A065A50020D3C0EF324D96E010EF420F8
:1034F000DA6E060EDE18DE10D8A481EF1AF083EF24
:103500001AF090EF1AF034C022F035C023F036C024
:1035100024F037C025F0870E266E8CEC20F05A067A
:103520005A50020D3C0EF324D96E010EF420DA6ECF
:10353000070EDE18DE10D8A4A0EF1AF0A2EF1AF0E2
:10354000AFEF1AF034C022F035C023F036C024F0BB
:1035500037C025F0790E266ECCEC1FF05A065A5073
:10356000D8A4B5EF1AF0B7EF1AF07DEF19F01200FA
:1035700020EE01F01150D9261250DA22DF50D8B4D3
:10358000C4EF1AF0C6EF1AF0F7EF1AF011C0D9FF26
:1035900012C0DAFFDF50136E1350036E046A20EE80
:1035A00007F01150D9261250DA22DECF05F0DDCF18
:1035B00006F09AEC2BF003C009F004C00AF0000EEC
:1035C0000C6E640E0B6E3AEC26F020EE07F01150F4
:1035D000D9261250DA22DECF14F0DDCF15F00950D3
:1035E000145C1A6E0A5015581B6E1AEF1BF011C0AE
:1035F000D9FF12C0DAFFDF50136E1350036E046A56
:1036000020EE07F01150D9261250DA22DECF05F055
:10361000DDCF06F09AEC2BF003C009F004C00AF0ED
:10362000000E0C6E640E0B6E3AEC26F009C01AF018
:103630000AC01BF020EE02F01150D9261250DA22F7
:10364000DECF13F0DDCF14F013C0D9FF14C0DAFFC2
:103650001AC0DFFF20EE01F01150D9261250DA22F5
:10366000DF50D8B436EF1BF038EF1BF06DEF1BF0D6
:1036700020EE04F01150D9261250DA22DECF13F0DA
:10368000DDCF14F013C0D9FF14C0DAFF10EE04F040
:103690001150E1261250E222E6CF15F0E5CF16F0E8
:1036A00015C0E1FF16C0E2FFE750176E10EE06F0FE
:1036B0001150E1261250E222E750186E010E196EE9
:1036C000182A65EF1BF0D8901936182E63EF1BF0FF
:1036D00019501710DF6EA1EF1BF020EE04F011500F
:1036E000D9261250DA22DECF13F0DDCF14F013C04A
:1036F000D9FF14C0DAFF10EE04F01150E126125089
:10370000E222E6CF15F0E5CF16F015C0E1FF16C0B6
:10371000E2FFE750176E10EE06F01150E12612504E
:10372000E222E750186E010E196E182A9AEF1BF06C
:10373000D8901936182E98EF1BF01950FF0A17145D
:10374000DF6E1200000E0001E46F000EE36F000E4A
:10375000E86F000EE76F000EEA6F000EE96F000ED3
:10376000E46F000EE36FEDEC2BF0DFC00EF0E0C075
:103770000FF063EC28F0DFC079F0E0C07AF0FAECEB
:1037800027F0090E0001E26F1E0EE16FE40EE82E35
:10379000FED7E12FFCD7E22FFAD700F00001E34B70
:1037A000E42BE4BFDDEF1BF0E45109E1050EE35D1E
:1037B000D8A0DDEF1BF0DFEF1BF0B3EF1BF0000E26
:1037C0005AEC2BF0000E0001E66F000EE56FCDEC19
:1037D0002BF0DFC00EF0E0C00FF063EC28F0DFC08C
:1037E00079F0E0C07AF0FAEC27F0090E0001E26F00
:1037F0001E0EE16FE40EE82EFED7E12FFCD7E22F7C
:10380000FAD700F00001E54BE62BE6BF11EF1CF004
:10381000E65109E1050EE55DD8A011EF1CF013EFAC
:103820001CF0E7EF1BF0000E5AEC2BF0000E00012D
:10383000E86F000EE76FDDEC2BF0DFC00EF0E0C0AC
:103840000FF063EC28F0DFC079F0E0C07AF0FAEC1A
:1038500027F0090E0001E26F1E0EE16FE40EE82E64
:10386000FED7E12FFCD7E22FFAD700F00001E74B9B
:10387000E82BE8BF45EF1CF0E85109E1050EE75DD4
:10388000D8A045EF1CF047EF1CF01BEF1CF0000E1A
:103890005AEC2BF0000E0001EA6F000EE96FFDEC10
:1038A0002BF0DFC00EF0E0C00FF063EC28F0DFC0BB
:1038B00079F0E0C07AF0FAEC27F0090E0001E26F2F
:1038C0001E0EE16FE40EE82EFED7E12FFCD7E22FAB
:1038D000FAD700F00001E94BEA2BEABF79EF1CF0C0
:1038E000EA5109E1050EE95DD8A079EF1CF07BEF04
:1038F0001CF04FEF1CF0010E5AEC2BF0EDEC2BF00E
:1039000012000B6E0B50D8B488EF1CF08AEF1CF03D
:10391000ACEF1CF006BE91EF1CF08FEF1CF0ACEF8B
:103920001CF003C007F004C008F005C009F006C091
:103930000AF0071E081E091E0A1E072A000E08228A
:1039400009220A2207C00DF008C00EF009C00FF0CE
:103950000AC010F0B4EF1CF003C00DF004C00EF06C
:1039600005C00FF006C010F003500410051006103B
:10397000D8A4BDEF1CF0BFEF1CF0C9EF1CF0000E87
:10398000036E000E046E000E056E000E066E5AEFFA
:103990001DF0960E0C6ED3EF1CF00C2AD89010324E
:1039A0000F320E320D32000E0D14076E000E0E1483
:1039B000086E000E0F14096EFE0E10140A6E0750EA
:1039C000081009100A10D8A4E8EF1CF0EAEF1CF068
:1039D000CDEF1CF0F8EF1CF00C2A010E0D26000EA6
:1039E0000E220F221022D89010320F320E320D32DA
:1039F000000E0D14076E000E0E14086E000E0F144C
:103A0000096EFF0E10140A6E0750081009100A10F4
:103A1000D8A40DEF1DF00FEF1DF0ECEF1CF017EF29
:103A20001DF00C06D8900D360E360F3610360FBE30
:103A30001CEF1DF01EEF1DF026EF1DF0020E0C60B6
:103A400024EF1DF026EF1DF011EF1DF00CB02BEF51
:103A50001DF02DEF1DF02EEF1DF00F9ED8900C32B3
:103A60000CC007F0086A096A0A6A07C00AF0096A06
:103A7000086A076A07500D1208500E1209500F12FB
:103A80000A5010120B50D8B448EF1DF04AEF1DF049
:103A900052EF1DF006BE51EF1DF04FEF1DF052EF3B
:103AA0001DF0108E0DC003F00EC004F00FC005F025
:103AB00010C006F0120044C0D9FF45C0DAFFDECFC7
:103AC000F6FFDDCFF7FF0800F550250AD8A46BEF0D
:103AD0001DF06DEF1DF019EF1EF044C0D9FF45C079
:103AE000DAFFDE2A000EDD22000E0001EE6F000E6E
:103AF000ED6FEDC0F1F0EEC0F2F0EF69F06944C097
:103B0000D9FF45C0DAFFDECFF6FFDDCFF7FF0800B3
:103B1000F550640AD8B48FEF1DF091EF1DF0A3EFBC
:103B20001DF044C0D9FF45C0DAFFDECFF6FFDDCF80
:103B3000F7FF0800F550690AD8A4A1EF1DF0A3EF24
:103B40001DF0E3EF1DF044C0D9FF45C0DAFFDE2AC7
:103B5000000EDD2246C0D9FF47C0DAFFDFCF48F0B4
:103B6000020EDE26DFCF49F0000EDD2248C0D9FF6D
:103B700049C0DAFFDECF4AF0DDCF4BF0000E4BBE7E
:103B8000FF0E4C6E4D6E4E6E4F6E506E516E42C0BB
:103B90001EF043C01FF04AC020F04BC021F04CC0C3
:103BA00022F04DC023F04EC024F04FC025F050C08D
:103BB00026F051C027F0A7EC16F01EC042F01FC03F
:103BC00043F034EF1EF044C0D9FF45C0DAFFDECF2A
:103BD000F6FFDDCFF7FF0800F550250AD8A4F3EF74
:103BE0001DF0F5EF1DF00CEF1EF044C0D9FF45C0ED
:103BF000DAFFDE2A000EDD22000E046E250E036EB3
:103C000042C005F043C006F072EC25F0000E436E92
:103C1000010E426E34EF1EF044C0D9FF45C0DAFFFA
:103C2000DE2A000EDD22000E436E000E426E34EFDF
:103C30001EF044C0D9FF45C0DAFFDECFF6FFDDCF6E
:103C4000F7FF0800F550036E046A42C005F043C058
:103C500006F072EC25F044C0D9FF45C0DAFFDE2A39
:103C6000000EDD2206EF1EF01200CDEC2BF0E7EC8B
:103C700028F00EC0D9FF0FC0DAFF07C0DEFF08C072
:103C8000DDFF0FEC29F020EE02F00E50D9260F5088
:103C9000DA2207C0DEFF08C0DDFF5FEC29F020EE6E
:103CA00004F00E50D9260F50DA2207C0DEFF08C0FC
:103CB000DDFF090E116E1E0E106EE40EE82EFED70B
:103CC000102EFCD7112EFAD700D0DDEC2BF0E7EC4C
:103CD00028F020EE06F00E50D9260F50DA2207C049
:103CE000DEFF08C0DDFF0FEC29F020EE08F00E50DB
:103CF000D9260F50DA2207C0DEFF08C0DDFF5FECD7
:103D000029F020EE0AF00E50D9260F50DA2207C013
:103D1000DEFF08C0DDFF090E116E1E0E106EE40EF0
:103D2000E82EFED7102EFCD7112EFAD700D0FDECCE
:103D30002BF0E7EC28F020EE0CF00E50D9260F50B7
:103D4000DA2207C0DEFF08C0DDFF0FEC29F020EE0D
:103D50000EF00E50D9260F50DA2207C0DEFF08C041
:103D6000DDFF5FEC29F020EE10F00E50D9260F5049
:103D7000DA2207C0DEFF08C0DDFF090E116E1E0E3D
:103D8000106EE40EE82EFED7102EFCD7112EFAD7B7
:103D900000D0EDEC2BF0E7EC28F020EE12F00E5006
:103DA000D9260F50DA2207C0DEFF08C0DDFF0FEC76
:103DB00029F020EE14F00E50D9260F50DA2207C059
:103DC000DEFF08C0DDFF5FEC29F020EE16F00E509C
:103DD000D9260F50DA2207C0DEFF08C0DDFF37EC1E
:103DE00029F020EE18F00E50D9260F50DA2207C025
:103DF000DEFF08C0DDFF090E116E1E0E106EE40E10
:103E0000E82EFED7102EFCD7112EFAD700D01200C4
:103E1000000E146E12BE11EF1FF00FEF1FF023EF14
:103E20001FF0121E111E101E0F1E0E1E0D1E0C1E48
:103E30000B6C000E0C220D220E220F2210221122DA
:103E40001222010E146E0ABE2AEF1FF028EF1FF097
:103E50003CEF1FF00A1E091E081E071E061E051E47
:103E6000041E036C000E04220522062207220822EB
:103E700009220A22010E141A20EE15F0070EDE6A3E
:103E8000E806FDE20B500C100D100E100F10101074
:103E900011101210D8B44FEF1FF051EF1FF0A3EF25
:103EA0001FF0010E136E5FEF1FF0D8900B360C362B
:103EB0000D360E360F36103611361236132A12AE64
:103EC00064EF1FF066EF1FF055EF1FF0D890153626
:103ED00016361736183619361A361B361C360B505E
:103EE000035C0C5004580D5005580E5006580F50E6
:103EF0000758105008581150095812500A58D8A0A5
:103F000084EF1FF086EF1FF097EF1FF00B50035E5A
:103F10000C50045A0D50055A0E50065A0F50075AAD
:103F20001050085A1150095A12500A5A1580D89048
:103F30001232113210320F320E320D320C320B327D
:103F4000132E66EF1FF01450D8B4A9EF1FF0ABEF9B
:103F50001FF0BBEF1FF01C1E1B1E1A1E191E181E81
:103F6000171E161E156C000E162217221822192273
:103F70001A221B221C2215C003F016C004F017C021
:103F800005F018C006F019C007F01AC008F01BC0F1
:103F900009F01CC00AF0120020EE01F02250D926D0
:103FA0002350DA22010EDF6E20EE01F02450D926D4
:103FB0002550DA22010EDF6EFDEF1FF022C0D9FF7F
:103FC00023C0DAFF050EDF2624C0D9FF25C0DAFFA3
:103FD000000EDF6E22C011F023C012F0B8EC1AF010
:103FE00024C011F025C012F0B8EC1AF0D00E276EE4
:103FF000CA0EE82EFED7272EFCD722C0D9FF23C039
:10400000DAFF180EDF6407EF20F009EF20F0DEEF93
:104010001FF026500001FC03F3CF32F0F4CF33F051
:104020000A0E3224286E000E3320296E140E32241C
:104030002A6E000E33202B6EB40E2618D8A423EF60
:1040400020F025EF20F040EF20F0000E2D6E000E46
:104050002C6E35EF20F0150E276EC60EE82EFED71B
:10406000272EFCD700D02C4A2D2A2A502C5C2B500E
:104070002D58D8A03EEF20F040EF20F02BEF20F09D
:10408000870E2618D8A447EF20F049EF20F066EFFE
:1040900020F0000E2F6E000E2E6E59EF20F0150E40
:1040A000276EC60EE82EFED7272EFCD700D02E4A4C
:1040B0002F2A28502E5C29502F58D8A062EF20F0CC
:1040C00064EF20F04FEF20F081EF20F0000E316E12
:1040D000000E306E76EF20F0150E276EC60EE82E1D
:1040E000FED7272EFCD700D0304A312A3250305C20
:1040F00033503158D8A07FEF20F081EF20F06CEFE3
:1041000020F022C01CF023C01DF024C01EF025C0EA
:104110001FF0FCEC26F0120020EE01F02250D92610
:104120002350DA22010EDF6E20EE01F02450D92652
:104130002550DA22010EDF6EBDEF20F024C0D9FF3A
:1041400025C0DAFF050EDF2622C0D9FF23C0DAFF23
:10415000000EDF6E22C011F023C012F0B8EC1AF08E
:1041600024C011F025C012F0B8EC1AF0D00E276E62
:10417000CA0EE82EFED7272EFCD724C0D9FF25C0B3
:10418000DAFF180EDF64C7EF20F0C9EF20F09EEFD2
:1041900020F026500001FC03F3CF32F0F4CF33F0CF
:1041A0000A0E3224286E000E3320296E140E32249B
:1041B0002A6E000E33202B6EB40E2618D8A4E3EF1F
:1041C00020F0E5EF20F000EF21F0000E2D6E000E44
:1041D0002C6EF5EF20F0150E276EC60EE82EFED7DA
:1041E000272EFCD700D02C4A2D2A2A502C5C2B508D
:1041F0002D58D8A0FEEF20F000EF21F0EBEF20F0DB
:10420000870E2618D8A407EF21F009EF21F026EF3A
:1042100021F0000E2F6E000E2E6E19EF21F0150EFC
:10422000276EC60EE82EFED7272EFCD700D02E4ACA
:104230002F2A28502E5C29502F58D8A022EF21F089
:1042400024EF21F00FEF21F041EF21F0000E316E4D
:10425000000E306E36EF21F0150E276EC60EE82EDA
:10426000FED7272EFCD700D0304A312A3250305C9E
:1042700033503158D8A03FEF21F041EF21F02CEF1F
:1042800021F022C01CF023C01DF024C01EF025C068
:104290001FF0FCEC26F01200000E146E0ABE55EF63
:1042A00021F053EF21F067EF21F00A1E091E081ECE
:1042B000071E061E051E041E036C000E04220522A6
:1042C00006220722082209220A22010E146E12BEBB
:1042D0006EEF21F06CEF21F07EEF21F0121E111E27
:1042E000101E0F1E0E1E0D1E0C1E0B6C000E0C223F
:1042F0000D220E220F221022112212220B500C101E
:104300000D100E100F10101011101210D8B48BEFEA
:1043100021F08DEF21F0D5EF21F0010E136E9BEF10
:1043200021F0D8900B360C360D360E360F3610367F
:1043300011361236132A12AEA0EF21F0A2EF21F0AF
:1043400091EF21F00B50035C0C5004580D500558B0
:104350000E5006580F500758105008581150095861
:1043600012500A58D8A0B7EF21F0B9EF21F0C9EFE9
:1043700021F00B50035E0C50045A0D50055A0E509C
:10438000065A0F50075A1050085A1150095A125025
:104390000A5AD8901232113210320F320E320D32C8
:1043A0000C320B32132EA2EF21F01450D8B4DBEFF5
:1043B00021F0DDEF21F0EDEF21F00A1E091E081EAD
:1043C000071E061E051E041E036C000E0422052295
:1043D00006220722082209220A2203C003F004C091
:1043E00004F005C005F006C006F007C007F008C0DD
:1043F00008F009C009F00AC00AF0120058EC2CF0CD
:104400002CEC2CF071EC2BF028EC2BF0000E046E51
:10441000C70E036EF2EC29F047EC2CF01DEC2CF0EB
:10442000D60E036E010E046EE00E056E010E066ED2
:1044300009EC25F0ADEC2BF00DEC2CF0020E036E28
:10444000010E19EC18F0520E0101B26F2B0EB16F74
:10445000000EE82EFED7B12FFCD7B22FFAD700F00E
:10446000B40E0E6E010E0F6E35EC1EF0520E0101F1
:10447000B26F2B0EB16F000EE82EFED7B12FFCD716
:10448000B22FFAD700F00DEC2CF0020E036E010EE5
:1044900019EC18F0000E0101B36FD60E386E010E44
:1044A000396EE00E3A6E010E3B6E27EC24F0CE0E14
:1044B0000E6E010E0F6E63EC28F0CE0E0001796FC8
:1044C000010E7A6FFAEC27F081EF22F0D60E1C6E07
:1044D000010E1D6EE00E1E6E010E1F6EB0EC27F079
:1044E000D60E00017A6F010E7B6FE00E7C6F010E1D
:1044F0007D6FB40E7E6F010E7F6F9AEC24F0010188
:10450000B36F0101B351D8B488EF22F08AEF22F0E3
:1045100066EF22F0D60E1C6E010E1D6EE00E1E6EB2
:10452000010E1F6EFCEC26F0520E0101B26F2B0E35
:10453000B16F000EE82EFED7B12FFCD7B22FFAD7FD
:1045400000F0000E0101B36F57EF22F024EF00F0EE
:10455000000174357535506E5050D8A4B2EF22F07A
:10456000B4EF22F0BEEF22F0000E726F000E736FF8
:10457000000E746F000E756F2BEF23F072C04BF0BE
:1045800073C04CF074C04DF075C04EF0200ECEEFED
:1045900022F0D8904E324D324C324B32E82EC9EFD9
:1045A00022F04B504F6E748FFF0E7217FF0E731771
:1045B000FF0E7417000E7517960E505E50BEE5EF95
:1045C00022F0E3EF22F0FBEF22F05050800A970F29
:1045D000D8B0EDEF22F0EFEF22F0F1EF22F0B4EFE0
:1045E00022F0D8907533743373337233503EF1EF49
:1045F00022F013EF23F01F0E506401EF23F003EFBE
:1046000023F00BEF23F0B4EF22F0D890723773371A
:104610007437753750065050D8A411EF23F013EFBC
:1046200023F005EF23F04F50D8B419EF23F01BEF20
:1046300023F023EF23F0751F741F731F726D000E9C
:1046400073237423752372C072F073C073F074C047
:1046500074F075C075F01200000E03140B6E000E9E
:1046600004140C6E800E05140D6E7F0E06140E6E73
:104670000B500C100D100E10D8A441EF23F043EF97
:1046800023F04BEF23F0000E036E000E046E000EBD
:10469000056E000E066E000E07140B6E000E081459
:1046A0000C6E800E09140D6E7F0E0A140E6E0B50E8
:1046B0000C100D100E10D8A460EF23F062EF23F061
:1046C0006AEF23F0000E076E000E086E000E096EF2
:1046D000000E0A6E06AE6FEF23F071EF23F07AEF53
:1046E00023F0036C041ED8B0042A051ED8B0052A96
:1046F000800E06560AAE7FEF23F081EF23F08AEF9B
:1047000023F0076C081ED8B0082A091ED8B0092A61
:10471000800E0A56000E031A000E041A000E051A27
:10472000800E061A000E071A000E081A000E091A4B
:10473000800E0A1A0750035C0850045809500558A7
:104740000A500658D8B0A7EF23F0A9EF23F0ACEF3A
:1047500023F0D890ADEF23F0D880120034C022F0BF
:1047600035C023F036C024F037C025F013EC2AF012
:1047700034C022F035C023F036C024F037C025F015
:104780005A0E266E8CEC20F034C022F035C023F097
:1047900036C024F037C025F013EC2AF034C022F0E4
:1047A00035C023F036C024F037C025F05A0E266EEF
:1047B0008CEC20F034C022F035C023F036C024F059
:1047C00037C025F013EC2AF034C022F035C023F0B6
:1047D00036C024F037C025F0B40E266E8CEC20F0E5
:1047E00034C022F035C023F036C024F037C025F0A5
:1047F00013EC2AF034C022F035C023F036C024F088
:1048000037C025F05A0E266ECCEC1FF034C022F0D3
:1048100035C023F036C024F037C025F013EC2AF061
:1048200034C022F035C023F036C024F037C025F064
:104830005A0E266ECCEC1FF034C022F035C023F0A7
:1048400036C024F037C025F013EC2AF012007C8E1D
:1048500080868EB42EEF24F030EF24F05AEF24F04F
:10486000190E3D6E5A0E3C6EB20EE82EFED73C2E4F
:10487000FCD73D2EFAD78EB440EF24F042EF24F05F
:1048800051EF24F07C9E190E3D6E5A0E3C6EB20E16
:10489000E82EFED73C2EFCD73D2EFAD7050E0001A0
:1048A000FC278EB656EF24F058EF24F05AEF24F090
:1048B0008DEF24F08EB65FEF24F061EF24F027EF48
:1048C00024F0190E3D6E5A0E3C6EB20EE82EFED745
:1048D0003C2EFCD73D2EFAD78EB471EF24F073EF47
:1048E00024F075EF24F08DEF24F08EB67AEF24F0EB
:1048F0007CEF24F027EF24F08096190E3D6E5A0EBF
:104900003C6EB20EE82EFED73C2EFCD73D2EFAD7D9
:10491000050E0001FC5F27EF24F07C9E809638C0D6
:1049200034F039C035F03AC036F03BC037F0AEEC69
:1049300023F01200000E0001816F000E806F000E48
:104940008A6F000E836F000E826FEDEC2BF037EC58
:1049500029F007C088F008C089F00FEC29F0000E9C
:10496000156E000E166ED20E176E420E186E0001F6
:1049700020EE18F07E51D9267F51DA22DECF51F099
:10498000DDCF52F051C003F052C004F0056A066A50
:10499000000E81EC1CF003C011F004C012F005C041
:1049A00013F006C014F058EC13F011C02AF012C036
:1049B0002BF013C02CF014C02DF0000E2E6E000E44
:1049C0002F6EC80E306E420E316E6AEC0FF02AC0A8
:1049D00084F02BC085F02CC086F02DC087F084C0F9
:1049E00076F085C077F086C078F087C079F0D4EC97
:1049F0002AF0C40E0001885D090E8959D8A003EF82
:104A000025F005EF25F007EF25F0010E8A6F8A519A
:104A1000120003C0D9FF04C0DAFF000EDF6E20EEE3
:104A200001F00350D9260450DA22010EDF6E20EE89
:104A300002F00350D9260450DA22A30EDE6E0F0EC8
:104A4000DD6E20EE04F00350D9260450DA227D0EEC
:104A5000DE6E0F0EDD6E20EE06F00350D9260450F8
:104A6000DA22040EDF6E20EE07F00350D926045040
:104A7000DA22C70EDE6E000EDD6E05C0D9FF06C05D
:104A8000DAFF000EDF6E20EE01F00550D926065049
:104A9000DA22010EDF6E20EE02F00550D926065014
:104AA000DA22A00EDE6E0F0EDD6E20EE04F0055051
:104AB000D9260650DA227F0EDE6E0F0EDD6E20EE56
:104AC00006F00550D9260650DA22060EDF6E20EEDB
:104AD00007F00550D9260650DA22C70EDE6E000E0A
:104AE000DD6E120005500610D8B479EF25F07BEF8B
:104AF00025F084EF25F005500610D8A482EF25F0AC
:104B000084EF25F089EF25F0035071EC2CF0D6EFFF
:104B100025F020EE09F00550D9260650DA22DE50A5
:104B2000DE10D8B496EF25F098EF25F0B3EF25F01E
:104B300020EE09F00550D9260650DA2210EE03F0D7
:104B40000550E1260650E222DE50E65CE650800A7F
:104B50000B6EDE50800A0B58D8B0B1EF25F0B3EFE2
:104B600025F0D6EF25F020EE03F00550D9260650AB
:104B7000DA22DECF07F0DDCF08F005C0D9FF06C08E
:104B8000DAFFDECF09F0DDCF0AF007500924D96E35
:104B900008500A20DA6E03C0DFFF20EE03F0055054
:104BA000D9260650DA22DE2A000EDD22120000018C
:104BB000F1A1DDEF25F0DFEF25F0E9EF25F015C0DD
:104BC0000CF016C00DF013C00EF014C00FF0D0ECB6
:104BD00029F018BEEEEF25F0F0EF25F0F6EF25F006
:104BE00017C01CF018C01DF0FAEF25F0000E1D6E66
:104BF000000E1C6E000E1B6E000E1A6E0CEF26F0DF
:104C0000000E046E200E036E13C005F014C006F0F3
:104C100072EC25F01A4A1B2A1C501A5C1B50800AA1
:104C2000196E1D50800A1958D8A019EF26F01BEFF5
:104C300026F000EF26F00001F1B121EF26F023EF7E
:104C400026F02DEF26F015C00CF016C00DF013C0A5
:104C50000EF014C00FF0D0EC29F015C003F016C010
:104C600004F00DEC2BF01C500324136E1D50042097
:104C7000146E1200000E0E6E0CBE43EF26F041EFD4
:104C800026F049EF26F00B6C0C1ED8B00C2A010E52
:104C90000E6E0ABE50EF26F04EEF26F056EF26F0CD
:104CA000096C0A1ED8B00A2A010E0E1A000E106EE8
:104CB000000E0F6E0B500C10D8B461EF26F063EFAE
:104CC00026F08BEF26F0010E0D6E6BEF26F0D890DC
:104CD0000B360C360D2A0CAE70EF26F072EF26F074
:104CE00067EF26F0D8900F3610360B50095C0C5049
:104CF0000A58D8A07EEF26F080EF26F085EF26F048
:104D00000B50095E0C500A5A0F80D8900C320B32AF
:104D10000D2E72EF26F00E50D8B491EF26F093EFDF
:104D200026F097EF26F00F6C101ED8B0102A0FC097
:104D300009F010C00AF0120020EE01F02250D9262E
:104D40002350DA22000EDF6E20EE01F02450D92627
:104D50002550DA22000EDF6ECDEF26F022C0D9FFFB
:104D600023C0DAFF0A0EDF2624C0D9FF25C0DAFFF0
:104D70000A0EDF2622C011F023C012F0B8EC1AF0A0
:104D800024C011F025C012F0B8EC1AF0D00E266E37
:104D9000CA0EE82EFED7262EFCD722C0D9FF23C08C
:104DA000DAFF320EDF60D7EF26F0D9EF26F0E5EF1D
:104DB00026F024C0D9FF25C0DAFF310EDF64E3EF0F
:104DC00026F0E5EF26F0AEEF26F0290E276E960EC0
:104DD000266E7F0EE82EFED7262EFCD7272EFAD77A
:104DE00000F022C01CF023C01DF024C01EF025C01E
:104DF0001FF0FCEC26F0120035EF27F01CC0D9FFA5
:104E00001DC0DAFFDF50D8B408EF27F00AEF27F013
:104E100010EF27F01CC0D9FF1DC0DAFF050EDF5EC2
:104E20001EC0D9FF1FC0DAFFDF50D8B41AEF27F039
:104E30001CEF27F022EF27F01EC0D9FF1FC0DAFFBA
:104E4000050EDF5E1CC011F01DC012F0B8EC1AF0A8
:104E50001EC011F01FC012F0B8EC1AF0D00E206E78
:104E6000CA0EE82EFED7202EFCD71CC0D9FF1DC0CD
:104E7000DAFFDF50D8A43FEF27F041EF27F0FEEF35
:104E800026F01EC0D9FF1FC0DAFFDF50D8A44BEFB9
:104E900027F04DEF27F0FEEF26F0090E216E1E0ED3
:104EA000206EE40EE82EFED7202EFCD7212EFAD756
:104EB00000D012000001A36F050E576E0F0E566E44
:104EC000F10EE82EFED7562EFCD7572EFAD700F05B
:104ED0009DC080F09EC081F09FC082F0A0C083F092
:104EE0000AEC07F0566E56500001A46FA56B050E34
:104EF000576E0F0E566EF10EE82EFED7562EFCD7CB
:104F0000572EFAD700F09DC080F09EC081F09FC060
:104F100082F0A0C083F00AEC07F0566E56500001F4
:104F2000A16FA26BA351566E576AA451561807E1A0
:104F3000A5515718D8A49FEF27F0A1EF27F0AFEFA6
:104F400027F0A151A41907E1A251A519D8A4ABEFEC
:104F500027F0ADEF27F0AFEF27F0AFEF27F012000B
:104F600020EE01F01C50D9261D50DA22010EDF6E12
:104F700020EE01F01E50D9261F50DA22010EDF6EFE
:104F8000E1EF27F01CC0D9FF1DC0DAFF0A0EDF26B3
:104F90001EC0D9FF1FC0DAFF0A0EDF261CC011F0A9
:104FA0001DC012F0B8EC1AF01EC011F01FC012F0B4
:104FB000B8EC1AF0D00E206ECA0EE82EFED7202EC6
:104FC000FCD71CC0D9FF1DC0DAFF140EDF60EBEF69
:104FD00027F0EDEF27F0F9EF27F01EC0D9FF1FC033
:104FE000DAFF130EDF64F7EF27F0F9EF27F0C2EFD7
:104FF00027F012007B0E0001606F000E616F050E3E
:10500000626F0E0E636F79C0D9FF7AC0DAFFDECF10
:1050100064F0DDCF65F020EE02F07951D9267A51A7
:10502000DA22DECF66F0DDCF67F020EE04F07951B2
:10503000D9267A51DA22DECF68F0DDCF69F020EE92
:1050400006F07951D9267A51DA22DECF6AF0DDCF27
:105050006BF0BEEC28F07B0E046E000E056E42EC89
:105060002BF0120054C058F055C059F0000E00014A
:10507000EC6F000EEB6F50EF28F052C042F053C0BF
:1050800043F0580E446E000E456E56C046F057C0B1
:1050900047F05BEC1DF042500001EB274350EC233E
:1050A00058C0F6FF59C0F7FF0800F5500009D8A412
:1050B0005CEF28F05EEF28F03DEF28F0EBC052F0F7
:1050C000ECC053F01200E7EC28F00EC0D9FF0FC07F
:1050D000DAFF07C0DEFF08C0DDFF5FEC29F020EE3D
:1050E00004F00E50D9260F50DA2207C0DEFF08C0A8
:1050F000DDFF0FEC29F020EE02F00E50D9260F5004
:10510000DA2207C0DEFF08C0DDFF37EC29F020EE11
:1051100006F00E50D9260F50DA2207C0DEFF08C075
:10512000DDFF120022C01CF023C01DF024C01EF0C1
:1051300025C01FF0B0EC27F0190E276E5A0E266E10
:10514000B20EE82EFED7262EFCD7272EFAD722C085
:105150001CF023C01DF024C01EF025C01FF0FCEC85
:1051600026F0290E276E960E266E7F0EE82EFED7AD
:10517000262EFCD7272EFAD700F01200640E00016D
:105180006C6F000E6D6F60C06EF061C06FF0000E4E
:10519000726F000E716F000E786F000E776F6E0EDB
:1051A000526E000E536E62C054F063C055F06C0E28
:1051B000566E000E576E32EC28F0000171516025DA
:1051C000D96E72516121DA6E000EDF6E120063EC4F
:1051D0002CF0520E52EC2CF0B60E52EC2CF068EC87
:1051E0002CF0530E52EC2CF0010E34EC2AF0096E28
:1051F00009500C6E0D6A000E34EC2AF0096E09504D
:105200000B6E0A6A0C500A100C6E0D500B100D6ECE
:105210005EEC2CF00CC007F00DC008F0120063EC3F
:105220002CF0520E52EC2CF0B80E52EC2CF068EC34
:105230002CF0530E52EC2CF0010E34EC2AF0096ED7
:1052400009500C6E0D6A000E34EC2AF0096E0950FC
:105250000B6E0A6A0C500A100C6E0D500B100D6E7E
:105260005EEC2CF00CC007F00DC008F0120063ECEF
:105270002CF0520E52EC2CF0B40E52EC2CF068ECE8
:105280002CF0530E52EC2CF0010E34EC2AF0096E87
:1052900009500C6E0D6A000E34EC2AF0096E0950AC
:1052A0000B6E0A6A0C500A100C6E0D500B100D6E2E
:1052B0005EEC2CF00CC007F00DC008F0120063EC9F
:1052C0002CF0520E52EC2CF0BA0E52EC2CF068EC92
:1052D0002CF0530E52EC2CF0010E34EC2AF0096E37
:1052E00009500C6E0D6A000E34EC2AF0096E09505C
:1052F0000B6E0A6A0C500A100C6E0D500B100D6EDE
:105300005EEC2CF00CC007F00DC008F01200DE0EB1
:10531000F66E580EF76E000EF86E0900F5CFFCF031
:105320000900F5CFFDF00900F5CFFEF001EE00F029
:10533000B10EEE6AE806FDE100EEEBF0110EEE6A4A
:10534000E806FDE15B6A5A6A5C905C92000EF86EBA
:105350000E0EF76E0001FEEF21F0000E171A000E80
:10536000181A000E191A800E1A1A13C003F014C06E
:1053700004F015C005F016C006F017C007F018C0FD
:1053800008F019C009F01AC00AF00AEC0DF003C0C9
:1053900013F004C014F005C015F006C016F012009A
:1053A000000E126E000E116EE1EF29F010C003F036
:1053B000046A0EC005F00FC006F072EC25F0114A29
:1053C000122A11500C24D96E12500D20DA6EDF50C3
:1053D000106E1050D8A4EFEF29F0F1EF29F0D6EFBE
:1053E00029F012008594839E879C85987D947B9EEE
:1053F0007F9C7D98BD508F0B3009BD6EE00EBE16B0
:10540000BF50F00B0109BF6EC70EBC6EBD8E0A0EF9
:105410000E01746F0B0E696F000EA36E000EA06E6E
:10542000A48EA18E120022C01CF023C01DF024C047
:105430001EF025C01FF0B0EC27F0290E276E960E47
:10544000266E7F0EE82EFED7262EFCD7272EFAD703
:1054500000F022C01CF023C01DF024C01EF025C0A7
:105460001FF0FCEC26F01200056E86EC2BF00E010E
:10547000DA8786EC2BF0D5CE06F086EC2BF00550C3
:10548000D8B445EF2AF049EF2AF0046A042A4AEF1B
:105490002AF0046A043A04460E01DA510418DF0BBC
:1054A0000418DA6FDA890650120028C022F029C0E9
:1054B00023F02AC024F02BC025F09CEC26F0290E06
:1054C0002D6E960E2C6E7F0EE82EFED72C2EFCD75E
:1054D0002D2EFAD700F028C01CF029C01DF02AC0DC
:1054E0001EF02BC01FF0FCEC26F0120028C022F0AA
:1054F00029C023F02AC024F02BC025F09CEC26F014
:10550000520E2D6E2B0E2C6E000EE82EFED72C2E7A
:10551000FCD72D2EFAD700D028C01CF029C01DF0D2
:105520002AC01EF02BC01FF0FCEC26F0120016BEA5
:10553000A4EF2AF0165006E11504D8B0A2EF2AF025
:10554000A4EF2AF0B2EF2AF015C017F016C018F039
:10555000171E181E174A182A17C015F018C016F083
:10556000B6EF2AF015C015F016C016F01200000EA6
:10557000516E00017C517A5D7D517B59D8B0C3EFEB
:105580002AF0C5EF2AF0D2EF2AF07C517E5D7D51E2
:105590007F59D8A0CEEF2AF0D0EF2AF0D2EF2AF030
:1055A000010E516E5150120076C043F077C044F0A6
:1055B00078C045F079C046F07FEC11F043C072F03E
:1055C00044C073F045C074F046C075F0A8EC22F0FA
:1055D00072C076F073C077F074C078F075C079F05F
:1055E00012000350041005100610D8B4FAEF2AF088
:1055F000FCEF2AF004EF2BF0000E031A000E041A41
:10560000000E051A800E061A03C003F004C004F051
:1056100005C005F006C006F0120003C005F004C086
:1056200006F015EF2BF0034A042A03C0D9FF04C08B
:10563000DAFFDF50D8A41FEF2BF021EF2BF013EF90
:105640002BF00550035C036E06500458046E1200E4
:1056500071EC2BF0010E056E000EBDEC2BF03F0E31
:10566000076E550EE82EFED7072EFCD700F0030E6E
:10567000056E000EBDEC2BF0D50E056E010EBDECD7
:105680002BF012004DEF2BF004C0D9FF05C0DAFF5C
:10569000DF503BEC2CF0044A052A04C0D9FF05C0BA
:1056A000DAFFDF50D8A457EF2BF059EF2BF044EF7F
:1056B0002BF012000001DD6F790E0001606F000E0B
:1056C000616F0D0E626F0E0E636FDDC064F0656B6F
:1056D000BEEC28F0790E046E000E056E42EC2BF045
:1056E00012000E01D951F00B0809D96FD98B9F0E0A
:1056F000D66F848A848CA79BA79D1D0E1D6F1E0EDE
:105700001C6F1C0E6F6F1B0E706F12000E01D8B550
:105710008CEF2BF08EEF2BF086EF2BF0DACE03F030
:105720001F0E0316D8A497EF2BF099EF2BF086EFFE
:105730002BF0120003500502F3CF07F0F4CF08F06E
:1057400003500602F350082604500502F3500826C1
:1057500007C003F008C004F0120086840E01B4955F
:105760008686B4978792869E81987F827E8E79887E
:10577000849E7C9E889680961200066E63EC2CF0C8
:10578000520E52EC2CF00650800952EC2CF00550D1
:1057900052EC2CF05EEC2CF012007F827E9E799809
:1057A000110E046E3C0E036ECB0EE82EFED7032EB8
:1057B000FCD7042EFAD700F012007F927E9E7988E3
:1057C000110E046E3C0E036ECB0EE82EFED7032E98
:1057D000FCD7042EFAD700F012007F827E8E7988E3
:1057E000050E046E0F0E036EF10EE82EFED7032E8B
:1057F000FCD7042EFAD700F012007F927E8E7998A3
:10580000110E046E3C0E036ECB0EE82EFED7032E57
:10581000FCD7042EFAD700F012007F927E9E799872
:10582000110E046E3C0E036ECB0EE82EFED7032E37
:10583000FCD7042EFAD700F01200120E0E01626F90
:10584000110E156FE997E895330EE56F000EE66FC0
:10585000E789E88BE78F1200D6501F0B4009D66E00
:10586000D688D650F00B0809D66ED5880B0ED46EAC
:10587000DB0ED36E1200036E0E0137A542EF2CF043
:1058800044EF2CF03CEF2CF003C0E4FE12008892B1
:10589000849884968690889080927C987C967E905E
:1058A00080901200046E86EC2BF004C0D5FE12002E
:1058B000F28EF28AF28C0E01298B120086EC2BF00C
:1058C0000E01DA85120086EC2BF00E01DA8112004F
:1058D00086EC2BF00E01DA8312005C9211000A14A0
:0158E0000ABD
:0258E2001200B2
:020000040020DA
:10000000FF0FFF0FFF0FFF0FFF0FFF0FFF0FFF0F80
:020000040030CA
:0C000000AAFFFFFF9FFFFFFFFFFFFFFFB5
:00000001FF
