:040000005CEF0AF0B7
:100E0000000925640925640925640925640D0A0083
:100E10004C6967687420626C7565004F72616E671B
:100E2000650059656C6C6F7700576869746500429E
:100E30006C61636B00477265656E004572726F721C
:100E400000426C75650050696E6B0052656400006D
:100E500020EE01F00F50D9261050DA22DF50D8B41E
:100E600034EF07F036EF07F067EF07F00FC0D9FF58
:100E700010C0DAFFDF50116E1150016E026A20EED1
:100E800007F00F50D9261050DA22DECF03F0DDCF65
:100E900004F0D5EC0AF001C007F002C008F0000E23
:100EA0000A6E640E096EE4EC08F020EE07F00F50B5
:100EB000D9261050DA22DECF12F0DDCF13F0075022
:100EC000125C186E08501358196E8AEF07F00FC0A5
:100ED000D9FF10C0DAFFDF50116E1150016E026AA7
:100EE00020EE07F00F50D9261050DA22DECF03F0A3
:100EF000DDCF04F0D5EC0AF001C007F002C008F025
:100F0000000E0A6E640E096EE4EC08F007C018F0DB
:100F100008C019F020EE02F00F50D9261050DA2246
:100F2000DECF11F0DDCF12F011C0D9FF12C0DAFF11
:100F300018C0DFFF20EE01F00F50D9261050DA2242
:100F4000DF50D8B4A6EF07F0A8EF07F0DDEF07F009
:100F500020EE04F00F50D9261050DA22DECF11F027
:100F6000DDCF12F011C0D9FF12C0DAFF10EE04F08D
:100F70000F50E1261050E222E6CF13F0E5CF14F037
:100F800013C0E1FF14C0E2FFE750156E10EE06F04B
:100F90000F50E1261050E222E750166E010E176E38
:100FA000162AD5EF07F0D8901736162ED3EF07F094
:100FB00017501510DF6E11EF08F020EE04F00F50FF
:100FC000D9261050DA22DECF11F0DDCF12F011C099
:100FD000D9FF12C0DAFF10EE04F00F50E1261050D6
:100FE000E222E6CF13F0E5CF14F013C0E1FF14C006
:100FF000E2FFE750156E10EE06F00F50E12610509C
:10100000E222E750166E010E176E162A0AEF08F05C
:10101000D8901736162E08EF08F01750FF0A15144F
:10102000DF6E120001C0D9FF02C0DAFF000EDF6ED2
:1010300020EE01F00150D9260250DA22010EDF6EB7
:1010400020EE02F00150D9260250DA22A30EDE6E05
:101050000F0EDD6E20EE04F00150D9260250DA2288
:101060007D0EDE6E0F0EDD6E20EE06F00150D926ED
:101070000250DA22040EDF6E20EE07F00150D9266E
:101080000250DA22C70EDE6E000EDD6E03C0D9FFFD
:1010900004C0DAFF000EDF6E20EE01F00350D92607
:1010A0000450DA22010EDF6E20EE02F00350D92642
:1010B0000450DA22A00EDE6E0F0EDD6E20EE04F07C
:1010C0000350D9260450DA227F0EDE6E0F0EDD6E3D
:1010D00020EE06F00350D9260450DA22060EDF6E09
:1010E00020EE07F00350D9260450DA22C70EDE6E38
:1010F000000EDD6E120020EE01F02050D9262150A6
:10110000DA22010EDF6E20EE01F02250D9262350A4
:10111000DA22010EDF6EACEF08F020C0D9FF21C04B
:10112000DAFF050EDF2622C0D9FF23C0DAFF000E4A
:10113000DF6E20C00FF021C010F028EC07F022C0B5
:101140000FF023C010F028EC07F0D00E256ECA0E69
:10115000E82EFED7252EFCD720C0D9FF21C0DAFF0C
:10116000270EDF64B6EF08F0B8EF08F08DEF08F057
:1011700024505902F3CF26F0F4CF27F0000E296E49
:10118000000E286ECEEF08F0150E256EC60EE82E66
:10119000FED7252EFCD700D0284A292A2650285CC5
:1011A00027502958D8A0D7EF08F0D9EF08F0C4EF9E
:1011B00008F020C01AF021C01BF022C01CF023C090
:1011C0001DF046EC09F01200000E0C6E0ABEEDEFA9
:1011D00008F0EBEF08F0F3EF08F0096C0A1ED8B046
:1011E0000A2A010E0C6E08BEFAEF08F0F8EF08F0BC
:1011F00000EF09F0076C081ED8B0082A010E0C1A7F
:10120000000E0E6E000E0D6E09500A10D8B40BEFD2
:1012100009F00DEF09F035EF09F0010E0B6E15EF37
:1012200009F0D89009360A360B2A0AAE1AEF09F0EF
:101230001CEF09F011EF09F0D8900D360E36095069
:10124000075C0A500858D8A028EF09F02AEF09F0E7
:101250002FEF09F00950075E0A50085A0D80D89008
:101260000A3209320B2E1CEF09F00C50D8B43BEFB8
:1012700009F03DEF09F041EF09F00D6C0E1ED8B0FA
:101280000E2A0DC007F00EC008F012007FEF09F023
:101290001AC0D9FF1BC0DAFFDF50D8B452EF09F0F3
:1012A00054EF09F05AEF09F01AC0D9FF1BC0DAFF5A
:1012B000050EDF5E1CC0D9FF1DC0DAFFDF50D8B4B9
:1012C00064EF09F066EF09F06CEF09F01CC0D9FF7C
:1012D0001DC0DAFF050EDF5E1AC00FF01BC010F054
:1012E00028EC07F01CC00FF01DC010F028EC07F030
:1012F000D00E1E6ECA0EE82EFED71E2EFCD71AC0C8
:10130000D9FF1BC0DAFFDF50D8A489EF09F08BEFBB
:1013100009F048EF09F01CC0D9FF1DC0DAFFDF500B
:10132000D8A495EF09F097EF09F048EF09F0290EDE
:101330001F6E960E1E6E7F0EE82EFED71E2EFCD759
:101340001F2EFAD700F012008EB4A9EF09F0ABEF10
:1013500009F0C1EF09F0190E336E5A0E326EB20E5B
:10136000E82EFED7322EFCD7332EFAD78EB6BBEF3F
:1013700009F0BDEF09F0BFEF09F0E0EF09F0050E4D
:1013800059268EB6C6EF09F0C8EF09F0A4EF09F0B0
:10139000190E336E5A0E326EB20EE82EFED7322E72
:1013A000FCD7332EFAD78EB4D8EF09F0DAEF09F074
:1013B000DCEF09F0E0EF09F0050E595EA4EF09F04B
:1013C0002EC02AF02FC02BF030C02CF031C02DF0F1
:1013D00095EC0AF0F40E336E820E326E050EE82E96
:1013E000FED7322EFCD7332EFAD700F01200ACEC29
:1013F0000AF07BEC0AF0000E026EC70E016E3BECA9
:101400000AF0F8EC0AF0400E016E000E026E360E85
:10141000036E000E046E12EC08F00DEC0BF0869CCF
:101420007E9C8792869E81987F827E8E7988F40E3C
:10143000356E820E346E050EE82EFED7342EFCD7A4
:10144000352EFAD700F0400E2E6E000E2F6E360E9F
:10145000306E000E316EA4EC09F0400E2A6E000EC4
:101460002B6E360E2C6E000E2D6E95EC0AF02DEFC5
:101470000AF000EF00F08594839E879C85987D9408
:101480007B9E7F9C7D98BD508F0B3009BD6EE00E1A
:10149000BE16BF50F00B0109BF6EC70EBC6EBD8EED
:1014A0000A0E0E01746F0B0E696F000EA36E000E14
:1014B000A06EA48EA18E12003A0EF66E160EF76E76
:1014C000000EF86E0900F5CF58F00900F5CF59F07D
:1014D00000EE60F05A0EEE6AE806FDE100EE4AF01A
:1014E0000E0EEE6AE806FDE1000EF86E0E0EF76EC7
:1014F0000001F7EF09F0ACEC0AF0010E036E000EEC
:10150000E8EC0AF03F0E056E550EE82EFED7052ECC
:10151000FCD700F0030E036E000EE8EC0AF0D50EC7
:10152000036E010EE8EC0AF012002AC020F02BC076
:1015300021F02CC022F02DC023F05A0E246E7BEC3B
:1015400008F02AC01AF02BC01BF02CC01CF02DC0D4
:101550001DF046EC09F012000E01D951F00B0809FC
:10156000D96FD98B9F0ED66F848A848CA79BA79D39
:101570001D0E1D6F1E0E1C6F1C0E6F6F1B0E706FED
:1015800012000E01D8B5C7EF0AF0C9EF0AF0C1EF9B
:101590000AF0DACE01F01F0E0116D8A4D2EF0AF03D
:1015A000D4EF0AF0C1EF0AF0120001500302F3CFAA
:1015B00005F0F4CF06F001500402F3500626025065
:1015C0000302F350062605C001F006C002F0120027
:1015D000046E18EC0BF0520E07EC0BF0045080096F
:1015E00007EC0BF0035007EC0BF013EC0BF01200C0
:1015F000120E0E01626F110E156FE997E895330E0A
:10160000E56F000EE66FE789E88BE78F1200026E48
:10161000C1EC0AF002C0D5FE120086840E01B4951A
:101620008686B4971200C1EC0AF00E01DA8512002A
:0C163000C1EC0AF00E01DA811200010783
:020000040020DA
:10000000FF0FFF0FFF0FFF0FFF0FFF0FFF0FFF0F80
:020000040030CA
:0C000000AAFFFFFF9FFFFFFFFFFFFFFFB5
:00000001FF
